{
	"day8-TipJar/day8-tipjar.sol": {
		"TipJar": {
			"abi": [
				{
					"inputs": [],
					"stateMutability": "nonpayable",
					"type": "constructor"
				},
				{
					"inputs": [
						{
							"internalType": "string",
							"name": "_currencyCode",
							"type": "string"
						},
						{
							"internalType": "uint256",
							"name": "_rateToEth",
							"type": "uint256"
						}
					],
					"name": "addCurrency",
					"outputs": [],
					"stateMutability": "nonpayable",
					"type": "function"
				},
				{
					"inputs": [
						{
							"internalType": "string",
							"name": "",
							"type": "string"
						}
					],
					"name": "conversionRates",
					"outputs": [
						{
							"internalType": "uint256",
							"name": "",
							"type": "uint256"
						}
					],
					"stateMutability": "view",
					"type": "function"
				},
				{
					"inputs": [
						{
							"internalType": "string",
							"name": "_currencyCode",
							"type": "string"
						},
						{
							"internalType": "uint256",
							"name": "_amount",
							"type": "uint256"
						}
					],
					"name": "convertToEth",
					"outputs": [
						{
							"internalType": "uint256",
							"name": "",
							"type": "uint256"
						}
					],
					"stateMutability": "view",
					"type": "function"
				},
				{
					"inputs": [],
					"name": "getContractBalance",
					"outputs": [
						{
							"internalType": "uint256",
							"name": "",
							"type": "uint256"
						}
					],
					"stateMutability": "view",
					"type": "function"
				},
				{
					"inputs": [
						{
							"internalType": "string",
							"name": "_currencyCode",
							"type": "string"
						}
					],
					"name": "getConversionRate",
					"outputs": [
						{
							"internalType": "uint256",
							"name": "",
							"type": "uint256"
						}
					],
					"stateMutability": "view",
					"type": "function"
				},
				{
					"inputs": [],
					"name": "getSupportedCurrencies",
					"outputs": [
						{
							"internalType": "string[]",
							"name": "",
							"type": "string[]"
						}
					],
					"stateMutability": "view",
					"type": "function"
				},
				{
					"inputs": [
						{
							"internalType": "address",
							"name": "_tipper",
							"type": "address"
						}
					],
					"name": "getTipperContribution",
					"outputs": [
						{
							"internalType": "uint256",
							"name": "",
							"type": "uint256"
						}
					],
					"stateMutability": "view",
					"type": "function"
				},
				{
					"inputs": [],
					"name": "owner",
					"outputs": [
						{
							"internalType": "address",
							"name": "",
							"type": "address"
						}
					],
					"stateMutability": "view",
					"type": "function"
				},
				{
					"inputs": [
						{
							"internalType": "uint256",
							"name": "",
							"type": "uint256"
						}
					],
					"name": "supportedCurrencies",
					"outputs": [
						{
							"internalType": "string",
							"name": "",
							"type": "string"
						}
					],
					"stateMutability": "view",
					"type": "function"
				},
				{
					"inputs": [
						{
							"internalType": "string",
							"name": "_currencyCode",
							"type": "string"
						},
						{
							"internalType": "uint256",
							"name": "_amount",
							"type": "uint256"
						}
					],
					"name": "tipInCurrency",
					"outputs": [],
					"stateMutability": "payable",
					"type": "function"
				},
				{
					"inputs": [],
					"name": "tipInEth",
					"outputs": [],
					"stateMutability": "payable",
					"type": "function"
				},
				{
					"inputs": [
						{
							"internalType": "address",
							"name": "",
							"type": "address"
						}
					],
					"name": "tipperContributions",
					"outputs": [
						{
							"internalType": "uint256",
							"name": "",
							"type": "uint256"
						}
					],
					"stateMutability": "view",
					"type": "function"
				},
				{
					"inputs": [
						{
							"internalType": "string",
							"name": "",
							"type": "string"
						}
					],
					"name": "tipsPerCurrency",
					"outputs": [
						{
							"internalType": "uint256",
							"name": "",
							"type": "uint256"
						}
					],
					"stateMutability": "view",
					"type": "function"
				},
				{
					"inputs": [],
					"name": "totalTipsReceived",
					"outputs": [
						{
							"internalType": "uint256",
							"name": "",
							"type": "uint256"
						}
					],
					"stateMutability": "view",
					"type": "function"
				},
				{
					"inputs": [
						{
							"internalType": "address",
							"name": "_newOwner",
							"type": "address"
						}
					],
					"name": "transferOwnership",
					"outputs": [],
					"stateMutability": "nonpayable",
					"type": "function"
				},
				{
					"inputs": [],
					"name": "withdrawTips",
					"outputs": [],
					"stateMutability": "nonpayable",
					"type": "function"
				}
			],
			"devdoc": {
				"kind": "dev",
				"methods": {},
				"version": 1
			},
			"evm": {
				"assembly": "    /* \"day8-TipJar/day8-tipjar.sol\":59:4159  contract TipJar {... */\n  mstore(0x40, 0x80)\n    /* \"day8-TipJar/day8-tipjar.sol\":1715:1932  constructor() {... */\n  callvalue\n  dup1\n  iszero\n  tag_1\n  jumpi\n  revert(0x00, 0x00)\ntag_1:\n  pop\n    /* \"day8-TipJar/day8-tipjar.sol\":1748:1758  msg.sender */\n  caller\n    /* \"day8-TipJar/day8-tipjar.sol\":1740:1745  owner */\n  0x00\n  0x00\n    /* \"day8-TipJar/day8-tipjar.sol\":1740:1758  owner = msg.sender */\n  0x0100\n  exp\n  dup2\n  sload\n  dup2\n  0xffffffffffffffffffffffffffffffffffffffff\n  mul\n  not\n  and\n  swap1\n  dup4\n  0xffffffffffffffffffffffffffffffffffffffff\n  and\n  mul\n  or\n  swap1\n  sstore\n  pop\n    /* \"day8-TipJar/day8-tipjar.sol\":1771:1801  addCurrency(\"USD\", 5 * 10**14) */\n  tag_4\n  mload(0x40)\n  dup1\n  0x40\n  add\n  0x40\n  mstore\n  dup1\n  0x03\n  dup2\n  mstore\n  0x20\n  add\n  0x5553440000000000000000000000000000000000000000000000000000000000\n  dup2\n  mstore\n  pop\n    /* \"day8-TipJar/day8-tipjar.sol\":1790:1800  5 * 10**14 */\n  0x01c6bf52634000\n    /* \"day8-TipJar/day8-tipjar.sol\":1771:1782  addCurrency */\n  shl(0x20, tag_5)\n    /* \"day8-TipJar/day8-tipjar.sol\":1771:1801  addCurrency(\"USD\", 5 * 10**14) */\n  0x20\n  shr\n  jump\t// in\ntag_4:\n    /* \"day8-TipJar/day8-tipjar.sol\":1812:1842  addCurrency(\"EUR\", 6 * 10**14) */\n  tag_6\n  mload(0x40)\n  dup1\n  0x40\n  add\n  0x40\n  mstore\n  dup1\n  0x03\n  dup2\n  mstore\n  0x20\n  add\n  0x4555520000000000000000000000000000000000000000000000000000000000\n  dup2\n  mstore\n  pop\n    /* \"day8-TipJar/day8-tipjar.sol\":1831:1841  6 * 10**14 */\n  0x0221b262dd8000\n    /* \"day8-TipJar/day8-tipjar.sol\":1812:1823  addCurrency */\n  shl(0x20, tag_5)\n    /* \"day8-TipJar/day8-tipjar.sol\":1812:1842  addCurrency(\"EUR\", 6 * 10**14) */\n  0x20\n  shr\n  jump\t// in\ntag_6:\n    /* \"day8-TipJar/day8-tipjar.sol\":1853:1883  addCurrency(\"JPY\", 4 * 10**12) */\n  tag_7\n  mload(0x40)\n  dup1\n  0x40\n  add\n  0x40\n  mstore\n  dup1\n  0x03\n  dup2\n  mstore\n  0x20\n  add\n  0x4a50590000000000000000000000000000000000000000000000000000000000\n  dup2\n  mstore\n  pop\n    /* \"day8-TipJar/day8-tipjar.sol\":1872:1882  4 * 10**12 */\n  0x03a352944000\n    /* \"day8-TipJar/day8-tipjar.sol\":1853:1864  addCurrency */\n  shl(0x20, tag_5)\n    /* \"day8-TipJar/day8-tipjar.sol\":1853:1883  addCurrency(\"JPY\", 4 * 10**12) */\n  0x20\n  shr\n  jump\t// in\ntag_7:\n    /* \"day8-TipJar/day8-tipjar.sol\":1894:1924  addCurrency(\"GBP\", 7 * 10**14) */\n  tag_8\n  mload(0x40)\n  dup1\n  0x40\n  add\n  0x40\n  mstore\n  dup1\n  0x03\n  dup2\n  mstore\n  0x20\n  add\n  0x4742500000000000000000000000000000000000000000000000000000000000\n  dup2\n  mstore\n  pop\n    /* \"day8-TipJar/day8-tipjar.sol\":1913:1923  7 * 10**14 */\n  0x027ca57357c000\n    /* \"day8-TipJar/day8-tipjar.sol\":1894:1905  addCurrency */\n  shl(0x20, tag_5)\n    /* \"day8-TipJar/day8-tipjar.sol\":1894:1924  addCurrency(\"GBP\", 7 * 10**14) */\n  0x20\n  shr\n  jump\t// in\ntag_8:\n    /* \"day8-TipJar/day8-tipjar.sol\":59:4159  contract TipJar {... */\n  jump(tag_9)\n    /* \"day8-TipJar/day8-tipjar.sol\":530:1707  function addCurrency(string memory _currencyCode, uint256 _rateToEth) public onlyOwner {... */\ntag_5:\n    /* \"day8-TipJar/day8-tipjar.sol\":457:462  owner */\n  0x00\n  0x00\n  swap1\n  sload\n  swap1\n  0x0100\n  exp\n  swap1\n  div\n  0xffffffffffffffffffffffffffffffffffffffff\n  and\n    /* \"day8-TipJar/day8-tipjar.sol\":443:462  msg.sender == owner */\n  0xffffffffffffffffffffffffffffffffffffffff\n  and\n    /* \"day8-TipJar/day8-tipjar.sol\":443:453  msg.sender */\n  caller\n    /* \"day8-TipJar/day8-tipjar.sol\":443:462  msg.sender == owner */\n  0xffffffffffffffffffffffffffffffffffffffff\n  and\n  eq\n    /* \"day8-TipJar/day8-tipjar.sol\":435:502  require(msg.sender == owner, \"Only owner can perform this action.\") */\n  tag_11\n  jumpi\n  mload(0x40)\n  0x08c379a000000000000000000000000000000000000000000000000000000000\n  dup2\n  mstore\n  0x04\n  add\n  tag_12\n  swap1\n  tag_13\n  jump\t// in\ntag_12:\n  mload(0x40)\n  dup1\n  swap2\n  sub\n  swap1\n  revert\ntag_11:\n    /* \"day8-TipJar/day8-tipjar.sol\":649:650  0 */\n  0x00\n    /* \"day8-TipJar/day8-tipjar.sol\":636:646  _rateToEth */\n  dup2\n    /* \"day8-TipJar/day8-tipjar.sol\":636:650  _rateToEth > 0 */\n  gt\n    /* \"day8-TipJar/day8-tipjar.sol\":628:683  require(_rateToEth > 0, \"Rate must be greater than 0.\") */\n  tag_15\n  jumpi\n  mload(0x40)\n  0x08c379a000000000000000000000000000000000000000000000000000000000\n  dup2\n  mstore\n  0x04\n  add\n  tag_16\n  swap1\n  tag_17\n  jump\t// in\ntag_16:\n  mload(0x40)\n  dup1\n  swap2\n  sub\n  swap1\n  revert\ntag_15:\n    /* \"day8-TipJar/day8-tipjar.sol\":1476:1481  false */\n  0x00\n    /* \"day8-TipJar/day8-tipjar.sol\":1446:1481  isSupported[_currencyCode] == false */\n  iszero\n  iszero\n    /* \"day8-TipJar/day8-tipjar.sol\":1446:1457  isSupported */\n  0x06\n    /* \"day8-TipJar/day8-tipjar.sol\":1458:1471  _currencyCode */\n  dup4\n    /* \"day8-TipJar/day8-tipjar.sol\":1446:1472  isSupported[_currencyCode] */\n  mload(0x40)\n  tag_18\n  swap2\n  swap1\n  tag_19\n  jump\t// in\ntag_18:\n  swap1\n  dup2\n  mstore\n  0x20\n  add\n  mload(0x40)\n  dup1\n  swap2\n  sub\n  swap1\n  keccak256\n  0x00\n  swap1\n  sload\n  swap1\n  0x0100\n  exp\n  swap1\n  div\n  0xff\n  and\n    /* \"day8-TipJar/day8-tipjar.sol\":1446:1481  isSupported[_currencyCode] == false */\n  iszero\n  iszero\n  sub\n    /* \"day8-TipJar/day8-tipjar.sol\":1442:1597  if (isSupported[_currencyCode] == false) {... */\n  tag_20\n  jumpi\n    /* \"day8-TipJar/day8-tipjar.sol\":1498:1517  supportedCurrencies */\n  0x02\n    /* \"day8-TipJar/day8-tipjar.sol\":1523:1536  _currencyCode */\n  dup3\n    /* \"day8-TipJar/day8-tipjar.sol\":1498:1537  supportedCurrencies.push(_currencyCode) */\n  swap1\n  dup1\n  0x01\n  dup2\n  sload\n  add\n  dup1\n  dup3\n  sstore\n  dup1\n  swap2\n  pop\n  pop\n  0x01\n  swap1\n  sub\n  swap1\n  0x00\n  mstore\n  keccak256(0x00, 0x20)\n  add\n  0x00\n  swap1\n  swap2\n  swap1\n  swap2\n  swap1\n  swap2\n  pop\n  swap1\n  dup2\n  tag_22\n  swap2\n  swap1\n  tag_23\n  jump\t// in\ntag_22:\n  pop\n    /* \"day8-TipJar/day8-tipjar.sol\":1581:1585  true */\n  0x01\n    /* \"day8-TipJar/day8-tipjar.sol\":1552:1563  isSupported */\n  0x06\n    /* \"day8-TipJar/day8-tipjar.sol\":1564:1577  _currencyCode */\n  dup4\n    /* \"day8-TipJar/day8-tipjar.sol\":1552:1578  isSupported[_currencyCode] */\n  mload(0x40)\n  tag_24\n  swap2\n  swap1\n  tag_19\n  jump\t// in\ntag_24:\n  swap1\n  dup2\n  mstore\n  0x20\n  add\n  mload(0x40)\n  dup1\n  swap2\n  sub\n  swap1\n  keccak256\n  0x00\n    /* \"day8-TipJar/day8-tipjar.sol\":1552:1585  isSupported[_currencyCode] = true */\n  0x0100\n  exp\n  dup2\n  sload\n  dup2\n  0xff\n  mul\n  not\n  and\n  swap1\n  dup4\n  iszero\n  iszero\n  mul\n  or\n  swap1\n  sstore\n  pop\n    /* \"day8-TipJar/day8-tipjar.sol\":1442:1597  if (isSupported[_currencyCode] == false) {... */\ntag_20:\n    /* \"day8-TipJar/day8-tipjar.sol\":1689:1699  _rateToEth */\n  dup1\n    /* \"day8-TipJar/day8-tipjar.sol\":1656:1671  conversionRates */\n  0x01\n    /* \"day8-TipJar/day8-tipjar.sol\":1672:1685  _currencyCode */\n  dup4\n    /* \"day8-TipJar/day8-tipjar.sol\":1656:1686  conversionRates[_currencyCode] */\n  mload(0x40)\n  tag_25\n  swap2\n  swap1\n  tag_19\n  jump\t// in\ntag_25:\n  swap1\n  dup2\n  mstore\n  0x20\n  add\n  mload(0x40)\n  dup1\n  swap2\n  sub\n  swap1\n  keccak256\n    /* \"day8-TipJar/day8-tipjar.sol\":1656:1699  conversionRates[_currencyCode] = _rateToEth */\n  dup2\n  swap1\n  sstore\n  pop\n    /* \"day8-TipJar/day8-tipjar.sol\":530:1707  function addCurrency(string memory _currencyCode, uint256 _rateToEth) public onlyOwner {... */\n  pop\n  pop\n  jump\t// out\n    /* \"#utility.yul\":7:176   */\ntag_26:\n    /* \"#utility.yul\":91:102   */\n  0x00\n    /* \"#utility.yul\":125:131   */\n  dup3\n    /* \"#utility.yul\":120:123   */\n  dup3\n    /* \"#utility.yul\":113:132   */\n  mstore\n    /* \"#utility.yul\":165:169   */\n  0x20\n    /* \"#utility.yul\":160:163   */\n  dup3\n    /* \"#utility.yul\":156:170   */\n  add\n    /* \"#utility.yul\":141:170   */\n  swap1\n  pop\n    /* \"#utility.yul\":7:176   */\n  swap3\n  swap2\n  pop\n  pop\n  jump\t// out\n    /* \"#utility.yul\":182:404   */\ntag_27:\n    /* \"#utility.yul\":322:356   */\n  0x4f6e6c79206f776e65722063616e20706572666f726d20746869732061637469\n    /* \"#utility.yul\":318:319   */\n  0x00\n    /* \"#utility.yul\":310:316   */\n  dup3\n    /* \"#utility.yul\":306:320   */\n  add\n    /* \"#utility.yul\":299:357   */\n  mstore\n    /* \"#utility.yul\":391:396   */\n  0x6f6e2e0000000000000000000000000000000000000000000000000000000000\n    /* \"#utility.yul\":386:388   */\n  0x20\n    /* \"#utility.yul\":378:384   */\n  dup3\n    /* \"#utility.yul\":374:389   */\n  add\n    /* \"#utility.yul\":367:397   */\n  mstore\n    /* \"#utility.yul\":182:404   */\n  pop\n  jump\t// out\n    /* \"#utility.yul\":410:776   */\ntag_28:\n    /* \"#utility.yul\":552:555   */\n  0x00\n    /* \"#utility.yul\":573:640   */\n  tag_58\n    /* \"#utility.yul\":637:639   */\n  0x23\n    /* \"#utility.yul\":632:635   */\n  dup4\n    /* \"#utility.yul\":573:640   */\n  tag_26\n  jump\t// in\ntag_58:\n    /* \"#utility.yul\":566:640   */\n  swap2\n  pop\n    /* \"#utility.yul\":649:742   */\n  tag_59\n    /* \"#utility.yul\":738:741   */\n  dup3\n    /* \"#utility.yul\":649:742   */\n  tag_27\n  jump\t// in\ntag_59:\n    /* \"#utility.yul\":767:769   */\n  0x40\n    /* \"#utility.yul\":762:765   */\n  dup3\n    /* \"#utility.yul\":758:770   */\n  add\n    /* \"#utility.yul\":751:770   */\n  swap1\n  pop\n    /* \"#utility.yul\":410:776   */\n  swap2\n  swap1\n  pop\n  jump\t// out\n    /* \"#utility.yul\":782:1201   */\ntag_13:\n    /* \"#utility.yul\":948:952   */\n  0x00\n    /* \"#utility.yul\":986:988   */\n  0x20\n    /* \"#utility.yul\":975:984   */\n  dup3\n    /* \"#utility.yul\":971:989   */\n  add\n    /* \"#utility.yul\":963:989   */\n  swap1\n  pop\n    /* \"#utility.yul\":1035:1044   */\n  dup2\n    /* \"#utility.yul\":1029:1033   */\n  dup2\n    /* \"#utility.yul\":1025:1045   */\n  sub\n    /* \"#utility.yul\":1021:1022   */\n  0x00\n    /* \"#utility.yul\":1010:1019   */\n  dup4\n    /* \"#utility.yul\":1006:1023   */\n  add\n    /* \"#utility.yul\":999:1046   */\n  mstore\n    /* \"#utility.yul\":1063:1194   */\n  tag_61\n    /* \"#utility.yul\":1189:1193   */\n  dup2\n    /* \"#utility.yul\":1063:1194   */\n  tag_28\n  jump\t// in\ntag_61:\n    /* \"#utility.yul\":1055:1194   */\n  swap1\n  pop\n    /* \"#utility.yul\":782:1201   */\n  swap2\n  swap1\n  pop\n  jump\t// out\n    /* \"#utility.yul\":1207:1385   */\ntag_29:\n    /* \"#utility.yul\":1347:1377   */\n  0x52617465206d7573742062652067726561746572207468616e20302e00000000\n    /* \"#utility.yul\":1343:1344   */\n  0x00\n    /* \"#utility.yul\":1335:1341   */\n  dup3\n    /* \"#utility.yul\":1331:1345   */\n  add\n    /* \"#utility.yul\":1324:1378   */\n  mstore\n    /* \"#utility.yul\":1207:1385   */\n  pop\n  jump\t// out\n    /* \"#utility.yul\":1391:1757   */\ntag_30:\n    /* \"#utility.yul\":1533:1536   */\n  0x00\n    /* \"#utility.yul\":1554:1621   */\n  tag_64\n    /* \"#utility.yul\":1618:1620   */\n  0x1c\n    /* \"#utility.yul\":1613:1616   */\n  dup4\n    /* \"#utility.yul\":1554:1621   */\n  tag_26\n  jump\t// in\ntag_64:\n    /* \"#utility.yul\":1547:1621   */\n  swap2\n  pop\n    /* \"#utility.yul\":1630:1723   */\n  tag_65\n    /* \"#utility.yul\":1719:1722   */\n  dup3\n    /* \"#utility.yul\":1630:1723   */\n  tag_29\n  jump\t// in\ntag_65:\n    /* \"#utility.yul\":1748:1750   */\n  0x20\n    /* \"#utility.yul\":1743:1746   */\n  dup3\n    /* \"#utility.yul\":1739:1751   */\n  add\n    /* \"#utility.yul\":1732:1751   */\n  swap1\n  pop\n    /* \"#utility.yul\":1391:1757   */\n  swap2\n  swap1\n  pop\n  jump\t// out\n    /* \"#utility.yul\":1763:2182   */\ntag_17:\n    /* \"#utility.yul\":1929:1933   */\n  0x00\n    /* \"#utility.yul\":1967:1969   */\n  0x20\n    /* \"#utility.yul\":1956:1965   */\n  dup3\n    /* \"#utility.yul\":1952:1970   */\n  add\n    /* \"#utility.yul\":1944:1970   */\n  swap1\n  pop\n    /* \"#utility.yul\":2016:2025   */\n  dup2\n    /* \"#utility.yul\":2010:2014   */\n  dup2\n    /* \"#utility.yul\":2006:2026   */\n  sub\n    /* \"#utility.yul\":2002:2003   */\n  0x00\n    /* \"#utility.yul\":1991:2000   */\n  dup4\n    /* \"#utility.yul\":1987:2004   */\n  add\n    /* \"#utility.yul\":1980:2027   */\n  mstore\n    /* \"#utility.yul\":2044:2175   */\n  tag_67\n    /* \"#utility.yul\":2170:2174   */\n  dup2\n    /* \"#utility.yul\":2044:2175   */\n  tag_30\n  jump\t// in\ntag_67:\n    /* \"#utility.yul\":2036:2175   */\n  swap1\n  pop\n    /* \"#utility.yul\":1763:2182   */\n  swap2\n  swap1\n  pop\n  jump\t// out\n    /* \"#utility.yul\":2188:2287   */\ntag_31:\n    /* \"#utility.yul\":2240:2246   */\n  0x00\n    /* \"#utility.yul\":2274:2279   */\n  dup2\n    /* \"#utility.yul\":2268:2280   */\n  mload\n    /* \"#utility.yul\":2258:2280   */\n  swap1\n  pop\n    /* \"#utility.yul\":2188:2287   */\n  swap2\n  swap1\n  pop\n  jump\t// out\n    /* \"#utility.yul\":2293:2441   */\ntag_32:\n    /* \"#utility.yul\":2395:2406   */\n  0x00\n    /* \"#utility.yul\":2432:2435   */\n  dup2\n    /* \"#utility.yul\":2417:2435   */\n  swap1\n  pop\n    /* \"#utility.yul\":2293:2441   */\n  swap3\n  swap2\n  pop\n  pop\n  jump\t// out\n    /* \"#utility.yul\":2447:2586   */\ntag_33:\n    /* \"#utility.yul\":2536:2542   */\n  dup3\n    /* \"#utility.yul\":2531:2534   */\n  dup2\n    /* \"#utility.yul\":2526:2529   */\n  dup4\n    /* \"#utility.yul\":2520:2543   */\n  mcopy\n    /* \"#utility.yul\":2577:2578   */\n  0x00\n    /* \"#utility.yul\":2568:2574   */\n  dup4\n    /* \"#utility.yul\":2563:2566   */\n  dup4\n    /* \"#utility.yul\":2559:2575   */\n  add\n    /* \"#utility.yul\":2552:2579   */\n  mstore\n    /* \"#utility.yul\":2447:2586   */\n  pop\n  pop\n  pop\n  jump\t// out\n    /* \"#utility.yul\":2592:2982   */\ntag_34:\n    /* \"#utility.yul\":2698:2701   */\n  0x00\n    /* \"#utility.yul\":2726:2765   */\n  tag_72\n    /* \"#utility.yul\":2759:2764   */\n  dup3\n    /* \"#utility.yul\":2726:2765   */\n  tag_31\n  jump\t// in\ntag_72:\n    /* \"#utility.yul\":2781:2870   */\n  tag_73\n    /* \"#utility.yul\":2863:2869   */\n  dup2\n    /* \"#utility.yul\":2858:2861   */\n  dup6\n    /* \"#utility.yul\":2781:2870   */\n  tag_32\n  jump\t// in\ntag_73:\n    /* \"#utility.yul\":2774:2870   */\n  swap4\n  pop\n    /* \"#utility.yul\":2879:2944   */\n  tag_74\n    /* \"#utility.yul\":2937:2943   */\n  dup2\n    /* \"#utility.yul\":2932:2935   */\n  dup6\n    /* \"#utility.yul\":2925:2929   */\n  0x20\n    /* \"#utility.yul\":2918:2923   */\n  dup7\n    /* \"#utility.yul\":2914:2930   */\n  add\n    /* \"#utility.yul\":2879:2944   */\n  tag_33\n  jump\t// in\ntag_74:\n    /* \"#utility.yul\":2969:2975   */\n  dup1\n    /* \"#utility.yul\":2964:2967   */\n  dup5\n    /* \"#utility.yul\":2960:2976   */\n  add\n    /* \"#utility.yul\":2953:2976   */\n  swap2\n  pop\n    /* \"#utility.yul\":2702:2982   */\n  pop\n    /* \"#utility.yul\":2592:2982   */\n  swap3\n  swap2\n  pop\n  pop\n  jump\t// out\n    /* \"#utility.yul\":2988:3263   */\ntag_19:\n    /* \"#utility.yul\":3120:3123   */\n  0x00\n    /* \"#utility.yul\":3142:3237   */\n  tag_76\n    /* \"#utility.yul\":3233:3236   */\n  dup3\n    /* \"#utility.yul\":3224:3230   */\n  dup5\n    /* \"#utility.yul\":3142:3237   */\n  tag_34\n  jump\t// in\ntag_76:\n    /* \"#utility.yul\":3135:3237   */\n  swap2\n  pop\n    /* \"#utility.yul\":3254:3257   */\n  dup2\n    /* \"#utility.yul\":3247:3257   */\n  swap1\n  pop\n    /* \"#utility.yul\":2988:3263   */\n  swap3\n  swap2\n  pop\n  pop\n  jump\t// out\n    /* \"#utility.yul\":3269:3449   */\ntag_35:\n    /* \"#utility.yul\":3317:3394   */\n  0x4e487b7100000000000000000000000000000000000000000000000000000000\n    /* \"#utility.yul\":3314:3315   */\n  0x00\n    /* \"#utility.yul\":3307:3395   */\n  mstore\n    /* \"#utility.yul\":3414:3418   */\n  0x41\n    /* \"#utility.yul\":3411:3412   */\n  0x04\n    /* \"#utility.yul\":3404:3419   */\n  mstore\n    /* \"#utility.yul\":3438:3442   */\n  0x24\n    /* \"#utility.yul\":3435:3436   */\n  0x00\n    /* \"#utility.yul\":3428:3443   */\n  revert\n    /* \"#utility.yul\":3455:3635   */\ntag_36:\n    /* \"#utility.yul\":3503:3580   */\n  0x4e487b7100000000000000000000000000000000000000000000000000000000\n    /* \"#utility.yul\":3500:3501   */\n  0x00\n    /* \"#utility.yul\":3493:3581   */\n  mstore\n    /* \"#utility.yul\":3600:3604   */\n  0x22\n    /* \"#utility.yul\":3597:3598   */\n  0x04\n    /* \"#utility.yul\":3590:3605   */\n  mstore\n    /* \"#utility.yul\":3624:3628   */\n  0x24\n    /* \"#utility.yul\":3621:3622   */\n  0x00\n    /* \"#utility.yul\":3614:3629   */\n  revert\n    /* \"#utility.yul\":3641:3961   */\ntag_37:\n    /* \"#utility.yul\":3685:3691   */\n  0x00\n    /* \"#utility.yul\":3722:3723   */\n  0x02\n    /* \"#utility.yul\":3716:3720   */\n  dup3\n    /* \"#utility.yul\":3712:3724   */\n  div\n    /* \"#utility.yul\":3702:3724   */\n  swap1\n  pop\n    /* \"#utility.yul\":3769:3770   */\n  0x01\n    /* \"#utility.yul\":3763:3767   */\n  dup3\n    /* \"#utility.yul\":3759:3771   */\n  and\n    /* \"#utility.yul\":3790:3808   */\n  dup1\n    /* \"#utility.yul\":3780:3861   */\n  tag_80\n  jumpi\n    /* \"#utility.yul\":3846:3850   */\n  0x7f\n    /* \"#utility.yul\":3838:3844   */\n  dup3\n    /* \"#utility.yul\":3834:3851   */\n  and\n    /* \"#utility.yul\":3824:3851   */\n  swap2\n  pop\n    /* \"#utility.yul\":3780:3861   */\ntag_80:\n    /* \"#utility.yul\":3908:3910   */\n  0x20\n    /* \"#utility.yul\":3900:3906   */\n  dup3\n    /* \"#utility.yul\":3897:3911   */\n  lt\n    /* \"#utility.yul\":3877:3895   */\n  dup2\n    /* \"#utility.yul\":3874:3912   */\n  sub\n    /* \"#utility.yul\":3871:3955   */\n  tag_81\n  jumpi\n    /* \"#utility.yul\":3927:3945   */\n  tag_82\n  tag_36\n  jump\t// in\ntag_82:\n    /* \"#utility.yul\":3871:3955   */\ntag_81:\n    /* \"#utility.yul\":3692:3961   */\n  pop\n    /* \"#utility.yul\":3641:3961   */\n  swap2\n  swap1\n  pop\n  jump\t// out\n    /* \"#utility.yul\":3967:4108   */\ntag_38:\n    /* \"#utility.yul\":4016:4020   */\n  0x00\n    /* \"#utility.yul\":4039:4042   */\n  dup2\n    /* \"#utility.yul\":4031:4042   */\n  swap1\n  pop\n    /* \"#utility.yul\":4062:4065   */\n  dup2\n    /* \"#utility.yul\":4059:4060   */\n  0x00\n    /* \"#utility.yul\":4052:4066   */\n  mstore\n    /* \"#utility.yul\":4096:4100   */\n  0x20\n    /* \"#utility.yul\":4093:4094   */\n  0x00\n    /* \"#utility.yul\":4083:4101   */\n  keccak256\n    /* \"#utility.yul\":4075:4101   */\n  swap1\n  pop\n    /* \"#utility.yul\":3967:4108   */\n  swap2\n  swap1\n  pop\n  jump\t// out\n    /* \"#utility.yul\":4114:4207   */\ntag_39:\n    /* \"#utility.yul\":4151:4157   */\n  0x00\n    /* \"#utility.yul\":4198:4200   */\n  0x20\n    /* \"#utility.yul\":4193:4195   */\n  0x1f\n    /* \"#utility.yul\":4186:4191   */\n  dup4\n    /* \"#utility.yul\":4182:4196   */\n  add\n    /* \"#utility.yul\":4178:4201   */\n  div\n    /* \"#utility.yul\":4168:4201   */\n  swap1\n  pop\n    /* \"#utility.yul\":4114:4207   */\n  swap2\n  swap1\n  pop\n  jump\t// out\n    /* \"#utility.yul\":4213:4320   */\ntag_40:\n    /* \"#utility.yul\":4257:4265   */\n  0x00\n    /* \"#utility.yul\":4307:4312   */\n  dup3\n    /* \"#utility.yul\":4301:4305   */\n  dup3\n    /* \"#utility.yul\":4297:4313   */\n  shl\n    /* \"#utility.yul\":4276:4313   */\n  swap1\n  pop\n    /* \"#utility.yul\":4213:4320   */\n  swap3\n  swap2\n  pop\n  pop\n  jump\t// out\n    /* \"#utility.yul\":4326:4719   */\ntag_41:\n    /* \"#utility.yul\":4395:4401   */\n  0x00\n    /* \"#utility.yul\":4445:4446   */\n  0x08\n    /* \"#utility.yul\":4433:4443   */\n  dup4\n    /* \"#utility.yul\":4429:4447   */\n  mul\n    /* \"#utility.yul\":4468:4565   */\n  tag_87\n    /* \"#utility.yul\":4498:4564   */\n  0xffffffffffffffffffffffffffffffffffffffffffffffffffffffffffffffff\n    /* \"#utility.yul\":4487:4496   */\n  dup3\n    /* \"#utility.yul\":4468:4565   */\n  tag_40\n  jump\t// in\ntag_87:\n    /* \"#utility.yul\":4586:4625   */\n  tag_88\n    /* \"#utility.yul\":4616:4624   */\n  dup7\n    /* \"#utility.yul\":4605:4614   */\n  dup4\n    /* \"#utility.yul\":4586:4625   */\n  tag_40\n  jump\t// in\ntag_88:\n    /* \"#utility.yul\":4574:4625   */\n  swap6\n  pop\n    /* \"#utility.yul\":4658:4662   */\n  dup1\n    /* \"#utility.yul\":4654:4663   */\n  not\n    /* \"#utility.yul\":4647:4652   */\n  dup5\n    /* \"#utility.yul\":4643:4664   */\n  and\n    /* \"#utility.yul\":4634:4664   */\n  swap4\n  pop\n    /* \"#utility.yul\":4707:4711   */\n  dup1\n    /* \"#utility.yul\":4697:4705   */\n  dup7\n    /* \"#utility.yul\":4693:4712   */\n  and\n    /* \"#utility.yul\":4686:4691   */\n  dup5\n    /* \"#utility.yul\":4683:4713   */\n  or\n    /* \"#utility.yul\":4673:4713   */\n  swap3\n  pop\n    /* \"#utility.yul\":4402:4719   */\n  pop\n  pop\n    /* \"#utility.yul\":4326:4719   */\n  swap4\n  swap3\n  pop\n  pop\n  pop\n  jump\t// out\n    /* \"#utility.yul\":4725:4802   */\ntag_42:\n    /* \"#utility.yul\":4762:4769   */\n  0x00\n    /* \"#utility.yul\":4791:4796   */\n  dup2\n    /* \"#utility.yul\":4780:4796   */\n  swap1\n  pop\n    /* \"#utility.yul\":4725:4802   */\n  swap2\n  swap1\n  pop\n  jump\t// out\n    /* \"#utility.yul\":4808:4868   */\ntag_43:\n    /* \"#utility.yul\":4836:4839   */\n  0x00\n    /* \"#utility.yul\":4857:4862   */\n  dup2\n    /* \"#utility.yul\":4850:4862   */\n  swap1\n  pop\n    /* \"#utility.yul\":4808:4868   */\n  swap2\n  swap1\n  pop\n  jump\t// out\n    /* \"#utility.yul\":4874:5016   */\ntag_44:\n    /* \"#utility.yul\":4924:4933   */\n  0x00\n    /* \"#utility.yul\":4957:5010   */\n  tag_92\n    /* \"#utility.yul\":4975:5009   */\n  tag_93\n    /* \"#utility.yul\":4984:5008   */\n  tag_94\n    /* \"#utility.yul\":5002:5007   */\n  dup5\n    /* \"#utility.yul\":4984:5008   */\n  tag_42\n  jump\t// in\ntag_94:\n    /* \"#utility.yul\":4975:5009   */\n  tag_43\n  jump\t// in\ntag_93:\n    /* \"#utility.yul\":4957:5010   */\n  tag_42\n  jump\t// in\ntag_92:\n    /* \"#utility.yul\":4944:5010   */\n  swap1\n  pop\n    /* \"#utility.yul\":4874:5016   */\n  swap2\n  swap1\n  pop\n  jump\t// out\n    /* \"#utility.yul\":5022:5097   */\ntag_45:\n    /* \"#utility.yul\":5065:5068   */\n  0x00\n    /* \"#utility.yul\":5086:5091   */\n  dup2\n    /* \"#utility.yul\":5079:5091   */\n  swap1\n  pop\n    /* \"#utility.yul\":5022:5097   */\n  swap2\n  swap1\n  pop\n  jump\t// out\n    /* \"#utility.yul\":5103:5372   */\ntag_46:\n    /* \"#utility.yul\":5213:5252   */\n  tag_97\n    /* \"#utility.yul\":5244:5251   */\n  dup4\n    /* \"#utility.yul\":5213:5252   */\n  tag_44\n  jump\t// in\ntag_97:\n    /* \"#utility.yul\":5274:5365   */\n  tag_98\n    /* \"#utility.yul\":5323:5364   */\n  tag_99\n    /* \"#utility.yul\":5347:5363   */\n  dup3\n    /* \"#utility.yul\":5323:5364   */\n  tag_45\n  jump\t// in\ntag_99:\n    /* \"#utility.yul\":5315:5321   */\n  dup5\n    /* \"#utility.yul\":5308:5312   */\n  dup5\n    /* \"#utility.yul\":5302:5313   */\n  sload\n    /* \"#utility.yul\":5274:5365   */\n  tag_41\n  jump\t// in\ntag_98:\n    /* \"#utility.yul\":5268:5272   */\n  dup3\n    /* \"#utility.yul\":5261:5366   */\n  sstore\n    /* \"#utility.yul\":5179:5372   */\n  pop\n    /* \"#utility.yul\":5103:5372   */\n  pop\n  pop\n  pop\n  jump\t// out\n    /* \"#utility.yul\":5378:5451   */\ntag_47:\n    /* \"#utility.yul\":5423:5426   */\n  0x00\n    /* \"#utility.yul\":5444:5445   */\n  0x00\n    /* \"#utility.yul\":5437:5445   */\n  swap1\n  pop\n    /* \"#utility.yul\":5378:5451   */\n  swap1\n  jump\t// out\n    /* \"#utility.yul\":5457:5646   */\ntag_48:\n    /* \"#utility.yul\":5534:5566   */\n  tag_102\n  tag_47\n  jump\t// in\ntag_102:\n    /* \"#utility.yul\":5575:5640   */\n  tag_103\n    /* \"#utility.yul\":5633:5639   */\n  dup2\n    /* \"#utility.yul\":5625:5631   */\n  dup5\n    /* \"#utility.yul\":5619:5623   */\n  dup5\n    /* \"#utility.yul\":5575:5640   */\n  tag_46\n  jump\t// in\ntag_103:\n    /* \"#utility.yul\":5510:5646   */\n  pop\n    /* \"#utility.yul\":5457:5646   */\n  pop\n  pop\n  jump\t// out\n    /* \"#utility.yul\":5652:5838   */\ntag_49:\n    /* \"#utility.yul\":5712:5832   */\ntag_105:\n    /* \"#utility.yul\":5729:5732   */\n  dup2\n    /* \"#utility.yul\":5722:5727   */\n  dup2\n    /* \"#utility.yul\":5719:5733   */\n  lt\n    /* \"#utility.yul\":5712:5832   */\n  iszero\n  tag_107\n  jumpi\n    /* \"#utility.yul\":5783:5822   */\n  tag_108\n    /* \"#utility.yul\":5820:5821   */\n  0x00\n    /* \"#utility.yul\":5813:5818   */\n  dup3\n    /* \"#utility.yul\":5783:5822   */\n  tag_48\n  jump\t// in\ntag_108:\n    /* \"#utility.yul\":5756:5757   */\n  0x01\n    /* \"#utility.yul\":5749:5754   */\n  dup2\n    /* \"#utility.yul\":5745:5758   */\n  add\n    /* \"#utility.yul\":5736:5758   */\n  swap1\n  pop\n    /* \"#utility.yul\":5712:5832   */\n  jump(tag_105)\ntag_107:\n    /* \"#utility.yul\":5652:5838   */\n  pop\n  pop\n  jump\t// out\n    /* \"#utility.yul\":5844:6387   */\ntag_50:\n    /* \"#utility.yul\":5945:5947   */\n  0x1f\n    /* \"#utility.yul\":5940:5943   */\n  dup3\n    /* \"#utility.yul\":5937:5948   */\n  gt\n    /* \"#utility.yul\":5934:6380   */\n  iszero\n  tag_110\n  jumpi\n    /* \"#utility.yul\":5979:6017   */\n  tag_111\n    /* \"#utility.yul\":6011:6016   */\n  dup2\n    /* \"#utility.yul\":5979:6017   */\n  tag_38\n  jump\t// in\ntag_111:\n    /* \"#utility.yul\":6063:6092   */\n  tag_112\n    /* \"#utility.yul\":6081:6091   */\n  dup5\n    /* \"#utility.yul\":6063:6092   */\n  tag_39\n  jump\t// in\ntag_112:\n    /* \"#utility.yul\":6053:6061   */\n  dup2\n    /* \"#utility.yul\":6049:6093   */\n  add\n    /* \"#utility.yul\":6246:6248   */\n  0x20\n    /* \"#utility.yul\":6234:6244   */\n  dup6\n    /* \"#utility.yul\":6231:6249   */\n  lt\n    /* \"#utility.yul\":6228:6277   */\n  iszero\n  tag_113\n  jumpi\n    /* \"#utility.yul\":6267:6275   */\n  dup2\n    /* \"#utility.yul\":6252:6275   */\n  swap1\n  pop\n    /* \"#utility.yul\":6228:6277   */\ntag_113:\n    /* \"#utility.yul\":6290:6370   */\n  tag_114\n    /* \"#utility.yul\":6346:6368   */\n  tag_115\n    /* \"#utility.yul\":6364:6367   */\n  dup6\n    /* \"#utility.yul\":6346:6368   */\n  tag_39\n  jump\t// in\ntag_115:\n    /* \"#utility.yul\":6336:6344   */\n  dup4\n    /* \"#utility.yul\":6332:6369   */\n  add\n    /* \"#utility.yul\":6319:6330   */\n  dup3\n    /* \"#utility.yul\":6290:6370   */\n  tag_49\n  jump\t// in\ntag_114:\n    /* \"#utility.yul\":5949:6380   */\n  pop\n  pop\n    /* \"#utility.yul\":5934:6380   */\ntag_110:\n    /* \"#utility.yul\":5844:6387   */\n  pop\n  pop\n  pop\n  jump\t// out\n    /* \"#utility.yul\":6393:6510   */\ntag_51:\n    /* \"#utility.yul\":6447:6455   */\n  0x00\n    /* \"#utility.yul\":6497:6502   */\n  dup3\n    /* \"#utility.yul\":6491:6495   */\n  dup3\n    /* \"#utility.yul\":6487:6503   */\n  shr\n    /* \"#utility.yul\":6466:6503   */\n  swap1\n  pop\n    /* \"#utility.yul\":6393:6510   */\n  swap3\n  swap2\n  pop\n  pop\n  jump\t// out\n    /* \"#utility.yul\":6516:6685   */\ntag_52:\n    /* \"#utility.yul\":6560:6566   */\n  0x00\n    /* \"#utility.yul\":6593:6644   */\n  tag_118\n    /* \"#utility.yul\":6641:6642   */\n  0x00\n    /* \"#utility.yul\":6637:6643   */\n  not\n    /* \"#utility.yul\":6629:6634   */\n  dup5\n    /* \"#utility.yul\":6626:6627   */\n  0x08\n    /* \"#utility.yul\":6622:6635   */\n  mul\n    /* \"#utility.yul\":6593:6644   */\n  tag_51\n  jump\t// in\ntag_118:\n    /* \"#utility.yul\":6589:6645   */\n  not\n    /* \"#utility.yul\":6674:6678   */\n  dup1\n    /* \"#utility.yul\":6668:6672   */\n  dup4\n    /* \"#utility.yul\":6664:6679   */\n  and\n    /* \"#utility.yul\":6654:6679   */\n  swap2\n  pop\n    /* \"#utility.yul\":6567:6685   */\n  pop\n    /* \"#utility.yul\":6516:6685   */\n  swap3\n  swap2\n  pop\n  pop\n  jump\t// out\n    /* \"#utility.yul\":6690:6985   */\ntag_53:\n    /* \"#utility.yul\":6766:6770   */\n  0x00\n    /* \"#utility.yul\":6912:6941   */\n  tag_120\n    /* \"#utility.yul\":6937:6940   */\n  dup4\n    /* \"#utility.yul\":6931:6935   */\n  dup4\n    /* \"#utility.yul\":6912:6941   */\n  tag_52\n  jump\t// in\ntag_120:\n    /* \"#utility.yul\":6904:6941   */\n  swap2\n  pop\n    /* \"#utility.yul\":6974:6977   */\n  dup3\n    /* \"#utility.yul\":6971:6972   */\n  0x02\n    /* \"#utility.yul\":6967:6978   */\n  mul\n    /* \"#utility.yul\":6961:6965   */\n  dup3\n    /* \"#utility.yul\":6958:6979   */\n  or\n    /* \"#utility.yul\":6950:6979   */\n  swap1\n  pop\n    /* \"#utility.yul\":6690:6985   */\n  swap3\n  swap2\n  pop\n  pop\n  jump\t// out\n    /* \"#utility.yul\":6990:8385   */\ntag_23:\n    /* \"#utility.yul\":7107:7144   */\n  tag_122\n    /* \"#utility.yul\":7140:7143   */\n  dup3\n    /* \"#utility.yul\":7107:7144   */\n  tag_31\n  jump\t// in\ntag_122:\n    /* \"#utility.yul\":7209:7227   */\n  0xffffffffffffffff\n    /* \"#utility.yul\":7201:7207   */\n  dup2\n    /* \"#utility.yul\":7198:7228   */\n  gt\n    /* \"#utility.yul\":7195:7251   */\n  iszero\n  tag_123\n  jumpi\n    /* \"#utility.yul\":7231:7249   */\n  tag_124\n  tag_35\n  jump\t// in\ntag_124:\n    /* \"#utility.yul\":7195:7251   */\ntag_123:\n    /* \"#utility.yul\":7275:7313   */\n  tag_125\n    /* \"#utility.yul\":7307:7311   */\n  dup3\n    /* \"#utility.yul\":7301:7312   */\n  sload\n    /* \"#utility.yul\":7275:7313   */\n  tag_37\n  jump\t// in\ntag_125:\n    /* \"#utility.yul\":7360:7427   */\n  tag_126\n    /* \"#utility.yul\":7420:7426   */\n  dup3\n    /* \"#utility.yul\":7412:7418   */\n  dup3\n    /* \"#utility.yul\":7406:7410   */\n  dup6\n    /* \"#utility.yul\":7360:7427   */\n  tag_50\n  jump\t// in\ntag_126:\n    /* \"#utility.yul\":7454:7455   */\n  0x00\n    /* \"#utility.yul\":7478:7482   */\n  0x20\n    /* \"#utility.yul\":7465:7482   */\n  swap1\n  pop\n    /* \"#utility.yul\":7510:7512   */\n  0x1f\n    /* \"#utility.yul\":7502:7508   */\n  dup4\n    /* \"#utility.yul\":7499:7513   */\n  gt\n    /* \"#utility.yul\":7527:7528   */\n  0x01\n    /* \"#utility.yul\":7522:8140   */\n  dup2\n  eq\n  tag_128\n  jumpi\n    /* \"#utility.yul\":8184:8185   */\n  0x00\n    /* \"#utility.yul\":8201:8207   */\n  dup5\n    /* \"#utility.yul\":8198:8275   */\n  iszero\n  tag_129\n  jumpi\n    /* \"#utility.yul\":8250:8259   */\n  dup3\n    /* \"#utility.yul\":8245:8248   */\n  dup8\n    /* \"#utility.yul\":8241:8260   */\n  add\n    /* \"#utility.yul\":8235:8261   */\n  mload\n    /* \"#utility.yul\":8226:8261   */\n  swap1\n  pop\n    /* \"#utility.yul\":8198:8275   */\ntag_129:\n    /* \"#utility.yul\":8301:8368   */\n  tag_130\n    /* \"#utility.yul\":8361:8367   */\n  dup6\n    /* \"#utility.yul\":8354:8359   */\n  dup3\n    /* \"#utility.yul\":8301:8368   */\n  tag_53\n  jump\t// in\ntag_130:\n    /* \"#utility.yul\":8295:8299   */\n  dup7\n    /* \"#utility.yul\":8288:8369   */\n  sstore\n    /* \"#utility.yul\":8157:8379   */\n  pop\n    /* \"#utility.yul\":7492:8379   */\n  jump(tag_127)\n    /* \"#utility.yul\":7522:8140   */\ntag_128:\n    /* \"#utility.yul\":7574:7578   */\n  0x1f\n    /* \"#utility.yul\":7570:7579   */\n  not\n    /* \"#utility.yul\":7562:7568   */\n  dup5\n    /* \"#utility.yul\":7558:7580   */\n  and\n    /* \"#utility.yul\":7608:7645   */\n  tag_131\n    /* \"#utility.yul\":7640:7644   */\n  dup7\n    /* \"#utility.yul\":7608:7645   */\n  tag_38\n  jump\t// in\ntag_131:\n    /* \"#utility.yul\":7667:7668   */\n  0x00\n    /* \"#utility.yul\":7681:7889   */\ntag_132:\n    /* \"#utility.yul\":7695:7702   */\n  dup3\n    /* \"#utility.yul\":7692:7693   */\n  dup2\n    /* \"#utility.yul\":7689:7703   */\n  lt\n    /* \"#utility.yul\":7681:7889   */\n  iszero\n  tag_134\n  jumpi\n    /* \"#utility.yul\":7774:7783   */\n  dup5\n    /* \"#utility.yul\":7769:7772   */\n  dup10\n    /* \"#utility.yul\":7765:7784   */\n  add\n    /* \"#utility.yul\":7759:7785   */\n  mload\n    /* \"#utility.yul\":7751:7757   */\n  dup3\n    /* \"#utility.yul\":7744:7786   */\n  sstore\n    /* \"#utility.yul\":7825:7826   */\n  0x01\n    /* \"#utility.yul\":7817:7823   */\n  dup3\n    /* \"#utility.yul\":7813:7827   */\n  add\n    /* \"#utility.yul\":7803:7827   */\n  swap2\n  pop\n    /* \"#utility.yul\":7872:7874   */\n  0x20\n    /* \"#utility.yul\":7861:7870   */\n  dup6\n    /* \"#utility.yul\":7857:7875   */\n  add\n    /* \"#utility.yul\":7844:7875   */\n  swap5\n  pop\n    /* \"#utility.yul\":7718:7722   */\n  0x20\n    /* \"#utility.yul\":7715:7716   */\n  dup2\n    /* \"#utility.yul\":7711:7723   */\n  add\n    /* \"#utility.yul\":7706:7723   */\n  swap1\n  pop\n    /* \"#utility.yul\":7681:7889   */\n  jump(tag_132)\ntag_134:\n    /* \"#utility.yul\":7917:7923   */\n  dup7\n    /* \"#utility.yul\":7908:7915   */\n  dup4\n    /* \"#utility.yul\":7905:7924   */\n  lt\n    /* \"#utility.yul\":7902:8081   */\n  iszero\n  tag_135\n  jumpi\n    /* \"#utility.yul\":7975:7984   */\n  dup5\n    /* \"#utility.yul\":7970:7973   */\n  dup10\n    /* \"#utility.yul\":7966:7985   */\n  add\n    /* \"#utility.yul\":7960:7986   */\n  mload\n    /* \"#utility.yul\":8018:8066   */\n  tag_136\n    /* \"#utility.yul\":8060:8064   */\n  0x1f\n    /* \"#utility.yul\":8052:8058   */\n  dup10\n    /* \"#utility.yul\":8048:8065   */\n  and\n    /* \"#utility.yul\":8037:8046   */\n  dup3\n    /* \"#utility.yul\":8018:8066   */\n  tag_52\n  jump\t// in\ntag_136:\n    /* \"#utility.yul\":8010:8016   */\n  dup4\n    /* \"#utility.yul\":8003:8067   */\n  sstore\n    /* \"#utility.yul\":7925:8081   */\n  pop\n    /* \"#utility.yul\":7902:8081   */\ntag_135:\n    /* \"#utility.yul\":8127:8128   */\n  0x01\n    /* \"#utility.yul\":8123:8124   */\n  0x02\n    /* \"#utility.yul\":8115:8121   */\n  dup9\n    /* \"#utility.yul\":8111:8125   */\n  mul\n    /* \"#utility.yul\":8107:8129   */\n  add\n    /* \"#utility.yul\":8101:8105   */\n  dup9\n    /* \"#utility.yul\":8094:8130   */\n  sstore\n    /* \"#utility.yul\":7529:8140   */\n  pop\n  pop\n  pop\n    /* \"#utility.yul\":7492:8379   */\ntag_127:\n  pop\n    /* \"#utility.yul\":7082:8385   */\n  pop\n  pop\n  pop\n    /* \"#utility.yul\":6990:8385   */\n  pop\n  pop\n  jump\t// out\n    /* \"day8-TipJar/day8-tipjar.sol\":59:4159  contract TipJar {... */\ntag_9:\n  dataSize(sub_0)\n  dup1\n  dataOffset(sub_0)\n  0x00\n  codecopy\n  0x00\n  return\nstop\n\nsub_0: assembly {\n        /* \"day8-TipJar/day8-tipjar.sol\":59:4159  contract TipJar {... */\n      mstore(0x40, 0x80)\n      jumpi(tag_1, lt(calldatasize, 0x04))\n      shr(0xe0, calldataload(0x00))\n      dup1\n      0x6de0938b\n      gt\n      tag_18\n      jumpi\n      dup1\n      0x9c88e42d\n      gt\n      tag_19\n      jumpi\n      dup1\n      0x9c88e42d\n      eq\n      tag_14\n      jumpi\n      dup1\n      0xb8443702\n      eq\n      tag_15\n      jumpi\n      dup1\n      0xefe8c084\n      eq\n      tag_16\n      jumpi\n      dup1\n      0xf2fde38b\n      eq\n      tag_17\n      jumpi\n      jump(tag_1)\n    tag_19:\n      dup1\n      0x6de0938b\n      eq\n      tag_10\n      jumpi\n      dup1\n      0x6f9fb98a\n      eq\n      tag_11\n      jumpi\n      dup1\n      0x8da5cb5b\n      eq\n      tag_12\n      jumpi\n      dup1\n      0x97bf7935\n      eq\n      tag_13\n      jumpi\n      jump(tag_1)\n    tag_18:\n      dup1\n      0x2ce75863\n      gt\n      tag_20\n      jumpi\n      dup1\n      0x2ce75863\n      eq\n      tag_6\n      jumpi\n      dup1\n      0x3aaa74b2\n      eq\n      tag_7\n      jumpi\n      dup1\n      0x5c41fece\n      eq\n      tag_8\n      jumpi\n      dup1\n      0x5c49c825\n      eq\n      tag_9\n      jumpi\n      jump(tag_1)\n    tag_20:\n      dup1\n      0x0d9ba15f\n      eq\n      tag_2\n      jumpi\n      dup1\n      0x10e1d1d4\n      eq\n      tag_3\n      jumpi\n      dup1\n      0x1fac531b\n      eq\n      tag_4\n      jumpi\n      dup1\n      0x223506a7\n      eq\n      tag_5\n      jumpi\n    tag_1:\n      revert(0x00, 0x00)\n        /* \"day8-TipJar/day8-tipjar.sol\":304:353  mapping(string => uint256) public tipsPerCurrency */\n    tag_2:\n      callvalue\n      dup1\n      iszero\n      tag_21\n      jumpi\n      revert(0x00, 0x00)\n    tag_21:\n      pop\n      tag_22\n      0x04\n      dup1\n      calldatasize\n      sub\n      dup2\n      add\n      swap1\n      tag_23\n      swap2\n      swap1\n      tag_24\n      jump\t// in\n    tag_23:\n      tag_25\n      jump\t// in\n    tag_22:\n      mload(0x40)\n      tag_26\n      swap2\n      swap1\n      tag_27\n      jump\t// in\n    tag_26:\n      mload(0x40)\n      dup1\n      swap2\n      sub\n      swap1\n      return\n        /* \"day8-TipJar/day8-tipjar.sol\":243:297  mapping(address => uint256) public tipperContributions */\n    tag_3:\n      callvalue\n      dup1\n      iszero\n      tag_28\n      jumpi\n      revert(0x00, 0x00)\n    tag_28:\n      pop\n      tag_29\n      0x04\n      dup1\n      calldatasize\n      sub\n      dup2\n      add\n      swap1\n      tag_30\n      swap2\n      swap1\n      tag_31\n      jump\t// in\n    tag_30:\n      tag_32\n      jump\t// in\n    tag_29:\n      mload(0x40)\n      tag_33\n      swap2\n      swap1\n      tag_27\n      jump\t// in\n    tag_33:\n      mload(0x40)\n      dup1\n      swap2\n      sub\n      swap1\n      return\n        /* \"day8-TipJar/day8-tipjar.sol\":3932:4154  function getConversionRate(string memory _currencyCode) public view returns (uint256) {... */\n    tag_4:\n      callvalue\n      dup1\n      iszero\n      tag_34\n      jumpi\n      revert(0x00, 0x00)\n    tag_34:\n      pop\n      tag_35\n      0x04\n      dup1\n      calldatasize\n      sub\n      dup2\n      add\n      swap1\n      tag_36\n      swap2\n      swap1\n      tag_24\n      jump\t// in\n    tag_36:\n      tag_37\n      jump\t// in\n    tag_35:\n      mload(0x40)\n      tag_38\n      swap2\n      swap1\n      tag_27\n      jump\t// in\n    tag_38:\n      mload(0x40)\n      dup1\n      swap2\n      sub\n      swap1\n      return\n        /* \"day8-TipJar/day8-tipjar.sol\":3792:3924  function getTipperContribution(address _tipper) public view returns (uint256) {... */\n    tag_5:\n      callvalue\n      dup1\n      iszero\n      tag_39\n      jumpi\n      revert(0x00, 0x00)\n    tag_39:\n      pop\n      tag_40\n      0x04\n      dup1\n      calldatasize\n      sub\n      dup2\n      add\n      swap1\n      tag_41\n      swap2\n      swap1\n      tag_31\n      jump\t// in\n    tag_41:\n      tag_42\n      jump\t// in\n    tag_40:\n      mload(0x40)\n      tag_43\n      swap2\n      swap1\n      tag_27\n      jump\t// in\n    tag_43:\n      mload(0x40)\n      dup1\n      swap2\n      sub\n      swap1\n      return\n        /* \"day8-TipJar/day8-tipjar.sol\":3552:3669  function getSupportedCurrencies() public view returns (string[] memory) {... */\n    tag_6:\n      callvalue\n      dup1\n      iszero\n      tag_44\n      jumpi\n      revert(0x00, 0x00)\n    tag_44:\n      pop\n      tag_45\n      tag_46\n      jump\t// in\n    tag_45:\n      mload(0x40)\n      tag_47\n      swap2\n      swap1\n      tag_48\n      jump\t// in\n    tag_47:\n      mload(0x40)\n      dup1\n      swap2\n      sub\n      swap1\n      return\n        /* \"day8-TipJar/day8-tipjar.sol\":3049:3375  function withdrawTips() public onlyOwner {... */\n    tag_7:\n      callvalue\n      dup1\n      iszero\n      tag_49\n      jumpi\n      revert(0x00, 0x00)\n    tag_49:\n      pop\n      tag_50\n      tag_51\n      jump\t// in\n    tag_50:\n      stop\n        /* \"day8-TipJar/day8-tipjar.sol\":109:158  mapping(string => uint256) public conversionRates */\n    tag_8:\n      callvalue\n      dup1\n      iszero\n      tag_52\n      jumpi\n      revert(0x00, 0x00)\n    tag_52:\n      pop\n      tag_53\n      0x04\n      dup1\n      calldatasize\n      sub\n      dup2\n      add\n      swap1\n      tag_54\n      swap2\n      swap1\n      tag_24\n      jump\t// in\n    tag_54:\n      tag_55\n      jump\t// in\n    tag_53:\n      mload(0x40)\n      tag_56\n      swap2\n      swap1\n      tag_27\n      jump\t// in\n    tag_56:\n      mload(0x40)\n      dup1\n      swap2\n      sub\n      swap1\n      return\n        /* \"day8-TipJar/day8-tipjar.sol\":530:1707  function addCurrency(string memory _currencyCode, uint256 _rateToEth) public onlyOwner {... */\n    tag_9:\n      callvalue\n      dup1\n      iszero\n      tag_57\n      jumpi\n      revert(0x00, 0x00)\n    tag_57:\n      pop\n      tag_58\n      0x04\n      dup1\n      calldatasize\n      sub\n      dup2\n      add\n      swap1\n      tag_59\n      swap2\n      swap1\n      tag_60\n      jump\t// in\n    tag_59:\n      tag_61\n      jump\t// in\n    tag_58:\n      stop\n        /* \"day8-TipJar/day8-tipjar.sol\":1940:2227  function convertToEth(string memory _currencyCode, uint256 _amount) public view returns (uint256) {... */\n    tag_10:\n      callvalue\n      dup1\n      iszero\n      tag_62\n      jumpi\n      revert(0x00, 0x00)\n    tag_62:\n      pop\n      tag_63\n      0x04\n      dup1\n      calldatasize\n      sub\n      dup2\n      add\n      swap1\n      tag_64\n      swap2\n      swap1\n      tag_60\n      jump\t// in\n    tag_64:\n      tag_65\n      jump\t// in\n    tag_63:\n      mload(0x40)\n      tag_66\n      swap2\n      swap1\n      tag_27\n      jump\t// in\n    tag_66:\n      mload(0x40)\n      dup1\n      swap2\n      sub\n      swap1\n      return\n        /* \"day8-TipJar/day8-tipjar.sol\":3677:3784  function getContractBalance() public view returns (uint256) {... */\n    tag_11:\n      callvalue\n      dup1\n      iszero\n      tag_67\n      jumpi\n      revert(0x00, 0x00)\n    tag_67:\n      pop\n      tag_68\n      tag_69\n      jump\t// in\n    tag_68:\n      mload(0x40)\n      tag_70\n      swap2\n      swap1\n      tag_27\n      jump\t// in\n    tag_70:\n      mload(0x40)\n      dup1\n      swap2\n      sub\n      swap1\n      return\n        /* \"day8-TipJar/day8-tipjar.sol\":82:102  address public owner */\n    tag_12:\n      callvalue\n      dup1\n      iszero\n      tag_71\n      jumpi\n      revert(0x00, 0x00)\n    tag_71:\n      pop\n      tag_72\n      tag_73\n      jump\t// in\n    tag_72:\n      mload(0x40)\n      tag_74\n      swap2\n      swap1\n      tag_75\n      jump\t// in\n    tag_74:\n      mload(0x40)\n      dup1\n      swap2\n      sub\n      swap1\n      return\n        /* \"day8-TipJar/day8-tipjar.sol\":165:200  string[] public supportedCurrencies */\n    tag_13:\n      callvalue\n      dup1\n      iszero\n      tag_76\n      jumpi\n      revert(0x00, 0x00)\n    tag_76:\n      pop\n      tag_77\n      0x04\n      dup1\n      calldatasize\n      sub\n      dup2\n      add\n      swap1\n      tag_78\n      swap2\n      swap1\n      tag_79\n      jump\t// in\n    tag_78:\n      tag_80\n      jump\t// in\n    tag_77:\n      mload(0x40)\n      tag_81\n      swap2\n      swap1\n      tag_82\n      jump\t// in\n    tag_81:\n      mload(0x40)\n      dup1\n      swap2\n      sub\n      swap1\n      return\n        /* \"day8-TipJar/day8-tipjar.sol\":2499:3041  function tipInCurrency(string memory _currencyCode, uint256 _amount) public payable {... */\n    tag_14:\n      tag_83\n      0x04\n      dup1\n      calldatasize\n      sub\n      dup2\n      add\n      swap1\n      tag_84\n      swap2\n      swap1\n      tag_60\n      jump\t// in\n    tag_84:\n      tag_85\n      jump\t// in\n    tag_83:\n      stop\n        /* \"day8-TipJar/day8-tipjar.sol\":2235:2491  function tipInEth() public payable {... */\n    tag_15:\n      tag_86\n      tag_87\n      jump\t// in\n    tag_86:\n      stop\n        /* \"day8-TipJar/day8-tipjar.sol\":207:236  uint public totalTipsReceived */\n    tag_16:\n      callvalue\n      dup1\n      iszero\n      tag_88\n      jumpi\n      revert(0x00, 0x00)\n    tag_88:\n      pop\n      tag_89\n      tag_90\n      jump\t// in\n    tag_89:\n      mload(0x40)\n      tag_91\n      swap2\n      swap1\n      tag_27\n      jump\t// in\n    tag_91:\n      mload(0x40)\n      dup1\n      swap2\n      sub\n      swap1\n      return\n        /* \"day8-TipJar/day8-tipjar.sol\":3383:3544  function transferOwnership(address _newOwner) public onlyOwner {... */\n    tag_17:\n      callvalue\n      dup1\n      iszero\n      tag_92\n      jumpi\n      revert(0x00, 0x00)\n    tag_92:\n      pop\n      tag_93\n      0x04\n      dup1\n      calldatasize\n      sub\n      dup2\n      add\n      swap1\n      tag_94\n      swap2\n      swap1\n      tag_31\n      jump\t// in\n    tag_94:\n      tag_95\n      jump\t// in\n    tag_93:\n      stop\n        /* \"day8-TipJar/day8-tipjar.sol\":304:353  mapping(string => uint256) public tipsPerCurrency */\n    tag_25:\n      0x05\n      dup2\n      dup1\n      mload\n      0x20\n      dup2\n      add\n      dup3\n      add\n      dup1\n      mload\n      dup5\n      dup3\n      mstore\n      0x20\n      dup4\n      add\n      0x20\n      dup6\n      add\n      keccak256\n      dup2\n      dup4\n      mstore\n      dup1\n      swap6\n      pop\n      pop\n      pop\n      pop\n      pop\n      pop\n      0x00\n      swap2\n      pop\n      swap1\n      pop\n      sload\n      dup2\n      jump\t// out\n        /* \"day8-TipJar/day8-tipjar.sol\":243:297  mapping(address => uint256) public tipperContributions */\n    tag_32:\n      mstore(0x20, 0x04)\n      dup1\n      0x00\n      mstore\n      keccak256(0x00, 0x40)\n      0x00\n      swap2\n      pop\n      swap1\n      pop\n      sload\n      dup2\n      jump\t// out\n        /* \"day8-TipJar/day8-tipjar.sol\":3932:4154  function getConversionRate(string memory _currencyCode) public view returns (uint256) {... */\n    tag_37:\n        /* \"day8-TipJar/day8-tipjar.sol\":4009:4016  uint256 */\n      0x00\n        /* \"day8-TipJar/day8-tipjar.sol\":4070:4071  0 */\n      0x00\n        /* \"day8-TipJar/day8-tipjar.sol\":4037:4052  conversionRates */\n      0x01\n        /* \"day8-TipJar/day8-tipjar.sol\":4053:4066  _currencyCode */\n      dup4\n        /* \"day8-TipJar/day8-tipjar.sol\":4037:4067  conversionRates[_currencyCode] */\n      mload(0x40)\n      tag_97\n      swap2\n      swap1\n      tag_98\n      jump\t// in\n    tag_97:\n      swap1\n      dup2\n      mstore\n      0x20\n      add\n      mload(0x40)\n      dup1\n      swap2\n      sub\n      swap1\n      keccak256\n      sload\n        /* \"day8-TipJar/day8-tipjar.sol\":4037:4071  conversionRates[_currencyCode] > 0 */\n      gt\n        /* \"day8-TipJar/day8-tipjar.sol\":4029:4098  require(conversionRates[_currencyCode] > 0, \"Currency not supported\") */\n      tag_99\n      jumpi\n      mload(0x40)\n      0x08c379a000000000000000000000000000000000000000000000000000000000\n      dup2\n      mstore\n      0x04\n      add\n      tag_100\n      swap1\n      tag_101\n      jump\t// in\n    tag_100:\n      mload(0x40)\n      dup1\n      swap2\n      sub\n      swap1\n      revert\n    tag_99:\n        /* \"day8-TipJar/day8-tipjar.sol\":4116:4131  conversionRates */\n      0x01\n        /* \"day8-TipJar/day8-tipjar.sol\":4132:4145  _currencyCode */\n      dup3\n        /* \"day8-TipJar/day8-tipjar.sol\":4116:4146  conversionRates[_currencyCode] */\n      mload(0x40)\n      tag_102\n      swap2\n      swap1\n      tag_98\n      jump\t// in\n    tag_102:\n      swap1\n      dup2\n      mstore\n      0x20\n      add\n      mload(0x40)\n      dup1\n      swap2\n      sub\n      swap1\n      keccak256\n      sload\n        /* \"day8-TipJar/day8-tipjar.sol\":4109:4146  return conversionRates[_currencyCode] */\n      swap1\n      pop\n        /* \"day8-TipJar/day8-tipjar.sol\":3932:4154  function getConversionRate(string memory _currencyCode) public view returns (uint256) {... */\n      swap2\n      swap1\n      pop\n      jump\t// out\n        /* \"day8-TipJar/day8-tipjar.sol\":3792:3924  function getTipperContribution(address _tipper) public view returns (uint256) {... */\n    tag_42:\n        /* \"day8-TipJar/day8-tipjar.sol\":3861:3868  uint256 */\n      0x00\n        /* \"day8-TipJar/day8-tipjar.sol\":3888:3907  tipperContributions */\n      0x04\n        /* \"day8-TipJar/day8-tipjar.sol\":3888:3916  tipperContributions[_tipper] */\n      0x00\n        /* \"day8-TipJar/day8-tipjar.sol\":3908:3915  _tipper */\n      dup4\n        /* \"day8-TipJar/day8-tipjar.sol\":3888:3916  tipperContributions[_tipper] */\n      0xffffffffffffffffffffffffffffffffffffffff\n      and\n      0xffffffffffffffffffffffffffffffffffffffff\n      and\n      dup2\n      mstore\n      0x20\n      add\n      swap1\n      dup2\n      mstore\n      0x20\n      add\n      0x00\n      keccak256\n      sload\n        /* \"day8-TipJar/day8-tipjar.sol\":3881:3916  return tipperContributions[_tipper] */\n      swap1\n      pop\n        /* \"day8-TipJar/day8-tipjar.sol\":3792:3924  function getTipperContribution(address _tipper) public view returns (uint256) {... */\n      swap2\n      swap1\n      pop\n      jump\t// out\n        /* \"day8-TipJar/day8-tipjar.sol\":3552:3669  function getSupportedCurrencies() public view returns (string[] memory) {... */\n    tag_46:\n        /* \"day8-TipJar/day8-tipjar.sol\":3607:3622  string[] memory */\n      0x60\n        /* \"day8-TipJar/day8-tipjar.sol\":3642:3661  supportedCurrencies */\n      0x02\n        /* \"day8-TipJar/day8-tipjar.sol\":3635:3661  return supportedCurrencies */\n      dup1\n      sload\n      dup1\n      0x20\n      mul\n      0x20\n      add\n      mload(0x40)\n      swap1\n      dup2\n      add\n      0x40\n      mstore\n      dup1\n      swap3\n      swap2\n      swap1\n      dup2\n      dup2\n      mstore\n      0x20\n      add\n      0x00\n      swap1\n    tag_105:\n      dup3\n      dup3\n      lt\n      iszero\n      tag_106\n      jumpi\n      dup4\n      dup3\n      swap1\n      0x00\n      mstore\n      keccak256(0x00, 0x20)\n      add\n      dup1\n      sload\n      tag_108\n      swap1\n      tag_109\n      jump\t// in\n    tag_108:\n      dup1\n      0x1f\n      add\n      0x20\n      dup1\n      swap2\n      div\n      mul\n      0x20\n      add\n      mload(0x40)\n      swap1\n      dup2\n      add\n      0x40\n      mstore\n      dup1\n      swap3\n      swap2\n      swap1\n      dup2\n      dup2\n      mstore\n      0x20\n      add\n      dup3\n      dup1\n      sload\n      tag_110\n      swap1\n      tag_109\n      jump\t// in\n    tag_110:\n      dup1\n      iszero\n      tag_111\n      jumpi\n      dup1\n      0x1f\n      lt\n      tag_112\n      jumpi\n      0x0100\n      dup1\n      dup4\n      sload\n      div\n      mul\n      dup4\n      mstore\n      swap2\n      0x20\n      add\n      swap2\n      jump(tag_111)\n    tag_112:\n      dup3\n      add\n      swap2\n      swap1\n      0x00\n      mstore\n      keccak256(0x00, 0x20)\n      swap1\n    tag_113:\n      dup2\n      sload\n      dup2\n      mstore\n      swap1\n      0x01\n      add\n      swap1\n      0x20\n      add\n      dup1\n      dup4\n      gt\n      tag_113\n      jumpi\n      dup3\n      swap1\n      sub\n      0x1f\n      and\n      dup3\n      add\n      swap2\n    tag_111:\n      pop\n      pop\n      pop\n      pop\n      pop\n      dup2\n      mstore\n      0x20\n      add\n      swap1\n      0x01\n      add\n      swap1\n      jump(tag_105)\n    tag_106:\n      pop\n      pop\n      pop\n      pop\n      swap1\n      pop\n        /* \"day8-TipJar/day8-tipjar.sol\":3552:3669  function getSupportedCurrencies() public view returns (string[] memory) {... */\n      swap1\n      jump\t// out\n        /* \"day8-TipJar/day8-tipjar.sol\":3049:3375  function withdrawTips() public onlyOwner {... */\n    tag_51:\n        /* \"day8-TipJar/day8-tipjar.sol\":457:462  owner */\n      0x00\n      0x00\n      swap1\n      sload\n      swap1\n      0x0100\n      exp\n      swap1\n      div\n      0xffffffffffffffffffffffffffffffffffffffff\n      and\n        /* \"day8-TipJar/day8-tipjar.sol\":443:462  msg.sender == owner */\n      0xffffffffffffffffffffffffffffffffffffffff\n      and\n        /* \"day8-TipJar/day8-tipjar.sol\":443:453  msg.sender */\n      caller\n        /* \"day8-TipJar/day8-tipjar.sol\":443:462  msg.sender == owner */\n      0xffffffffffffffffffffffffffffffffffffffff\n      and\n      eq\n        /* \"day8-TipJar/day8-tipjar.sol\":435:502  require(msg.sender == owner, \"Only owner can perform this action.\") */\n      tag_115\n      jumpi\n      mload(0x40)\n      0x08c379a000000000000000000000000000000000000000000000000000000000\n      dup2\n      mstore\n      0x04\n      add\n      tag_116\n      swap1\n      tag_117\n      jump\t// in\n    tag_116:\n      mload(0x40)\n      dup1\n      swap2\n      sub\n      swap1\n      revert\n    tag_115:\n        /* \"day8-TipJar/day8-tipjar.sol\":3121:3122  0 */\n      0x00\n        /* \"day8-TipJar/day8-tipjar.sol\":3101:3118  totalTipsReceived */\n      0x03\n        /* \"day8-TipJar/day8-tipjar.sol\":3101:3122  totalTipsReceived = 0 */\n      dup2\n      swap1\n      sstore\n      pop\n        /* \"day8-TipJar/day8-tipjar.sol\":3133:3156  uint256 contractBalance */\n      0x00\n        /* \"day8-TipJar/day8-tipjar.sol\":3159:3180  address(this).balance */\n      selfbalance\n        /* \"day8-TipJar/day8-tipjar.sol\":3133:3180  uint256 contractBalance = address(this).balance */\n      swap1\n      pop\n        /* \"day8-TipJar/day8-tipjar.sol\":3217:3218  0 */\n      0x00\n        /* \"day8-TipJar/day8-tipjar.sol\":3199:3214  contractBalance */\n      dup2\n        /* \"day8-TipJar/day8-tipjar.sol\":3199:3218  contractBalance > 0 */\n      gt\n        /* \"day8-TipJar/day8-tipjar.sol\":3191:3242  require(contractBalance > 0, \"No tips to withdraw\") */\n      tag_119\n      jumpi\n      mload(0x40)\n      0x08c379a000000000000000000000000000000000000000000000000000000000\n      dup2\n      mstore\n      0x04\n      add\n      tag_120\n      swap1\n      tag_121\n      jump\t// in\n    tag_120:\n      mload(0x40)\n      dup1\n      swap2\n      sub\n      swap1\n      revert\n    tag_119:\n        /* \"day8-TipJar/day8-tipjar.sol\":3256:3268  bool success */\n      0x00\n        /* \"day8-TipJar/day8-tipjar.sol\":3282:3287  owner */\n      0x00\n      0x00\n      swap1\n      sload\n      swap1\n      0x0100\n      exp\n      swap1\n      div\n      0xffffffffffffffffffffffffffffffffffffffff\n      and\n        /* \"day8-TipJar/day8-tipjar.sol\":3274:3293  payable(owner).call */\n      0xffffffffffffffffffffffffffffffffffffffff\n      and\n        /* \"day8-TipJar/day8-tipjar.sol\":3301:3316  contractBalance */\n      dup3\n        /* \"day8-TipJar/day8-tipjar.sol\":3274:3321  payable(owner).call{value: contractBalance}(\"\") */\n      mload(0x40)\n      tag_122\n      swap1\n      tag_123\n      jump\t// in\n    tag_122:\n      0x00\n      mload(0x40)\n      dup1\n      dup4\n      sub\n      dup2\n      dup6\n      dup8\n      gas\n      call\n      swap3\n      pop\n      pop\n      pop\n      returndatasize\n      dup1\n      0x00\n      dup2\n      eq\n      tag_126\n      jumpi\n      mload(0x40)\n      swap2\n      pop\n      and(add(returndatasize, 0x3f), not(0x1f))\n      dup3\n      add\n      0x40\n      mstore\n      returndatasize\n      dup3\n      mstore\n      returndatasize\n      0x00\n      0x20\n      dup5\n      add\n      returndatacopy\n      jump(tag_125)\n    tag_126:\n      0x60\n      swap2\n      pop\n    tag_125:\n      pop\n        /* \"day8-TipJar/day8-tipjar.sol\":3255:3321  (bool success, ) = payable(owner).call{value: contractBalance}(\"\") */\n      pop\n      swap1\n      pop\n        /* \"day8-TipJar/day8-tipjar.sol\":3340:3347  success */\n      dup1\n        /* \"day8-TipJar/day8-tipjar.sol\":3332:3367  require(success, \"Transfer failed\") */\n      tag_127\n      jumpi\n      mload(0x40)\n      0x08c379a000000000000000000000000000000000000000000000000000000000\n      dup2\n      mstore\n      0x04\n      add\n      tag_128\n      swap1\n      tag_129\n      jump\t// in\n    tag_128:\n      mload(0x40)\n      dup1\n      swap2\n      sub\n      swap1\n      revert\n    tag_127:\n        /* \"day8-TipJar/day8-tipjar.sol\":3090:3375  {... */\n      pop\n      pop\n        /* \"day8-TipJar/day8-tipjar.sol\":3049:3375  function withdrawTips() public onlyOwner {... */\n      jump\t// out\n        /* \"day8-TipJar/day8-tipjar.sol\":109:158  mapping(string => uint256) public conversionRates */\n    tag_55:\n      0x01\n      dup2\n      dup1\n      mload\n      0x20\n      dup2\n      add\n      dup3\n      add\n      dup1\n      mload\n      dup5\n      dup3\n      mstore\n      0x20\n      dup4\n      add\n      0x20\n      dup6\n      add\n      keccak256\n      dup2\n      dup4\n      mstore\n      dup1\n      swap6\n      pop\n      pop\n      pop\n      pop\n      pop\n      pop\n      0x00\n      swap2\n      pop\n      swap1\n      pop\n      sload\n      dup2\n      jump\t// out\n        /* \"day8-TipJar/day8-tipjar.sol\":530:1707  function addCurrency(string memory _currencyCode, uint256 _rateToEth) public onlyOwner {... */\n    tag_61:\n        /* \"day8-TipJar/day8-tipjar.sol\":457:462  owner */\n      0x00\n      0x00\n      swap1\n      sload\n      swap1\n      0x0100\n      exp\n      swap1\n      div\n      0xffffffffffffffffffffffffffffffffffffffff\n      and\n        /* \"day8-TipJar/day8-tipjar.sol\":443:462  msg.sender == owner */\n      0xffffffffffffffffffffffffffffffffffffffff\n      and\n        /* \"day8-TipJar/day8-tipjar.sol\":443:453  msg.sender */\n      caller\n        /* \"day8-TipJar/day8-tipjar.sol\":443:462  msg.sender == owner */\n      0xffffffffffffffffffffffffffffffffffffffff\n      and\n      eq\n        /* \"day8-TipJar/day8-tipjar.sol\":435:502  require(msg.sender == owner, \"Only owner can perform this action.\") */\n      tag_131\n      jumpi\n      mload(0x40)\n      0x08c379a000000000000000000000000000000000000000000000000000000000\n      dup2\n      mstore\n      0x04\n      add\n      tag_132\n      swap1\n      tag_117\n      jump\t// in\n    tag_132:\n      mload(0x40)\n      dup1\n      swap2\n      sub\n      swap1\n      revert\n    tag_131:\n        /* \"day8-TipJar/day8-tipjar.sol\":649:650  0 */\n      0x00\n        /* \"day8-TipJar/day8-tipjar.sol\":636:646  _rateToEth */\n      dup2\n        /* \"day8-TipJar/day8-tipjar.sol\":636:650  _rateToEth > 0 */\n      gt\n        /* \"day8-TipJar/day8-tipjar.sol\":628:683  require(_rateToEth > 0, \"Rate must be greater than 0.\") */\n      tag_134\n      jumpi\n      mload(0x40)\n      0x08c379a000000000000000000000000000000000000000000000000000000000\n      dup2\n      mstore\n      0x04\n      add\n      tag_135\n      swap1\n      tag_136\n      jump\t// in\n    tag_135:\n      mload(0x40)\n      dup1\n      swap2\n      sub\n      swap1\n      revert\n    tag_134:\n        /* \"day8-TipJar/day8-tipjar.sol\":1476:1481  false */\n      0x00\n        /* \"day8-TipJar/day8-tipjar.sol\":1446:1481  isSupported[_currencyCode] == false */\n      iszero\n      iszero\n        /* \"day8-TipJar/day8-tipjar.sol\":1446:1457  isSupported */\n      0x06\n        /* \"day8-TipJar/day8-tipjar.sol\":1458:1471  _currencyCode */\n      dup4\n        /* \"day8-TipJar/day8-tipjar.sol\":1446:1472  isSupported[_currencyCode] */\n      mload(0x40)\n      tag_137\n      swap2\n      swap1\n      tag_98\n      jump\t// in\n    tag_137:\n      swap1\n      dup2\n      mstore\n      0x20\n      add\n      mload(0x40)\n      dup1\n      swap2\n      sub\n      swap1\n      keccak256\n      0x00\n      swap1\n      sload\n      swap1\n      0x0100\n      exp\n      swap1\n      div\n      0xff\n      and\n        /* \"day8-TipJar/day8-tipjar.sol\":1446:1481  isSupported[_currencyCode] == false */\n      iszero\n      iszero\n      sub\n        /* \"day8-TipJar/day8-tipjar.sol\":1442:1597  if (isSupported[_currencyCode] == false) {... */\n      tag_138\n      jumpi\n        /* \"day8-TipJar/day8-tipjar.sol\":1498:1517  supportedCurrencies */\n      0x02\n        /* \"day8-TipJar/day8-tipjar.sol\":1523:1536  _currencyCode */\n      dup3\n        /* \"day8-TipJar/day8-tipjar.sol\":1498:1537  supportedCurrencies.push(_currencyCode) */\n      swap1\n      dup1\n      0x01\n      dup2\n      sload\n      add\n      dup1\n      dup3\n      sstore\n      dup1\n      swap2\n      pop\n      pop\n      0x01\n      swap1\n      sub\n      swap1\n      0x00\n      mstore\n      keccak256(0x00, 0x20)\n      add\n      0x00\n      swap1\n      swap2\n      swap1\n      swap2\n      swap1\n      swap2\n      pop\n      swap1\n      dup2\n      tag_140\n      swap2\n      swap1\n      tag_141\n      jump\t// in\n    tag_140:\n      pop\n        /* \"day8-TipJar/day8-tipjar.sol\":1581:1585  true */\n      0x01\n        /* \"day8-TipJar/day8-tipjar.sol\":1552:1563  isSupported */\n      0x06\n        /* \"day8-TipJar/day8-tipjar.sol\":1564:1577  _currencyCode */\n      dup4\n        /* \"day8-TipJar/day8-tipjar.sol\":1552:1578  isSupported[_currencyCode] */\n      mload(0x40)\n      tag_142\n      swap2\n      swap1\n      tag_98\n      jump\t// in\n    tag_142:\n      swap1\n      dup2\n      mstore\n      0x20\n      add\n      mload(0x40)\n      dup1\n      swap2\n      sub\n      swap1\n      keccak256\n      0x00\n        /* \"day8-TipJar/day8-tipjar.sol\":1552:1585  isSupported[_currencyCode] = true */\n      0x0100\n      exp\n      dup2\n      sload\n      dup2\n      0xff\n      mul\n      not\n      and\n      swap1\n      dup4\n      iszero\n      iszero\n      mul\n      or\n      swap1\n      sstore\n      pop\n        /* \"day8-TipJar/day8-tipjar.sol\":1442:1597  if (isSupported[_currencyCode] == false) {... */\n    tag_138:\n        /* \"day8-TipJar/day8-tipjar.sol\":1689:1699  _rateToEth */\n      dup1\n        /* \"day8-TipJar/day8-tipjar.sol\":1656:1671  conversionRates */\n      0x01\n        /* \"day8-TipJar/day8-tipjar.sol\":1672:1685  _currencyCode */\n      dup4\n        /* \"day8-TipJar/day8-tipjar.sol\":1656:1686  conversionRates[_currencyCode] */\n      mload(0x40)\n      tag_143\n      swap2\n      swap1\n      tag_98\n      jump\t// in\n    tag_143:\n      swap1\n      dup2\n      mstore\n      0x20\n      add\n      mload(0x40)\n      dup1\n      swap2\n      sub\n      swap1\n      keccak256\n        /* \"day8-TipJar/day8-tipjar.sol\":1656:1699  conversionRates[_currencyCode] = _rateToEth */\n      dup2\n      swap1\n      sstore\n      pop\n        /* \"day8-TipJar/day8-tipjar.sol\":530:1707  function addCurrency(string memory _currencyCode, uint256 _rateToEth) public onlyOwner {... */\n      pop\n      pop\n      jump\t// out\n        /* \"day8-TipJar/day8-tipjar.sol\":1940:2227  function convertToEth(string memory _currencyCode, uint256 _amount) public view returns (uint256) {... */\n    tag_65:\n        /* \"day8-TipJar/day8-tipjar.sol\":2029:2036  uint256 */\n      0x00\n        /* \"day8-TipJar/day8-tipjar.sol\":2090:2091  0 */\n      0x00\n        /* \"day8-TipJar/day8-tipjar.sol\":2057:2072  conversionRates */\n      0x01\n        /* \"day8-TipJar/day8-tipjar.sol\":2073:2086  _currencyCode */\n      dup5\n        /* \"day8-TipJar/day8-tipjar.sol\":2057:2087  conversionRates[_currencyCode] */\n      mload(0x40)\n      tag_145\n      swap2\n      swap1\n      tag_98\n      jump\t// in\n    tag_145:\n      swap1\n      dup2\n      mstore\n      0x20\n      add\n      mload(0x40)\n      dup1\n      swap2\n      sub\n      swap1\n      keccak256\n      sload\n        /* \"day8-TipJar/day8-tipjar.sol\":2057:2091  conversionRates[_currencyCode] > 0 */\n      gt\n        /* \"day8-TipJar/day8-tipjar.sol\":2049:2119  require(conversionRates[_currencyCode] > 0, \"Currency not supported.\") */\n      tag_146\n      jumpi\n      mload(0x40)\n      0x08c379a000000000000000000000000000000000000000000000000000000000\n      dup2\n      mstore\n      0x04\n      add\n      tag_147\n      swap1\n      tag_148\n      jump\t// in\n    tag_147:\n      mload(0x40)\n      dup1\n      swap2\n      sub\n      swap1\n      revert\n    tag_146:\n        /* \"day8-TipJar/day8-tipjar.sol\":2132:2149  uint256 ethAmount */\n      0x00\n        /* \"day8-TipJar/day8-tipjar.sol\":2162:2177  conversionRates */\n      0x01\n        /* \"day8-TipJar/day8-tipjar.sol\":2178:2191  _currencyCode */\n      dup5\n        /* \"day8-TipJar/day8-tipjar.sol\":2162:2192  conversionRates[_currencyCode] */\n      mload(0x40)\n      tag_149\n      swap2\n      swap1\n      tag_98\n      jump\t// in\n    tag_149:\n      swap1\n      dup2\n      mstore\n      0x20\n      add\n      mload(0x40)\n      dup1\n      swap2\n      sub\n      swap1\n      keccak256\n      sload\n        /* \"day8-TipJar/day8-tipjar.sol\":2152:2159  _amount */\n      dup4\n        /* \"day8-TipJar/day8-tipjar.sol\":2152:2192  _amount * conversionRates[_currencyCode] */\n      tag_150\n      swap2\n      swap1\n      tag_151\n      jump\t// in\n    tag_150:\n        /* \"day8-TipJar/day8-tipjar.sol\":2132:2192  uint256 ethAmount = _amount * conversionRates[_currencyCode] */\n      swap1\n      pop\n        /* \"day8-TipJar/day8-tipjar.sol\":2210:2219  ethAmount */\n      dup1\n        /* \"day8-TipJar/day8-tipjar.sol\":2203:2219  return ethAmount */\n      swap2\n      pop\n      pop\n        /* \"day8-TipJar/day8-tipjar.sol\":1940:2227  function convertToEth(string memory _currencyCode, uint256 _amount) public view returns (uint256) {... */\n      swap3\n      swap2\n      pop\n      pop\n      jump\t// out\n        /* \"day8-TipJar/day8-tipjar.sol\":3677:3784  function getContractBalance() public view returns (uint256) {... */\n    tag_69:\n        /* \"day8-TipJar/day8-tipjar.sol\":3728:3735  uint256 */\n      0x00\n        /* \"day8-TipJar/day8-tipjar.sol\":3755:3776  address(this).balance */\n      selfbalance\n        /* \"day8-TipJar/day8-tipjar.sol\":3748:3776  return address(this).balance */\n      swap1\n      pop\n        /* \"day8-TipJar/day8-tipjar.sol\":3677:3784  function getContractBalance() public view returns (uint256) {... */\n      swap1\n      jump\t// out\n        /* \"day8-TipJar/day8-tipjar.sol\":82:102  address public owner */\n    tag_73:\n      0x00\n      0x00\n      swap1\n      sload\n      swap1\n      0x0100\n      exp\n      swap1\n      div\n      0xffffffffffffffffffffffffffffffffffffffff\n      and\n      dup2\n      jump\t// out\n        /* \"day8-TipJar/day8-tipjar.sol\":165:200  string[] public supportedCurrencies */\n    tag_80:\n      0x02\n      dup2\n      dup2\n      sload\n      dup2\n      lt\n      tag_153\n      jumpi\n      0x00\n      dup1\n      revert\n    tag_153:\n      swap1\n      0x00\n      mstore\n      keccak256(0x00, 0x20)\n      add\n      0x00\n      swap2\n      pop\n      swap1\n      pop\n      dup1\n      sload\n      tag_155\n      swap1\n      tag_109\n      jump\t// in\n    tag_155:\n      dup1\n      0x1f\n      add\n      0x20\n      dup1\n      swap2\n      div\n      mul\n      0x20\n      add\n      mload(0x40)\n      swap1\n      dup2\n      add\n      0x40\n      mstore\n      dup1\n      swap3\n      swap2\n      swap1\n      dup2\n      dup2\n      mstore\n      0x20\n      add\n      dup3\n      dup1\n      sload\n      tag_156\n      swap1\n      tag_109\n      jump\t// in\n    tag_156:\n      dup1\n      iszero\n      tag_157\n      jumpi\n      dup1\n      0x1f\n      lt\n      tag_158\n      jumpi\n      0x0100\n      dup1\n      dup4\n      sload\n      div\n      mul\n      dup4\n      mstore\n      swap2\n      0x20\n      add\n      swap2\n      jump(tag_157)\n    tag_158:\n      dup3\n      add\n      swap2\n      swap1\n      0x00\n      mstore\n      keccak256(0x00, 0x20)\n      swap1\n    tag_159:\n      dup2\n      sload\n      dup2\n      mstore\n      swap1\n      0x01\n      add\n      swap1\n      0x20\n      add\n      dup1\n      dup4\n      gt\n      tag_159\n      jumpi\n      dup3\n      swap1\n      sub\n      0x1f\n      and\n      dup3\n      add\n      swap2\n    tag_157:\n      pop\n      pop\n      pop\n      pop\n      pop\n      dup2\n      jump\t// out\n        /* \"day8-TipJar/day8-tipjar.sol\":2499:3041  function tipInCurrency(string memory _currencyCode, uint256 _amount) public payable {... */\n    tag_85:\n        /* \"day8-TipJar/day8-tipjar.sol\":2635:2636  0 */\n      0x00\n        /* \"day8-TipJar/day8-tipjar.sol\":2602:2617  conversionRates */\n      0x01\n        /* \"day8-TipJar/day8-tipjar.sol\":2618:2631  _currencyCode */\n      dup4\n        /* \"day8-TipJar/day8-tipjar.sol\":2602:2632  conversionRates[_currencyCode] */\n      mload(0x40)\n      tag_161\n      swap2\n      swap1\n      tag_98\n      jump\t// in\n    tag_161:\n      swap1\n      dup2\n      mstore\n      0x20\n      add\n      mload(0x40)\n      dup1\n      swap2\n      sub\n      swap1\n      keccak256\n      sload\n        /* \"day8-TipJar/day8-tipjar.sol\":2602:2636  conversionRates[_currencyCode] > 0 */\n      gt\n        /* \"day8-TipJar/day8-tipjar.sol\":2594:2663  require(conversionRates[_currencyCode] > 0, \"Currency not supported\") */\n      tag_162\n      jumpi\n      mload(0x40)\n      0x08c379a000000000000000000000000000000000000000000000000000000000\n      dup2\n      mstore\n      0x04\n      add\n      tag_163\n      swap1\n      tag_101\n      jump\t// in\n    tag_163:\n      mload(0x40)\n      dup1\n      swap2\n      sub\n      swap1\n      revert\n    tag_162:\n        /* \"day8-TipJar/day8-tipjar.sol\":2692:2693  0 */\n      0x00\n        /* \"day8-TipJar/day8-tipjar.sol\":2682:2689  _amount */\n      dup2\n        /* \"day8-TipJar/day8-tipjar.sol\":2682:2693  _amount > 0 */\n      gt\n        /* \"day8-TipJar/day8-tipjar.sol\":2674:2727  require(_amount > 0, \"Amount must be greater than 0\") */\n      tag_164\n      jumpi\n      mload(0x40)\n      0x08c379a000000000000000000000000000000000000000000000000000000000\n      dup2\n      mstore\n      0x04\n      add\n      tag_165\n      swap1\n      tag_166\n      jump\t// in\n    tag_165:\n      mload(0x40)\n      dup1\n      swap2\n      sub\n      swap1\n      revert\n    tag_164:\n        /* \"day8-TipJar/day8-tipjar.sol\":2740:2757  uint256 ethAmount */\n      0x00\n        /* \"day8-TipJar/day8-tipjar.sol\":2760:2796  convertToEth(_currencyCode, _amount) */\n      tag_167\n        /* \"day8-TipJar/day8-tipjar.sol\":2773:2786  _currencyCode */\n      dup4\n        /* \"day8-TipJar/day8-tipjar.sol\":2788:2795  _amount */\n      dup4\n        /* \"day8-TipJar/day8-tipjar.sol\":2760:2772  convertToEth */\n      tag_65\n        /* \"day8-TipJar/day8-tipjar.sol\":2760:2796  convertToEth(_currencyCode, _amount) */\n      jump\t// in\n    tag_167:\n        /* \"day8-TipJar/day8-tipjar.sol\":2740:2796  uint256 ethAmount = convertToEth(_currencyCode, _amount) */\n      swap1\n      pop\n        /* \"day8-TipJar/day8-tipjar.sol\":2828:2837  ethAmount */\n      dup1\n        /* \"day8-TipJar/day8-tipjar.sol\":2815:2824  msg.value */\n      callvalue\n        /* \"day8-TipJar/day8-tipjar.sol\":2815:2837  msg.value == ethAmount */\n      eq\n        /* \"day8-TipJar/day8-tipjar.sol\":2807:2885  require(msg.value == ethAmount, \"Sent ETH doesn't match the converted amount\") */\n      tag_168\n      jumpi\n      mload(0x40)\n      0x08c379a000000000000000000000000000000000000000000000000000000000\n      dup2\n      mstore\n      0x04\n      add\n      tag_169\n      swap1\n      tag_170\n      jump\t// in\n    tag_169:\n      mload(0x40)\n      dup1\n      swap2\n      sub\n      swap1\n      revert\n    tag_168:\n        /* \"day8-TipJar/day8-tipjar.sol\":2931:2940  msg.value */\n      callvalue\n        /* \"day8-TipJar/day8-tipjar.sol\":2896:2915  tipperContributions */\n      0x04\n        /* \"day8-TipJar/day8-tipjar.sol\":2896:2927  tipperContributions[msg.sender] */\n      0x00\n        /* \"day8-TipJar/day8-tipjar.sol\":2916:2926  msg.sender */\n      caller\n        /* \"day8-TipJar/day8-tipjar.sol\":2896:2927  tipperContributions[msg.sender] */\n      0xffffffffffffffffffffffffffffffffffffffff\n      and\n      0xffffffffffffffffffffffffffffffffffffffff\n      and\n      dup2\n      mstore\n      0x20\n      add\n      swap1\n      dup2\n      mstore\n      0x20\n      add\n      0x00\n      keccak256\n      0x00\n        /* \"day8-TipJar/day8-tipjar.sol\":2896:2940  tipperContributions[msg.sender] += msg.value */\n      dup3\n      dup3\n      sload\n      tag_171\n      swap2\n      swap1\n      tag_172\n      jump\t// in\n    tag_171:\n      swap3\n      pop\n      pop\n      dup2\n      swap1\n      sstore\n      pop\n        /* \"day8-TipJar/day8-tipjar.sol\":2972:2981  msg.value */\n      callvalue\n        /* \"day8-TipJar/day8-tipjar.sol\":2951:2968  totalTipsReceived */\n      0x03\n      0x00\n        /* \"day8-TipJar/day8-tipjar.sol\":2951:2981  totalTipsReceived += msg.value */\n      dup3\n      dup3\n      sload\n      tag_173\n      swap2\n      swap1\n      tag_172\n      jump\t// in\n    tag_173:\n      swap3\n      pop\n      pop\n      dup2\n      swap1\n      sstore\n      pop\n        /* \"day8-TipJar/day8-tipjar.sol\":3026:3033  _amount */\n      dup2\n        /* \"day8-TipJar/day8-tipjar.sol\":2992:3007  tipsPerCurrency */\n      0x05\n        /* \"day8-TipJar/day8-tipjar.sol\":3008:3021  _currencyCode */\n      dup5\n        /* \"day8-TipJar/day8-tipjar.sol\":2992:3022  tipsPerCurrency[_currencyCode] */\n      mload(0x40)\n      tag_174\n      swap2\n      swap1\n      tag_98\n      jump\t// in\n    tag_174:\n      swap1\n      dup2\n      mstore\n      0x20\n      add\n      mload(0x40)\n      dup1\n      swap2\n      sub\n      swap1\n      keccak256\n      0x00\n        /* \"day8-TipJar/day8-tipjar.sol\":2992:3033  tipsPerCurrency[_currencyCode] += _amount */\n      dup3\n      dup3\n      sload\n      tag_175\n      swap2\n      swap1\n      tag_172\n      jump\t// in\n    tag_175:\n      swap3\n      pop\n      pop\n      dup2\n      swap1\n      sstore\n      pop\n        /* \"day8-TipJar/day8-tipjar.sol\":2583:3041  {... */\n      pop\n        /* \"day8-TipJar/day8-tipjar.sol\":2499:3041  function tipInCurrency(string memory _currencyCode, uint256 _amount) public payable {... */\n      pop\n      pop\n      jump\t// out\n        /* \"day8-TipJar/day8-tipjar.sol\":2235:2491  function tipInEth() public payable {... */\n    tag_87:\n        /* \"day8-TipJar/day8-tipjar.sol\":2301:2302  0 */\n      0x00\n        /* \"day8-TipJar/day8-tipjar.sol\":2289:2298  msg.value */\n      callvalue\n        /* \"day8-TipJar/day8-tipjar.sol\":2289:2302  msg.value > 0 */\n      gt\n        /* \"day8-TipJar/day8-tipjar.sol\":2281:2341  require(msg.value > 0, \"Tip amount must be greater than 0.\") */\n      tag_177\n      jumpi\n      mload(0x40)\n      0x08c379a000000000000000000000000000000000000000000000000000000000\n      dup2\n      mstore\n      0x04\n      add\n      tag_178\n      swap1\n      tag_179\n      jump\t// in\n    tag_178:\n      mload(0x40)\n      dup1\n      swap2\n      sub\n      swap1\n      revert\n    tag_177:\n        /* \"day8-TipJar/day8-tipjar.sol\":2387:2396  msg.value */\n      callvalue\n        /* \"day8-TipJar/day8-tipjar.sol\":2352:2371  tipperContributions */\n      0x04\n        /* \"day8-TipJar/day8-tipjar.sol\":2352:2383  tipperContributions[msg.sender] */\n      0x00\n        /* \"day8-TipJar/day8-tipjar.sol\":2372:2382  msg.sender */\n      caller\n        /* \"day8-TipJar/day8-tipjar.sol\":2352:2383  tipperContributions[msg.sender] */\n      0xffffffffffffffffffffffffffffffffffffffff\n      and\n      0xffffffffffffffffffffffffffffffffffffffff\n      and\n      dup2\n      mstore\n      0x20\n      add\n      swap1\n      dup2\n      mstore\n      0x20\n      add\n      0x00\n      keccak256\n      0x00\n        /* \"day8-TipJar/day8-tipjar.sol\":2352:2396  tipperContributions[msg.sender] += msg.value */\n      dup3\n      dup3\n      sload\n      tag_180\n      swap2\n      swap1\n      tag_172\n      jump\t// in\n    tag_180:\n      swap3\n      pop\n      pop\n      dup2\n      swap1\n      sstore\n      pop\n        /* \"day8-TipJar/day8-tipjar.sol\":2428:2437  msg.value */\n      callvalue\n        /* \"day8-TipJar/day8-tipjar.sol\":2407:2424  totalTipsReceived */\n      0x03\n      0x00\n        /* \"day8-TipJar/day8-tipjar.sol\":2407:2437  totalTipsReceived += msg.value */\n      dup3\n      dup3\n      sload\n      tag_181\n      swap2\n      swap1\n      tag_172\n      jump\t// in\n    tag_181:\n      swap3\n      pop\n      pop\n      dup2\n      swap1\n      sstore\n      pop\n        /* \"day8-TipJar/day8-tipjar.sol\":2474:2483  msg.value */\n      callvalue\n        /* \"day8-TipJar/day8-tipjar.sol\":2448:2463  tipsPerCurrency */\n      0x05\n        /* \"day8-TipJar/day8-tipjar.sol\":2448:2470  tipsPerCurrency[\"ETH\"] */\n      mload(0x40)\n      tag_182\n      swap1\n      tag_183\n      jump\t// in\n    tag_182:\n      swap1\n      dup2\n      mstore\n      0x20\n      add\n      mload(0x40)\n      dup1\n      swap2\n      sub\n      swap1\n      keccak256\n      0x00\n        /* \"day8-TipJar/day8-tipjar.sol\":2448:2483  tipsPerCurrency[\"ETH\"] += msg.value */\n      dup3\n      dup3\n      sload\n      tag_184\n      swap2\n      swap1\n      tag_172\n      jump\t// in\n    tag_184:\n      swap3\n      pop\n      pop\n      dup2\n      swap1\n      sstore\n      pop\n        /* \"day8-TipJar/day8-tipjar.sol\":2235:2491  function tipInEth() public payable {... */\n      jump\t// out\n        /* \"day8-TipJar/day8-tipjar.sol\":207:236  uint public totalTipsReceived */\n    tag_90:\n      sload(0x03)\n      dup2\n      jump\t// out\n        /* \"day8-TipJar/day8-tipjar.sol\":3383:3544  function transferOwnership(address _newOwner) public onlyOwner {... */\n    tag_95:\n        /* \"day8-TipJar/day8-tipjar.sol\":457:462  owner */\n      0x00\n      0x00\n      swap1\n      sload\n      swap1\n      0x0100\n      exp\n      swap1\n      div\n      0xffffffffffffffffffffffffffffffffffffffff\n      and\n        /* \"day8-TipJar/day8-tipjar.sol\":443:462  msg.sender == owner */\n      0xffffffffffffffffffffffffffffffffffffffff\n      and\n        /* \"day8-TipJar/day8-tipjar.sol\":443:453  msg.sender */\n      caller\n        /* \"day8-TipJar/day8-tipjar.sol\":443:462  msg.sender == owner */\n      0xffffffffffffffffffffffffffffffffffffffff\n      and\n      eq\n        /* \"day8-TipJar/day8-tipjar.sol\":435:502  require(msg.sender == owner, \"Only owner can perform this action.\") */\n      tag_186\n      jumpi\n      mload(0x40)\n      0x08c379a000000000000000000000000000000000000000000000000000000000\n      dup2\n      mstore\n      0x04\n      add\n      tag_187\n      swap1\n      tag_117\n      jump\t// in\n    tag_187:\n      mload(0x40)\n      dup1\n      swap2\n      sub\n      swap1\n      revert\n    tag_186:\n        /* \"day8-TipJar/day8-tipjar.sol\":3486:3487  0 */\n      0x00\n        /* \"day8-TipJar/day8-tipjar.sol\":3465:3488  _newOwner != address(0) */\n      0xffffffffffffffffffffffffffffffffffffffff\n      and\n        /* \"day8-TipJar/day8-tipjar.sol\":3465:3474  _newOwner */\n      dup2\n        /* \"day8-TipJar/day8-tipjar.sol\":3465:3488  _newOwner != address(0) */\n      0xffffffffffffffffffffffffffffffffffffffff\n      and\n      sub\n        /* \"day8-TipJar/day8-tipjar.sol\":3457:3508  require(_newOwner != address(0), \"Invalid address\") */\n      tag_189\n      jumpi\n      mload(0x40)\n      0x08c379a000000000000000000000000000000000000000000000000000000000\n      dup2\n      mstore\n      0x04\n      add\n      tag_190\n      swap1\n      tag_191\n      jump\t// in\n    tag_190:\n      mload(0x40)\n      dup1\n      swap2\n      sub\n      swap1\n      revert\n    tag_189:\n        /* \"day8-TipJar/day8-tipjar.sol\":3527:3536  _newOwner */\n      dup1\n        /* \"day8-TipJar/day8-tipjar.sol\":3519:3524  owner */\n      0x00\n      0x00\n        /* \"day8-TipJar/day8-tipjar.sol\":3519:3536  owner = _newOwner */\n      0x0100\n      exp\n      dup2\n      sload\n      dup2\n      0xffffffffffffffffffffffffffffffffffffffff\n      mul\n      not\n      and\n      swap1\n      dup4\n      0xffffffffffffffffffffffffffffffffffffffff\n      and\n      mul\n      or\n      swap1\n      sstore\n      pop\n        /* \"day8-TipJar/day8-tipjar.sol\":3383:3544  function transferOwnership(address _newOwner) public onlyOwner {... */\n      pop\n      jump\t// out\n        /* \"#utility.yul\":7:82   */\n    tag_192:\n        /* \"#utility.yul\":40:46   */\n      0x00\n        /* \"#utility.yul\":73:75   */\n      0x40\n        /* \"#utility.yul\":67:76   */\n      mload\n        /* \"#utility.yul\":57:76   */\n      swap1\n      pop\n        /* \"#utility.yul\":7:82   */\n      swap1\n      jump\t// out\n        /* \"#utility.yul\":88:205   */\n    tag_193:\n        /* \"#utility.yul\":197:198   */\n      0x00\n        /* \"#utility.yul\":194:195   */\n      0x00\n        /* \"#utility.yul\":187:199   */\n      revert\n        /* \"#utility.yul\":211:328   */\n    tag_194:\n        /* \"#utility.yul\":320:321   */\n      0x00\n        /* \"#utility.yul\":317:318   */\n      0x00\n        /* \"#utility.yul\":310:322   */\n      revert\n        /* \"#utility.yul\":334:451   */\n    tag_195:\n        /* \"#utility.yul\":443:444   */\n      0x00\n        /* \"#utility.yul\":440:441   */\n      0x00\n        /* \"#utility.yul\":433:445   */\n      revert\n        /* \"#utility.yul\":457:574   */\n    tag_196:\n        /* \"#utility.yul\":566:567   */\n      0x00\n        /* \"#utility.yul\":563:564   */\n      0x00\n        /* \"#utility.yul\":556:568   */\n      revert\n        /* \"#utility.yul\":580:682   */\n    tag_197:\n        /* \"#utility.yul\":621:627   */\n      0x00\n        /* \"#utility.yul\":672:674   */\n      0x1f\n        /* \"#utility.yul\":668:675   */\n      not\n        /* \"#utility.yul\":663:665   */\n      0x1f\n        /* \"#utility.yul\":656:661   */\n      dup4\n        /* \"#utility.yul\":652:666   */\n      add\n        /* \"#utility.yul\":648:676   */\n      and\n        /* \"#utility.yul\":638:676   */\n      swap1\n      pop\n        /* \"#utility.yul\":580:682   */\n      swap2\n      swap1\n      pop\n      jump\t// out\n        /* \"#utility.yul\":688:868   */\n    tag_198:\n        /* \"#utility.yul\":736:813   */\n      0x4e487b7100000000000000000000000000000000000000000000000000000000\n        /* \"#utility.yul\":733:734   */\n      0x00\n        /* \"#utility.yul\":726:814   */\n      mstore\n        /* \"#utility.yul\":833:837   */\n      0x41\n        /* \"#utility.yul\":830:831   */\n      0x04\n        /* \"#utility.yul\":823:838   */\n      mstore\n        /* \"#utility.yul\":857:861   */\n      0x24\n        /* \"#utility.yul\":854:855   */\n      0x00\n        /* \"#utility.yul\":847:862   */\n      revert\n        /* \"#utility.yul\":874:1155   */\n    tag_199:\n        /* \"#utility.yul\":957:984   */\n      tag_279\n        /* \"#utility.yul\":979:983   */\n      dup3\n        /* \"#utility.yul\":957:984   */\n      tag_197\n      jump\t// in\n    tag_279:\n        /* \"#utility.yul\":949:955   */\n      dup2\n        /* \"#utility.yul\":945:985   */\n      add\n        /* \"#utility.yul\":1087:1093   */\n      dup2\n        /* \"#utility.yul\":1075:1085   */\n      dup2\n        /* \"#utility.yul\":1072:1094   */\n      lt\n        /* \"#utility.yul\":1051:1069   */\n      0xffffffffffffffff\n        /* \"#utility.yul\":1039:1049   */\n      dup3\n        /* \"#utility.yul\":1036:1070   */\n      gt\n        /* \"#utility.yul\":1033:1095   */\n      or\n        /* \"#utility.yul\":1030:1118   */\n      iszero\n      tag_280\n      jumpi\n        /* \"#utility.yul\":1098:1116   */\n      tag_281\n      tag_198\n      jump\t// in\n    tag_281:\n        /* \"#utility.yul\":1030:1118   */\n    tag_280:\n        /* \"#utility.yul\":1138:1148   */\n      dup1\n        /* \"#utility.yul\":1134:1136   */\n      0x40\n        /* \"#utility.yul\":1127:1149   */\n      mstore\n        /* \"#utility.yul\":917:1155   */\n      pop\n        /* \"#utility.yul\":874:1155   */\n      pop\n      pop\n      jump\t// out\n        /* \"#utility.yul\":1161:1290   */\n    tag_200:\n        /* \"#utility.yul\":1195:1201   */\n      0x00\n        /* \"#utility.yul\":1222:1242   */\n      tag_283\n      tag_192\n      jump\t// in\n    tag_283:\n        /* \"#utility.yul\":1212:1242   */\n      swap1\n      pop\n        /* \"#utility.yul\":1251:1284   */\n      tag_284\n        /* \"#utility.yul\":1279:1283   */\n      dup3\n        /* \"#utility.yul\":1271:1277   */\n      dup3\n        /* \"#utility.yul\":1251:1284   */\n      tag_199\n      jump\t// in\n    tag_284:\n        /* \"#utility.yul\":1161:1290   */\n      swap2\n      swap1\n      pop\n      jump\t// out\n        /* \"#utility.yul\":1296:1604   */\n    tag_201:\n        /* \"#utility.yul\":1358:1362   */\n      0x00\n        /* \"#utility.yul\":1448:1466   */\n      0xffffffffffffffff\n        /* \"#utility.yul\":1440:1446   */\n      dup3\n        /* \"#utility.yul\":1437:1467   */\n      gt\n        /* \"#utility.yul\":1434:1490   */\n      iszero\n      tag_286\n      jumpi\n        /* \"#utility.yul\":1470:1488   */\n      tag_287\n      tag_198\n      jump\t// in\n    tag_287:\n        /* \"#utility.yul\":1434:1490   */\n    tag_286:\n        /* \"#utility.yul\":1508:1537   */\n      tag_288\n        /* \"#utility.yul\":1530:1536   */\n      dup3\n        /* \"#utility.yul\":1508:1537   */\n      tag_197\n      jump\t// in\n    tag_288:\n        /* \"#utility.yul\":1500:1537   */\n      swap1\n      pop\n        /* \"#utility.yul\":1592:1596   */\n      0x20\n        /* \"#utility.yul\":1586:1590   */\n      dup2\n        /* \"#utility.yul\":1582:1597   */\n      add\n        /* \"#utility.yul\":1574:1597   */\n      swap1\n      pop\n        /* \"#utility.yul\":1296:1604   */\n      swap2\n      swap1\n      pop\n      jump\t// out\n        /* \"#utility.yul\":1610:1758   */\n    tag_202:\n        /* \"#utility.yul\":1708:1714   */\n      dup3\n        /* \"#utility.yul\":1703:1706   */\n      dup2\n        /* \"#utility.yul\":1698:1701   */\n      dup4\n        /* \"#utility.yul\":1685:1715   */\n      calldatacopy\n        /* \"#utility.yul\":1749:1750   */\n      0x00\n        /* \"#utility.yul\":1740:1746   */\n      dup4\n        /* \"#utility.yul\":1735:1738   */\n      dup4\n        /* \"#utility.yul\":1731:1747   */\n      add\n        /* \"#utility.yul\":1724:1751   */\n      mstore\n        /* \"#utility.yul\":1610:1758   */\n      pop\n      pop\n      pop\n      jump\t// out\n        /* \"#utility.yul\":1764:2189   */\n    tag_203:\n        /* \"#utility.yul\":1842:1847   */\n      0x00\n        /* \"#utility.yul\":1867:1933   */\n      tag_291\n        /* \"#utility.yul\":1883:1932   */\n      tag_292\n        /* \"#utility.yul\":1925:1931   */\n      dup5\n        /* \"#utility.yul\":1883:1932   */\n      tag_201\n      jump\t// in\n    tag_292:\n        /* \"#utility.yul\":1867:1933   */\n      tag_200\n      jump\t// in\n    tag_291:\n        /* \"#utility.yul\":1858:1933   */\n      swap1\n      pop\n        /* \"#utility.yul\":1956:1962   */\n      dup3\n        /* \"#utility.yul\":1949:1954   */\n      dup2\n        /* \"#utility.yul\":1942:1963   */\n      mstore\n        /* \"#utility.yul\":1994:1998   */\n      0x20\n        /* \"#utility.yul\":1987:1992   */\n      dup2\n        /* \"#utility.yul\":1983:1999   */\n      add\n        /* \"#utility.yul\":2032:2035   */\n      dup5\n        /* \"#utility.yul\":2023:2029   */\n      dup5\n        /* \"#utility.yul\":2018:2021   */\n      dup5\n        /* \"#utility.yul\":2014:2030   */\n      add\n        /* \"#utility.yul\":2011:2036   */\n      gt\n        /* \"#utility.yul\":2008:2120   */\n      iszero\n      tag_293\n      jumpi\n        /* \"#utility.yul\":2039:2118   */\n      tag_294\n      tag_196\n      jump\t// in\n    tag_294:\n        /* \"#utility.yul\":2008:2120   */\n    tag_293:\n        /* \"#utility.yul\":2129:2183   */\n      tag_295\n        /* \"#utility.yul\":2176:2182   */\n      dup5\n        /* \"#utility.yul\":2171:2174   */\n      dup3\n        /* \"#utility.yul\":2166:2169   */\n      dup6\n        /* \"#utility.yul\":2129:2183   */\n      tag_202\n      jump\t// in\n    tag_295:\n        /* \"#utility.yul\":1848:2189   */\n      pop\n        /* \"#utility.yul\":1764:2189   */\n      swap4\n      swap3\n      pop\n      pop\n      pop\n      jump\t// out\n        /* \"#utility.yul\":2209:2549   */\n    tag_204:\n        /* \"#utility.yul\":2265:2270   */\n      0x00\n        /* \"#utility.yul\":2314:2317   */\n      dup3\n        /* \"#utility.yul\":2307:2311   */\n      0x1f\n        /* \"#utility.yul\":2299:2305   */\n      dup4\n        /* \"#utility.yul\":2295:2312   */\n      add\n        /* \"#utility.yul\":2291:2318   */\n      slt\n        /* \"#utility.yul\":2281:2403   */\n      tag_297\n      jumpi\n        /* \"#utility.yul\":2322:2401   */\n      tag_298\n      tag_195\n      jump\t// in\n    tag_298:\n        /* \"#utility.yul\":2281:2403   */\n    tag_297:\n        /* \"#utility.yul\":2439:2445   */\n      dup2\n        /* \"#utility.yul\":2426:2446   */\n      calldataload\n        /* \"#utility.yul\":2464:2543   */\n      tag_299\n        /* \"#utility.yul\":2539:2542   */\n      dup5\n        /* \"#utility.yul\":2531:2537   */\n      dup3\n        /* \"#utility.yul\":2524:2528   */\n      0x20\n        /* \"#utility.yul\":2516:2522   */\n      dup7\n        /* \"#utility.yul\":2512:2529   */\n      add\n        /* \"#utility.yul\":2464:2543   */\n      tag_203\n      jump\t// in\n    tag_299:\n        /* \"#utility.yul\":2455:2543   */\n      swap2\n      pop\n        /* \"#utility.yul\":2271:2549   */\n      pop\n        /* \"#utility.yul\":2209:2549   */\n      swap3\n      swap2\n      pop\n      pop\n      jump\t// out\n        /* \"#utility.yul\":2555:3064   */\n    tag_24:\n        /* \"#utility.yul\":2624:2630   */\n      0x00\n        /* \"#utility.yul\":2673:2675   */\n      0x20\n        /* \"#utility.yul\":2661:2670   */\n      dup3\n        /* \"#utility.yul\":2652:2659   */\n      dup5\n        /* \"#utility.yul\":2648:2671   */\n      sub\n        /* \"#utility.yul\":2644:2676   */\n      slt\n        /* \"#utility.yul\":2641:2760   */\n      iszero\n      tag_301\n      jumpi\n        /* \"#utility.yul\":2679:2758   */\n      tag_302\n      tag_193\n      jump\t// in\n    tag_302:\n        /* \"#utility.yul\":2641:2760   */\n    tag_301:\n        /* \"#utility.yul\":2827:2828   */\n      0x00\n        /* \"#utility.yul\":2816:2825   */\n      dup3\n        /* \"#utility.yul\":2812:2829   */\n      add\n        /* \"#utility.yul\":2799:2830   */\n      calldataload\n        /* \"#utility.yul\":2857:2875   */\n      0xffffffffffffffff\n        /* \"#utility.yul\":2849:2855   */\n      dup2\n        /* \"#utility.yul\":2846:2876   */\n      gt\n        /* \"#utility.yul\":2843:2960   */\n      iszero\n      tag_303\n      jumpi\n        /* \"#utility.yul\":2879:2958   */\n      tag_304\n      tag_194\n      jump\t// in\n    tag_304:\n        /* \"#utility.yul\":2843:2960   */\n    tag_303:\n        /* \"#utility.yul\":2984:3047   */\n      tag_305\n        /* \"#utility.yul\":3039:3046   */\n      dup5\n        /* \"#utility.yul\":3030:3036   */\n      dup3\n        /* \"#utility.yul\":3019:3028   */\n      dup6\n        /* \"#utility.yul\":3015:3037   */\n      add\n        /* \"#utility.yul\":2984:3047   */\n      tag_204\n      jump\t// in\n    tag_305:\n        /* \"#utility.yul\":2974:3047   */\n      swap2\n      pop\n        /* \"#utility.yul\":2770:3057   */\n      pop\n        /* \"#utility.yul\":2555:3064   */\n      swap3\n      swap2\n      pop\n      pop\n      jump\t// out\n        /* \"#utility.yul\":3070:3147   */\n    tag_205:\n        /* \"#utility.yul\":3107:3114   */\n      0x00\n        /* \"#utility.yul\":3136:3141   */\n      dup2\n        /* \"#utility.yul\":3125:3141   */\n      swap1\n      pop\n        /* \"#utility.yul\":3070:3147   */\n      swap2\n      swap1\n      pop\n      jump\t// out\n        /* \"#utility.yul\":3153:3271   */\n    tag_206:\n        /* \"#utility.yul\":3240:3264   */\n      tag_308\n        /* \"#utility.yul\":3258:3263   */\n      dup2\n        /* \"#utility.yul\":3240:3264   */\n      tag_205\n      jump\t// in\n    tag_308:\n        /* \"#utility.yul\":3235:3238   */\n      dup3\n        /* \"#utility.yul\":3228:3265   */\n      mstore\n        /* \"#utility.yul\":3153:3271   */\n      pop\n      pop\n      jump\t// out\n        /* \"#utility.yul\":3277:3499   */\n    tag_27:\n        /* \"#utility.yul\":3370:3374   */\n      0x00\n        /* \"#utility.yul\":3408:3410   */\n      0x20\n        /* \"#utility.yul\":3397:3406   */\n      dup3\n        /* \"#utility.yul\":3393:3411   */\n      add\n        /* \"#utility.yul\":3385:3411   */\n      swap1\n      pop\n        /* \"#utility.yul\":3421:3492   */\n      tag_310\n        /* \"#utility.yul\":3489:3490   */\n      0x00\n        /* \"#utility.yul\":3478:3487   */\n      dup4\n        /* \"#utility.yul\":3474:3491   */\n      add\n        /* \"#utility.yul\":3465:3471   */\n      dup5\n        /* \"#utility.yul\":3421:3492   */\n      tag_206\n      jump\t// in\n    tag_310:\n        /* \"#utility.yul\":3277:3499   */\n      swap3\n      swap2\n      pop\n      pop\n      jump\t// out\n        /* \"#utility.yul\":3505:3631   */\n    tag_207:\n        /* \"#utility.yul\":3542:3549   */\n      0x00\n        /* \"#utility.yul\":3582:3624   */\n      0xffffffffffffffffffffffffffffffffffffffff\n        /* \"#utility.yul\":3575:3580   */\n      dup3\n        /* \"#utility.yul\":3571:3625   */\n      and\n        /* \"#utility.yul\":3560:3625   */\n      swap1\n      pop\n        /* \"#utility.yul\":3505:3631   */\n      swap2\n      swap1\n      pop\n      jump\t// out\n        /* \"#utility.yul\":3637:3733   */\n    tag_208:\n        /* \"#utility.yul\":3674:3681   */\n      0x00\n        /* \"#utility.yul\":3703:3727   */\n      tag_313\n        /* \"#utility.yul\":3721:3726   */\n      dup3\n        /* \"#utility.yul\":3703:3727   */\n      tag_207\n      jump\t// in\n    tag_313:\n        /* \"#utility.yul\":3692:3727   */\n      swap1\n      pop\n        /* \"#utility.yul\":3637:3733   */\n      swap2\n      swap1\n      pop\n      jump\t// out\n        /* \"#utility.yul\":3739:3861   */\n    tag_209:\n        /* \"#utility.yul\":3812:3836   */\n      tag_315\n        /* \"#utility.yul\":3830:3835   */\n      dup2\n        /* \"#utility.yul\":3812:3836   */\n      tag_208\n      jump\t// in\n    tag_315:\n        /* \"#utility.yul\":3805:3810   */\n      dup2\n        /* \"#utility.yul\":3802:3837   */\n      eq\n        /* \"#utility.yul\":3792:3855   */\n      tag_316\n      jumpi\n        /* \"#utility.yul\":3851:3852   */\n      0x00\n        /* \"#utility.yul\":3848:3849   */\n      0x00\n        /* \"#utility.yul\":3841:3853   */\n      revert\n        /* \"#utility.yul\":3792:3855   */\n    tag_316:\n        /* \"#utility.yul\":3739:3861   */\n      pop\n      jump\t// out\n        /* \"#utility.yul\":3867:4006   */\n    tag_210:\n        /* \"#utility.yul\":3913:3918   */\n      0x00\n        /* \"#utility.yul\":3951:3957   */\n      dup2\n        /* \"#utility.yul\":3938:3958   */\n      calldataload\n        /* \"#utility.yul\":3929:3958   */\n      swap1\n      pop\n        /* \"#utility.yul\":3967:4000   */\n      tag_318\n        /* \"#utility.yul\":3994:3999   */\n      dup2\n        /* \"#utility.yul\":3967:4000   */\n      tag_209\n      jump\t// in\n    tag_318:\n        /* \"#utility.yul\":3867:4006   */\n      swap3\n      swap2\n      pop\n      pop\n      jump\t// out\n        /* \"#utility.yul\":4012:4341   */\n    tag_31:\n        /* \"#utility.yul\":4071:4077   */\n      0x00\n        /* \"#utility.yul\":4120:4122   */\n      0x20\n        /* \"#utility.yul\":4108:4117   */\n      dup3\n        /* \"#utility.yul\":4099:4106   */\n      dup5\n        /* \"#utility.yul\":4095:4118   */\n      sub\n        /* \"#utility.yul\":4091:4123   */\n      slt\n        /* \"#utility.yul\":4088:4207   */\n      iszero\n      tag_320\n      jumpi\n        /* \"#utility.yul\":4126:4205   */\n      tag_321\n      tag_193\n      jump\t// in\n    tag_321:\n        /* \"#utility.yul\":4088:4207   */\n    tag_320:\n        /* \"#utility.yul\":4246:4247   */\n      0x00\n        /* \"#utility.yul\":4271:4324   */\n      tag_322\n        /* \"#utility.yul\":4316:4323   */\n      dup5\n        /* \"#utility.yul\":4307:4313   */\n      dup3\n        /* \"#utility.yul\":4296:4305   */\n      dup6\n        /* \"#utility.yul\":4292:4314   */\n      add\n        /* \"#utility.yul\":4271:4324   */\n      tag_210\n      jump\t// in\n    tag_322:\n        /* \"#utility.yul\":4261:4324   */\n      swap2\n      pop\n        /* \"#utility.yul\":4217:4334   */\n      pop\n        /* \"#utility.yul\":4012:4341   */\n      swap3\n      swap2\n      pop\n      pop\n      jump\t// out\n        /* \"#utility.yul\":4347:4471   */\n    tag_211:\n        /* \"#utility.yul\":4424:4430   */\n      0x00\n        /* \"#utility.yul\":4458:4463   */\n      dup2\n        /* \"#utility.yul\":4452:4464   */\n      mload\n        /* \"#utility.yul\":4442:4464   */\n      swap1\n      pop\n        /* \"#utility.yul\":4347:4471   */\n      swap2\n      swap1\n      pop\n      jump\t// out\n        /* \"#utility.yul\":4477:4671   */\n    tag_212:\n        /* \"#utility.yul\":4586:4597   */\n      0x00\n        /* \"#utility.yul\":4620:4626   */\n      dup3\n        /* \"#utility.yul\":4615:4618   */\n      dup3\n        /* \"#utility.yul\":4608:4627   */\n      mstore\n        /* \"#utility.yul\":4660:4664   */\n      0x20\n        /* \"#utility.yul\":4655:4658   */\n      dup3\n        /* \"#utility.yul\":4651:4665   */\n      add\n        /* \"#utility.yul\":4636:4665   */\n      swap1\n      pop\n        /* \"#utility.yul\":4477:4671   */\n      swap3\n      swap2\n      pop\n      pop\n      jump\t// out\n        /* \"#utility.yul\":4677:4819   */\n    tag_213:\n        /* \"#utility.yul\":4754:4758   */\n      0x00\n        /* \"#utility.yul\":4777:4780   */\n      dup2\n        /* \"#utility.yul\":4769:4780   */\n      swap1\n      pop\n        /* \"#utility.yul\":4807:4811   */\n      0x20\n        /* \"#utility.yul\":4802:4805   */\n      dup3\n        /* \"#utility.yul\":4798:4812   */\n      add\n        /* \"#utility.yul\":4790:4812   */\n      swap1\n      pop\n        /* \"#utility.yul\":4677:4819   */\n      swap2\n      swap1\n      pop\n      jump\t// out\n        /* \"#utility.yul\":4825:4924   */\n    tag_214:\n        /* \"#utility.yul\":4877:4883   */\n      0x00\n        /* \"#utility.yul\":4911:4916   */\n      dup2\n        /* \"#utility.yul\":4905:4917   */\n      mload\n        /* \"#utility.yul\":4895:4917   */\n      swap1\n      pop\n        /* \"#utility.yul\":4825:4924   */\n      swap2\n      swap1\n      pop\n      jump\t// out\n        /* \"#utility.yul\":4930:5089   */\n    tag_215:\n        /* \"#utility.yul\":5004:5015   */\n      0x00\n        /* \"#utility.yul\":5038:5044   */\n      dup3\n        /* \"#utility.yul\":5033:5036   */\n      dup3\n        /* \"#utility.yul\":5026:5045   */\n      mstore\n        /* \"#utility.yul\":5078:5082   */\n      0x20\n        /* \"#utility.yul\":5073:5076   */\n      dup3\n        /* \"#utility.yul\":5069:5083   */\n      add\n        /* \"#utility.yul\":5054:5083   */\n      swap1\n      pop\n        /* \"#utility.yul\":4930:5089   */\n      swap3\n      swap2\n      pop\n      pop\n      jump\t// out\n        /* \"#utility.yul\":5095:5234   */\n    tag_216:\n        /* \"#utility.yul\":5184:5190   */\n      dup3\n        /* \"#utility.yul\":5179:5182   */\n      dup2\n        /* \"#utility.yul\":5174:5177   */\n      dup4\n        /* \"#utility.yul\":5168:5191   */\n      mcopy\n        /* \"#utility.yul\":5225:5226   */\n      0x00\n        /* \"#utility.yul\":5216:5222   */\n      dup4\n        /* \"#utility.yul\":5211:5214   */\n      dup4\n        /* \"#utility.yul\":5207:5223   */\n      add\n        /* \"#utility.yul\":5200:5227   */\n      mstore\n        /* \"#utility.yul\":5095:5234   */\n      pop\n      pop\n      pop\n      jump\t// out\n        /* \"#utility.yul\":5240:5597   */\n    tag_217:\n        /* \"#utility.yul\":5318:5321   */\n      0x00\n        /* \"#utility.yul\":5346:5385   */\n      tag_330\n        /* \"#utility.yul\":5379:5384   */\n      dup3\n        /* \"#utility.yul\":5346:5385   */\n      tag_214\n      jump\t// in\n    tag_330:\n        /* \"#utility.yul\":5401:5462   */\n      tag_331\n        /* \"#utility.yul\":5455:5461   */\n      dup2\n        /* \"#utility.yul\":5450:5453   */\n      dup6\n        /* \"#utility.yul\":5401:5462   */\n      tag_215\n      jump\t// in\n    tag_331:\n        /* \"#utility.yul\":5394:5462   */\n      swap4\n      pop\n        /* \"#utility.yul\":5471:5536   */\n      tag_332\n        /* \"#utility.yul\":5529:5535   */\n      dup2\n        /* \"#utility.yul\":5524:5527   */\n      dup6\n        /* \"#utility.yul\":5517:5521   */\n      0x20\n        /* \"#utility.yul\":5510:5515   */\n      dup7\n        /* \"#utility.yul\":5506:5522   */\n      add\n        /* \"#utility.yul\":5471:5536   */\n      tag_216\n      jump\t// in\n    tag_332:\n        /* \"#utility.yul\":5561:5590   */\n      tag_333\n        /* \"#utility.yul\":5583:5589   */\n      dup2\n        /* \"#utility.yul\":5561:5590   */\n      tag_197\n      jump\t// in\n    tag_333:\n        /* \"#utility.yul\":5556:5559   */\n      dup5\n        /* \"#utility.yul\":5552:5591   */\n      add\n        /* \"#utility.yul\":5545:5591   */\n      swap2\n      pop\n        /* \"#utility.yul\":5322:5597   */\n      pop\n        /* \"#utility.yul\":5240:5597   */\n      swap3\n      swap2\n      pop\n      pop\n      jump\t// out\n        /* \"#utility.yul\":5603:5799   */\n    tag_218:\n        /* \"#utility.yul\":5692:5702   */\n      0x00\n        /* \"#utility.yul\":5727:5793   */\n      tag_335\n        /* \"#utility.yul\":5789:5792   */\n      dup4\n        /* \"#utility.yul\":5781:5787   */\n      dup4\n        /* \"#utility.yul\":5727:5793   */\n      tag_217\n      jump\t// in\n    tag_335:\n        /* \"#utility.yul\":5713:5793   */\n      swap1\n      pop\n        /* \"#utility.yul\":5603:5799   */\n      swap3\n      swap2\n      pop\n      pop\n      jump\t// out\n        /* \"#utility.yul\":5805:5928   */\n    tag_219:\n        /* \"#utility.yul\":5885:5889   */\n      0x00\n        /* \"#utility.yul\":5917:5921   */\n      0x20\n        /* \"#utility.yul\":5912:5915   */\n      dup3\n        /* \"#utility.yul\":5908:5922   */\n      add\n        /* \"#utility.yul\":5900:5922   */\n      swap1\n      pop\n        /* \"#utility.yul\":5805:5928   */\n      swap2\n      swap1\n      pop\n      jump\t// out\n        /* \"#utility.yul\":5962:6953   */\n    tag_220:\n        /* \"#utility.yul\":6101:6104   */\n      0x00\n        /* \"#utility.yul\":6130:6194   */\n      tag_338\n        /* \"#utility.yul\":6188:6193   */\n      dup3\n        /* \"#utility.yul\":6130:6194   */\n      tag_211\n      jump\t// in\n    tag_338:\n        /* \"#utility.yul\":6210:6306   */\n      tag_339\n        /* \"#utility.yul\":6299:6305   */\n      dup2\n        /* \"#utility.yul\":6294:6297   */\n      dup6\n        /* \"#utility.yul\":6210:6306   */\n      tag_212\n      jump\t// in\n    tag_339:\n        /* \"#utility.yul\":6203:6306   */\n      swap4\n      pop\n        /* \"#utility.yul\":6332:6335   */\n      dup4\n        /* \"#utility.yul\":6377:6381   */\n      0x20\n        /* \"#utility.yul\":6369:6375   */\n      dup3\n        /* \"#utility.yul\":6365:6382   */\n      mul\n        /* \"#utility.yul\":6360:6363   */\n      dup6\n        /* \"#utility.yul\":6356:6383   */\n      add\n        /* \"#utility.yul\":6407:6473   */\n      tag_340\n        /* \"#utility.yul\":6467:6472   */\n      dup6\n        /* \"#utility.yul\":6407:6473   */\n      tag_213\n      jump\t// in\n    tag_340:\n        /* \"#utility.yul\":6496:6503   */\n      dup1\n        /* \"#utility.yul\":6527:6528   */\n      0x00\n        /* \"#utility.yul\":6512:6908   */\n    tag_341:\n        /* \"#utility.yul\":6537:6543   */\n      dup6\n        /* \"#utility.yul\":6534:6535   */\n      dup2\n        /* \"#utility.yul\":6531:6544   */\n      lt\n        /* \"#utility.yul\":6512:6908   */\n      iszero\n      tag_343\n      jumpi\n        /* \"#utility.yul\":6608:6617   */\n      dup5\n        /* \"#utility.yul\":6602:6606   */\n      dup5\n        /* \"#utility.yul\":6598:6618   */\n      sub\n        /* \"#utility.yul\":6593:6596   */\n      dup10\n        /* \"#utility.yul\":6586:6619   */\n      mstore\n        /* \"#utility.yul\":6659:6665   */\n      dup2\n        /* \"#utility.yul\":6653:6666   */\n      mload\n        /* \"#utility.yul\":6687:6771   */\n      tag_344\n        /* \"#utility.yul\":6766:6770   */\n      dup6\n        /* \"#utility.yul\":6751:6764   */\n      dup3\n        /* \"#utility.yul\":6687:6771   */\n      tag_218\n      jump\t// in\n    tag_344:\n        /* \"#utility.yul\":6679:6771   */\n      swap5\n      pop\n        /* \"#utility.yul\":6794:6864   */\n      tag_345\n        /* \"#utility.yul\":6857:6863   */\n      dup4\n        /* \"#utility.yul\":6794:6864   */\n      tag_219\n      jump\t// in\n    tag_345:\n        /* \"#utility.yul\":6784:6864   */\n      swap3\n      pop\n        /* \"#utility.yul\":6893:6897   */\n      0x20\n        /* \"#utility.yul\":6888:6891   */\n      dup11\n        /* \"#utility.yul\":6884:6898   */\n      add\n        /* \"#utility.yul\":6877:6898   */\n      swap10\n      pop\n        /* \"#utility.yul\":6572:6908   */\n      pop\n        /* \"#utility.yul\":6559:6560   */\n      0x01\n        /* \"#utility.yul\":6556:6557   */\n      dup2\n        /* \"#utility.yul\":6552:6561   */\n      add\n        /* \"#utility.yul\":6547:6561   */\n      swap1\n      pop\n        /* \"#utility.yul\":6512:6908   */\n      jump(tag_341)\n    tag_343:\n        /* \"#utility.yul\":6516:6530   */\n      pop\n        /* \"#utility.yul\":6924:6928   */\n      dup3\n        /* \"#utility.yul\":6917:6928   */\n      swap8\n      pop\n        /* \"#utility.yul\":6944:6947   */\n      dup8\n        /* \"#utility.yul\":6937:6947   */\n      swap6\n      pop\n        /* \"#utility.yul\":6106:6953   */\n      pop\n      pop\n      pop\n      pop\n      pop\n        /* \"#utility.yul\":5962:6953   */\n      swap3\n      swap2\n      pop\n      pop\n      jump\t// out\n        /* \"#utility.yul\":6959:7372   */\n    tag_48:\n        /* \"#utility.yul\":7122:7126   */\n      0x00\n        /* \"#utility.yul\":7160:7162   */\n      0x20\n        /* \"#utility.yul\":7149:7158   */\n      dup3\n        /* \"#utility.yul\":7145:7163   */\n      add\n        /* \"#utility.yul\":7137:7163   */\n      swap1\n      pop\n        /* \"#utility.yul\":7209:7218   */\n      dup2\n        /* \"#utility.yul\":7203:7207   */\n      dup2\n        /* \"#utility.yul\":7199:7219   */\n      sub\n        /* \"#utility.yul\":7195:7196   */\n      0x00\n        /* \"#utility.yul\":7184:7193   */\n      dup4\n        /* \"#utility.yul\":7180:7197   */\n      add\n        /* \"#utility.yul\":7173:7220   */\n      mstore\n        /* \"#utility.yul\":7237:7365   */\n      tag_347\n        /* \"#utility.yul\":7360:7364   */\n      dup2\n        /* \"#utility.yul\":7351:7357   */\n      dup5\n        /* \"#utility.yul\":7237:7365   */\n      tag_220\n      jump\t// in\n    tag_347:\n        /* \"#utility.yul\":7229:7365   */\n      swap1\n      pop\n        /* \"#utility.yul\":6959:7372   */\n      swap3\n      swap2\n      pop\n      pop\n      jump\t// out\n        /* \"#utility.yul\":7378:7500   */\n    tag_221:\n        /* \"#utility.yul\":7451:7475   */\n      tag_349\n        /* \"#utility.yul\":7469:7474   */\n      dup2\n        /* \"#utility.yul\":7451:7475   */\n      tag_205\n      jump\t// in\n    tag_349:\n        /* \"#utility.yul\":7444:7449   */\n      dup2\n        /* \"#utility.yul\":7441:7476   */\n      eq\n        /* \"#utility.yul\":7431:7494   */\n      tag_350\n      jumpi\n        /* \"#utility.yul\":7490:7491   */\n      0x00\n        /* \"#utility.yul\":7487:7488   */\n      0x00\n        /* \"#utility.yul\":7480:7492   */\n      revert\n        /* \"#utility.yul\":7431:7494   */\n    tag_350:\n        /* \"#utility.yul\":7378:7500   */\n      pop\n      jump\t// out\n        /* \"#utility.yul\":7506:7645   */\n    tag_222:\n        /* \"#utility.yul\":7552:7557   */\n      0x00\n        /* \"#utility.yul\":7590:7596   */\n      dup2\n        /* \"#utility.yul\":7577:7597   */\n      calldataload\n        /* \"#utility.yul\":7568:7597   */\n      swap1\n      pop\n        /* \"#utility.yul\":7606:7639   */\n      tag_352\n        /* \"#utility.yul\":7633:7638   */\n      dup2\n        /* \"#utility.yul\":7606:7639   */\n      tag_221\n      jump\t// in\n    tag_352:\n        /* \"#utility.yul\":7506:7645   */\n      swap3\n      swap2\n      pop\n      pop\n      jump\t// out\n        /* \"#utility.yul\":7651:8305   */\n    tag_60:\n        /* \"#utility.yul\":7729:7735   */\n      0x00\n        /* \"#utility.yul\":7737:7743   */\n      0x00\n        /* \"#utility.yul\":7786:7788   */\n      0x40\n        /* \"#utility.yul\":7774:7783   */\n      dup4\n        /* \"#utility.yul\":7765:7772   */\n      dup6\n        /* \"#utility.yul\":7761:7784   */\n      sub\n        /* \"#utility.yul\":7757:7789   */\n      slt\n        /* \"#utility.yul\":7754:7873   */\n      iszero\n      tag_354\n      jumpi\n        /* \"#utility.yul\":7792:7871   */\n      tag_355\n      tag_193\n      jump\t// in\n    tag_355:\n        /* \"#utility.yul\":7754:7873   */\n    tag_354:\n        /* \"#utility.yul\":7940:7941   */\n      0x00\n        /* \"#utility.yul\":7929:7938   */\n      dup4\n        /* \"#utility.yul\":7925:7942   */\n      add\n        /* \"#utility.yul\":7912:7943   */\n      calldataload\n        /* \"#utility.yul\":7970:7988   */\n      0xffffffffffffffff\n        /* \"#utility.yul\":7962:7968   */\n      dup2\n        /* \"#utility.yul\":7959:7989   */\n      gt\n        /* \"#utility.yul\":7956:8073   */\n      iszero\n      tag_356\n      jumpi\n        /* \"#utility.yul\":7992:8071   */\n      tag_357\n      tag_194\n      jump\t// in\n    tag_357:\n        /* \"#utility.yul\":7956:8073   */\n    tag_356:\n        /* \"#utility.yul\":8097:8160   */\n      tag_358\n        /* \"#utility.yul\":8152:8159   */\n      dup6\n        /* \"#utility.yul\":8143:8149   */\n      dup3\n        /* \"#utility.yul\":8132:8141   */\n      dup7\n        /* \"#utility.yul\":8128:8150   */\n      add\n        /* \"#utility.yul\":8097:8160   */\n      tag_204\n      jump\t// in\n    tag_358:\n        /* \"#utility.yul\":8087:8160   */\n      swap3\n      pop\n        /* \"#utility.yul\":7883:8170   */\n      pop\n        /* \"#utility.yul\":8209:8211   */\n      0x20\n        /* \"#utility.yul\":8235:8288   */\n      tag_359\n        /* \"#utility.yul\":8280:8287   */\n      dup6\n        /* \"#utility.yul\":8271:8277   */\n      dup3\n        /* \"#utility.yul\":8260:8269   */\n      dup7\n        /* \"#utility.yul\":8256:8278   */\n      add\n        /* \"#utility.yul\":8235:8288   */\n      tag_222\n      jump\t// in\n    tag_359:\n        /* \"#utility.yul\":8225:8288   */\n      swap2\n      pop\n        /* \"#utility.yul\":8180:8298   */\n      pop\n        /* \"#utility.yul\":7651:8305   */\n      swap3\n      pop\n      swap3\n      swap1\n      pop\n      jump\t// out\n        /* \"#utility.yul\":8311:8429   */\n    tag_223:\n        /* \"#utility.yul\":8398:8422   */\n      tag_361\n        /* \"#utility.yul\":8416:8421   */\n      dup2\n        /* \"#utility.yul\":8398:8422   */\n      tag_208\n      jump\t// in\n    tag_361:\n        /* \"#utility.yul\":8393:8396   */\n      dup3\n        /* \"#utility.yul\":8386:8423   */\n      mstore\n        /* \"#utility.yul\":8311:8429   */\n      pop\n      pop\n      jump\t// out\n        /* \"#utility.yul\":8435:8657   */\n    tag_75:\n        /* \"#utility.yul\":8528:8532   */\n      0x00\n        /* \"#utility.yul\":8566:8568   */\n      0x20\n        /* \"#utility.yul\":8555:8564   */\n      dup3\n        /* \"#utility.yul\":8551:8569   */\n      add\n        /* \"#utility.yul\":8543:8569   */\n      swap1\n      pop\n        /* \"#utility.yul\":8579:8650   */\n      tag_363\n        /* \"#utility.yul\":8647:8648   */\n      0x00\n        /* \"#utility.yul\":8636:8645   */\n      dup4\n        /* \"#utility.yul\":8632:8649   */\n      add\n        /* \"#utility.yul\":8623:8629   */\n      dup5\n        /* \"#utility.yul\":8579:8650   */\n      tag_223\n      jump\t// in\n    tag_363:\n        /* \"#utility.yul\":8435:8657   */\n      swap3\n      swap2\n      pop\n      pop\n      jump\t// out\n        /* \"#utility.yul\":8663:8992   */\n    tag_79:\n        /* \"#utility.yul\":8722:8728   */\n      0x00\n        /* \"#utility.yul\":8771:8773   */\n      0x20\n        /* \"#utility.yul\":8759:8768   */\n      dup3\n        /* \"#utility.yul\":8750:8757   */\n      dup5\n        /* \"#utility.yul\":8746:8769   */\n      sub\n        /* \"#utility.yul\":8742:8774   */\n      slt\n        /* \"#utility.yul\":8739:8858   */\n      iszero\n      tag_365\n      jumpi\n        /* \"#utility.yul\":8777:8856   */\n      tag_366\n      tag_193\n      jump\t// in\n    tag_366:\n        /* \"#utility.yul\":8739:8858   */\n    tag_365:\n        /* \"#utility.yul\":8897:8898   */\n      0x00\n        /* \"#utility.yul\":8922:8975   */\n      tag_367\n        /* \"#utility.yul\":8967:8974   */\n      dup5\n        /* \"#utility.yul\":8958:8964   */\n      dup3\n        /* \"#utility.yul\":8947:8956   */\n      dup6\n        /* \"#utility.yul\":8943:8965   */\n      add\n        /* \"#utility.yul\":8922:8975   */\n      tag_222\n      jump\t// in\n    tag_367:\n        /* \"#utility.yul\":8912:8975   */\n      swap2\n      pop\n        /* \"#utility.yul\":8868:8985   */\n      pop\n        /* \"#utility.yul\":8663:8992   */\n      swap3\n      swap2\n      pop\n      pop\n      jump\t// out\n        /* \"#utility.yul\":8998:9167   */\n    tag_224:\n        /* \"#utility.yul\":9082:9093   */\n      0x00\n        /* \"#utility.yul\":9116:9122   */\n      dup3\n        /* \"#utility.yul\":9111:9114   */\n      dup3\n        /* \"#utility.yul\":9104:9123   */\n      mstore\n        /* \"#utility.yul\":9156:9160   */\n      0x20\n        /* \"#utility.yul\":9151:9154   */\n      dup3\n        /* \"#utility.yul\":9147:9161   */\n      add\n        /* \"#utility.yul\":9132:9161   */\n      swap1\n      pop\n        /* \"#utility.yul\":8998:9167   */\n      swap3\n      swap2\n      pop\n      pop\n      jump\t// out\n        /* \"#utility.yul\":9173:9550   */\n    tag_225:\n        /* \"#utility.yul\":9261:9264   */\n      0x00\n        /* \"#utility.yul\":9289:9328   */\n      tag_370\n        /* \"#utility.yul\":9322:9327   */\n      dup3\n        /* \"#utility.yul\":9289:9328   */\n      tag_214\n      jump\t// in\n    tag_370:\n        /* \"#utility.yul\":9344:9415   */\n      tag_371\n        /* \"#utility.yul\":9408:9414   */\n      dup2\n        /* \"#utility.yul\":9403:9406   */\n      dup6\n        /* \"#utility.yul\":9344:9415   */\n      tag_224\n      jump\t// in\n    tag_371:\n        /* \"#utility.yul\":9337:9415   */\n      swap4\n      pop\n        /* \"#utility.yul\":9424:9489   */\n      tag_372\n        /* \"#utility.yul\":9482:9488   */\n      dup2\n        /* \"#utility.yul\":9477:9480   */\n      dup6\n        /* \"#utility.yul\":9470:9474   */\n      0x20\n        /* \"#utility.yul\":9463:9468   */\n      dup7\n        /* \"#utility.yul\":9459:9475   */\n      add\n        /* \"#utility.yul\":9424:9489   */\n      tag_216\n      jump\t// in\n    tag_372:\n        /* \"#utility.yul\":9514:9543   */\n      tag_373\n        /* \"#utility.yul\":9536:9542   */\n      dup2\n        /* \"#utility.yul\":9514:9543   */\n      tag_197\n      jump\t// in\n    tag_373:\n        /* \"#utility.yul\":9509:9512   */\n      dup5\n        /* \"#utility.yul\":9505:9544   */\n      add\n        /* \"#utility.yul\":9498:9544   */\n      swap2\n      pop\n        /* \"#utility.yul\":9265:9550   */\n      pop\n        /* \"#utility.yul\":9173:9550   */\n      swap3\n      swap2\n      pop\n      pop\n      jump\t// out\n        /* \"#utility.yul\":9556:9869   */\n    tag_82:\n        /* \"#utility.yul\":9669:9673   */\n      0x00\n        /* \"#utility.yul\":9707:9709   */\n      0x20\n        /* \"#utility.yul\":9696:9705   */\n      dup3\n        /* \"#utility.yul\":9692:9710   */\n      add\n        /* \"#utility.yul\":9684:9710   */\n      swap1\n      pop\n        /* \"#utility.yul\":9756:9765   */\n      dup2\n        /* \"#utility.yul\":9750:9754   */\n      dup2\n        /* \"#utility.yul\":9746:9766   */\n      sub\n        /* \"#utility.yul\":9742:9743   */\n      0x00\n        /* \"#utility.yul\":9731:9740   */\n      dup4\n        /* \"#utility.yul\":9727:9744   */\n      add\n        /* \"#utility.yul\":9720:9767   */\n      mstore\n        /* \"#utility.yul\":9784:9862   */\n      tag_375\n        /* \"#utility.yul\":9857:9861   */\n      dup2\n        /* \"#utility.yul\":9848:9854   */\n      dup5\n        /* \"#utility.yul\":9784:9862   */\n      tag_225\n      jump\t// in\n    tag_375:\n        /* \"#utility.yul\":9776:9862   */\n      swap1\n      pop\n        /* \"#utility.yul\":9556:9869   */\n      swap3\n      swap2\n      pop\n      pop\n      jump\t// out\n        /* \"#utility.yul\":9875:10023   */\n    tag_226:\n        /* \"#utility.yul\":9977:9988   */\n      0x00\n        /* \"#utility.yul\":10014:10017   */\n      dup2\n        /* \"#utility.yul\":9999:10017   */\n      swap1\n      pop\n        /* \"#utility.yul\":9875:10023   */\n      swap3\n      swap2\n      pop\n      pop\n      jump\t// out\n        /* \"#utility.yul\":10029:10419   */\n    tag_227:\n        /* \"#utility.yul\":10135:10138   */\n      0x00\n        /* \"#utility.yul\":10163:10202   */\n      tag_378\n        /* \"#utility.yul\":10196:10201   */\n      dup3\n        /* \"#utility.yul\":10163:10202   */\n      tag_214\n      jump\t// in\n    tag_378:\n        /* \"#utility.yul\":10218:10307   */\n      tag_379\n        /* \"#utility.yul\":10300:10306   */\n      dup2\n        /* \"#utility.yul\":10295:10298   */\n      dup6\n        /* \"#utility.yul\":10218:10307   */\n      tag_226\n      jump\t// in\n    tag_379:\n        /* \"#utility.yul\":10211:10307   */\n      swap4\n      pop\n        /* \"#utility.yul\":10316:10381   */\n      tag_380\n        /* \"#utility.yul\":10374:10380   */\n      dup2\n        /* \"#utility.yul\":10369:10372   */\n      dup6\n        /* \"#utility.yul\":10362:10366   */\n      0x20\n        /* \"#utility.yul\":10355:10360   */\n      dup7\n        /* \"#utility.yul\":10351:10367   */\n      add\n        /* \"#utility.yul\":10316:10381   */\n      tag_216\n      jump\t// in\n    tag_380:\n        /* \"#utility.yul\":10406:10412   */\n      dup1\n        /* \"#utility.yul\":10401:10404   */\n      dup5\n        /* \"#utility.yul\":10397:10413   */\n      add\n        /* \"#utility.yul\":10390:10413   */\n      swap2\n      pop\n        /* \"#utility.yul\":10139:10419   */\n      pop\n        /* \"#utility.yul\":10029:10419   */\n      swap3\n      swap2\n      pop\n      pop\n      jump\t// out\n        /* \"#utility.yul\":10425:10700   */\n    tag_98:\n        /* \"#utility.yul\":10557:10560   */\n      0x00\n        /* \"#utility.yul\":10579:10674   */\n      tag_382\n        /* \"#utility.yul\":10670:10673   */\n      dup3\n        /* \"#utility.yul\":10661:10667   */\n      dup5\n        /* \"#utility.yul\":10579:10674   */\n      tag_227\n      jump\t// in\n    tag_382:\n        /* \"#utility.yul\":10572:10674   */\n      swap2\n      pop\n        /* \"#utility.yul\":10691:10694   */\n      dup2\n        /* \"#utility.yul\":10684:10694   */\n      swap1\n      pop\n        /* \"#utility.yul\":10425:10700   */\n      swap3\n      swap2\n      pop\n      pop\n      jump\t// out\n        /* \"#utility.yul\":10706:10878   */\n    tag_228:\n        /* \"#utility.yul\":10846:10870   */\n      0x43757272656e6379206e6f7420737570706f7274656400000000000000000000\n        /* \"#utility.yul\":10842:10843   */\n      0x00\n        /* \"#utility.yul\":10834:10840   */\n      dup3\n        /* \"#utility.yul\":10830:10844   */\n      add\n        /* \"#utility.yul\":10823:10871   */\n      mstore\n        /* \"#utility.yul\":10706:10878   */\n      pop\n      jump\t// out\n        /* \"#utility.yul\":10884:11250   */\n    tag_229:\n        /* \"#utility.yul\":11026:11029   */\n      0x00\n        /* \"#utility.yul\":11047:11114   */\n      tag_385\n        /* \"#utility.yul\":11111:11113   */\n      0x16\n        /* \"#utility.yul\":11106:11109   */\n      dup4\n        /* \"#utility.yul\":11047:11114   */\n      tag_224\n      jump\t// in\n    tag_385:\n        /* \"#utility.yul\":11040:11114   */\n      swap2\n      pop\n        /* \"#utility.yul\":11123:11216   */\n      tag_386\n        /* \"#utility.yul\":11212:11215   */\n      dup3\n        /* \"#utility.yul\":11123:11216   */\n      tag_228\n      jump\t// in\n    tag_386:\n        /* \"#utility.yul\":11241:11243   */\n      0x20\n        /* \"#utility.yul\":11236:11239   */\n      dup3\n        /* \"#utility.yul\":11232:11244   */\n      add\n        /* \"#utility.yul\":11225:11244   */\n      swap1\n      pop\n        /* \"#utility.yul\":10884:11250   */\n      swap2\n      swap1\n      pop\n      jump\t// out\n        /* \"#utility.yul\":11256:11675   */\n    tag_101:\n        /* \"#utility.yul\":11422:11426   */\n      0x00\n        /* \"#utility.yul\":11460:11462   */\n      0x20\n        /* \"#utility.yul\":11449:11458   */\n      dup3\n        /* \"#utility.yul\":11445:11463   */\n      add\n        /* \"#utility.yul\":11437:11463   */\n      swap1\n      pop\n        /* \"#utility.yul\":11509:11518   */\n      dup2\n        /* \"#utility.yul\":11503:11507   */\n      dup2\n        /* \"#utility.yul\":11499:11519   */\n      sub\n        /* \"#utility.yul\":11495:11496   */\n      0x00\n        /* \"#utility.yul\":11484:11493   */\n      dup4\n        /* \"#utility.yul\":11480:11497   */\n      add\n        /* \"#utility.yul\":11473:11520   */\n      mstore\n        /* \"#utility.yul\":11537:11668   */\n      tag_388\n        /* \"#utility.yul\":11663:11667   */\n      dup2\n        /* \"#utility.yul\":11537:11668   */\n      tag_229\n      jump\t// in\n    tag_388:\n        /* \"#utility.yul\":11529:11668   */\n      swap1\n      pop\n        /* \"#utility.yul\":11256:11675   */\n      swap2\n      swap1\n      pop\n      jump\t// out\n        /* \"#utility.yul\":11681:11861   */\n    tag_230:\n        /* \"#utility.yul\":11729:11806   */\n      0x4e487b7100000000000000000000000000000000000000000000000000000000\n        /* \"#utility.yul\":11726:11727   */\n      0x00\n        /* \"#utility.yul\":11719:11807   */\n      mstore\n        /* \"#utility.yul\":11826:11830   */\n      0x22\n        /* \"#utility.yul\":11823:11824   */\n      0x04\n        /* \"#utility.yul\":11816:11831   */\n      mstore\n        /* \"#utility.yul\":11850:11854   */\n      0x24\n        /* \"#utility.yul\":11847:11848   */\n      0x00\n        /* \"#utility.yul\":11840:11855   */\n      revert\n        /* \"#utility.yul\":11867:12187   */\n    tag_109:\n        /* \"#utility.yul\":11911:11917   */\n      0x00\n        /* \"#utility.yul\":11948:11949   */\n      0x02\n        /* \"#utility.yul\":11942:11946   */\n      dup3\n        /* \"#utility.yul\":11938:11950   */\n      div\n        /* \"#utility.yul\":11928:11950   */\n      swap1\n      pop\n        /* \"#utility.yul\":11995:11996   */\n      0x01\n        /* \"#utility.yul\":11989:11993   */\n      dup3\n        /* \"#utility.yul\":11985:11997   */\n      and\n        /* \"#utility.yul\":12016:12034   */\n      dup1\n        /* \"#utility.yul\":12006:12087   */\n      tag_391\n      jumpi\n        /* \"#utility.yul\":12072:12076   */\n      0x7f\n        /* \"#utility.yul\":12064:12070   */\n      dup3\n        /* \"#utility.yul\":12060:12077   */\n      and\n        /* \"#utility.yul\":12050:12077   */\n      swap2\n      pop\n        /* \"#utility.yul\":12006:12087   */\n    tag_391:\n        /* \"#utility.yul\":12134:12136   */\n      0x20\n        /* \"#utility.yul\":12126:12132   */\n      dup3\n        /* \"#utility.yul\":12123:12137   */\n      lt\n        /* \"#utility.yul\":12103:12121   */\n      dup2\n        /* \"#utility.yul\":12100:12138   */\n      sub\n        /* \"#utility.yul\":12097:12181   */\n      tag_392\n      jumpi\n        /* \"#utility.yul\":12153:12171   */\n      tag_393\n      tag_230\n      jump\t// in\n    tag_393:\n        /* \"#utility.yul\":12097:12181   */\n    tag_392:\n        /* \"#utility.yul\":11918:12187   */\n      pop\n        /* \"#utility.yul\":11867:12187   */\n      swap2\n      swap1\n      pop\n      jump\t// out\n        /* \"#utility.yul\":12193:12415   */\n    tag_231:\n        /* \"#utility.yul\":12333:12367   */\n      0x4f6e6c79206f776e65722063616e20706572666f726d20746869732061637469\n        /* \"#utility.yul\":12329:12330   */\n      0x00\n        /* \"#utility.yul\":12321:12327   */\n      dup3\n        /* \"#utility.yul\":12317:12331   */\n      add\n        /* \"#utility.yul\":12310:12368   */\n      mstore\n        /* \"#utility.yul\":12402:12407   */\n      0x6f6e2e0000000000000000000000000000000000000000000000000000000000\n        /* \"#utility.yul\":12397:12399   */\n      0x20\n        /* \"#utility.yul\":12389:12395   */\n      dup3\n        /* \"#utility.yul\":12385:12400   */\n      add\n        /* \"#utility.yul\":12378:12408   */\n      mstore\n        /* \"#utility.yul\":12193:12415   */\n      pop\n      jump\t// out\n        /* \"#utility.yul\":12421:12787   */\n    tag_232:\n        /* \"#utility.yul\":12563:12566   */\n      0x00\n        /* \"#utility.yul\":12584:12651   */\n      tag_396\n        /* \"#utility.yul\":12648:12650   */\n      0x23\n        /* \"#utility.yul\":12643:12646   */\n      dup4\n        /* \"#utility.yul\":12584:12651   */\n      tag_224\n      jump\t// in\n    tag_396:\n        /* \"#utility.yul\":12577:12651   */\n      swap2\n      pop\n        /* \"#utility.yul\":12660:12753   */\n      tag_397\n        /* \"#utility.yul\":12749:12752   */\n      dup3\n        /* \"#utility.yul\":12660:12753   */\n      tag_231\n      jump\t// in\n    tag_397:\n        /* \"#utility.yul\":12778:12780   */\n      0x40\n        /* \"#utility.yul\":12773:12776   */\n      dup3\n        /* \"#utility.yul\":12769:12781   */\n      add\n        /* \"#utility.yul\":12762:12781   */\n      swap1\n      pop\n        /* \"#utility.yul\":12421:12787   */\n      swap2\n      swap1\n      pop\n      jump\t// out\n        /* \"#utility.yul\":12793:13212   */\n    tag_117:\n        /* \"#utility.yul\":12959:12963   */\n      0x00\n        /* \"#utility.yul\":12997:12999   */\n      0x20\n        /* \"#utility.yul\":12986:12995   */\n      dup3\n        /* \"#utility.yul\":12982:13000   */\n      add\n        /* \"#utility.yul\":12974:13000   */\n      swap1\n      pop\n        /* \"#utility.yul\":13046:13055   */\n      dup2\n        /* \"#utility.yul\":13040:13044   */\n      dup2\n        /* \"#utility.yul\":13036:13056   */\n      sub\n        /* \"#utility.yul\":13032:13033   */\n      0x00\n        /* \"#utility.yul\":13021:13030   */\n      dup4\n        /* \"#utility.yul\":13017:13034   */\n      add\n        /* \"#utility.yul\":13010:13057   */\n      mstore\n        /* \"#utility.yul\":13074:13205   */\n      tag_399\n        /* \"#utility.yul\":13200:13204   */\n      dup2\n        /* \"#utility.yul\":13074:13205   */\n      tag_232\n      jump\t// in\n    tag_399:\n        /* \"#utility.yul\":13066:13205   */\n      swap1\n      pop\n        /* \"#utility.yul\":12793:13212   */\n      swap2\n      swap1\n      pop\n      jump\t// out\n        /* \"#utility.yul\":13218:13387   */\n    tag_233:\n        /* \"#utility.yul\":13358:13379   */\n      0x4e6f207469707320746f20776974686472617700000000000000000000000000\n        /* \"#utility.yul\":13354:13355   */\n      0x00\n        /* \"#utility.yul\":13346:13352   */\n      dup3\n        /* \"#utility.yul\":13342:13356   */\n      add\n        /* \"#utility.yul\":13335:13380   */\n      mstore\n        /* \"#utility.yul\":13218:13387   */\n      pop\n      jump\t// out\n        /* \"#utility.yul\":13393:13759   */\n    tag_234:\n        /* \"#utility.yul\":13535:13538   */\n      0x00\n        /* \"#utility.yul\":13556:13623   */\n      tag_402\n        /* \"#utility.yul\":13620:13622   */\n      0x13\n        /* \"#utility.yul\":13615:13618   */\n      dup4\n        /* \"#utility.yul\":13556:13623   */\n      tag_224\n      jump\t// in\n    tag_402:\n        /* \"#utility.yul\":13549:13623   */\n      swap2\n      pop\n        /* \"#utility.yul\":13632:13725   */\n      tag_403\n        /* \"#utility.yul\":13721:13724   */\n      dup3\n        /* \"#utility.yul\":13632:13725   */\n      tag_233\n      jump\t// in\n    tag_403:\n        /* \"#utility.yul\":13750:13752   */\n      0x20\n        /* \"#utility.yul\":13745:13748   */\n      dup3\n        /* \"#utility.yul\":13741:13753   */\n      add\n        /* \"#utility.yul\":13734:13753   */\n      swap1\n      pop\n        /* \"#utility.yul\":13393:13759   */\n      swap2\n      swap1\n      pop\n      jump\t// out\n        /* \"#utility.yul\":13765:14184   */\n    tag_121:\n        /* \"#utility.yul\":13931:13935   */\n      0x00\n        /* \"#utility.yul\":13969:13971   */\n      0x20\n        /* \"#utility.yul\":13958:13967   */\n      dup3\n        /* \"#utility.yul\":13954:13972   */\n      add\n        /* \"#utility.yul\":13946:13972   */\n      swap1\n      pop\n        /* \"#utility.yul\":14018:14027   */\n      dup2\n        /* \"#utility.yul\":14012:14016   */\n      dup2\n        /* \"#utility.yul\":14008:14028   */\n      sub\n        /* \"#utility.yul\":14004:14005   */\n      0x00\n        /* \"#utility.yul\":13993:14002   */\n      dup4\n        /* \"#utility.yul\":13989:14006   */\n      add\n        /* \"#utility.yul\":13982:14029   */\n      mstore\n        /* \"#utility.yul\":14046:14177   */\n      tag_405\n        /* \"#utility.yul\":14172:14176   */\n      dup2\n        /* \"#utility.yul\":14046:14177   */\n      tag_234\n      jump\t// in\n    tag_405:\n        /* \"#utility.yul\":14038:14177   */\n      swap1\n      pop\n        /* \"#utility.yul\":13765:14184   */\n      swap2\n      swap1\n      pop\n      jump\t// out\n        /* \"#utility.yul\":14190:14337   */\n    tag_235:\n        /* \"#utility.yul\":14291:14302   */\n      0x00\n        /* \"#utility.yul\":14328:14331   */\n      dup2\n        /* \"#utility.yul\":14313:14331   */\n      swap1\n      pop\n        /* \"#utility.yul\":14190:14337   */\n      swap3\n      swap2\n      pop\n      pop\n      jump\t// out\n        /* \"#utility.yul\":14343:14457   */\n    tag_236:\n      pop\n      jump\t// out\n        /* \"#utility.yul\":14463:14861   */\n    tag_237:\n        /* \"#utility.yul\":14622:14625   */\n      0x00\n        /* \"#utility.yul\":14643:14726   */\n      tag_409\n        /* \"#utility.yul\":14724:14725   */\n      0x00\n        /* \"#utility.yul\":14719:14722   */\n      dup4\n        /* \"#utility.yul\":14643:14726   */\n      tag_235\n      jump\t// in\n    tag_409:\n        /* \"#utility.yul\":14636:14726   */\n      swap2\n      pop\n        /* \"#utility.yul\":14735:14828   */\n      tag_410\n        /* \"#utility.yul\":14824:14827   */\n      dup3\n        /* \"#utility.yul\":14735:14828   */\n      tag_236\n      jump\t// in\n    tag_410:\n        /* \"#utility.yul\":14853:14854   */\n      0x00\n        /* \"#utility.yul\":14848:14851   */\n      dup3\n        /* \"#utility.yul\":14844:14855   */\n      add\n        /* \"#utility.yul\":14837:14855   */\n      swap1\n      pop\n        /* \"#utility.yul\":14463:14861   */\n      swap2\n      swap1\n      pop\n      jump\t// out\n        /* \"#utility.yul\":14867:15246   */\n    tag_123:\n        /* \"#utility.yul\":15051:15054   */\n      0x00\n        /* \"#utility.yul\":15073:15220   */\n      tag_412\n        /* \"#utility.yul\":15216:15219   */\n      dup3\n        /* \"#utility.yul\":15073:15220   */\n      tag_237\n      jump\t// in\n    tag_412:\n        /* \"#utility.yul\":15066:15220   */\n      swap2\n      pop\n        /* \"#utility.yul\":15237:15240   */\n      dup2\n        /* \"#utility.yul\":15230:15240   */\n      swap1\n      pop\n        /* \"#utility.yul\":14867:15246   */\n      swap2\n      swap1\n      pop\n      jump\t// out\n        /* \"#utility.yul\":15252:15417   */\n    tag_238:\n        /* \"#utility.yul\":15392:15409   */\n      0x5472616e73666572206661696c65640000000000000000000000000000000000\n        /* \"#utility.yul\":15388:15389   */\n      0x00\n        /* \"#utility.yul\":15380:15386   */\n      dup3\n        /* \"#utility.yul\":15376:15390   */\n      add\n        /* \"#utility.yul\":15369:15410   */\n      mstore\n        /* \"#utility.yul\":15252:15417   */\n      pop\n      jump\t// out\n        /* \"#utility.yul\":15423:15789   */\n    tag_239:\n        /* \"#utility.yul\":15565:15568   */\n      0x00\n        /* \"#utility.yul\":15586:15653   */\n      tag_415\n        /* \"#utility.yul\":15650:15652   */\n      0x0f\n        /* \"#utility.yul\":15645:15648   */\n      dup4\n        /* \"#utility.yul\":15586:15653   */\n      tag_224\n      jump\t// in\n    tag_415:\n        /* \"#utility.yul\":15579:15653   */\n      swap2\n      pop\n        /* \"#utility.yul\":15662:15755   */\n      tag_416\n        /* \"#utility.yul\":15751:15754   */\n      dup3\n        /* \"#utility.yul\":15662:15755   */\n      tag_238\n      jump\t// in\n    tag_416:\n        /* \"#utility.yul\":15780:15782   */\n      0x20\n        /* \"#utility.yul\":15775:15778   */\n      dup3\n        /* \"#utility.yul\":15771:15783   */\n      add\n        /* \"#utility.yul\":15764:15783   */\n      swap1\n      pop\n        /* \"#utility.yul\":15423:15789   */\n      swap2\n      swap1\n      pop\n      jump\t// out\n        /* \"#utility.yul\":15795:16214   */\n    tag_129:\n        /* \"#utility.yul\":15961:15965   */\n      0x00\n        /* \"#utility.yul\":15999:16001   */\n      0x20\n        /* \"#utility.yul\":15988:15997   */\n      dup3\n        /* \"#utility.yul\":15984:16002   */\n      add\n        /* \"#utility.yul\":15976:16002   */\n      swap1\n      pop\n        /* \"#utility.yul\":16048:16057   */\n      dup2\n        /* \"#utility.yul\":16042:16046   */\n      dup2\n        /* \"#utility.yul\":16038:16058   */\n      sub\n        /* \"#utility.yul\":16034:16035   */\n      0x00\n        /* \"#utility.yul\":16023:16032   */\n      dup4\n        /* \"#utility.yul\":16019:16036   */\n      add\n        /* \"#utility.yul\":16012:16059   */\n      mstore\n        /* \"#utility.yul\":16076:16207   */\n      tag_418\n        /* \"#utility.yul\":16202:16206   */\n      dup2\n        /* \"#utility.yul\":16076:16207   */\n      tag_239\n      jump\t// in\n    tag_418:\n        /* \"#utility.yul\":16068:16207   */\n      swap1\n      pop\n        /* \"#utility.yul\":15795:16214   */\n      swap2\n      swap1\n      pop\n      jump\t// out\n        /* \"#utility.yul\":16220:16398   */\n    tag_240:\n        /* \"#utility.yul\":16360:16390   */\n      0x52617465206d7573742062652067726561746572207468616e20302e00000000\n        /* \"#utility.yul\":16356:16357   */\n      0x00\n        /* \"#utility.yul\":16348:16354   */\n      dup3\n        /* \"#utility.yul\":16344:16358   */\n      add\n        /* \"#utility.yul\":16337:16391   */\n      mstore\n        /* \"#utility.yul\":16220:16398   */\n      pop\n      jump\t// out\n        /* \"#utility.yul\":16404:16770   */\n    tag_241:\n        /* \"#utility.yul\":16546:16549   */\n      0x00\n        /* \"#utility.yul\":16567:16634   */\n      tag_421\n        /* \"#utility.yul\":16631:16633   */\n      0x1c\n        /* \"#utility.yul\":16626:16629   */\n      dup4\n        /* \"#utility.yul\":16567:16634   */\n      tag_224\n      jump\t// in\n    tag_421:\n        /* \"#utility.yul\":16560:16634   */\n      swap2\n      pop\n        /* \"#utility.yul\":16643:16736   */\n      tag_422\n        /* \"#utility.yul\":16732:16735   */\n      dup3\n        /* \"#utility.yul\":16643:16736   */\n      tag_240\n      jump\t// in\n    tag_422:\n        /* \"#utility.yul\":16761:16763   */\n      0x20\n        /* \"#utility.yul\":16756:16759   */\n      dup3\n        /* \"#utility.yul\":16752:16764   */\n      add\n        /* \"#utility.yul\":16745:16764   */\n      swap1\n      pop\n        /* \"#utility.yul\":16404:16770   */\n      swap2\n      swap1\n      pop\n      jump\t// out\n        /* \"#utility.yul\":16776:17195   */\n    tag_136:\n        /* \"#utility.yul\":16942:16946   */\n      0x00\n        /* \"#utility.yul\":16980:16982   */\n      0x20\n        /* \"#utility.yul\":16969:16978   */\n      dup3\n        /* \"#utility.yul\":16965:16983   */\n      add\n        /* \"#utility.yul\":16957:16983   */\n      swap1\n      pop\n        /* \"#utility.yul\":17029:17038   */\n      dup2\n        /* \"#utility.yul\":17023:17027   */\n      dup2\n        /* \"#utility.yul\":17019:17039   */\n      sub\n        /* \"#utility.yul\":17015:17016   */\n      0x00\n        /* \"#utility.yul\":17004:17013   */\n      dup4\n        /* \"#utility.yul\":17000:17017   */\n      add\n        /* \"#utility.yul\":16993:17040   */\n      mstore\n        /* \"#utility.yul\":17057:17188   */\n      tag_424\n        /* \"#utility.yul\":17183:17187   */\n      dup2\n        /* \"#utility.yul\":17057:17188   */\n      tag_241\n      jump\t// in\n    tag_424:\n        /* \"#utility.yul\":17049:17188   */\n      swap1\n      pop\n        /* \"#utility.yul\":16776:17195   */\n      swap2\n      swap1\n      pop\n      jump\t// out\n        /* \"#utility.yul\":17201:17342   */\n    tag_242:\n        /* \"#utility.yul\":17250:17254   */\n      0x00\n        /* \"#utility.yul\":17273:17276   */\n      dup2\n        /* \"#utility.yul\":17265:17276   */\n      swap1\n      pop\n        /* \"#utility.yul\":17296:17299   */\n      dup2\n        /* \"#utility.yul\":17293:17294   */\n      0x00\n        /* \"#utility.yul\":17286:17300   */\n      mstore\n        /* \"#utility.yul\":17330:17334   */\n      0x20\n        /* \"#utility.yul\":17327:17328   */\n      0x00\n        /* \"#utility.yul\":17317:17335   */\n      keccak256\n        /* \"#utility.yul\":17309:17335   */\n      swap1\n      pop\n        /* \"#utility.yul\":17201:17342   */\n      swap2\n      swap1\n      pop\n      jump\t// out\n        /* \"#utility.yul\":17348:17441   */\n    tag_243:\n        /* \"#utility.yul\":17385:17391   */\n      0x00\n        /* \"#utility.yul\":17432:17434   */\n      0x20\n        /* \"#utility.yul\":17427:17429   */\n      0x1f\n        /* \"#utility.yul\":17420:17425   */\n      dup4\n        /* \"#utility.yul\":17416:17430   */\n      add\n        /* \"#utility.yul\":17412:17435   */\n      div\n        /* \"#utility.yul\":17402:17435   */\n      swap1\n      pop\n        /* \"#utility.yul\":17348:17441   */\n      swap2\n      swap1\n      pop\n      jump\t// out\n        /* \"#utility.yul\":17447:17554   */\n    tag_244:\n        /* \"#utility.yul\":17491:17499   */\n      0x00\n        /* \"#utility.yul\":17541:17546   */\n      dup3\n        /* \"#utility.yul\":17535:17539   */\n      dup3\n        /* \"#utility.yul\":17531:17547   */\n      shl\n        /* \"#utility.yul\":17510:17547   */\n      swap1\n      pop\n        /* \"#utility.yul\":17447:17554   */\n      swap3\n      swap2\n      pop\n      pop\n      jump\t// out\n        /* \"#utility.yul\":17560:17953   */\n    tag_245:\n        /* \"#utility.yul\":17629:17635   */\n      0x00\n        /* \"#utility.yul\":17679:17680   */\n      0x08\n        /* \"#utility.yul\":17667:17677   */\n      dup4\n        /* \"#utility.yul\":17663:17681   */\n      mul\n        /* \"#utility.yul\":17702:17799   */\n      tag_429\n        /* \"#utility.yul\":17732:17798   */\n      0xffffffffffffffffffffffffffffffffffffffffffffffffffffffffffffffff\n        /* \"#utility.yul\":17721:17730   */\n      dup3\n        /* \"#utility.yul\":17702:17799   */\n      tag_244\n      jump\t// in\n    tag_429:\n        /* \"#utility.yul\":17820:17859   */\n      tag_430\n        /* \"#utility.yul\":17850:17858   */\n      dup7\n        /* \"#utility.yul\":17839:17848   */\n      dup4\n        /* \"#utility.yul\":17820:17859   */\n      tag_244\n      jump\t// in\n    tag_430:\n        /* \"#utility.yul\":17808:17859   */\n      swap6\n      pop\n        /* \"#utility.yul\":17892:17896   */\n      dup1\n        /* \"#utility.yul\":17888:17897   */\n      not\n        /* \"#utility.yul\":17881:17886   */\n      dup5\n        /* \"#utility.yul\":17877:17898   */\n      and\n        /* \"#utility.yul\":17868:17898   */\n      swap4\n      pop\n        /* \"#utility.yul\":17941:17945   */\n      dup1\n        /* \"#utility.yul\":17931:17939   */\n      dup7\n        /* \"#utility.yul\":17927:17946   */\n      and\n        /* \"#utility.yul\":17920:17925   */\n      dup5\n        /* \"#utility.yul\":17917:17947   */\n      or\n        /* \"#utility.yul\":17907:17947   */\n      swap3\n      pop\n        /* \"#utility.yul\":17636:17953   */\n      pop\n      pop\n        /* \"#utility.yul\":17560:17953   */\n      swap4\n      swap3\n      pop\n      pop\n      pop\n      jump\t// out\n        /* \"#utility.yul\":17959:18019   */\n    tag_246:\n        /* \"#utility.yul\":17987:17990   */\n      0x00\n        /* \"#utility.yul\":18008:18013   */\n      dup2\n        /* \"#utility.yul\":18001:18013   */\n      swap1\n      pop\n        /* \"#utility.yul\":17959:18019   */\n      swap2\n      swap1\n      pop\n      jump\t// out\n        /* \"#utility.yul\":18025:18167   */\n    tag_247:\n        /* \"#utility.yul\":18075:18084   */\n      0x00\n        /* \"#utility.yul\":18108:18161   */\n      tag_433\n        /* \"#utility.yul\":18126:18160   */\n      tag_434\n        /* \"#utility.yul\":18135:18159   */\n      tag_435\n        /* \"#utility.yul\":18153:18158   */\n      dup5\n        /* \"#utility.yul\":18135:18159   */\n      tag_205\n      jump\t// in\n    tag_435:\n        /* \"#utility.yul\":18126:18160   */\n      tag_246\n      jump\t// in\n    tag_434:\n        /* \"#utility.yul\":18108:18161   */\n      tag_205\n      jump\t// in\n    tag_433:\n        /* \"#utility.yul\":18095:18161   */\n      swap1\n      pop\n        /* \"#utility.yul\":18025:18167   */\n      swap2\n      swap1\n      pop\n      jump\t// out\n        /* \"#utility.yul\":18173:18248   */\n    tag_248:\n        /* \"#utility.yul\":18216:18219   */\n      0x00\n        /* \"#utility.yul\":18237:18242   */\n      dup2\n        /* \"#utility.yul\":18230:18242   */\n      swap1\n      pop\n        /* \"#utility.yul\":18173:18248   */\n      swap2\n      swap1\n      pop\n      jump\t// out\n        /* \"#utility.yul\":18254:18523   */\n    tag_249:\n        /* \"#utility.yul\":18364:18403   */\n      tag_438\n        /* \"#utility.yul\":18395:18402   */\n      dup4\n        /* \"#utility.yul\":18364:18403   */\n      tag_247\n      jump\t// in\n    tag_438:\n        /* \"#utility.yul\":18425:18516   */\n      tag_439\n        /* \"#utility.yul\":18474:18515   */\n      tag_440\n        /* \"#utility.yul\":18498:18514   */\n      dup3\n        /* \"#utility.yul\":18474:18515   */\n      tag_248\n      jump\t// in\n    tag_440:\n        /* \"#utility.yul\":18466:18472   */\n      dup5\n        /* \"#utility.yul\":18459:18463   */\n      dup5\n        /* \"#utility.yul\":18453:18464   */\n      sload\n        /* \"#utility.yul\":18425:18516   */\n      tag_245\n      jump\t// in\n    tag_439:\n        /* \"#utility.yul\":18419:18423   */\n      dup3\n        /* \"#utility.yul\":18412:18517   */\n      sstore\n        /* \"#utility.yul\":18330:18523   */\n      pop\n        /* \"#utility.yul\":18254:18523   */\n      pop\n      pop\n      pop\n      jump\t// out\n        /* \"#utility.yul\":18529:18602   */\n    tag_250:\n        /* \"#utility.yul\":18574:18577   */\n      0x00\n        /* \"#utility.yul\":18595:18596   */\n      0x00\n        /* \"#utility.yul\":18588:18596   */\n      swap1\n      pop\n        /* \"#utility.yul\":18529:18602   */\n      swap1\n      jump\t// out\n        /* \"#utility.yul\":18608:18797   */\n    tag_251:\n        /* \"#utility.yul\":18685:18717   */\n      tag_443\n      tag_250\n      jump\t// in\n    tag_443:\n        /* \"#utility.yul\":18726:18791   */\n      tag_444\n        /* \"#utility.yul\":18784:18790   */\n      dup2\n        /* \"#utility.yul\":18776:18782   */\n      dup5\n        /* \"#utility.yul\":18770:18774   */\n      dup5\n        /* \"#utility.yul\":18726:18791   */\n      tag_249\n      jump\t// in\n    tag_444:\n        /* \"#utility.yul\":18661:18797   */\n      pop\n        /* \"#utility.yul\":18608:18797   */\n      pop\n      pop\n      jump\t// out\n        /* \"#utility.yul\":18803:18989   */\n    tag_252:\n        /* \"#utility.yul\":18863:18983   */\n    tag_446:\n        /* \"#utility.yul\":18880:18883   */\n      dup2\n        /* \"#utility.yul\":18873:18878   */\n      dup2\n        /* \"#utility.yul\":18870:18884   */\n      lt\n        /* \"#utility.yul\":18863:18983   */\n      iszero\n      tag_448\n      jumpi\n        /* \"#utility.yul\":18934:18973   */\n      tag_449\n        /* \"#utility.yul\":18971:18972   */\n      0x00\n        /* \"#utility.yul\":18964:18969   */\n      dup3\n        /* \"#utility.yul\":18934:18973   */\n      tag_251\n      jump\t// in\n    tag_449:\n        /* \"#utility.yul\":18907:18908   */\n      0x01\n        /* \"#utility.yul\":18900:18905   */\n      dup2\n        /* \"#utility.yul\":18896:18909   */\n      add\n        /* \"#utility.yul\":18887:18909   */\n      swap1\n      pop\n        /* \"#utility.yul\":18863:18983   */\n      jump(tag_446)\n    tag_448:\n        /* \"#utility.yul\":18803:18989   */\n      pop\n      pop\n      jump\t// out\n        /* \"#utility.yul\":18995:19538   */\n    tag_253:\n        /* \"#utility.yul\":19096:19098   */\n      0x1f\n        /* \"#utility.yul\":19091:19094   */\n      dup3\n        /* \"#utility.yul\":19088:19099   */\n      gt\n        /* \"#utility.yul\":19085:19531   */\n      iszero\n      tag_451\n      jumpi\n        /* \"#utility.yul\":19130:19168   */\n      tag_452\n        /* \"#utility.yul\":19162:19167   */\n      dup2\n        /* \"#utility.yul\":19130:19168   */\n      tag_242\n      jump\t// in\n    tag_452:\n        /* \"#utility.yul\":19214:19243   */\n      tag_453\n        /* \"#utility.yul\":19232:19242   */\n      dup5\n        /* \"#utility.yul\":19214:19243   */\n      tag_243\n      jump\t// in\n    tag_453:\n        /* \"#utility.yul\":19204:19212   */\n      dup2\n        /* \"#utility.yul\":19200:19244   */\n      add\n        /* \"#utility.yul\":19397:19399   */\n      0x20\n        /* \"#utility.yul\":19385:19395   */\n      dup6\n        /* \"#utility.yul\":19382:19400   */\n      lt\n        /* \"#utility.yul\":19379:19428   */\n      iszero\n      tag_454\n      jumpi\n        /* \"#utility.yul\":19418:19426   */\n      dup2\n        /* \"#utility.yul\":19403:19426   */\n      swap1\n      pop\n        /* \"#utility.yul\":19379:19428   */\n    tag_454:\n        /* \"#utility.yul\":19441:19521   */\n      tag_455\n        /* \"#utility.yul\":19497:19519   */\n      tag_456\n        /* \"#utility.yul\":19515:19518   */\n      dup6\n        /* \"#utility.yul\":19497:19519   */\n      tag_243\n      jump\t// in\n    tag_456:\n        /* \"#utility.yul\":19487:19495   */\n      dup4\n        /* \"#utility.yul\":19483:19520   */\n      add\n        /* \"#utility.yul\":19470:19481   */\n      dup3\n        /* \"#utility.yul\":19441:19521   */\n      tag_252\n      jump\t// in\n    tag_455:\n        /* \"#utility.yul\":19100:19531   */\n      pop\n      pop\n        /* \"#utility.yul\":19085:19531   */\n    tag_451:\n        /* \"#utility.yul\":18995:19538   */\n      pop\n      pop\n      pop\n      jump\t// out\n        /* \"#utility.yul\":19544:19661   */\n    tag_254:\n        /* \"#utility.yul\":19598:19606   */\n      0x00\n        /* \"#utility.yul\":19648:19653   */\n      dup3\n        /* \"#utility.yul\":19642:19646   */\n      dup3\n        /* \"#utility.yul\":19638:19654   */\n      shr\n        /* \"#utility.yul\":19617:19654   */\n      swap1\n      pop\n        /* \"#utility.yul\":19544:19661   */\n      swap3\n      swap2\n      pop\n      pop\n      jump\t// out\n        /* \"#utility.yul\":19667:19836   */\n    tag_255:\n        /* \"#utility.yul\":19711:19717   */\n      0x00\n        /* \"#utility.yul\":19744:19795   */\n      tag_459\n        /* \"#utility.yul\":19792:19793   */\n      0x00\n        /* \"#utility.yul\":19788:19794   */\n      not\n        /* \"#utility.yul\":19780:19785   */\n      dup5\n        /* \"#utility.yul\":19777:19778   */\n      0x08\n        /* \"#utility.yul\":19773:19786   */\n      mul\n        /* \"#utility.yul\":19744:19795   */\n      tag_254\n      jump\t// in\n    tag_459:\n        /* \"#utility.yul\":19740:19796   */\n      not\n        /* \"#utility.yul\":19825:19829   */\n      dup1\n        /* \"#utility.yul\":19819:19823   */\n      dup4\n        /* \"#utility.yul\":19815:19830   */\n      and\n        /* \"#utility.yul\":19805:19830   */\n      swap2\n      pop\n        /* \"#utility.yul\":19718:19836   */\n      pop\n        /* \"#utility.yul\":19667:19836   */\n      swap3\n      swap2\n      pop\n      pop\n      jump\t// out\n        /* \"#utility.yul\":19841:20136   */\n    tag_256:\n        /* \"#utility.yul\":19917:19921   */\n      0x00\n        /* \"#utility.yul\":20063:20092   */\n      tag_461\n        /* \"#utility.yul\":20088:20091   */\n      dup4\n        /* \"#utility.yul\":20082:20086   */\n      dup4\n        /* \"#utility.yul\":20063:20092   */\n      tag_255\n      jump\t// in\n    tag_461:\n        /* \"#utility.yul\":20055:20092   */\n      swap2\n      pop\n        /* \"#utility.yul\":20125:20128   */\n      dup3\n        /* \"#utility.yul\":20122:20123   */\n      0x02\n        /* \"#utility.yul\":20118:20129   */\n      mul\n        /* \"#utility.yul\":20112:20116   */\n      dup3\n        /* \"#utility.yul\":20109:20130   */\n      or\n        /* \"#utility.yul\":20101:20130   */\n      swap1\n      pop\n        /* \"#utility.yul\":19841:20136   */\n      swap3\n      swap2\n      pop\n      pop\n      jump\t// out\n        /* \"#utility.yul\":20141:21536   */\n    tag_141:\n        /* \"#utility.yul\":20258:20295   */\n      tag_463\n        /* \"#utility.yul\":20291:20294   */\n      dup3\n        /* \"#utility.yul\":20258:20295   */\n      tag_214\n      jump\t// in\n    tag_463:\n        /* \"#utility.yul\":20360:20378   */\n      0xffffffffffffffff\n        /* \"#utility.yul\":20352:20358   */\n      dup2\n        /* \"#utility.yul\":20349:20379   */\n      gt\n        /* \"#utility.yul\":20346:20402   */\n      iszero\n      tag_464\n      jumpi\n        /* \"#utility.yul\":20382:20400   */\n      tag_465\n      tag_198\n      jump\t// in\n    tag_465:\n        /* \"#utility.yul\":20346:20402   */\n    tag_464:\n        /* \"#utility.yul\":20426:20464   */\n      tag_466\n        /* \"#utility.yul\":20458:20462   */\n      dup3\n        /* \"#utility.yul\":20452:20463   */\n      sload\n        /* \"#utility.yul\":20426:20464   */\n      tag_109\n      jump\t// in\n    tag_466:\n        /* \"#utility.yul\":20511:20578   */\n      tag_467\n        /* \"#utility.yul\":20571:20577   */\n      dup3\n        /* \"#utility.yul\":20563:20569   */\n      dup3\n        /* \"#utility.yul\":20557:20561   */\n      dup6\n        /* \"#utility.yul\":20511:20578   */\n      tag_253\n      jump\t// in\n    tag_467:\n        /* \"#utility.yul\":20605:20606   */\n      0x00\n        /* \"#utility.yul\":20629:20633   */\n      0x20\n        /* \"#utility.yul\":20616:20633   */\n      swap1\n      pop\n        /* \"#utility.yul\":20661:20663   */\n      0x1f\n        /* \"#utility.yul\":20653:20659   */\n      dup4\n        /* \"#utility.yul\":20650:20664   */\n      gt\n        /* \"#utility.yul\":20678:20679   */\n      0x01\n        /* \"#utility.yul\":20673:21291   */\n      dup2\n      eq\n      tag_469\n      jumpi\n        /* \"#utility.yul\":21335:21336   */\n      0x00\n        /* \"#utility.yul\":21352:21358   */\n      dup5\n        /* \"#utility.yul\":21349:21426   */\n      iszero\n      tag_470\n      jumpi\n        /* \"#utility.yul\":21401:21410   */\n      dup3\n        /* \"#utility.yul\":21396:21399   */\n      dup8\n        /* \"#utility.yul\":21392:21411   */\n      add\n        /* \"#utility.yul\":21386:21412   */\n      mload\n        /* \"#utility.yul\":21377:21412   */\n      swap1\n      pop\n        /* \"#utility.yul\":21349:21426   */\n    tag_470:\n        /* \"#utility.yul\":21452:21519   */\n      tag_471\n        /* \"#utility.yul\":21512:21518   */\n      dup6\n        /* \"#utility.yul\":21505:21510   */\n      dup3\n        /* \"#utility.yul\":21452:21519   */\n      tag_256\n      jump\t// in\n    tag_471:\n        /* \"#utility.yul\":21446:21450   */\n      dup7\n        /* \"#utility.yul\":21439:21520   */\n      sstore\n        /* \"#utility.yul\":21308:21530   */\n      pop\n        /* \"#utility.yul\":20643:21530   */\n      jump(tag_468)\n        /* \"#utility.yul\":20673:21291   */\n    tag_469:\n        /* \"#utility.yul\":20725:20729   */\n      0x1f\n        /* \"#utility.yul\":20721:20730   */\n      not\n        /* \"#utility.yul\":20713:20719   */\n      dup5\n        /* \"#utility.yul\":20709:20731   */\n      and\n        /* \"#utility.yul\":20759:20796   */\n      tag_472\n        /* \"#utility.yul\":20791:20795   */\n      dup7\n        /* \"#utility.yul\":20759:20796   */\n      tag_242\n      jump\t// in\n    tag_472:\n        /* \"#utility.yul\":20818:20819   */\n      0x00\n        /* \"#utility.yul\":20832:21040   */\n    tag_473:\n        /* \"#utility.yul\":20846:20853   */\n      dup3\n        /* \"#utility.yul\":20843:20844   */\n      dup2\n        /* \"#utility.yul\":20840:20854   */\n      lt\n        /* \"#utility.yul\":20832:21040   */\n      iszero\n      tag_475\n      jumpi\n        /* \"#utility.yul\":20925:20934   */\n      dup5\n        /* \"#utility.yul\":20920:20923   */\n      dup10\n        /* \"#utility.yul\":20916:20935   */\n      add\n        /* \"#utility.yul\":20910:20936   */\n      mload\n        /* \"#utility.yul\":20902:20908   */\n      dup3\n        /* \"#utility.yul\":20895:20937   */\n      sstore\n        /* \"#utility.yul\":20976:20977   */\n      0x01\n        /* \"#utility.yul\":20968:20974   */\n      dup3\n        /* \"#utility.yul\":20964:20978   */\n      add\n        /* \"#utility.yul\":20954:20978   */\n      swap2\n      pop\n        /* \"#utility.yul\":21023:21025   */\n      0x20\n        /* \"#utility.yul\":21012:21021   */\n      dup6\n        /* \"#utility.yul\":21008:21026   */\n      add\n        /* \"#utility.yul\":20995:21026   */\n      swap5\n      pop\n        /* \"#utility.yul\":20869:20873   */\n      0x20\n        /* \"#utility.yul\":20866:20867   */\n      dup2\n        /* \"#utility.yul\":20862:20874   */\n      add\n        /* \"#utility.yul\":20857:20874   */\n      swap1\n      pop\n        /* \"#utility.yul\":20832:21040   */\n      jump(tag_473)\n    tag_475:\n        /* \"#utility.yul\":21068:21074   */\n      dup7\n        /* \"#utility.yul\":21059:21066   */\n      dup4\n        /* \"#utility.yul\":21056:21075   */\n      lt\n        /* \"#utility.yul\":21053:21232   */\n      iszero\n      tag_476\n      jumpi\n        /* \"#utility.yul\":21126:21135   */\n      dup5\n        /* \"#utility.yul\":21121:21124   */\n      dup10\n        /* \"#utility.yul\":21117:21136   */\n      add\n        /* \"#utility.yul\":21111:21137   */\n      mload\n        /* \"#utility.yul\":21169:21217   */\n      tag_477\n        /* \"#utility.yul\":21211:21215   */\n      0x1f\n        /* \"#utility.yul\":21203:21209   */\n      dup10\n        /* \"#utility.yul\":21199:21216   */\n      and\n        /* \"#utility.yul\":21188:21197   */\n      dup3\n        /* \"#utility.yul\":21169:21217   */\n      tag_255\n      jump\t// in\n    tag_477:\n        /* \"#utility.yul\":21161:21167   */\n      dup4\n        /* \"#utility.yul\":21154:21218   */\n      sstore\n        /* \"#utility.yul\":21076:21232   */\n      pop\n        /* \"#utility.yul\":21053:21232   */\n    tag_476:\n        /* \"#utility.yul\":21278:21279   */\n      0x01\n        /* \"#utility.yul\":21274:21275   */\n      0x02\n        /* \"#utility.yul\":21266:21272   */\n      dup9\n        /* \"#utility.yul\":21262:21276   */\n      mul\n        /* \"#utility.yul\":21258:21280   */\n      add\n        /* \"#utility.yul\":21252:21256   */\n      dup9\n        /* \"#utility.yul\":21245:21281   */\n      sstore\n        /* \"#utility.yul\":20680:21291   */\n      pop\n      pop\n      pop\n        /* \"#utility.yul\":20643:21530   */\n    tag_468:\n      pop\n        /* \"#utility.yul\":20233:21536   */\n      pop\n      pop\n      pop\n        /* \"#utility.yul\":20141:21536   */\n      pop\n      pop\n      jump\t// out\n        /* \"#utility.yul\":21542:21715   */\n    tag_257:\n        /* \"#utility.yul\":21682:21707   */\n      0x43757272656e6379206e6f7420737570706f727465642e000000000000000000\n        /* \"#utility.yul\":21678:21679   */\n      0x00\n        /* \"#utility.yul\":21670:21676   */\n      dup3\n        /* \"#utility.yul\":21666:21680   */\n      add\n        /* \"#utility.yul\":21659:21708   */\n      mstore\n        /* \"#utility.yul\":21542:21715   */\n      pop\n      jump\t// out\n        /* \"#utility.yul\":21721:22087   */\n    tag_258:\n        /* \"#utility.yul\":21863:21866   */\n      0x00\n        /* \"#utility.yul\":21884:21951   */\n      tag_480\n        /* \"#utility.yul\":21948:21950   */\n      0x17\n        /* \"#utility.yul\":21943:21946   */\n      dup4\n        /* \"#utility.yul\":21884:21951   */\n      tag_224\n      jump\t// in\n    tag_480:\n        /* \"#utility.yul\":21877:21951   */\n      swap2\n      pop\n        /* \"#utility.yul\":21960:22053   */\n      tag_481\n        /* \"#utility.yul\":22049:22052   */\n      dup3\n        /* \"#utility.yul\":21960:22053   */\n      tag_257\n      jump\t// in\n    tag_481:\n        /* \"#utility.yul\":22078:22080   */\n      0x20\n        /* \"#utility.yul\":22073:22076   */\n      dup3\n        /* \"#utility.yul\":22069:22081   */\n      add\n        /* \"#utility.yul\":22062:22081   */\n      swap1\n      pop\n        /* \"#utility.yul\":21721:22087   */\n      swap2\n      swap1\n      pop\n      jump\t// out\n        /* \"#utility.yul\":22093:22512   */\n    tag_148:\n        /* \"#utility.yul\":22259:22263   */\n      0x00\n        /* \"#utility.yul\":22297:22299   */\n      0x20\n        /* \"#utility.yul\":22286:22295   */\n      dup3\n        /* \"#utility.yul\":22282:22300   */\n      add\n        /* \"#utility.yul\":22274:22300   */\n      swap1\n      pop\n        /* \"#utility.yul\":22346:22355   */\n      dup2\n        /* \"#utility.yul\":22340:22344   */\n      dup2\n        /* \"#utility.yul\":22336:22356   */\n      sub\n        /* \"#utility.yul\":22332:22333   */\n      0x00\n        /* \"#utility.yul\":22321:22330   */\n      dup4\n        /* \"#utility.yul\":22317:22334   */\n      add\n        /* \"#utility.yul\":22310:22357   */\n      mstore\n        /* \"#utility.yul\":22374:22505   */\n      tag_483\n        /* \"#utility.yul\":22500:22504   */\n      dup2\n        /* \"#utility.yul\":22374:22505   */\n      tag_258\n      jump\t// in\n    tag_483:\n        /* \"#utility.yul\":22366:22505   */\n      swap1\n      pop\n        /* \"#utility.yul\":22093:22512   */\n      swap2\n      swap1\n      pop\n      jump\t// out\n        /* \"#utility.yul\":22518:22698   */\n    tag_259:\n        /* \"#utility.yul\":22566:22643   */\n      0x4e487b7100000000000000000000000000000000000000000000000000000000\n        /* \"#utility.yul\":22563:22564   */\n      0x00\n        /* \"#utility.yul\":22556:22644   */\n      mstore\n        /* \"#utility.yul\":22663:22667   */\n      0x11\n        /* \"#utility.yul\":22660:22661   */\n      0x04\n        /* \"#utility.yul\":22653:22668   */\n      mstore\n        /* \"#utility.yul\":22687:22691   */\n      0x24\n        /* \"#utility.yul\":22684:22685   */\n      0x00\n        /* \"#utility.yul\":22677:22692   */\n      revert\n        /* \"#utility.yul\":22704:23114   */\n    tag_151:\n        /* \"#utility.yul\":22744:22751   */\n      0x00\n        /* \"#utility.yul\":22767:22787   */\n      tag_486\n        /* \"#utility.yul\":22785:22786   */\n      dup3\n        /* \"#utility.yul\":22767:22787   */\n      tag_205\n      jump\t// in\n    tag_486:\n        /* \"#utility.yul\":22762:22787   */\n      swap2\n      pop\n        /* \"#utility.yul\":22801:22821   */\n      tag_487\n        /* \"#utility.yul\":22819:22820   */\n      dup4\n        /* \"#utility.yul\":22801:22821   */\n      tag_205\n      jump\t// in\n    tag_487:\n        /* \"#utility.yul\":22796:22821   */\n      swap3\n      pop\n        /* \"#utility.yul\":22856:22857   */\n      dup3\n        /* \"#utility.yul\":22853:22854   */\n      dup3\n        /* \"#utility.yul\":22849:22858   */\n      mul\n        /* \"#utility.yul\":22878:22908   */\n      tag_488\n        /* \"#utility.yul\":22896:22907   */\n      dup2\n        /* \"#utility.yul\":22878:22908   */\n      tag_205\n      jump\t// in\n    tag_488:\n        /* \"#utility.yul\":22867:22908   */\n      swap2\n      pop\n        /* \"#utility.yul\":23057:23058   */\n      dup3\n        /* \"#utility.yul\":23048:23055   */\n      dup3\n        /* \"#utility.yul\":23044:23059   */\n      div\n        /* \"#utility.yul\":23041:23042   */\n      dup5\n        /* \"#utility.yul\":23038:23060   */\n      eq\n        /* \"#utility.yul\":23018:23019   */\n      dup4\n        /* \"#utility.yul\":23011:23020   */\n      iszero\n        /* \"#utility.yul\":22991:23074   */\n      or\n        /* \"#utility.yul\":22968:23107   */\n      tag_489\n      jumpi\n        /* \"#utility.yul\":23087:23105   */\n      tag_490\n      tag_259\n      jump\t// in\n    tag_490:\n        /* \"#utility.yul\":22968:23107   */\n    tag_489:\n        /* \"#utility.yul\":22752:23114   */\n      pop\n        /* \"#utility.yul\":22704:23114   */\n      swap3\n      swap2\n      pop\n      pop\n      jump\t// out\n        /* \"#utility.yul\":23120:23299   */\n    tag_260:\n        /* \"#utility.yul\":23260:23291   */\n      0x416d6f756e74206d7573742062652067726561746572207468616e2030000000\n        /* \"#utility.yul\":23256:23257   */\n      0x00\n        /* \"#utility.yul\":23248:23254   */\n      dup3\n        /* \"#utility.yul\":23244:23258   */\n      add\n        /* \"#utility.yul\":23237:23292   */\n      mstore\n        /* \"#utility.yul\":23120:23299   */\n      pop\n      jump\t// out\n        /* \"#utility.yul\":23305:23671   */\n    tag_261:\n        /* \"#utility.yul\":23447:23450   */\n      0x00\n        /* \"#utility.yul\":23468:23535   */\n      tag_493\n        /* \"#utility.yul\":23532:23534   */\n      0x1d\n        /* \"#utility.yul\":23527:23530   */\n      dup4\n        /* \"#utility.yul\":23468:23535   */\n      tag_224\n      jump\t// in\n    tag_493:\n        /* \"#utility.yul\":23461:23535   */\n      swap2\n      pop\n        /* \"#utility.yul\":23544:23637   */\n      tag_494\n        /* \"#utility.yul\":23633:23636   */\n      dup3\n        /* \"#utility.yul\":23544:23637   */\n      tag_260\n      jump\t// in\n    tag_494:\n        /* \"#utility.yul\":23662:23664   */\n      0x20\n        /* \"#utility.yul\":23657:23660   */\n      dup3\n        /* \"#utility.yul\":23653:23665   */\n      add\n        /* \"#utility.yul\":23646:23665   */\n      swap1\n      pop\n        /* \"#utility.yul\":23305:23671   */\n      swap2\n      swap1\n      pop\n      jump\t// out\n        /* \"#utility.yul\":23677:24096   */\n    tag_166:\n        /* \"#utility.yul\":23843:23847   */\n      0x00\n        /* \"#utility.yul\":23881:23883   */\n      0x20\n        /* \"#utility.yul\":23870:23879   */\n      dup3\n        /* \"#utility.yul\":23866:23884   */\n      add\n        /* \"#utility.yul\":23858:23884   */\n      swap1\n      pop\n        /* \"#utility.yul\":23930:23939   */\n      dup2\n        /* \"#utility.yul\":23924:23928   */\n      dup2\n        /* \"#utility.yul\":23920:23940   */\n      sub\n        /* \"#utility.yul\":23916:23917   */\n      0x00\n        /* \"#utility.yul\":23905:23914   */\n      dup4\n        /* \"#utility.yul\":23901:23918   */\n      add\n        /* \"#utility.yul\":23894:23941   */\n      mstore\n        /* \"#utility.yul\":23958:24089   */\n      tag_496\n        /* \"#utility.yul\":24084:24088   */\n      dup2\n        /* \"#utility.yul\":23958:24089   */\n      tag_261\n      jump\t// in\n    tag_496:\n        /* \"#utility.yul\":23950:24089   */\n      swap1\n      pop\n        /* \"#utility.yul\":23677:24096   */\n      swap2\n      swap1\n      pop\n      jump\t// out\n        /* \"#utility.yul\":24102:24332   */\n    tag_262:\n        /* \"#utility.yul\":24242:24276   */\n      0x53656e742045544820646f65736e2774206d617463682074686520636f6e7665\n        /* \"#utility.yul\":24238:24239   */\n      0x00\n        /* \"#utility.yul\":24230:24236   */\n      dup3\n        /* \"#utility.yul\":24226:24240   */\n      add\n        /* \"#utility.yul\":24219:24277   */\n      mstore\n        /* \"#utility.yul\":24311:24324   */\n      0x7274656420616d6f756e74000000000000000000000000000000000000000000\n        /* \"#utility.yul\":24306:24308   */\n      0x20\n        /* \"#utility.yul\":24298:24304   */\n      dup3\n        /* \"#utility.yul\":24294:24309   */\n      add\n        /* \"#utility.yul\":24287:24325   */\n      mstore\n        /* \"#utility.yul\":24102:24332   */\n      pop\n      jump\t// out\n        /* \"#utility.yul\":24338:24704   */\n    tag_263:\n        /* \"#utility.yul\":24480:24483   */\n      0x00\n        /* \"#utility.yul\":24501:24568   */\n      tag_499\n        /* \"#utility.yul\":24565:24567   */\n      0x2b\n        /* \"#utility.yul\":24560:24563   */\n      dup4\n        /* \"#utility.yul\":24501:24568   */\n      tag_224\n      jump\t// in\n    tag_499:\n        /* \"#utility.yul\":24494:24568   */\n      swap2\n      pop\n        /* \"#utility.yul\":24577:24670   */\n      tag_500\n        /* \"#utility.yul\":24666:24669   */\n      dup3\n        /* \"#utility.yul\":24577:24670   */\n      tag_262\n      jump\t// in\n    tag_500:\n        /* \"#utility.yul\":24695:24697   */\n      0x40\n        /* \"#utility.yul\":24690:24693   */\n      dup3\n        /* \"#utility.yul\":24686:24698   */\n      add\n        /* \"#utility.yul\":24679:24698   */\n      swap1\n      pop\n        /* \"#utility.yul\":24338:24704   */\n      swap2\n      swap1\n      pop\n      jump\t// out\n        /* \"#utility.yul\":24710:25129   */\n    tag_170:\n        /* \"#utility.yul\":24876:24880   */\n      0x00\n        /* \"#utility.yul\":24914:24916   */\n      0x20\n        /* \"#utility.yul\":24903:24912   */\n      dup3\n        /* \"#utility.yul\":24899:24917   */\n      add\n        /* \"#utility.yul\":24891:24917   */\n      swap1\n      pop\n        /* \"#utility.yul\":24963:24972   */\n      dup2\n        /* \"#utility.yul\":24957:24961   */\n      dup2\n        /* \"#utility.yul\":24953:24973   */\n      sub\n        /* \"#utility.yul\":24949:24950   */\n      0x00\n        /* \"#utility.yul\":24938:24947   */\n      dup4\n        /* \"#utility.yul\":24934:24951   */\n      add\n        /* \"#utility.yul\":24927:24974   */\n      mstore\n        /* \"#utility.yul\":24991:25122   */\n      tag_502\n        /* \"#utility.yul\":25117:25121   */\n      dup2\n        /* \"#utility.yul\":24991:25122   */\n      tag_263\n      jump\t// in\n    tag_502:\n        /* \"#utility.yul\":24983:25122   */\n      swap1\n      pop\n        /* \"#utility.yul\":24710:25129   */\n      swap2\n      swap1\n      pop\n      jump\t// out\n        /* \"#utility.yul\":25135:25326   */\n    tag_172:\n        /* \"#utility.yul\":25175:25178   */\n      0x00\n        /* \"#utility.yul\":25194:25214   */\n      tag_504\n        /* \"#utility.yul\":25212:25213   */\n      dup3\n        /* \"#utility.yul\":25194:25214   */\n      tag_205\n      jump\t// in\n    tag_504:\n        /* \"#utility.yul\":25189:25214   */\n      swap2\n      pop\n        /* \"#utility.yul\":25228:25248   */\n      tag_505\n        /* \"#utility.yul\":25246:25247   */\n      dup4\n        /* \"#utility.yul\":25228:25248   */\n      tag_205\n      jump\t// in\n    tag_505:\n        /* \"#utility.yul\":25223:25248   */\n      swap3\n      pop\n        /* \"#utility.yul\":25271:25272   */\n      dup3\n        /* \"#utility.yul\":25268:25269   */\n      dup3\n        /* \"#utility.yul\":25264:25273   */\n      add\n        /* \"#utility.yul\":25257:25273   */\n      swap1\n      pop\n        /* \"#utility.yul\":25292:25295   */\n      dup1\n        /* \"#utility.yul\":25289:25290   */\n      dup3\n        /* \"#utility.yul\":25286:25296   */\n      gt\n        /* \"#utility.yul\":25283:25319   */\n      iszero\n      tag_506\n      jumpi\n        /* \"#utility.yul\":25299:25317   */\n      tag_507\n      tag_259\n      jump\t// in\n    tag_507:\n        /* \"#utility.yul\":25283:25319   */\n    tag_506:\n        /* \"#utility.yul\":25135:25326   */\n      swap3\n      swap2\n      pop\n      pop\n      jump\t// out\n        /* \"#utility.yul\":25332:25553   */\n    tag_264:\n        /* \"#utility.yul\":25472:25506   */\n      0x54697020616d6f756e74206d7573742062652067726561746572207468616e20\n        /* \"#utility.yul\":25468:25469   */\n      0x00\n        /* \"#utility.yul\":25460:25466   */\n      dup3\n        /* \"#utility.yul\":25456:25470   */\n      add\n        /* \"#utility.yul\":25449:25507   */\n      mstore\n        /* \"#utility.yul\":25541:25545   */\n      0x302e000000000000000000000000000000000000000000000000000000000000\n        /* \"#utility.yul\":25536:25538   */\n      0x20\n        /* \"#utility.yul\":25528:25534   */\n      dup3\n        /* \"#utility.yul\":25524:25539   */\n      add\n        /* \"#utility.yul\":25517:25546   */\n      mstore\n        /* \"#utility.yul\":25332:25553   */\n      pop\n      jump\t// out\n        /* \"#utility.yul\":25559:25925   */\n    tag_265:\n        /* \"#utility.yul\":25701:25704   */\n      0x00\n        /* \"#utility.yul\":25722:25789   */\n      tag_510\n        /* \"#utility.yul\":25786:25788   */\n      0x22\n        /* \"#utility.yul\":25781:25784   */\n      dup4\n        /* \"#utility.yul\":25722:25789   */\n      tag_224\n      jump\t// in\n    tag_510:\n        /* \"#utility.yul\":25715:25789   */\n      swap2\n      pop\n        /* \"#utility.yul\":25798:25891   */\n      tag_511\n        /* \"#utility.yul\":25887:25890   */\n      dup3\n        /* \"#utility.yul\":25798:25891   */\n      tag_264\n      jump\t// in\n    tag_511:\n        /* \"#utility.yul\":25916:25918   */\n      0x40\n        /* \"#utility.yul\":25911:25914   */\n      dup3\n        /* \"#utility.yul\":25907:25919   */\n      add\n        /* \"#utility.yul\":25900:25919   */\n      swap1\n      pop\n        /* \"#utility.yul\":25559:25925   */\n      swap2\n      swap1\n      pop\n      jump\t// out\n        /* \"#utility.yul\":25931:26350   */\n    tag_179:\n        /* \"#utility.yul\":26097:26101   */\n      0x00\n        /* \"#utility.yul\":26135:26137   */\n      0x20\n        /* \"#utility.yul\":26124:26133   */\n      dup3\n        /* \"#utility.yul\":26120:26138   */\n      add\n        /* \"#utility.yul\":26112:26138   */\n      swap1\n      pop\n        /* \"#utility.yul\":26184:26193   */\n      dup2\n        /* \"#utility.yul\":26178:26182   */\n      dup2\n        /* \"#utility.yul\":26174:26194   */\n      sub\n        /* \"#utility.yul\":26170:26171   */\n      0x00\n        /* \"#utility.yul\":26159:26168   */\n      dup4\n        /* \"#utility.yul\":26155:26172   */\n      add\n        /* \"#utility.yul\":26148:26195   */\n      mstore\n        /* \"#utility.yul\":26212:26343   */\n      tag_513\n        /* \"#utility.yul\":26338:26342   */\n      dup2\n        /* \"#utility.yul\":26212:26343   */\n      tag_265\n      jump\t// in\n    tag_513:\n        /* \"#utility.yul\":26204:26343   */\n      swap1\n      pop\n        /* \"#utility.yul\":25931:26350   */\n      swap2\n      swap1\n      pop\n      jump\t// out\n        /* \"#utility.yul\":26356:26509   */\n    tag_266:\n        /* \"#utility.yul\":26496:26501   */\n      0x4554480000000000000000000000000000000000000000000000000000000000\n        /* \"#utility.yul\":26492:26493   */\n      0x00\n        /* \"#utility.yul\":26484:26490   */\n      dup3\n        /* \"#utility.yul\":26480:26494   */\n      add\n        /* \"#utility.yul\":26473:26502   */\n      mstore\n        /* \"#utility.yul\":26356:26509   */\n      pop\n      jump\t// out\n        /* \"#utility.yul\":26515:26915   */\n    tag_267:\n        /* \"#utility.yul\":26675:26678   */\n      0x00\n        /* \"#utility.yul\":26696:26780   */\n      tag_516\n        /* \"#utility.yul\":26778:26779   */\n      0x03\n        /* \"#utility.yul\":26773:26776   */\n      dup4\n        /* \"#utility.yul\":26696:26780   */\n      tag_226\n      jump\t// in\n    tag_516:\n        /* \"#utility.yul\":26689:26780   */\n      swap2\n      pop\n        /* \"#utility.yul\":26789:26882   */\n      tag_517\n        /* \"#utility.yul\":26878:26881   */\n      dup3\n        /* \"#utility.yul\":26789:26882   */\n      tag_266\n      jump\t// in\n    tag_517:\n        /* \"#utility.yul\":26907:26908   */\n      0x03\n        /* \"#utility.yul\":26902:26905   */\n      dup3\n        /* \"#utility.yul\":26898:26909   */\n      add\n        /* \"#utility.yul\":26891:26909   */\n      swap1\n      pop\n        /* \"#utility.yul\":26515:26915   */\n      swap2\n      swap1\n      pop\n      jump\t// out\n        /* \"#utility.yul\":26921:27302   */\n    tag_183:\n        /* \"#utility.yul\":27106:27109   */\n      0x00\n        /* \"#utility.yul\":27128:27276   */\n      tag_519\n        /* \"#utility.yul\":27272:27275   */\n      dup3\n        /* \"#utility.yul\":27128:27276   */\n      tag_267\n      jump\t// in\n    tag_519:\n        /* \"#utility.yul\":27121:27276   */\n      swap2\n      pop\n        /* \"#utility.yul\":27293:27296   */\n      dup2\n        /* \"#utility.yul\":27286:27296   */\n      swap1\n      pop\n        /* \"#utility.yul\":26921:27302   */\n      swap2\n      swap1\n      pop\n      jump\t// out\n        /* \"#utility.yul\":27308:27473   */\n    tag_268:\n        /* \"#utility.yul\":27448:27465   */\n      0x496e76616c696420616464726573730000000000000000000000000000000000\n        /* \"#utility.yul\":27444:27445   */\n      0x00\n        /* \"#utility.yul\":27436:27442   */\n      dup3\n        /* \"#utility.yul\":27432:27446   */\n      add\n        /* \"#utility.yul\":27425:27466   */\n      mstore\n        /* \"#utility.yul\":27308:27473   */\n      pop\n      jump\t// out\n        /* \"#utility.yul\":27479:27845   */\n    tag_269:\n        /* \"#utility.yul\":27621:27624   */\n      0x00\n        /* \"#utility.yul\":27642:27709   */\n      tag_522\n        /* \"#utility.yul\":27706:27708   */\n      0x0f\n        /* \"#utility.yul\":27701:27704   */\n      dup4\n        /* \"#utility.yul\":27642:27709   */\n      tag_224\n      jump\t// in\n    tag_522:\n        /* \"#utility.yul\":27635:27709   */\n      swap2\n      pop\n        /* \"#utility.yul\":27718:27811   */\n      tag_523\n        /* \"#utility.yul\":27807:27810   */\n      dup3\n        /* \"#utility.yul\":27718:27811   */\n      tag_268\n      jump\t// in\n    tag_523:\n        /* \"#utility.yul\":27836:27838   */\n      0x20\n        /* \"#utility.yul\":27831:27834   */\n      dup3\n        /* \"#utility.yul\":27827:27839   */\n      add\n        /* \"#utility.yul\":27820:27839   */\n      swap1\n      pop\n        /* \"#utility.yul\":27479:27845   */\n      swap2\n      swap1\n      pop\n      jump\t// out\n        /* \"#utility.yul\":27851:28270   */\n    tag_191:\n        /* \"#utility.yul\":28017:28021   */\n      0x00\n        /* \"#utility.yul\":28055:28057   */\n      0x20\n        /* \"#utility.yul\":28044:28053   */\n      dup3\n        /* \"#utility.yul\":28040:28058   */\n      add\n        /* \"#utility.yul\":28032:28058   */\n      swap1\n      pop\n        /* \"#utility.yul\":28104:28113   */\n      dup2\n        /* \"#utility.yul\":28098:28102   */\n      dup2\n        /* \"#utility.yul\":28094:28114   */\n      sub\n        /* \"#utility.yul\":28090:28091   */\n      0x00\n        /* \"#utility.yul\":28079:28088   */\n      dup4\n        /* \"#utility.yul\":28075:28092   */\n      add\n        /* \"#utility.yul\":28068:28115   */\n      mstore\n        /* \"#utility.yul\":28132:28263   */\n      tag_525\n        /* \"#utility.yul\":28258:28262   */\n      dup2\n        /* \"#utility.yul\":28132:28263   */\n      tag_269\n      jump\t// in\n    tag_525:\n        /* \"#utility.yul\":28124:28263   */\n      swap1\n      pop\n        /* \"#utility.yul\":27851:28270   */\n      swap2\n      swap1\n      pop\n      jump\t// out\n\n    auxdata: 0xa2646970667358221220c7b16cd2faac0605ae46231091f27e22446fe3d00341061529de40107098873f64736f6c634300081f0033\n}\n",
				"bytecode": {
					"linkReferences": {},
					"object": "608060405234801561000f575f5ffd5b50335f5f6101000a81548173ffffffffffffffffffffffffffffffffffffffff021916908373ffffffffffffffffffffffffffffffffffffffff16021790555061009b6040518060400160405280600381526020017f55534400000000000000000000000000000000000000000000000000000000008152506601c6bf5263400061018360201b60201c565b6100e76040518060400160405280600381526020017f4555520000000000000000000000000000000000000000000000000000000000815250660221b262dd800061018360201b60201c565b6101326040518060400160405280600381526020017f4a505900000000000000000000000000000000000000000000000000000000008152506503a35294400061018360201b60201c565b61017e6040518060400160405280600381526020017f474250000000000000000000000000000000000000000000000000000000000081525066027ca57357c00061018360201b60201c565b610788565b5f5f9054906101000a900473ffffffffffffffffffffffffffffffffffffffff1673ffffffffffffffffffffffffffffffffffffffff163373ffffffffffffffffffffffffffffffffffffffff1614610211576040517f08c379a000000000000000000000000000000000000000000000000000000000815260040161020890610398565b60405180910390fd5b5f8111610253576040517f08c379a000000000000000000000000000000000000000000000000000000000815260040161024a90610400565b60405180910390fd5b5f15156006836040516102669190610470565b90815260200160405180910390205f9054906101000a900460ff161515036102f157600282908060018154018082558091505060019003905f5260205f20015f9091909190915090816102b991906106b9565b5060016006836040516102cc9190610470565b90815260200160405180910390205f6101000a81548160ff0219169083151502179055505b806001836040516103029190610470565b9081526020016040518091039020819055505050565b5f82825260208201905092915050565b7f4f6e6c79206f776e65722063616e20706572666f726d207468697320616374695f8201527f6f6e2e0000000000000000000000000000000000000000000000000000000000602082015250565b5f610382602383610318565b915061038d82610328565b604082019050919050565b5f6020820190508181035f8301526103af81610376565b9050919050565b7f52617465206d7573742062652067726561746572207468616e20302e000000005f82015250565b5f6103ea601c83610318565b91506103f5826103b6565b602082019050919050565b5f6020820190508181035f830152610417816103de565b9050919050565b5f81519050919050565b5f81905092915050565b8281835e5f83830152505050565b5f61044a8261041e565b6104548185610428565b9350610464818560208601610432565b80840191505092915050565b5f61047b8284610440565b915081905092915050565b7f4e487b71000000000000000000000000000000000000000000000000000000005f52604160045260245ffd5b7f4e487b71000000000000000000000000000000000000000000000000000000005f52602260045260245ffd5b5f60028204905060018216806104f757607f821691505b60208210810361050a576105096104b3565b5b50919050565b5f819050815f5260205f209050919050565b5f6020601f8301049050919050565b5f82821b905092915050565b5f6008830261056c7fffffffffffffffffffffffffffffffffffffffffffffffffffffffffffffffff82610531565b6105768683610531565b95508019841693508086168417925050509392505050565b5f819050919050565b5f819050919050565b5f6105ba6105b56105b08461058e565b610597565b61058e565b9050919050565b5f819050919050565b6105d3836105a0565b6105e76105df826105c1565b84845461053d565b825550505050565b5f5f905090565b6105fe6105ef565b6106098184846105ca565b505050565b5b8181101561062c576106215f826105f6565b60018101905061060f565b5050565b601f8211156106715761064281610510565b61064b84610522565b8101602085101561065a578190505b61066e61066685610522565b83018261060e565b50505b505050565b5f82821c905092915050565b5f6106915f1984600802610676565b1980831691505092915050565b5f6106a98383610682565b9150826002028217905092915050565b6106c28261041e565b67ffffffffffffffff8111156106db576106da610486565b5b6106e582546104e0565b6106f0828285610630565b5f60209050601f831160018114610721575f841561070f578287015190505b610719858261069e565b865550610780565b601f19841661072f86610510565b5f5b8281101561075657848901518255600182019150602085019450602081019050610731565b86831015610773578489015161076f601f891682610682565b8355505b6001600288020188555050505b505050505050565b611c15806107955f395ff3fe6080604052600436106100f2575f3560e01c80636de0938b116100895780639c88e42d116100585780639c88e42d14610356578063b844370214610372578063efe8c0841461037c578063f2fde38b146103a6576100f2565b80636de0938b1461028a5780636f9fb98a146102c65780638da5cb5b146102f057806397bf79351461031a576100f2565b80632ce75863116100c55780632ce75863146101e65780633aaa74b2146102105780635c41fece146102265780635c49c82514610262576100f2565b80630d9ba15f146100f657806310e1d1d4146101325780631fac531b1461016e578063223506a7146101aa575b5f5ffd5b348015610101575f5ffd5b5061011c60048036038101906101179190610f8a565b6103ce565b6040516101299190610fe9565b60405180910390f35b34801561013d575f5ffd5b506101586004803603810190610153919061105c565b6103fb565b6040516101659190610fe9565b60405180910390f35b348015610179575f5ffd5b50610194600480360381019061018f9190610f8a565b610410565b6040516101a19190610fe9565b60405180910390f35b3480156101b5575f5ffd5b506101d060048036038101906101cb919061105c565b610497565b6040516101dd9190610fe9565b60405180910390f35b3480156101f1575f5ffd5b506101fa6104dd565b60405161020791906111a2565b60405180910390f35b34801561021b575f5ffd5b506102246105b1565b005b348015610231575f5ffd5b5061024c60048036038101906102479190610f8a565b610758565b6040516102599190610fe9565b60405180910390f35b34801561026d575f5ffd5b50610288600480360381019061028391906111ec565b610785565b005b348015610295575f5ffd5b506102b060048036038101906102ab91906111ec565b61091a565b6040516102bd9190610fe9565b60405180910390f35b3480156102d1575f5ffd5b506102da6109b2565b6040516102e79190610fe9565b60405180910390f35b3480156102fb575f5ffd5b506103046109b9565b6040516103119190611255565b60405180910390f35b348015610325575f5ffd5b50610340600480360381019061033b919061126e565b6109dd565b60405161034d91906112e1565b60405180910390f35b610370600480360381019061036b91906111ec565b610a83565b005b61037a610c18565b005b348015610387575f5ffd5b50610390610cf9565b60405161039d9190610fe9565b60405180910390f35b3480156103b1575f5ffd5b506103cc60048036038101906103c7919061105c565b610cff565b005b6005818051602081018201805184825260208301602085012081835280955050505050505f915090505481565b6004602052805f5260405f205f915090505481565b5f5f600183604051610422919061133b565b90815260200160405180910390205411610471576040517f08c379a00000000000000000000000000000000000000000000000000000000081526004016104689061139b565b60405180910390fd5b600182604051610481919061133b565b9081526020016040518091039020549050919050565b5f60045f8373ffffffffffffffffffffffffffffffffffffffff1673ffffffffffffffffffffffffffffffffffffffff1681526020019081526020015f20549050919050565b60606002805480602002602001604051908101604052809291908181526020015f905b828210156105a8578382905f5260205f2001805461051d906113e6565b80601f0160208091040260200160405190810160405280929190818152602001828054610549906113e6565b80156105945780601f1061056b57610100808354040283529160200191610594565b820191905f5260205f20905b81548152906001019060200180831161057757829003601f168201915b505050505081526020019060010190610500565b50505050905090565b5f5f9054906101000a900473ffffffffffffffffffffffffffffffffffffffff1673ffffffffffffffffffffffffffffffffffffffff163373ffffffffffffffffffffffffffffffffffffffff161461063f576040517f08c379a000000000000000000000000000000000000000000000000000000000815260040161063690611486565b60405180910390fd5b5f6003819055505f4790505f811161068c576040517f08c379a0000000000000000000000000000000000000000000000000000000008152600401610683906114ee565b60405180910390fd5b5f5f5f9054906101000a900473ffffffffffffffffffffffffffffffffffffffff1673ffffffffffffffffffffffffffffffffffffffff16826040516106d190611539565b5f6040518083038185875af1925050503d805f811461070b576040519150601f19603f3d011682016040523d82523d5f602084013e610710565b606091505b5050905080610754576040517f08c379a000000000000000000000000000000000000000000000000000000000815260040161074b90611597565b60405180910390fd5b5050565b6001818051602081018201805184825260208301602085012081835280955050505050505f915090505481565b5f5f9054906101000a900473ffffffffffffffffffffffffffffffffffffffff1673ffffffffffffffffffffffffffffffffffffffff163373ffffffffffffffffffffffffffffffffffffffff1614610813576040517f08c379a000000000000000000000000000000000000000000000000000000000815260040161080a90611486565b60405180910390fd5b5f8111610855576040517f08c379a000000000000000000000000000000000000000000000000000000000815260040161084c906115ff565b60405180910390fd5b5f1515600683604051610868919061133b565b90815260200160405180910390205f9054906101000a900460ff161515036108f357600282908060018154018082558091505060019003905f5260205f20015f9091909190915090816108bb91906117bd565b5060016006836040516108ce919061133b565b90815260200160405180910390205f6101000a81548160ff0219169083151502179055505b80600183604051610904919061133b565b9081526020016040518091039020819055505050565b5f5f60018460405161092c919061133b565b9081526020016040518091039020541161097b576040517f08c379a0000000000000000000000000000000000000000000000000000000008152600401610972906118d6565b60405180910390fd5b5f60018460405161098c919061133b565b908152602001604051809103902054836109a69190611921565b90508091505092915050565b5f47905090565b5f5f9054906101000a900473ffffffffffffffffffffffffffffffffffffffff1681565b600281815481106109ec575f80fd5b905f5260205f20015f915090508054610a04906113e6565b80601f0160208091040260200160405190810160405280929190818152602001828054610a30906113e6565b8015610a7b5780601f10610a5257610100808354040283529160200191610a7b565b820191905f5260205f20905b815481529060010190602001808311610a5e57829003601f168201915b505050505081565b5f600183604051610a94919061133b565b90815260200160405180910390205411610ae3576040517f08c379a0000000000000000000000000000000000000000000000000000000008152600401610ada9061139b565b60405180910390fd5b5f8111610b25576040517f08c379a0000000000000000000000000000000000000000000000000000000008152600401610b1c906119ac565b60405180910390fd5b5f610b30838361091a565b9050803414610b74576040517f08c379a0000000000000000000000000000000000000000000000000000000008152600401610b6b90611a3a565b60405180910390fd5b3460045f3373ffffffffffffffffffffffffffffffffffffffff1673ffffffffffffffffffffffffffffffffffffffff1681526020019081526020015f205f828254610bc09190611a58565b925050819055503460035f828254610bd89190611a58565b9250508190555081600584604051610bf0919061133b565b90815260200160405180910390205f828254610c0c9190611a58565b92505081905550505050565b5f3411610c5a576040517f08c379a0000000000000000000000000000000000000000000000000000000008152600401610c5190611afb565b60405180910390fd5b3460045f3373ffffffffffffffffffffffffffffffffffffffff1673ffffffffffffffffffffffffffffffffffffffff1681526020019081526020015f205f828254610ca69190611a58565b925050819055503460035f828254610cbe9190611a58565b92505081905550346005604051610cd490611b63565b90815260200160405180910390205f828254610cf09190611a58565b92505081905550565b60035481565b5f5f9054906101000a900473ffffffffffffffffffffffffffffffffffffffff1673ffffffffffffffffffffffffffffffffffffffff163373ffffffffffffffffffffffffffffffffffffffff1614610d8d576040517f08c379a0000000000000000000000000000000000000000000000000000000008152600401610d8490611486565b60405180910390fd5b5f73ffffffffffffffffffffffffffffffffffffffff168173ffffffffffffffffffffffffffffffffffffffff1603610dfb576040517f08c379a0000000000000000000000000000000000000000000000000000000008152600401610df290611bc1565b60405180910390fd5b805f5f6101000a81548173ffffffffffffffffffffffffffffffffffffffff021916908373ffffffffffffffffffffffffffffffffffffffff16021790555050565b5f604051905090565b5f5ffd5b5f5ffd5b5f5ffd5b5f5ffd5b5f601f19601f8301169050919050565b7f4e487b71000000000000000000000000000000000000000000000000000000005f52604160045260245ffd5b610e9c82610e56565b810181811067ffffffffffffffff82111715610ebb57610eba610e66565b5b80604052505050565b5f610ecd610e3d565b9050610ed98282610e93565b919050565b5f67ffffffffffffffff821115610ef857610ef7610e66565b5b610f0182610e56565b9050602081019050919050565b828183375f83830152505050565b5f610f2e610f2984610ede565b610ec4565b905082815260208101848484011115610f4a57610f49610e52565b5b610f55848285610f0e565b509392505050565b5f82601f830112610f7157610f70610e4e565b5b8135610f81848260208601610f1c565b91505092915050565b5f60208284031215610f9f57610f9e610e46565b5b5f82013567ffffffffffffffff811115610fbc57610fbb610e4a565b5b610fc884828501610f5d565b91505092915050565b5f819050919050565b610fe381610fd1565b82525050565b5f602082019050610ffc5f830184610fda565b92915050565b5f73ffffffffffffffffffffffffffffffffffffffff82169050919050565b5f61102b82611002565b9050919050565b61103b81611021565b8114611045575f5ffd5b50565b5f8135905061105681611032565b92915050565b5f6020828403121561107157611070610e46565b5b5f61107e84828501611048565b91505092915050565b5f81519050919050565b5f82825260208201905092915050565b5f819050602082019050919050565b5f81519050919050565b5f82825260208201905092915050565b8281835e5f83830152505050565b5f6110e2826110b0565b6110ec81856110ba565b93506110fc8185602086016110ca565b61110581610e56565b840191505092915050565b5f61111b83836110d8565b905092915050565b5f602082019050919050565b5f61113982611087565b6111438185611091565b935083602082028501611155856110a1565b805f5b8581101561119057848403895281516111718582611110565b945061117c83611123565b925060208a01995050600181019050611158565b50829750879550505050505092915050565b5f6020820190508181035f8301526111ba818461112f565b905092915050565b6111cb81610fd1565b81146111d5575f5ffd5b50565b5f813590506111e6816111c2565b92915050565b5f5f6040838503121561120257611201610e46565b5b5f83013567ffffffffffffffff81111561121f5761121e610e4a565b5b61122b85828601610f5d565b925050602061123c858286016111d8565b9150509250929050565b61124f81611021565b82525050565b5f6020820190506112685f830184611246565b92915050565b5f6020828403121561128357611282610e46565b5b5f611290848285016111d8565b91505092915050565b5f82825260208201905092915050565b5f6112b3826110b0565b6112bd8185611299565b93506112cd8185602086016110ca565b6112d681610e56565b840191505092915050565b5f6020820190508181035f8301526112f981846112a9565b905092915050565b5f81905092915050565b5f611315826110b0565b61131f8185611301565b935061132f8185602086016110ca565b80840191505092915050565b5f611346828461130b565b915081905092915050565b7f43757272656e6379206e6f7420737570706f72746564000000000000000000005f82015250565b5f611385601683611299565b915061139082611351565b602082019050919050565b5f6020820190508181035f8301526113b281611379565b9050919050565b7f4e487b71000000000000000000000000000000000000000000000000000000005f52602260045260245ffd5b5f60028204905060018216806113fd57607f821691505b6020821081036114105761140f6113b9565b5b50919050565b7f4f6e6c79206f776e65722063616e20706572666f726d207468697320616374695f8201527f6f6e2e0000000000000000000000000000000000000000000000000000000000602082015250565b5f611470602383611299565b915061147b82611416565b604082019050919050565b5f6020820190508181035f83015261149d81611464565b9050919050565b7f4e6f207469707320746f207769746864726177000000000000000000000000005f82015250565b5f6114d8601383611299565b91506114e3826114a4565b602082019050919050565b5f6020820190508181035f830152611505816114cc565b9050919050565b5f81905092915050565b50565b5f6115245f8361150c565b915061152f82611516565b5f82019050919050565b5f61154382611519565b9150819050919050565b7f5472616e73666572206661696c656400000000000000000000000000000000005f82015250565b5f611581600f83611299565b915061158c8261154d565b602082019050919050565b5f6020820190508181035f8301526115ae81611575565b9050919050565b7f52617465206d7573742062652067726561746572207468616e20302e000000005f82015250565b5f6115e9601c83611299565b91506115f4826115b5565b602082019050919050565b5f6020820190508181035f830152611616816115dd565b9050919050565b5f819050815f5260205f209050919050565b5f6020601f8301049050919050565b5f82821b905092915050565b5f600883026116797fffffffffffffffffffffffffffffffffffffffffffffffffffffffffffffffff8261163e565b611683868361163e565b95508019841693508086168417925050509392505050565b5f819050919050565b5f6116be6116b96116b484610fd1565b61169b565b610fd1565b9050919050565b5f819050919050565b6116d7836116a4565b6116eb6116e3826116c5565b84845461164a565b825550505050565b5f5f905090565b6117026116f3565b61170d8184846116ce565b505050565b5b81811015611730576117255f826116fa565b600181019050611713565b5050565b601f821115611775576117468161161d565b61174f8461162f565b8101602085101561175e578190505b61177261176a8561162f565b830182611712565b50505b505050565b5f82821c905092915050565b5f6117955f198460080261177a565b1980831691505092915050565b5f6117ad8383611786565b9150826002028217905092915050565b6117c6826110b0565b67ffffffffffffffff8111156117df576117de610e66565b5b6117e982546113e6565b6117f4828285611734565b5f60209050601f831160018114611825575f8415611813578287015190505b61181d85826117a2565b865550611884565b601f1984166118338661161d565b5f5b8281101561185a57848901518255600182019150602085019450602081019050611835565b868310156118775784890151611873601f891682611786565b8355505b6001600288020188555050505b505050505050565b7f43757272656e6379206e6f7420737570706f727465642e0000000000000000005f82015250565b5f6118c0601783611299565b91506118cb8261188c565b602082019050919050565b5f6020820190508181035f8301526118ed816118b4565b9050919050565b7f4e487b71000000000000000000000000000000000000000000000000000000005f52601160045260245ffd5b5f61192b82610fd1565b915061193683610fd1565b925082820261194481610fd1565b9150828204841483151761195b5761195a6118f4565b5b5092915050565b7f416d6f756e74206d7573742062652067726561746572207468616e20300000005f82015250565b5f611996601d83611299565b91506119a182611962565b602082019050919050565b5f6020820190508181035f8301526119c38161198a565b9050919050565b7f53656e742045544820646f65736e2774206d617463682074686520636f6e76655f8201527f7274656420616d6f756e74000000000000000000000000000000000000000000602082015250565b5f611a24602b83611299565b9150611a2f826119ca565b604082019050919050565b5f6020820190508181035f830152611a5181611a18565b9050919050565b5f611a6282610fd1565b9150611a6d83610fd1565b9250828201905080821115611a8557611a846118f4565b5b92915050565b7f54697020616d6f756e74206d7573742062652067726561746572207468616e205f8201527f302e000000000000000000000000000000000000000000000000000000000000602082015250565b5f611ae5602283611299565b9150611af082611a8b565b604082019050919050565b5f6020820190508181035f830152611b1281611ad9565b9050919050565b7f45544800000000000000000000000000000000000000000000000000000000005f82015250565b5f611b4d600383611301565b9150611b5882611b19565b600382019050919050565b5f611b6d82611b41565b9150819050919050565b7f496e76616c6964206164647265737300000000000000000000000000000000005f82015250565b5f611bab600f83611299565b9150611bb682611b77565b602082019050919050565b5f6020820190508181035f830152611bd881611b9f565b905091905056fea2646970667358221220c7b16cd2faac0605ae46231091f27e22446fe3d00341061529de40107098873f64736f6c634300081f0033",
					"opcodes": "PUSH1 0x80 PUSH1 0x40 MSTORE CALLVALUE DUP1 ISZERO PUSH2 0xF JUMPI PUSH0 PUSH0 REVERT JUMPDEST POP CALLER PUSH0 PUSH0 PUSH2 0x100 EXP DUP2 SLOAD DUP2 PUSH20 0xFFFFFFFFFFFFFFFFFFFFFFFFFFFFFFFFFFFFFFFF MUL NOT AND SWAP1 DUP4 PUSH20 0xFFFFFFFFFFFFFFFFFFFFFFFFFFFFFFFFFFFFFFFF AND MUL OR SWAP1 SSTORE POP PUSH2 0x9B PUSH1 0x40 MLOAD DUP1 PUSH1 0x40 ADD PUSH1 0x40 MSTORE DUP1 PUSH1 0x3 DUP2 MSTORE PUSH1 0x20 ADD PUSH32 0x5553440000000000000000000000000000000000000000000000000000000000 DUP2 MSTORE POP PUSH7 0x1C6BF52634000 PUSH2 0x183 PUSH1 0x20 SHL PUSH1 0x20 SHR JUMP JUMPDEST PUSH2 0xE7 PUSH1 0x40 MLOAD DUP1 PUSH1 0x40 ADD PUSH1 0x40 MSTORE DUP1 PUSH1 0x3 DUP2 MSTORE PUSH1 0x20 ADD PUSH32 0x4555520000000000000000000000000000000000000000000000000000000000 DUP2 MSTORE POP PUSH7 0x221B262DD8000 PUSH2 0x183 PUSH1 0x20 SHL PUSH1 0x20 SHR JUMP JUMPDEST PUSH2 0x132 PUSH1 0x40 MLOAD DUP1 PUSH1 0x40 ADD PUSH1 0x40 MSTORE DUP1 PUSH1 0x3 DUP2 MSTORE PUSH1 0x20 ADD PUSH32 0x4A50590000000000000000000000000000000000000000000000000000000000 DUP2 MSTORE POP PUSH6 0x3A352944000 PUSH2 0x183 PUSH1 0x20 SHL PUSH1 0x20 SHR JUMP JUMPDEST PUSH2 0x17E PUSH1 0x40 MLOAD DUP1 PUSH1 0x40 ADD PUSH1 0x40 MSTORE DUP1 PUSH1 0x3 DUP2 MSTORE PUSH1 0x20 ADD PUSH32 0x4742500000000000000000000000000000000000000000000000000000000000 DUP2 MSTORE POP PUSH7 0x27CA57357C000 PUSH2 0x183 PUSH1 0x20 SHL PUSH1 0x20 SHR JUMP JUMPDEST PUSH2 0x788 JUMP JUMPDEST PUSH0 PUSH0 SWAP1 SLOAD SWAP1 PUSH2 0x100 EXP SWAP1 DIV PUSH20 0xFFFFFFFFFFFFFFFFFFFFFFFFFFFFFFFFFFFFFFFF AND PUSH20 0xFFFFFFFFFFFFFFFFFFFFFFFFFFFFFFFFFFFFFFFF AND CALLER PUSH20 0xFFFFFFFFFFFFFFFFFFFFFFFFFFFFFFFFFFFFFFFF AND EQ PUSH2 0x211 JUMPI PUSH1 0x40 MLOAD PUSH32 0x8C379A000000000000000000000000000000000000000000000000000000000 DUP2 MSTORE PUSH1 0x4 ADD PUSH2 0x208 SWAP1 PUSH2 0x398 JUMP JUMPDEST PUSH1 0x40 MLOAD DUP1 SWAP2 SUB SWAP1 REVERT JUMPDEST PUSH0 DUP2 GT PUSH2 0x253 JUMPI PUSH1 0x40 MLOAD PUSH32 0x8C379A000000000000000000000000000000000000000000000000000000000 DUP2 MSTORE PUSH1 0x4 ADD PUSH2 0x24A SWAP1 PUSH2 0x400 JUMP JUMPDEST PUSH1 0x40 MLOAD DUP1 SWAP2 SUB SWAP1 REVERT JUMPDEST PUSH0 ISZERO ISZERO PUSH1 0x6 DUP4 PUSH1 0x40 MLOAD PUSH2 0x266 SWAP2 SWAP1 PUSH2 0x470 JUMP JUMPDEST SWAP1 DUP2 MSTORE PUSH1 0x20 ADD PUSH1 0x40 MLOAD DUP1 SWAP2 SUB SWAP1 KECCAK256 PUSH0 SWAP1 SLOAD SWAP1 PUSH2 0x100 EXP SWAP1 DIV PUSH1 0xFF AND ISZERO ISZERO SUB PUSH2 0x2F1 JUMPI PUSH1 0x2 DUP3 SWAP1 DUP1 PUSH1 0x1 DUP2 SLOAD ADD DUP1 DUP3 SSTORE DUP1 SWAP2 POP POP PUSH1 0x1 SWAP1 SUB SWAP1 PUSH0 MSTORE PUSH1 0x20 PUSH0 KECCAK256 ADD PUSH0 SWAP1 SWAP2 SWAP1 SWAP2 SWAP1 SWAP2 POP SWAP1 DUP2 PUSH2 0x2B9 SWAP2 SWAP1 PUSH2 0x6B9 JUMP JUMPDEST POP PUSH1 0x1 PUSH1 0x6 DUP4 PUSH1 0x40 MLOAD PUSH2 0x2CC SWAP2 SWAP1 PUSH2 0x470 JUMP JUMPDEST SWAP1 DUP2 MSTORE PUSH1 0x20 ADD PUSH1 0x40 MLOAD DUP1 SWAP2 SUB SWAP1 KECCAK256 PUSH0 PUSH2 0x100 EXP DUP2 SLOAD DUP2 PUSH1 0xFF MUL NOT AND SWAP1 DUP4 ISZERO ISZERO MUL OR SWAP1 SSTORE POP JUMPDEST DUP1 PUSH1 0x1 DUP4 PUSH1 0x40 MLOAD PUSH2 0x302 SWAP2 SWAP1 PUSH2 0x470 JUMP JUMPDEST SWAP1 DUP2 MSTORE PUSH1 0x20 ADD PUSH1 0x40 MLOAD DUP1 SWAP2 SUB SWAP1 KECCAK256 DUP2 SWAP1 SSTORE POP POP POP JUMP JUMPDEST PUSH0 DUP3 DUP3 MSTORE PUSH1 0x20 DUP3 ADD SWAP1 POP SWAP3 SWAP2 POP POP JUMP JUMPDEST PUSH32 0x4F6E6C79206F776E65722063616E20706572666F726D20746869732061637469 PUSH0 DUP3 ADD MSTORE PUSH32 0x6F6E2E0000000000000000000000000000000000000000000000000000000000 PUSH1 0x20 DUP3 ADD MSTORE POP JUMP JUMPDEST PUSH0 PUSH2 0x382 PUSH1 0x23 DUP4 PUSH2 0x318 JUMP JUMPDEST SWAP2 POP PUSH2 0x38D DUP3 PUSH2 0x328 JUMP JUMPDEST PUSH1 0x40 DUP3 ADD SWAP1 POP SWAP2 SWAP1 POP JUMP JUMPDEST PUSH0 PUSH1 0x20 DUP3 ADD SWAP1 POP DUP2 DUP2 SUB PUSH0 DUP4 ADD MSTORE PUSH2 0x3AF DUP2 PUSH2 0x376 JUMP JUMPDEST SWAP1 POP SWAP2 SWAP1 POP JUMP JUMPDEST PUSH32 0x52617465206D7573742062652067726561746572207468616E20302E00000000 PUSH0 DUP3 ADD MSTORE POP JUMP JUMPDEST PUSH0 PUSH2 0x3EA PUSH1 0x1C DUP4 PUSH2 0x318 JUMP JUMPDEST SWAP2 POP PUSH2 0x3F5 DUP3 PUSH2 0x3B6 JUMP JUMPDEST PUSH1 0x20 DUP3 ADD SWAP1 POP SWAP2 SWAP1 POP JUMP JUMPDEST PUSH0 PUSH1 0x20 DUP3 ADD SWAP1 POP DUP2 DUP2 SUB PUSH0 DUP4 ADD MSTORE PUSH2 0x417 DUP2 PUSH2 0x3DE JUMP JUMPDEST SWAP1 POP SWAP2 SWAP1 POP JUMP JUMPDEST PUSH0 DUP2 MLOAD SWAP1 POP SWAP2 SWAP1 POP JUMP JUMPDEST PUSH0 DUP2 SWAP1 POP SWAP3 SWAP2 POP POP JUMP JUMPDEST DUP3 DUP2 DUP4 MCOPY PUSH0 DUP4 DUP4 ADD MSTORE POP POP POP JUMP JUMPDEST PUSH0 PUSH2 0x44A DUP3 PUSH2 0x41E JUMP JUMPDEST PUSH2 0x454 DUP2 DUP6 PUSH2 0x428 JUMP JUMPDEST SWAP4 POP PUSH2 0x464 DUP2 DUP6 PUSH1 0x20 DUP7 ADD PUSH2 0x432 JUMP JUMPDEST DUP1 DUP5 ADD SWAP2 POP POP SWAP3 SWAP2 POP POP JUMP JUMPDEST PUSH0 PUSH2 0x47B DUP3 DUP5 PUSH2 0x440 JUMP JUMPDEST SWAP2 POP DUP2 SWAP1 POP SWAP3 SWAP2 POP POP JUMP JUMPDEST PUSH32 0x4E487B7100000000000000000000000000000000000000000000000000000000 PUSH0 MSTORE PUSH1 0x41 PUSH1 0x4 MSTORE PUSH1 0x24 PUSH0 REVERT JUMPDEST PUSH32 0x4E487B7100000000000000000000000000000000000000000000000000000000 PUSH0 MSTORE PUSH1 0x22 PUSH1 0x4 MSTORE PUSH1 0x24 PUSH0 REVERT JUMPDEST PUSH0 PUSH1 0x2 DUP3 DIV SWAP1 POP PUSH1 0x1 DUP3 AND DUP1 PUSH2 0x4F7 JUMPI PUSH1 0x7F DUP3 AND SWAP2 POP JUMPDEST PUSH1 0x20 DUP3 LT DUP2 SUB PUSH2 0x50A JUMPI PUSH2 0x509 PUSH2 0x4B3 JUMP JUMPDEST JUMPDEST POP SWAP2 SWAP1 POP JUMP JUMPDEST PUSH0 DUP2 SWAP1 POP DUP2 PUSH0 MSTORE PUSH1 0x20 PUSH0 KECCAK256 SWAP1 POP SWAP2 SWAP1 POP JUMP JUMPDEST PUSH0 PUSH1 0x20 PUSH1 0x1F DUP4 ADD DIV SWAP1 POP SWAP2 SWAP1 POP JUMP JUMPDEST PUSH0 DUP3 DUP3 SHL SWAP1 POP SWAP3 SWAP2 POP POP JUMP JUMPDEST PUSH0 PUSH1 0x8 DUP4 MUL PUSH2 0x56C PUSH32 0xFFFFFFFFFFFFFFFFFFFFFFFFFFFFFFFFFFFFFFFFFFFFFFFFFFFFFFFFFFFFFFFF DUP3 PUSH2 0x531 JUMP JUMPDEST PUSH2 0x576 DUP7 DUP4 PUSH2 0x531 JUMP JUMPDEST SWAP6 POP DUP1 NOT DUP5 AND SWAP4 POP DUP1 DUP7 AND DUP5 OR SWAP3 POP POP POP SWAP4 SWAP3 POP POP POP JUMP JUMPDEST PUSH0 DUP2 SWAP1 POP SWAP2 SWAP1 POP JUMP JUMPDEST PUSH0 DUP2 SWAP1 POP SWAP2 SWAP1 POP JUMP JUMPDEST PUSH0 PUSH2 0x5BA PUSH2 0x5B5 PUSH2 0x5B0 DUP5 PUSH2 0x58E JUMP JUMPDEST PUSH2 0x597 JUMP JUMPDEST PUSH2 0x58E JUMP JUMPDEST SWAP1 POP SWAP2 SWAP1 POP JUMP JUMPDEST PUSH0 DUP2 SWAP1 POP SWAP2 SWAP1 POP JUMP JUMPDEST PUSH2 0x5D3 DUP4 PUSH2 0x5A0 JUMP JUMPDEST PUSH2 0x5E7 PUSH2 0x5DF DUP3 PUSH2 0x5C1 JUMP JUMPDEST DUP5 DUP5 SLOAD PUSH2 0x53D JUMP JUMPDEST DUP3 SSTORE POP POP POP POP JUMP JUMPDEST PUSH0 PUSH0 SWAP1 POP SWAP1 JUMP JUMPDEST PUSH2 0x5FE PUSH2 0x5EF JUMP JUMPDEST PUSH2 0x609 DUP2 DUP5 DUP5 PUSH2 0x5CA JUMP JUMPDEST POP POP POP JUMP JUMPDEST JUMPDEST DUP2 DUP2 LT ISZERO PUSH2 0x62C JUMPI PUSH2 0x621 PUSH0 DUP3 PUSH2 0x5F6 JUMP JUMPDEST PUSH1 0x1 DUP2 ADD SWAP1 POP PUSH2 0x60F JUMP JUMPDEST POP POP JUMP JUMPDEST PUSH1 0x1F DUP3 GT ISZERO PUSH2 0x671 JUMPI PUSH2 0x642 DUP2 PUSH2 0x510 JUMP JUMPDEST PUSH2 0x64B DUP5 PUSH2 0x522 JUMP JUMPDEST DUP2 ADD PUSH1 0x20 DUP6 LT ISZERO PUSH2 0x65A JUMPI DUP2 SWAP1 POP JUMPDEST PUSH2 0x66E PUSH2 0x666 DUP6 PUSH2 0x522 JUMP JUMPDEST DUP4 ADD DUP3 PUSH2 0x60E JUMP JUMPDEST POP POP JUMPDEST POP POP POP JUMP JUMPDEST PUSH0 DUP3 DUP3 SHR SWAP1 POP SWAP3 SWAP2 POP POP JUMP JUMPDEST PUSH0 PUSH2 0x691 PUSH0 NOT DUP5 PUSH1 0x8 MUL PUSH2 0x676 JUMP JUMPDEST NOT DUP1 DUP4 AND SWAP2 POP POP SWAP3 SWAP2 POP POP JUMP JUMPDEST PUSH0 PUSH2 0x6A9 DUP4 DUP4 PUSH2 0x682 JUMP JUMPDEST SWAP2 POP DUP3 PUSH1 0x2 MUL DUP3 OR SWAP1 POP SWAP3 SWAP2 POP POP JUMP JUMPDEST PUSH2 0x6C2 DUP3 PUSH2 0x41E JUMP JUMPDEST PUSH8 0xFFFFFFFFFFFFFFFF DUP2 GT ISZERO PUSH2 0x6DB JUMPI PUSH2 0x6DA PUSH2 0x486 JUMP JUMPDEST JUMPDEST PUSH2 0x6E5 DUP3 SLOAD PUSH2 0x4E0 JUMP JUMPDEST PUSH2 0x6F0 DUP3 DUP3 DUP6 PUSH2 0x630 JUMP JUMPDEST PUSH0 PUSH1 0x20 SWAP1 POP PUSH1 0x1F DUP4 GT PUSH1 0x1 DUP2 EQ PUSH2 0x721 JUMPI PUSH0 DUP5 ISZERO PUSH2 0x70F JUMPI DUP3 DUP8 ADD MLOAD SWAP1 POP JUMPDEST PUSH2 0x719 DUP6 DUP3 PUSH2 0x69E JUMP JUMPDEST DUP7 SSTORE POP PUSH2 0x780 JUMP JUMPDEST PUSH1 0x1F NOT DUP5 AND PUSH2 0x72F DUP7 PUSH2 0x510 JUMP JUMPDEST PUSH0 JUMPDEST DUP3 DUP2 LT ISZERO PUSH2 0x756 JUMPI DUP5 DUP10 ADD MLOAD DUP3 SSTORE PUSH1 0x1 DUP3 ADD SWAP2 POP PUSH1 0x20 DUP6 ADD SWAP5 POP PUSH1 0x20 DUP2 ADD SWAP1 POP PUSH2 0x731 JUMP JUMPDEST DUP7 DUP4 LT ISZERO PUSH2 0x773 JUMPI DUP5 DUP10 ADD MLOAD PUSH2 0x76F PUSH1 0x1F DUP10 AND DUP3 PUSH2 0x682 JUMP JUMPDEST DUP4 SSTORE POP JUMPDEST PUSH1 0x1 PUSH1 0x2 DUP9 MUL ADD DUP9 SSTORE POP POP POP JUMPDEST POP POP POP POP POP POP JUMP JUMPDEST PUSH2 0x1C15 DUP1 PUSH2 0x795 PUSH0 CODECOPY PUSH0 RETURN INVALID PUSH1 0x80 PUSH1 0x40 MSTORE PUSH1 0x4 CALLDATASIZE LT PUSH2 0xF2 JUMPI PUSH0 CALLDATALOAD PUSH1 0xE0 SHR DUP1 PUSH4 0x6DE0938B GT PUSH2 0x89 JUMPI DUP1 PUSH4 0x9C88E42D GT PUSH2 0x58 JUMPI DUP1 PUSH4 0x9C88E42D EQ PUSH2 0x356 JUMPI DUP1 PUSH4 0xB8443702 EQ PUSH2 0x372 JUMPI DUP1 PUSH4 0xEFE8C084 EQ PUSH2 0x37C JUMPI DUP1 PUSH4 0xF2FDE38B EQ PUSH2 0x3A6 JUMPI PUSH2 0xF2 JUMP JUMPDEST DUP1 PUSH4 0x6DE0938B EQ PUSH2 0x28A JUMPI DUP1 PUSH4 0x6F9FB98A EQ PUSH2 0x2C6 JUMPI DUP1 PUSH4 0x8DA5CB5B EQ PUSH2 0x2F0 JUMPI DUP1 PUSH4 0x97BF7935 EQ PUSH2 0x31A JUMPI PUSH2 0xF2 JUMP JUMPDEST DUP1 PUSH4 0x2CE75863 GT PUSH2 0xC5 JUMPI DUP1 PUSH4 0x2CE75863 EQ PUSH2 0x1E6 JUMPI DUP1 PUSH4 0x3AAA74B2 EQ PUSH2 0x210 JUMPI DUP1 PUSH4 0x5C41FECE EQ PUSH2 0x226 JUMPI DUP1 PUSH4 0x5C49C825 EQ PUSH2 0x262 JUMPI PUSH2 0xF2 JUMP JUMPDEST DUP1 PUSH4 0xD9BA15F EQ PUSH2 0xF6 JUMPI DUP1 PUSH4 0x10E1D1D4 EQ PUSH2 0x132 JUMPI DUP1 PUSH4 0x1FAC531B EQ PUSH2 0x16E JUMPI DUP1 PUSH4 0x223506A7 EQ PUSH2 0x1AA JUMPI JUMPDEST PUSH0 PUSH0 REVERT JUMPDEST CALLVALUE DUP1 ISZERO PUSH2 0x101 JUMPI PUSH0 PUSH0 REVERT JUMPDEST POP PUSH2 0x11C PUSH1 0x4 DUP1 CALLDATASIZE SUB DUP2 ADD SWAP1 PUSH2 0x117 SWAP2 SWAP1 PUSH2 0xF8A JUMP JUMPDEST PUSH2 0x3CE JUMP JUMPDEST PUSH1 0x40 MLOAD PUSH2 0x129 SWAP2 SWAP1 PUSH2 0xFE9 JUMP JUMPDEST PUSH1 0x40 MLOAD DUP1 SWAP2 SUB SWAP1 RETURN JUMPDEST CALLVALUE DUP1 ISZERO PUSH2 0x13D JUMPI PUSH0 PUSH0 REVERT JUMPDEST POP PUSH2 0x158 PUSH1 0x4 DUP1 CALLDATASIZE SUB DUP2 ADD SWAP1 PUSH2 0x153 SWAP2 SWAP1 PUSH2 0x105C JUMP JUMPDEST PUSH2 0x3FB JUMP JUMPDEST PUSH1 0x40 MLOAD PUSH2 0x165 SWAP2 SWAP1 PUSH2 0xFE9 JUMP JUMPDEST PUSH1 0x40 MLOAD DUP1 SWAP2 SUB SWAP1 RETURN JUMPDEST CALLVALUE DUP1 ISZERO PUSH2 0x179 JUMPI PUSH0 PUSH0 REVERT JUMPDEST POP PUSH2 0x194 PUSH1 0x4 DUP1 CALLDATASIZE SUB DUP2 ADD SWAP1 PUSH2 0x18F SWAP2 SWAP1 PUSH2 0xF8A JUMP JUMPDEST PUSH2 0x410 JUMP JUMPDEST PUSH1 0x40 MLOAD PUSH2 0x1A1 SWAP2 SWAP1 PUSH2 0xFE9 JUMP JUMPDEST PUSH1 0x40 MLOAD DUP1 SWAP2 SUB SWAP1 RETURN JUMPDEST CALLVALUE DUP1 ISZERO PUSH2 0x1B5 JUMPI PUSH0 PUSH0 REVERT JUMPDEST POP PUSH2 0x1D0 PUSH1 0x4 DUP1 CALLDATASIZE SUB DUP2 ADD SWAP1 PUSH2 0x1CB SWAP2 SWAP1 PUSH2 0x105C JUMP JUMPDEST PUSH2 0x497 JUMP JUMPDEST PUSH1 0x40 MLOAD PUSH2 0x1DD SWAP2 SWAP1 PUSH2 0xFE9 JUMP JUMPDEST PUSH1 0x40 MLOAD DUP1 SWAP2 SUB SWAP1 RETURN JUMPDEST CALLVALUE DUP1 ISZERO PUSH2 0x1F1 JUMPI PUSH0 PUSH0 REVERT JUMPDEST POP PUSH2 0x1FA PUSH2 0x4DD JUMP JUMPDEST PUSH1 0x40 MLOAD PUSH2 0x207 SWAP2 SWAP1 PUSH2 0x11A2 JUMP JUMPDEST PUSH1 0x40 MLOAD DUP1 SWAP2 SUB SWAP1 RETURN JUMPDEST CALLVALUE DUP1 ISZERO PUSH2 0x21B JUMPI PUSH0 PUSH0 REVERT JUMPDEST POP PUSH2 0x224 PUSH2 0x5B1 JUMP JUMPDEST STOP JUMPDEST CALLVALUE DUP1 ISZERO PUSH2 0x231 JUMPI PUSH0 PUSH0 REVERT JUMPDEST POP PUSH2 0x24C PUSH1 0x4 DUP1 CALLDATASIZE SUB DUP2 ADD SWAP1 PUSH2 0x247 SWAP2 SWAP1 PUSH2 0xF8A JUMP JUMPDEST PUSH2 0x758 JUMP JUMPDEST PUSH1 0x40 MLOAD PUSH2 0x259 SWAP2 SWAP1 PUSH2 0xFE9 JUMP JUMPDEST PUSH1 0x40 MLOAD DUP1 SWAP2 SUB SWAP1 RETURN JUMPDEST CALLVALUE DUP1 ISZERO PUSH2 0x26D JUMPI PUSH0 PUSH0 REVERT JUMPDEST POP PUSH2 0x288 PUSH1 0x4 DUP1 CALLDATASIZE SUB DUP2 ADD SWAP1 PUSH2 0x283 SWAP2 SWAP1 PUSH2 0x11EC JUMP JUMPDEST PUSH2 0x785 JUMP JUMPDEST STOP JUMPDEST CALLVALUE DUP1 ISZERO PUSH2 0x295 JUMPI PUSH0 PUSH0 REVERT JUMPDEST POP PUSH2 0x2B0 PUSH1 0x4 DUP1 CALLDATASIZE SUB DUP2 ADD SWAP1 PUSH2 0x2AB SWAP2 SWAP1 PUSH2 0x11EC JUMP JUMPDEST PUSH2 0x91A JUMP JUMPDEST PUSH1 0x40 MLOAD PUSH2 0x2BD SWAP2 SWAP1 PUSH2 0xFE9 JUMP JUMPDEST PUSH1 0x40 MLOAD DUP1 SWAP2 SUB SWAP1 RETURN JUMPDEST CALLVALUE DUP1 ISZERO PUSH2 0x2D1 JUMPI PUSH0 PUSH0 REVERT JUMPDEST POP PUSH2 0x2DA PUSH2 0x9B2 JUMP JUMPDEST PUSH1 0x40 MLOAD PUSH2 0x2E7 SWAP2 SWAP1 PUSH2 0xFE9 JUMP JUMPDEST PUSH1 0x40 MLOAD DUP1 SWAP2 SUB SWAP1 RETURN JUMPDEST CALLVALUE DUP1 ISZERO PUSH2 0x2FB JUMPI PUSH0 PUSH0 REVERT JUMPDEST POP PUSH2 0x304 PUSH2 0x9B9 JUMP JUMPDEST PUSH1 0x40 MLOAD PUSH2 0x311 SWAP2 SWAP1 PUSH2 0x1255 JUMP JUMPDEST PUSH1 0x40 MLOAD DUP1 SWAP2 SUB SWAP1 RETURN JUMPDEST CALLVALUE DUP1 ISZERO PUSH2 0x325 JUMPI PUSH0 PUSH0 REVERT JUMPDEST POP PUSH2 0x340 PUSH1 0x4 DUP1 CALLDATASIZE SUB DUP2 ADD SWAP1 PUSH2 0x33B SWAP2 SWAP1 PUSH2 0x126E JUMP JUMPDEST PUSH2 0x9DD JUMP JUMPDEST PUSH1 0x40 MLOAD PUSH2 0x34D SWAP2 SWAP1 PUSH2 0x12E1 JUMP JUMPDEST PUSH1 0x40 MLOAD DUP1 SWAP2 SUB SWAP1 RETURN JUMPDEST PUSH2 0x370 PUSH1 0x4 DUP1 CALLDATASIZE SUB DUP2 ADD SWAP1 PUSH2 0x36B SWAP2 SWAP1 PUSH2 0x11EC JUMP JUMPDEST PUSH2 0xA83 JUMP JUMPDEST STOP JUMPDEST PUSH2 0x37A PUSH2 0xC18 JUMP JUMPDEST STOP JUMPDEST CALLVALUE DUP1 ISZERO PUSH2 0x387 JUMPI PUSH0 PUSH0 REVERT JUMPDEST POP PUSH2 0x390 PUSH2 0xCF9 JUMP JUMPDEST PUSH1 0x40 MLOAD PUSH2 0x39D SWAP2 SWAP1 PUSH2 0xFE9 JUMP JUMPDEST PUSH1 0x40 MLOAD DUP1 SWAP2 SUB SWAP1 RETURN JUMPDEST CALLVALUE DUP1 ISZERO PUSH2 0x3B1 JUMPI PUSH0 PUSH0 REVERT JUMPDEST POP PUSH2 0x3CC PUSH1 0x4 DUP1 CALLDATASIZE SUB DUP2 ADD SWAP1 PUSH2 0x3C7 SWAP2 SWAP1 PUSH2 0x105C JUMP JUMPDEST PUSH2 0xCFF JUMP JUMPDEST STOP JUMPDEST PUSH1 0x5 DUP2 DUP1 MLOAD PUSH1 0x20 DUP2 ADD DUP3 ADD DUP1 MLOAD DUP5 DUP3 MSTORE PUSH1 0x20 DUP4 ADD PUSH1 0x20 DUP6 ADD KECCAK256 DUP2 DUP4 MSTORE DUP1 SWAP6 POP POP POP POP POP POP PUSH0 SWAP2 POP SWAP1 POP SLOAD DUP2 JUMP JUMPDEST PUSH1 0x4 PUSH1 0x20 MSTORE DUP1 PUSH0 MSTORE PUSH1 0x40 PUSH0 KECCAK256 PUSH0 SWAP2 POP SWAP1 POP SLOAD DUP2 JUMP JUMPDEST PUSH0 PUSH0 PUSH1 0x1 DUP4 PUSH1 0x40 MLOAD PUSH2 0x422 SWAP2 SWAP1 PUSH2 0x133B JUMP JUMPDEST SWAP1 DUP2 MSTORE PUSH1 0x20 ADD PUSH1 0x40 MLOAD DUP1 SWAP2 SUB SWAP1 KECCAK256 SLOAD GT PUSH2 0x471 JUMPI PUSH1 0x40 MLOAD PUSH32 0x8C379A000000000000000000000000000000000000000000000000000000000 DUP2 MSTORE PUSH1 0x4 ADD PUSH2 0x468 SWAP1 PUSH2 0x139B JUMP JUMPDEST PUSH1 0x40 MLOAD DUP1 SWAP2 SUB SWAP1 REVERT JUMPDEST PUSH1 0x1 DUP3 PUSH1 0x40 MLOAD PUSH2 0x481 SWAP2 SWAP1 PUSH2 0x133B JUMP JUMPDEST SWAP1 DUP2 MSTORE PUSH1 0x20 ADD PUSH1 0x40 MLOAD DUP1 SWAP2 SUB SWAP1 KECCAK256 SLOAD SWAP1 POP SWAP2 SWAP1 POP JUMP JUMPDEST PUSH0 PUSH1 0x4 PUSH0 DUP4 PUSH20 0xFFFFFFFFFFFFFFFFFFFFFFFFFFFFFFFFFFFFFFFF AND PUSH20 0xFFFFFFFFFFFFFFFFFFFFFFFFFFFFFFFFFFFFFFFF AND DUP2 MSTORE PUSH1 0x20 ADD SWAP1 DUP2 MSTORE PUSH1 0x20 ADD PUSH0 KECCAK256 SLOAD SWAP1 POP SWAP2 SWAP1 POP JUMP JUMPDEST PUSH1 0x60 PUSH1 0x2 DUP1 SLOAD DUP1 PUSH1 0x20 MUL PUSH1 0x20 ADD PUSH1 0x40 MLOAD SWAP1 DUP2 ADD PUSH1 0x40 MSTORE DUP1 SWAP3 SWAP2 SWAP1 DUP2 DUP2 MSTORE PUSH1 0x20 ADD PUSH0 SWAP1 JUMPDEST DUP3 DUP3 LT ISZERO PUSH2 0x5A8 JUMPI DUP4 DUP3 SWAP1 PUSH0 MSTORE PUSH1 0x20 PUSH0 KECCAK256 ADD DUP1 SLOAD PUSH2 0x51D SWAP1 PUSH2 0x13E6 JUMP JUMPDEST DUP1 PUSH1 0x1F ADD PUSH1 0x20 DUP1 SWAP2 DIV MUL PUSH1 0x20 ADD PUSH1 0x40 MLOAD SWAP1 DUP2 ADD PUSH1 0x40 MSTORE DUP1 SWAP3 SWAP2 SWAP1 DUP2 DUP2 MSTORE PUSH1 0x20 ADD DUP3 DUP1 SLOAD PUSH2 0x549 SWAP1 PUSH2 0x13E6 JUMP JUMPDEST DUP1 ISZERO PUSH2 0x594 JUMPI DUP1 PUSH1 0x1F LT PUSH2 0x56B JUMPI PUSH2 0x100 DUP1 DUP4 SLOAD DIV MUL DUP4 MSTORE SWAP2 PUSH1 0x20 ADD SWAP2 PUSH2 0x594 JUMP JUMPDEST DUP3 ADD SWAP2 SWAP1 PUSH0 MSTORE PUSH1 0x20 PUSH0 KECCAK256 SWAP1 JUMPDEST DUP2 SLOAD DUP2 MSTORE SWAP1 PUSH1 0x1 ADD SWAP1 PUSH1 0x20 ADD DUP1 DUP4 GT PUSH2 0x577 JUMPI DUP3 SWAP1 SUB PUSH1 0x1F AND DUP3 ADD SWAP2 JUMPDEST POP POP POP POP POP DUP2 MSTORE PUSH1 0x20 ADD SWAP1 PUSH1 0x1 ADD SWAP1 PUSH2 0x500 JUMP JUMPDEST POP POP POP POP SWAP1 POP SWAP1 JUMP JUMPDEST PUSH0 PUSH0 SWAP1 SLOAD SWAP1 PUSH2 0x100 EXP SWAP1 DIV PUSH20 0xFFFFFFFFFFFFFFFFFFFFFFFFFFFFFFFFFFFFFFFF AND PUSH20 0xFFFFFFFFFFFFFFFFFFFFFFFFFFFFFFFFFFFFFFFF AND CALLER PUSH20 0xFFFFFFFFFFFFFFFFFFFFFFFFFFFFFFFFFFFFFFFF AND EQ PUSH2 0x63F JUMPI PUSH1 0x40 MLOAD PUSH32 0x8C379A000000000000000000000000000000000000000000000000000000000 DUP2 MSTORE PUSH1 0x4 ADD PUSH2 0x636 SWAP1 PUSH2 0x1486 JUMP JUMPDEST PUSH1 0x40 MLOAD DUP1 SWAP2 SUB SWAP1 REVERT JUMPDEST PUSH0 PUSH1 0x3 DUP2 SWAP1 SSTORE POP PUSH0 SELFBALANCE SWAP1 POP PUSH0 DUP2 GT PUSH2 0x68C JUMPI PUSH1 0x40 MLOAD PUSH32 0x8C379A000000000000000000000000000000000000000000000000000000000 DUP2 MSTORE PUSH1 0x4 ADD PUSH2 0x683 SWAP1 PUSH2 0x14EE JUMP JUMPDEST PUSH1 0x40 MLOAD DUP1 SWAP2 SUB SWAP1 REVERT JUMPDEST PUSH0 PUSH0 PUSH0 SWAP1 SLOAD SWAP1 PUSH2 0x100 EXP SWAP1 DIV PUSH20 0xFFFFFFFFFFFFFFFFFFFFFFFFFFFFFFFFFFFFFFFF AND PUSH20 0xFFFFFFFFFFFFFFFFFFFFFFFFFFFFFFFFFFFFFFFF AND DUP3 PUSH1 0x40 MLOAD PUSH2 0x6D1 SWAP1 PUSH2 0x1539 JUMP JUMPDEST PUSH0 PUSH1 0x40 MLOAD DUP1 DUP4 SUB DUP2 DUP6 DUP8 GAS CALL SWAP3 POP POP POP RETURNDATASIZE DUP1 PUSH0 DUP2 EQ PUSH2 0x70B JUMPI PUSH1 0x40 MLOAD SWAP2 POP PUSH1 0x1F NOT PUSH1 0x3F RETURNDATASIZE ADD AND DUP3 ADD PUSH1 0x40 MSTORE RETURNDATASIZE DUP3 MSTORE RETURNDATASIZE PUSH0 PUSH1 0x20 DUP5 ADD RETURNDATACOPY PUSH2 0x710 JUMP JUMPDEST PUSH1 0x60 SWAP2 POP JUMPDEST POP POP SWAP1 POP DUP1 PUSH2 0x754 JUMPI PUSH1 0x40 MLOAD PUSH32 0x8C379A000000000000000000000000000000000000000000000000000000000 DUP2 MSTORE PUSH1 0x4 ADD PUSH2 0x74B SWAP1 PUSH2 0x1597 JUMP JUMPDEST PUSH1 0x40 MLOAD DUP1 SWAP2 SUB SWAP1 REVERT JUMPDEST POP POP JUMP JUMPDEST PUSH1 0x1 DUP2 DUP1 MLOAD PUSH1 0x20 DUP2 ADD DUP3 ADD DUP1 MLOAD DUP5 DUP3 MSTORE PUSH1 0x20 DUP4 ADD PUSH1 0x20 DUP6 ADD KECCAK256 DUP2 DUP4 MSTORE DUP1 SWAP6 POP POP POP POP POP POP PUSH0 SWAP2 POP SWAP1 POP SLOAD DUP2 JUMP JUMPDEST PUSH0 PUSH0 SWAP1 SLOAD SWAP1 PUSH2 0x100 EXP SWAP1 DIV PUSH20 0xFFFFFFFFFFFFFFFFFFFFFFFFFFFFFFFFFFFFFFFF AND PUSH20 0xFFFFFFFFFFFFFFFFFFFFFFFFFFFFFFFFFFFFFFFF AND CALLER PUSH20 0xFFFFFFFFFFFFFFFFFFFFFFFFFFFFFFFFFFFFFFFF AND EQ PUSH2 0x813 JUMPI PUSH1 0x40 MLOAD PUSH32 0x8C379A000000000000000000000000000000000000000000000000000000000 DUP2 MSTORE PUSH1 0x4 ADD PUSH2 0x80A SWAP1 PUSH2 0x1486 JUMP JUMPDEST PUSH1 0x40 MLOAD DUP1 SWAP2 SUB SWAP1 REVERT JUMPDEST PUSH0 DUP2 GT PUSH2 0x855 JUMPI PUSH1 0x40 MLOAD PUSH32 0x8C379A000000000000000000000000000000000000000000000000000000000 DUP2 MSTORE PUSH1 0x4 ADD PUSH2 0x84C SWAP1 PUSH2 0x15FF JUMP JUMPDEST PUSH1 0x40 MLOAD DUP1 SWAP2 SUB SWAP1 REVERT JUMPDEST PUSH0 ISZERO ISZERO PUSH1 0x6 DUP4 PUSH1 0x40 MLOAD PUSH2 0x868 SWAP2 SWAP1 PUSH2 0x133B JUMP JUMPDEST SWAP1 DUP2 MSTORE PUSH1 0x20 ADD PUSH1 0x40 MLOAD DUP1 SWAP2 SUB SWAP1 KECCAK256 PUSH0 SWAP1 SLOAD SWAP1 PUSH2 0x100 EXP SWAP1 DIV PUSH1 0xFF AND ISZERO ISZERO SUB PUSH2 0x8F3 JUMPI PUSH1 0x2 DUP3 SWAP1 DUP1 PUSH1 0x1 DUP2 SLOAD ADD DUP1 DUP3 SSTORE DUP1 SWAP2 POP POP PUSH1 0x1 SWAP1 SUB SWAP1 PUSH0 MSTORE PUSH1 0x20 PUSH0 KECCAK256 ADD PUSH0 SWAP1 SWAP2 SWAP1 SWAP2 SWAP1 SWAP2 POP SWAP1 DUP2 PUSH2 0x8BB SWAP2 SWAP1 PUSH2 0x17BD JUMP JUMPDEST POP PUSH1 0x1 PUSH1 0x6 DUP4 PUSH1 0x40 MLOAD PUSH2 0x8CE SWAP2 SWAP1 PUSH2 0x133B JUMP JUMPDEST SWAP1 DUP2 MSTORE PUSH1 0x20 ADD PUSH1 0x40 MLOAD DUP1 SWAP2 SUB SWAP1 KECCAK256 PUSH0 PUSH2 0x100 EXP DUP2 SLOAD DUP2 PUSH1 0xFF MUL NOT AND SWAP1 DUP4 ISZERO ISZERO MUL OR SWAP1 SSTORE POP JUMPDEST DUP1 PUSH1 0x1 DUP4 PUSH1 0x40 MLOAD PUSH2 0x904 SWAP2 SWAP1 PUSH2 0x133B JUMP JUMPDEST SWAP1 DUP2 MSTORE PUSH1 0x20 ADD PUSH1 0x40 MLOAD DUP1 SWAP2 SUB SWAP1 KECCAK256 DUP2 SWAP1 SSTORE POP POP POP JUMP JUMPDEST PUSH0 PUSH0 PUSH1 0x1 DUP5 PUSH1 0x40 MLOAD PUSH2 0x92C SWAP2 SWAP1 PUSH2 0x133B JUMP JUMPDEST SWAP1 DUP2 MSTORE PUSH1 0x20 ADD PUSH1 0x40 MLOAD DUP1 SWAP2 SUB SWAP1 KECCAK256 SLOAD GT PUSH2 0x97B JUMPI PUSH1 0x40 MLOAD PUSH32 0x8C379A000000000000000000000000000000000000000000000000000000000 DUP2 MSTORE PUSH1 0x4 ADD PUSH2 0x972 SWAP1 PUSH2 0x18D6 JUMP JUMPDEST PUSH1 0x40 MLOAD DUP1 SWAP2 SUB SWAP1 REVERT JUMPDEST PUSH0 PUSH1 0x1 DUP5 PUSH1 0x40 MLOAD PUSH2 0x98C SWAP2 SWAP1 PUSH2 0x133B JUMP JUMPDEST SWAP1 DUP2 MSTORE PUSH1 0x20 ADD PUSH1 0x40 MLOAD DUP1 SWAP2 SUB SWAP1 KECCAK256 SLOAD DUP4 PUSH2 0x9A6 SWAP2 SWAP1 PUSH2 0x1921 JUMP JUMPDEST SWAP1 POP DUP1 SWAP2 POP POP SWAP3 SWAP2 POP POP JUMP JUMPDEST PUSH0 SELFBALANCE SWAP1 POP SWAP1 JUMP JUMPDEST PUSH0 PUSH0 SWAP1 SLOAD SWAP1 PUSH2 0x100 EXP SWAP1 DIV PUSH20 0xFFFFFFFFFFFFFFFFFFFFFFFFFFFFFFFFFFFFFFFF AND DUP2 JUMP JUMPDEST PUSH1 0x2 DUP2 DUP2 SLOAD DUP2 LT PUSH2 0x9EC JUMPI PUSH0 DUP1 REVERT JUMPDEST SWAP1 PUSH0 MSTORE PUSH1 0x20 PUSH0 KECCAK256 ADD PUSH0 SWAP2 POP SWAP1 POP DUP1 SLOAD PUSH2 0xA04 SWAP1 PUSH2 0x13E6 JUMP JUMPDEST DUP1 PUSH1 0x1F ADD PUSH1 0x20 DUP1 SWAP2 DIV MUL PUSH1 0x20 ADD PUSH1 0x40 MLOAD SWAP1 DUP2 ADD PUSH1 0x40 MSTORE DUP1 SWAP3 SWAP2 SWAP1 DUP2 DUP2 MSTORE PUSH1 0x20 ADD DUP3 DUP1 SLOAD PUSH2 0xA30 SWAP1 PUSH2 0x13E6 JUMP JUMPDEST DUP1 ISZERO PUSH2 0xA7B JUMPI DUP1 PUSH1 0x1F LT PUSH2 0xA52 JUMPI PUSH2 0x100 DUP1 DUP4 SLOAD DIV MUL DUP4 MSTORE SWAP2 PUSH1 0x20 ADD SWAP2 PUSH2 0xA7B JUMP JUMPDEST DUP3 ADD SWAP2 SWAP1 PUSH0 MSTORE PUSH1 0x20 PUSH0 KECCAK256 SWAP1 JUMPDEST DUP2 SLOAD DUP2 MSTORE SWAP1 PUSH1 0x1 ADD SWAP1 PUSH1 0x20 ADD DUP1 DUP4 GT PUSH2 0xA5E JUMPI DUP3 SWAP1 SUB PUSH1 0x1F AND DUP3 ADD SWAP2 JUMPDEST POP POP POP POP POP DUP2 JUMP JUMPDEST PUSH0 PUSH1 0x1 DUP4 PUSH1 0x40 MLOAD PUSH2 0xA94 SWAP2 SWAP1 PUSH2 0x133B JUMP JUMPDEST SWAP1 DUP2 MSTORE PUSH1 0x20 ADD PUSH1 0x40 MLOAD DUP1 SWAP2 SUB SWAP1 KECCAK256 SLOAD GT PUSH2 0xAE3 JUMPI PUSH1 0x40 MLOAD PUSH32 0x8C379A000000000000000000000000000000000000000000000000000000000 DUP2 MSTORE PUSH1 0x4 ADD PUSH2 0xADA SWAP1 PUSH2 0x139B JUMP JUMPDEST PUSH1 0x40 MLOAD DUP1 SWAP2 SUB SWAP1 REVERT JUMPDEST PUSH0 DUP2 GT PUSH2 0xB25 JUMPI PUSH1 0x40 MLOAD PUSH32 0x8C379A000000000000000000000000000000000000000000000000000000000 DUP2 MSTORE PUSH1 0x4 ADD PUSH2 0xB1C SWAP1 PUSH2 0x19AC JUMP JUMPDEST PUSH1 0x40 MLOAD DUP1 SWAP2 SUB SWAP1 REVERT JUMPDEST PUSH0 PUSH2 0xB30 DUP4 DUP4 PUSH2 0x91A JUMP JUMPDEST SWAP1 POP DUP1 CALLVALUE EQ PUSH2 0xB74 JUMPI PUSH1 0x40 MLOAD PUSH32 0x8C379A000000000000000000000000000000000000000000000000000000000 DUP2 MSTORE PUSH1 0x4 ADD PUSH2 0xB6B SWAP1 PUSH2 0x1A3A JUMP JUMPDEST PUSH1 0x40 MLOAD DUP1 SWAP2 SUB SWAP1 REVERT JUMPDEST CALLVALUE PUSH1 0x4 PUSH0 CALLER PUSH20 0xFFFFFFFFFFFFFFFFFFFFFFFFFFFFFFFFFFFFFFFF AND PUSH20 0xFFFFFFFFFFFFFFFFFFFFFFFFFFFFFFFFFFFFFFFF AND DUP2 MSTORE PUSH1 0x20 ADD SWAP1 DUP2 MSTORE PUSH1 0x20 ADD PUSH0 KECCAK256 PUSH0 DUP3 DUP3 SLOAD PUSH2 0xBC0 SWAP2 SWAP1 PUSH2 0x1A58 JUMP JUMPDEST SWAP3 POP POP DUP2 SWAP1 SSTORE POP CALLVALUE PUSH1 0x3 PUSH0 DUP3 DUP3 SLOAD PUSH2 0xBD8 SWAP2 SWAP1 PUSH2 0x1A58 JUMP JUMPDEST SWAP3 POP POP DUP2 SWAP1 SSTORE POP DUP2 PUSH1 0x5 DUP5 PUSH1 0x40 MLOAD PUSH2 0xBF0 SWAP2 SWAP1 PUSH2 0x133B JUMP JUMPDEST SWAP1 DUP2 MSTORE PUSH1 0x20 ADD PUSH1 0x40 MLOAD DUP1 SWAP2 SUB SWAP1 KECCAK256 PUSH0 DUP3 DUP3 SLOAD PUSH2 0xC0C SWAP2 SWAP1 PUSH2 0x1A58 JUMP JUMPDEST SWAP3 POP POP DUP2 SWAP1 SSTORE POP POP POP POP JUMP JUMPDEST PUSH0 CALLVALUE GT PUSH2 0xC5A JUMPI PUSH1 0x40 MLOAD PUSH32 0x8C379A000000000000000000000000000000000000000000000000000000000 DUP2 MSTORE PUSH1 0x4 ADD PUSH2 0xC51 SWAP1 PUSH2 0x1AFB JUMP JUMPDEST PUSH1 0x40 MLOAD DUP1 SWAP2 SUB SWAP1 REVERT JUMPDEST CALLVALUE PUSH1 0x4 PUSH0 CALLER PUSH20 0xFFFFFFFFFFFFFFFFFFFFFFFFFFFFFFFFFFFFFFFF AND PUSH20 0xFFFFFFFFFFFFFFFFFFFFFFFFFFFFFFFFFFFFFFFF AND DUP2 MSTORE PUSH1 0x20 ADD SWAP1 DUP2 MSTORE PUSH1 0x20 ADD PUSH0 KECCAK256 PUSH0 DUP3 DUP3 SLOAD PUSH2 0xCA6 SWAP2 SWAP1 PUSH2 0x1A58 JUMP JUMPDEST SWAP3 POP POP DUP2 SWAP1 SSTORE POP CALLVALUE PUSH1 0x3 PUSH0 DUP3 DUP3 SLOAD PUSH2 0xCBE SWAP2 SWAP1 PUSH2 0x1A58 JUMP JUMPDEST SWAP3 POP POP DUP2 SWAP1 SSTORE POP CALLVALUE PUSH1 0x5 PUSH1 0x40 MLOAD PUSH2 0xCD4 SWAP1 PUSH2 0x1B63 JUMP JUMPDEST SWAP1 DUP2 MSTORE PUSH1 0x20 ADD PUSH1 0x40 MLOAD DUP1 SWAP2 SUB SWAP1 KECCAK256 PUSH0 DUP3 DUP3 SLOAD PUSH2 0xCF0 SWAP2 SWAP1 PUSH2 0x1A58 JUMP JUMPDEST SWAP3 POP POP DUP2 SWAP1 SSTORE POP JUMP JUMPDEST PUSH1 0x3 SLOAD DUP2 JUMP JUMPDEST PUSH0 PUSH0 SWAP1 SLOAD SWAP1 PUSH2 0x100 EXP SWAP1 DIV PUSH20 0xFFFFFFFFFFFFFFFFFFFFFFFFFFFFFFFFFFFFFFFF AND PUSH20 0xFFFFFFFFFFFFFFFFFFFFFFFFFFFFFFFFFFFFFFFF AND CALLER PUSH20 0xFFFFFFFFFFFFFFFFFFFFFFFFFFFFFFFFFFFFFFFF AND EQ PUSH2 0xD8D JUMPI PUSH1 0x40 MLOAD PUSH32 0x8C379A000000000000000000000000000000000000000000000000000000000 DUP2 MSTORE PUSH1 0x4 ADD PUSH2 0xD84 SWAP1 PUSH2 0x1486 JUMP JUMPDEST PUSH1 0x40 MLOAD DUP1 SWAP2 SUB SWAP1 REVERT JUMPDEST PUSH0 PUSH20 0xFFFFFFFFFFFFFFFFFFFFFFFFFFFFFFFFFFFFFFFF AND DUP2 PUSH20 0xFFFFFFFFFFFFFFFFFFFFFFFFFFFFFFFFFFFFFFFF AND SUB PUSH2 0xDFB JUMPI PUSH1 0x40 MLOAD PUSH32 0x8C379A000000000000000000000000000000000000000000000000000000000 DUP2 MSTORE PUSH1 0x4 ADD PUSH2 0xDF2 SWAP1 PUSH2 0x1BC1 JUMP JUMPDEST PUSH1 0x40 MLOAD DUP1 SWAP2 SUB SWAP1 REVERT JUMPDEST DUP1 PUSH0 PUSH0 PUSH2 0x100 EXP DUP2 SLOAD DUP2 PUSH20 0xFFFFFFFFFFFFFFFFFFFFFFFFFFFFFFFFFFFFFFFF MUL NOT AND SWAP1 DUP4 PUSH20 0xFFFFFFFFFFFFFFFFFFFFFFFFFFFFFFFFFFFFFFFF AND MUL OR SWAP1 SSTORE POP POP JUMP JUMPDEST PUSH0 PUSH1 0x40 MLOAD SWAP1 POP SWAP1 JUMP JUMPDEST PUSH0 PUSH0 REVERT JUMPDEST PUSH0 PUSH0 REVERT JUMPDEST PUSH0 PUSH0 REVERT JUMPDEST PUSH0 PUSH0 REVERT JUMPDEST PUSH0 PUSH1 0x1F NOT PUSH1 0x1F DUP4 ADD AND SWAP1 POP SWAP2 SWAP1 POP JUMP JUMPDEST PUSH32 0x4E487B7100000000000000000000000000000000000000000000000000000000 PUSH0 MSTORE PUSH1 0x41 PUSH1 0x4 MSTORE PUSH1 0x24 PUSH0 REVERT JUMPDEST PUSH2 0xE9C DUP3 PUSH2 0xE56 JUMP JUMPDEST DUP2 ADD DUP2 DUP2 LT PUSH8 0xFFFFFFFFFFFFFFFF DUP3 GT OR ISZERO PUSH2 0xEBB JUMPI PUSH2 0xEBA PUSH2 0xE66 JUMP JUMPDEST JUMPDEST DUP1 PUSH1 0x40 MSTORE POP POP POP JUMP JUMPDEST PUSH0 PUSH2 0xECD PUSH2 0xE3D JUMP JUMPDEST SWAP1 POP PUSH2 0xED9 DUP3 DUP3 PUSH2 0xE93 JUMP JUMPDEST SWAP2 SWAP1 POP JUMP JUMPDEST PUSH0 PUSH8 0xFFFFFFFFFFFFFFFF DUP3 GT ISZERO PUSH2 0xEF8 JUMPI PUSH2 0xEF7 PUSH2 0xE66 JUMP JUMPDEST JUMPDEST PUSH2 0xF01 DUP3 PUSH2 0xE56 JUMP JUMPDEST SWAP1 POP PUSH1 0x20 DUP2 ADD SWAP1 POP SWAP2 SWAP1 POP JUMP JUMPDEST DUP3 DUP2 DUP4 CALLDATACOPY PUSH0 DUP4 DUP4 ADD MSTORE POP POP POP JUMP JUMPDEST PUSH0 PUSH2 0xF2E PUSH2 0xF29 DUP5 PUSH2 0xEDE JUMP JUMPDEST PUSH2 0xEC4 JUMP JUMPDEST SWAP1 POP DUP3 DUP2 MSTORE PUSH1 0x20 DUP2 ADD DUP5 DUP5 DUP5 ADD GT ISZERO PUSH2 0xF4A JUMPI PUSH2 0xF49 PUSH2 0xE52 JUMP JUMPDEST JUMPDEST PUSH2 0xF55 DUP5 DUP3 DUP6 PUSH2 0xF0E JUMP JUMPDEST POP SWAP4 SWAP3 POP POP POP JUMP JUMPDEST PUSH0 DUP3 PUSH1 0x1F DUP4 ADD SLT PUSH2 0xF71 JUMPI PUSH2 0xF70 PUSH2 0xE4E JUMP JUMPDEST JUMPDEST DUP2 CALLDATALOAD PUSH2 0xF81 DUP5 DUP3 PUSH1 0x20 DUP7 ADD PUSH2 0xF1C JUMP JUMPDEST SWAP2 POP POP SWAP3 SWAP2 POP POP JUMP JUMPDEST PUSH0 PUSH1 0x20 DUP3 DUP5 SUB SLT ISZERO PUSH2 0xF9F JUMPI PUSH2 0xF9E PUSH2 0xE46 JUMP JUMPDEST JUMPDEST PUSH0 DUP3 ADD CALLDATALOAD PUSH8 0xFFFFFFFFFFFFFFFF DUP2 GT ISZERO PUSH2 0xFBC JUMPI PUSH2 0xFBB PUSH2 0xE4A JUMP JUMPDEST JUMPDEST PUSH2 0xFC8 DUP5 DUP3 DUP6 ADD PUSH2 0xF5D JUMP JUMPDEST SWAP2 POP POP SWAP3 SWAP2 POP POP JUMP JUMPDEST PUSH0 DUP2 SWAP1 POP SWAP2 SWAP1 POP JUMP JUMPDEST PUSH2 0xFE3 DUP2 PUSH2 0xFD1 JUMP JUMPDEST DUP3 MSTORE POP POP JUMP JUMPDEST PUSH0 PUSH1 0x20 DUP3 ADD SWAP1 POP PUSH2 0xFFC PUSH0 DUP4 ADD DUP5 PUSH2 0xFDA JUMP JUMPDEST SWAP3 SWAP2 POP POP JUMP JUMPDEST PUSH0 PUSH20 0xFFFFFFFFFFFFFFFFFFFFFFFFFFFFFFFFFFFFFFFF DUP3 AND SWAP1 POP SWAP2 SWAP1 POP JUMP JUMPDEST PUSH0 PUSH2 0x102B DUP3 PUSH2 0x1002 JUMP JUMPDEST SWAP1 POP SWAP2 SWAP1 POP JUMP JUMPDEST PUSH2 0x103B DUP2 PUSH2 0x1021 JUMP JUMPDEST DUP2 EQ PUSH2 0x1045 JUMPI PUSH0 PUSH0 REVERT JUMPDEST POP JUMP JUMPDEST PUSH0 DUP2 CALLDATALOAD SWAP1 POP PUSH2 0x1056 DUP2 PUSH2 0x1032 JUMP JUMPDEST SWAP3 SWAP2 POP POP JUMP JUMPDEST PUSH0 PUSH1 0x20 DUP3 DUP5 SUB SLT ISZERO PUSH2 0x1071 JUMPI PUSH2 0x1070 PUSH2 0xE46 JUMP JUMPDEST JUMPDEST PUSH0 PUSH2 0x107E DUP5 DUP3 DUP6 ADD PUSH2 0x1048 JUMP JUMPDEST SWAP2 POP POP SWAP3 SWAP2 POP POP JUMP JUMPDEST PUSH0 DUP2 MLOAD SWAP1 POP SWAP2 SWAP1 POP JUMP JUMPDEST PUSH0 DUP3 DUP3 MSTORE PUSH1 0x20 DUP3 ADD SWAP1 POP SWAP3 SWAP2 POP POP JUMP JUMPDEST PUSH0 DUP2 SWAP1 POP PUSH1 0x20 DUP3 ADD SWAP1 POP SWAP2 SWAP1 POP JUMP JUMPDEST PUSH0 DUP2 MLOAD SWAP1 POP SWAP2 SWAP1 POP JUMP JUMPDEST PUSH0 DUP3 DUP3 MSTORE PUSH1 0x20 DUP3 ADD SWAP1 POP SWAP3 SWAP2 POP POP JUMP JUMPDEST DUP3 DUP2 DUP4 MCOPY PUSH0 DUP4 DUP4 ADD MSTORE POP POP POP JUMP JUMPDEST PUSH0 PUSH2 0x10E2 DUP3 PUSH2 0x10B0 JUMP JUMPDEST PUSH2 0x10EC DUP2 DUP6 PUSH2 0x10BA JUMP JUMPDEST SWAP4 POP PUSH2 0x10FC DUP2 DUP6 PUSH1 0x20 DUP7 ADD PUSH2 0x10CA JUMP JUMPDEST PUSH2 0x1105 DUP2 PUSH2 0xE56 JUMP JUMPDEST DUP5 ADD SWAP2 POP POP SWAP3 SWAP2 POP POP JUMP JUMPDEST PUSH0 PUSH2 0x111B DUP4 DUP4 PUSH2 0x10D8 JUMP JUMPDEST SWAP1 POP SWAP3 SWAP2 POP POP JUMP JUMPDEST PUSH0 PUSH1 0x20 DUP3 ADD SWAP1 POP SWAP2 SWAP1 POP JUMP JUMPDEST PUSH0 PUSH2 0x1139 DUP3 PUSH2 0x1087 JUMP JUMPDEST PUSH2 0x1143 DUP2 DUP6 PUSH2 0x1091 JUMP JUMPDEST SWAP4 POP DUP4 PUSH1 0x20 DUP3 MUL DUP6 ADD PUSH2 0x1155 DUP6 PUSH2 0x10A1 JUMP JUMPDEST DUP1 PUSH0 JUMPDEST DUP6 DUP2 LT ISZERO PUSH2 0x1190 JUMPI DUP5 DUP5 SUB DUP10 MSTORE DUP2 MLOAD PUSH2 0x1171 DUP6 DUP3 PUSH2 0x1110 JUMP JUMPDEST SWAP5 POP PUSH2 0x117C DUP4 PUSH2 0x1123 JUMP JUMPDEST SWAP3 POP PUSH1 0x20 DUP11 ADD SWAP10 POP POP PUSH1 0x1 DUP2 ADD SWAP1 POP PUSH2 0x1158 JUMP JUMPDEST POP DUP3 SWAP8 POP DUP8 SWAP6 POP POP POP POP POP POP SWAP3 SWAP2 POP POP JUMP JUMPDEST PUSH0 PUSH1 0x20 DUP3 ADD SWAP1 POP DUP2 DUP2 SUB PUSH0 DUP4 ADD MSTORE PUSH2 0x11BA DUP2 DUP5 PUSH2 0x112F JUMP JUMPDEST SWAP1 POP SWAP3 SWAP2 POP POP JUMP JUMPDEST PUSH2 0x11CB DUP2 PUSH2 0xFD1 JUMP JUMPDEST DUP2 EQ PUSH2 0x11D5 JUMPI PUSH0 PUSH0 REVERT JUMPDEST POP JUMP JUMPDEST PUSH0 DUP2 CALLDATALOAD SWAP1 POP PUSH2 0x11E6 DUP2 PUSH2 0x11C2 JUMP JUMPDEST SWAP3 SWAP2 POP POP JUMP JUMPDEST PUSH0 PUSH0 PUSH1 0x40 DUP4 DUP6 SUB SLT ISZERO PUSH2 0x1202 JUMPI PUSH2 0x1201 PUSH2 0xE46 JUMP JUMPDEST JUMPDEST PUSH0 DUP4 ADD CALLDATALOAD PUSH8 0xFFFFFFFFFFFFFFFF DUP2 GT ISZERO PUSH2 0x121F JUMPI PUSH2 0x121E PUSH2 0xE4A JUMP JUMPDEST JUMPDEST PUSH2 0x122B DUP6 DUP3 DUP7 ADD PUSH2 0xF5D JUMP JUMPDEST SWAP3 POP POP PUSH1 0x20 PUSH2 0x123C DUP6 DUP3 DUP7 ADD PUSH2 0x11D8 JUMP JUMPDEST SWAP2 POP POP SWAP3 POP SWAP3 SWAP1 POP JUMP JUMPDEST PUSH2 0x124F DUP2 PUSH2 0x1021 JUMP JUMPDEST DUP3 MSTORE POP POP JUMP JUMPDEST PUSH0 PUSH1 0x20 DUP3 ADD SWAP1 POP PUSH2 0x1268 PUSH0 DUP4 ADD DUP5 PUSH2 0x1246 JUMP JUMPDEST SWAP3 SWAP2 POP POP JUMP JUMPDEST PUSH0 PUSH1 0x20 DUP3 DUP5 SUB SLT ISZERO PUSH2 0x1283 JUMPI PUSH2 0x1282 PUSH2 0xE46 JUMP JUMPDEST JUMPDEST PUSH0 PUSH2 0x1290 DUP5 DUP3 DUP6 ADD PUSH2 0x11D8 JUMP JUMPDEST SWAP2 POP POP SWAP3 SWAP2 POP POP JUMP JUMPDEST PUSH0 DUP3 DUP3 MSTORE PUSH1 0x20 DUP3 ADD SWAP1 POP SWAP3 SWAP2 POP POP JUMP JUMPDEST PUSH0 PUSH2 0x12B3 DUP3 PUSH2 0x10B0 JUMP JUMPDEST PUSH2 0x12BD DUP2 DUP6 PUSH2 0x1299 JUMP JUMPDEST SWAP4 POP PUSH2 0x12CD DUP2 DUP6 PUSH1 0x20 DUP7 ADD PUSH2 0x10CA JUMP JUMPDEST PUSH2 0x12D6 DUP2 PUSH2 0xE56 JUMP JUMPDEST DUP5 ADD SWAP2 POP POP SWAP3 SWAP2 POP POP JUMP JUMPDEST PUSH0 PUSH1 0x20 DUP3 ADD SWAP1 POP DUP2 DUP2 SUB PUSH0 DUP4 ADD MSTORE PUSH2 0x12F9 DUP2 DUP5 PUSH2 0x12A9 JUMP JUMPDEST SWAP1 POP SWAP3 SWAP2 POP POP JUMP JUMPDEST PUSH0 DUP2 SWAP1 POP SWAP3 SWAP2 POP POP JUMP JUMPDEST PUSH0 PUSH2 0x1315 DUP3 PUSH2 0x10B0 JUMP JUMPDEST PUSH2 0x131F DUP2 DUP6 PUSH2 0x1301 JUMP JUMPDEST SWAP4 POP PUSH2 0x132F DUP2 DUP6 PUSH1 0x20 DUP7 ADD PUSH2 0x10CA JUMP JUMPDEST DUP1 DUP5 ADD SWAP2 POP POP SWAP3 SWAP2 POP POP JUMP JUMPDEST PUSH0 PUSH2 0x1346 DUP3 DUP5 PUSH2 0x130B JUMP JUMPDEST SWAP2 POP DUP2 SWAP1 POP SWAP3 SWAP2 POP POP JUMP JUMPDEST PUSH32 0x43757272656E6379206E6F7420737570706F7274656400000000000000000000 PUSH0 DUP3 ADD MSTORE POP JUMP JUMPDEST PUSH0 PUSH2 0x1385 PUSH1 0x16 DUP4 PUSH2 0x1299 JUMP JUMPDEST SWAP2 POP PUSH2 0x1390 DUP3 PUSH2 0x1351 JUMP JUMPDEST PUSH1 0x20 DUP3 ADD SWAP1 POP SWAP2 SWAP1 POP JUMP JUMPDEST PUSH0 PUSH1 0x20 DUP3 ADD SWAP1 POP DUP2 DUP2 SUB PUSH0 DUP4 ADD MSTORE PUSH2 0x13B2 DUP2 PUSH2 0x1379 JUMP JUMPDEST SWAP1 POP SWAP2 SWAP1 POP JUMP JUMPDEST PUSH32 0x4E487B7100000000000000000000000000000000000000000000000000000000 PUSH0 MSTORE PUSH1 0x22 PUSH1 0x4 MSTORE PUSH1 0x24 PUSH0 REVERT JUMPDEST PUSH0 PUSH1 0x2 DUP3 DIV SWAP1 POP PUSH1 0x1 DUP3 AND DUP1 PUSH2 0x13FD JUMPI PUSH1 0x7F DUP3 AND SWAP2 POP JUMPDEST PUSH1 0x20 DUP3 LT DUP2 SUB PUSH2 0x1410 JUMPI PUSH2 0x140F PUSH2 0x13B9 JUMP JUMPDEST JUMPDEST POP SWAP2 SWAP1 POP JUMP JUMPDEST PUSH32 0x4F6E6C79206F776E65722063616E20706572666F726D20746869732061637469 PUSH0 DUP3 ADD MSTORE PUSH32 0x6F6E2E0000000000000000000000000000000000000000000000000000000000 PUSH1 0x20 DUP3 ADD MSTORE POP JUMP JUMPDEST PUSH0 PUSH2 0x1470 PUSH1 0x23 DUP4 PUSH2 0x1299 JUMP JUMPDEST SWAP2 POP PUSH2 0x147B DUP3 PUSH2 0x1416 JUMP JUMPDEST PUSH1 0x40 DUP3 ADD SWAP1 POP SWAP2 SWAP1 POP JUMP JUMPDEST PUSH0 PUSH1 0x20 DUP3 ADD SWAP1 POP DUP2 DUP2 SUB PUSH0 DUP4 ADD MSTORE PUSH2 0x149D DUP2 PUSH2 0x1464 JUMP JUMPDEST SWAP1 POP SWAP2 SWAP1 POP JUMP JUMPDEST PUSH32 0x4E6F207469707320746F20776974686472617700000000000000000000000000 PUSH0 DUP3 ADD MSTORE POP JUMP JUMPDEST PUSH0 PUSH2 0x14D8 PUSH1 0x13 DUP4 PUSH2 0x1299 JUMP JUMPDEST SWAP2 POP PUSH2 0x14E3 DUP3 PUSH2 0x14A4 JUMP JUMPDEST PUSH1 0x20 DUP3 ADD SWAP1 POP SWAP2 SWAP1 POP JUMP JUMPDEST PUSH0 PUSH1 0x20 DUP3 ADD SWAP1 POP DUP2 DUP2 SUB PUSH0 DUP4 ADD MSTORE PUSH2 0x1505 DUP2 PUSH2 0x14CC JUMP JUMPDEST SWAP1 POP SWAP2 SWAP1 POP JUMP JUMPDEST PUSH0 DUP2 SWAP1 POP SWAP3 SWAP2 POP POP JUMP JUMPDEST POP JUMP JUMPDEST PUSH0 PUSH2 0x1524 PUSH0 DUP4 PUSH2 0x150C JUMP JUMPDEST SWAP2 POP PUSH2 0x152F DUP3 PUSH2 0x1516 JUMP JUMPDEST PUSH0 DUP3 ADD SWAP1 POP SWAP2 SWAP1 POP JUMP JUMPDEST PUSH0 PUSH2 0x1543 DUP3 PUSH2 0x1519 JUMP JUMPDEST SWAP2 POP DUP2 SWAP1 POP SWAP2 SWAP1 POP JUMP JUMPDEST PUSH32 0x5472616E73666572206661696C65640000000000000000000000000000000000 PUSH0 DUP3 ADD MSTORE POP JUMP JUMPDEST PUSH0 PUSH2 0x1581 PUSH1 0xF DUP4 PUSH2 0x1299 JUMP JUMPDEST SWAP2 POP PUSH2 0x158C DUP3 PUSH2 0x154D JUMP JUMPDEST PUSH1 0x20 DUP3 ADD SWAP1 POP SWAP2 SWAP1 POP JUMP JUMPDEST PUSH0 PUSH1 0x20 DUP3 ADD SWAP1 POP DUP2 DUP2 SUB PUSH0 DUP4 ADD MSTORE PUSH2 0x15AE DUP2 PUSH2 0x1575 JUMP JUMPDEST SWAP1 POP SWAP2 SWAP1 POP JUMP JUMPDEST PUSH32 0x52617465206D7573742062652067726561746572207468616E20302E00000000 PUSH0 DUP3 ADD MSTORE POP JUMP JUMPDEST PUSH0 PUSH2 0x15E9 PUSH1 0x1C DUP4 PUSH2 0x1299 JUMP JUMPDEST SWAP2 POP PUSH2 0x15F4 DUP3 PUSH2 0x15B5 JUMP JUMPDEST PUSH1 0x20 DUP3 ADD SWAP1 POP SWAP2 SWAP1 POP JUMP JUMPDEST PUSH0 PUSH1 0x20 DUP3 ADD SWAP1 POP DUP2 DUP2 SUB PUSH0 DUP4 ADD MSTORE PUSH2 0x1616 DUP2 PUSH2 0x15DD JUMP JUMPDEST SWAP1 POP SWAP2 SWAP1 POP JUMP JUMPDEST PUSH0 DUP2 SWAP1 POP DUP2 PUSH0 MSTORE PUSH1 0x20 PUSH0 KECCAK256 SWAP1 POP SWAP2 SWAP1 POP JUMP JUMPDEST PUSH0 PUSH1 0x20 PUSH1 0x1F DUP4 ADD DIV SWAP1 POP SWAP2 SWAP1 POP JUMP JUMPDEST PUSH0 DUP3 DUP3 SHL SWAP1 POP SWAP3 SWAP2 POP POP JUMP JUMPDEST PUSH0 PUSH1 0x8 DUP4 MUL PUSH2 0x1679 PUSH32 0xFFFFFFFFFFFFFFFFFFFFFFFFFFFFFFFFFFFFFFFFFFFFFFFFFFFFFFFFFFFFFFFF DUP3 PUSH2 0x163E JUMP JUMPDEST PUSH2 0x1683 DUP7 DUP4 PUSH2 0x163E JUMP JUMPDEST SWAP6 POP DUP1 NOT DUP5 AND SWAP4 POP DUP1 DUP7 AND DUP5 OR SWAP3 POP POP POP SWAP4 SWAP3 POP POP POP JUMP JUMPDEST PUSH0 DUP2 SWAP1 POP SWAP2 SWAP1 POP JUMP JUMPDEST PUSH0 PUSH2 0x16BE PUSH2 0x16B9 PUSH2 0x16B4 DUP5 PUSH2 0xFD1 JUMP JUMPDEST PUSH2 0x169B JUMP JUMPDEST PUSH2 0xFD1 JUMP JUMPDEST SWAP1 POP SWAP2 SWAP1 POP JUMP JUMPDEST PUSH0 DUP2 SWAP1 POP SWAP2 SWAP1 POP JUMP JUMPDEST PUSH2 0x16D7 DUP4 PUSH2 0x16A4 JUMP JUMPDEST PUSH2 0x16EB PUSH2 0x16E3 DUP3 PUSH2 0x16C5 JUMP JUMPDEST DUP5 DUP5 SLOAD PUSH2 0x164A JUMP JUMPDEST DUP3 SSTORE POP POP POP POP JUMP JUMPDEST PUSH0 PUSH0 SWAP1 POP SWAP1 JUMP JUMPDEST PUSH2 0x1702 PUSH2 0x16F3 JUMP JUMPDEST PUSH2 0x170D DUP2 DUP5 DUP5 PUSH2 0x16CE JUMP JUMPDEST POP POP POP JUMP JUMPDEST JUMPDEST DUP2 DUP2 LT ISZERO PUSH2 0x1730 JUMPI PUSH2 0x1725 PUSH0 DUP3 PUSH2 0x16FA JUMP JUMPDEST PUSH1 0x1 DUP2 ADD SWAP1 POP PUSH2 0x1713 JUMP JUMPDEST POP POP JUMP JUMPDEST PUSH1 0x1F DUP3 GT ISZERO PUSH2 0x1775 JUMPI PUSH2 0x1746 DUP2 PUSH2 0x161D JUMP JUMPDEST PUSH2 0x174F DUP5 PUSH2 0x162F JUMP JUMPDEST DUP2 ADD PUSH1 0x20 DUP6 LT ISZERO PUSH2 0x175E JUMPI DUP2 SWAP1 POP JUMPDEST PUSH2 0x1772 PUSH2 0x176A DUP6 PUSH2 0x162F JUMP JUMPDEST DUP4 ADD DUP3 PUSH2 0x1712 JUMP JUMPDEST POP POP JUMPDEST POP POP POP JUMP JUMPDEST PUSH0 DUP3 DUP3 SHR SWAP1 POP SWAP3 SWAP2 POP POP JUMP JUMPDEST PUSH0 PUSH2 0x1795 PUSH0 NOT DUP5 PUSH1 0x8 MUL PUSH2 0x177A JUMP JUMPDEST NOT DUP1 DUP4 AND SWAP2 POP POP SWAP3 SWAP2 POP POP JUMP JUMPDEST PUSH0 PUSH2 0x17AD DUP4 DUP4 PUSH2 0x1786 JUMP JUMPDEST SWAP2 POP DUP3 PUSH1 0x2 MUL DUP3 OR SWAP1 POP SWAP3 SWAP2 POP POP JUMP JUMPDEST PUSH2 0x17C6 DUP3 PUSH2 0x10B0 JUMP JUMPDEST PUSH8 0xFFFFFFFFFFFFFFFF DUP2 GT ISZERO PUSH2 0x17DF JUMPI PUSH2 0x17DE PUSH2 0xE66 JUMP JUMPDEST JUMPDEST PUSH2 0x17E9 DUP3 SLOAD PUSH2 0x13E6 JUMP JUMPDEST PUSH2 0x17F4 DUP3 DUP3 DUP6 PUSH2 0x1734 JUMP JUMPDEST PUSH0 PUSH1 0x20 SWAP1 POP PUSH1 0x1F DUP4 GT PUSH1 0x1 DUP2 EQ PUSH2 0x1825 JUMPI PUSH0 DUP5 ISZERO PUSH2 0x1813 JUMPI DUP3 DUP8 ADD MLOAD SWAP1 POP JUMPDEST PUSH2 0x181D DUP6 DUP3 PUSH2 0x17A2 JUMP JUMPDEST DUP7 SSTORE POP PUSH2 0x1884 JUMP JUMPDEST PUSH1 0x1F NOT DUP5 AND PUSH2 0x1833 DUP7 PUSH2 0x161D JUMP JUMPDEST PUSH0 JUMPDEST DUP3 DUP2 LT ISZERO PUSH2 0x185A JUMPI DUP5 DUP10 ADD MLOAD DUP3 SSTORE PUSH1 0x1 DUP3 ADD SWAP2 POP PUSH1 0x20 DUP6 ADD SWAP5 POP PUSH1 0x20 DUP2 ADD SWAP1 POP PUSH2 0x1835 JUMP JUMPDEST DUP7 DUP4 LT ISZERO PUSH2 0x1877 JUMPI DUP5 DUP10 ADD MLOAD PUSH2 0x1873 PUSH1 0x1F DUP10 AND DUP3 PUSH2 0x1786 JUMP JUMPDEST DUP4 SSTORE POP JUMPDEST PUSH1 0x1 PUSH1 0x2 DUP9 MUL ADD DUP9 SSTORE POP POP POP JUMPDEST POP POP POP POP POP POP JUMP JUMPDEST PUSH32 0x43757272656E6379206E6F7420737570706F727465642E000000000000000000 PUSH0 DUP3 ADD MSTORE POP JUMP JUMPDEST PUSH0 PUSH2 0x18C0 PUSH1 0x17 DUP4 PUSH2 0x1299 JUMP JUMPDEST SWAP2 POP PUSH2 0x18CB DUP3 PUSH2 0x188C JUMP JUMPDEST PUSH1 0x20 DUP3 ADD SWAP1 POP SWAP2 SWAP1 POP JUMP JUMPDEST PUSH0 PUSH1 0x20 DUP3 ADD SWAP1 POP DUP2 DUP2 SUB PUSH0 DUP4 ADD MSTORE PUSH2 0x18ED DUP2 PUSH2 0x18B4 JUMP JUMPDEST SWAP1 POP SWAP2 SWAP1 POP JUMP JUMPDEST PUSH32 0x4E487B7100000000000000000000000000000000000000000000000000000000 PUSH0 MSTORE PUSH1 0x11 PUSH1 0x4 MSTORE PUSH1 0x24 PUSH0 REVERT JUMPDEST PUSH0 PUSH2 0x192B DUP3 PUSH2 0xFD1 JUMP JUMPDEST SWAP2 POP PUSH2 0x1936 DUP4 PUSH2 0xFD1 JUMP JUMPDEST SWAP3 POP DUP3 DUP3 MUL PUSH2 0x1944 DUP2 PUSH2 0xFD1 JUMP JUMPDEST SWAP2 POP DUP3 DUP3 DIV DUP5 EQ DUP4 ISZERO OR PUSH2 0x195B JUMPI PUSH2 0x195A PUSH2 0x18F4 JUMP JUMPDEST JUMPDEST POP SWAP3 SWAP2 POP POP JUMP JUMPDEST PUSH32 0x416D6F756E74206D7573742062652067726561746572207468616E2030000000 PUSH0 DUP3 ADD MSTORE POP JUMP JUMPDEST PUSH0 PUSH2 0x1996 PUSH1 0x1D DUP4 PUSH2 0x1299 JUMP JUMPDEST SWAP2 POP PUSH2 0x19A1 DUP3 PUSH2 0x1962 JUMP JUMPDEST PUSH1 0x20 DUP3 ADD SWAP1 POP SWAP2 SWAP1 POP JUMP JUMPDEST PUSH0 PUSH1 0x20 DUP3 ADD SWAP1 POP DUP2 DUP2 SUB PUSH0 DUP4 ADD MSTORE PUSH2 0x19C3 DUP2 PUSH2 0x198A JUMP JUMPDEST SWAP1 POP SWAP2 SWAP1 POP JUMP JUMPDEST PUSH32 0x53656E742045544820646F65736E2774206D617463682074686520636F6E7665 PUSH0 DUP3 ADD MSTORE PUSH32 0x7274656420616D6F756E74000000000000000000000000000000000000000000 PUSH1 0x20 DUP3 ADD MSTORE POP JUMP JUMPDEST PUSH0 PUSH2 0x1A24 PUSH1 0x2B DUP4 PUSH2 0x1299 JUMP JUMPDEST SWAP2 POP PUSH2 0x1A2F DUP3 PUSH2 0x19CA JUMP JUMPDEST PUSH1 0x40 DUP3 ADD SWAP1 POP SWAP2 SWAP1 POP JUMP JUMPDEST PUSH0 PUSH1 0x20 DUP3 ADD SWAP1 POP DUP2 DUP2 SUB PUSH0 DUP4 ADD MSTORE PUSH2 0x1A51 DUP2 PUSH2 0x1A18 JUMP JUMPDEST SWAP1 POP SWAP2 SWAP1 POP JUMP JUMPDEST PUSH0 PUSH2 0x1A62 DUP3 PUSH2 0xFD1 JUMP JUMPDEST SWAP2 POP PUSH2 0x1A6D DUP4 PUSH2 0xFD1 JUMP JUMPDEST SWAP3 POP DUP3 DUP3 ADD SWAP1 POP DUP1 DUP3 GT ISZERO PUSH2 0x1A85 JUMPI PUSH2 0x1A84 PUSH2 0x18F4 JUMP JUMPDEST JUMPDEST SWAP3 SWAP2 POP POP JUMP JUMPDEST PUSH32 0x54697020616D6F756E74206D7573742062652067726561746572207468616E20 PUSH0 DUP3 ADD MSTORE PUSH32 0x302E000000000000000000000000000000000000000000000000000000000000 PUSH1 0x20 DUP3 ADD MSTORE POP JUMP JUMPDEST PUSH0 PUSH2 0x1AE5 PUSH1 0x22 DUP4 PUSH2 0x1299 JUMP JUMPDEST SWAP2 POP PUSH2 0x1AF0 DUP3 PUSH2 0x1A8B JUMP JUMPDEST PUSH1 0x40 DUP3 ADD SWAP1 POP SWAP2 SWAP1 POP JUMP JUMPDEST PUSH0 PUSH1 0x20 DUP3 ADD SWAP1 POP DUP2 DUP2 SUB PUSH0 DUP4 ADD MSTORE PUSH2 0x1B12 DUP2 PUSH2 0x1AD9 JUMP JUMPDEST SWAP1 POP SWAP2 SWAP1 POP JUMP JUMPDEST PUSH32 0x4554480000000000000000000000000000000000000000000000000000000000 PUSH0 DUP3 ADD MSTORE POP JUMP JUMPDEST PUSH0 PUSH2 0x1B4D PUSH1 0x3 DUP4 PUSH2 0x1301 JUMP JUMPDEST SWAP2 POP PUSH2 0x1B58 DUP3 PUSH2 0x1B19 JUMP JUMPDEST PUSH1 0x3 DUP3 ADD SWAP1 POP SWAP2 SWAP1 POP JUMP JUMPDEST PUSH0 PUSH2 0x1B6D DUP3 PUSH2 0x1B41 JUMP JUMPDEST SWAP2 POP DUP2 SWAP1 POP SWAP2 SWAP1 POP JUMP JUMPDEST PUSH32 0x496E76616C696420616464726573730000000000000000000000000000000000 PUSH0 DUP3 ADD MSTORE POP JUMP JUMPDEST PUSH0 PUSH2 0x1BAB PUSH1 0xF DUP4 PUSH2 0x1299 JUMP JUMPDEST SWAP2 POP PUSH2 0x1BB6 DUP3 PUSH2 0x1B77 JUMP JUMPDEST PUSH1 0x20 DUP3 ADD SWAP1 POP SWAP2 SWAP1 POP JUMP JUMPDEST PUSH0 PUSH1 0x20 DUP3 ADD SWAP1 POP DUP2 DUP2 SUB PUSH0 DUP4 ADD MSTORE PUSH2 0x1BD8 DUP2 PUSH2 0x1B9F JUMP JUMPDEST SWAP1 POP SWAP2 SWAP1 POP JUMP INVALID LOG2 PUSH5 0x6970667358 0x22 SLT KECCAK256 0xC7 0xB1 PUSH13 0xD2FAAC0605AE46231091F27E22 PREVRANDAO PUSH16 0xE3D00341061529DE40107098873F6473 PUSH16 0x6C634300081F00330000000000000000 "
				},
				"gasEstimates": {
					"creation": {
						"codeDepositCost": "1437800",
						"executionCost": "infinite",
						"totalCost": "infinite"
					},
					"external": {
						"addCurrency(string,uint256)": "infinite",
						"conversionRates(string)": "infinite",
						"convertToEth(string,uint256)": "infinite",
						"getContractBalance()": "379",
						"getConversionRate(string)": "infinite",
						"getSupportedCurrencies()": "infinite",
						"getTipperContribution(address)": "2919",
						"owner()": "2574",
						"supportedCurrencies(uint256)": "infinite",
						"tipInCurrency(string,uint256)": "infinite",
						"tipInEth()": "infinite",
						"tipperContributions(address)": "2848",
						"tipsPerCurrency(string)": "infinite",
						"totalTipsReceived()": "2491",
						"transferOwnership(address)": "27004",
						"withdrawTips()": "infinite"
					}
				},
				"methodIdentifiers": {
					"addCurrency(string,uint256)": "5c49c825",
					"conversionRates(string)": "5c41fece",
					"convertToEth(string,uint256)": "6de0938b",
					"getContractBalance()": "6f9fb98a",
					"getConversionRate(string)": "1fac531b",
					"getSupportedCurrencies()": "2ce75863",
					"getTipperContribution(address)": "223506a7",
					"owner()": "8da5cb5b",
					"supportedCurrencies(uint256)": "97bf7935",
					"tipInCurrency(string,uint256)": "9c88e42d",
					"tipInEth()": "b8443702",
					"tipperContributions(address)": "10e1d1d4",
					"tipsPerCurrency(string)": "0d9ba15f",
					"totalTipsReceived()": "efe8c084",
					"transferOwnership(address)": "f2fde38b",
					"withdrawTips()": "3aaa74b2"
				}
			},
			"storageLayout": {
				"storage": [
					{
						"astId": 3,
						"contract": "day8-TipJar/day8-tipjar.sol:TipJar",
						"label": "owner",
						"offset": 0,
						"slot": "0",
						"type": "t_address"
					},
					{
						"astId": 7,
						"contract": "day8-TipJar/day8-tipjar.sol:TipJar",
						"label": "conversionRates",
						"offset": 0,
						"slot": "1",
						"type": "t_mapping(t_string_memory_ptr,t_uint256)"
					},
					{
						"astId": 10,
						"contract": "day8-TipJar/day8-tipjar.sol:TipJar",
						"label": "supportedCurrencies",
						"offset": 0,
						"slot": "2",
						"type": "t_array(t_string_storage)dyn_storage"
					},
					{
						"astId": 12,
						"contract": "day8-TipJar/day8-tipjar.sol:TipJar",
						"label": "totalTipsReceived",
						"offset": 0,
						"slot": "3",
						"type": "t_uint256"
					},
					{
						"astId": 16,
						"contract": "day8-TipJar/day8-tipjar.sol:TipJar",
						"label": "tipperContributions",
						"offset": 0,
						"slot": "4",
						"type": "t_mapping(t_address,t_uint256)"
					},
					{
						"astId": 20,
						"contract": "day8-TipJar/day8-tipjar.sol:TipJar",
						"label": "tipsPerCurrency",
						"offset": 0,
						"slot": "5",
						"type": "t_mapping(t_string_memory_ptr,t_uint256)"
					},
					{
						"astId": 24,
						"contract": "day8-TipJar/day8-tipjar.sol:TipJar",
						"label": "isSupported",
						"offset": 0,
						"slot": "6",
						"type": "t_mapping(t_string_memory_ptr,t_bool)"
					}
				],
				"types": {
					"t_address": {
						"encoding": "inplace",
						"label": "address",
						"numberOfBytes": "20"
					},
					"t_array(t_string_storage)dyn_storage": {
						"base": "t_string_storage",
						"encoding": "dynamic_array",
						"label": "string[]",
						"numberOfBytes": "32"
					},
					"t_bool": {
						"encoding": "inplace",
						"label": "bool",
						"numberOfBytes": "1"
					},
					"t_mapping(t_address,t_uint256)": {
						"encoding": "mapping",
						"key": "t_address",
						"label": "mapping(address => uint256)",
						"numberOfBytes": "32",
						"value": "t_uint256"
					},
					"t_mapping(t_string_memory_ptr,t_bool)": {
						"encoding": "mapping",
						"key": "t_string_memory_ptr",
						"label": "mapping(string => bool)",
						"numberOfBytes": "32",
						"value": "t_bool"
					},
					"t_mapping(t_string_memory_ptr,t_uint256)": {
						"encoding": "mapping",
						"key": "t_string_memory_ptr",
						"label": "mapping(string => uint256)",
						"numberOfBytes": "32",
						"value": "t_uint256"
					},
					"t_string_memory_ptr": {
						"encoding": "bytes",
						"label": "string",
						"numberOfBytes": "32"
					},
					"t_string_storage": {
						"encoding": "bytes",
						"label": "string",
						"numberOfBytes": "32"
					},
					"t_uint256": {
						"encoding": "inplace",
						"label": "uint256",
						"numberOfBytes": "32"
					}
				}
			},
			"userdoc": {
				"kind": "user",
				"methods": {},
				"version": 1
			}
		}
	}
}