{
	"Day1-ClickCounter/ClickCounter.sol": {
		"ClickCounter": {
			"abi": [
				{
					"inputs": [],
					"name": "click",
					"outputs": [],
					"stateMutability": "nonpayable",
					"type": "function"
				},
				{
					"inputs": [
						{
							"internalType": "uint256",
							"name": "times",
							"type": "uint256"
						}
					],
					"name": "clickMultiple",
					"outputs": [],
					"stateMutability": "nonpayable",
					"type": "function"
				},
				{
					"inputs": [],
					"name": "counter",
					"outputs": [
						{
							"internalType": "uint256",
							"name": "",
							"type": "uint256"
						}
					],
					"stateMutability": "view",
					"type": "function"
				},
				{
					"inputs": [],
					"name": "decrease",
					"outputs": [],
					"stateMutability": "nonpayable",
					"type": "function"
				},
				{
					"inputs": [],
					"name": "getCounter",
					"outputs": [
						{
							"internalType": "uint256",
							"name": "",
							"type": "uint256"
						}
					],
					"stateMutability": "view",
					"type": "function"
				},
				{
					"inputs": [],
					"name": "reset",
					"outputs": [],
					"stateMutability": "nonpayable",
					"type": "function"
				}
			],
			"devdoc": {
				"kind": "dev",
				"methods": {},
				"version": 1
			},
			"evm": {
				"assembly": "    /* \"Day1-ClickCounter/ClickCounter.sol\":60:595  contract ClickCounter {... */\n  mstore(0x40, 0x80)\n  callvalue\n  dup1\n  iszero\n  tag_1\n  jumpi\n  revert(0x00, 0x00)\ntag_1:\n  pop\n  dataSize(sub_0)\n  dup1\n  dataOffset(sub_0)\n  0x00\n  codecopy\n  0x00\n  return\nstop\n\nsub_0: assembly {\n        /* \"Day1-ClickCounter/ClickCounter.sol\":60:595  contract ClickCounter {... */\n      mstore(0x40, 0x80)\n      callvalue\n      dup1\n      iszero\n      tag_1\n      jumpi\n      revert(0x00, 0x00)\n    tag_1:\n      pop\n      jumpi(tag_2, lt(calldatasize, 0x04))\n      shr(0xe0, calldataload(0x00))\n      dup1\n      0x4f78922c\n      eq\n      tag_3\n      jumpi\n      dup1\n      0x61bc221a\n      eq\n      tag_4\n      jumpi\n      dup1\n      0x7d55923d\n      eq\n      tag_5\n      jumpi\n      dup1\n      0x8ada066e\n      eq\n      tag_6\n      jumpi\n      dup1\n      0xd732d955\n      eq\n      tag_7\n      jumpi\n      dup1\n      0xd826f88f\n      eq\n      tag_8\n      jumpi\n    tag_2:\n      revert(0x00, 0x00)\n        /* \"Day1-ClickCounter/ClickCounter.sol\":462:592  function clickMultiple(uint256 times) public {... */\n    tag_3:\n      tag_9\n      0x04\n      dup1\n      calldatasize\n      sub\n      dup2\n      add\n      swap1\n      tag_10\n      swap2\n      swap1\n      tag_11\n      jump\t// in\n    tag_10:\n      tag_12\n      jump\t// in\n    tag_9:\n      stop\n        /* \"Day1-ClickCounter/ClickCounter.sol\":110:132  uint256 public counter */\n    tag_4:\n      tag_13\n      tag_14\n      jump\t// in\n    tag_13:\n      mload(0x40)\n      tag_15\n      swap2\n      swap1\n      tag_16\n      jump\t// in\n    tag_15:\n      mload(0x40)\n      dup1\n      swap2\n      sub\n      swap1\n      return\n        /* \"Day1-ClickCounter/ClickCounter.sol\":141:193  function click() public {... */\n    tag_5:\n      tag_17\n      tag_18\n      jump\t// in\n    tag_17:\n      stop\n        /* \"Day1-ClickCounter/ClickCounter.sol\":370:454  function getCounter() public view returns (uint256){... */\n    tag_6:\n      tag_19\n      tag_20\n      jump\t// in\n    tag_19:\n      mload(0x40)\n      tag_21\n      swap2\n      swap1\n      tag_16\n      jump\t// in\n    tag_21:\n      mload(0x40)\n      dup1\n      swap2\n      sub\n      swap1\n      return\n        /* \"Day1-ClickCounter/ClickCounter.sol\":263:362  function decrease() public {... */\n    tag_7:\n      tag_22\n      tag_23\n      jump\t// in\n    tag_22:\n      stop\n        /* \"Day1-ClickCounter/ClickCounter.sol\":201:255  function reset() public {... */\n    tag_8:\n      tag_24\n      tag_25\n      jump\t// in\n    tag_24:\n      stop\n        /* \"Day1-ClickCounter/ClickCounter.sol\":462:592  function clickMultiple(uint256 times) public {... */\n    tag_12:\n        /* \"Day1-ClickCounter/ClickCounter.sol\":534:535  0 */\n      0x00\n        /* \"Day1-ClickCounter/ClickCounter.sol\":526:531  times */\n      dup2\n        /* \"Day1-ClickCounter/ClickCounter.sol\":526:535  times > 0 */\n      gt\n        /* \"Day1-ClickCounter/ClickCounter.sol\":518:557  require(times > 0, \"times must be > 0\") */\n      tag_27\n      jumpi\n      mload(0x40)\n      0x08c379a000000000000000000000000000000000000000000000000000000000\n      dup2\n      mstore\n      0x04\n      add\n      tag_28\n      swap1\n      tag_29\n      jump\t// in\n    tag_28:\n      mload(0x40)\n      dup1\n      swap2\n      sub\n      swap1\n      revert\n    tag_27:\n        /* \"Day1-ClickCounter/ClickCounter.sol\":579:584  times */\n      dup1\n        /* \"Day1-ClickCounter/ClickCounter.sol\":568:575  counter */\n      0x00\n      0x00\n        /* \"Day1-ClickCounter/ClickCounter.sol\":568:584  counter += times */\n      dup3\n      dup3\n      sload\n      tag_30\n      swap2\n      swap1\n      tag_31\n      jump\t// in\n    tag_30:\n      swap3\n      pop\n      pop\n      dup2\n      swap1\n      sstore\n      pop\n        /* \"Day1-ClickCounter/ClickCounter.sol\":462:592  function clickMultiple(uint256 times) public {... */\n      pop\n      jump\t// out\n        /* \"Day1-ClickCounter/ClickCounter.sol\":110:132  uint256 public counter */\n    tag_14:\n      sload(0x00)\n      dup2\n      jump\t// out\n        /* \"Day1-ClickCounter/ClickCounter.sol\":141:193  function click() public {... */\n    tag_18:\n        /* \"Day1-ClickCounter/ClickCounter.sol\":176:183  counter */\n      0x00\n      0x00\n        /* \"Day1-ClickCounter/ClickCounter.sol\":176:185  counter++ */\n      dup2\n      sload\n      dup1\n      swap3\n      swap2\n      swap1\n      tag_33\n      swap1\n      tag_34\n      jump\t// in\n    tag_33:\n      swap2\n      swap1\n      pop\n      sstore\n      pop\n        /* \"Day1-ClickCounter/ClickCounter.sol\":141:193  function click() public {... */\n      jump\t// out\n        /* \"Day1-ClickCounter/ClickCounter.sol\":370:454  function getCounter() public view returns (uint256){... */\n    tag_20:\n        /* \"Day1-ClickCounter/ClickCounter.sol\":413:420  uint256 */\n      0x00\n        /* \"Day1-ClickCounter/ClickCounter.sol\":439:446  counter */\n      sload(0x00)\n        /* \"Day1-ClickCounter/ClickCounter.sol\":432:446  return counter */\n      swap1\n      pop\n        /* \"Day1-ClickCounter/ClickCounter.sol\":370:454  function getCounter() public view returns (uint256){... */\n      swap1\n      jump\t// out\n        /* \"Day1-ClickCounter/ClickCounter.sol\":263:362  function decrease() public {... */\n    tag_23:\n        /* \"Day1-ClickCounter/ClickCounter.sol\":315:316  0 */\n      0x00\n        /* \"Day1-ClickCounter/ClickCounter.sol\":305:312  counter */\n      sload(0x00)\n        /* \"Day1-ClickCounter/ClickCounter.sol\":305:316  counter > 0 */\n      gt\n        /* \"Day1-ClickCounter/ClickCounter.sol\":301:355  if (counter > 0) {... */\n      iszero\n      tag_37\n      jumpi\n        /* \"Day1-ClickCounter/ClickCounter.sol\":333:340  counter */\n      0x00\n      0x00\n        /* \"Day1-ClickCounter/ClickCounter.sol\":333:343  counter -- */\n      dup2\n      sload\n      dup1\n      swap3\n      swap2\n      swap1\n      tag_38\n      swap1\n      tag_39\n      jump\t// in\n    tag_38:\n      swap2\n      swap1\n      pop\n      sstore\n      pop\n        /* \"Day1-ClickCounter/ClickCounter.sol\":301:355  if (counter > 0) {... */\n    tag_37:\n        /* \"Day1-ClickCounter/ClickCounter.sol\":263:362  function decrease() public {... */\n      jump\t// out\n        /* \"Day1-ClickCounter/ClickCounter.sol\":201:255  function reset() public {... */\n    tag_25:\n        /* \"Day1-ClickCounter/ClickCounter.sol\":246:247  0 */\n      0x00\n        /* \"Day1-ClickCounter/ClickCounter.sol\":236:243  counter */\n      0x00\n        /* \"Day1-ClickCounter/ClickCounter.sol\":236:247  counter = 0 */\n      dup2\n      swap1\n      sstore\n      pop\n        /* \"Day1-ClickCounter/ClickCounter.sol\":201:255  function reset() public {... */\n      jump\t// out\n        /* \"#utility.yul\":88:205   */\n    tag_42:\n        /* \"#utility.yul\":197:198   */\n      0x00\n        /* \"#utility.yul\":194:195   */\n      0x00\n        /* \"#utility.yul\":187:199   */\n      revert\n        /* \"#utility.yul\":334:411   */\n    tag_44:\n        /* \"#utility.yul\":371:378   */\n      0x00\n        /* \"#utility.yul\":400:405   */\n      dup2\n        /* \"#utility.yul\":389:405   */\n      swap1\n      pop\n        /* \"#utility.yul\":334:411   */\n      swap2\n      swap1\n      pop\n      jump\t// out\n        /* \"#utility.yul\":417:539   */\n    tag_45:\n        /* \"#utility.yul\":490:514   */\n      tag_58\n        /* \"#utility.yul\":508:513   */\n      dup2\n        /* \"#utility.yul\":490:514   */\n      tag_44\n      jump\t// in\n    tag_58:\n        /* \"#utility.yul\":483:488   */\n      dup2\n        /* \"#utility.yul\":480:515   */\n      eq\n        /* \"#utility.yul\":470:533   */\n      tag_59\n      jumpi\n        /* \"#utility.yul\":529:530   */\n      0x00\n        /* \"#utility.yul\":526:527   */\n      0x00\n        /* \"#utility.yul\":519:531   */\n      revert\n        /* \"#utility.yul\":470:533   */\n    tag_59:\n        /* \"#utility.yul\":417:539   */\n      pop\n      jump\t// out\n        /* \"#utility.yul\":545:684   */\n    tag_46:\n        /* \"#utility.yul\":591:596   */\n      0x00\n        /* \"#utility.yul\":629:635   */\n      dup2\n        /* \"#utility.yul\":616:636   */\n      calldataload\n        /* \"#utility.yul\":607:636   */\n      swap1\n      pop\n        /* \"#utility.yul\":645:678   */\n      tag_61\n        /* \"#utility.yul\":672:677   */\n      dup2\n        /* \"#utility.yul\":645:678   */\n      tag_45\n      jump\t// in\n    tag_61:\n        /* \"#utility.yul\":545:684   */\n      swap3\n      swap2\n      pop\n      pop\n      jump\t// out\n        /* \"#utility.yul\":690:1019   */\n    tag_11:\n        /* \"#utility.yul\":749:755   */\n      0x00\n        /* \"#utility.yul\":798:800   */\n      0x20\n        /* \"#utility.yul\":786:795   */\n      dup3\n        /* \"#utility.yul\":777:784   */\n      dup5\n        /* \"#utility.yul\":773:796   */\n      sub\n        /* \"#utility.yul\":769:801   */\n      slt\n        /* \"#utility.yul\":766:885   */\n      iszero\n      tag_63\n      jumpi\n        /* \"#utility.yul\":804:883   */\n      tag_64\n      tag_42\n      jump\t// in\n    tag_64:\n        /* \"#utility.yul\":766:885   */\n    tag_63:\n        /* \"#utility.yul\":924:925   */\n      0x00\n        /* \"#utility.yul\":949:1002   */\n      tag_65\n        /* \"#utility.yul\":994:1001   */\n      dup5\n        /* \"#utility.yul\":985:991   */\n      dup3\n        /* \"#utility.yul\":974:983   */\n      dup6\n        /* \"#utility.yul\":970:992   */\n      add\n        /* \"#utility.yul\":949:1002   */\n      tag_46\n      jump\t// in\n    tag_65:\n        /* \"#utility.yul\":939:1002   */\n      swap2\n      pop\n        /* \"#utility.yul\":895:1012   */\n      pop\n        /* \"#utility.yul\":690:1019   */\n      swap3\n      swap2\n      pop\n      pop\n      jump\t// out\n        /* \"#utility.yul\":1025:1143   */\n    tag_47:\n        /* \"#utility.yul\":1112:1136   */\n      tag_67\n        /* \"#utility.yul\":1130:1135   */\n      dup2\n        /* \"#utility.yul\":1112:1136   */\n      tag_44\n      jump\t// in\n    tag_67:\n        /* \"#utility.yul\":1107:1110   */\n      dup3\n        /* \"#utility.yul\":1100:1137   */\n      mstore\n        /* \"#utility.yul\":1025:1143   */\n      pop\n      pop\n      jump\t// out\n        /* \"#utility.yul\":1149:1371   */\n    tag_16:\n        /* \"#utility.yul\":1242:1246   */\n      0x00\n        /* \"#utility.yul\":1280:1282   */\n      0x20\n        /* \"#utility.yul\":1269:1278   */\n      dup3\n        /* \"#utility.yul\":1265:1283   */\n      add\n        /* \"#utility.yul\":1257:1283   */\n      swap1\n      pop\n        /* \"#utility.yul\":1293:1364   */\n      tag_69\n        /* \"#utility.yul\":1361:1362   */\n      0x00\n        /* \"#utility.yul\":1350:1359   */\n      dup4\n        /* \"#utility.yul\":1346:1363   */\n      add\n        /* \"#utility.yul\":1337:1343   */\n      dup5\n        /* \"#utility.yul\":1293:1364   */\n      tag_47\n      jump\t// in\n    tag_69:\n        /* \"#utility.yul\":1149:1371   */\n      swap3\n      swap2\n      pop\n      pop\n      jump\t// out\n        /* \"#utility.yul\":1377:1546   */\n    tag_48:\n        /* \"#utility.yul\":1461:1472   */\n      0x00\n        /* \"#utility.yul\":1495:1501   */\n      dup3\n        /* \"#utility.yul\":1490:1493   */\n      dup3\n        /* \"#utility.yul\":1483:1502   */\n      mstore\n        /* \"#utility.yul\":1535:1539   */\n      0x20\n        /* \"#utility.yul\":1530:1533   */\n      dup3\n        /* \"#utility.yul\":1526:1540   */\n      add\n        /* \"#utility.yul\":1511:1540   */\n      swap1\n      pop\n        /* \"#utility.yul\":1377:1546   */\n      swap3\n      swap2\n      pop\n      pop\n      jump\t// out\n        /* \"#utility.yul\":1552:1719   */\n    tag_49:\n        /* \"#utility.yul\":1692:1711   */\n      0x74696d6573206d757374206265203e2030000000000000000000000000000000\n        /* \"#utility.yul\":1688:1689   */\n      0x00\n        /* \"#utility.yul\":1680:1686   */\n      dup3\n        /* \"#utility.yul\":1676:1690   */\n      add\n        /* \"#utility.yul\":1669:1712   */\n      mstore\n        /* \"#utility.yul\":1552:1719   */\n      pop\n      jump\t// out\n        /* \"#utility.yul\":1725:2091   */\n    tag_50:\n        /* \"#utility.yul\":1867:1870   */\n      0x00\n        /* \"#utility.yul\":1888:1955   */\n      tag_73\n        /* \"#utility.yul\":1952:1954   */\n      0x11\n        /* \"#utility.yul\":1947:1950   */\n      dup4\n        /* \"#utility.yul\":1888:1955   */\n      tag_48\n      jump\t// in\n    tag_73:\n        /* \"#utility.yul\":1881:1955   */\n      swap2\n      pop\n        /* \"#utility.yul\":1964:2057   */\n      tag_74\n        /* \"#utility.yul\":2053:2056   */\n      dup3\n        /* \"#utility.yul\":1964:2057   */\n      tag_49\n      jump\t// in\n    tag_74:\n        /* \"#utility.yul\":2082:2084   */\n      0x20\n        /* \"#utility.yul\":2077:2080   */\n      dup3\n        /* \"#utility.yul\":2073:2085   */\n      add\n        /* \"#utility.yul\":2066:2085   */\n      swap1\n      pop\n        /* \"#utility.yul\":1725:2091   */\n      swap2\n      swap1\n      pop\n      jump\t// out\n        /* \"#utility.yul\":2097:2516   */\n    tag_29:\n        /* \"#utility.yul\":2263:2267   */\n      0x00\n        /* \"#utility.yul\":2301:2303   */\n      0x20\n        /* \"#utility.yul\":2290:2299   */\n      dup3\n        /* \"#utility.yul\":2286:2304   */\n      add\n        /* \"#utility.yul\":2278:2304   */\n      swap1\n      pop\n        /* \"#utility.yul\":2350:2359   */\n      dup2\n        /* \"#utility.yul\":2344:2348   */\n      dup2\n        /* \"#utility.yul\":2340:2360   */\n      sub\n        /* \"#utility.yul\":2336:2337   */\n      0x00\n        /* \"#utility.yul\":2325:2334   */\n      dup4\n        /* \"#utility.yul\":2321:2338   */\n      add\n        /* \"#utility.yul\":2314:2361   */\n      mstore\n        /* \"#utility.yul\":2378:2509   */\n      tag_76\n        /* \"#utility.yul\":2504:2508   */\n      dup2\n        /* \"#utility.yul\":2378:2509   */\n      tag_50\n      jump\t// in\n    tag_76:\n        /* \"#utility.yul\":2370:2509   */\n      swap1\n      pop\n        /* \"#utility.yul\":2097:2516   */\n      swap2\n      swap1\n      pop\n      jump\t// out\n        /* \"#utility.yul\":2522:2702   */\n    tag_51:\n        /* \"#utility.yul\":2570:2647   */\n      0x4e487b7100000000000000000000000000000000000000000000000000000000\n        /* \"#utility.yul\":2567:2568   */\n      0x00\n        /* \"#utility.yul\":2560:2648   */\n      mstore\n        /* \"#utility.yul\":2667:2671   */\n      0x11\n        /* \"#utility.yul\":2664:2665   */\n      0x04\n        /* \"#utility.yul\":2657:2672   */\n      mstore\n        /* \"#utility.yul\":2691:2695   */\n      0x24\n        /* \"#utility.yul\":2688:2689   */\n      0x00\n        /* \"#utility.yul\":2681:2696   */\n      revert\n        /* \"#utility.yul\":2708:2899   */\n    tag_31:\n        /* \"#utility.yul\":2748:2751   */\n      0x00\n        /* \"#utility.yul\":2767:2787   */\n      tag_79\n        /* \"#utility.yul\":2785:2786   */\n      dup3\n        /* \"#utility.yul\":2767:2787   */\n      tag_44\n      jump\t// in\n    tag_79:\n        /* \"#utility.yul\":2762:2787   */\n      swap2\n      pop\n        /* \"#utility.yul\":2801:2821   */\n      tag_80\n        /* \"#utility.yul\":2819:2820   */\n      dup4\n        /* \"#utility.yul\":2801:2821   */\n      tag_44\n      jump\t// in\n    tag_80:\n        /* \"#utility.yul\":2796:2821   */\n      swap3\n      pop\n        /* \"#utility.yul\":2844:2845   */\n      dup3\n        /* \"#utility.yul\":2841:2842   */\n      dup3\n        /* \"#utility.yul\":2837:2846   */\n      add\n        /* \"#utility.yul\":2830:2846   */\n      swap1\n      pop\n        /* \"#utility.yul\":2865:2868   */\n      dup1\n        /* \"#utility.yul\":2862:2863   */\n      dup3\n        /* \"#utility.yul\":2859:2869   */\n      gt\n        /* \"#utility.yul\":2856:2892   */\n      iszero\n      tag_81\n      jumpi\n        /* \"#utility.yul\":2872:2890   */\n      tag_82\n      tag_51\n      jump\t// in\n    tag_82:\n        /* \"#utility.yul\":2856:2892   */\n    tag_81:\n        /* \"#utility.yul\":2708:2899   */\n      swap3\n      swap2\n      pop\n      pop\n      jump\t// out\n        /* \"#utility.yul\":2905:3138   */\n    tag_34:\n        /* \"#utility.yul\":2944:2947   */\n      0x00\n        /* \"#utility.yul\":2967:2991   */\n      tag_84\n        /* \"#utility.yul\":2985:2990   */\n      dup3\n        /* \"#utility.yul\":2967:2991   */\n      tag_44\n      jump\t// in\n    tag_84:\n        /* \"#utility.yul\":2958:2991   */\n      swap2\n      pop\n        /* \"#utility.yul\":3013:3079   */\n      0xffffffffffffffffffffffffffffffffffffffffffffffffffffffffffffffff\n        /* \"#utility.yul\":3006:3011   */\n      dup3\n        /* \"#utility.yul\":3003:3080   */\n      sub\n        /* \"#utility.yul\":3000:3103   */\n      tag_85\n      jumpi\n        /* \"#utility.yul\":3083:3101   */\n      tag_86\n      tag_51\n      jump\t// in\n    tag_86:\n        /* \"#utility.yul\":3000:3103   */\n    tag_85:\n        /* \"#utility.yul\":3130:3131   */\n      0x01\n        /* \"#utility.yul\":3123:3128   */\n      dup3\n        /* \"#utility.yul\":3119:3132   */\n      add\n        /* \"#utility.yul\":3112:3132   */\n      swap1\n      pop\n        /* \"#utility.yul\":2905:3138   */\n      swap2\n      swap1\n      pop\n      jump\t// out\n        /* \"#utility.yul\":3144:3315   */\n    tag_39:\n        /* \"#utility.yul\":3183:3186   */\n      0x00\n        /* \"#utility.yul\":3206:3230   */\n      tag_88\n        /* \"#utility.yul\":3224:3229   */\n      dup3\n        /* \"#utility.yul\":3206:3230   */\n      tag_44\n      jump\t// in\n    tag_88:\n        /* \"#utility.yul\":3197:3230   */\n      swap2\n      pop\n        /* \"#utility.yul\":3252:3256   */\n      0x00\n        /* \"#utility.yul\":3245:3250   */\n      dup3\n        /* \"#utility.yul\":3242:3257   */\n      sub\n        /* \"#utility.yul\":3239:3280   */\n      tag_89\n      jumpi\n        /* \"#utility.yul\":3260:3278   */\n      tag_90\n      tag_51\n      jump\t// in\n    tag_90:\n        /* \"#utility.yul\":3239:3280   */\n    tag_89:\n        /* \"#utility.yul\":3307:3308   */\n      0x01\n        /* \"#utility.yul\":3300:3305   */\n      dup3\n        /* \"#utility.yul\":3296:3309   */\n      sub\n        /* \"#utility.yul\":3289:3309   */\n      swap1\n      pop\n        /* \"#utility.yul\":3144:3315   */\n      swap2\n      swap1\n      pop\n      jump\t// out\n\n    auxdata: 0xa26469706673582212202fdf83ea4b4cf4b5af9d116342a52c033d3f502c6e5686c6f3332cbc05263bef64736f6c634300081f0033\n}\n",
				"bytecode": {
					"linkReferences": {},
					"object": "6080604052348015600e575f5ffd5b5061038b8061001c5f395ff3fe608060405234801561000f575f5ffd5b5060043610610060575f3560e01c80634f78922c1461006457806361bc221a146100805780637d55923d1461009e5780638ada066e146100a8578063d732d955146100c6578063d826f88f146100d0575b5f5ffd5b61007e600480360381019061007991906101bc565b6100da565b005b610088610136565b60405161009591906101f6565b60405180910390f35b6100a661013b565b005b6100b0610153565b6040516100bd91906101f6565b60405180910390f35b6100ce61015b565b005b6100d861017d565b005b5f811161011c576040517f08c379a000000000000000000000000000000000000000000000000000000000815260040161011390610269565b60405180910390fd5b805f5f82825461012c91906102b4565b9250508190555050565b5f5481565b5f5f81548092919061014c906102e7565b9190505550565b5f5f54905090565b5f5f54111561017b575f5f8154809291906101759061032e565b91905055505b565b5f5f81905550565b5f5ffd5b5f819050919050565b61019b81610189565b81146101a5575f5ffd5b50565b5f813590506101b681610192565b92915050565b5f602082840312156101d1576101d0610185565b5b5f6101de848285016101a8565b91505092915050565b6101f081610189565b82525050565b5f6020820190506102095f8301846101e7565b92915050565b5f82825260208201905092915050565b7f74696d6573206d757374206265203e20300000000000000000000000000000005f82015250565b5f61025360118361020f565b915061025e8261021f565b602082019050919050565b5f6020820190508181035f83015261028081610247565b9050919050565b7f4e487b71000000000000000000000000000000000000000000000000000000005f52601160045260245ffd5b5f6102be82610189565b91506102c983610189565b92508282019050808211156102e1576102e0610287565b5b92915050565b5f6102f182610189565b91507fffffffffffffffffffffffffffffffffffffffffffffffffffffffffffffffff820361032357610322610287565b5b600182019050919050565b5f61033882610189565b91505f820361034a57610349610287565b5b60018203905091905056fea26469706673582212202fdf83ea4b4cf4b5af9d116342a52c033d3f502c6e5686c6f3332cbc05263bef64736f6c634300081f0033",
					"opcodes": "PUSH1 0x80 PUSH1 0x40 MSTORE CALLVALUE DUP1 ISZERO PUSH1 0xE JUMPI PUSH0 PUSH0 REVERT JUMPDEST POP PUSH2 0x38B DUP1 PUSH2 0x1C PUSH0 CODECOPY PUSH0 RETURN INVALID PUSH1 0x80 PUSH1 0x40 MSTORE CALLVALUE DUP1 ISZERO PUSH2 0xF JUMPI PUSH0 PUSH0 REVERT JUMPDEST POP PUSH1 0x4 CALLDATASIZE LT PUSH2 0x60 JUMPI PUSH0 CALLDATALOAD PUSH1 0xE0 SHR DUP1 PUSH4 0x4F78922C EQ PUSH2 0x64 JUMPI DUP1 PUSH4 0x61BC221A EQ PUSH2 0x80 JUMPI DUP1 PUSH4 0x7D55923D EQ PUSH2 0x9E JUMPI DUP1 PUSH4 0x8ADA066E EQ PUSH2 0xA8 JUMPI DUP1 PUSH4 0xD732D955 EQ PUSH2 0xC6 JUMPI DUP1 PUSH4 0xD826F88F EQ PUSH2 0xD0 JUMPI JUMPDEST PUSH0 PUSH0 REVERT JUMPDEST PUSH2 0x7E PUSH1 0x4 DUP1 CALLDATASIZE SUB DUP2 ADD SWAP1 PUSH2 0x79 SWAP2 SWAP1 PUSH2 0x1BC JUMP JUMPDEST PUSH2 0xDA JUMP JUMPDEST STOP JUMPDEST PUSH2 0x88 PUSH2 0x136 JUMP JUMPDEST PUSH1 0x40 MLOAD PUSH2 0x95 SWAP2 SWAP1 PUSH2 0x1F6 JUMP JUMPDEST PUSH1 0x40 MLOAD DUP1 SWAP2 SUB SWAP1 RETURN JUMPDEST PUSH2 0xA6 PUSH2 0x13B JUMP JUMPDEST STOP JUMPDEST PUSH2 0xB0 PUSH2 0x153 JUMP JUMPDEST PUSH1 0x40 MLOAD PUSH2 0xBD SWAP2 SWAP1 PUSH2 0x1F6 JUMP JUMPDEST PUSH1 0x40 MLOAD DUP1 SWAP2 SUB SWAP1 RETURN JUMPDEST PUSH2 0xCE PUSH2 0x15B JUMP JUMPDEST STOP JUMPDEST PUSH2 0xD8 PUSH2 0x17D JUMP JUMPDEST STOP JUMPDEST PUSH0 DUP2 GT PUSH2 0x11C JUMPI PUSH1 0x40 MLOAD PUSH32 0x8C379A000000000000000000000000000000000000000000000000000000000 DUP2 MSTORE PUSH1 0x4 ADD PUSH2 0x113 SWAP1 PUSH2 0x269 JUMP JUMPDEST PUSH1 0x40 MLOAD DUP1 SWAP2 SUB SWAP1 REVERT JUMPDEST DUP1 PUSH0 PUSH0 DUP3 DUP3 SLOAD PUSH2 0x12C SWAP2 SWAP1 PUSH2 0x2B4 JUMP JUMPDEST SWAP3 POP POP DUP2 SWAP1 SSTORE POP POP JUMP JUMPDEST PUSH0 SLOAD DUP2 JUMP JUMPDEST PUSH0 PUSH0 DUP2 SLOAD DUP1 SWAP3 SWAP2 SWAP1 PUSH2 0x14C SWAP1 PUSH2 0x2E7 JUMP JUMPDEST SWAP2 SWAP1 POP SSTORE POP JUMP JUMPDEST PUSH0 PUSH0 SLOAD SWAP1 POP SWAP1 JUMP JUMPDEST PUSH0 PUSH0 SLOAD GT ISZERO PUSH2 0x17B JUMPI PUSH0 PUSH0 DUP2 SLOAD DUP1 SWAP3 SWAP2 SWAP1 PUSH2 0x175 SWAP1 PUSH2 0x32E JUMP JUMPDEST SWAP2 SWAP1 POP SSTORE POP JUMPDEST JUMP JUMPDEST PUSH0 PUSH0 DUP2 SWAP1 SSTORE POP JUMP JUMPDEST PUSH0 PUSH0 REVERT JUMPDEST PUSH0 DUP2 SWAP1 POP SWAP2 SWAP1 POP JUMP JUMPDEST PUSH2 0x19B DUP2 PUSH2 0x189 JUMP JUMPDEST DUP2 EQ PUSH2 0x1A5 JUMPI PUSH0 PUSH0 REVERT JUMPDEST POP JUMP JUMPDEST PUSH0 DUP2 CALLDATALOAD SWAP1 POP PUSH2 0x1B6 DUP2 PUSH2 0x192 JUMP JUMPDEST SWAP3 SWAP2 POP POP JUMP JUMPDEST PUSH0 PUSH1 0x20 DUP3 DUP5 SUB SLT ISZERO PUSH2 0x1D1 JUMPI PUSH2 0x1D0 PUSH2 0x185 JUMP JUMPDEST JUMPDEST PUSH0 PUSH2 0x1DE DUP5 DUP3 DUP6 ADD PUSH2 0x1A8 JUMP JUMPDEST SWAP2 POP POP SWAP3 SWAP2 POP POP JUMP JUMPDEST PUSH2 0x1F0 DUP2 PUSH2 0x189 JUMP JUMPDEST DUP3 MSTORE POP POP JUMP JUMPDEST PUSH0 PUSH1 0x20 DUP3 ADD SWAP1 POP PUSH2 0x209 PUSH0 DUP4 ADD DUP5 PUSH2 0x1E7 JUMP JUMPDEST SWAP3 SWAP2 POP POP JUMP JUMPDEST PUSH0 DUP3 DUP3 MSTORE PUSH1 0x20 DUP3 ADD SWAP1 POP SWAP3 SWAP2 POP POP JUMP JUMPDEST PUSH32 0x74696D6573206D757374206265203E2030000000000000000000000000000000 PUSH0 DUP3 ADD MSTORE POP JUMP JUMPDEST PUSH0 PUSH2 0x253 PUSH1 0x11 DUP4 PUSH2 0x20F JUMP JUMPDEST SWAP2 POP PUSH2 0x25E DUP3 PUSH2 0x21F JUMP JUMPDEST PUSH1 0x20 DUP3 ADD SWAP1 POP SWAP2 SWAP1 POP JUMP JUMPDEST PUSH0 PUSH1 0x20 DUP3 ADD SWAP1 POP DUP2 DUP2 SUB PUSH0 DUP4 ADD MSTORE PUSH2 0x280 DUP2 PUSH2 0x247 JUMP JUMPDEST SWAP1 POP SWAP2 SWAP1 POP JUMP JUMPDEST PUSH32 0x4E487B7100000000000000000000000000000000000000000000000000000000 PUSH0 MSTORE PUSH1 0x11 PUSH1 0x4 MSTORE PUSH1 0x24 PUSH0 REVERT JUMPDEST PUSH0 PUSH2 0x2BE DUP3 PUSH2 0x189 JUMP JUMPDEST SWAP2 POP PUSH2 0x2C9 DUP4 PUSH2 0x189 JUMP JUMPDEST SWAP3 POP DUP3 DUP3 ADD SWAP1 POP DUP1 DUP3 GT ISZERO PUSH2 0x2E1 JUMPI PUSH2 0x2E0 PUSH2 0x287 JUMP JUMPDEST JUMPDEST SWAP3 SWAP2 POP POP JUMP JUMPDEST PUSH0 PUSH2 0x2F1 DUP3 PUSH2 0x189 JUMP JUMPDEST SWAP2 POP PUSH32 0xFFFFFFFFFFFFFFFFFFFFFFFFFFFFFFFFFFFFFFFFFFFFFFFFFFFFFFFFFFFFFFFF DUP3 SUB PUSH2 0x323 JUMPI PUSH2 0x322 PUSH2 0x287 JUMP JUMPDEST JUMPDEST PUSH1 0x1 DUP3 ADD SWAP1 POP SWAP2 SWAP1 POP JUMP JUMPDEST PUSH0 PUSH2 0x338 DUP3 PUSH2 0x189 JUMP JUMPDEST SWAP2 POP PUSH0 DUP3 SUB PUSH2 0x34A JUMPI PUSH2 0x349 PUSH2 0x287 JUMP JUMPDEST JUMPDEST PUSH1 0x1 DUP3 SUB SWAP1 POP SWAP2 SWAP1 POP JUMP INVALID LOG2 PUSH5 0x6970667358 0x22 SLT KECCAK256 0x2F 0xDF DUP4 0xEA 0x4B 0x4C DELEGATECALL 0xB5 0xAF SWAP14 GT PUSH4 0x42A52C03 RETURNDATASIZE EXTCODEHASH POP 0x2C PUSH15 0x5686C6F3332CBC05263BEF64736F6C PUSH4 0x4300081F STOP CALLER "
				},
				"gasEstimates": {
					"creation": {
						"codeDepositCost": "181400",
						"executionCost": "224",
						"totalCost": "181624"
					},
					"external": {
						"click()": "24518",
						"clickMultiple(uint256)": "infinite",
						"counter()": "2424",
						"decrease()": "26685",
						"getCounter()": "2475",
						"reset()": "5243"
					}
				},
				"methodIdentifiers": {
					"click()": "7d55923d",
					"clickMultiple(uint256)": "4f78922c",
					"counter()": "61bc221a",
					"decrease()": "d732d955",
					"getCounter()": "8ada066e",
					"reset()": "d826f88f"
				}
			},
			"storageLayout": {
				"storage": [
					{
						"astId": 3,
						"contract": "Day1-ClickCounter/ClickCounter.sol:ClickCounter",
						"label": "counter",
						"offset": 0,
						"slot": "0",
						"type": "t_uint256"
					}
				],
				"types": {
					"t_uint256": {
						"encoding": "inplace",
						"label": "uint256",
						"numberOfBytes": "32"
					}
				}
			},
			"userdoc": {
				"kind": "user",
				"methods": {},
				"version": 1
			}
		}
	}
}