{
	"day6-EtherPiggyBank/day6-etherpiggybank.sol": {
		"EtherPiggyBank": {
			"abi": [
				{
					"inputs": [],
					"stateMutability": "nonpayable",
					"type": "constructor"
				},
				{
					"inputs": [
						{
							"internalType": "address",
							"name": "_member",
							"type": "address"
						}
					],
					"name": "addMembers",
					"outputs": [],
					"stateMutability": "nonpayable",
					"type": "function"
				},
				{
					"inputs": [],
					"name": "bankmanager",
					"outputs": [
						{
							"internalType": "address",
							"name": "",
							"type": "address"
						}
					],
					"stateMutability": "view",
					"type": "function"
				},
				{
					"inputs": [
						{
							"internalType": "uint256",
							"name": "_inAmount",
							"type": "uint256"
						}
					],
					"name": "deposit",
					"outputs": [],
					"stateMutability": "nonpayable",
					"type": "function"
				},
				{
					"inputs": [],
					"name": "depositAmountEther",
					"outputs": [],
					"stateMutability": "payable",
					"type": "function"
				},
				{
					"inputs": [],
					"name": "getMembers",
					"outputs": [
						{
							"internalType": "address[]",
							"name": "",
							"type": "address[]"
						}
					],
					"stateMutability": "view",
					"type": "function"
				},
				{
					"inputs": [
						{
							"internalType": "uint256",
							"name": "_outAmount",
							"type": "uint256"
						}
					],
					"name": "withdraw",
					"outputs": [],
					"stateMutability": "nonpayable",
					"type": "function"
				}
			],
			"devdoc": {
				"kind": "dev",
				"methods": {},
				"version": 1
			},
			"evm": {
				"assembly": "    /* \"day6-EtherPiggyBank/day6-etherpiggybank.sol\":60:1844  contract EtherPiggyBank{... */\n  mstore(0x40, 0x80)\n    /* \"day6-EtherPiggyBank/day6-etherpiggybank.sol\":309:484  constructor() {  //构造函数，定义管理员... */\n  callvalue\n  dup1\n  iszero\n  tag_1\n  jumpi\n  revert(0x00, 0x00)\ntag_1:\n  pop\n    /* \"day6-EtherPiggyBank/day6-etherpiggybank.sol\":382:392  msg.sender */\n  caller\n    /* \"day6-EtherPiggyBank/day6-etherpiggybank.sol\":368:379  bankmanager */\n  0x00\n  0x00\n    /* \"day6-EtherPiggyBank/day6-etherpiggybank.sol\":368:392  bankmanager = msg.sender */\n  0x0100\n  exp\n  dup2\n  sload\n  dup2\n  0xffffffffffffffffffffffffffffffffffffffff\n  mul\n  not\n  and\n  swap1\n  dup4\n  0xffffffffffffffffffffffffffffffffffffffff\n  and\n  mul\n  or\n  swap1\n  sstore\n  pop\n    /* \"day6-EtherPiggyBank/day6-etherpiggybank.sol\":403:410  members */\n  0x01\n    /* \"day6-EtherPiggyBank/day6-etherpiggybank.sol\":416:427  bankmanager */\n  0x00\n  0x00\n  swap1\n  sload\n  swap1\n  0x0100\n  exp\n  swap1\n  div\n  0xffffffffffffffffffffffffffffffffffffffff\n  and\n    /* \"day6-EtherPiggyBank/day6-etherpiggybank.sol\":403:428  members.push(bankmanager) */\n  swap1\n  dup1\n  0x01\n  dup2\n  sload\n  add\n  dup1\n  dup3\n  sstore\n  dup1\n  swap2\n  pop\n  pop\n  0x01\n  swap1\n  sub\n  swap1\n  0x00\n  mstore\n  keccak256(0x00, 0x20)\n  add\n  0x00\n  swap1\n  swap2\n  swap1\n  swap2\n  swap1\n  swap2\n  0x0100\n  exp\n  dup2\n  sload\n  dup2\n  0xffffffffffffffffffffffffffffffffffffffff\n  mul\n  not\n  and\n  swap1\n  dup4\n  0xffffffffffffffffffffffffffffffffffffffff\n  and\n  mul\n  or\n  swap1\n  sstore\n  pop\n    /* \"day6-EtherPiggyBank/day6-etherpiggybank.sol\":472:476  true */\n  0x01\n    /* \"day6-EtherPiggyBank/day6-etherpiggybank.sol\":439:456  registeredMembers */\n  0x02\n    /* \"day6-EtherPiggyBank/day6-etherpiggybank.sol\":439:469  registeredMembers[bankmanager] */\n  0x00\n    /* \"day6-EtherPiggyBank/day6-etherpiggybank.sol\":457:468  bankmanager */\n  0x00\n  0x00\n  swap1\n  sload\n  swap1\n  0x0100\n  exp\n  swap1\n  div\n  0xffffffffffffffffffffffffffffffffffffffff\n  and\n    /* \"day6-EtherPiggyBank/day6-etherpiggybank.sol\":439:469  registeredMembers[bankmanager] */\n  0xffffffffffffffffffffffffffffffffffffffff\n  and\n  0xffffffffffffffffffffffffffffffffffffffff\n  and\n  dup2\n  mstore\n  0x20\n  add\n  swap1\n  dup2\n  mstore\n  0x20\n  add\n  0x00\n  keccak256\n  0x00\n    /* \"day6-EtherPiggyBank/day6-etherpiggybank.sol\":439:476  registeredMembers[bankmanager] = true */\n  0x0100\n  exp\n  dup2\n  sload\n  dup2\n  0xff\n  mul\n  not\n  and\n  swap1\n  dup4\n  iszero\n  iszero\n  mul\n  or\n  swap1\n  sstore\n  pop\n    /* \"day6-EtherPiggyBank/day6-etherpiggybank.sol\":60:1844  contract EtherPiggyBank{... */\n  dataSize(sub_0)\n  dup1\n  dataOffset(sub_0)\n  0x00\n  codecopy\n  0x00\n  return\nstop\n\nsub_0: assembly {\n        /* \"day6-EtherPiggyBank/day6-etherpiggybank.sol\":60:1844  contract EtherPiggyBank{... */\n      mstore(0x40, 0x80)\n      jumpi(tag_1, lt(calldatasize, 0x04))\n      shr(0xe0, calldataload(0x00))\n      dup1\n      0x1533323b\n      eq\n      tag_2\n      jumpi\n      dup1\n      0x2e1a7d4d\n      eq\n      tag_3\n      jumpi\n      dup1\n      0x939f284c\n      eq\n      tag_4\n      jumpi\n      dup1\n      0x9eab5253\n      eq\n      tag_5\n      jumpi\n      dup1\n      0xb6b55f25\n      eq\n      tag_6\n      jumpi\n      dup1\n      0xc379c3e8\n      eq\n      tag_7\n      jumpi\n    tag_1:\n      revert(0x00, 0x00)\n        /* \"day6-EtherPiggyBank/day6-etherpiggybank.sol\":90:116  address public bankmanager */\n    tag_2:\n      callvalue\n      dup1\n      iszero\n      tag_8\n      jumpi\n      revert(0x00, 0x00)\n    tag_8:\n      pop\n      tag_9\n      tag_10\n      jump\t// in\n    tag_9:\n      mload(0x40)\n      tag_11\n      swap2\n      swap1\n      tag_12\n      jump\t// in\n    tag_11:\n      mload(0x40)\n      dup1\n      swap2\n      sub\n      swap1\n      return\n        /* \"day6-EtherPiggyBank/day6-etherpiggybank.sol\":1413:1659  function withdraw(uint256 _outAmount) public onlyRegisteredMember{... */\n    tag_3:\n      callvalue\n      dup1\n      iszero\n      tag_13\n      jumpi\n      revert(0x00, 0x00)\n    tag_13:\n      pop\n      tag_14\n      0x04\n      dup1\n      calldatasize\n      sub\n      dup2\n      add\n      swap1\n      tag_15\n      swap2\n      swap1\n      tag_16\n      jump\t// in\n    tag_15:\n      tag_17\n      jump\t// in\n    tag_14:\n      stop\n        /* \"day6-EtherPiggyBank/day6-etherpiggybank.sol\":770:1128  function addMembers(address _member) public onlyBankManager{... */\n    tag_4:\n      callvalue\n      dup1\n      iszero\n      tag_18\n      jumpi\n      revert(0x00, 0x00)\n    tag_18:\n      pop\n      tag_19\n      0x04\n      dup1\n      calldatasize\n      sub\n      dup2\n      add\n      swap1\n      tag_20\n      swap2\n      swap1\n      tag_21\n      jump\t// in\n    tag_20:\n      tag_22\n      jump\t// in\n    tag_19:\n      stop\n        /* \"day6-EtherPiggyBank/day6-etherpiggybank.sol\":1136:1230  function getMembers() public view returns (address[] memory) {... */\n    tag_5:\n      callvalue\n      dup1\n      iszero\n      tag_23\n      jumpi\n      revert(0x00, 0x00)\n    tag_23:\n      pop\n      tag_24\n      tag_25\n      jump\t// in\n    tag_24:\n      mload(0x40)\n      tag_26\n      swap2\n      swap1\n      tag_27\n      jump\t// in\n    tag_26:\n      mload(0x40)\n      dup1\n      swap2\n      sub\n      swap1\n      return\n        /* \"day6-EtherPiggyBank/day6-etherpiggybank.sol\":1238:1404  function deposit(uint256 _inAmount) public onlyRegisteredMember{... */\n    tag_6:\n      callvalue\n      dup1\n      iszero\n      tag_28\n      jumpi\n      revert(0x00, 0x00)\n    tag_28:\n      pop\n      tag_29\n      0x04\n      dup1\n      calldatasize\n      sub\n      dup2\n      add\n      swap1\n      tag_30\n      swap2\n      swap1\n      tag_16\n      jump\t// in\n    tag_30:\n      tag_31\n      jump\t// in\n    tag_29:\n      stop\n        /* \"day6-EtherPiggyBank/day6-etherpiggybank.sol\":1667:1835  function depositAmountEther() public payable onlyRegisteredMember {... */\n    tag_7:\n      tag_32\n      tag_33\n      jump\t// in\n    tag_32:\n      stop\n        /* \"day6-EtherPiggyBank/day6-etherpiggybank.sol\":90:116  address public bankmanager */\n    tag_10:\n      0x00\n      0x00\n      swap1\n      sload\n      swap1\n      0x0100\n      exp\n      swap1\n      div\n      0xffffffffffffffffffffffffffffffffffffffff\n      and\n      dup2\n      jump\t// out\n        /* \"day6-EtherPiggyBank/day6-etherpiggybank.sol\":1413:1659  function withdraw(uint256 _outAmount) public onlyRegisteredMember{... */\n    tag_17:\n        /* \"day6-EtherPiggyBank/day6-etherpiggybank.sol\":687:704  registeredMembers */\n      0x02\n        /* \"day6-EtherPiggyBank/day6-etherpiggybank.sol\":687:716  registeredMembers[msg.sender] */\n      0x00\n        /* \"day6-EtherPiggyBank/day6-etherpiggybank.sol\":705:715  msg.sender */\n      caller\n        /* \"day6-EtherPiggyBank/day6-etherpiggybank.sol\":687:716  registeredMembers[msg.sender] */\n      0xffffffffffffffffffffffffffffffffffffffff\n      and\n      0xffffffffffffffffffffffffffffffffffffffff\n      and\n      dup2\n      mstore\n      0x20\n      add\n      swap1\n      dup2\n      mstore\n      0x20\n      add\n      0x00\n      keccak256\n      0x00\n      swap1\n      sload\n      swap1\n      0x0100\n      exp\n      swap1\n      div\n      0xff\n      and\n        /* \"day6-EtherPiggyBank/day6-etherpiggybank.sol\":679:742  require(registeredMembers[msg.sender], \"Member not registered\") */\n      tag_35\n      jumpi\n      mload(0x40)\n      0x08c379a000000000000000000000000000000000000000000000000000000000\n      dup2\n      mstore\n      0x04\n      add\n      tag_36\n      swap1\n      tag_37\n      jump\t// in\n    tag_36:\n      mload(0x40)\n      dup1\n      swap2\n      sub\n      swap1\n      revert\n    tag_35:\n        /* \"day6-EtherPiggyBank/day6-etherpiggybank.sol\":1510:1511  0 */\n      0x00\n        /* \"day6-EtherPiggyBank/day6-etherpiggybank.sol\":1497:1507  _outAmount */\n      dup2\n        /* \"day6-EtherPiggyBank/day6-etherpiggybank.sol\":1497:1511  _outAmount > 0 */\n      gt\n        /* \"day6-EtherPiggyBank/day6-etherpiggybank.sol\":1489:1530  require(_outAmount > 0, \"Invalid amount\") */\n      tag_39\n      jumpi\n      mload(0x40)\n      0x08c379a000000000000000000000000000000000000000000000000000000000\n      dup2\n      mstore\n      0x04\n      add\n      tag_40\n      swap1\n      tag_41\n      jump\t// in\n    tag_40:\n      mload(0x40)\n      dup1\n      swap2\n      sub\n      swap1\n      revert\n    tag_39:\n        /* \"day6-EtherPiggyBank/day6-etherpiggybank.sol\":1563:1570  balance */\n      0x03\n        /* \"day6-EtherPiggyBank/day6-etherpiggybank.sol\":1563:1582  balance[msg.sender] */\n      0x00\n        /* \"day6-EtherPiggyBank/day6-etherpiggybank.sol\":1571:1581  msg.sender */\n      caller\n        /* \"day6-EtherPiggyBank/day6-etherpiggybank.sol\":1563:1582  balance[msg.sender] */\n      0xffffffffffffffffffffffffffffffffffffffff\n      and\n      0xffffffffffffffffffffffffffffffffffffffff\n      and\n      dup2\n      mstore\n      0x20\n      add\n      swap1\n      dup2\n      mstore\n      0x20\n      add\n      0x00\n      keccak256\n      sload\n        /* \"day6-EtherPiggyBank/day6-etherpiggybank.sol\":1549:1559  _outAmount */\n      dup2\n        /* \"day6-EtherPiggyBank/day6-etherpiggybank.sol\":1549:1582  _outAmount <= balance[msg.sender] */\n      gt\n      iszero\n        /* \"day6-EtherPiggyBank/day6-etherpiggybank.sol\":1541:1607  require(_outAmount <= balance[msg.sender], \"Insufficient balance\") */\n      tag_42\n      jumpi\n      mload(0x40)\n      0x08c379a000000000000000000000000000000000000000000000000000000000\n      dup2\n      mstore\n      0x04\n      add\n      tag_43\n      swap1\n      tag_44\n      jump\t// in\n    tag_43:\n      mload(0x40)\n      dup1\n      swap2\n      sub\n      swap1\n      revert\n    tag_42:\n        /* \"day6-EtherPiggyBank/day6-etherpiggybank.sol\":1641:1651  _outAmount */\n      dup1\n        /* \"day6-EtherPiggyBank/day6-etherpiggybank.sol\":1618:1625  balance */\n      0x03\n        /* \"day6-EtherPiggyBank/day6-etherpiggybank.sol\":1618:1637  balance[msg.sender] */\n      0x00\n        /* \"day6-EtherPiggyBank/day6-etherpiggybank.sol\":1626:1636  msg.sender */\n      caller\n        /* \"day6-EtherPiggyBank/day6-etherpiggybank.sol\":1618:1637  balance[msg.sender] */\n      0xffffffffffffffffffffffffffffffffffffffff\n      and\n      0xffffffffffffffffffffffffffffffffffffffff\n      and\n      dup2\n      mstore\n      0x20\n      add\n      swap1\n      dup2\n      mstore\n      0x20\n      add\n      0x00\n      keccak256\n      0x00\n        /* \"day6-EtherPiggyBank/day6-etherpiggybank.sol\":1618:1651  balance[msg.sender] -= _outAmount */\n      dup3\n      dup3\n      sload\n      tag_45\n      swap2\n      swap1\n      tag_46\n      jump\t// in\n    tag_45:\n      swap3\n      pop\n      pop\n      dup2\n      swap1\n      sstore\n      pop\n        /* \"day6-EtherPiggyBank/day6-etherpiggybank.sol\":1413:1659  function withdraw(uint256 _outAmount) public onlyRegisteredMember{... */\n      pop\n      jump\t// out\n        /* \"day6-EtherPiggyBank/day6-etherpiggybank.sol\":770:1128  function addMembers(address _member) public onlyBankManager{... */\n    tag_22:\n        /* \"day6-EtherPiggyBank/day6-etherpiggybank.sol\":552:563  bankmanager */\n      0x00\n      0x00\n      swap1\n      sload\n      swap1\n      0x0100\n      exp\n      swap1\n      div\n      0xffffffffffffffffffffffffffffffffffffffff\n      and\n        /* \"day6-EtherPiggyBank/day6-etherpiggybank.sol\":538:563  msg.sender == bankmanager */\n      0xffffffffffffffffffffffffffffffffffffffff\n      and\n        /* \"day6-EtherPiggyBank/day6-etherpiggybank.sol\":538:548  msg.sender */\n      caller\n        /* \"day6-EtherPiggyBank/day6-etherpiggybank.sol\":538:563  msg.sender == bankmanager */\n      0xffffffffffffffffffffffffffffffffffffffff\n      and\n      eq\n        /* \"day6-EtherPiggyBank/day6-etherpiggybank.sol\":530:609  require(msg.sender == bankmanager, \"Only bank manager can perform this antion\") */\n      tag_48\n      jumpi\n      mload(0x40)\n      0x08c379a000000000000000000000000000000000000000000000000000000000\n      dup2\n      mstore\n      0x04\n      add\n      tag_49\n      swap1\n      tag_50\n      jump\t// in\n    tag_49:\n      mload(0x40)\n      dup1\n      swap2\n      sub\n      swap1\n      revert\n    tag_48:\n        /* \"day6-EtherPiggyBank/day6-etherpiggybank.sol\":867:868  0 */\n      0x00\n        /* \"day6-EtherPiggyBank/day6-etherpiggybank.sol\":848:869  _member != address(0) */\n      0xffffffffffffffffffffffffffffffffffffffff\n      and\n        /* \"day6-EtherPiggyBank/day6-etherpiggybank.sol\":848:855  _member */\n      dup2\n        /* \"day6-EtherPiggyBank/day6-etherpiggybank.sol\":848:869  _member != address(0) */\n      0xffffffffffffffffffffffffffffffffffffffff\n      and\n      sub\n        /* \"day6-EtherPiggyBank/day6-etherpiggybank.sol\":840:889  require(_member != address(0), \"Invalid address\") */\n      tag_52\n      jumpi\n      mload(0x40)\n      0x08c379a000000000000000000000000000000000000000000000000000000000\n      dup2\n      mstore\n      0x04\n      add\n      tag_53\n      swap1\n      tag_54\n      jump\t// in\n    tag_53:\n      mload(0x40)\n      dup1\n      swap2\n      sub\n      swap1\n      revert\n    tag_52:\n        /* \"day6-EtherPiggyBank/day6-etherpiggybank.sol\":919:929  msg.sender */\n      caller\n        /* \"day6-EtherPiggyBank/day6-etherpiggybank.sol\":908:929  _member != msg.sender */\n      0xffffffffffffffffffffffffffffffffffffffff\n      and\n        /* \"day6-EtherPiggyBank/day6-etherpiggybank.sol\":908:915  _member */\n      dup2\n        /* \"day6-EtherPiggyBank/day6-etherpiggybank.sol\":908:929  _member != msg.sender */\n      0xffffffffffffffffffffffffffffffffffffffff\n      and\n      sub\n        /* \"day6-EtherPiggyBank/day6-etherpiggybank.sol\":900:966  require(_member != msg.sender, \"Bank Manager is already a member\") */\n      tag_55\n      jumpi\n      mload(0x40)\n      0x08c379a000000000000000000000000000000000000000000000000000000000\n      dup2\n      mstore\n      0x04\n      add\n      tag_56\n      swap1\n      tag_57\n      jump\t// in\n    tag_56:\n      mload(0x40)\n      dup1\n      swap2\n      sub\n      swap1\n      revert\n    tag_55:\n        /* \"day6-EtherPiggyBank/day6-etherpiggybank.sol\":986:1003  registeredMembers */\n      0x02\n        /* \"day6-EtherPiggyBank/day6-etherpiggybank.sol\":986:1012  registeredMembers[_member] */\n      0x00\n        /* \"day6-EtherPiggyBank/day6-etherpiggybank.sol\":1004:1011  _member */\n      dup3\n        /* \"day6-EtherPiggyBank/day6-etherpiggybank.sol\":986:1012  registeredMembers[_member] */\n      0xffffffffffffffffffffffffffffffffffffffff\n      and\n      0xffffffffffffffffffffffffffffffffffffffff\n      and\n      dup2\n      mstore\n      0x20\n      add\n      swap1\n      dup2\n      mstore\n      0x20\n      add\n      0x00\n      keccak256\n      0x00\n      swap1\n      sload\n      swap1\n      0x0100\n      exp\n      swap1\n      div\n      0xff\n      and\n        /* \"day6-EtherPiggyBank/day6-etherpiggybank.sol\":985:1012  !registeredMembers[_member] */\n      iszero\n        /* \"day6-EtherPiggyBank/day6-etherpiggybank.sol\":977:1042  require(!registeredMembers[_member], \"Member already registered\") */\n      tag_58\n      jumpi\n      mload(0x40)\n      0x08c379a000000000000000000000000000000000000000000000000000000000\n      dup2\n      mstore\n      0x04\n      add\n      tag_59\n      swap1\n      tag_60\n      jump\t// in\n    tag_59:\n      mload(0x40)\n      dup1\n      swap2\n      sub\n      swap1\n      revert\n    tag_58:\n        /* \"day6-EtherPiggyBank/day6-etherpiggybank.sol\":1084:1088  true */\n      0x01\n        /* \"day6-EtherPiggyBank/day6-etherpiggybank.sol\":1055:1072  registeredMembers */\n      0x02\n        /* \"day6-EtherPiggyBank/day6-etherpiggybank.sol\":1055:1081  registeredMembers[_member] */\n      0x00\n        /* \"day6-EtherPiggyBank/day6-etherpiggybank.sol\":1073:1080  _member */\n      dup4\n        /* \"day6-EtherPiggyBank/day6-etherpiggybank.sol\":1055:1081  registeredMembers[_member] */\n      0xffffffffffffffffffffffffffffffffffffffff\n      and\n      0xffffffffffffffffffffffffffffffffffffffff\n      and\n      dup2\n      mstore\n      0x20\n      add\n      swap1\n      dup2\n      mstore\n      0x20\n      add\n      0x00\n      keccak256\n      0x00\n        /* \"day6-EtherPiggyBank/day6-etherpiggybank.sol\":1055:1088  registeredMembers[_member] = true */\n      0x0100\n      exp\n      dup2\n      sload\n      dup2\n      0xff\n      mul\n      not\n      and\n      swap1\n      dup4\n      iszero\n      iszero\n      mul\n      or\n      swap1\n      sstore\n      pop\n        /* \"day6-EtherPiggyBank/day6-etherpiggybank.sol\":1099:1106  members */\n      0x01\n        /* \"day6-EtherPiggyBank/day6-etherpiggybank.sol\":1112:1119  _member */\n      dup2\n        /* \"day6-EtherPiggyBank/day6-etherpiggybank.sol\":1099:1120  members.push(_member) */\n      swap1\n      dup1\n      0x01\n      dup2\n      sload\n      add\n      dup1\n      dup3\n      sstore\n      dup1\n      swap2\n      pop\n      pop\n      0x01\n      swap1\n      sub\n      swap1\n      0x00\n      mstore\n      keccak256(0x00, 0x20)\n      add\n      0x00\n      swap1\n      swap2\n      swap1\n      swap2\n      swap1\n      swap2\n      0x0100\n      exp\n      dup2\n      sload\n      dup2\n      0xffffffffffffffffffffffffffffffffffffffff\n      mul\n      not\n      and\n      swap1\n      dup4\n      0xffffffffffffffffffffffffffffffffffffffff\n      and\n      mul\n      or\n      swap1\n      sstore\n      pop\n        /* \"day6-EtherPiggyBank/day6-etherpiggybank.sol\":770:1128  function addMembers(address _member) public onlyBankManager{... */\n      pop\n      jump\t// out\n        /* \"day6-EtherPiggyBank/day6-etherpiggybank.sol\":1136:1230  function getMembers() public view returns (address[] memory) {... */\n    tag_25:\n        /* \"day6-EtherPiggyBank/day6-etherpiggybank.sol\":1179:1195  address[] memory */\n      0x60\n        /* \"day6-EtherPiggyBank/day6-etherpiggybank.sol\":1215:1222  members */\n      0x01\n        /* \"day6-EtherPiggyBank/day6-etherpiggybank.sol\":1208:1222  return members */\n      dup1\n      sload\n      dup1\n      0x20\n      mul\n      0x20\n      add\n      mload(0x40)\n      swap1\n      dup2\n      add\n      0x40\n      mstore\n      dup1\n      swap3\n      swap2\n      swap1\n      dup2\n      dup2\n      mstore\n      0x20\n      add\n      dup3\n      dup1\n      sload\n      dup1\n      iszero\n      tag_63\n      jumpi\n      0x20\n      mul\n      dup3\n      add\n      swap2\n      swap1\n      0x00\n      mstore\n      keccak256(0x00, 0x20)\n      swap1\n    tag_64:\n      dup2\n      0x00\n      swap1\n      sload\n      swap1\n      0x0100\n      exp\n      swap1\n      div\n      0xffffffffffffffffffffffffffffffffffffffff\n      and\n      0xffffffffffffffffffffffffffffffffffffffff\n      and\n      dup2\n      mstore\n      0x20\n      add\n      swap1\n      0x01\n      add\n      swap1\n      dup1\n      dup4\n      gt\n      tag_64\n      jumpi\n    tag_63:\n      pop\n      pop\n      pop\n      pop\n      pop\n      swap1\n      pop\n        /* \"day6-EtherPiggyBank/day6-etherpiggybank.sol\":1136:1230  function getMembers() public view returns (address[] memory) {... */\n      swap1\n      jump\t// out\n        /* \"day6-EtherPiggyBank/day6-etherpiggybank.sol\":1238:1404  function deposit(uint256 _inAmount) public onlyRegisteredMember{... */\n    tag_31:\n        /* \"day6-EtherPiggyBank/day6-etherpiggybank.sol\":687:704  registeredMembers */\n      0x02\n        /* \"day6-EtherPiggyBank/day6-etherpiggybank.sol\":687:716  registeredMembers[msg.sender] */\n      0x00\n        /* \"day6-EtherPiggyBank/day6-etherpiggybank.sol\":705:715  msg.sender */\n      caller\n        /* \"day6-EtherPiggyBank/day6-etherpiggybank.sol\":687:716  registeredMembers[msg.sender] */\n      0xffffffffffffffffffffffffffffffffffffffff\n      and\n      0xffffffffffffffffffffffffffffffffffffffff\n      and\n      dup2\n      mstore\n      0x20\n      add\n      swap1\n      dup2\n      mstore\n      0x20\n      add\n      0x00\n      keccak256\n      0x00\n      swap1\n      sload\n      swap1\n      0x0100\n      exp\n      swap1\n      div\n      0xff\n      and\n        /* \"day6-EtherPiggyBank/day6-etherpiggybank.sol\":679:742  require(registeredMembers[msg.sender], \"Member not registered\") */\n      tag_66\n      jumpi\n      mload(0x40)\n      0x08c379a000000000000000000000000000000000000000000000000000000000\n      dup2\n      mstore\n      0x04\n      add\n      tag_67\n      swap1\n      tag_37\n      jump\t// in\n    tag_67:\n      mload(0x40)\n      dup1\n      swap2\n      sub\n      swap1\n      revert\n    tag_66:\n        /* \"day6-EtherPiggyBank/day6-etherpiggybank.sol\":1332:1333  0 */\n      0x00\n        /* \"day6-EtherPiggyBank/day6-etherpiggybank.sol\":1320:1329  _inAmount */\n      dup2\n        /* \"day6-EtherPiggyBank/day6-etherpiggybank.sol\":1320:1333  _inAmount > 0 */\n      gt\n        /* \"day6-EtherPiggyBank/day6-etherpiggybank.sol\":1312:1353  require(_inAmount > 0, \"Invalid amnount\") */\n      tag_69\n      jumpi\n      mload(0x40)\n      0x08c379a000000000000000000000000000000000000000000000000000000000\n      dup2\n      mstore\n      0x04\n      add\n      tag_70\n      swap1\n      tag_71\n      jump\t// in\n    tag_70:\n      mload(0x40)\n      dup1\n      swap2\n      sub\n      swap1\n      revert\n    tag_69:\n        /* \"day6-EtherPiggyBank/day6-etherpiggybank.sol\":1387:1396  _inAmount */\n      dup1\n        /* \"day6-EtherPiggyBank/day6-etherpiggybank.sol\":1364:1371  balance */\n      0x03\n        /* \"day6-EtherPiggyBank/day6-etherpiggybank.sol\":1364:1383  balance[msg.sender] */\n      0x00\n        /* \"day6-EtherPiggyBank/day6-etherpiggybank.sol\":1372:1382  msg.sender */\n      caller\n        /* \"day6-EtherPiggyBank/day6-etherpiggybank.sol\":1364:1383  balance[msg.sender] */\n      0xffffffffffffffffffffffffffffffffffffffff\n      and\n      0xffffffffffffffffffffffffffffffffffffffff\n      and\n      dup2\n      mstore\n      0x20\n      add\n      swap1\n      dup2\n      mstore\n      0x20\n      add\n      0x00\n      keccak256\n      0x00\n        /* \"day6-EtherPiggyBank/day6-etherpiggybank.sol\":1364:1396  balance[msg.sender] += _inAmount */\n      dup3\n      dup3\n      sload\n      tag_72\n      swap2\n      swap1\n      tag_73\n      jump\t// in\n    tag_72:\n      swap3\n      pop\n      pop\n      dup2\n      swap1\n      sstore\n      pop\n        /* \"day6-EtherPiggyBank/day6-etherpiggybank.sol\":1238:1404  function deposit(uint256 _inAmount) public onlyRegisteredMember{... */\n      pop\n      jump\t// out\n        /* \"day6-EtherPiggyBank/day6-etherpiggybank.sol\":1667:1835  function depositAmountEther() public payable onlyRegisteredMember {... */\n    tag_33:\n        /* \"day6-EtherPiggyBank/day6-etherpiggybank.sol\":687:704  registeredMembers */\n      0x02\n        /* \"day6-EtherPiggyBank/day6-etherpiggybank.sol\":687:716  registeredMembers[msg.sender] */\n      0x00\n        /* \"day6-EtherPiggyBank/day6-etherpiggybank.sol\":705:715  msg.sender */\n      caller\n        /* \"day6-EtherPiggyBank/day6-etherpiggybank.sol\":687:716  registeredMembers[msg.sender] */\n      0xffffffffffffffffffffffffffffffffffffffff\n      and\n      0xffffffffffffffffffffffffffffffffffffffff\n      and\n      dup2\n      mstore\n      0x20\n      add\n      swap1\n      dup2\n      mstore\n      0x20\n      add\n      0x00\n      keccak256\n      0x00\n      swap1\n      sload\n      swap1\n      0x0100\n      exp\n      swap1\n      div\n      0xff\n      and\n        /* \"day6-EtherPiggyBank/day6-etherpiggybank.sol\":679:742  require(registeredMembers[msg.sender], \"Member not registered\") */\n      tag_75\n      jumpi\n      mload(0x40)\n      0x08c379a000000000000000000000000000000000000000000000000000000000\n      dup2\n      mstore\n      0x04\n      add\n      tag_76\n      swap1\n      tag_37\n      jump\t// in\n    tag_76:\n      mload(0x40)\n      dup1\n      swap2\n      sub\n      swap1\n      revert\n    tag_75:\n        /* \"day6-EtherPiggyBank/day6-etherpiggybank.sol\":1764:1765  0 */\n      0x00\n        /* \"day6-EtherPiggyBank/day6-etherpiggybank.sol\":1752:1761  msg.value */\n      callvalue\n        /* \"day6-EtherPiggyBank/day6-etherpiggybank.sol\":1752:1765  msg.value > 0 */\n      gt\n        /* \"day6-EtherPiggyBank/day6-etherpiggybank.sol\":1744:1784  require(msg.value > 0, \"Invalid amount\") */\n      tag_78\n      jumpi\n      mload(0x40)\n      0x08c379a000000000000000000000000000000000000000000000000000000000\n      dup2\n      mstore\n      0x04\n      add\n      tag_79\n      swap1\n      tag_41\n      jump\t// in\n    tag_79:\n      mload(0x40)\n      dup1\n      swap2\n      sub\n      swap1\n      revert\n    tag_78:\n        /* \"day6-EtherPiggyBank/day6-etherpiggybank.sol\":1818:1827  msg.value */\n      callvalue\n        /* \"day6-EtherPiggyBank/day6-etherpiggybank.sol\":1795:1802  balance */\n      0x03\n        /* \"day6-EtherPiggyBank/day6-etherpiggybank.sol\":1795:1814  balance[msg.sender] */\n      0x00\n        /* \"day6-EtherPiggyBank/day6-etherpiggybank.sol\":1803:1813  msg.sender */\n      caller\n        /* \"day6-EtherPiggyBank/day6-etherpiggybank.sol\":1795:1814  balance[msg.sender] */\n      0xffffffffffffffffffffffffffffffffffffffff\n      and\n      0xffffffffffffffffffffffffffffffffffffffff\n      and\n      dup2\n      mstore\n      0x20\n      add\n      swap1\n      dup2\n      mstore\n      0x20\n      add\n      0x00\n      keccak256\n      0x00\n        /* \"day6-EtherPiggyBank/day6-etherpiggybank.sol\":1795:1827  balance[msg.sender] += msg.value */\n      dup3\n      dup3\n      sload\n      tag_80\n      swap2\n      swap1\n      tag_73\n      jump\t// in\n    tag_80:\n      swap3\n      pop\n      pop\n      dup2\n      swap1\n      sstore\n      pop\n        /* \"day6-EtherPiggyBank/day6-etherpiggybank.sol\":1667:1835  function depositAmountEther() public payable onlyRegisteredMember {... */\n      jump\t// out\n        /* \"#utility.yul\":7:133   */\n    tag_81:\n        /* \"#utility.yul\":44:51   */\n      0x00\n        /* \"#utility.yul\":84:126   */\n      0xffffffffffffffffffffffffffffffffffffffff\n        /* \"#utility.yul\":77:82   */\n      dup3\n        /* \"#utility.yul\":73:127   */\n      and\n        /* \"#utility.yul\":62:127   */\n      swap1\n      pop\n        /* \"#utility.yul\":7:133   */\n      swap2\n      swap1\n      pop\n      jump\t// out\n        /* \"#utility.yul\":139:235   */\n    tag_82:\n        /* \"#utility.yul\":176:183   */\n      0x00\n        /* \"#utility.yul\":205:229   */\n      tag_120\n        /* \"#utility.yul\":223:228   */\n      dup3\n        /* \"#utility.yul\":205:229   */\n      tag_81\n      jump\t// in\n    tag_120:\n        /* \"#utility.yul\":194:229   */\n      swap1\n      pop\n        /* \"#utility.yul\":139:235   */\n      swap2\n      swap1\n      pop\n      jump\t// out\n        /* \"#utility.yul\":241:359   */\n    tag_83:\n        /* \"#utility.yul\":328:352   */\n      tag_122\n        /* \"#utility.yul\":346:351   */\n      dup2\n        /* \"#utility.yul\":328:352   */\n      tag_82\n      jump\t// in\n    tag_122:\n        /* \"#utility.yul\":323:326   */\n      dup3\n        /* \"#utility.yul\":316:353   */\n      mstore\n        /* \"#utility.yul\":241:359   */\n      pop\n      pop\n      jump\t// out\n        /* \"#utility.yul\":365:587   */\n    tag_12:\n        /* \"#utility.yul\":458:462   */\n      0x00\n        /* \"#utility.yul\":496:498   */\n      0x20\n        /* \"#utility.yul\":485:494   */\n      dup3\n        /* \"#utility.yul\":481:499   */\n      add\n        /* \"#utility.yul\":473:499   */\n      swap1\n      pop\n        /* \"#utility.yul\":509:580   */\n      tag_124\n        /* \"#utility.yul\":577:578   */\n      0x00\n        /* \"#utility.yul\":566:575   */\n      dup4\n        /* \"#utility.yul\":562:579   */\n      add\n        /* \"#utility.yul\":553:559   */\n      dup5\n        /* \"#utility.yul\":509:580   */\n      tag_83\n      jump\t// in\n    tag_124:\n        /* \"#utility.yul\":365:587   */\n      swap3\n      swap2\n      pop\n      pop\n      jump\t// out\n        /* \"#utility.yul\":674:791   */\n    tag_85:\n        /* \"#utility.yul\":783:784   */\n      0x00\n        /* \"#utility.yul\":780:781   */\n      0x00\n        /* \"#utility.yul\":773:785   */\n      revert\n        /* \"#utility.yul\":920:997   */\n    tag_87:\n        /* \"#utility.yul\":957:964   */\n      0x00\n        /* \"#utility.yul\":986:991   */\n      dup2\n        /* \"#utility.yul\":975:991   */\n      swap1\n      pop\n        /* \"#utility.yul\":920:997   */\n      swap2\n      swap1\n      pop\n      jump\t// out\n        /* \"#utility.yul\":1003:1125   */\n    tag_88:\n        /* \"#utility.yul\":1076:1100   */\n      tag_130\n        /* \"#utility.yul\":1094:1099   */\n      dup2\n        /* \"#utility.yul\":1076:1100   */\n      tag_87\n      jump\t// in\n    tag_130:\n        /* \"#utility.yul\":1069:1074   */\n      dup2\n        /* \"#utility.yul\":1066:1101   */\n      eq\n        /* \"#utility.yul\":1056:1119   */\n      tag_131\n      jumpi\n        /* \"#utility.yul\":1115:1116   */\n      0x00\n        /* \"#utility.yul\":1112:1113   */\n      0x00\n        /* \"#utility.yul\":1105:1117   */\n      revert\n        /* \"#utility.yul\":1056:1119   */\n    tag_131:\n        /* \"#utility.yul\":1003:1125   */\n      pop\n      jump\t// out\n        /* \"#utility.yul\":1131:1270   */\n    tag_89:\n        /* \"#utility.yul\":1177:1182   */\n      0x00\n        /* \"#utility.yul\":1215:1221   */\n      dup2\n        /* \"#utility.yul\":1202:1222   */\n      calldataload\n        /* \"#utility.yul\":1193:1222   */\n      swap1\n      pop\n        /* \"#utility.yul\":1231:1264   */\n      tag_133\n        /* \"#utility.yul\":1258:1263   */\n      dup2\n        /* \"#utility.yul\":1231:1264   */\n      tag_88\n      jump\t// in\n    tag_133:\n        /* \"#utility.yul\":1131:1270   */\n      swap3\n      swap2\n      pop\n      pop\n      jump\t// out\n        /* \"#utility.yul\":1276:1605   */\n    tag_16:\n        /* \"#utility.yul\":1335:1341   */\n      0x00\n        /* \"#utility.yul\":1384:1386   */\n      0x20\n        /* \"#utility.yul\":1372:1381   */\n      dup3\n        /* \"#utility.yul\":1363:1370   */\n      dup5\n        /* \"#utility.yul\":1359:1382   */\n      sub\n        /* \"#utility.yul\":1355:1387   */\n      slt\n        /* \"#utility.yul\":1352:1471   */\n      iszero\n      tag_135\n      jumpi\n        /* \"#utility.yul\":1390:1469   */\n      tag_136\n      tag_85\n      jump\t// in\n    tag_136:\n        /* \"#utility.yul\":1352:1471   */\n    tag_135:\n        /* \"#utility.yul\":1510:1511   */\n      0x00\n        /* \"#utility.yul\":1535:1588   */\n      tag_137\n        /* \"#utility.yul\":1580:1587   */\n      dup5\n        /* \"#utility.yul\":1571:1577   */\n      dup3\n        /* \"#utility.yul\":1560:1569   */\n      dup6\n        /* \"#utility.yul\":1556:1578   */\n      add\n        /* \"#utility.yul\":1535:1588   */\n      tag_89\n      jump\t// in\n    tag_137:\n        /* \"#utility.yul\":1525:1588   */\n      swap2\n      pop\n        /* \"#utility.yul\":1481:1598   */\n      pop\n        /* \"#utility.yul\":1276:1605   */\n      swap3\n      swap2\n      pop\n      pop\n      jump\t// out\n        /* \"#utility.yul\":1611:1733   */\n    tag_90:\n        /* \"#utility.yul\":1684:1708   */\n      tag_139\n        /* \"#utility.yul\":1702:1707   */\n      dup2\n        /* \"#utility.yul\":1684:1708   */\n      tag_82\n      jump\t// in\n    tag_139:\n        /* \"#utility.yul\":1677:1682   */\n      dup2\n        /* \"#utility.yul\":1674:1709   */\n      eq\n        /* \"#utility.yul\":1664:1727   */\n      tag_140\n      jumpi\n        /* \"#utility.yul\":1723:1724   */\n      0x00\n        /* \"#utility.yul\":1720:1721   */\n      0x00\n        /* \"#utility.yul\":1713:1725   */\n      revert\n        /* \"#utility.yul\":1664:1727   */\n    tag_140:\n        /* \"#utility.yul\":1611:1733   */\n      pop\n      jump\t// out\n        /* \"#utility.yul\":1739:1878   */\n    tag_91:\n        /* \"#utility.yul\":1785:1790   */\n      0x00\n        /* \"#utility.yul\":1823:1829   */\n      dup2\n        /* \"#utility.yul\":1810:1830   */\n      calldataload\n        /* \"#utility.yul\":1801:1830   */\n      swap1\n      pop\n        /* \"#utility.yul\":1839:1872   */\n      tag_142\n        /* \"#utility.yul\":1866:1871   */\n      dup2\n        /* \"#utility.yul\":1839:1872   */\n      tag_90\n      jump\t// in\n    tag_142:\n        /* \"#utility.yul\":1739:1878   */\n      swap3\n      swap2\n      pop\n      pop\n      jump\t// out\n        /* \"#utility.yul\":1884:2213   */\n    tag_21:\n        /* \"#utility.yul\":1943:1949   */\n      0x00\n        /* \"#utility.yul\":1992:1994   */\n      0x20\n        /* \"#utility.yul\":1980:1989   */\n      dup3\n        /* \"#utility.yul\":1971:1978   */\n      dup5\n        /* \"#utility.yul\":1967:1990   */\n      sub\n        /* \"#utility.yul\":1963:1995   */\n      slt\n        /* \"#utility.yul\":1960:2079   */\n      iszero\n      tag_144\n      jumpi\n        /* \"#utility.yul\":1998:2077   */\n      tag_145\n      tag_85\n      jump\t// in\n    tag_145:\n        /* \"#utility.yul\":1960:2079   */\n    tag_144:\n        /* \"#utility.yul\":2118:2119   */\n      0x00\n        /* \"#utility.yul\":2143:2196   */\n      tag_146\n        /* \"#utility.yul\":2188:2195   */\n      dup5\n        /* \"#utility.yul\":2179:2185   */\n      dup3\n        /* \"#utility.yul\":2168:2177   */\n      dup6\n        /* \"#utility.yul\":2164:2186   */\n      add\n        /* \"#utility.yul\":2143:2196   */\n      tag_91\n      jump\t// in\n    tag_146:\n        /* \"#utility.yul\":2133:2196   */\n      swap2\n      pop\n        /* \"#utility.yul\":2089:2206   */\n      pop\n        /* \"#utility.yul\":1884:2213   */\n      swap3\n      swap2\n      pop\n      pop\n      jump\t// out\n        /* \"#utility.yul\":2219:2333   */\n    tag_92:\n        /* \"#utility.yul\":2286:2292   */\n      0x00\n        /* \"#utility.yul\":2320:2325   */\n      dup2\n        /* \"#utility.yul\":2314:2326   */\n      mload\n        /* \"#utility.yul\":2304:2326   */\n      swap1\n      pop\n        /* \"#utility.yul\":2219:2333   */\n      swap2\n      swap1\n      pop\n      jump\t// out\n        /* \"#utility.yul\":2339:2523   */\n    tag_93:\n        /* \"#utility.yul\":2438:2449   */\n      0x00\n        /* \"#utility.yul\":2472:2478   */\n      dup3\n        /* \"#utility.yul\":2467:2470   */\n      dup3\n        /* \"#utility.yul\":2460:2479   */\n      mstore\n        /* \"#utility.yul\":2512:2516   */\n      0x20\n        /* \"#utility.yul\":2507:2510   */\n      dup3\n        /* \"#utility.yul\":2503:2517   */\n      add\n        /* \"#utility.yul\":2488:2517   */\n      swap1\n      pop\n        /* \"#utility.yul\":2339:2523   */\n      swap3\n      swap2\n      pop\n      pop\n      jump\t// out\n        /* \"#utility.yul\":2529:2661   */\n    tag_94:\n        /* \"#utility.yul\":2596:2600   */\n      0x00\n        /* \"#utility.yul\":2619:2622   */\n      dup2\n        /* \"#utility.yul\":2611:2622   */\n      swap1\n      pop\n        /* \"#utility.yul\":2649:2653   */\n      0x20\n        /* \"#utility.yul\":2644:2647   */\n      dup3\n        /* \"#utility.yul\":2640:2654   */\n      add\n        /* \"#utility.yul\":2632:2654   */\n      swap1\n      pop\n        /* \"#utility.yul\":2529:2661   */\n      swap2\n      swap1\n      pop\n      jump\t// out\n        /* \"#utility.yul\":2667:2775   */\n    tag_95:\n        /* \"#utility.yul\":2744:2768   */\n      tag_151\n        /* \"#utility.yul\":2762:2767   */\n      dup2\n        /* \"#utility.yul\":2744:2768   */\n      tag_82\n      jump\t// in\n    tag_151:\n        /* \"#utility.yul\":2739:2742   */\n      dup3\n        /* \"#utility.yul\":2732:2769   */\n      mstore\n        /* \"#utility.yul\":2667:2775   */\n      pop\n      pop\n      jump\t// out\n        /* \"#utility.yul\":2781:2960   */\n    tag_96:\n        /* \"#utility.yul\":2850:2860   */\n      0x00\n        /* \"#utility.yul\":2871:2917   */\n      tag_153\n        /* \"#utility.yul\":2913:2916   */\n      dup4\n        /* \"#utility.yul\":2905:2911   */\n      dup4\n        /* \"#utility.yul\":2871:2917   */\n      tag_95\n      jump\t// in\n    tag_153:\n        /* \"#utility.yul\":2949:2953   */\n      0x20\n        /* \"#utility.yul\":2944:2947   */\n      dup4\n        /* \"#utility.yul\":2940:2954   */\n      add\n        /* \"#utility.yul\":2926:2954   */\n      swap1\n      pop\n        /* \"#utility.yul\":2781:2960   */\n      swap3\n      swap2\n      pop\n      pop\n      jump\t// out\n        /* \"#utility.yul\":2966:3079   */\n    tag_97:\n        /* \"#utility.yul\":3036:3040   */\n      0x00\n        /* \"#utility.yul\":3068:3072   */\n      0x20\n        /* \"#utility.yul\":3063:3066   */\n      dup3\n        /* \"#utility.yul\":3059:3073   */\n      add\n        /* \"#utility.yul\":3051:3073   */\n      swap1\n      pop\n        /* \"#utility.yul\":2966:3079   */\n      swap2\n      swap1\n      pop\n      jump\t// out\n        /* \"#utility.yul\":3115:3847   */\n    tag_98:\n        /* \"#utility.yul\":3234:3237   */\n      0x00\n        /* \"#utility.yul\":3263:3317   */\n      tag_156\n        /* \"#utility.yul\":3311:3316   */\n      dup3\n        /* \"#utility.yul\":3263:3317   */\n      tag_92\n      jump\t// in\n    tag_156:\n        /* \"#utility.yul\":3333:3419   */\n      tag_157\n        /* \"#utility.yul\":3412:3418   */\n      dup2\n        /* \"#utility.yul\":3407:3410   */\n      dup6\n        /* \"#utility.yul\":3333:3419   */\n      tag_93\n      jump\t// in\n    tag_157:\n        /* \"#utility.yul\":3326:3419   */\n      swap4\n      pop\n        /* \"#utility.yul\":3443:3499   */\n      tag_158\n        /* \"#utility.yul\":3493:3498   */\n      dup4\n        /* \"#utility.yul\":3443:3499   */\n      tag_94\n      jump\t// in\n    tag_158:\n        /* \"#utility.yul\":3522:3529   */\n      dup1\n        /* \"#utility.yul\":3553:3554   */\n      0x00\n        /* \"#utility.yul\":3538:3822   */\n    tag_159:\n        /* \"#utility.yul\":3563:3569   */\n      dup4\n        /* \"#utility.yul\":3560:3561   */\n      dup2\n        /* \"#utility.yul\":3557:3570   */\n      lt\n        /* \"#utility.yul\":3538:3822   */\n      iszero\n      tag_161\n      jumpi\n        /* \"#utility.yul\":3639:3645   */\n      dup2\n        /* \"#utility.yul\":3633:3646   */\n      mload\n        /* \"#utility.yul\":3666:3729   */\n      tag_162\n        /* \"#utility.yul\":3725:3728   */\n      dup9\n        /* \"#utility.yul\":3710:3723   */\n      dup3\n        /* \"#utility.yul\":3666:3729   */\n      tag_96\n      jump\t// in\n    tag_162:\n        /* \"#utility.yul\":3659:3729   */\n      swap8\n      pop\n        /* \"#utility.yul\":3752:3812   */\n      tag_163\n        /* \"#utility.yul\":3805:3811   */\n      dup4\n        /* \"#utility.yul\":3752:3812   */\n      tag_97\n      jump\t// in\n    tag_163:\n        /* \"#utility.yul\":3742:3812   */\n      swap3\n      pop\n        /* \"#utility.yul\":3598:3822   */\n      pop\n        /* \"#utility.yul\":3585:3586   */\n      0x01\n        /* \"#utility.yul\":3582:3583   */\n      dup2\n        /* \"#utility.yul\":3578:3587   */\n      add\n        /* \"#utility.yul\":3573:3587   */\n      swap1\n      pop\n        /* \"#utility.yul\":3538:3822   */\n      jump(tag_159)\n    tag_161:\n        /* \"#utility.yul\":3542:3556   */\n      pop\n        /* \"#utility.yul\":3838:3841   */\n      dup6\n        /* \"#utility.yul\":3831:3841   */\n      swap4\n      pop\n        /* \"#utility.yul\":3239:3847   */\n      pop\n      pop\n      pop\n        /* \"#utility.yul\":3115:3847   */\n      swap3\n      swap2\n      pop\n      pop\n      jump\t// out\n        /* \"#utility.yul\":3853:4226   */\n    tag_27:\n        /* \"#utility.yul\":3996:4000   */\n      0x00\n        /* \"#utility.yul\":4034:4036   */\n      0x20\n        /* \"#utility.yul\":4023:4032   */\n      dup3\n        /* \"#utility.yul\":4019:4037   */\n      add\n        /* \"#utility.yul\":4011:4037   */\n      swap1\n      pop\n        /* \"#utility.yul\":4083:4092   */\n      dup2\n        /* \"#utility.yul\":4077:4081   */\n      dup2\n        /* \"#utility.yul\":4073:4093   */\n      sub\n        /* \"#utility.yul\":4069:4070   */\n      0x00\n        /* \"#utility.yul\":4058:4067   */\n      dup4\n        /* \"#utility.yul\":4054:4071   */\n      add\n        /* \"#utility.yul\":4047:4094   */\n      mstore\n        /* \"#utility.yul\":4111:4219   */\n      tag_165\n        /* \"#utility.yul\":4214:4218   */\n      dup2\n        /* \"#utility.yul\":4205:4211   */\n      dup5\n        /* \"#utility.yul\":4111:4219   */\n      tag_98\n      jump\t// in\n    tag_165:\n        /* \"#utility.yul\":4103:4219   */\n      swap1\n      pop\n        /* \"#utility.yul\":3853:4226   */\n      swap3\n      swap2\n      pop\n      pop\n      jump\t// out\n        /* \"#utility.yul\":4232:4401   */\n    tag_99:\n        /* \"#utility.yul\":4316:4327   */\n      0x00\n        /* \"#utility.yul\":4350:4356   */\n      dup3\n        /* \"#utility.yul\":4345:4348   */\n      dup3\n        /* \"#utility.yul\":4338:4357   */\n      mstore\n        /* \"#utility.yul\":4390:4394   */\n      0x20\n        /* \"#utility.yul\":4385:4388   */\n      dup3\n        /* \"#utility.yul\":4381:4395   */\n      add\n        /* \"#utility.yul\":4366:4395   */\n      swap1\n      pop\n        /* \"#utility.yul\":4232:4401   */\n      swap3\n      swap2\n      pop\n      pop\n      jump\t// out\n        /* \"#utility.yul\":4407:4578   */\n    tag_100:\n        /* \"#utility.yul\":4547:4570   */\n      0x4d656d626572206e6f7420726567697374657265640000000000000000000000\n        /* \"#utility.yul\":4543:4544   */\n      0x00\n        /* \"#utility.yul\":4535:4541   */\n      dup3\n        /* \"#utility.yul\":4531:4545   */\n      add\n        /* \"#utility.yul\":4524:4571   */\n      mstore\n        /* \"#utility.yul\":4407:4578   */\n      pop\n      jump\t// out\n        /* \"#utility.yul\":4584:4950   */\n    tag_101:\n        /* \"#utility.yul\":4726:4729   */\n      0x00\n        /* \"#utility.yul\":4747:4814   */\n      tag_169\n        /* \"#utility.yul\":4811:4813   */\n      0x15\n        /* \"#utility.yul\":4806:4809   */\n      dup4\n        /* \"#utility.yul\":4747:4814   */\n      tag_99\n      jump\t// in\n    tag_169:\n        /* \"#utility.yul\":4740:4814   */\n      swap2\n      pop\n        /* \"#utility.yul\":4823:4916   */\n      tag_170\n        /* \"#utility.yul\":4912:4915   */\n      dup3\n        /* \"#utility.yul\":4823:4916   */\n      tag_100\n      jump\t// in\n    tag_170:\n        /* \"#utility.yul\":4941:4943   */\n      0x20\n        /* \"#utility.yul\":4936:4939   */\n      dup3\n        /* \"#utility.yul\":4932:4944   */\n      add\n        /* \"#utility.yul\":4925:4944   */\n      swap1\n      pop\n        /* \"#utility.yul\":4584:4950   */\n      swap2\n      swap1\n      pop\n      jump\t// out\n        /* \"#utility.yul\":4956:5375   */\n    tag_37:\n        /* \"#utility.yul\":5122:5126   */\n      0x00\n        /* \"#utility.yul\":5160:5162   */\n      0x20\n        /* \"#utility.yul\":5149:5158   */\n      dup3\n        /* \"#utility.yul\":5145:5163   */\n      add\n        /* \"#utility.yul\":5137:5163   */\n      swap1\n      pop\n        /* \"#utility.yul\":5209:5218   */\n      dup2\n        /* \"#utility.yul\":5203:5207   */\n      dup2\n        /* \"#utility.yul\":5199:5219   */\n      sub\n        /* \"#utility.yul\":5195:5196   */\n      0x00\n        /* \"#utility.yul\":5184:5193   */\n      dup4\n        /* \"#utility.yul\":5180:5197   */\n      add\n        /* \"#utility.yul\":5173:5220   */\n      mstore\n        /* \"#utility.yul\":5237:5368   */\n      tag_172\n        /* \"#utility.yul\":5363:5367   */\n      dup2\n        /* \"#utility.yul\":5237:5368   */\n      tag_101\n      jump\t// in\n    tag_172:\n        /* \"#utility.yul\":5229:5368   */\n      swap1\n      pop\n        /* \"#utility.yul\":4956:5375   */\n      swap2\n      swap1\n      pop\n      jump\t// out\n        /* \"#utility.yul\":5381:5545   */\n    tag_102:\n        /* \"#utility.yul\":5521:5537   */\n      0x496e76616c696420616d6f756e74000000000000000000000000000000000000\n        /* \"#utility.yul\":5517:5518   */\n      0x00\n        /* \"#utility.yul\":5509:5515   */\n      dup3\n        /* \"#utility.yul\":5505:5519   */\n      add\n        /* \"#utility.yul\":5498:5538   */\n      mstore\n        /* \"#utility.yul\":5381:5545   */\n      pop\n      jump\t// out\n        /* \"#utility.yul\":5551:5917   */\n    tag_103:\n        /* \"#utility.yul\":5693:5696   */\n      0x00\n        /* \"#utility.yul\":5714:5781   */\n      tag_175\n        /* \"#utility.yul\":5778:5780   */\n      0x0e\n        /* \"#utility.yul\":5773:5776   */\n      dup4\n        /* \"#utility.yul\":5714:5781   */\n      tag_99\n      jump\t// in\n    tag_175:\n        /* \"#utility.yul\":5707:5781   */\n      swap2\n      pop\n        /* \"#utility.yul\":5790:5883   */\n      tag_176\n        /* \"#utility.yul\":5879:5882   */\n      dup3\n        /* \"#utility.yul\":5790:5883   */\n      tag_102\n      jump\t// in\n    tag_176:\n        /* \"#utility.yul\":5908:5910   */\n      0x20\n        /* \"#utility.yul\":5903:5906   */\n      dup3\n        /* \"#utility.yul\":5899:5911   */\n      add\n        /* \"#utility.yul\":5892:5911   */\n      swap1\n      pop\n        /* \"#utility.yul\":5551:5917   */\n      swap2\n      swap1\n      pop\n      jump\t// out\n        /* \"#utility.yul\":5923:6342   */\n    tag_41:\n        /* \"#utility.yul\":6089:6093   */\n      0x00\n        /* \"#utility.yul\":6127:6129   */\n      0x20\n        /* \"#utility.yul\":6116:6125   */\n      dup3\n        /* \"#utility.yul\":6112:6130   */\n      add\n        /* \"#utility.yul\":6104:6130   */\n      swap1\n      pop\n        /* \"#utility.yul\":6176:6185   */\n      dup2\n        /* \"#utility.yul\":6170:6174   */\n      dup2\n        /* \"#utility.yul\":6166:6186   */\n      sub\n        /* \"#utility.yul\":6162:6163   */\n      0x00\n        /* \"#utility.yul\":6151:6160   */\n      dup4\n        /* \"#utility.yul\":6147:6164   */\n      add\n        /* \"#utility.yul\":6140:6187   */\n      mstore\n        /* \"#utility.yul\":6204:6335   */\n      tag_178\n        /* \"#utility.yul\":6330:6334   */\n      dup2\n        /* \"#utility.yul\":6204:6335   */\n      tag_103\n      jump\t// in\n    tag_178:\n        /* \"#utility.yul\":6196:6335   */\n      swap1\n      pop\n        /* \"#utility.yul\":5923:6342   */\n      swap2\n      swap1\n      pop\n      jump\t// out\n        /* \"#utility.yul\":6348:6518   */\n    tag_104:\n        /* \"#utility.yul\":6488:6510   */\n      0x496e73756666696369656e742062616c616e6365000000000000000000000000\n        /* \"#utility.yul\":6484:6485   */\n      0x00\n        /* \"#utility.yul\":6476:6482   */\n      dup3\n        /* \"#utility.yul\":6472:6486   */\n      add\n        /* \"#utility.yul\":6465:6511   */\n      mstore\n        /* \"#utility.yul\":6348:6518   */\n      pop\n      jump\t// out\n        /* \"#utility.yul\":6524:6890   */\n    tag_105:\n        /* \"#utility.yul\":6666:6669   */\n      0x00\n        /* \"#utility.yul\":6687:6754   */\n      tag_181\n        /* \"#utility.yul\":6751:6753   */\n      0x14\n        /* \"#utility.yul\":6746:6749   */\n      dup4\n        /* \"#utility.yul\":6687:6754   */\n      tag_99\n      jump\t// in\n    tag_181:\n        /* \"#utility.yul\":6680:6754   */\n      swap2\n      pop\n        /* \"#utility.yul\":6763:6856   */\n      tag_182\n        /* \"#utility.yul\":6852:6855   */\n      dup3\n        /* \"#utility.yul\":6763:6856   */\n      tag_104\n      jump\t// in\n    tag_182:\n        /* \"#utility.yul\":6881:6883   */\n      0x20\n        /* \"#utility.yul\":6876:6879   */\n      dup3\n        /* \"#utility.yul\":6872:6884   */\n      add\n        /* \"#utility.yul\":6865:6884   */\n      swap1\n      pop\n        /* \"#utility.yul\":6524:6890   */\n      swap2\n      swap1\n      pop\n      jump\t// out\n        /* \"#utility.yul\":6896:7315   */\n    tag_44:\n        /* \"#utility.yul\":7062:7066   */\n      0x00\n        /* \"#utility.yul\":7100:7102   */\n      0x20\n        /* \"#utility.yul\":7089:7098   */\n      dup3\n        /* \"#utility.yul\":7085:7103   */\n      add\n        /* \"#utility.yul\":7077:7103   */\n      swap1\n      pop\n        /* \"#utility.yul\":7149:7158   */\n      dup2\n        /* \"#utility.yul\":7143:7147   */\n      dup2\n        /* \"#utility.yul\":7139:7159   */\n      sub\n        /* \"#utility.yul\":7135:7136   */\n      0x00\n        /* \"#utility.yul\":7124:7133   */\n      dup4\n        /* \"#utility.yul\":7120:7137   */\n      add\n        /* \"#utility.yul\":7113:7160   */\n      mstore\n        /* \"#utility.yul\":7177:7308   */\n      tag_184\n        /* \"#utility.yul\":7303:7307   */\n      dup2\n        /* \"#utility.yul\":7177:7308   */\n      tag_105\n      jump\t// in\n    tag_184:\n        /* \"#utility.yul\":7169:7308   */\n      swap1\n      pop\n        /* \"#utility.yul\":6896:7315   */\n      swap2\n      swap1\n      pop\n      jump\t// out\n        /* \"#utility.yul\":7321:7501   */\n    tag_106:\n        /* \"#utility.yul\":7369:7446   */\n      0x4e487b7100000000000000000000000000000000000000000000000000000000\n        /* \"#utility.yul\":7366:7367   */\n      0x00\n        /* \"#utility.yul\":7359:7447   */\n      mstore\n        /* \"#utility.yul\":7466:7470   */\n      0x11\n        /* \"#utility.yul\":7463:7464   */\n      0x04\n        /* \"#utility.yul\":7456:7471   */\n      mstore\n        /* \"#utility.yul\":7490:7494   */\n      0x24\n        /* \"#utility.yul\":7487:7488   */\n      0x00\n        /* \"#utility.yul\":7480:7495   */\n      revert\n        /* \"#utility.yul\":7507:7701   */\n    tag_46:\n        /* \"#utility.yul\":7547:7551   */\n      0x00\n        /* \"#utility.yul\":7567:7587   */\n      tag_187\n        /* \"#utility.yul\":7585:7586   */\n      dup3\n        /* \"#utility.yul\":7567:7587   */\n      tag_87\n      jump\t// in\n    tag_187:\n        /* \"#utility.yul\":7562:7587   */\n      swap2\n      pop\n        /* \"#utility.yul\":7601:7621   */\n      tag_188\n        /* \"#utility.yul\":7619:7620   */\n      dup4\n        /* \"#utility.yul\":7601:7621   */\n      tag_87\n      jump\t// in\n    tag_188:\n        /* \"#utility.yul\":7596:7621   */\n      swap3\n      pop\n        /* \"#utility.yul\":7645:7646   */\n      dup3\n        /* \"#utility.yul\":7642:7643   */\n      dup3\n        /* \"#utility.yul\":7638:7647   */\n      sub\n        /* \"#utility.yul\":7630:7647   */\n      swap1\n      pop\n        /* \"#utility.yul\":7669:7670   */\n      dup2\n        /* \"#utility.yul\":7663:7667   */\n      dup2\n        /* \"#utility.yul\":7660:7671   */\n      gt\n        /* \"#utility.yul\":7657:7694   */\n      iszero\n      tag_189\n      jumpi\n        /* \"#utility.yul\":7674:7692   */\n      tag_190\n      tag_106\n      jump\t// in\n    tag_190:\n        /* \"#utility.yul\":7657:7694   */\n    tag_189:\n        /* \"#utility.yul\":7507:7701   */\n      swap3\n      swap2\n      pop\n      pop\n      jump\t// out\n        /* \"#utility.yul\":7707:7935   */\n    tag_107:\n        /* \"#utility.yul\":7847:7881   */\n      0x4f6e6c792062616e6b206d616e616765722063616e20706572666f726d207468\n        /* \"#utility.yul\":7843:7844   */\n      0x00\n        /* \"#utility.yul\":7835:7841   */\n      dup3\n        /* \"#utility.yul\":7831:7845   */\n      add\n        /* \"#utility.yul\":7824:7882   */\n      mstore\n        /* \"#utility.yul\":7916:7927   */\n      0x697320616e74696f6e0000000000000000000000000000000000000000000000\n        /* \"#utility.yul\":7911:7913   */\n      0x20\n        /* \"#utility.yul\":7903:7909   */\n      dup3\n        /* \"#utility.yul\":7899:7914   */\n      add\n        /* \"#utility.yul\":7892:7928   */\n      mstore\n        /* \"#utility.yul\":7707:7935   */\n      pop\n      jump\t// out\n        /* \"#utility.yul\":7941:8307   */\n    tag_108:\n        /* \"#utility.yul\":8083:8086   */\n      0x00\n        /* \"#utility.yul\":8104:8171   */\n      tag_193\n        /* \"#utility.yul\":8168:8170   */\n      0x29\n        /* \"#utility.yul\":8163:8166   */\n      dup4\n        /* \"#utility.yul\":8104:8171   */\n      tag_99\n      jump\t// in\n    tag_193:\n        /* \"#utility.yul\":8097:8171   */\n      swap2\n      pop\n        /* \"#utility.yul\":8180:8273   */\n      tag_194\n        /* \"#utility.yul\":8269:8272   */\n      dup3\n        /* \"#utility.yul\":8180:8273   */\n      tag_107\n      jump\t// in\n    tag_194:\n        /* \"#utility.yul\":8298:8300   */\n      0x40\n        /* \"#utility.yul\":8293:8296   */\n      dup3\n        /* \"#utility.yul\":8289:8301   */\n      add\n        /* \"#utility.yul\":8282:8301   */\n      swap1\n      pop\n        /* \"#utility.yul\":7941:8307   */\n      swap2\n      swap1\n      pop\n      jump\t// out\n        /* \"#utility.yul\":8313:8732   */\n    tag_50:\n        /* \"#utility.yul\":8479:8483   */\n      0x00\n        /* \"#utility.yul\":8517:8519   */\n      0x20\n        /* \"#utility.yul\":8506:8515   */\n      dup3\n        /* \"#utility.yul\":8502:8520   */\n      add\n        /* \"#utility.yul\":8494:8520   */\n      swap1\n      pop\n        /* \"#utility.yul\":8566:8575   */\n      dup2\n        /* \"#utility.yul\":8560:8564   */\n      dup2\n        /* \"#utility.yul\":8556:8576   */\n      sub\n        /* \"#utility.yul\":8552:8553   */\n      0x00\n        /* \"#utility.yul\":8541:8550   */\n      dup4\n        /* \"#utility.yul\":8537:8554   */\n      add\n        /* \"#utility.yul\":8530:8577   */\n      mstore\n        /* \"#utility.yul\":8594:8725   */\n      tag_196\n        /* \"#utility.yul\":8720:8724   */\n      dup2\n        /* \"#utility.yul\":8594:8725   */\n      tag_108\n      jump\t// in\n    tag_196:\n        /* \"#utility.yul\":8586:8725   */\n      swap1\n      pop\n        /* \"#utility.yul\":8313:8732   */\n      swap2\n      swap1\n      pop\n      jump\t// out\n        /* \"#utility.yul\":8738:8903   */\n    tag_109:\n        /* \"#utility.yul\":8878:8895   */\n      0x496e76616c696420616464726573730000000000000000000000000000000000\n        /* \"#utility.yul\":8874:8875   */\n      0x00\n        /* \"#utility.yul\":8866:8872   */\n      dup3\n        /* \"#utility.yul\":8862:8876   */\n      add\n        /* \"#utility.yul\":8855:8896   */\n      mstore\n        /* \"#utility.yul\":8738:8903   */\n      pop\n      jump\t// out\n        /* \"#utility.yul\":8909:9275   */\n    tag_110:\n        /* \"#utility.yul\":9051:9054   */\n      0x00\n        /* \"#utility.yul\":9072:9139   */\n      tag_199\n        /* \"#utility.yul\":9136:9138   */\n      0x0f\n        /* \"#utility.yul\":9131:9134   */\n      dup4\n        /* \"#utility.yul\":9072:9139   */\n      tag_99\n      jump\t// in\n    tag_199:\n        /* \"#utility.yul\":9065:9139   */\n      swap2\n      pop\n        /* \"#utility.yul\":9148:9241   */\n      tag_200\n        /* \"#utility.yul\":9237:9240   */\n      dup3\n        /* \"#utility.yul\":9148:9241   */\n      tag_109\n      jump\t// in\n    tag_200:\n        /* \"#utility.yul\":9266:9268   */\n      0x20\n        /* \"#utility.yul\":9261:9264   */\n      dup3\n        /* \"#utility.yul\":9257:9269   */\n      add\n        /* \"#utility.yul\":9250:9269   */\n      swap1\n      pop\n        /* \"#utility.yul\":8909:9275   */\n      swap2\n      swap1\n      pop\n      jump\t// out\n        /* \"#utility.yul\":9281:9700   */\n    tag_54:\n        /* \"#utility.yul\":9447:9451   */\n      0x00\n        /* \"#utility.yul\":9485:9487   */\n      0x20\n        /* \"#utility.yul\":9474:9483   */\n      dup3\n        /* \"#utility.yul\":9470:9488   */\n      add\n        /* \"#utility.yul\":9462:9488   */\n      swap1\n      pop\n        /* \"#utility.yul\":9534:9543   */\n      dup2\n        /* \"#utility.yul\":9528:9532   */\n      dup2\n        /* \"#utility.yul\":9524:9544   */\n      sub\n        /* \"#utility.yul\":9520:9521   */\n      0x00\n        /* \"#utility.yul\":9509:9518   */\n      dup4\n        /* \"#utility.yul\":9505:9522   */\n      add\n        /* \"#utility.yul\":9498:9545   */\n      mstore\n        /* \"#utility.yul\":9562:9693   */\n      tag_202\n        /* \"#utility.yul\":9688:9692   */\n      dup2\n        /* \"#utility.yul\":9562:9693   */\n      tag_110\n      jump\t// in\n    tag_202:\n        /* \"#utility.yul\":9554:9693   */\n      swap1\n      pop\n        /* \"#utility.yul\":9281:9700   */\n      swap2\n      swap1\n      pop\n      jump\t// out\n        /* \"#utility.yul\":9706:9888   */\n    tag_111:\n        /* \"#utility.yul\":9846:9880   */\n      0x42616e6b204d616e6167657220697320616c72656164792061206d656d626572\n        /* \"#utility.yul\":9842:9843   */\n      0x00\n        /* \"#utility.yul\":9834:9840   */\n      dup3\n        /* \"#utility.yul\":9830:9844   */\n      add\n        /* \"#utility.yul\":9823:9881   */\n      mstore\n        /* \"#utility.yul\":9706:9888   */\n      pop\n      jump\t// out\n        /* \"#utility.yul\":9894:10260   */\n    tag_112:\n        /* \"#utility.yul\":10036:10039   */\n      0x00\n        /* \"#utility.yul\":10057:10124   */\n      tag_205\n        /* \"#utility.yul\":10121:10123   */\n      0x20\n        /* \"#utility.yul\":10116:10119   */\n      dup4\n        /* \"#utility.yul\":10057:10124   */\n      tag_99\n      jump\t// in\n    tag_205:\n        /* \"#utility.yul\":10050:10124   */\n      swap2\n      pop\n        /* \"#utility.yul\":10133:10226   */\n      tag_206\n        /* \"#utility.yul\":10222:10225   */\n      dup3\n        /* \"#utility.yul\":10133:10226   */\n      tag_111\n      jump\t// in\n    tag_206:\n        /* \"#utility.yul\":10251:10253   */\n      0x20\n        /* \"#utility.yul\":10246:10249   */\n      dup3\n        /* \"#utility.yul\":10242:10254   */\n      add\n        /* \"#utility.yul\":10235:10254   */\n      swap1\n      pop\n        /* \"#utility.yul\":9894:10260   */\n      swap2\n      swap1\n      pop\n      jump\t// out\n        /* \"#utility.yul\":10266:10685   */\n    tag_57:\n        /* \"#utility.yul\":10432:10436   */\n      0x00\n        /* \"#utility.yul\":10470:10472   */\n      0x20\n        /* \"#utility.yul\":10459:10468   */\n      dup3\n        /* \"#utility.yul\":10455:10473   */\n      add\n        /* \"#utility.yul\":10447:10473   */\n      swap1\n      pop\n        /* \"#utility.yul\":10519:10528   */\n      dup2\n        /* \"#utility.yul\":10513:10517   */\n      dup2\n        /* \"#utility.yul\":10509:10529   */\n      sub\n        /* \"#utility.yul\":10505:10506   */\n      0x00\n        /* \"#utility.yul\":10494:10503   */\n      dup4\n        /* \"#utility.yul\":10490:10507   */\n      add\n        /* \"#utility.yul\":10483:10530   */\n      mstore\n        /* \"#utility.yul\":10547:10678   */\n      tag_208\n        /* \"#utility.yul\":10673:10677   */\n      dup2\n        /* \"#utility.yul\":10547:10678   */\n      tag_112\n      jump\t// in\n    tag_208:\n        /* \"#utility.yul\":10539:10678   */\n      swap1\n      pop\n        /* \"#utility.yul\":10266:10685   */\n      swap2\n      swap1\n      pop\n      jump\t// out\n        /* \"#utility.yul\":10691:10866   */\n    tag_113:\n        /* \"#utility.yul\":10831:10858   */\n      0x4d656d62657220616c7265616479207265676973746572656400000000000000\n        /* \"#utility.yul\":10827:10828   */\n      0x00\n        /* \"#utility.yul\":10819:10825   */\n      dup3\n        /* \"#utility.yul\":10815:10829   */\n      add\n        /* \"#utility.yul\":10808:10859   */\n      mstore\n        /* \"#utility.yul\":10691:10866   */\n      pop\n      jump\t// out\n        /* \"#utility.yul\":10872:11238   */\n    tag_114:\n        /* \"#utility.yul\":11014:11017   */\n      0x00\n        /* \"#utility.yul\":11035:11102   */\n      tag_211\n        /* \"#utility.yul\":11099:11101   */\n      0x19\n        /* \"#utility.yul\":11094:11097   */\n      dup4\n        /* \"#utility.yul\":11035:11102   */\n      tag_99\n      jump\t// in\n    tag_211:\n        /* \"#utility.yul\":11028:11102   */\n      swap2\n      pop\n        /* \"#utility.yul\":11111:11204   */\n      tag_212\n        /* \"#utility.yul\":11200:11203   */\n      dup3\n        /* \"#utility.yul\":11111:11204   */\n      tag_113\n      jump\t// in\n    tag_212:\n        /* \"#utility.yul\":11229:11231   */\n      0x20\n        /* \"#utility.yul\":11224:11227   */\n      dup3\n        /* \"#utility.yul\":11220:11232   */\n      add\n        /* \"#utility.yul\":11213:11232   */\n      swap1\n      pop\n        /* \"#utility.yul\":10872:11238   */\n      swap2\n      swap1\n      pop\n      jump\t// out\n        /* \"#utility.yul\":11244:11663   */\n    tag_60:\n        /* \"#utility.yul\":11410:11414   */\n      0x00\n        /* \"#utility.yul\":11448:11450   */\n      0x20\n        /* \"#utility.yul\":11437:11446   */\n      dup3\n        /* \"#utility.yul\":11433:11451   */\n      add\n        /* \"#utility.yul\":11425:11451   */\n      swap1\n      pop\n        /* \"#utility.yul\":11497:11506   */\n      dup2\n        /* \"#utility.yul\":11491:11495   */\n      dup2\n        /* \"#utility.yul\":11487:11507   */\n      sub\n        /* \"#utility.yul\":11483:11484   */\n      0x00\n        /* \"#utility.yul\":11472:11481   */\n      dup4\n        /* \"#utility.yul\":11468:11485   */\n      add\n        /* \"#utility.yul\":11461:11508   */\n      mstore\n        /* \"#utility.yul\":11525:11656   */\n      tag_214\n        /* \"#utility.yul\":11651:11655   */\n      dup2\n        /* \"#utility.yul\":11525:11656   */\n      tag_114\n      jump\t// in\n    tag_214:\n        /* \"#utility.yul\":11517:11656   */\n      swap1\n      pop\n        /* \"#utility.yul\":11244:11663   */\n      swap2\n      swap1\n      pop\n      jump\t// out\n        /* \"#utility.yul\":11669:11834   */\n    tag_115:\n        /* \"#utility.yul\":11809:11826   */\n      0x496e76616c696420616d6e6f756e740000000000000000000000000000000000\n        /* \"#utility.yul\":11805:11806   */\n      0x00\n        /* \"#utility.yul\":11797:11803   */\n      dup3\n        /* \"#utility.yul\":11793:11807   */\n      add\n        /* \"#utility.yul\":11786:11827   */\n      mstore\n        /* \"#utility.yul\":11669:11834   */\n      pop\n      jump\t// out\n        /* \"#utility.yul\":11840:12206   */\n    tag_116:\n        /* \"#utility.yul\":11982:11985   */\n      0x00\n        /* \"#utility.yul\":12003:12070   */\n      tag_217\n        /* \"#utility.yul\":12067:12069   */\n      0x0f\n        /* \"#utility.yul\":12062:12065   */\n      dup4\n        /* \"#utility.yul\":12003:12070   */\n      tag_99\n      jump\t// in\n    tag_217:\n        /* \"#utility.yul\":11996:12070   */\n      swap2\n      pop\n        /* \"#utility.yul\":12079:12172   */\n      tag_218\n        /* \"#utility.yul\":12168:12171   */\n      dup3\n        /* \"#utility.yul\":12079:12172   */\n      tag_115\n      jump\t// in\n    tag_218:\n        /* \"#utility.yul\":12197:12199   */\n      0x20\n        /* \"#utility.yul\":12192:12195   */\n      dup3\n        /* \"#utility.yul\":12188:12200   */\n      add\n        /* \"#utility.yul\":12181:12200   */\n      swap1\n      pop\n        /* \"#utility.yul\":11840:12206   */\n      swap2\n      swap1\n      pop\n      jump\t// out\n        /* \"#utility.yul\":12212:12631   */\n    tag_71:\n        /* \"#utility.yul\":12378:12382   */\n      0x00\n        /* \"#utility.yul\":12416:12418   */\n      0x20\n        /* \"#utility.yul\":12405:12414   */\n      dup3\n        /* \"#utility.yul\":12401:12419   */\n      add\n        /* \"#utility.yul\":12393:12419   */\n      swap1\n      pop\n        /* \"#utility.yul\":12465:12474   */\n      dup2\n        /* \"#utility.yul\":12459:12463   */\n      dup2\n        /* \"#utility.yul\":12455:12475   */\n      sub\n        /* \"#utility.yul\":12451:12452   */\n      0x00\n        /* \"#utility.yul\":12440:12449   */\n      dup4\n        /* \"#utility.yul\":12436:12453   */\n      add\n        /* \"#utility.yul\":12429:12476   */\n      mstore\n        /* \"#utility.yul\":12493:12624   */\n      tag_220\n        /* \"#utility.yul\":12619:12623   */\n      dup2\n        /* \"#utility.yul\":12493:12624   */\n      tag_116\n      jump\t// in\n    tag_220:\n        /* \"#utility.yul\":12485:12624   */\n      swap1\n      pop\n        /* \"#utility.yul\":12212:12631   */\n      swap2\n      swap1\n      pop\n      jump\t// out\n        /* \"#utility.yul\":12637:12828   */\n    tag_73:\n        /* \"#utility.yul\":12677:12680   */\n      0x00\n        /* \"#utility.yul\":12696:12716   */\n      tag_222\n        /* \"#utility.yul\":12714:12715   */\n      dup3\n        /* \"#utility.yul\":12696:12716   */\n      tag_87\n      jump\t// in\n    tag_222:\n        /* \"#utility.yul\":12691:12716   */\n      swap2\n      pop\n        /* \"#utility.yul\":12730:12750   */\n      tag_223\n        /* \"#utility.yul\":12748:12749   */\n      dup4\n        /* \"#utility.yul\":12730:12750   */\n      tag_87\n      jump\t// in\n    tag_223:\n        /* \"#utility.yul\":12725:12750   */\n      swap3\n      pop\n        /* \"#utility.yul\":12773:12774   */\n      dup3\n        /* \"#utility.yul\":12770:12771   */\n      dup3\n        /* \"#utility.yul\":12766:12775   */\n      add\n        /* \"#utility.yul\":12759:12775   */\n      swap1\n      pop\n        /* \"#utility.yul\":12794:12797   */\n      dup1\n        /* \"#utility.yul\":12791:12792   */\n      dup3\n        /* \"#utility.yul\":12788:12798   */\n      gt\n        /* \"#utility.yul\":12785:12821   */\n      iszero\n      tag_224\n      jumpi\n        /* \"#utility.yul\":12801:12819   */\n      tag_225\n      tag_106\n      jump\t// in\n    tag_225:\n        /* \"#utility.yul\":12785:12821   */\n    tag_224:\n        /* \"#utility.yul\":12637:12828   */\n      swap3\n      swap2\n      pop\n      pop\n      jump\t// out\n\n    auxdata: 0xa2646970667358221220b9750ee2b3ba460e8834c0acf237763e5f981d5b97017578b2ce1299c011e6b164736f6c634300081f0033\n}\n",
				"bytecode": {
					"linkReferences": {},
					"object": "608060405234801561000f575f5ffd5b50335f5f6101000a81548173ffffffffffffffffffffffffffffffffffffffff021916908373ffffffffffffffffffffffffffffffffffffffff16021790555060015f5f9054906101000a900473ffffffffffffffffffffffffffffffffffffffff16908060018154018082558091505060019003905f5260205f20015f9091909190916101000a81548173ffffffffffffffffffffffffffffffffffffffff021916908373ffffffffffffffffffffffffffffffffffffffff160217905550600160025f5f5f9054906101000a900473ffffffffffffffffffffffffffffffffffffffff1673ffffffffffffffffffffffffffffffffffffffff1673ffffffffffffffffffffffffffffffffffffffff1681526020019081526020015f205f6101000a81548160ff021916908315150217905550610e90806101515f395ff3fe608060405260043610610054575f3560e01c80631533323b146100585780632e1a7d4d14610082578063939f284c146100aa5780639eab5253146100d2578063b6b55f25146100fc578063c379c3e814610124575b5f5ffd5b348015610063575f5ffd5b5061006c61012e565b60405161007991906108aa565b60405180910390f35b34801561008d575f5ffd5b506100a860048036038101906100a391906108fa565b610152565b005b3480156100b5575f5ffd5b506100d060048036038101906100cb919061094f565b6102f3565b005b3480156100dd575f5ffd5b506100e661059f565b6040516100f39190610a31565b60405180910390f35b348015610107575f5ffd5b50610122600480360381019061011d91906108fa565b61062a565b005b61012c61074b565b005b5f5f9054906101000a900473ffffffffffffffffffffffffffffffffffffffff1681565b60025f3373ffffffffffffffffffffffffffffffffffffffff1673ffffffffffffffffffffffffffffffffffffffff1681526020019081526020015f205f9054906101000a900460ff166101db576040517f08c379a00000000000000000000000000000000000000000000000000000000081526004016101d290610aab565b60405180910390fd5b5f811161021d576040517f08c379a000000000000000000000000000000000000000000000000000000000815260040161021490610b13565b60405180910390fd5b60035f3373ffffffffffffffffffffffffffffffffffffffff1673ffffffffffffffffffffffffffffffffffffffff1681526020019081526020015f205481111561029d576040517f08c379a000000000000000000000000000000000000000000000000000000000815260040161029490610b7b565b60405180910390fd5b8060035f3373ffffffffffffffffffffffffffffffffffffffff1673ffffffffffffffffffffffffffffffffffffffff1681526020019081526020015f205f8282546102e99190610bc6565b9250508190555050565b5f5f9054906101000a900473ffffffffffffffffffffffffffffffffffffffff1673ffffffffffffffffffffffffffffffffffffffff163373ffffffffffffffffffffffffffffffffffffffff1614610381576040517f08c379a000000000000000000000000000000000000000000000000000000000815260040161037890610c69565b60405180910390fd5b5f73ffffffffffffffffffffffffffffffffffffffff168173ffffffffffffffffffffffffffffffffffffffff16036103ef576040517f08c379a00000000000000000000000000000000000000000000000000000000081526004016103e690610cd1565b60405180910390fd5b3373ffffffffffffffffffffffffffffffffffffffff168173ffffffffffffffffffffffffffffffffffffffff160361045d576040517f08c379a000000000000000000000000000000000000000000000000000000000815260040161045490610d39565b60405180910390fd5b60025f8273ffffffffffffffffffffffffffffffffffffffff1673ffffffffffffffffffffffffffffffffffffffff1681526020019081526020015f205f9054906101000a900460ff16156104e7576040517f08c379a00000000000000000000000000000000000000000000000000000000081526004016104de90610da1565b60405180910390fd5b600160025f8373ffffffffffffffffffffffffffffffffffffffff1673ffffffffffffffffffffffffffffffffffffffff1681526020019081526020015f205f6101000a81548160ff021916908315150217905550600181908060018154018082558091505060019003905f5260205f20015f9091909190916101000a81548173ffffffffffffffffffffffffffffffffffffffff021916908373ffffffffffffffffffffffffffffffffffffffff16021790555050565b6060600180548060200260200160405190810160405280929190818152602001828054801561062057602002820191905f5260205f20905b815f9054906101000a900473ffffffffffffffffffffffffffffffffffffffff1673ffffffffffffffffffffffffffffffffffffffff16815260200190600101908083116105d7575b5050505050905090565b60025f3373ffffffffffffffffffffffffffffffffffffffff1673ffffffffffffffffffffffffffffffffffffffff1681526020019081526020015f205f9054906101000a900460ff166106b3576040517f08c379a00000000000000000000000000000000000000000000000000000000081526004016106aa90610aab565b60405180910390fd5b5f81116106f5576040517f08c379a00000000000000000000000000000000000000000000000000000000081526004016106ec90610e09565b60405180910390fd5b8060035f3373ffffffffffffffffffffffffffffffffffffffff1673ffffffffffffffffffffffffffffffffffffffff1681526020019081526020015f205f8282546107419190610e27565b9250508190555050565b60025f3373ffffffffffffffffffffffffffffffffffffffff1673ffffffffffffffffffffffffffffffffffffffff1681526020019081526020015f205f9054906101000a900460ff166107d4576040517f08c379a00000000000000000000000000000000000000000000000000000000081526004016107cb90610aab565b60405180910390fd5b5f3411610816576040517f08c379a000000000000000000000000000000000000000000000000000000000815260040161080d90610b13565b60405180910390fd5b3460035f3373ffffffffffffffffffffffffffffffffffffffff1673ffffffffffffffffffffffffffffffffffffffff1681526020019081526020015f205f8282546108629190610e27565b92505081905550565b5f73ffffffffffffffffffffffffffffffffffffffff82169050919050565b5f6108948261086b565b9050919050565b6108a48161088a565b82525050565b5f6020820190506108bd5f83018461089b565b92915050565b5f5ffd5b5f819050919050565b6108d9816108c7565b81146108e3575f5ffd5b50565b5f813590506108f4816108d0565b92915050565b5f6020828403121561090f5761090e6108c3565b5b5f61091c848285016108e6565b91505092915050565b61092e8161088a565b8114610938575f5ffd5b50565b5f8135905061094981610925565b92915050565b5f60208284031215610964576109636108c3565b5b5f6109718482850161093b565b91505092915050565b5f81519050919050565b5f82825260208201905092915050565b5f819050602082019050919050565b6109ac8161088a565b82525050565b5f6109bd83836109a3565b60208301905092915050565b5f602082019050919050565b5f6109df8261097a565b6109e98185610984565b93506109f483610994565b805f5b83811015610a24578151610a0b88826109b2565b9750610a16836109c9565b9250506001810190506109f7565b5085935050505092915050565b5f6020820190508181035f830152610a4981846109d5565b905092915050565b5f82825260208201905092915050565b7f4d656d626572206e6f74207265676973746572656400000000000000000000005f82015250565b5f610a95601583610a51565b9150610aa082610a61565b602082019050919050565b5f6020820190508181035f830152610ac281610a89565b9050919050565b7f496e76616c696420616d6f756e740000000000000000000000000000000000005f82015250565b5f610afd600e83610a51565b9150610b0882610ac9565b602082019050919050565b5f6020820190508181035f830152610b2a81610af1565b9050919050565b7f496e73756666696369656e742062616c616e63650000000000000000000000005f82015250565b5f610b65601483610a51565b9150610b7082610b31565b602082019050919050565b5f6020820190508181035f830152610b9281610b59565b9050919050565b7f4e487b71000000000000000000000000000000000000000000000000000000005f52601160045260245ffd5b5f610bd0826108c7565b9150610bdb836108c7565b9250828203905081811115610bf357610bf2610b99565b5b92915050565b7f4f6e6c792062616e6b206d616e616765722063616e20706572666f726d2074685f8201527f697320616e74696f6e0000000000000000000000000000000000000000000000602082015250565b5f610c53602983610a51565b9150610c5e82610bf9565b604082019050919050565b5f6020820190508181035f830152610c8081610c47565b9050919050565b7f496e76616c6964206164647265737300000000000000000000000000000000005f82015250565b5f610cbb600f83610a51565b9150610cc682610c87565b602082019050919050565b5f6020820190508181035f830152610ce881610caf565b9050919050565b7f42616e6b204d616e6167657220697320616c72656164792061206d656d6265725f82015250565b5f610d23602083610a51565b9150610d2e82610cef565b602082019050919050565b5f6020820190508181035f830152610d5081610d17565b9050919050565b7f4d656d62657220616c72656164792072656769737465726564000000000000005f82015250565b5f610d8b601983610a51565b9150610d9682610d57565b602082019050919050565b5f6020820190508181035f830152610db881610d7f565b9050919050565b7f496e76616c696420616d6e6f756e7400000000000000000000000000000000005f82015250565b5f610df3600f83610a51565b9150610dfe82610dbf565b602082019050919050565b5f6020820190508181035f830152610e2081610de7565b9050919050565b5f610e31826108c7565b9150610e3c836108c7565b9250828201905080821115610e5457610e53610b99565b5b9291505056fea2646970667358221220b9750ee2b3ba460e8834c0acf237763e5f981d5b97017578b2ce1299c011e6b164736f6c634300081f0033",
					"opcodes": "PUSH1 0x80 PUSH1 0x40 MSTORE CALLVALUE DUP1 ISZERO PUSH2 0xF JUMPI PUSH0 PUSH0 REVERT JUMPDEST POP CALLER PUSH0 PUSH0 PUSH2 0x100 EXP DUP2 SLOAD DUP2 PUSH20 0xFFFFFFFFFFFFFFFFFFFFFFFFFFFFFFFFFFFFFFFF MUL NOT AND SWAP1 DUP4 PUSH20 0xFFFFFFFFFFFFFFFFFFFFFFFFFFFFFFFFFFFFFFFF AND MUL OR SWAP1 SSTORE POP PUSH1 0x1 PUSH0 PUSH0 SWAP1 SLOAD SWAP1 PUSH2 0x100 EXP SWAP1 DIV PUSH20 0xFFFFFFFFFFFFFFFFFFFFFFFFFFFFFFFFFFFFFFFF AND SWAP1 DUP1 PUSH1 0x1 DUP2 SLOAD ADD DUP1 DUP3 SSTORE DUP1 SWAP2 POP POP PUSH1 0x1 SWAP1 SUB SWAP1 PUSH0 MSTORE PUSH1 0x20 PUSH0 KECCAK256 ADD PUSH0 SWAP1 SWAP2 SWAP1 SWAP2 SWAP1 SWAP2 PUSH2 0x100 EXP DUP2 SLOAD DUP2 PUSH20 0xFFFFFFFFFFFFFFFFFFFFFFFFFFFFFFFFFFFFFFFF MUL NOT AND SWAP1 DUP4 PUSH20 0xFFFFFFFFFFFFFFFFFFFFFFFFFFFFFFFFFFFFFFFF AND MUL OR SWAP1 SSTORE POP PUSH1 0x1 PUSH1 0x2 PUSH0 PUSH0 PUSH0 SWAP1 SLOAD SWAP1 PUSH2 0x100 EXP SWAP1 DIV PUSH20 0xFFFFFFFFFFFFFFFFFFFFFFFFFFFFFFFFFFFFFFFF AND PUSH20 0xFFFFFFFFFFFFFFFFFFFFFFFFFFFFFFFFFFFFFFFF AND PUSH20 0xFFFFFFFFFFFFFFFFFFFFFFFFFFFFFFFFFFFFFFFF AND DUP2 MSTORE PUSH1 0x20 ADD SWAP1 DUP2 MSTORE PUSH1 0x20 ADD PUSH0 KECCAK256 PUSH0 PUSH2 0x100 EXP DUP2 SLOAD DUP2 PUSH1 0xFF MUL NOT AND SWAP1 DUP4 ISZERO ISZERO MUL OR SWAP1 SSTORE POP PUSH2 0xE90 DUP1 PUSH2 0x151 PUSH0 CODECOPY PUSH0 RETURN INVALID PUSH1 0x80 PUSH1 0x40 MSTORE PUSH1 0x4 CALLDATASIZE LT PUSH2 0x54 JUMPI PUSH0 CALLDATALOAD PUSH1 0xE0 SHR DUP1 PUSH4 0x1533323B EQ PUSH2 0x58 JUMPI DUP1 PUSH4 0x2E1A7D4D EQ PUSH2 0x82 JUMPI DUP1 PUSH4 0x939F284C EQ PUSH2 0xAA JUMPI DUP1 PUSH4 0x9EAB5253 EQ PUSH2 0xD2 JUMPI DUP1 PUSH4 0xB6B55F25 EQ PUSH2 0xFC JUMPI DUP1 PUSH4 0xC379C3E8 EQ PUSH2 0x124 JUMPI JUMPDEST PUSH0 PUSH0 REVERT JUMPDEST CALLVALUE DUP1 ISZERO PUSH2 0x63 JUMPI PUSH0 PUSH0 REVERT JUMPDEST POP PUSH2 0x6C PUSH2 0x12E JUMP JUMPDEST PUSH1 0x40 MLOAD PUSH2 0x79 SWAP2 SWAP1 PUSH2 0x8AA JUMP JUMPDEST PUSH1 0x40 MLOAD DUP1 SWAP2 SUB SWAP1 RETURN JUMPDEST CALLVALUE DUP1 ISZERO PUSH2 0x8D JUMPI PUSH0 PUSH0 REVERT JUMPDEST POP PUSH2 0xA8 PUSH1 0x4 DUP1 CALLDATASIZE SUB DUP2 ADD SWAP1 PUSH2 0xA3 SWAP2 SWAP1 PUSH2 0x8FA JUMP JUMPDEST PUSH2 0x152 JUMP JUMPDEST STOP JUMPDEST CALLVALUE DUP1 ISZERO PUSH2 0xB5 JUMPI PUSH0 PUSH0 REVERT JUMPDEST POP PUSH2 0xD0 PUSH1 0x4 DUP1 CALLDATASIZE SUB DUP2 ADD SWAP1 PUSH2 0xCB SWAP2 SWAP1 PUSH2 0x94F JUMP JUMPDEST PUSH2 0x2F3 JUMP JUMPDEST STOP JUMPDEST CALLVALUE DUP1 ISZERO PUSH2 0xDD JUMPI PUSH0 PUSH0 REVERT JUMPDEST POP PUSH2 0xE6 PUSH2 0x59F JUMP JUMPDEST PUSH1 0x40 MLOAD PUSH2 0xF3 SWAP2 SWAP1 PUSH2 0xA31 JUMP JUMPDEST PUSH1 0x40 MLOAD DUP1 SWAP2 SUB SWAP1 RETURN JUMPDEST CALLVALUE DUP1 ISZERO PUSH2 0x107 JUMPI PUSH0 PUSH0 REVERT JUMPDEST POP PUSH2 0x122 PUSH1 0x4 DUP1 CALLDATASIZE SUB DUP2 ADD SWAP1 PUSH2 0x11D SWAP2 SWAP1 PUSH2 0x8FA JUMP JUMPDEST PUSH2 0x62A JUMP JUMPDEST STOP JUMPDEST PUSH2 0x12C PUSH2 0x74B JUMP JUMPDEST STOP JUMPDEST PUSH0 PUSH0 SWAP1 SLOAD SWAP1 PUSH2 0x100 EXP SWAP1 DIV PUSH20 0xFFFFFFFFFFFFFFFFFFFFFFFFFFFFFFFFFFFFFFFF AND DUP2 JUMP JUMPDEST PUSH1 0x2 PUSH0 CALLER PUSH20 0xFFFFFFFFFFFFFFFFFFFFFFFFFFFFFFFFFFFFFFFF AND PUSH20 0xFFFFFFFFFFFFFFFFFFFFFFFFFFFFFFFFFFFFFFFF AND DUP2 MSTORE PUSH1 0x20 ADD SWAP1 DUP2 MSTORE PUSH1 0x20 ADD PUSH0 KECCAK256 PUSH0 SWAP1 SLOAD SWAP1 PUSH2 0x100 EXP SWAP1 DIV PUSH1 0xFF AND PUSH2 0x1DB JUMPI PUSH1 0x40 MLOAD PUSH32 0x8C379A000000000000000000000000000000000000000000000000000000000 DUP2 MSTORE PUSH1 0x4 ADD PUSH2 0x1D2 SWAP1 PUSH2 0xAAB JUMP JUMPDEST PUSH1 0x40 MLOAD DUP1 SWAP2 SUB SWAP1 REVERT JUMPDEST PUSH0 DUP2 GT PUSH2 0x21D JUMPI PUSH1 0x40 MLOAD PUSH32 0x8C379A000000000000000000000000000000000000000000000000000000000 DUP2 MSTORE PUSH1 0x4 ADD PUSH2 0x214 SWAP1 PUSH2 0xB13 JUMP JUMPDEST PUSH1 0x40 MLOAD DUP1 SWAP2 SUB SWAP1 REVERT JUMPDEST PUSH1 0x3 PUSH0 CALLER PUSH20 0xFFFFFFFFFFFFFFFFFFFFFFFFFFFFFFFFFFFFFFFF AND PUSH20 0xFFFFFFFFFFFFFFFFFFFFFFFFFFFFFFFFFFFFFFFF AND DUP2 MSTORE PUSH1 0x20 ADD SWAP1 DUP2 MSTORE PUSH1 0x20 ADD PUSH0 KECCAK256 SLOAD DUP2 GT ISZERO PUSH2 0x29D JUMPI PUSH1 0x40 MLOAD PUSH32 0x8C379A000000000000000000000000000000000000000000000000000000000 DUP2 MSTORE PUSH1 0x4 ADD PUSH2 0x294 SWAP1 PUSH2 0xB7B JUMP JUMPDEST PUSH1 0x40 MLOAD DUP1 SWAP2 SUB SWAP1 REVERT JUMPDEST DUP1 PUSH1 0x3 PUSH0 CALLER PUSH20 0xFFFFFFFFFFFFFFFFFFFFFFFFFFFFFFFFFFFFFFFF AND PUSH20 0xFFFFFFFFFFFFFFFFFFFFFFFFFFFFFFFFFFFFFFFF AND DUP2 MSTORE PUSH1 0x20 ADD SWAP1 DUP2 MSTORE PUSH1 0x20 ADD PUSH0 KECCAK256 PUSH0 DUP3 DUP3 SLOAD PUSH2 0x2E9 SWAP2 SWAP1 PUSH2 0xBC6 JUMP JUMPDEST SWAP3 POP POP DUP2 SWAP1 SSTORE POP POP JUMP JUMPDEST PUSH0 PUSH0 SWAP1 SLOAD SWAP1 PUSH2 0x100 EXP SWAP1 DIV PUSH20 0xFFFFFFFFFFFFFFFFFFFFFFFFFFFFFFFFFFFFFFFF AND PUSH20 0xFFFFFFFFFFFFFFFFFFFFFFFFFFFFFFFFFFFFFFFF AND CALLER PUSH20 0xFFFFFFFFFFFFFFFFFFFFFFFFFFFFFFFFFFFFFFFF AND EQ PUSH2 0x381 JUMPI PUSH1 0x40 MLOAD PUSH32 0x8C379A000000000000000000000000000000000000000000000000000000000 DUP2 MSTORE PUSH1 0x4 ADD PUSH2 0x378 SWAP1 PUSH2 0xC69 JUMP JUMPDEST PUSH1 0x40 MLOAD DUP1 SWAP2 SUB SWAP1 REVERT JUMPDEST PUSH0 PUSH20 0xFFFFFFFFFFFFFFFFFFFFFFFFFFFFFFFFFFFFFFFF AND DUP2 PUSH20 0xFFFFFFFFFFFFFFFFFFFFFFFFFFFFFFFFFFFFFFFF AND SUB PUSH2 0x3EF JUMPI PUSH1 0x40 MLOAD PUSH32 0x8C379A000000000000000000000000000000000000000000000000000000000 DUP2 MSTORE PUSH1 0x4 ADD PUSH2 0x3E6 SWAP1 PUSH2 0xCD1 JUMP JUMPDEST PUSH1 0x40 MLOAD DUP1 SWAP2 SUB SWAP1 REVERT JUMPDEST CALLER PUSH20 0xFFFFFFFFFFFFFFFFFFFFFFFFFFFFFFFFFFFFFFFF AND DUP2 PUSH20 0xFFFFFFFFFFFFFFFFFFFFFFFFFFFFFFFFFFFFFFFF AND SUB PUSH2 0x45D JUMPI PUSH1 0x40 MLOAD PUSH32 0x8C379A000000000000000000000000000000000000000000000000000000000 DUP2 MSTORE PUSH1 0x4 ADD PUSH2 0x454 SWAP1 PUSH2 0xD39 JUMP JUMPDEST PUSH1 0x40 MLOAD DUP1 SWAP2 SUB SWAP1 REVERT JUMPDEST PUSH1 0x2 PUSH0 DUP3 PUSH20 0xFFFFFFFFFFFFFFFFFFFFFFFFFFFFFFFFFFFFFFFF AND PUSH20 0xFFFFFFFFFFFFFFFFFFFFFFFFFFFFFFFFFFFFFFFF AND DUP2 MSTORE PUSH1 0x20 ADD SWAP1 DUP2 MSTORE PUSH1 0x20 ADD PUSH0 KECCAK256 PUSH0 SWAP1 SLOAD SWAP1 PUSH2 0x100 EXP SWAP1 DIV PUSH1 0xFF AND ISZERO PUSH2 0x4E7 JUMPI PUSH1 0x40 MLOAD PUSH32 0x8C379A000000000000000000000000000000000000000000000000000000000 DUP2 MSTORE PUSH1 0x4 ADD PUSH2 0x4DE SWAP1 PUSH2 0xDA1 JUMP JUMPDEST PUSH1 0x40 MLOAD DUP1 SWAP2 SUB SWAP1 REVERT JUMPDEST PUSH1 0x1 PUSH1 0x2 PUSH0 DUP4 PUSH20 0xFFFFFFFFFFFFFFFFFFFFFFFFFFFFFFFFFFFFFFFF AND PUSH20 0xFFFFFFFFFFFFFFFFFFFFFFFFFFFFFFFFFFFFFFFF AND DUP2 MSTORE PUSH1 0x20 ADD SWAP1 DUP2 MSTORE PUSH1 0x20 ADD PUSH0 KECCAK256 PUSH0 PUSH2 0x100 EXP DUP2 SLOAD DUP2 PUSH1 0xFF MUL NOT AND SWAP1 DUP4 ISZERO ISZERO MUL OR SWAP1 SSTORE POP PUSH1 0x1 DUP2 SWAP1 DUP1 PUSH1 0x1 DUP2 SLOAD ADD DUP1 DUP3 SSTORE DUP1 SWAP2 POP POP PUSH1 0x1 SWAP1 SUB SWAP1 PUSH0 MSTORE PUSH1 0x20 PUSH0 KECCAK256 ADD PUSH0 SWAP1 SWAP2 SWAP1 SWAP2 SWAP1 SWAP2 PUSH2 0x100 EXP DUP2 SLOAD DUP2 PUSH20 0xFFFFFFFFFFFFFFFFFFFFFFFFFFFFFFFFFFFFFFFF MUL NOT AND SWAP1 DUP4 PUSH20 0xFFFFFFFFFFFFFFFFFFFFFFFFFFFFFFFFFFFFFFFF AND MUL OR SWAP1 SSTORE POP POP JUMP JUMPDEST PUSH1 0x60 PUSH1 0x1 DUP1 SLOAD DUP1 PUSH1 0x20 MUL PUSH1 0x20 ADD PUSH1 0x40 MLOAD SWAP1 DUP2 ADD PUSH1 0x40 MSTORE DUP1 SWAP3 SWAP2 SWAP1 DUP2 DUP2 MSTORE PUSH1 0x20 ADD DUP3 DUP1 SLOAD DUP1 ISZERO PUSH2 0x620 JUMPI PUSH1 0x20 MUL DUP3 ADD SWAP2 SWAP1 PUSH0 MSTORE PUSH1 0x20 PUSH0 KECCAK256 SWAP1 JUMPDEST DUP2 PUSH0 SWAP1 SLOAD SWAP1 PUSH2 0x100 EXP SWAP1 DIV PUSH20 0xFFFFFFFFFFFFFFFFFFFFFFFFFFFFFFFFFFFFFFFF AND PUSH20 0xFFFFFFFFFFFFFFFFFFFFFFFFFFFFFFFFFFFFFFFF AND DUP2 MSTORE PUSH1 0x20 ADD SWAP1 PUSH1 0x1 ADD SWAP1 DUP1 DUP4 GT PUSH2 0x5D7 JUMPI JUMPDEST POP POP POP POP POP SWAP1 POP SWAP1 JUMP JUMPDEST PUSH1 0x2 PUSH0 CALLER PUSH20 0xFFFFFFFFFFFFFFFFFFFFFFFFFFFFFFFFFFFFFFFF AND PUSH20 0xFFFFFFFFFFFFFFFFFFFFFFFFFFFFFFFFFFFFFFFF AND DUP2 MSTORE PUSH1 0x20 ADD SWAP1 DUP2 MSTORE PUSH1 0x20 ADD PUSH0 KECCAK256 PUSH0 SWAP1 SLOAD SWAP1 PUSH2 0x100 EXP SWAP1 DIV PUSH1 0xFF AND PUSH2 0x6B3 JUMPI PUSH1 0x40 MLOAD PUSH32 0x8C379A000000000000000000000000000000000000000000000000000000000 DUP2 MSTORE PUSH1 0x4 ADD PUSH2 0x6AA SWAP1 PUSH2 0xAAB JUMP JUMPDEST PUSH1 0x40 MLOAD DUP1 SWAP2 SUB SWAP1 REVERT JUMPDEST PUSH0 DUP2 GT PUSH2 0x6F5 JUMPI PUSH1 0x40 MLOAD PUSH32 0x8C379A000000000000000000000000000000000000000000000000000000000 DUP2 MSTORE PUSH1 0x4 ADD PUSH2 0x6EC SWAP1 PUSH2 0xE09 JUMP JUMPDEST PUSH1 0x40 MLOAD DUP1 SWAP2 SUB SWAP1 REVERT JUMPDEST DUP1 PUSH1 0x3 PUSH0 CALLER PUSH20 0xFFFFFFFFFFFFFFFFFFFFFFFFFFFFFFFFFFFFFFFF AND PUSH20 0xFFFFFFFFFFFFFFFFFFFFFFFFFFFFFFFFFFFFFFFF AND DUP2 MSTORE PUSH1 0x20 ADD SWAP1 DUP2 MSTORE PUSH1 0x20 ADD PUSH0 KECCAK256 PUSH0 DUP3 DUP3 SLOAD PUSH2 0x741 SWAP2 SWAP1 PUSH2 0xE27 JUMP JUMPDEST SWAP3 POP POP DUP2 SWAP1 SSTORE POP POP JUMP JUMPDEST PUSH1 0x2 PUSH0 CALLER PUSH20 0xFFFFFFFFFFFFFFFFFFFFFFFFFFFFFFFFFFFFFFFF AND PUSH20 0xFFFFFFFFFFFFFFFFFFFFFFFFFFFFFFFFFFFFFFFF AND DUP2 MSTORE PUSH1 0x20 ADD SWAP1 DUP2 MSTORE PUSH1 0x20 ADD PUSH0 KECCAK256 PUSH0 SWAP1 SLOAD SWAP1 PUSH2 0x100 EXP SWAP1 DIV PUSH1 0xFF AND PUSH2 0x7D4 JUMPI PUSH1 0x40 MLOAD PUSH32 0x8C379A000000000000000000000000000000000000000000000000000000000 DUP2 MSTORE PUSH1 0x4 ADD PUSH2 0x7CB SWAP1 PUSH2 0xAAB JUMP JUMPDEST PUSH1 0x40 MLOAD DUP1 SWAP2 SUB SWAP1 REVERT JUMPDEST PUSH0 CALLVALUE GT PUSH2 0x816 JUMPI PUSH1 0x40 MLOAD PUSH32 0x8C379A000000000000000000000000000000000000000000000000000000000 DUP2 MSTORE PUSH1 0x4 ADD PUSH2 0x80D SWAP1 PUSH2 0xB13 JUMP JUMPDEST PUSH1 0x40 MLOAD DUP1 SWAP2 SUB SWAP1 REVERT JUMPDEST CALLVALUE PUSH1 0x3 PUSH0 CALLER PUSH20 0xFFFFFFFFFFFFFFFFFFFFFFFFFFFFFFFFFFFFFFFF AND PUSH20 0xFFFFFFFFFFFFFFFFFFFFFFFFFFFFFFFFFFFFFFFF AND DUP2 MSTORE PUSH1 0x20 ADD SWAP1 DUP2 MSTORE PUSH1 0x20 ADD PUSH0 KECCAK256 PUSH0 DUP3 DUP3 SLOAD PUSH2 0x862 SWAP2 SWAP1 PUSH2 0xE27 JUMP JUMPDEST SWAP3 POP POP DUP2 SWAP1 SSTORE POP JUMP JUMPDEST PUSH0 PUSH20 0xFFFFFFFFFFFFFFFFFFFFFFFFFFFFFFFFFFFFFFFF DUP3 AND SWAP1 POP SWAP2 SWAP1 POP JUMP JUMPDEST PUSH0 PUSH2 0x894 DUP3 PUSH2 0x86B JUMP JUMPDEST SWAP1 POP SWAP2 SWAP1 POP JUMP JUMPDEST PUSH2 0x8A4 DUP2 PUSH2 0x88A JUMP JUMPDEST DUP3 MSTORE POP POP JUMP JUMPDEST PUSH0 PUSH1 0x20 DUP3 ADD SWAP1 POP PUSH2 0x8BD PUSH0 DUP4 ADD DUP5 PUSH2 0x89B JUMP JUMPDEST SWAP3 SWAP2 POP POP JUMP JUMPDEST PUSH0 PUSH0 REVERT JUMPDEST PUSH0 DUP2 SWAP1 POP SWAP2 SWAP1 POP JUMP JUMPDEST PUSH2 0x8D9 DUP2 PUSH2 0x8C7 JUMP JUMPDEST DUP2 EQ PUSH2 0x8E3 JUMPI PUSH0 PUSH0 REVERT JUMPDEST POP JUMP JUMPDEST PUSH0 DUP2 CALLDATALOAD SWAP1 POP PUSH2 0x8F4 DUP2 PUSH2 0x8D0 JUMP JUMPDEST SWAP3 SWAP2 POP POP JUMP JUMPDEST PUSH0 PUSH1 0x20 DUP3 DUP5 SUB SLT ISZERO PUSH2 0x90F JUMPI PUSH2 0x90E PUSH2 0x8C3 JUMP JUMPDEST JUMPDEST PUSH0 PUSH2 0x91C DUP5 DUP3 DUP6 ADD PUSH2 0x8E6 JUMP JUMPDEST SWAP2 POP POP SWAP3 SWAP2 POP POP JUMP JUMPDEST PUSH2 0x92E DUP2 PUSH2 0x88A JUMP JUMPDEST DUP2 EQ PUSH2 0x938 JUMPI PUSH0 PUSH0 REVERT JUMPDEST POP JUMP JUMPDEST PUSH0 DUP2 CALLDATALOAD SWAP1 POP PUSH2 0x949 DUP2 PUSH2 0x925 JUMP JUMPDEST SWAP3 SWAP2 POP POP JUMP JUMPDEST PUSH0 PUSH1 0x20 DUP3 DUP5 SUB SLT ISZERO PUSH2 0x964 JUMPI PUSH2 0x963 PUSH2 0x8C3 JUMP JUMPDEST JUMPDEST PUSH0 PUSH2 0x971 DUP5 DUP3 DUP6 ADD PUSH2 0x93B JUMP JUMPDEST SWAP2 POP POP SWAP3 SWAP2 POP POP JUMP JUMPDEST PUSH0 DUP2 MLOAD SWAP1 POP SWAP2 SWAP1 POP JUMP JUMPDEST PUSH0 DUP3 DUP3 MSTORE PUSH1 0x20 DUP3 ADD SWAP1 POP SWAP3 SWAP2 POP POP JUMP JUMPDEST PUSH0 DUP2 SWAP1 POP PUSH1 0x20 DUP3 ADD SWAP1 POP SWAP2 SWAP1 POP JUMP JUMPDEST PUSH2 0x9AC DUP2 PUSH2 0x88A JUMP JUMPDEST DUP3 MSTORE POP POP JUMP JUMPDEST PUSH0 PUSH2 0x9BD DUP4 DUP4 PUSH2 0x9A3 JUMP JUMPDEST PUSH1 0x20 DUP4 ADD SWAP1 POP SWAP3 SWAP2 POP POP JUMP JUMPDEST PUSH0 PUSH1 0x20 DUP3 ADD SWAP1 POP SWAP2 SWAP1 POP JUMP JUMPDEST PUSH0 PUSH2 0x9DF DUP3 PUSH2 0x97A JUMP JUMPDEST PUSH2 0x9E9 DUP2 DUP6 PUSH2 0x984 JUMP JUMPDEST SWAP4 POP PUSH2 0x9F4 DUP4 PUSH2 0x994 JUMP JUMPDEST DUP1 PUSH0 JUMPDEST DUP4 DUP2 LT ISZERO PUSH2 0xA24 JUMPI DUP2 MLOAD PUSH2 0xA0B DUP9 DUP3 PUSH2 0x9B2 JUMP JUMPDEST SWAP8 POP PUSH2 0xA16 DUP4 PUSH2 0x9C9 JUMP JUMPDEST SWAP3 POP POP PUSH1 0x1 DUP2 ADD SWAP1 POP PUSH2 0x9F7 JUMP JUMPDEST POP DUP6 SWAP4 POP POP POP POP SWAP3 SWAP2 POP POP JUMP JUMPDEST PUSH0 PUSH1 0x20 DUP3 ADD SWAP1 POP DUP2 DUP2 SUB PUSH0 DUP4 ADD MSTORE PUSH2 0xA49 DUP2 DUP5 PUSH2 0x9D5 JUMP JUMPDEST SWAP1 POP SWAP3 SWAP2 POP POP JUMP JUMPDEST PUSH0 DUP3 DUP3 MSTORE PUSH1 0x20 DUP3 ADD SWAP1 POP SWAP3 SWAP2 POP POP JUMP JUMPDEST PUSH32 0x4D656D626572206E6F7420726567697374657265640000000000000000000000 PUSH0 DUP3 ADD MSTORE POP JUMP JUMPDEST PUSH0 PUSH2 0xA95 PUSH1 0x15 DUP4 PUSH2 0xA51 JUMP JUMPDEST SWAP2 POP PUSH2 0xAA0 DUP3 PUSH2 0xA61 JUMP JUMPDEST PUSH1 0x20 DUP3 ADD SWAP1 POP SWAP2 SWAP1 POP JUMP JUMPDEST PUSH0 PUSH1 0x20 DUP3 ADD SWAP1 POP DUP2 DUP2 SUB PUSH0 DUP4 ADD MSTORE PUSH2 0xAC2 DUP2 PUSH2 0xA89 JUMP JUMPDEST SWAP1 POP SWAP2 SWAP1 POP JUMP JUMPDEST PUSH32 0x496E76616C696420616D6F756E74000000000000000000000000000000000000 PUSH0 DUP3 ADD MSTORE POP JUMP JUMPDEST PUSH0 PUSH2 0xAFD PUSH1 0xE DUP4 PUSH2 0xA51 JUMP JUMPDEST SWAP2 POP PUSH2 0xB08 DUP3 PUSH2 0xAC9 JUMP JUMPDEST PUSH1 0x20 DUP3 ADD SWAP1 POP SWAP2 SWAP1 POP JUMP JUMPDEST PUSH0 PUSH1 0x20 DUP3 ADD SWAP1 POP DUP2 DUP2 SUB PUSH0 DUP4 ADD MSTORE PUSH2 0xB2A DUP2 PUSH2 0xAF1 JUMP JUMPDEST SWAP1 POP SWAP2 SWAP1 POP JUMP JUMPDEST PUSH32 0x496E73756666696369656E742062616C616E6365000000000000000000000000 PUSH0 DUP3 ADD MSTORE POP JUMP JUMPDEST PUSH0 PUSH2 0xB65 PUSH1 0x14 DUP4 PUSH2 0xA51 JUMP JUMPDEST SWAP2 POP PUSH2 0xB70 DUP3 PUSH2 0xB31 JUMP JUMPDEST PUSH1 0x20 DUP3 ADD SWAP1 POP SWAP2 SWAP1 POP JUMP JUMPDEST PUSH0 PUSH1 0x20 DUP3 ADD SWAP1 POP DUP2 DUP2 SUB PUSH0 DUP4 ADD MSTORE PUSH2 0xB92 DUP2 PUSH2 0xB59 JUMP JUMPDEST SWAP1 POP SWAP2 SWAP1 POP JUMP JUMPDEST PUSH32 0x4E487B7100000000000000000000000000000000000000000000000000000000 PUSH0 MSTORE PUSH1 0x11 PUSH1 0x4 MSTORE PUSH1 0x24 PUSH0 REVERT JUMPDEST PUSH0 PUSH2 0xBD0 DUP3 PUSH2 0x8C7 JUMP JUMPDEST SWAP2 POP PUSH2 0xBDB DUP4 PUSH2 0x8C7 JUMP JUMPDEST SWAP3 POP DUP3 DUP3 SUB SWAP1 POP DUP2 DUP2 GT ISZERO PUSH2 0xBF3 JUMPI PUSH2 0xBF2 PUSH2 0xB99 JUMP JUMPDEST JUMPDEST SWAP3 SWAP2 POP POP JUMP JUMPDEST PUSH32 0x4F6E6C792062616E6B206D616E616765722063616E20706572666F726D207468 PUSH0 DUP3 ADD MSTORE PUSH32 0x697320616E74696F6E0000000000000000000000000000000000000000000000 PUSH1 0x20 DUP3 ADD MSTORE POP JUMP JUMPDEST PUSH0 PUSH2 0xC53 PUSH1 0x29 DUP4 PUSH2 0xA51 JUMP JUMPDEST SWAP2 POP PUSH2 0xC5E DUP3 PUSH2 0xBF9 JUMP JUMPDEST PUSH1 0x40 DUP3 ADD SWAP1 POP SWAP2 SWAP1 POP JUMP JUMPDEST PUSH0 PUSH1 0x20 DUP3 ADD SWAP1 POP DUP2 DUP2 SUB PUSH0 DUP4 ADD MSTORE PUSH2 0xC80 DUP2 PUSH2 0xC47 JUMP JUMPDEST SWAP1 POP SWAP2 SWAP1 POP JUMP JUMPDEST PUSH32 0x496E76616C696420616464726573730000000000000000000000000000000000 PUSH0 DUP3 ADD MSTORE POP JUMP JUMPDEST PUSH0 PUSH2 0xCBB PUSH1 0xF DUP4 PUSH2 0xA51 JUMP JUMPDEST SWAP2 POP PUSH2 0xCC6 DUP3 PUSH2 0xC87 JUMP JUMPDEST PUSH1 0x20 DUP3 ADD SWAP1 POP SWAP2 SWAP1 POP JUMP JUMPDEST PUSH0 PUSH1 0x20 DUP3 ADD SWAP1 POP DUP2 DUP2 SUB PUSH0 DUP4 ADD MSTORE PUSH2 0xCE8 DUP2 PUSH2 0xCAF JUMP JUMPDEST SWAP1 POP SWAP2 SWAP1 POP JUMP JUMPDEST PUSH32 0x42616E6B204D616E6167657220697320616C72656164792061206D656D626572 PUSH0 DUP3 ADD MSTORE POP JUMP JUMPDEST PUSH0 PUSH2 0xD23 PUSH1 0x20 DUP4 PUSH2 0xA51 JUMP JUMPDEST SWAP2 POP PUSH2 0xD2E DUP3 PUSH2 0xCEF JUMP JUMPDEST PUSH1 0x20 DUP3 ADD SWAP1 POP SWAP2 SWAP1 POP JUMP JUMPDEST PUSH0 PUSH1 0x20 DUP3 ADD SWAP1 POP DUP2 DUP2 SUB PUSH0 DUP4 ADD MSTORE PUSH2 0xD50 DUP2 PUSH2 0xD17 JUMP JUMPDEST SWAP1 POP SWAP2 SWAP1 POP JUMP JUMPDEST PUSH32 0x4D656D62657220616C7265616479207265676973746572656400000000000000 PUSH0 DUP3 ADD MSTORE POP JUMP JUMPDEST PUSH0 PUSH2 0xD8B PUSH1 0x19 DUP4 PUSH2 0xA51 JUMP JUMPDEST SWAP2 POP PUSH2 0xD96 DUP3 PUSH2 0xD57 JUMP JUMPDEST PUSH1 0x20 DUP3 ADD SWAP1 POP SWAP2 SWAP1 POP JUMP JUMPDEST PUSH0 PUSH1 0x20 DUP3 ADD SWAP1 POP DUP2 DUP2 SUB PUSH0 DUP4 ADD MSTORE PUSH2 0xDB8 DUP2 PUSH2 0xD7F JUMP JUMPDEST SWAP1 POP SWAP2 SWAP1 POP JUMP JUMPDEST PUSH32 0x496E76616C696420616D6E6F756E740000000000000000000000000000000000 PUSH0 DUP3 ADD MSTORE POP JUMP JUMPDEST PUSH0 PUSH2 0xDF3 PUSH1 0xF DUP4 PUSH2 0xA51 JUMP JUMPDEST SWAP2 POP PUSH2 0xDFE DUP3 PUSH2 0xDBF JUMP JUMPDEST PUSH1 0x20 DUP3 ADD SWAP1 POP SWAP2 SWAP1 POP JUMP JUMPDEST PUSH0 PUSH1 0x20 DUP3 ADD SWAP1 POP DUP2 DUP2 SUB PUSH0 DUP4 ADD MSTORE PUSH2 0xE20 DUP2 PUSH2 0xDE7 JUMP JUMPDEST SWAP1 POP SWAP2 SWAP1 POP JUMP JUMPDEST PUSH0 PUSH2 0xE31 DUP3 PUSH2 0x8C7 JUMP JUMPDEST SWAP2 POP PUSH2 0xE3C DUP4 PUSH2 0x8C7 JUMP JUMPDEST SWAP3 POP DUP3 DUP3 ADD SWAP1 POP DUP1 DUP3 GT ISZERO PUSH2 0xE54 JUMPI PUSH2 0xE53 PUSH2 0xB99 JUMP JUMPDEST JUMPDEST SWAP3 SWAP2 POP POP JUMP INVALID LOG2 PUSH5 0x6970667358 0x22 SLT KECCAK256 0xB9 PUSH22 0xEE2B3BA460E8834C0ACF237763E5F981D5B97017578 0xB2 0xCE SLT SWAP10 0xC0 GT DUPN 0xB1 PUSH5 0x736F6C6343 STOP ADDMOD 0x1F STOP CALLER "
				},
				"gasEstimates": {
					"creation": {
						"codeDepositCost": "745600",
						"executionCost": "102239",
						"totalCost": "847839"
					},
					"external": {
						"addMembers(address)": "77880",
						"bankmanager()": "2485",
						"deposit(uint256)": "infinite",
						"depositAmountEther()": "infinite",
						"getMembers()": "infinite",
						"withdraw(uint256)": "infinite"
					}
				},
				"methodIdentifiers": {
					"addMembers(address)": "939f284c",
					"bankmanager()": "1533323b",
					"deposit(uint256)": "b6b55f25",
					"depositAmountEther()": "c379c3e8",
					"getMembers()": "9eab5253",
					"withdraw(uint256)": "2e1a7d4d"
				}
			},
			"storageLayout": {
				"storage": [
					{
						"astId": 3,
						"contract": "day6-EtherPiggyBank/day6-etherpiggybank.sol:EtherPiggyBank",
						"label": "bankmanager",
						"offset": 0,
						"slot": "0",
						"type": "t_address"
					},
					{
						"astId": 6,
						"contract": "day6-EtherPiggyBank/day6-etherpiggybank.sol:EtherPiggyBank",
						"label": "members",
						"offset": 0,
						"slot": "1",
						"type": "t_array(t_address)dyn_storage"
					},
					{
						"astId": 10,
						"contract": "day6-EtherPiggyBank/day6-etherpiggybank.sol:EtherPiggyBank",
						"label": "registeredMembers",
						"offset": 0,
						"slot": "2",
						"type": "t_mapping(t_address,t_bool)"
					},
					{
						"astId": 14,
						"contract": "day6-EtherPiggyBank/day6-etherpiggybank.sol:EtherPiggyBank",
						"label": "balance",
						"offset": 0,
						"slot": "3",
						"type": "t_mapping(t_address,t_uint256)"
					}
				],
				"types": {
					"t_address": {
						"encoding": "inplace",
						"label": "address",
						"numberOfBytes": "20"
					},
					"t_array(t_address)dyn_storage": {
						"base": "t_address",
						"encoding": "dynamic_array",
						"label": "address[]",
						"numberOfBytes": "32"
					},
					"t_bool": {
						"encoding": "inplace",
						"label": "bool",
						"numberOfBytes": "1"
					},
					"t_mapping(t_address,t_bool)": {
						"encoding": "mapping",
						"key": "t_address",
						"label": "mapping(address => bool)",
						"numberOfBytes": "32",
						"value": "t_bool"
					},
					"t_mapping(t_address,t_uint256)": {
						"encoding": "mapping",
						"key": "t_address",
						"label": "mapping(address => uint256)",
						"numberOfBytes": "32",
						"value": "t_uint256"
					},
					"t_uint256": {
						"encoding": "inplace",
						"label": "uint256",
						"numberOfBytes": "32"
					}
				}
			},
			"userdoc": {
				"kind": "user",
				"methods": {},
				"version": 1
			}
		}
	}
}