{
	"day6-EtherPiggyBank/EtherPiggyBank.sol": {
		"EtherPiggyBank": {
			"abi": [
				{
					"inputs": [],
					"stateMutability": "nonpayable",
					"type": "constructor"
				},
				{
					"inputs": [
						{
							"internalType": "address",
							"name": "_member",
							"type": "address"
						}
					],
					"name": "addMembers",
					"outputs": [],
					"stateMutability": "nonpayable",
					"type": "function"
				},
				{
					"inputs": [],
					"name": "bankmanager",
					"outputs": [
						{
							"internalType": "address",
							"name": "",
							"type": "address"
						}
					],
					"stateMutability": "view",
					"type": "function"
				}
			],
			"devdoc": {
				"kind": "dev",
				"methods": {},
				"version": 1
			},
			"evm": {
				"assembly": "    /* \"day6-EtherPiggyBank/EtherPiggyBank.sol\":27:1046  contract EtherPiggyBank{... */\n  mstore(0x40, 0x80)\n    /* \"day6-EtherPiggyBank/EtherPiggyBank.sol\":272:398  constructor(){  //构造函数，定义管理员... */\n  callvalue\n  dup1\n  iszero\n  tag_1\n  jumpi\n  revert(0x00, 0x00)\ntag_1:\n  pop\n    /* \"day6-EtherPiggyBank/EtherPiggyBank.sol\":344:354  msg.sender */\n  caller\n    /* \"day6-EtherPiggyBank/EtherPiggyBank.sol\":330:341  bankmanager */\n  0x00\n  0x00\n    /* \"day6-EtherPiggyBank/EtherPiggyBank.sol\":330:354  bankmanager = msg.sender */\n  0x0100\n  exp\n  dup2\n  sload\n  dup2\n  0xffffffffffffffffffffffffffffffffffffffff\n  mul\n  not\n  and\n  swap1\n  dup4\n  0xffffffffffffffffffffffffffffffffffffffff\n  and\n  mul\n  or\n  swap1\n  sstore\n  pop\n    /* \"day6-EtherPiggyBank/EtherPiggyBank.sol\":365:372  members */\n  0x01\n    /* \"day6-EtherPiggyBank/EtherPiggyBank.sol\":378:389  bankmanager */\n  0x00\n  0x00\n  swap1\n  sload\n  swap1\n  0x0100\n  exp\n  swap1\n  div\n  0xffffffffffffffffffffffffffffffffffffffff\n  and\n    /* \"day6-EtherPiggyBank/EtherPiggyBank.sol\":365:390  members.push(bankmanager) */\n  swap1\n  dup1\n  0x01\n  dup2\n  sload\n  add\n  dup1\n  dup3\n  sstore\n  dup1\n  swap2\n  pop\n  pop\n  0x01\n  swap1\n  sub\n  swap1\n  0x00\n  mstore\n  keccak256(0x00, 0x20)\n  add\n  0x00\n  swap1\n  swap2\n  swap1\n  swap2\n  swap1\n  swap2\n  0x0100\n  exp\n  dup2\n  sload\n  dup2\n  0xffffffffffffffffffffffffffffffffffffffff\n  mul\n  not\n  and\n  swap1\n  dup4\n  0xffffffffffffffffffffffffffffffffffffffff\n  and\n  mul\n  or\n  swap1\n  sstore\n  pop\n    /* \"day6-EtherPiggyBank/EtherPiggyBank.sol\":27:1046  contract EtherPiggyBank{... */\n  dataSize(sub_0)\n  dup1\n  dataOffset(sub_0)\n  0x00\n  codecopy\n  0x00\n  return\nstop\n\nsub_0: assembly {\n        /* \"day6-EtherPiggyBank/EtherPiggyBank.sol\":27:1046  contract EtherPiggyBank{... */\n      mstore(0x40, 0x80)\n      callvalue\n      dup1\n      iszero\n      tag_1\n      jumpi\n      revert(0x00, 0x00)\n    tag_1:\n      pop\n      jumpi(tag_2, lt(calldatasize, 0x04))\n      shr(0xe0, calldataload(0x00))\n      dup1\n      0x1533323b\n      eq\n      tag_3\n      jumpi\n      dup1\n      0x939f284c\n      eq\n      tag_4\n      jumpi\n    tag_2:\n      revert(0x00, 0x00)\n        /* \"day6-EtherPiggyBank/EtherPiggyBank.sol\":57:83  address public bankmanager */\n    tag_3:\n      tag_5\n      tag_6\n      jump\t// in\n    tag_5:\n      mload(0x40)\n      tag_7\n      swap2\n      swap1\n      tag_8\n      jump\t// in\n    tag_7:\n      mload(0x40)\n      dup1\n      swap2\n      sub\n      swap1\n      return\n        /* \"day6-EtherPiggyBank/EtherPiggyBank.sol\":683:1041  function addMembers(address _member) public onlyBankManager{... */\n    tag_4:\n      tag_9\n      0x04\n      dup1\n      calldatasize\n      sub\n      dup2\n      add\n      swap1\n      tag_10\n      swap2\n      swap1\n      tag_11\n      jump\t// in\n    tag_10:\n      tag_12\n      jump\t// in\n    tag_9:\n      stop\n        /* \"day6-EtherPiggyBank/EtherPiggyBank.sol\":57:83  address public bankmanager */\n    tag_6:\n      0x00\n      0x00\n      swap1\n      sload\n      swap1\n      0x0100\n      exp\n      swap1\n      div\n      0xffffffffffffffffffffffffffffffffffffffff\n      and\n      dup2\n      jump\t// out\n        /* \"day6-EtherPiggyBank/EtherPiggyBank.sol\":683:1041  function addMembers(address _member) public onlyBankManager{... */\n    tag_12:\n        /* \"day6-EtherPiggyBank/EtherPiggyBank.sol\":465:476  bankmanager */\n      0x00\n      0x00\n      swap1\n      sload\n      swap1\n      0x0100\n      exp\n      swap1\n      div\n      0xffffffffffffffffffffffffffffffffffffffff\n      and\n        /* \"day6-EtherPiggyBank/EtherPiggyBank.sol\":451:476  msg.sender == bankmanager */\n      0xffffffffffffffffffffffffffffffffffffffff\n      and\n        /* \"day6-EtherPiggyBank/EtherPiggyBank.sol\":451:461  msg.sender */\n      caller\n        /* \"day6-EtherPiggyBank/EtherPiggyBank.sol\":451:476  msg.sender == bankmanager */\n      0xffffffffffffffffffffffffffffffffffffffff\n      and\n      eq\n        /* \"day6-EtherPiggyBank/EtherPiggyBank.sol\":443:522  require(msg.sender == bankmanager, \"Only bank manager can perform this antion\") */\n      tag_14\n      jumpi\n      mload(0x40)\n      0x08c379a000000000000000000000000000000000000000000000000000000000\n      dup2\n      mstore\n      0x04\n      add\n      tag_15\n      swap1\n      tag_16\n      jump\t// in\n    tag_15:\n      mload(0x40)\n      dup1\n      swap2\n      sub\n      swap1\n      revert\n    tag_14:\n        /* \"day6-EtherPiggyBank/EtherPiggyBank.sol\":780:781  0 */\n      0x00\n        /* \"day6-EtherPiggyBank/EtherPiggyBank.sol\":761:782  _member != address(0) */\n      0xffffffffffffffffffffffffffffffffffffffff\n      and\n        /* \"day6-EtherPiggyBank/EtherPiggyBank.sol\":761:768  _member */\n      dup2\n        /* \"day6-EtherPiggyBank/EtherPiggyBank.sol\":761:782  _member != address(0) */\n      0xffffffffffffffffffffffffffffffffffffffff\n      and\n      sub\n        /* \"day6-EtherPiggyBank/EtherPiggyBank.sol\":753:802  require(_member != address(0), \"Invalid address\") */\n      tag_18\n      jumpi\n      mload(0x40)\n      0x08c379a000000000000000000000000000000000000000000000000000000000\n      dup2\n      mstore\n      0x04\n      add\n      tag_19\n      swap1\n      tag_20\n      jump\t// in\n    tag_19:\n      mload(0x40)\n      dup1\n      swap2\n      sub\n      swap1\n      revert\n    tag_18:\n        /* \"day6-EtherPiggyBank/EtherPiggyBank.sol\":832:842  msg.sender */\n      caller\n        /* \"day6-EtherPiggyBank/EtherPiggyBank.sol\":821:842  _member != msg.sender */\n      0xffffffffffffffffffffffffffffffffffffffff\n      and\n        /* \"day6-EtherPiggyBank/EtherPiggyBank.sol\":821:828  _member */\n      dup2\n        /* \"day6-EtherPiggyBank/EtherPiggyBank.sol\":821:842  _member != msg.sender */\n      0xffffffffffffffffffffffffffffffffffffffff\n      and\n      sub\n        /* \"day6-EtherPiggyBank/EtherPiggyBank.sol\":813:879  require(_member != msg.sender, \"Nank Manager is already a member\") */\n      tag_21\n      jumpi\n      mload(0x40)\n      0x08c379a000000000000000000000000000000000000000000000000000000000\n      dup2\n      mstore\n      0x04\n      add\n      tag_22\n      swap1\n      tag_23\n      jump\t// in\n    tag_22:\n      mload(0x40)\n      dup1\n      swap2\n      sub\n      swap1\n      revert\n    tag_21:\n        /* \"day6-EtherPiggyBank/EtherPiggyBank.sol\":899:916  registeredMembers */\n      0x02\n        /* \"day6-EtherPiggyBank/EtherPiggyBank.sol\":899:925  registeredMembers[_member] */\n      0x00\n        /* \"day6-EtherPiggyBank/EtherPiggyBank.sol\":917:924  _member */\n      dup3\n        /* \"day6-EtherPiggyBank/EtherPiggyBank.sol\":899:925  registeredMembers[_member] */\n      0xffffffffffffffffffffffffffffffffffffffff\n      and\n      0xffffffffffffffffffffffffffffffffffffffff\n      and\n      dup2\n      mstore\n      0x20\n      add\n      swap1\n      dup2\n      mstore\n      0x20\n      add\n      0x00\n      keccak256\n      0x00\n      swap1\n      sload\n      swap1\n      0x0100\n      exp\n      swap1\n      div\n      0xff\n      and\n        /* \"day6-EtherPiggyBank/EtherPiggyBank.sol\":898:925  !registeredMembers[_member] */\n      iszero\n        /* \"day6-EtherPiggyBank/EtherPiggyBank.sol\":890:955  require(!registeredMembers[_member], \"Member already registered\") */\n      tag_24\n      jumpi\n      mload(0x40)\n      0x08c379a000000000000000000000000000000000000000000000000000000000\n      dup2\n      mstore\n      0x04\n      add\n      tag_25\n      swap1\n      tag_26\n      jump\t// in\n    tag_25:\n      mload(0x40)\n      dup1\n      swap2\n      sub\n      swap1\n      revert\n    tag_24:\n        /* \"day6-EtherPiggyBank/EtherPiggyBank.sol\":997:1001  true */\n      0x01\n        /* \"day6-EtherPiggyBank/EtherPiggyBank.sol\":968:985  registeredMembers */\n      0x02\n        /* \"day6-EtherPiggyBank/EtherPiggyBank.sol\":968:994  registeredMembers[_member] */\n      0x00\n        /* \"day6-EtherPiggyBank/EtherPiggyBank.sol\":986:993  _member */\n      dup4\n        /* \"day6-EtherPiggyBank/EtherPiggyBank.sol\":968:994  registeredMembers[_member] */\n      0xffffffffffffffffffffffffffffffffffffffff\n      and\n      0xffffffffffffffffffffffffffffffffffffffff\n      and\n      dup2\n      mstore\n      0x20\n      add\n      swap1\n      dup2\n      mstore\n      0x20\n      add\n      0x00\n      keccak256\n      0x00\n        /* \"day6-EtherPiggyBank/EtherPiggyBank.sol\":968:1001  registeredMembers[_member] = true */\n      0x0100\n      exp\n      dup2\n      sload\n      dup2\n      0xff\n      mul\n      not\n      and\n      swap1\n      dup4\n      iszero\n      iszero\n      mul\n      or\n      swap1\n      sstore\n      pop\n        /* \"day6-EtherPiggyBank/EtherPiggyBank.sol\":1012:1019  members */\n      0x01\n        /* \"day6-EtherPiggyBank/EtherPiggyBank.sol\":1025:1032  _member */\n      dup2\n        /* \"day6-EtherPiggyBank/EtherPiggyBank.sol\":1012:1033  members.push(_member) */\n      swap1\n      dup1\n      0x01\n      dup2\n      sload\n      add\n      dup1\n      dup3\n      sstore\n      dup1\n      swap2\n      pop\n      pop\n      0x01\n      swap1\n      sub\n      swap1\n      0x00\n      mstore\n      keccak256(0x00, 0x20)\n      add\n      0x00\n      swap1\n      swap2\n      swap1\n      swap2\n      swap1\n      swap2\n      0x0100\n      exp\n      dup2\n      sload\n      dup2\n      0xffffffffffffffffffffffffffffffffffffffff\n      mul\n      not\n      and\n      swap1\n      dup4\n      0xffffffffffffffffffffffffffffffffffffffff\n      and\n      mul\n      or\n      swap1\n      sstore\n      pop\n        /* \"day6-EtherPiggyBank/EtherPiggyBank.sol\":683:1041  function addMembers(address _member) public onlyBankManager{... */\n      pop\n      jump\t// out\n        /* \"#utility.yul\":7:133   */\n    tag_28:\n        /* \"#utility.yul\":44:51   */\n      0x00\n        /* \"#utility.yul\":84:126   */\n      0xffffffffffffffffffffffffffffffffffffffff\n        /* \"#utility.yul\":77:82   */\n      dup3\n        /* \"#utility.yul\":73:127   */\n      and\n        /* \"#utility.yul\":62:127   */\n      swap1\n      pop\n        /* \"#utility.yul\":7:133   */\n      swap2\n      swap1\n      pop\n      jump\t// out\n        /* \"#utility.yul\":139:235   */\n    tag_29:\n        /* \"#utility.yul\":176:183   */\n      0x00\n        /* \"#utility.yul\":205:229   */\n      tag_48\n        /* \"#utility.yul\":223:228   */\n      dup3\n        /* \"#utility.yul\":205:229   */\n      tag_28\n      jump\t// in\n    tag_48:\n        /* \"#utility.yul\":194:229   */\n      swap1\n      pop\n        /* \"#utility.yul\":139:235   */\n      swap2\n      swap1\n      pop\n      jump\t// out\n        /* \"#utility.yul\":241:359   */\n    tag_30:\n        /* \"#utility.yul\":328:352   */\n      tag_50\n        /* \"#utility.yul\":346:351   */\n      dup2\n        /* \"#utility.yul\":328:352   */\n      tag_29\n      jump\t// in\n    tag_50:\n        /* \"#utility.yul\":323:326   */\n      dup3\n        /* \"#utility.yul\":316:353   */\n      mstore\n        /* \"#utility.yul\":241:359   */\n      pop\n      pop\n      jump\t// out\n        /* \"#utility.yul\":365:587   */\n    tag_8:\n        /* \"#utility.yul\":458:462   */\n      0x00\n        /* \"#utility.yul\":496:498   */\n      0x20\n        /* \"#utility.yul\":485:494   */\n      dup3\n        /* \"#utility.yul\":481:499   */\n      add\n        /* \"#utility.yul\":473:499   */\n      swap1\n      pop\n        /* \"#utility.yul\":509:580   */\n      tag_52\n        /* \"#utility.yul\":577:578   */\n      0x00\n        /* \"#utility.yul\":566:575   */\n      dup4\n        /* \"#utility.yul\":562:579   */\n      add\n        /* \"#utility.yul\":553:559   */\n      dup5\n        /* \"#utility.yul\":509:580   */\n      tag_30\n      jump\t// in\n    tag_52:\n        /* \"#utility.yul\":365:587   */\n      swap3\n      swap2\n      pop\n      pop\n      jump\t// out\n        /* \"#utility.yul\":674:791   */\n    tag_32:\n        /* \"#utility.yul\":783:784   */\n      0x00\n        /* \"#utility.yul\":780:781   */\n      0x00\n        /* \"#utility.yul\":773:785   */\n      revert\n        /* \"#utility.yul\":920:1042   */\n    tag_34:\n        /* \"#utility.yul\":993:1017   */\n      tag_57\n        /* \"#utility.yul\":1011:1016   */\n      dup2\n        /* \"#utility.yul\":993:1017   */\n      tag_29\n      jump\t// in\n    tag_57:\n        /* \"#utility.yul\":986:991   */\n      dup2\n        /* \"#utility.yul\":983:1018   */\n      eq\n        /* \"#utility.yul\":973:1036   */\n      tag_58\n      jumpi\n        /* \"#utility.yul\":1032:1033   */\n      0x00\n        /* \"#utility.yul\":1029:1030   */\n      0x00\n        /* \"#utility.yul\":1022:1034   */\n      revert\n        /* \"#utility.yul\":973:1036   */\n    tag_58:\n        /* \"#utility.yul\":920:1042   */\n      pop\n      jump\t// out\n        /* \"#utility.yul\":1048:1187   */\n    tag_35:\n        /* \"#utility.yul\":1094:1099   */\n      0x00\n        /* \"#utility.yul\":1132:1138   */\n      dup2\n        /* \"#utility.yul\":1119:1139   */\n      calldataload\n        /* \"#utility.yul\":1110:1139   */\n      swap1\n      pop\n        /* \"#utility.yul\":1148:1181   */\n      tag_60\n        /* \"#utility.yul\":1175:1180   */\n      dup2\n        /* \"#utility.yul\":1148:1181   */\n      tag_34\n      jump\t// in\n    tag_60:\n        /* \"#utility.yul\":1048:1187   */\n      swap3\n      swap2\n      pop\n      pop\n      jump\t// out\n        /* \"#utility.yul\":1193:1522   */\n    tag_11:\n        /* \"#utility.yul\":1252:1258   */\n      0x00\n        /* \"#utility.yul\":1301:1303   */\n      0x20\n        /* \"#utility.yul\":1289:1298   */\n      dup3\n        /* \"#utility.yul\":1280:1287   */\n      dup5\n        /* \"#utility.yul\":1276:1299   */\n      sub\n        /* \"#utility.yul\":1272:1304   */\n      slt\n        /* \"#utility.yul\":1269:1388   */\n      iszero\n      tag_62\n      jumpi\n        /* \"#utility.yul\":1307:1386   */\n      tag_63\n      tag_32\n      jump\t// in\n    tag_63:\n        /* \"#utility.yul\":1269:1388   */\n    tag_62:\n        /* \"#utility.yul\":1427:1428   */\n      0x00\n        /* \"#utility.yul\":1452:1505   */\n      tag_64\n        /* \"#utility.yul\":1497:1504   */\n      dup5\n        /* \"#utility.yul\":1488:1494   */\n      dup3\n        /* \"#utility.yul\":1477:1486   */\n      dup6\n        /* \"#utility.yul\":1473:1495   */\n      add\n        /* \"#utility.yul\":1452:1505   */\n      tag_35\n      jump\t// in\n    tag_64:\n        /* \"#utility.yul\":1442:1505   */\n      swap2\n      pop\n        /* \"#utility.yul\":1398:1515   */\n      pop\n        /* \"#utility.yul\":1193:1522   */\n      swap3\n      swap2\n      pop\n      pop\n      jump\t// out\n        /* \"#utility.yul\":1528:1697   */\n    tag_36:\n        /* \"#utility.yul\":1612:1623   */\n      0x00\n        /* \"#utility.yul\":1646:1652   */\n      dup3\n        /* \"#utility.yul\":1641:1644   */\n      dup3\n        /* \"#utility.yul\":1634:1653   */\n      mstore\n        /* \"#utility.yul\":1686:1690   */\n      0x20\n        /* \"#utility.yul\":1681:1684   */\n      dup3\n        /* \"#utility.yul\":1677:1691   */\n      add\n        /* \"#utility.yul\":1662:1691   */\n      swap1\n      pop\n        /* \"#utility.yul\":1528:1697   */\n      swap3\n      swap2\n      pop\n      pop\n      jump\t// out\n        /* \"#utility.yul\":1703:1931   */\n    tag_37:\n        /* \"#utility.yul\":1843:1877   */\n      0x4f6e6c792062616e6b206d616e616765722063616e20706572666f726d207468\n        /* \"#utility.yul\":1839:1840   */\n      0x00\n        /* \"#utility.yul\":1831:1837   */\n      dup3\n        /* \"#utility.yul\":1827:1841   */\n      add\n        /* \"#utility.yul\":1820:1878   */\n      mstore\n        /* \"#utility.yul\":1912:1923   */\n      0x697320616e74696f6e0000000000000000000000000000000000000000000000\n        /* \"#utility.yul\":1907:1909   */\n      0x20\n        /* \"#utility.yul\":1899:1905   */\n      dup3\n        /* \"#utility.yul\":1895:1910   */\n      add\n        /* \"#utility.yul\":1888:1924   */\n      mstore\n        /* \"#utility.yul\":1703:1931   */\n      pop\n      jump\t// out\n        /* \"#utility.yul\":1937:2303   */\n    tag_38:\n        /* \"#utility.yul\":2079:2082   */\n      0x00\n        /* \"#utility.yul\":2100:2167   */\n      tag_68\n        /* \"#utility.yul\":2164:2166   */\n      0x29\n        /* \"#utility.yul\":2159:2162   */\n      dup4\n        /* \"#utility.yul\":2100:2167   */\n      tag_36\n      jump\t// in\n    tag_68:\n        /* \"#utility.yul\":2093:2167   */\n      swap2\n      pop\n        /* \"#utility.yul\":2176:2269   */\n      tag_69\n        /* \"#utility.yul\":2265:2268   */\n      dup3\n        /* \"#utility.yul\":2176:2269   */\n      tag_37\n      jump\t// in\n    tag_69:\n        /* \"#utility.yul\":2294:2296   */\n      0x40\n        /* \"#utility.yul\":2289:2292   */\n      dup3\n        /* \"#utility.yul\":2285:2297   */\n      add\n        /* \"#utility.yul\":2278:2297   */\n      swap1\n      pop\n        /* \"#utility.yul\":1937:2303   */\n      swap2\n      swap1\n      pop\n      jump\t// out\n        /* \"#utility.yul\":2309:2728   */\n    tag_16:\n        /* \"#utility.yul\":2475:2479   */\n      0x00\n        /* \"#utility.yul\":2513:2515   */\n      0x20\n        /* \"#utility.yul\":2502:2511   */\n      dup3\n        /* \"#utility.yul\":2498:2516   */\n      add\n        /* \"#utility.yul\":2490:2516   */\n      swap1\n      pop\n        /* \"#utility.yul\":2562:2571   */\n      dup2\n        /* \"#utility.yul\":2556:2560   */\n      dup2\n        /* \"#utility.yul\":2552:2572   */\n      sub\n        /* \"#utility.yul\":2548:2549   */\n      0x00\n        /* \"#utility.yul\":2537:2546   */\n      dup4\n        /* \"#utility.yul\":2533:2550   */\n      add\n        /* \"#utility.yul\":2526:2573   */\n      mstore\n        /* \"#utility.yul\":2590:2721   */\n      tag_71\n        /* \"#utility.yul\":2716:2720   */\n      dup2\n        /* \"#utility.yul\":2590:2721   */\n      tag_38\n      jump\t// in\n    tag_71:\n        /* \"#utility.yul\":2582:2721   */\n      swap1\n      pop\n        /* \"#utility.yul\":2309:2728   */\n      swap2\n      swap1\n      pop\n      jump\t// out\n        /* \"#utility.yul\":2734:2899   */\n    tag_39:\n        /* \"#utility.yul\":2874:2891   */\n      0x496e76616c696420616464726573730000000000000000000000000000000000\n        /* \"#utility.yul\":2870:2871   */\n      0x00\n        /* \"#utility.yul\":2862:2868   */\n      dup3\n        /* \"#utility.yul\":2858:2872   */\n      add\n        /* \"#utility.yul\":2851:2892   */\n      mstore\n        /* \"#utility.yul\":2734:2899   */\n      pop\n      jump\t// out\n        /* \"#utility.yul\":2905:3271   */\n    tag_40:\n        /* \"#utility.yul\":3047:3050   */\n      0x00\n        /* \"#utility.yul\":3068:3135   */\n      tag_74\n        /* \"#utility.yul\":3132:3134   */\n      0x0f\n        /* \"#utility.yul\":3127:3130   */\n      dup4\n        /* \"#utility.yul\":3068:3135   */\n      tag_36\n      jump\t// in\n    tag_74:\n        /* \"#utility.yul\":3061:3135   */\n      swap2\n      pop\n        /* \"#utility.yul\":3144:3237   */\n      tag_75\n        /* \"#utility.yul\":3233:3236   */\n      dup3\n        /* \"#utility.yul\":3144:3237   */\n      tag_39\n      jump\t// in\n    tag_75:\n        /* \"#utility.yul\":3262:3264   */\n      0x20\n        /* \"#utility.yul\":3257:3260   */\n      dup3\n        /* \"#utility.yul\":3253:3265   */\n      add\n        /* \"#utility.yul\":3246:3265   */\n      swap1\n      pop\n        /* \"#utility.yul\":2905:3271   */\n      swap2\n      swap1\n      pop\n      jump\t// out\n        /* \"#utility.yul\":3277:3696   */\n    tag_20:\n        /* \"#utility.yul\":3443:3447   */\n      0x00\n        /* \"#utility.yul\":3481:3483   */\n      0x20\n        /* \"#utility.yul\":3470:3479   */\n      dup3\n        /* \"#utility.yul\":3466:3484   */\n      add\n        /* \"#utility.yul\":3458:3484   */\n      swap1\n      pop\n        /* \"#utility.yul\":3530:3539   */\n      dup2\n        /* \"#utility.yul\":3524:3528   */\n      dup2\n        /* \"#utility.yul\":3520:3540   */\n      sub\n        /* \"#utility.yul\":3516:3517   */\n      0x00\n        /* \"#utility.yul\":3505:3514   */\n      dup4\n        /* \"#utility.yul\":3501:3518   */\n      add\n        /* \"#utility.yul\":3494:3541   */\n      mstore\n        /* \"#utility.yul\":3558:3689   */\n      tag_77\n        /* \"#utility.yul\":3684:3688   */\n      dup2\n        /* \"#utility.yul\":3558:3689   */\n      tag_40\n      jump\t// in\n    tag_77:\n        /* \"#utility.yul\":3550:3689   */\n      swap1\n      pop\n        /* \"#utility.yul\":3277:3696   */\n      swap2\n      swap1\n      pop\n      jump\t// out\n        /* \"#utility.yul\":3702:3884   */\n    tag_41:\n        /* \"#utility.yul\":3842:3876   */\n      0x4e616e6b204d616e6167657220697320616c72656164792061206d656d626572\n        /* \"#utility.yul\":3838:3839   */\n      0x00\n        /* \"#utility.yul\":3830:3836   */\n      dup3\n        /* \"#utility.yul\":3826:3840   */\n      add\n        /* \"#utility.yul\":3819:3877   */\n      mstore\n        /* \"#utility.yul\":3702:3884   */\n      pop\n      jump\t// out\n        /* \"#utility.yul\":3890:4256   */\n    tag_42:\n        /* \"#utility.yul\":4032:4035   */\n      0x00\n        /* \"#utility.yul\":4053:4120   */\n      tag_80\n        /* \"#utility.yul\":4117:4119   */\n      0x20\n        /* \"#utility.yul\":4112:4115   */\n      dup4\n        /* \"#utility.yul\":4053:4120   */\n      tag_36\n      jump\t// in\n    tag_80:\n        /* \"#utility.yul\":4046:4120   */\n      swap2\n      pop\n        /* \"#utility.yul\":4129:4222   */\n      tag_81\n        /* \"#utility.yul\":4218:4221   */\n      dup3\n        /* \"#utility.yul\":4129:4222   */\n      tag_41\n      jump\t// in\n    tag_81:\n        /* \"#utility.yul\":4247:4249   */\n      0x20\n        /* \"#utility.yul\":4242:4245   */\n      dup3\n        /* \"#utility.yul\":4238:4250   */\n      add\n        /* \"#utility.yul\":4231:4250   */\n      swap1\n      pop\n        /* \"#utility.yul\":3890:4256   */\n      swap2\n      swap1\n      pop\n      jump\t// out\n        /* \"#utility.yul\":4262:4681   */\n    tag_23:\n        /* \"#utility.yul\":4428:4432   */\n      0x00\n        /* \"#utility.yul\":4466:4468   */\n      0x20\n        /* \"#utility.yul\":4455:4464   */\n      dup3\n        /* \"#utility.yul\":4451:4469   */\n      add\n        /* \"#utility.yul\":4443:4469   */\n      swap1\n      pop\n        /* \"#utility.yul\":4515:4524   */\n      dup2\n        /* \"#utility.yul\":4509:4513   */\n      dup2\n        /* \"#utility.yul\":4505:4525   */\n      sub\n        /* \"#utility.yul\":4501:4502   */\n      0x00\n        /* \"#utility.yul\":4490:4499   */\n      dup4\n        /* \"#utility.yul\":4486:4503   */\n      add\n        /* \"#utility.yul\":4479:4526   */\n      mstore\n        /* \"#utility.yul\":4543:4674   */\n      tag_83\n        /* \"#utility.yul\":4669:4673   */\n      dup2\n        /* \"#utility.yul\":4543:4674   */\n      tag_42\n      jump\t// in\n    tag_83:\n        /* \"#utility.yul\":4535:4674   */\n      swap1\n      pop\n        /* \"#utility.yul\":4262:4681   */\n      swap2\n      swap1\n      pop\n      jump\t// out\n        /* \"#utility.yul\":4687:4862   */\n    tag_43:\n        /* \"#utility.yul\":4827:4854   */\n      0x4d656d62657220616c7265616479207265676973746572656400000000000000\n        /* \"#utility.yul\":4823:4824   */\n      0x00\n        /* \"#utility.yul\":4815:4821   */\n      dup3\n        /* \"#utility.yul\":4811:4825   */\n      add\n        /* \"#utility.yul\":4804:4855   */\n      mstore\n        /* \"#utility.yul\":4687:4862   */\n      pop\n      jump\t// out\n        /* \"#utility.yul\":4868:5234   */\n    tag_44:\n        /* \"#utility.yul\":5010:5013   */\n      0x00\n        /* \"#utility.yul\":5031:5098   */\n      tag_86\n        /* \"#utility.yul\":5095:5097   */\n      0x19\n        /* \"#utility.yul\":5090:5093   */\n      dup4\n        /* \"#utility.yul\":5031:5098   */\n      tag_36\n      jump\t// in\n    tag_86:\n        /* \"#utility.yul\":5024:5098   */\n      swap2\n      pop\n        /* \"#utility.yul\":5107:5200   */\n      tag_87\n        /* \"#utility.yul\":5196:5199   */\n      dup3\n        /* \"#utility.yul\":5107:5200   */\n      tag_43\n      jump\t// in\n    tag_87:\n        /* \"#utility.yul\":5225:5227   */\n      0x20\n        /* \"#utility.yul\":5220:5223   */\n      dup3\n        /* \"#utility.yul\":5216:5228   */\n      add\n        /* \"#utility.yul\":5209:5228   */\n      swap1\n      pop\n        /* \"#utility.yul\":4868:5234   */\n      swap2\n      swap1\n      pop\n      jump\t// out\n        /* \"#utility.yul\":5240:5659   */\n    tag_26:\n        /* \"#utility.yul\":5406:5410   */\n      0x00\n        /* \"#utility.yul\":5444:5446   */\n      0x20\n        /* \"#utility.yul\":5433:5442   */\n      dup3\n        /* \"#utility.yul\":5429:5447   */\n      add\n        /* \"#utility.yul\":5421:5447   */\n      swap1\n      pop\n        /* \"#utility.yul\":5493:5502   */\n      dup2\n        /* \"#utility.yul\":5487:5491   */\n      dup2\n        /* \"#utility.yul\":5483:5503   */\n      sub\n        /* \"#utility.yul\":5479:5480   */\n      0x00\n        /* \"#utility.yul\":5468:5477   */\n      dup4\n        /* \"#utility.yul\":5464:5481   */\n      add\n        /* \"#utility.yul\":5457:5504   */\n      mstore\n        /* \"#utility.yul\":5521:5652   */\n      tag_89\n        /* \"#utility.yul\":5647:5651   */\n      dup2\n        /* \"#utility.yul\":5521:5652   */\n      tag_44\n      jump\t// in\n    tag_89:\n        /* \"#utility.yul\":5513:5652   */\n      swap1\n      pop\n        /* \"#utility.yul\":5240:5659   */\n      swap2\n      swap1\n      pop\n      jump\t// out\n\n    auxdata: 0xa2646970667358221220693a7c8e5071dd664eab86d92e65b7aba0aa8140ed2685a1376abea4cbdbdf8d64736f6c634300081f0033\n}\n",
				"bytecode": {
					"linkReferences": {},
					"object": "6080604052348015600e575f5ffd5b50335f5f6101000a81548173ffffffffffffffffffffffffffffffffffffffff021916908373ffffffffffffffffffffffffffffffffffffffff16021790555060015f5f9054906101000a900473ffffffffffffffffffffffffffffffffffffffff16908060018154018082558091505060019003905f5260205f20015f9091909190916101000a81548173ffffffffffffffffffffffffffffffffffffffff021916908373ffffffffffffffffffffffffffffffffffffffff1602179055506105ff806100db5f395ff3fe608060405234801561000f575f5ffd5b5060043610610034575f3560e01c80631533323b14610038578063939f284c14610056575b5f5ffd5b610040610072565b60405161004d9190610381565b60405180910390f35b610070600480360381019061006b91906103c8565b610096565b005b5f5f9054906101000a900473ffffffffffffffffffffffffffffffffffffffff1681565b5f5f9054906101000a900473ffffffffffffffffffffffffffffffffffffffff1673ffffffffffffffffffffffffffffffffffffffff163373ffffffffffffffffffffffffffffffffffffffff1614610124576040517f08c379a000000000000000000000000000000000000000000000000000000000815260040161011b90610473565b60405180910390fd5b5f73ffffffffffffffffffffffffffffffffffffffff168173ffffffffffffffffffffffffffffffffffffffff1603610192576040517f08c379a0000000000000000000000000000000000000000000000000000000008152600401610189906104db565b60405180910390fd5b3373ffffffffffffffffffffffffffffffffffffffff168173ffffffffffffffffffffffffffffffffffffffff1603610200576040517f08c379a00000000000000000000000000000000000000000000000000000000081526004016101f790610543565b60405180910390fd5b60025f8273ffffffffffffffffffffffffffffffffffffffff1673ffffffffffffffffffffffffffffffffffffffff1681526020019081526020015f205f9054906101000a900460ff161561028a576040517f08c379a0000000000000000000000000000000000000000000000000000000008152600401610281906105ab565b60405180910390fd5b600160025f8373ffffffffffffffffffffffffffffffffffffffff1673ffffffffffffffffffffffffffffffffffffffff1681526020019081526020015f205f6101000a81548160ff021916908315150217905550600181908060018154018082558091505060019003905f5260205f20015f9091909190916101000a81548173ffffffffffffffffffffffffffffffffffffffff021916908373ffffffffffffffffffffffffffffffffffffffff16021790555050565b5f73ffffffffffffffffffffffffffffffffffffffff82169050919050565b5f61036b82610342565b9050919050565b61037b81610361565b82525050565b5f6020820190506103945f830184610372565b92915050565b5f5ffd5b6103a781610361565b81146103b1575f5ffd5b50565b5f813590506103c28161039e565b92915050565b5f602082840312156103dd576103dc61039a565b5b5f6103ea848285016103b4565b91505092915050565b5f82825260208201905092915050565b7f4f6e6c792062616e6b206d616e616765722063616e20706572666f726d2074685f8201527f697320616e74696f6e0000000000000000000000000000000000000000000000602082015250565b5f61045d6029836103f3565b915061046882610403565b604082019050919050565b5f6020820190508181035f83015261048a81610451565b9050919050565b7f496e76616c6964206164647265737300000000000000000000000000000000005f82015250565b5f6104c5600f836103f3565b91506104d082610491565b602082019050919050565b5f6020820190508181035f8301526104f2816104b9565b9050919050565b7f4e616e6b204d616e6167657220697320616c72656164792061206d656d6265725f82015250565b5f61052d6020836103f3565b9150610538826104f9565b602082019050919050565b5f6020820190508181035f83015261055a81610521565b9050919050565b7f4d656d62657220616c72656164792072656769737465726564000000000000005f82015250565b5f6105956019836103f3565b91506105a082610561565b602082019050919050565b5f6020820190508181035f8301526105c281610589565b905091905056fea2646970667358221220693a7c8e5071dd664eab86d92e65b7aba0aa8140ed2685a1376abea4cbdbdf8d64736f6c634300081f0033",
					"opcodes": "PUSH1 0x80 PUSH1 0x40 MSTORE CALLVALUE DUP1 ISZERO PUSH1 0xE JUMPI PUSH0 PUSH0 REVERT JUMPDEST POP CALLER PUSH0 PUSH0 PUSH2 0x100 EXP DUP2 SLOAD DUP2 PUSH20 0xFFFFFFFFFFFFFFFFFFFFFFFFFFFFFFFFFFFFFFFF MUL NOT AND SWAP1 DUP4 PUSH20 0xFFFFFFFFFFFFFFFFFFFFFFFFFFFFFFFFFFFFFFFF AND MUL OR SWAP1 SSTORE POP PUSH1 0x1 PUSH0 PUSH0 SWAP1 SLOAD SWAP1 PUSH2 0x100 EXP SWAP1 DIV PUSH20 0xFFFFFFFFFFFFFFFFFFFFFFFFFFFFFFFFFFFFFFFF AND SWAP1 DUP1 PUSH1 0x1 DUP2 SLOAD ADD DUP1 DUP3 SSTORE DUP1 SWAP2 POP POP PUSH1 0x1 SWAP1 SUB SWAP1 PUSH0 MSTORE PUSH1 0x20 PUSH0 KECCAK256 ADD PUSH0 SWAP1 SWAP2 SWAP1 SWAP2 SWAP1 SWAP2 PUSH2 0x100 EXP DUP2 SLOAD DUP2 PUSH20 0xFFFFFFFFFFFFFFFFFFFFFFFFFFFFFFFFFFFFFFFF MUL NOT AND SWAP1 DUP4 PUSH20 0xFFFFFFFFFFFFFFFFFFFFFFFFFFFFFFFFFFFFFFFF AND MUL OR SWAP1 SSTORE POP PUSH2 0x5FF DUP1 PUSH2 0xDB PUSH0 CODECOPY PUSH0 RETURN INVALID PUSH1 0x80 PUSH1 0x40 MSTORE CALLVALUE DUP1 ISZERO PUSH2 0xF JUMPI PUSH0 PUSH0 REVERT JUMPDEST POP PUSH1 0x4 CALLDATASIZE LT PUSH2 0x34 JUMPI PUSH0 CALLDATALOAD PUSH1 0xE0 SHR DUP1 PUSH4 0x1533323B EQ PUSH2 0x38 JUMPI DUP1 PUSH4 0x939F284C EQ PUSH2 0x56 JUMPI JUMPDEST PUSH0 PUSH0 REVERT JUMPDEST PUSH2 0x40 PUSH2 0x72 JUMP JUMPDEST PUSH1 0x40 MLOAD PUSH2 0x4D SWAP2 SWAP1 PUSH2 0x381 JUMP JUMPDEST PUSH1 0x40 MLOAD DUP1 SWAP2 SUB SWAP1 RETURN JUMPDEST PUSH2 0x70 PUSH1 0x4 DUP1 CALLDATASIZE SUB DUP2 ADD SWAP1 PUSH2 0x6B SWAP2 SWAP1 PUSH2 0x3C8 JUMP JUMPDEST PUSH2 0x96 JUMP JUMPDEST STOP JUMPDEST PUSH0 PUSH0 SWAP1 SLOAD SWAP1 PUSH2 0x100 EXP SWAP1 DIV PUSH20 0xFFFFFFFFFFFFFFFFFFFFFFFFFFFFFFFFFFFFFFFF AND DUP2 JUMP JUMPDEST PUSH0 PUSH0 SWAP1 SLOAD SWAP1 PUSH2 0x100 EXP SWAP1 DIV PUSH20 0xFFFFFFFFFFFFFFFFFFFFFFFFFFFFFFFFFFFFFFFF AND PUSH20 0xFFFFFFFFFFFFFFFFFFFFFFFFFFFFFFFFFFFFFFFF AND CALLER PUSH20 0xFFFFFFFFFFFFFFFFFFFFFFFFFFFFFFFFFFFFFFFF AND EQ PUSH2 0x124 JUMPI PUSH1 0x40 MLOAD PUSH32 0x8C379A000000000000000000000000000000000000000000000000000000000 DUP2 MSTORE PUSH1 0x4 ADD PUSH2 0x11B SWAP1 PUSH2 0x473 JUMP JUMPDEST PUSH1 0x40 MLOAD DUP1 SWAP2 SUB SWAP1 REVERT JUMPDEST PUSH0 PUSH20 0xFFFFFFFFFFFFFFFFFFFFFFFFFFFFFFFFFFFFFFFF AND DUP2 PUSH20 0xFFFFFFFFFFFFFFFFFFFFFFFFFFFFFFFFFFFFFFFF AND SUB PUSH2 0x192 JUMPI PUSH1 0x40 MLOAD PUSH32 0x8C379A000000000000000000000000000000000000000000000000000000000 DUP2 MSTORE PUSH1 0x4 ADD PUSH2 0x189 SWAP1 PUSH2 0x4DB JUMP JUMPDEST PUSH1 0x40 MLOAD DUP1 SWAP2 SUB SWAP1 REVERT JUMPDEST CALLER PUSH20 0xFFFFFFFFFFFFFFFFFFFFFFFFFFFFFFFFFFFFFFFF AND DUP2 PUSH20 0xFFFFFFFFFFFFFFFFFFFFFFFFFFFFFFFFFFFFFFFF AND SUB PUSH2 0x200 JUMPI PUSH1 0x40 MLOAD PUSH32 0x8C379A000000000000000000000000000000000000000000000000000000000 DUP2 MSTORE PUSH1 0x4 ADD PUSH2 0x1F7 SWAP1 PUSH2 0x543 JUMP JUMPDEST PUSH1 0x40 MLOAD DUP1 SWAP2 SUB SWAP1 REVERT JUMPDEST PUSH1 0x2 PUSH0 DUP3 PUSH20 0xFFFFFFFFFFFFFFFFFFFFFFFFFFFFFFFFFFFFFFFF AND PUSH20 0xFFFFFFFFFFFFFFFFFFFFFFFFFFFFFFFFFFFFFFFF AND DUP2 MSTORE PUSH1 0x20 ADD SWAP1 DUP2 MSTORE PUSH1 0x20 ADD PUSH0 KECCAK256 PUSH0 SWAP1 SLOAD SWAP1 PUSH2 0x100 EXP SWAP1 DIV PUSH1 0xFF AND ISZERO PUSH2 0x28A JUMPI PUSH1 0x40 MLOAD PUSH32 0x8C379A000000000000000000000000000000000000000000000000000000000 DUP2 MSTORE PUSH1 0x4 ADD PUSH2 0x281 SWAP1 PUSH2 0x5AB JUMP JUMPDEST PUSH1 0x40 MLOAD DUP1 SWAP2 SUB SWAP1 REVERT JUMPDEST PUSH1 0x1 PUSH1 0x2 PUSH0 DUP4 PUSH20 0xFFFFFFFFFFFFFFFFFFFFFFFFFFFFFFFFFFFFFFFF AND PUSH20 0xFFFFFFFFFFFFFFFFFFFFFFFFFFFFFFFFFFFFFFFF AND DUP2 MSTORE PUSH1 0x20 ADD SWAP1 DUP2 MSTORE PUSH1 0x20 ADD PUSH0 KECCAK256 PUSH0 PUSH2 0x100 EXP DUP2 SLOAD DUP2 PUSH1 0xFF MUL NOT AND SWAP1 DUP4 ISZERO ISZERO MUL OR SWAP1 SSTORE POP PUSH1 0x1 DUP2 SWAP1 DUP1 PUSH1 0x1 DUP2 SLOAD ADD DUP1 DUP3 SSTORE DUP1 SWAP2 POP POP PUSH1 0x1 SWAP1 SUB SWAP1 PUSH0 MSTORE PUSH1 0x20 PUSH0 KECCAK256 ADD PUSH0 SWAP1 SWAP2 SWAP1 SWAP2 SWAP1 SWAP2 PUSH2 0x100 EXP DUP2 SLOAD DUP2 PUSH20 0xFFFFFFFFFFFFFFFFFFFFFFFFFFFFFFFFFFFFFFFF MUL NOT AND SWAP1 DUP4 PUSH20 0xFFFFFFFFFFFFFFFFFFFFFFFFFFFFFFFFFFFFFFFF AND MUL OR SWAP1 SSTORE POP POP JUMP JUMPDEST PUSH0 PUSH20 0xFFFFFFFFFFFFFFFFFFFFFFFFFFFFFFFFFFFFFFFF DUP3 AND SWAP1 POP SWAP2 SWAP1 POP JUMP JUMPDEST PUSH0 PUSH2 0x36B DUP3 PUSH2 0x342 JUMP JUMPDEST SWAP1 POP SWAP2 SWAP1 POP JUMP JUMPDEST PUSH2 0x37B DUP2 PUSH2 0x361 JUMP JUMPDEST DUP3 MSTORE POP POP JUMP JUMPDEST PUSH0 PUSH1 0x20 DUP3 ADD SWAP1 POP PUSH2 0x394 PUSH0 DUP4 ADD DUP5 PUSH2 0x372 JUMP JUMPDEST SWAP3 SWAP2 POP POP JUMP JUMPDEST PUSH0 PUSH0 REVERT JUMPDEST PUSH2 0x3A7 DUP2 PUSH2 0x361 JUMP JUMPDEST DUP2 EQ PUSH2 0x3B1 JUMPI PUSH0 PUSH0 REVERT JUMPDEST POP JUMP JUMPDEST PUSH0 DUP2 CALLDATALOAD SWAP1 POP PUSH2 0x3C2 DUP2 PUSH2 0x39E JUMP JUMPDEST SWAP3 SWAP2 POP POP JUMP JUMPDEST PUSH0 PUSH1 0x20 DUP3 DUP5 SUB SLT ISZERO PUSH2 0x3DD JUMPI PUSH2 0x3DC PUSH2 0x39A JUMP JUMPDEST JUMPDEST PUSH0 PUSH2 0x3EA DUP5 DUP3 DUP6 ADD PUSH2 0x3B4 JUMP JUMPDEST SWAP2 POP POP SWAP3 SWAP2 POP POP JUMP JUMPDEST PUSH0 DUP3 DUP3 MSTORE PUSH1 0x20 DUP3 ADD SWAP1 POP SWAP3 SWAP2 POP POP JUMP JUMPDEST PUSH32 0x4F6E6C792062616E6B206D616E616765722063616E20706572666F726D207468 PUSH0 DUP3 ADD MSTORE PUSH32 0x697320616E74696F6E0000000000000000000000000000000000000000000000 PUSH1 0x20 DUP3 ADD MSTORE POP JUMP JUMPDEST PUSH0 PUSH2 0x45D PUSH1 0x29 DUP4 PUSH2 0x3F3 JUMP JUMPDEST SWAP2 POP PUSH2 0x468 DUP3 PUSH2 0x403 JUMP JUMPDEST PUSH1 0x40 DUP3 ADD SWAP1 POP SWAP2 SWAP1 POP JUMP JUMPDEST PUSH0 PUSH1 0x20 DUP3 ADD SWAP1 POP DUP2 DUP2 SUB PUSH0 DUP4 ADD MSTORE PUSH2 0x48A DUP2 PUSH2 0x451 JUMP JUMPDEST SWAP1 POP SWAP2 SWAP1 POP JUMP JUMPDEST PUSH32 0x496E76616C696420616464726573730000000000000000000000000000000000 PUSH0 DUP3 ADD MSTORE POP JUMP JUMPDEST PUSH0 PUSH2 0x4C5 PUSH1 0xF DUP4 PUSH2 0x3F3 JUMP JUMPDEST SWAP2 POP PUSH2 0x4D0 DUP3 PUSH2 0x491 JUMP JUMPDEST PUSH1 0x20 DUP3 ADD SWAP1 POP SWAP2 SWAP1 POP JUMP JUMPDEST PUSH0 PUSH1 0x20 DUP3 ADD SWAP1 POP DUP2 DUP2 SUB PUSH0 DUP4 ADD MSTORE PUSH2 0x4F2 DUP2 PUSH2 0x4B9 JUMP JUMPDEST SWAP1 POP SWAP2 SWAP1 POP JUMP JUMPDEST PUSH32 0x4E616E6B204D616E6167657220697320616C72656164792061206D656D626572 PUSH0 DUP3 ADD MSTORE POP JUMP JUMPDEST PUSH0 PUSH2 0x52D PUSH1 0x20 DUP4 PUSH2 0x3F3 JUMP JUMPDEST SWAP2 POP PUSH2 0x538 DUP3 PUSH2 0x4F9 JUMP JUMPDEST PUSH1 0x20 DUP3 ADD SWAP1 POP SWAP2 SWAP1 POP JUMP JUMPDEST PUSH0 PUSH1 0x20 DUP3 ADD SWAP1 POP DUP2 DUP2 SUB PUSH0 DUP4 ADD MSTORE PUSH2 0x55A DUP2 PUSH2 0x521 JUMP JUMPDEST SWAP1 POP SWAP2 SWAP1 POP JUMP JUMPDEST PUSH32 0x4D656D62657220616C7265616479207265676973746572656400000000000000 PUSH0 DUP3 ADD MSTORE POP JUMP JUMPDEST PUSH0 PUSH2 0x595 PUSH1 0x19 DUP4 PUSH2 0x3F3 JUMP JUMPDEST SWAP2 POP PUSH2 0x5A0 DUP3 PUSH2 0x561 JUMP JUMPDEST PUSH1 0x20 DUP3 ADD SWAP1 POP SWAP2 SWAP1 POP JUMP JUMPDEST PUSH0 PUSH1 0x20 DUP3 ADD SWAP1 POP DUP2 DUP2 SUB PUSH0 DUP4 ADD MSTORE PUSH2 0x5C2 DUP2 PUSH2 0x589 JUMP JUMPDEST SWAP1 POP SWAP2 SWAP1 POP JUMP INVALID LOG2 PUSH5 0x6970667358 0x22 SLT KECCAK256 PUSH10 0x3A7C8E5071DD664EAB86 0xD9 0x2E PUSH6 0xB7ABA0AA8140 0xED 0x26 DUP6 LOG1 CALLDATACOPY PUSH11 0xBEA4CBDBDF8D64736F6C63 NUMBER STOP ADDMOD 0x1F STOP CALLER "
				},
				"gasEstimates": {
					"creation": {
						"codeDepositCost": "307000",
						"executionCost": "75315",
						"totalCost": "382315"
					},
					"external": {
						"addMembers(address)": "77858",
						"bankmanager()": "2485"
					}
				},
				"methodIdentifiers": {
					"addMembers(address)": "939f284c",
					"bankmanager()": "1533323b"
				}
			},
			"storageLayout": {
				"storage": [
					{
						"astId": 3,
						"contract": "day6-EtherPiggyBank/EtherPiggyBank.sol:EtherPiggyBank",
						"label": "bankmanager",
						"offset": 0,
						"slot": "0",
						"type": "t_address"
					},
					{
						"astId": 6,
						"contract": "day6-EtherPiggyBank/EtherPiggyBank.sol:EtherPiggyBank",
						"label": "members",
						"offset": 0,
						"slot": "1",
						"type": "t_array(t_address)dyn_storage"
					},
					{
						"astId": 10,
						"contract": "day6-EtherPiggyBank/EtherPiggyBank.sol:EtherPiggyBank",
						"label": "registeredMembers",
						"offset": 0,
						"slot": "2",
						"type": "t_mapping(t_address,t_bool)"
					},
					{
						"astId": 14,
						"contract": "day6-EtherPiggyBank/EtherPiggyBank.sol:EtherPiggyBank",
						"label": "balance",
						"offset": 0,
						"slot": "3",
						"type": "t_mapping(t_address,t_uint256)"
					}
				],
				"types": {
					"t_address": {
						"encoding": "inplace",
						"label": "address",
						"numberOfBytes": "20"
					},
					"t_array(t_address)dyn_storage": {
						"base": "t_address",
						"encoding": "dynamic_array",
						"label": "address[]",
						"numberOfBytes": "32"
					},
					"t_bool": {
						"encoding": "inplace",
						"label": "bool",
						"numberOfBytes": "1"
					},
					"t_mapping(t_address,t_bool)": {
						"encoding": "mapping",
						"key": "t_address",
						"label": "mapping(address => bool)",
						"numberOfBytes": "32",
						"value": "t_bool"
					},
					"t_mapping(t_address,t_uint256)": {
						"encoding": "mapping",
						"key": "t_address",
						"label": "mapping(address => uint256)",
						"numberOfBytes": "32",
						"value": "t_uint256"
					},
					"t_uint256": {
						"encoding": "inplace",
						"label": "uint256",
						"numberOfBytes": "32"
					}
				}
			},
			"userdoc": {
				"kind": "user",
				"methods": {},
				"version": 1
			}
		}
	}
}