{
	"day9-CalculatorAndScientificCalculator/day9-scientificcalculator.sol": {
		"ScientificCalculator": {
			"abi": [
				{
					"inputs": [
						{
							"internalType": "uint256",
							"name": "base",
							"type": "uint256"
						},
						{
							"internalType": "uint256",
							"name": "exponent",
							"type": "uint256"
						}
					],
					"name": "power",
					"outputs": [
						{
							"internalType": "uint256",
							"name": "",
							"type": "uint256"
						}
					],
					"stateMutability": "pure",
					"type": "function"
				},
				{
					"inputs": [
						{
							"internalType": "uint256",
							"name": "number",
							"type": "uint256"
						}
					],
					"name": "squareRoot",
					"outputs": [
						{
							"internalType": "uint256",
							"name": "",
							"type": "uint256"
						}
					],
					"stateMutability": "pure",
					"type": "function"
				}
			],
			"devdoc": {
				"kind": "dev",
				"methods": {},
				"version": 1
			},
			"evm": {
				"assembly": "    /* \"day9-CalculatorAndScientificCalculator/day9-scientificcalculator.sol\":60:676  contract ScientificCalculator {... */\n  mstore(0x40, 0x80)\n  callvalue\n  dup1\n  iszero\n  tag_1\n  jumpi\n  revert(0x00, 0x00)\ntag_1:\n  pop\n  dataSize(sub_0)\n  dup1\n  dataOffset(sub_0)\n  0x00\n  codecopy\n  0x00\n  return\nstop\n\nsub_0: assembly {\n        /* \"day9-CalculatorAndScientificCalculator/day9-scientificcalculator.sol\":60:676  contract ScientificCalculator {... */\n      mstore(0x40, 0x80)\n      callvalue\n      dup1\n      iszero\n      tag_1\n      jumpi\n      revert(0x00, 0x00)\n    tag_1:\n      pop\n      jumpi(tag_2, lt(calldatasize, 0x04))\n      shr(0xe0, calldataload(0x00))\n      dup1\n      0x7b019f89\n      eq\n      tag_3\n      jumpi\n      dup1\n      0xc04f01fc\n      eq\n      tag_4\n      jumpi\n    tag_2:\n      revert(0x00, 0x00)\n        /* \"day9-CalculatorAndScientificCalculator/day9-scientificcalculator.sol\":308:673  function squareRoot(uint256 number) public pure returns(uint256) {... */\n    tag_3:\n      tag_5\n      0x04\n      dup1\n      calldatasize\n      sub\n      dup2\n      add\n      swap1\n      tag_6\n      swap2\n      swap1\n      tag_7\n      jump\t// in\n    tag_6:\n      tag_8\n      jump\t// in\n    tag_5:\n      mload(0x40)\n      tag_9\n      swap2\n      swap1\n      tag_10\n      jump\t// in\n    tag_9:\n      mload(0x40)\n      dup1\n      swap2\n      sub\n      swap1\n      return\n        /* \"day9-CalculatorAndScientificCalculator/day9-scientificcalculator.sol\":137:300  function power(uint256 base, uint256 exponent) public pure returns(uint256) {... */\n    tag_4:\n      tag_11\n      0x04\n      dup1\n      calldatasize\n      sub\n      dup2\n      add\n      swap1\n      tag_12\n      swap2\n      swap1\n      tag_13\n      jump\t// in\n    tag_12:\n      tag_14\n      jump\t// in\n    tag_11:\n      mload(0x40)\n      tag_15\n      swap2\n      swap1\n      tag_10\n      jump\t// in\n    tag_15:\n      mload(0x40)\n      dup1\n      swap2\n      sub\n      swap1\n      return\n        /* \"day9-CalculatorAndScientificCalculator/day9-scientificcalculator.sol\":308:673  function squareRoot(uint256 number) public pure returns(uint256) {... */\n    tag_8:\n        /* \"day9-CalculatorAndScientificCalculator/day9-scientificcalculator.sol\":364:371  uint256 */\n      0x00\n        /* \"day9-CalculatorAndScientificCalculator/day9-scientificcalculator.sol\":402:403  0 */\n      0x00\n        /* \"day9-CalculatorAndScientificCalculator/day9-scientificcalculator.sol\":392:398  number */\n      dup3\n        /* \"day9-CalculatorAndScientificCalculator/day9-scientificcalculator.sol\":392:403  number >= 0 */\n      lt\n      iszero\n        /* \"day9-CalculatorAndScientificCalculator/day9-scientificcalculator.sol\":384:456  require(number >= 0, \"Cannot calculate square root of negative number.\") */\n      tag_17\n      jumpi\n      mload(0x40)\n      0x08c379a000000000000000000000000000000000000000000000000000000000\n      dup2\n      mstore\n      0x04\n      add\n      tag_18\n      swap1\n      tag_19\n      jump\t// in\n    tag_18:\n      mload(0x40)\n      dup1\n      swap2\n      sub\n      swap1\n      revert\n    tag_17:\n        /* \"day9-CalculatorAndScientificCalculator/day9-scientificcalculator.sol\":481:482  0 */\n      0x00\n        /* \"day9-CalculatorAndScientificCalculator/day9-scientificcalculator.sol\":471:477  number */\n      dup3\n        /* \"day9-CalculatorAndScientificCalculator/day9-scientificcalculator.sol\":471:482  number == 0 */\n      sub\n        /* \"day9-CalculatorAndScientificCalculator/day9-scientificcalculator.sol\":467:492  if (number == 0) return 0 */\n      tag_20\n      jumpi\n        /* \"day9-CalculatorAndScientificCalculator/day9-scientificcalculator.sol\":491:492  0 */\n      0x00\n        /* \"day9-CalculatorAndScientificCalculator/day9-scientificcalculator.sol\":484:492  return 0 */\n      swap1\n      pop\n      jump(tag_16)\n        /* \"day9-CalculatorAndScientificCalculator/day9-scientificcalculator.sol\":467:492  if (number == 0) return 0 */\n    tag_20:\n        /* \"day9-CalculatorAndScientificCalculator/day9-scientificcalculator.sol\":505:519  uint256 result */\n      0x00\n        /* \"day9-CalculatorAndScientificCalculator/day9-scientificcalculator.sol\":531:532  2 */\n      0x02\n        /* \"day9-CalculatorAndScientificCalculator/day9-scientificcalculator.sol\":522:528  number */\n      dup4\n        /* \"day9-CalculatorAndScientificCalculator/day9-scientificcalculator.sol\":522:532  number / 2 */\n      tag_21\n      swap2\n      swap1\n      tag_22\n      jump\t// in\n    tag_21:\n        /* \"day9-CalculatorAndScientificCalculator/day9-scientificcalculator.sol\":505:532  uint256 result = number / 2 */\n      swap1\n      pop\n        /* \"day9-CalculatorAndScientificCalculator/day9-scientificcalculator.sol\":548:557  uint256 i */\n      0x00\n        /* \"day9-CalculatorAndScientificCalculator/day9-scientificcalculator.sol\":560:561  0 */\n      0x00\n        /* \"day9-CalculatorAndScientificCalculator/day9-scientificcalculator.sol\":548:561  uint256 i = 0 */\n      swap1\n      pop\n        /* \"day9-CalculatorAndScientificCalculator/day9-scientificcalculator.sol\":543:642  for (uint256 i = 0; i < 10; i++) {... */\n    tag_23:\n        /* \"day9-CalculatorAndScientificCalculator/day9-scientificcalculator.sol\":567:569  10 */\n      0x0a\n        /* \"day9-CalculatorAndScientificCalculator/day9-scientificcalculator.sol\":563:564  i */\n      dup2\n        /* \"day9-CalculatorAndScientificCalculator/day9-scientificcalculator.sol\":563:569  i < 10 */\n      lt\n        /* \"day9-CalculatorAndScientificCalculator/day9-scientificcalculator.sol\":543:642  for (uint256 i = 0; i < 10; i++) {... */\n      iszero\n      tag_24\n      jumpi\n        /* \"day9-CalculatorAndScientificCalculator/day9-scientificcalculator.sol\":629:630  2 */\n      0x02\n        /* \"day9-CalculatorAndScientificCalculator/day9-scientificcalculator.sol\":619:625  result */\n      dup3\n        /* \"day9-CalculatorAndScientificCalculator/day9-scientificcalculator.sol\":610:616  number */\n      dup6\n        /* \"day9-CalculatorAndScientificCalculator/day9-scientificcalculator.sol\":610:625  number / result */\n      tag_26\n      swap2\n      swap1\n      tag_22\n      jump\t// in\n    tag_26:\n        /* \"day9-CalculatorAndScientificCalculator/day9-scientificcalculator.sol\":601:607  result */\n      dup4\n        /* \"day9-CalculatorAndScientificCalculator/day9-scientificcalculator.sol\":601:625  result + number / result */\n      tag_27\n      swap2\n      swap1\n      tag_28\n      jump\t// in\n    tag_27:\n        /* \"day9-CalculatorAndScientificCalculator/day9-scientificcalculator.sol\":600:630  (result + number / result) / 2 */\n      tag_29\n      swap2\n      swap1\n      tag_22\n      jump\t// in\n    tag_29:\n        /* \"day9-CalculatorAndScientificCalculator/day9-scientificcalculator.sol\":591:630  result = (result + number / result) / 2 */\n      swap2\n      pop\n        /* \"day9-CalculatorAndScientificCalculator/day9-scientificcalculator.sol\":571:574  i++ */\n      dup1\n      dup1\n      0x01\n      add\n      swap2\n      pop\n      pop\n        /* \"day9-CalculatorAndScientificCalculator/day9-scientificcalculator.sol\":543:642  for (uint256 i = 0; i < 10; i++) {... */\n      jump(tag_23)\n    tag_24:\n      pop\n        /* \"day9-CalculatorAndScientificCalculator/day9-scientificcalculator.sol\":659:665  result */\n      dup1\n        /* \"day9-CalculatorAndScientificCalculator/day9-scientificcalculator.sol\":652:665  return result */\n      swap2\n      pop\n      pop\n        /* \"day9-CalculatorAndScientificCalculator/day9-scientificcalculator.sol\":308:673  function squareRoot(uint256 number) public pure returns(uint256) {... */\n    tag_16:\n      swap2\n      swap1\n      pop\n      jump\t// out\n        /* \"day9-CalculatorAndScientificCalculator/day9-scientificcalculator.sol\":137:300  function power(uint256 base, uint256 exponent) public pure returns(uint256) {... */\n    tag_14:\n        /* \"day9-CalculatorAndScientificCalculator/day9-scientificcalculator.sol\":204:211  uint256 */\n      0x00\n        /* \"day9-CalculatorAndScientificCalculator/day9-scientificcalculator.sol\":240:241  0 */\n      0x00\n        /* \"day9-CalculatorAndScientificCalculator/day9-scientificcalculator.sol\":228:236  exponent */\n      dup3\n        /* \"day9-CalculatorAndScientificCalculator/day9-scientificcalculator.sol\":228:241  exponent == 0 */\n      sub\n        /* \"day9-CalculatorAndScientificCalculator/day9-scientificcalculator.sol\":224:292  if (exponent == 0) return 1;... */\n      tag_31\n      jumpi\n        /* \"day9-CalculatorAndScientificCalculator/day9-scientificcalculator.sol\":250:251  1 */\n      0x01\n        /* \"day9-CalculatorAndScientificCalculator/day9-scientificcalculator.sol\":243:251  return 1 */\n      swap1\n      pop\n      jump(tag_30)\n        /* \"day9-CalculatorAndScientificCalculator/day9-scientificcalculator.sol\":224:292  if (exponent == 0) return 1;... */\n    tag_31:\n        /* \"day9-CalculatorAndScientificCalculator/day9-scientificcalculator.sol\":283:291  exponent */\n      dup2\n        /* \"day9-CalculatorAndScientificCalculator/day9-scientificcalculator.sol\":275:279  base */\n      dup4\n        /* \"day9-CalculatorAndScientificCalculator/day9-scientificcalculator.sol\":275:291  base ** exponent */\n      tag_33\n      swap2\n      swap1\n      tag_34\n      jump\t// in\n    tag_33:\n        /* \"day9-CalculatorAndScientificCalculator/day9-scientificcalculator.sol\":267:292  return (base ** exponent) */\n      swap1\n      pop\n        /* \"day9-CalculatorAndScientificCalculator/day9-scientificcalculator.sol\":137:300  function power(uint256 base, uint256 exponent) public pure returns(uint256) {... */\n    tag_30:\n      swap3\n      swap2\n      pop\n      pop\n      jump\t// out\n        /* \"#utility.yul\":88:205   */\n    tag_36:\n        /* \"#utility.yul\":197:198   */\n      0x00\n        /* \"#utility.yul\":194:195   */\n      0x00\n        /* \"#utility.yul\":187:199   */\n      revert\n        /* \"#utility.yul\":334:411   */\n    tag_38:\n        /* \"#utility.yul\":371:378   */\n      0x00\n        /* \"#utility.yul\":400:405   */\n      dup2\n        /* \"#utility.yul\":389:405   */\n      swap1\n      pop\n        /* \"#utility.yul\":334:411   */\n      swap2\n      swap1\n      pop\n      jump\t// out\n        /* \"#utility.yul\":417:539   */\n    tag_39:\n        /* \"#utility.yul\":490:514   */\n      tag_56\n        /* \"#utility.yul\":508:513   */\n      dup2\n        /* \"#utility.yul\":490:514   */\n      tag_38\n      jump\t// in\n    tag_56:\n        /* \"#utility.yul\":483:488   */\n      dup2\n        /* \"#utility.yul\":480:515   */\n      eq\n        /* \"#utility.yul\":470:533   */\n      tag_57\n      jumpi\n        /* \"#utility.yul\":529:530   */\n      0x00\n        /* \"#utility.yul\":526:527   */\n      0x00\n        /* \"#utility.yul\":519:531   */\n      revert\n        /* \"#utility.yul\":470:533   */\n    tag_57:\n        /* \"#utility.yul\":417:539   */\n      pop\n      jump\t// out\n        /* \"#utility.yul\":545:684   */\n    tag_40:\n        /* \"#utility.yul\":591:596   */\n      0x00\n        /* \"#utility.yul\":629:635   */\n      dup2\n        /* \"#utility.yul\":616:636   */\n      calldataload\n        /* \"#utility.yul\":607:636   */\n      swap1\n      pop\n        /* \"#utility.yul\":645:678   */\n      tag_59\n        /* \"#utility.yul\":672:677   */\n      dup2\n        /* \"#utility.yul\":645:678   */\n      tag_39\n      jump\t// in\n    tag_59:\n        /* \"#utility.yul\":545:684   */\n      swap3\n      swap2\n      pop\n      pop\n      jump\t// out\n        /* \"#utility.yul\":690:1019   */\n    tag_7:\n        /* \"#utility.yul\":749:755   */\n      0x00\n        /* \"#utility.yul\":798:800   */\n      0x20\n        /* \"#utility.yul\":786:795   */\n      dup3\n        /* \"#utility.yul\":777:784   */\n      dup5\n        /* \"#utility.yul\":773:796   */\n      sub\n        /* \"#utility.yul\":769:801   */\n      slt\n        /* \"#utility.yul\":766:885   */\n      iszero\n      tag_61\n      jumpi\n        /* \"#utility.yul\":804:883   */\n      tag_62\n      tag_36\n      jump\t// in\n    tag_62:\n        /* \"#utility.yul\":766:885   */\n    tag_61:\n        /* \"#utility.yul\":924:925   */\n      0x00\n        /* \"#utility.yul\":949:1002   */\n      tag_63\n        /* \"#utility.yul\":994:1001   */\n      dup5\n        /* \"#utility.yul\":985:991   */\n      dup3\n        /* \"#utility.yul\":974:983   */\n      dup6\n        /* \"#utility.yul\":970:992   */\n      add\n        /* \"#utility.yul\":949:1002   */\n      tag_40\n      jump\t// in\n    tag_63:\n        /* \"#utility.yul\":939:1002   */\n      swap2\n      pop\n        /* \"#utility.yul\":895:1012   */\n      pop\n        /* \"#utility.yul\":690:1019   */\n      swap3\n      swap2\n      pop\n      pop\n      jump\t// out\n        /* \"#utility.yul\":1025:1143   */\n    tag_41:\n        /* \"#utility.yul\":1112:1136   */\n      tag_65\n        /* \"#utility.yul\":1130:1135   */\n      dup2\n        /* \"#utility.yul\":1112:1136   */\n      tag_38\n      jump\t// in\n    tag_65:\n        /* \"#utility.yul\":1107:1110   */\n      dup3\n        /* \"#utility.yul\":1100:1137   */\n      mstore\n        /* \"#utility.yul\":1025:1143   */\n      pop\n      pop\n      jump\t// out\n        /* \"#utility.yul\":1149:1371   */\n    tag_10:\n        /* \"#utility.yul\":1242:1246   */\n      0x00\n        /* \"#utility.yul\":1280:1282   */\n      0x20\n        /* \"#utility.yul\":1269:1278   */\n      dup3\n        /* \"#utility.yul\":1265:1283   */\n      add\n        /* \"#utility.yul\":1257:1283   */\n      swap1\n      pop\n        /* \"#utility.yul\":1293:1364   */\n      tag_67\n        /* \"#utility.yul\":1361:1362   */\n      0x00\n        /* \"#utility.yul\":1350:1359   */\n      dup4\n        /* \"#utility.yul\":1346:1363   */\n      add\n        /* \"#utility.yul\":1337:1343   */\n      dup5\n        /* \"#utility.yul\":1293:1364   */\n      tag_41\n      jump\t// in\n    tag_67:\n        /* \"#utility.yul\":1149:1371   */\n      swap3\n      swap2\n      pop\n      pop\n      jump\t// out\n        /* \"#utility.yul\":1377:1851   */\n    tag_13:\n        /* \"#utility.yul\":1445:1451   */\n      0x00\n        /* \"#utility.yul\":1453:1459   */\n      0x00\n        /* \"#utility.yul\":1502:1504   */\n      0x40\n        /* \"#utility.yul\":1490:1499   */\n      dup4\n        /* \"#utility.yul\":1481:1488   */\n      dup6\n        /* \"#utility.yul\":1477:1500   */\n      sub\n        /* \"#utility.yul\":1473:1505   */\n      slt\n        /* \"#utility.yul\":1470:1589   */\n      iszero\n      tag_69\n      jumpi\n        /* \"#utility.yul\":1508:1587   */\n      tag_70\n      tag_36\n      jump\t// in\n    tag_70:\n        /* \"#utility.yul\":1470:1589   */\n    tag_69:\n        /* \"#utility.yul\":1628:1629   */\n      0x00\n        /* \"#utility.yul\":1653:1706   */\n      tag_71\n        /* \"#utility.yul\":1698:1705   */\n      dup6\n        /* \"#utility.yul\":1689:1695   */\n      dup3\n        /* \"#utility.yul\":1678:1687   */\n      dup7\n        /* \"#utility.yul\":1674:1696   */\n      add\n        /* \"#utility.yul\":1653:1706   */\n      tag_40\n      jump\t// in\n    tag_71:\n        /* \"#utility.yul\":1643:1706   */\n      swap3\n      pop\n        /* \"#utility.yul\":1599:1716   */\n      pop\n        /* \"#utility.yul\":1755:1757   */\n      0x20\n        /* \"#utility.yul\":1781:1834   */\n      tag_72\n        /* \"#utility.yul\":1826:1833   */\n      dup6\n        /* \"#utility.yul\":1817:1823   */\n      dup3\n        /* \"#utility.yul\":1806:1815   */\n      dup7\n        /* \"#utility.yul\":1802:1824   */\n      add\n        /* \"#utility.yul\":1781:1834   */\n      tag_40\n      jump\t// in\n    tag_72:\n        /* \"#utility.yul\":1771:1834   */\n      swap2\n      pop\n        /* \"#utility.yul\":1726:1844   */\n      pop\n        /* \"#utility.yul\":1377:1851   */\n      swap3\n      pop\n      swap3\n      swap1\n      pop\n      jump\t// out\n        /* \"#utility.yul\":1857:2026   */\n    tag_42:\n        /* \"#utility.yul\":1941:1952   */\n      0x00\n        /* \"#utility.yul\":1975:1981   */\n      dup3\n        /* \"#utility.yul\":1970:1973   */\n      dup3\n        /* \"#utility.yul\":1963:1982   */\n      mstore\n        /* \"#utility.yul\":2015:2019   */\n      0x20\n        /* \"#utility.yul\":2010:2013   */\n      dup3\n        /* \"#utility.yul\":2006:2020   */\n      add\n        /* \"#utility.yul\":1991:2020   */\n      swap1\n      pop\n        /* \"#utility.yul\":1857:2026   */\n      swap3\n      swap2\n      pop\n      pop\n      jump\t// out\n        /* \"#utility.yul\":2032:2267   */\n    tag_43:\n        /* \"#utility.yul\":2172:2206   */\n      0x43616e6e6f742063616c63756c6174652073717561726520726f6f74206f6620\n        /* \"#utility.yul\":2168:2169   */\n      0x00\n        /* \"#utility.yul\":2160:2166   */\n      dup3\n        /* \"#utility.yul\":2156:2170   */\n      add\n        /* \"#utility.yul\":2149:2207   */\n      mstore\n        /* \"#utility.yul\":2241:2259   */\n      0x6e65676174697665206e756d6265722e00000000000000000000000000000000\n        /* \"#utility.yul\":2236:2238   */\n      0x20\n        /* \"#utility.yul\":2228:2234   */\n      dup3\n        /* \"#utility.yul\":2224:2239   */\n      add\n        /* \"#utility.yul\":2217:2260   */\n      mstore\n        /* \"#utility.yul\":2032:2267   */\n      pop\n      jump\t// out\n        /* \"#utility.yul\":2273:2639   */\n    tag_44:\n        /* \"#utility.yul\":2415:2418   */\n      0x00\n        /* \"#utility.yul\":2436:2503   */\n      tag_76\n        /* \"#utility.yul\":2500:2502   */\n      0x30\n        /* \"#utility.yul\":2495:2498   */\n      dup4\n        /* \"#utility.yul\":2436:2503   */\n      tag_42\n      jump\t// in\n    tag_76:\n        /* \"#utility.yul\":2429:2503   */\n      swap2\n      pop\n        /* \"#utility.yul\":2512:2605   */\n      tag_77\n        /* \"#utility.yul\":2601:2604   */\n      dup3\n        /* \"#utility.yul\":2512:2605   */\n      tag_43\n      jump\t// in\n    tag_77:\n        /* \"#utility.yul\":2630:2632   */\n      0x40\n        /* \"#utility.yul\":2625:2628   */\n      dup3\n        /* \"#utility.yul\":2621:2633   */\n      add\n        /* \"#utility.yul\":2614:2633   */\n      swap1\n      pop\n        /* \"#utility.yul\":2273:2639   */\n      swap2\n      swap1\n      pop\n      jump\t// out\n        /* \"#utility.yul\":2645:3064   */\n    tag_19:\n        /* \"#utility.yul\":2811:2815   */\n      0x00\n        /* \"#utility.yul\":2849:2851   */\n      0x20\n        /* \"#utility.yul\":2838:2847   */\n      dup3\n        /* \"#utility.yul\":2834:2852   */\n      add\n        /* \"#utility.yul\":2826:2852   */\n      swap1\n      pop\n        /* \"#utility.yul\":2898:2907   */\n      dup2\n        /* \"#utility.yul\":2892:2896   */\n      dup2\n        /* \"#utility.yul\":2888:2908   */\n      sub\n        /* \"#utility.yul\":2884:2885   */\n      0x00\n        /* \"#utility.yul\":2873:2882   */\n      dup4\n        /* \"#utility.yul\":2869:2886   */\n      add\n        /* \"#utility.yul\":2862:2909   */\n      mstore\n        /* \"#utility.yul\":2926:3057   */\n      tag_79\n        /* \"#utility.yul\":3052:3056   */\n      dup2\n        /* \"#utility.yul\":2926:3057   */\n      tag_44\n      jump\t// in\n    tag_79:\n        /* \"#utility.yul\":2918:3057   */\n      swap1\n      pop\n        /* \"#utility.yul\":2645:3064   */\n      swap2\n      swap1\n      pop\n      jump\t// out\n        /* \"#utility.yul\":3070:3250   */\n    tag_45:\n        /* \"#utility.yul\":3118:3195   */\n      0x4e487b7100000000000000000000000000000000000000000000000000000000\n        /* \"#utility.yul\":3115:3116   */\n      0x00\n        /* \"#utility.yul\":3108:3196   */\n      mstore\n        /* \"#utility.yul\":3215:3219   */\n      0x12\n        /* \"#utility.yul\":3212:3213   */\n      0x04\n        /* \"#utility.yul\":3205:3220   */\n      mstore\n        /* \"#utility.yul\":3239:3243   */\n      0x24\n        /* \"#utility.yul\":3236:3237   */\n      0x00\n        /* \"#utility.yul\":3229:3244   */\n      revert\n        /* \"#utility.yul\":3256:3436   */\n    tag_46:\n        /* \"#utility.yul\":3304:3381   */\n      0x4e487b7100000000000000000000000000000000000000000000000000000000\n        /* \"#utility.yul\":3301:3302   */\n      0x00\n        /* \"#utility.yul\":3294:3382   */\n      mstore\n        /* \"#utility.yul\":3401:3405   */\n      0x11\n        /* \"#utility.yul\":3398:3399   */\n      0x04\n        /* \"#utility.yul\":3391:3406   */\n      mstore\n        /* \"#utility.yul\":3425:3429   */\n      0x24\n        /* \"#utility.yul\":3422:3423   */\n      0x00\n        /* \"#utility.yul\":3415:3430   */\n      revert\n        /* \"#utility.yul\":3442:3627   */\n    tag_22:\n        /* \"#utility.yul\":3482:3483   */\n      0x00\n        /* \"#utility.yul\":3499:3519   */\n      tag_83\n        /* \"#utility.yul\":3517:3518   */\n      dup3\n        /* \"#utility.yul\":3499:3519   */\n      tag_38\n      jump\t// in\n    tag_83:\n        /* \"#utility.yul\":3494:3519   */\n      swap2\n      pop\n        /* \"#utility.yul\":3533:3553   */\n      tag_84\n        /* \"#utility.yul\":3551:3552   */\n      dup4\n        /* \"#utility.yul\":3533:3553   */\n      tag_38\n      jump\t// in\n    tag_84:\n        /* \"#utility.yul\":3528:3553   */\n      swap3\n      pop\n        /* \"#utility.yul\":3572:3573   */\n      dup3\n        /* \"#utility.yul\":3562:3597   */\n      tag_85\n      jumpi\n        /* \"#utility.yul\":3577:3595   */\n      tag_86\n      tag_45\n      jump\t// in\n    tag_86:\n        /* \"#utility.yul\":3562:3597   */\n    tag_85:\n        /* \"#utility.yul\":3619:3620   */\n      dup3\n        /* \"#utility.yul\":3616:3617   */\n      dup3\n        /* \"#utility.yul\":3612:3621   */\n      div\n        /* \"#utility.yul\":3607:3621   */\n      swap1\n      pop\n        /* \"#utility.yul\":3442:3627   */\n      swap3\n      swap2\n      pop\n      pop\n      jump\t// out\n        /* \"#utility.yul\":3633:3824   */\n    tag_28:\n        /* \"#utility.yul\":3673:3676   */\n      0x00\n        /* \"#utility.yul\":3692:3712   */\n      tag_88\n        /* \"#utility.yul\":3710:3711   */\n      dup3\n        /* \"#utility.yul\":3692:3712   */\n      tag_38\n      jump\t// in\n    tag_88:\n        /* \"#utility.yul\":3687:3712   */\n      swap2\n      pop\n        /* \"#utility.yul\":3726:3746   */\n      tag_89\n        /* \"#utility.yul\":3744:3745   */\n      dup4\n        /* \"#utility.yul\":3726:3746   */\n      tag_38\n      jump\t// in\n    tag_89:\n        /* \"#utility.yul\":3721:3746   */\n      swap3\n      pop\n        /* \"#utility.yul\":3769:3770   */\n      dup3\n        /* \"#utility.yul\":3766:3767   */\n      dup3\n        /* \"#utility.yul\":3762:3771   */\n      add\n        /* \"#utility.yul\":3755:3771   */\n      swap1\n      pop\n        /* \"#utility.yul\":3790:3793   */\n      dup1\n        /* \"#utility.yul\":3787:3788   */\n      dup3\n        /* \"#utility.yul\":3784:3794   */\n      gt\n        /* \"#utility.yul\":3781:3817   */\n      iszero\n      tag_90\n      jumpi\n        /* \"#utility.yul\":3797:3815   */\n      tag_91\n      tag_46\n      jump\t// in\n    tag_91:\n        /* \"#utility.yul\":3781:3817   */\n    tag_90:\n        /* \"#utility.yul\":3633:3824   */\n      swap3\n      swap2\n      pop\n      pop\n      jump\t// out\n        /* \"#utility.yul\":3830:3932   */\n    tag_47:\n        /* \"#utility.yul\":3872:3880   */\n      0x00\n        /* \"#utility.yul\":3919:3924   */\n      dup2\n        /* \"#utility.yul\":3916:3917   */\n      0x01\n        /* \"#utility.yul\":3912:3925   */\n      shr\n        /* \"#utility.yul\":3891:3925   */\n      swap1\n      pop\n        /* \"#utility.yul\":3830:3932   */\n      swap2\n      swap1\n      pop\n      jump\t// out\n        /* \"#utility.yul\":3938:4786   */\n    tag_48:\n        /* \"#utility.yul\":3999:4004   */\n      0x00\n        /* \"#utility.yul\":4006:4010   */\n      0x00\n        /* \"#utility.yul\":4030:4036   */\n      dup3\n        /* \"#utility.yul\":4021:4036   */\n      swap2\n      pop\n        /* \"#utility.yul\":4054:4059   */\n      dup4\n        /* \"#utility.yul\":4045:4059   */\n      swap1\n      pop\n        /* \"#utility.yul\":4068:4780   */\n    tag_94:\n        /* \"#utility.yul\":4089:4090   */\n      0x01\n        /* \"#utility.yul\":4079:4087   */\n      dup6\n        /* \"#utility.yul\":4076:4091   */\n      gt\n        /* \"#utility.yul\":4068:4780   */\n      iszero\n      tag_96\n      jumpi\n        /* \"#utility.yul\":4184:4188   */\n      dup1\n        /* \"#utility.yul\":4179:4182   */\n      dup7\n        /* \"#utility.yul\":4175:4189   */\n      div\n        /* \"#utility.yul\":4169:4173   */\n      dup2\n        /* \"#utility.yul\":4166:4190   */\n      gt\n        /* \"#utility.yul\":4163:4213   */\n      iszero\n      tag_97\n      jumpi\n        /* \"#utility.yul\":4193:4211   */\n      tag_98\n      tag_46\n      jump\t// in\n    tag_98:\n        /* \"#utility.yul\":4163:4213   */\n    tag_97:\n        /* \"#utility.yul\":4243:4244   */\n      0x01\n        /* \"#utility.yul\":4233:4241   */\n      dup6\n        /* \"#utility.yul\":4229:4245   */\n      and\n        /* \"#utility.yul\":4226:4677   */\n      iszero\n      tag_99\n      jumpi\n        /* \"#utility.yul\":4658:4662   */\n      dup1\n        /* \"#utility.yul\":4651:4656   */\n      dup3\n        /* \"#utility.yul\":4647:4663   */\n      mul\n        /* \"#utility.yul\":4638:4663   */\n      swap2\n      pop\n        /* \"#utility.yul\":4226:4677   */\n    tag_99:\n        /* \"#utility.yul\":4708:4712   */\n      dup1\n        /* \"#utility.yul\":4702:4706   */\n      dup2\n        /* \"#utility.yul\":4698:4713   */\n      mul\n        /* \"#utility.yul\":4690:4713   */\n      swap1\n      pop\n        /* \"#utility.yul\":4738:4770   */\n      tag_100\n        /* \"#utility.yul\":4761:4769   */\n      dup6\n        /* \"#utility.yul\":4738:4770   */\n      tag_47\n      jump\t// in\n    tag_100:\n        /* \"#utility.yul\":4726:4770   */\n      swap5\n      pop\n        /* \"#utility.yul\":4068:4780   */\n      jump(tag_94)\n    tag_96:\n        /* \"#utility.yul\":3938:4786   */\n      swap5\n      pop\n      swap5\n      swap3\n      pop\n      pop\n      pop\n      jump\t// out\n        /* \"#utility.yul\":4792:5865   */\n    tag_49:\n        /* \"#utility.yul\":4846:4851   */\n      0x00\n        /* \"#utility.yul\":5037:5045   */\n      dup3\n        /* \"#utility.yul\":5027:5067   */\n      tag_102\n      jumpi\n        /* \"#utility.yul\":5058:5059   */\n      0x01\n        /* \"#utility.yul\":5049:5059   */\n      swap1\n      pop\n        /* \"#utility.yul\":5060:5065   */\n      jump(tag_101)\n        /* \"#utility.yul\":5027:5067   */\n    tag_102:\n        /* \"#utility.yul\":5086:5090   */\n      dup2\n        /* \"#utility.yul\":5076:5112   */\n      tag_103\n      jumpi\n        /* \"#utility.yul\":5103:5104   */\n      0x00\n        /* \"#utility.yul\":5094:5104   */\n      swap1\n      pop\n        /* \"#utility.yul\":5105:5110   */\n      jump(tag_101)\n        /* \"#utility.yul\":5076:5112   */\n    tag_103:\n        /* \"#utility.yul\":5172:5176   */\n      dup2\n        /* \"#utility.yul\":5220:5221   */\n      0x01\n        /* \"#utility.yul\":5215:5242   */\n      dup2\n      eq\n      tag_105\n      jumpi\n        /* \"#utility.yul\":5256:5257   */\n      0x02\n        /* \"#utility.yul\":5251:5442   */\n      dup2\n      eq\n      tag_106\n      jumpi\n        /* \"#utility.yul\":5165:5442   */\n      jump(tag_104)\n        /* \"#utility.yul\":5215:5242   */\n    tag_105:\n        /* \"#utility.yul\":5233:5234   */\n      0x01\n        /* \"#utility.yul\":5224:5234   */\n      swap2\n      pop\n        /* \"#utility.yul\":5235:5240   */\n      pop\n      jump(tag_101)\n        /* \"#utility.yul\":5251:5442   */\n    tag_106:\n        /* \"#utility.yul\":5296:5299   */\n      0xff\n        /* \"#utility.yul\":5286:5294   */\n      dup5\n        /* \"#utility.yul\":5283:5300   */\n      gt\n        /* \"#utility.yul\":5280:5323   */\n      iszero\n      tag_107\n      jumpi\n        /* \"#utility.yul\":5303:5321   */\n      tag_108\n      tag_46\n      jump\t// in\n    tag_108:\n        /* \"#utility.yul\":5280:5323   */\n    tag_107:\n        /* \"#utility.yul\":5352:5360   */\n      dup4\n        /* \"#utility.yul\":5349:5350   */\n      0x02\n        /* \"#utility.yul\":5345:5361   */\n      exp\n        /* \"#utility.yul\":5336:5361   */\n      swap2\n      pop\n        /* \"#utility.yul\":5387:5390   */\n      dup5\n        /* \"#utility.yul\":5380:5385   */\n      dup3\n        /* \"#utility.yul\":5377:5391   */\n      gt\n        /* \"#utility.yul\":5374:5414   */\n      iszero\n      tag_109\n      jumpi\n        /* \"#utility.yul\":5394:5412   */\n      tag_110\n      tag_46\n      jump\t// in\n    tag_110:\n        /* \"#utility.yul\":5374:5414   */\n    tag_109:\n        /* \"#utility.yul\":5427:5432   */\n      pop\n      jump(tag_101)\n        /* \"#utility.yul\":5165:5442   */\n    tag_104:\n      pop\n        /* \"#utility.yul\":5551:5553   */\n      0x20\n        /* \"#utility.yul\":5541:5549   */\n      dup4\n        /* \"#utility.yul\":5538:5554   */\n      lt\n        /* \"#utility.yul\":5532:5535   */\n      0x0133\n        /* \"#utility.yul\":5526:5530   */\n      dup4\n        /* \"#utility.yul\":5523:5536   */\n      lt\n        /* \"#utility.yul\":5519:5555   */\n      and\n        /* \"#utility.yul\":5501:5503   */\n      0x4e\n        /* \"#utility.yul\":5491:5499   */\n      dup5\n        /* \"#utility.yul\":5488:5504   */\n      lt\n        /* \"#utility.yul\":5483:5485   */\n      0x0b\n        /* \"#utility.yul\":5477:5481   */\n      dup5\n        /* \"#utility.yul\":5474:5486   */\n      lt\n        /* \"#utility.yul\":5470:5505   */\n      and\n        /* \"#utility.yul\":5454:5565   */\n      or\n        /* \"#utility.yul\":5451:5697   */\n      iszero\n      tag_111\n      jumpi\n        /* \"#utility.yul\":5607:5615   */\n      dup3\n        /* \"#utility.yul\":5601:5605   */\n      dup3\n        /* \"#utility.yul\":5597:5616   */\n      exp\n        /* \"#utility.yul\":5588:5616   */\n      swap1\n      pop\n        /* \"#utility.yul\":5642:5645   */\n      dup4\n        /* \"#utility.yul\":5635:5640   */\n      dup2\n        /* \"#utility.yul\":5632:5646   */\n      gt\n        /* \"#utility.yul\":5629:5669   */\n      iszero\n      tag_112\n      jumpi\n        /* \"#utility.yul\":5649:5667   */\n      tag_113\n      tag_46\n      jump\t// in\n    tag_113:\n        /* \"#utility.yul\":5629:5669   */\n    tag_112:\n        /* \"#utility.yul\":5682:5687   */\n      jump(tag_101)\n        /* \"#utility.yul\":5451:5697   */\n    tag_111:\n        /* \"#utility.yul\":5722:5764   */\n      tag_114\n        /* \"#utility.yul\":5760:5763   */\n      dup5\n        /* \"#utility.yul\":5750:5758   */\n      dup5\n        /* \"#utility.yul\":5744:5748   */\n      dup5\n        /* \"#utility.yul\":5741:5742   */\n      0x01\n        /* \"#utility.yul\":5722:5764   */\n      tag_48\n      jump\t// in\n    tag_114:\n        /* \"#utility.yul\":5707:5764   */\n      swap3\n      pop\n      swap1\n      pop\n        /* \"#utility.yul\":5796:5800   */\n      dup2\n        /* \"#utility.yul\":5791:5794   */\n      dup5\n        /* \"#utility.yul\":5787:5801   */\n      div\n        /* \"#utility.yul\":5780:5785   */\n      dup2\n        /* \"#utility.yul\":5777:5802   */\n      gt\n        /* \"#utility.yul\":5774:5825   */\n      iszero\n      tag_115\n      jumpi\n        /* \"#utility.yul\":5805:5823   */\n      tag_116\n      tag_46\n      jump\t// in\n    tag_116:\n        /* \"#utility.yul\":5774:5825   */\n    tag_115:\n        /* \"#utility.yul\":5854:5858   */\n      dup2\n        /* \"#utility.yul\":5847:5852   */\n      dup2\n        /* \"#utility.yul\":5843:5859   */\n      mul\n        /* \"#utility.yul\":5834:5859   */\n      swap1\n      pop\n        /* \"#utility.yul\":4792:5865   */\n    tag_101:\n      swap4\n      swap3\n      pop\n      pop\n      pop\n      jump\t// out\n        /* \"#utility.yul\":5871:6156   */\n    tag_34:\n        /* \"#utility.yul\":5931:5936   */\n      0x00\n        /* \"#utility.yul\":5955:5978   */\n      tag_118\n        /* \"#utility.yul\":5973:5977   */\n      dup3\n        /* \"#utility.yul\":5955:5978   */\n      tag_38\n      jump\t// in\n    tag_118:\n        /* \"#utility.yul\":5947:5978   */\n      swap2\n      pop\n        /* \"#utility.yul\":5999:6026   */\n      tag_119\n        /* \"#utility.yul\":6017:6025   */\n      dup4\n        /* \"#utility.yul\":5999:6026   */\n      tag_38\n      jump\t// in\n    tag_119:\n        /* \"#utility.yul\":5987:6026   */\n      swap3\n      pop\n        /* \"#utility.yul\":6045:6149   */\n      tag_120\n        /* \"#utility.yul\":6082:6148   */\n      0xffffffffffffffffffffffffffffffffffffffffffffffffffffffffffffffff\n        /* \"#utility.yul\":6072:6080   */\n      dup5\n        /* \"#utility.yul\":6066:6070   */\n      dup5\n        /* \"#utility.yul\":6045:6149   */\n      tag_49\n      jump\t// in\n    tag_120:\n        /* \"#utility.yul\":6036:6149   */\n      swap1\n      pop\n        /* \"#utility.yul\":5871:6156   */\n      swap3\n      swap2\n      pop\n      pop\n      jump\t// out\n\n    auxdata: 0xa264697066735822122004195a2f4897d389d6b3852f07a41024acdfc6af7fd1e6fce805530fb2492df664736f6c634300081f0033\n}\n",
				"bytecode": {
					"linkReferences": {},
					"object": "6080604052348015600e575f5ffd5b5061053e8061001c5f395ff3fe608060405234801561000f575f5ffd5b5060043610610034575f3560e01c80637b019f8914610038578063c04f01fc14610068575b5f5ffd5b610052600480360381019061004d91906101a3565b610098565b60405161005f91906101dd565b60405180910390f35b610082600480360381019061007d91906101f6565b610146565b60405161008f91906101dd565b60405180910390f35b5f5f8210156100dc576040517f08c379a00000000000000000000000000000000000000000000000000000000081526004016100d3906102b4565b60405180910390fd5b5f82036100eb575f9050610141565b5f6002836100f9919061032c565b90505f5f90505b600a81101561013b5760028285610117919061032c565b83610122919061035c565b61012c919061032c565b91508080600101915050610100565b50809150505b919050565b5f5f82036101575760019050610166565b818361016391906104be565b90505b92915050565b5f5ffd5b5f819050919050565b61018281610170565b811461018c575f5ffd5b50565b5f8135905061019d81610179565b92915050565b5f602082840312156101b8576101b761016c565b5b5f6101c58482850161018f565b91505092915050565b6101d781610170565b82525050565b5f6020820190506101f05f8301846101ce565b92915050565b5f5f6040838503121561020c5761020b61016c565b5b5f6102198582860161018f565b925050602061022a8582860161018f565b9150509250929050565b5f82825260208201905092915050565b7f43616e6e6f742063616c63756c6174652073717561726520726f6f74206f66205f8201527f6e65676174697665206e756d6265722e00000000000000000000000000000000602082015250565b5f61029e603083610234565b91506102a982610244565b604082019050919050565b5f6020820190508181035f8301526102cb81610292565b9050919050565b7f4e487b71000000000000000000000000000000000000000000000000000000005f52601260045260245ffd5b7f4e487b71000000000000000000000000000000000000000000000000000000005f52601160045260245ffd5b5f61033682610170565b915061034183610170565b925082610351576103506102d2565b5b828204905092915050565b5f61036682610170565b915061037183610170565b9250828201905080821115610389576103886102ff565b5b92915050565b5f8160011c9050919050565b5f5f8291508390505b60018511156103e4578086048111156103c0576103bf6102ff565b5b60018516156103cf5780820291505b80810290506103dd8561038f565b94506103a4565b94509492505050565b5f826103fc57600190506104b7565b81610409575f90506104b7565b816001811461041f576002811461042957610458565b60019150506104b7565b60ff84111561043b5761043a6102ff565b5b8360020a915084821115610452576104516102ff565b5b506104b7565b5060208310610133831016604e8410600b841016171561048d5782820a905083811115610488576104876102ff565b5b6104b7565b61049a848484600161039b565b925090508184048111156104b1576104b06102ff565b5b81810290505b9392505050565b5f6104c882610170565b91506104d383610170565b92506105007fffffffffffffffffffffffffffffffffffffffffffffffffffffffffffffffff84846103ed565b90509291505056fea264697066735822122004195a2f4897d389d6b3852f07a41024acdfc6af7fd1e6fce805530fb2492df664736f6c634300081f0033",
					"opcodes": "PUSH1 0x80 PUSH1 0x40 MSTORE CALLVALUE DUP1 ISZERO PUSH1 0xE JUMPI PUSH0 PUSH0 REVERT JUMPDEST POP PUSH2 0x53E DUP1 PUSH2 0x1C PUSH0 CODECOPY PUSH0 RETURN INVALID PUSH1 0x80 PUSH1 0x40 MSTORE CALLVALUE DUP1 ISZERO PUSH2 0xF JUMPI PUSH0 PUSH0 REVERT JUMPDEST POP PUSH1 0x4 CALLDATASIZE LT PUSH2 0x34 JUMPI PUSH0 CALLDATALOAD PUSH1 0xE0 SHR DUP1 PUSH4 0x7B019F89 EQ PUSH2 0x38 JUMPI DUP1 PUSH4 0xC04F01FC EQ PUSH2 0x68 JUMPI JUMPDEST PUSH0 PUSH0 REVERT JUMPDEST PUSH2 0x52 PUSH1 0x4 DUP1 CALLDATASIZE SUB DUP2 ADD SWAP1 PUSH2 0x4D SWAP2 SWAP1 PUSH2 0x1A3 JUMP JUMPDEST PUSH2 0x98 JUMP JUMPDEST PUSH1 0x40 MLOAD PUSH2 0x5F SWAP2 SWAP1 PUSH2 0x1DD JUMP JUMPDEST PUSH1 0x40 MLOAD DUP1 SWAP2 SUB SWAP1 RETURN JUMPDEST PUSH2 0x82 PUSH1 0x4 DUP1 CALLDATASIZE SUB DUP2 ADD SWAP1 PUSH2 0x7D SWAP2 SWAP1 PUSH2 0x1F6 JUMP JUMPDEST PUSH2 0x146 JUMP JUMPDEST PUSH1 0x40 MLOAD PUSH2 0x8F SWAP2 SWAP1 PUSH2 0x1DD JUMP JUMPDEST PUSH1 0x40 MLOAD DUP1 SWAP2 SUB SWAP1 RETURN JUMPDEST PUSH0 PUSH0 DUP3 LT ISZERO PUSH2 0xDC JUMPI PUSH1 0x40 MLOAD PUSH32 0x8C379A000000000000000000000000000000000000000000000000000000000 DUP2 MSTORE PUSH1 0x4 ADD PUSH2 0xD3 SWAP1 PUSH2 0x2B4 JUMP JUMPDEST PUSH1 0x40 MLOAD DUP1 SWAP2 SUB SWAP1 REVERT JUMPDEST PUSH0 DUP3 SUB PUSH2 0xEB JUMPI PUSH0 SWAP1 POP PUSH2 0x141 JUMP JUMPDEST PUSH0 PUSH1 0x2 DUP4 PUSH2 0xF9 SWAP2 SWAP1 PUSH2 0x32C JUMP JUMPDEST SWAP1 POP PUSH0 PUSH0 SWAP1 POP JUMPDEST PUSH1 0xA DUP2 LT ISZERO PUSH2 0x13B JUMPI PUSH1 0x2 DUP3 DUP6 PUSH2 0x117 SWAP2 SWAP1 PUSH2 0x32C JUMP JUMPDEST DUP4 PUSH2 0x122 SWAP2 SWAP1 PUSH2 0x35C JUMP JUMPDEST PUSH2 0x12C SWAP2 SWAP1 PUSH2 0x32C JUMP JUMPDEST SWAP2 POP DUP1 DUP1 PUSH1 0x1 ADD SWAP2 POP POP PUSH2 0x100 JUMP JUMPDEST POP DUP1 SWAP2 POP POP JUMPDEST SWAP2 SWAP1 POP JUMP JUMPDEST PUSH0 PUSH0 DUP3 SUB PUSH2 0x157 JUMPI PUSH1 0x1 SWAP1 POP PUSH2 0x166 JUMP JUMPDEST DUP2 DUP4 PUSH2 0x163 SWAP2 SWAP1 PUSH2 0x4BE JUMP JUMPDEST SWAP1 POP JUMPDEST SWAP3 SWAP2 POP POP JUMP JUMPDEST PUSH0 PUSH0 REVERT JUMPDEST PUSH0 DUP2 SWAP1 POP SWAP2 SWAP1 POP JUMP JUMPDEST PUSH2 0x182 DUP2 PUSH2 0x170 JUMP JUMPDEST DUP2 EQ PUSH2 0x18C JUMPI PUSH0 PUSH0 REVERT JUMPDEST POP JUMP JUMPDEST PUSH0 DUP2 CALLDATALOAD SWAP1 POP PUSH2 0x19D DUP2 PUSH2 0x179 JUMP JUMPDEST SWAP3 SWAP2 POP POP JUMP JUMPDEST PUSH0 PUSH1 0x20 DUP3 DUP5 SUB SLT ISZERO PUSH2 0x1B8 JUMPI PUSH2 0x1B7 PUSH2 0x16C JUMP JUMPDEST JUMPDEST PUSH0 PUSH2 0x1C5 DUP5 DUP3 DUP6 ADD PUSH2 0x18F JUMP JUMPDEST SWAP2 POP POP SWAP3 SWAP2 POP POP JUMP JUMPDEST PUSH2 0x1D7 DUP2 PUSH2 0x170 JUMP JUMPDEST DUP3 MSTORE POP POP JUMP JUMPDEST PUSH0 PUSH1 0x20 DUP3 ADD SWAP1 POP PUSH2 0x1F0 PUSH0 DUP4 ADD DUP5 PUSH2 0x1CE JUMP JUMPDEST SWAP3 SWAP2 POP POP JUMP JUMPDEST PUSH0 PUSH0 PUSH1 0x40 DUP4 DUP6 SUB SLT ISZERO PUSH2 0x20C JUMPI PUSH2 0x20B PUSH2 0x16C JUMP JUMPDEST JUMPDEST PUSH0 PUSH2 0x219 DUP6 DUP3 DUP7 ADD PUSH2 0x18F JUMP JUMPDEST SWAP3 POP POP PUSH1 0x20 PUSH2 0x22A DUP6 DUP3 DUP7 ADD PUSH2 0x18F JUMP JUMPDEST SWAP2 POP POP SWAP3 POP SWAP3 SWAP1 POP JUMP JUMPDEST PUSH0 DUP3 DUP3 MSTORE PUSH1 0x20 DUP3 ADD SWAP1 POP SWAP3 SWAP2 POP POP JUMP JUMPDEST PUSH32 0x43616E6E6F742063616C63756C6174652073717561726520726F6F74206F6620 PUSH0 DUP3 ADD MSTORE PUSH32 0x6E65676174697665206E756D6265722E00000000000000000000000000000000 PUSH1 0x20 DUP3 ADD MSTORE POP JUMP JUMPDEST PUSH0 PUSH2 0x29E PUSH1 0x30 DUP4 PUSH2 0x234 JUMP JUMPDEST SWAP2 POP PUSH2 0x2A9 DUP3 PUSH2 0x244 JUMP JUMPDEST PUSH1 0x40 DUP3 ADD SWAP1 POP SWAP2 SWAP1 POP JUMP JUMPDEST PUSH0 PUSH1 0x20 DUP3 ADD SWAP1 POP DUP2 DUP2 SUB PUSH0 DUP4 ADD MSTORE PUSH2 0x2CB DUP2 PUSH2 0x292 JUMP JUMPDEST SWAP1 POP SWAP2 SWAP1 POP JUMP JUMPDEST PUSH32 0x4E487B7100000000000000000000000000000000000000000000000000000000 PUSH0 MSTORE PUSH1 0x12 PUSH1 0x4 MSTORE PUSH1 0x24 PUSH0 REVERT JUMPDEST PUSH32 0x4E487B7100000000000000000000000000000000000000000000000000000000 PUSH0 MSTORE PUSH1 0x11 PUSH1 0x4 MSTORE PUSH1 0x24 PUSH0 REVERT JUMPDEST PUSH0 PUSH2 0x336 DUP3 PUSH2 0x170 JUMP JUMPDEST SWAP2 POP PUSH2 0x341 DUP4 PUSH2 0x170 JUMP JUMPDEST SWAP3 POP DUP3 PUSH2 0x351 JUMPI PUSH2 0x350 PUSH2 0x2D2 JUMP JUMPDEST JUMPDEST DUP3 DUP3 DIV SWAP1 POP SWAP3 SWAP2 POP POP JUMP JUMPDEST PUSH0 PUSH2 0x366 DUP3 PUSH2 0x170 JUMP JUMPDEST SWAP2 POP PUSH2 0x371 DUP4 PUSH2 0x170 JUMP JUMPDEST SWAP3 POP DUP3 DUP3 ADD SWAP1 POP DUP1 DUP3 GT ISZERO PUSH2 0x389 JUMPI PUSH2 0x388 PUSH2 0x2FF JUMP JUMPDEST JUMPDEST SWAP3 SWAP2 POP POP JUMP JUMPDEST PUSH0 DUP2 PUSH1 0x1 SHR SWAP1 POP SWAP2 SWAP1 POP JUMP JUMPDEST PUSH0 PUSH0 DUP3 SWAP2 POP DUP4 SWAP1 POP JUMPDEST PUSH1 0x1 DUP6 GT ISZERO PUSH2 0x3E4 JUMPI DUP1 DUP7 DIV DUP2 GT ISZERO PUSH2 0x3C0 JUMPI PUSH2 0x3BF PUSH2 0x2FF JUMP JUMPDEST JUMPDEST PUSH1 0x1 DUP6 AND ISZERO PUSH2 0x3CF JUMPI DUP1 DUP3 MUL SWAP2 POP JUMPDEST DUP1 DUP2 MUL SWAP1 POP PUSH2 0x3DD DUP6 PUSH2 0x38F JUMP JUMPDEST SWAP5 POP PUSH2 0x3A4 JUMP JUMPDEST SWAP5 POP SWAP5 SWAP3 POP POP POP JUMP JUMPDEST PUSH0 DUP3 PUSH2 0x3FC JUMPI PUSH1 0x1 SWAP1 POP PUSH2 0x4B7 JUMP JUMPDEST DUP2 PUSH2 0x409 JUMPI PUSH0 SWAP1 POP PUSH2 0x4B7 JUMP JUMPDEST DUP2 PUSH1 0x1 DUP2 EQ PUSH2 0x41F JUMPI PUSH1 0x2 DUP2 EQ PUSH2 0x429 JUMPI PUSH2 0x458 JUMP JUMPDEST PUSH1 0x1 SWAP2 POP POP PUSH2 0x4B7 JUMP JUMPDEST PUSH1 0xFF DUP5 GT ISZERO PUSH2 0x43B JUMPI PUSH2 0x43A PUSH2 0x2FF JUMP JUMPDEST JUMPDEST DUP4 PUSH1 0x2 EXP SWAP2 POP DUP5 DUP3 GT ISZERO PUSH2 0x452 JUMPI PUSH2 0x451 PUSH2 0x2FF JUMP JUMPDEST JUMPDEST POP PUSH2 0x4B7 JUMP JUMPDEST POP PUSH1 0x20 DUP4 LT PUSH2 0x133 DUP4 LT AND PUSH1 0x4E DUP5 LT PUSH1 0xB DUP5 LT AND OR ISZERO PUSH2 0x48D JUMPI DUP3 DUP3 EXP SWAP1 POP DUP4 DUP2 GT ISZERO PUSH2 0x488 JUMPI PUSH2 0x487 PUSH2 0x2FF JUMP JUMPDEST JUMPDEST PUSH2 0x4B7 JUMP JUMPDEST PUSH2 0x49A DUP5 DUP5 DUP5 PUSH1 0x1 PUSH2 0x39B JUMP JUMPDEST SWAP3 POP SWAP1 POP DUP2 DUP5 DIV DUP2 GT ISZERO PUSH2 0x4B1 JUMPI PUSH2 0x4B0 PUSH2 0x2FF JUMP JUMPDEST JUMPDEST DUP2 DUP2 MUL SWAP1 POP JUMPDEST SWAP4 SWAP3 POP POP POP JUMP JUMPDEST PUSH0 PUSH2 0x4C8 DUP3 PUSH2 0x170 JUMP JUMPDEST SWAP2 POP PUSH2 0x4D3 DUP4 PUSH2 0x170 JUMP JUMPDEST SWAP3 POP PUSH2 0x500 PUSH32 0xFFFFFFFFFFFFFFFFFFFFFFFFFFFFFFFFFFFFFFFFFFFFFFFFFFFFFFFFFFFFFFFF DUP5 DUP5 PUSH2 0x3ED JUMP JUMPDEST SWAP1 POP SWAP3 SWAP2 POP POP JUMP INVALID LOG2 PUSH5 0x6970667358 0x22 SLT KECCAK256 DIV NOT GAS 0x2F BASEFEE SWAP8 0xD3 DUP10 0xD6 0xB3 DUP6 0x2F SMOD LOG4 LT 0x24 0xAC 0xDF 0xC6 0xAF PUSH32 0xD1E6FCE805530FB2492DF664736F6C634300081F003300000000000000000000 "
				},
				"gasEstimates": {
					"creation": {
						"codeDepositCost": "268400",
						"executionCost": "304",
						"totalCost": "268704"
					},
					"external": {
						"power(uint256,uint256)": "infinite",
						"squareRoot(uint256)": "infinite"
					}
				},
				"methodIdentifiers": {
					"power(uint256,uint256)": "c04f01fc",
					"squareRoot(uint256)": "7b019f89"
				}
			},
			"storageLayout": {
				"storage": [],
				"types": null
			},
			"userdoc": {
				"kind": "user",
				"methods": {},
				"version": 1
			}
		}
	}
}