{
	"day10-ActivityTracker/day10_activitytracker.sol": {
		"SimpleFitnessTracker": {
			"abi": [
				{
					"anonymous": false,
					"inputs": [
						{
							"indexed": true,
							"internalType": "address",
							"name": "user",
							"type": "address"
						},
						{
							"indexed": false,
							"internalType": "string",
							"name": "milestone",
							"type": "string"
						},
						{
							"indexed": false,
							"internalType": "uint256",
							"name": "timestamp",
							"type": "uint256"
						}
					],
					"name": "MilestoneAchieved",
					"type": "event"
				},
				{
					"anonymous": false,
					"inputs": [
						{
							"indexed": true,
							"internalType": "address",
							"name": "user",
							"type": "address"
						},
						{
							"indexed": false,
							"internalType": "uint256",
							"name": "weight",
							"type": "uint256"
						},
						{
							"indexed": false,
							"internalType": "uint256",
							"name": "timestamp",
							"type": "uint256"
						}
					],
					"name": "ProfileUpdated",
					"type": "event"
				},
				{
					"anonymous": false,
					"inputs": [
						{
							"indexed": true,
							"internalType": "address",
							"name": "userAddress",
							"type": "address"
						},
						{
							"indexed": true,
							"internalType": "string",
							"name": "name",
							"type": "string"
						},
						{
							"indexed": false,
							"internalType": "uint256",
							"name": "timestamp",
							"type": "uint256"
						}
					],
					"name": "UserRegistered",
					"type": "event"
				},
				{
					"anonymous": false,
					"inputs": [
						{
							"indexed": true,
							"internalType": "address",
							"name": "userAddress",
							"type": "address"
						},
						{
							"indexed": false,
							"internalType": "string",
							"name": "activityType",
							"type": "string"
						},
						{
							"indexed": false,
							"internalType": "uint256",
							"name": "duration",
							"type": "uint256"
						},
						{
							"indexed": false,
							"internalType": "uint256",
							"name": "distance",
							"type": "uint256"
						},
						{
							"indexed": false,
							"internalType": "uint256",
							"name": "timestamp",
							"type": "uint256"
						}
					],
					"name": "WorkoutLogged",
					"type": "event"
				},
				{
					"inputs": [
						{
							"internalType": "string",
							"name": "_activityType",
							"type": "string"
						},
						{
							"internalType": "uint256",
							"name": "_duration",
							"type": "uint256"
						},
						{
							"internalType": "uint256",
							"name": "_distance",
							"type": "uint256"
						}
					],
					"name": "logWorkout",
					"outputs": [],
					"stateMutability": "nonpayable",
					"type": "function"
				},
				{
					"inputs": [
						{
							"internalType": "string",
							"name": "_name",
							"type": "string"
						},
						{
							"internalType": "uint256",
							"name": "_weight",
							"type": "uint256"
						}
					],
					"name": "registerUser",
					"outputs": [],
					"stateMutability": "nonpayable",
					"type": "function"
				},
				{
					"inputs": [
						{
							"internalType": "address",
							"name": "",
							"type": "address"
						}
					],
					"name": "totalDistance",
					"outputs": [
						{
							"internalType": "uint256",
							"name": "",
							"type": "uint256"
						}
					],
					"stateMutability": "view",
					"type": "function"
				},
				{
					"inputs": [
						{
							"internalType": "address",
							"name": "",
							"type": "address"
						}
					],
					"name": "totalWorkouts",
					"outputs": [
						{
							"internalType": "uint256",
							"name": "",
							"type": "uint256"
						}
					],
					"stateMutability": "view",
					"type": "function"
				},
				{
					"inputs": [
						{
							"internalType": "uint256",
							"name": "_newWeight",
							"type": "uint256"
						}
					],
					"name": "updateWeight",
					"outputs": [],
					"stateMutability": "nonpayable",
					"type": "function"
				},
				{
					"inputs": [
						{
							"internalType": "address",
							"name": "",
							"type": "address"
						}
					],
					"name": "userProfiles",
					"outputs": [
						{
							"internalType": "string",
							"name": "name",
							"type": "string"
						},
						{
							"internalType": "uint256",
							"name": "weight",
							"type": "uint256"
						},
						{
							"internalType": "bool",
							"name": "isRegistered",
							"type": "bool"
						}
					],
					"stateMutability": "view",
					"type": "function"
				},
				{
					"inputs": [
						{
							"internalType": "address",
							"name": "",
							"type": "address"
						},
						{
							"internalType": "uint256",
							"name": "",
							"type": "uint256"
						}
					],
					"name": "workoutHistory",
					"outputs": [
						{
							"internalType": "string",
							"name": "activityType",
							"type": "string"
						},
						{
							"internalType": "uint256",
							"name": "duration",
							"type": "uint256"
						},
						{
							"internalType": "uint256",
							"name": "distance",
							"type": "uint256"
						},
						{
							"internalType": "uint256",
							"name": "timestamp",
							"type": "uint256"
						}
					],
					"stateMutability": "view",
					"type": "function"
				}
			],
			"devdoc": {
				"kind": "dev",
				"methods": {},
				"version": 1
			},
			"evm": {
				"assembly": "    /* \"day10-ActivityTracker/day10_activitytracker.sol\":59:3522  contract SimpleFitnessTracker {... */\n  mstore(0x40, 0x80)\n  callvalue\n  dup1\n  iszero\n  tag_1\n  jumpi\n  revert(0x00, 0x00)\ntag_1:\n  pop\n  dataSize(sub_0)\n  dup1\n  dataOffset(sub_0)\n  0x00\n  codecopy\n  0x00\n  return\nstop\n\nsub_0: assembly {\n        /* \"day10-ActivityTracker/day10_activitytracker.sol\":59:3522  contract SimpleFitnessTracker {... */\n      mstore(0x40, 0x80)\n      callvalue\n      dup1\n      iszero\n      tag_1\n      jumpi\n      revert(0x00, 0x00)\n    tag_1:\n      pop\n      jumpi(tag_2, lt(calldatasize, 0x04))\n      shr(0xe0, calldataload(0x00))\n      dup1\n      0xae5bde4e\n      gt\n      tag_10\n      jumpi\n      dup1\n      0xae5bde4e\n      eq\n      tag_6\n      jumpi\n      dup1\n      0xc5af3f8c\n      eq\n      tag_7\n      jumpi\n      dup1\n      0xd3951002\n      eq\n      tag_8\n      jumpi\n      dup1\n      0xec3df6ad\n      eq\n      tag_9\n      jumpi\n      jump(tag_2)\n    tag_10:\n      dup1\n      0x03cdaddd\n      eq\n      tag_3\n      jumpi\n      dup1\n      0x332d56d7\n      eq\n      tag_4\n      jumpi\n      dup1\n      0x3f9a3256\n      eq\n      tag_5\n      jumpi\n    tag_2:\n      revert(0x00, 0x00)\n        /* \"day10-ActivityTracker/day10_activitytracker.sol\":2026:2074  mapping(address => uint256) public totalWorkouts */\n    tag_3:\n      tag_11\n      0x04\n      dup1\n      calldatasize\n      sub\n      dup2\n      add\n      swap1\n      tag_12\n      swap2\n      swap1\n      tag_13\n      jump\t// in\n    tag_12:\n      tag_14\n      jump\t// in\n    tag_11:\n      mload(0x40)\n      tag_15\n      swap2\n      swap1\n      tag_16\n      jump\t// in\n    tag_15:\n      mload(0x40)\n      dup1\n      swap2\n      sub\n      swap1\n      return\n        /* \"day10-ActivityTracker/day10_activitytracker.sol\":232:283  mapping(address => UserProfile) public userProfiles */\n    tag_4:\n      tag_17\n      0x04\n      dup1\n      calldatasize\n      sub\n      dup2\n      add\n      swap1\n      tag_18\n      swap2\n      swap1\n      tag_13\n      jump\t// in\n    tag_18:\n      tag_19\n      jump\t// in\n    tag_17:\n      mload(0x40)\n      tag_20\n      swap4\n      swap3\n      swap2\n      swap1\n      tag_21\n      jump\t// in\n    tag_20:\n      mload(0x40)\n      dup1\n      swap2\n      sub\n      swap1\n      return\n        /* \"day10-ActivityTracker/day10_activitytracker.sol\":1960:2019  mapping(address => WorkoutActivity[]) public workoutHistory */\n    tag_5:\n      tag_22\n      0x04\n      dup1\n      calldatasize\n      sub\n      dup2\n      add\n      swap1\n      tag_23\n      swap2\n      swap1\n      tag_24\n      jump\t// in\n    tag_23:\n      tag_25\n      jump\t// in\n    tag_22:\n      mload(0x40)\n      tag_26\n      swap5\n      swap4\n      swap3\n      swap2\n      swap1\n      tag_27\n      jump\t// in\n    tag_26:\n      mload(0x40)\n      dup1\n      swap2\n      sub\n      swap1\n      return\n        /* \"day10-ActivityTracker/day10_activitytracker.sol\":2081:2129  mapping(address => uint256) public totalDistance */\n    tag_6:\n      tag_28\n      0x04\n      dup1\n      calldatasize\n      sub\n      dup2\n      add\n      swap1\n      tag_29\n      swap2\n      swap1\n      tag_13\n      jump\t// in\n    tag_29:\n      tag_30\n      jump\t// in\n    tag_28:\n      mload(0x40)\n      tag_31\n      swap2\n      swap1\n      tag_16\n      jump\t// in\n    tag_31:\n      mload(0x40)\n      dup1\n      swap2\n      sub\n      swap1\n      return\n        /* \"day10-ActivityTracker/day10_activitytracker.sol\":2331:3511  function logWorkout(string memory _activityType, uint256 _duration, uint256 _distance) public onlyRegistered {... */\n    tag_7:\n      tag_32\n      0x04\n      dup1\n      calldatasize\n      sub\n      dup2\n      add\n      swap1\n      tag_33\n      swap2\n      swap1\n      tag_34\n      jump\t// in\n    tag_33:\n      tag_35\n      jump\t// in\n    tag_32:\n      stop\n        /* \"day10-ActivityTracker/day10_activitytracker.sol\":390:943  function registerUser(string memory _name, uint256 _weight) public {... */\n    tag_8:\n      tag_36\n      0x04\n      dup1\n      calldatasize\n      sub\n      dup2\n      add\n      swap1\n      tag_37\n      swap2\n      swap1\n      tag_38\n      jump\t// in\n    tag_37:\n      tag_39\n      jump\t// in\n    tag_36:\n      stop\n        /* \"day10-ActivityTracker/day10_activitytracker.sol\":1258:1774  function updateWeight(uint256 _newWeight) public onlyRegistered {... */\n    tag_9:\n      tag_40\n      0x04\n      dup1\n      calldatasize\n      sub\n      dup2\n      add\n      swap1\n      tag_41\n      swap2\n      swap1\n      tag_42\n      jump\t// in\n    tag_41:\n      tag_43\n      jump\t// in\n    tag_40:\n      stop\n        /* \"day10-ActivityTracker/day10_activitytracker.sol\":2026:2074  mapping(address => uint256) public totalWorkouts */\n    tag_14:\n      mstore(0x20, 0x02)\n      dup1\n      0x00\n      mstore\n      keccak256(0x00, 0x40)\n      0x00\n      swap2\n      pop\n      swap1\n      pop\n      sload\n      dup2\n      jump\t// out\n        /* \"day10-ActivityTracker/day10_activitytracker.sol\":232:283  mapping(address => UserProfile) public userProfiles */\n    tag_19:\n      mstore(0x20, 0x00)\n      dup1\n      0x00\n      mstore\n      keccak256(0x00, 0x40)\n      0x00\n      swap2\n      pop\n      swap1\n      pop\n      dup1\n      0x00\n      add\n      dup1\n      sload\n      tag_44\n      swap1\n      tag_45\n      jump\t// in\n    tag_44:\n      dup1\n      0x1f\n      add\n      0x20\n      dup1\n      swap2\n      div\n      mul\n      0x20\n      add\n      mload(0x40)\n      swap1\n      dup2\n      add\n      0x40\n      mstore\n      dup1\n      swap3\n      swap2\n      swap1\n      dup2\n      dup2\n      mstore\n      0x20\n      add\n      dup3\n      dup1\n      sload\n      tag_46\n      swap1\n      tag_45\n      jump\t// in\n    tag_46:\n      dup1\n      iszero\n      tag_47\n      jumpi\n      dup1\n      0x1f\n      lt\n      tag_48\n      jumpi\n      0x0100\n      dup1\n      dup4\n      sload\n      div\n      mul\n      dup4\n      mstore\n      swap2\n      0x20\n      add\n      swap2\n      jump(tag_47)\n    tag_48:\n      dup3\n      add\n      swap2\n      swap1\n      0x00\n      mstore\n      keccak256(0x00, 0x20)\n      swap1\n    tag_49:\n      dup2\n      sload\n      dup2\n      mstore\n      swap1\n      0x01\n      add\n      swap1\n      0x20\n      add\n      dup1\n      dup4\n      gt\n      tag_49\n      jumpi\n      dup3\n      swap1\n      sub\n      0x1f\n      and\n      dup3\n      add\n      swap2\n    tag_47:\n      pop\n      pop\n      pop\n      pop\n      pop\n      swap1\n      dup1\n      0x01\n      add\n      sload\n      swap1\n      dup1\n      0x02\n      add\n      0x00\n      swap1\n      sload\n      swap1\n      0x0100\n      exp\n      swap1\n      div\n      0xff\n      and\n      swap1\n      pop\n      dup4\n      jump\t// out\n        /* \"day10-ActivityTracker/day10_activitytracker.sol\":1960:2019  mapping(address => WorkoutActivity[]) public workoutHistory */\n    tag_25:\n      mstore(0x20, 0x01)\n      dup2\n      0x00\n      mstore\n      keccak256(0x00, 0x40)\n      dup2\n      dup2\n      sload\n      dup2\n      lt\n      tag_50\n      jumpi\n      0x00\n      dup1\n      revert\n    tag_50:\n      swap1\n      0x00\n      mstore\n      keccak256(0x00, 0x20)\n      swap1\n      0x04\n      mul\n      add\n      0x00\n      swap2\n      pop\n      swap2\n      pop\n      pop\n      dup1\n      0x00\n      add\n      dup1\n      sload\n      tag_52\n      swap1\n      tag_45\n      jump\t// in\n    tag_52:\n      dup1\n      0x1f\n      add\n      0x20\n      dup1\n      swap2\n      div\n      mul\n      0x20\n      add\n      mload(0x40)\n      swap1\n      dup2\n      add\n      0x40\n      mstore\n      dup1\n      swap3\n      swap2\n      swap1\n      dup2\n      dup2\n      mstore\n      0x20\n      add\n      dup3\n      dup1\n      sload\n      tag_53\n      swap1\n      tag_45\n      jump\t// in\n    tag_53:\n      dup1\n      iszero\n      tag_54\n      jumpi\n      dup1\n      0x1f\n      lt\n      tag_55\n      jumpi\n      0x0100\n      dup1\n      dup4\n      sload\n      div\n      mul\n      dup4\n      mstore\n      swap2\n      0x20\n      add\n      swap2\n      jump(tag_54)\n    tag_55:\n      dup3\n      add\n      swap2\n      swap1\n      0x00\n      mstore\n      keccak256(0x00, 0x20)\n      swap1\n    tag_56:\n      dup2\n      sload\n      dup2\n      mstore\n      swap1\n      0x01\n      add\n      swap1\n      0x20\n      add\n      dup1\n      dup4\n      gt\n      tag_56\n      jumpi\n      dup3\n      swap1\n      sub\n      0x1f\n      and\n      dup3\n      add\n      swap2\n    tag_54:\n      pop\n      pop\n      pop\n      pop\n      pop\n      swap1\n      dup1\n      0x01\n      add\n      sload\n      swap1\n      dup1\n      0x02\n      add\n      sload\n      swap1\n      dup1\n      0x03\n      add\n      sload\n      swap1\n      pop\n      dup5\n      jump\t// out\n        /* \"day10-ActivityTracker/day10_activitytracker.sol\":2081:2129  mapping(address => uint256) public totalDistance */\n    tag_30:\n      mstore(0x20, 0x03)\n      dup1\n      0x00\n      mstore\n      keccak256(0x00, 0x40)\n      0x00\n      swap2\n      pop\n      swap1\n      pop\n      sload\n      dup2\n      jump\t// out\n        /* \"day10-ActivityTracker/day10_activitytracker.sol\":2331:3511  function logWorkout(string memory _activityType, uint256 _duration, uint256 _distance) public onlyRegistered {... */\n    tag_35:\n        /* \"day10-ActivityTracker/day10_activitytracker.sol\":996:1008  userProfiles */\n      0x00\n        /* \"day10-ActivityTracker/day10_activitytracker.sol\":996:1020  userProfiles[msg.sender] */\n      0x00\n        /* \"day10-ActivityTracker/day10_activitytracker.sol\":1009:1019  msg.sender */\n      caller\n        /* \"day10-ActivityTracker/day10_activitytracker.sol\":996:1020  userProfiles[msg.sender] */\n      0xffffffffffffffffffffffffffffffffffffffff\n      and\n      0xffffffffffffffffffffffffffffffffffffffff\n      and\n      dup2\n      mstore\n      0x20\n      add\n      swap1\n      dup2\n      mstore\n      0x20\n      add\n      0x00\n      keccak256\n        /* \"day10-ActivityTracker/day10_activitytracker.sol\":996:1033  userProfiles[msg.sender].isRegistered */\n      0x02\n      add\n      0x00\n      swap1\n      sload\n      swap1\n      0x0100\n      exp\n      swap1\n      div\n      0xff\n      and\n        /* \"day10-ActivityTracker/day10_activitytracker.sol\":988:1057  require(userProfiles[msg.sender].isRegistered, \"User not registered\") */\n      tag_58\n      jumpi\n      mload(0x40)\n      0x08c379a000000000000000000000000000000000000000000000000000000000\n      dup2\n      mstore\n      0x04\n      add\n      tag_59\n      swap1\n      tag_60\n      jump\t// in\n    tag_59:\n      mload(0x40)\n      dup1\n      swap2\n      sub\n      swap1\n      revert\n    tag_58:\n        /* \"day10-ActivityTracker/day10_activitytracker.sol\":2451:2484  WorkoutActivity memory newWorkout */\n      0x00\n        /* \"day10-ActivityTracker/day10_activitytracker.sol\":2487:2666  WorkoutActivity({... */\n      mload(0x40)\n      dup1\n      0x80\n      add\n      0x40\n      mstore\n      dup1\n        /* \"day10-ActivityTracker/day10_activitytracker.sol\":2532:2545  _activityType */\n      dup6\n        /* \"day10-ActivityTracker/day10_activitytracker.sol\":2487:2666  WorkoutActivity({... */\n      dup2\n      mstore\n      0x20\n      add\n        /* \"day10-ActivityTracker/day10_activitytracker.sol\":2570:2579  _duration */\n      dup5\n        /* \"day10-ActivityTracker/day10_activitytracker.sol\":2487:2666  WorkoutActivity({... */\n      dup2\n      mstore\n      0x20\n      add\n        /* \"day10-ActivityTracker/day10_activitytracker.sol\":2604:2613  _distance */\n      dup4\n        /* \"day10-ActivityTracker/day10_activitytracker.sol\":2487:2666  WorkoutActivity({... */\n      dup2\n      mstore\n      0x20\n      add\n        /* \"day10-ActivityTracker/day10_activitytracker.sol\":2639:2654  block.timestamp */\n      timestamp\n        /* \"day10-ActivityTracker/day10_activitytracker.sol\":2487:2666  WorkoutActivity({... */\n      dup2\n      mstore\n      pop\n        /* \"day10-ActivityTracker/day10_activitytracker.sol\":2451:2666  WorkoutActivity memory newWorkout = WorkoutActivity({... */\n      swap1\n      pop\n        /* \"day10-ActivityTracker/day10_activitytracker.sol\":2677:2691  workoutHistory */\n      0x01\n        /* \"day10-ActivityTracker/day10_activitytracker.sol\":2677:2703  workoutHistory[msg.sender] */\n      0x00\n        /* \"day10-ActivityTracker/day10_activitytracker.sol\":2692:2702  msg.sender */\n      caller\n        /* \"day10-ActivityTracker/day10_activitytracker.sol\":2677:2703  workoutHistory[msg.sender] */\n      0xffffffffffffffffffffffffffffffffffffffff\n      and\n      0xffffffffffffffffffffffffffffffffffffffff\n      and\n      dup2\n      mstore\n      0x20\n      add\n      swap1\n      dup2\n      mstore\n      0x20\n      add\n      0x00\n      keccak256\n        /* \"day10-ActivityTracker/day10_activitytracker.sol\":2709:2719  newWorkout */\n      dup2\n        /* \"day10-ActivityTracker/day10_activitytracker.sol\":2677:2720  workoutHistory[msg.sender].push(newWorkout) */\n      swap1\n      dup1\n      0x01\n      dup2\n      sload\n      add\n      dup1\n      dup3\n      sstore\n      dup1\n      swap2\n      pop\n      pop\n      0x01\n      swap1\n      sub\n      swap1\n      0x00\n      mstore\n      keccak256(0x00, 0x20)\n      swap1\n      0x04\n      mul\n      add\n      0x00\n      swap1\n      swap2\n      swap1\n      swap2\n      swap1\n      swap2\n      pop\n      0x00\n      dup3\n      add\n      mload\n      dup2\n      0x00\n      add\n      swap1\n      dup2\n      tag_63\n      swap2\n      swap1\n      tag_64\n      jump\t// in\n    tag_63:\n      pop\n      0x20\n      dup3\n      add\n      mload\n      dup2\n      0x01\n      add\n      sstore\n      0x40\n      dup3\n      add\n      mload\n      dup2\n      0x02\n      add\n      sstore\n      0x60\n      dup3\n      add\n      mload\n      dup2\n      0x03\n      add\n      sstore\n      pop\n      pop\n        /* \"day10-ActivityTracker/day10_activitytracker.sol\":2731:2744  totalWorkouts */\n      0x02\n        /* \"day10-ActivityTracker/day10_activitytracker.sol\":2731:2756  totalWorkouts[msg.sender] */\n      0x00\n        /* \"day10-ActivityTracker/day10_activitytracker.sol\":2745:2755  msg.sender */\n      caller\n        /* \"day10-ActivityTracker/day10_activitytracker.sol\":2731:2756  totalWorkouts[msg.sender] */\n      0xffffffffffffffffffffffffffffffffffffffff\n      and\n      0xffffffffffffffffffffffffffffffffffffffff\n      and\n      dup2\n      mstore\n      0x20\n      add\n      swap1\n      dup2\n      mstore\n      0x20\n      add\n      0x00\n      keccak256\n      0x00\n        /* \"day10-ActivityTracker/day10_activitytracker.sol\":2731:2758  totalWorkouts[msg.sender]++ */\n      dup2\n      sload\n      dup1\n      swap3\n      swap2\n      swap1\n      tag_65\n      swap1\n      tag_66\n      jump\t// in\n    tag_65:\n      swap2\n      swap1\n      pop\n      sstore\n      pop\n        /* \"day10-ActivityTracker/day10_activitytracker.sol\":2798:2807  _distance */\n      dup2\n        /* \"day10-ActivityTracker/day10_activitytracker.sol\":2769:2782  totalDistance */\n      0x03\n        /* \"day10-ActivityTracker/day10_activitytracker.sol\":2769:2794  totalDistance[msg.sender] */\n      0x00\n        /* \"day10-ActivityTracker/day10_activitytracker.sol\":2783:2793  msg.sender */\n      caller\n        /* \"day10-ActivityTracker/day10_activitytracker.sol\":2769:2794  totalDistance[msg.sender] */\n      0xffffffffffffffffffffffffffffffffffffffff\n      and\n      0xffffffffffffffffffffffffffffffffffffffff\n      and\n      dup2\n      mstore\n      0x20\n      add\n      swap1\n      dup2\n      mstore\n      0x20\n      add\n      0x00\n      keccak256\n      0x00\n        /* \"day10-ActivityTracker/day10_activitytracker.sol\":2769:2807  totalDistance[msg.sender] += _distance */\n      dup3\n      dup3\n      sload\n      tag_67\n      swap2\n      swap1\n      tag_68\n      jump\t// in\n    tag_67:\n      swap3\n      pop\n      pop\n      dup2\n      swap1\n      sstore\n      pop\n        /* \"day10-ActivityTracker/day10_activitytracker.sol\":2839:2849  msg.sender */\n      caller\n        /* \"day10-ActivityTracker/day10_activitytracker.sol\":2825:2904  WorkoutLogged(msg.sender, _activityType, _duration, _distance, block.timestamp) */\n      0xffffffffffffffffffffffffffffffffffffffff\n      and\n      0x587a8c232da0d7b15371c5660ff1fdc5fbaf667e6a6b9b6587a378509038fd73\n        /* \"day10-ActivityTracker/day10_activitytracker.sol\":2851:2864  _activityType */\n      dup6\n        /* \"day10-ActivityTracker/day10_activitytracker.sol\":2866:2875  _duration */\n      dup6\n        /* \"day10-ActivityTracker/day10_activitytracker.sol\":2877:2886  _distance */\n      dup6\n        /* \"day10-ActivityTracker/day10_activitytracker.sol\":2888:2903  block.timestamp */\n      timestamp\n        /* \"day10-ActivityTracker/day10_activitytracker.sol\":2825:2904  WorkoutLogged(msg.sender, _activityType, _duration, _distance, block.timestamp) */\n      mload(0x40)\n      tag_69\n      swap5\n      swap4\n      swap3\n      swap2\n      swap1\n      tag_27\n      jump\t// in\n    tag_69:\n      mload(0x40)\n      dup1\n      swap2\n      sub\n      swap1\n      log2\n        /* \"day10-ActivityTracker/day10_activitytracker.sol\":2997:2999  10 */\n      0x0a\n        /* \"day10-ActivityTracker/day10_activitytracker.sol\":2968:2981  totalWorkouts */\n      0x02\n        /* \"day10-ActivityTracker/day10_activitytracker.sol\":2968:2993  totalWorkouts[msg.sender] */\n      0x00\n        /* \"day10-ActivityTracker/day10_activitytracker.sol\":2982:2992  msg.sender */\n      caller\n        /* \"day10-ActivityTracker/day10_activitytracker.sol\":2968:2993  totalWorkouts[msg.sender] */\n      0xffffffffffffffffffffffffffffffffffffffff\n      and\n      0xffffffffffffffffffffffffffffffffffffffff\n      and\n      dup2\n      mstore\n      0x20\n      add\n      swap1\n      dup2\n      mstore\n      0x20\n      add\n      0x00\n      keccak256\n      sload\n        /* \"day10-ActivityTracker/day10_activitytracker.sol\":2968:2999  totalWorkouts[msg.sender] == 10 */\n      sub\n        /* \"day10-ActivityTracker/day10_activitytracker.sol\":2964:3250  if (totalWorkouts[msg.sender] == 10) {... */\n      tag_70\n      jumpi\n        /* \"day10-ActivityTracker/day10_activitytracker.sol\":3039:3049  msg.sender */\n      caller\n        /* \"day10-ActivityTracker/day10_activitytracker.sol\":3021:3092  MilestoneAchieved(msg.sender, \"10 Workouts Completed\", block.timestamp) */\n      0xffffffffffffffffffffffffffffffffffffffff\n      and\n      0x8e330a58901ae7dba0b65f495856eab3fc73fc6ceca3dd7fbd2f4f9d14876e37\n        /* \"day10-ActivityTracker/day10_activitytracker.sol\":3076:3091  block.timestamp */\n      timestamp\n        /* \"day10-ActivityTracker/day10_activitytracker.sol\":3021:3092  MilestoneAchieved(msg.sender, \"10 Workouts Completed\", block.timestamp) */\n      mload(0x40)\n      tag_71\n      swap2\n      swap1\n      tag_72\n      jump\t// in\n    tag_71:\n      mload(0x40)\n      dup1\n      swap2\n      sub\n      swap1\n      log2\n        /* \"day10-ActivityTracker/day10_activitytracker.sol\":2964:3250  if (totalWorkouts[msg.sender] == 10) {... */\n      jump(tag_73)\n    tag_70:\n        /* \"day10-ActivityTracker/day10_activitytracker.sol\":3143:3145  50 */\n      0x32\n        /* \"day10-ActivityTracker/day10_activitytracker.sol\":3114:3127  totalWorkouts */\n      0x02\n        /* \"day10-ActivityTracker/day10_activitytracker.sol\":3114:3139  totalWorkouts[msg.sender] */\n      0x00\n        /* \"day10-ActivityTracker/day10_activitytracker.sol\":3128:3138  msg.sender */\n      caller\n        /* \"day10-ActivityTracker/day10_activitytracker.sol\":3114:3139  totalWorkouts[msg.sender] */\n      0xffffffffffffffffffffffffffffffffffffffff\n      and\n      0xffffffffffffffffffffffffffffffffffffffff\n      and\n      dup2\n      mstore\n      0x20\n      add\n      swap1\n      dup2\n      mstore\n      0x20\n      add\n      0x00\n      keccak256\n      sload\n        /* \"day10-ActivityTracker/day10_activitytracker.sol\":3114:3145  totalWorkouts[msg.sender] == 50 */\n      sub\n        /* \"day10-ActivityTracker/day10_activitytracker.sol\":3110:3250  if (totalWorkouts[msg.sender] == 50) {... */\n      tag_74\n      jumpi\n        /* \"day10-ActivityTracker/day10_activitytracker.sol\":3185:3195  msg.sender */\n      caller\n        /* \"day10-ActivityTracker/day10_activitytracker.sol\":3167:3238  MilestoneAchieved(msg.sender, \"50 Workouts Completed\", block.timestamp) */\n      0xffffffffffffffffffffffffffffffffffffffff\n      and\n      0x8e330a58901ae7dba0b65f495856eab3fc73fc6ceca3dd7fbd2f4f9d14876e37\n        /* \"day10-ActivityTracker/day10_activitytracker.sol\":3222:3237  block.timestamp */\n      timestamp\n        /* \"day10-ActivityTracker/day10_activitytracker.sol\":3167:3238  MilestoneAchieved(msg.sender, \"50 Workouts Completed\", block.timestamp) */\n      mload(0x40)\n      tag_75\n      swap2\n      swap1\n      tag_76\n      jump\t// in\n    tag_75:\n      mload(0x40)\n      dup1\n      swap2\n      sub\n      swap1\n      log2\n        /* \"day10-ActivityTracker/day10_activitytracker.sol\":3110:3250  if (totalWorkouts[msg.sender] == 50) {... */\n    tag_74:\n        /* \"day10-ActivityTracker/day10_activitytracker.sol\":2964:3250  if (totalWorkouts[msg.sender] == 10) {... */\n    tag_73:\n        /* \"day10-ActivityTracker/day10_activitytracker.sol\":3345:3351  100000 */\n      0x0186a0\n        /* \"day10-ActivityTracker/day10_activitytracker.sol\":3316:3329  totalDistance */\n      0x03\n        /* \"day10-ActivityTracker/day10_activitytracker.sol\":3316:3341  totalDistance[msg.sender] */\n      0x00\n        /* \"day10-ActivityTracker/day10_activitytracker.sol\":3330:3340  msg.sender */\n      caller\n        /* \"day10-ActivityTracker/day10_activitytracker.sol\":3316:3341  totalDistance[msg.sender] */\n      0xffffffffffffffffffffffffffffffffffffffff\n      and\n      0xffffffffffffffffffffffffffffffffffffffff\n      and\n      dup2\n      mstore\n      0x20\n      add\n      swap1\n      dup2\n      mstore\n      0x20\n      add\n      0x00\n      keccak256\n      sload\n        /* \"day10-ActivityTracker/day10_activitytracker.sol\":3316:3351  totalDistance[msg.sender] >= 100000 */\n      lt\n      iszero\n        /* \"day10-ActivityTracker/day10_activitytracker.sol\":3316:3401  totalDistance[msg.sender] >= 100000 && totalDistance[msg.sender] - _distance < 100000 */\n      dup1\n      iszero\n      tag_77\n      jumpi\n      pop\n        /* \"day10-ActivityTracker/day10_activitytracker.sol\":3395:3401  100000 */\n      0x0186a0\n        /* \"day10-ActivityTracker/day10_activitytracker.sol\":3383:3392  _distance */\n      dup3\n        /* \"day10-ActivityTracker/day10_activitytracker.sol\":3355:3368  totalDistance */\n      0x03\n        /* \"day10-ActivityTracker/day10_activitytracker.sol\":3355:3380  totalDistance[msg.sender] */\n      0x00\n        /* \"day10-ActivityTracker/day10_activitytracker.sol\":3369:3379  msg.sender */\n      caller\n        /* \"day10-ActivityTracker/day10_activitytracker.sol\":3355:3380  totalDistance[msg.sender] */\n      0xffffffffffffffffffffffffffffffffffffffff\n      and\n      0xffffffffffffffffffffffffffffffffffffffff\n      and\n      dup2\n      mstore\n      0x20\n      add\n      swap1\n      dup2\n      mstore\n      0x20\n      add\n      0x00\n      keccak256\n      sload\n        /* \"day10-ActivityTracker/day10_activitytracker.sol\":3355:3392  totalDistance[msg.sender] - _distance */\n      tag_78\n      swap2\n      swap1\n      tag_79\n      jump\t// in\n    tag_78:\n        /* \"day10-ActivityTracker/day10_activitytracker.sol\":3355:3401  totalDistance[msg.sender] - _distance < 100000 */\n      lt\n        /* \"day10-ActivityTracker/day10_activitytracker.sol\":3316:3401  totalDistance[msg.sender] >= 100000 && totalDistance[msg.sender] - _distance < 100000 */\n    tag_77:\n        /* \"day10-ActivityTracker/day10_activitytracker.sol\":3312:3504  if (totalDistance[msg.sender] >= 100000 && totalDistance[msg.sender] - _distance < 100000) {... */\n      iszero\n      tag_80\n      jumpi\n        /* \"day10-ActivityTracker/day10_activitytracker.sol\":3441:3451  msg.sender */\n      caller\n        /* \"day10-ActivityTracker/day10_activitytracker.sol\":3423:3492  MilestoneAchieved(msg.sender, \"100K Total Distance\", block.timestamp) */\n      0xffffffffffffffffffffffffffffffffffffffff\n      and\n      0x8e330a58901ae7dba0b65f495856eab3fc73fc6ceca3dd7fbd2f4f9d14876e37\n        /* \"day10-ActivityTracker/day10_activitytracker.sol\":3476:3491  block.timestamp */\n      timestamp\n        /* \"day10-ActivityTracker/day10_activitytracker.sol\":3423:3492  MilestoneAchieved(msg.sender, \"100K Total Distance\", block.timestamp) */\n      mload(0x40)\n      tag_81\n      swap2\n      swap1\n      tag_82\n      jump\t// in\n    tag_81:\n      mload(0x40)\n      dup1\n      swap2\n      sub\n      swap1\n      log2\n        /* \"day10-ActivityTracker/day10_activitytracker.sol\":3312:3504  if (totalDistance[msg.sender] >= 100000 && totalDistance[msg.sender] - _distance < 100000) {... */\n    tag_80:\n        /* \"day10-ActivityTracker/day10_activitytracker.sol\":2440:3511  {... */\n      pop\n        /* \"day10-ActivityTracker/day10_activitytracker.sol\":2331:3511  function logWorkout(string memory _activityType, uint256 _duration, uint256 _distance) public onlyRegistered {... */\n      pop\n      pop\n      pop\n      jump\t// out\n        /* \"day10-ActivityTracker/day10_activitytracker.sol\":390:943  function registerUser(string memory _name, uint256 _weight) public {... */\n    tag_39:\n        /* \"day10-ActivityTracker/day10_activitytracker.sol\":517:522  false */\n      0x00\n        /* \"day10-ActivityTracker/day10_activitytracker.sol\":476:522  userProfiles[msg.sender].isRegistered == false */\n      iszero\n      iszero\n        /* \"day10-ActivityTracker/day10_activitytracker.sol\":476:488  userProfiles */\n      0x00\n        /* \"day10-ActivityTracker/day10_activitytracker.sol\":476:500  userProfiles[msg.sender] */\n      0x00\n        /* \"day10-ActivityTracker/day10_activitytracker.sol\":489:499  msg.sender */\n      caller\n        /* \"day10-ActivityTracker/day10_activitytracker.sol\":476:500  userProfiles[msg.sender] */\n      0xffffffffffffffffffffffffffffffffffffffff\n      and\n      0xffffffffffffffffffffffffffffffffffffffff\n      and\n      dup2\n      mstore\n      0x20\n      add\n      swap1\n      dup2\n      mstore\n      0x20\n      add\n      0x00\n      keccak256\n        /* \"day10-ActivityTracker/day10_activitytracker.sol\":476:513  userProfiles[msg.sender].isRegistered */\n      0x02\n      add\n      0x00\n      swap1\n      sload\n      swap1\n      0x0100\n      exp\n      swap1\n      div\n      0xff\n      and\n        /* \"day10-ActivityTracker/day10_activitytracker.sol\":476:522  userProfiles[msg.sender].isRegistered == false */\n      iszero\n      iszero\n      eq\n        /* \"day10-ActivityTracker/day10_activitytracker.sol\":468:550  require(userProfiles[msg.sender].isRegistered == false, \"User already registered\") */\n      tag_84\n      jumpi\n      mload(0x40)\n      0x08c379a000000000000000000000000000000000000000000000000000000000\n      dup2\n      mstore\n      0x04\n      add\n      tag_85\n      swap1\n      tag_86\n      jump\t// in\n    tag_85:\n      mload(0x40)\n      dup1\n      swap2\n      sub\n      swap1\n      revert\n    tag_84:\n        /* \"day10-ActivityTracker/day10_activitytracker.sol\":754:867  UserProfile({... */\n      mload(0x40)\n      dup1\n      0x60\n      add\n      0x40\n      mstore\n      dup1\n        /* \"day10-ActivityTracker/day10_activitytracker.sol\":787:792  _name */\n      dup4\n        /* \"day10-ActivityTracker/day10_activitytracker.sol\":754:867  UserProfile({... */\n      dup2\n      mstore\n      0x20\n      add\n        /* \"day10-ActivityTracker/day10_activitytracker.sol\":815:822  _weight */\n      dup3\n        /* \"day10-ActivityTracker/day10_activitytracker.sol\":754:867  UserProfile({... */\n      dup2\n      mstore\n      0x20\n      add\n        /* \"day10-ActivityTracker/day10_activitytracker.sol\":851:855  true */\n      0x01\n        /* \"day10-ActivityTracker/day10_activitytracker.sol\":754:867  UserProfile({... */\n      iszero\n      iszero\n      dup2\n      mstore\n      pop\n        /* \"day10-ActivityTracker/day10_activitytracker.sol\":727:739  userProfiles */\n      0x00\n        /* \"day10-ActivityTracker/day10_activitytracker.sol\":727:751  userProfiles[msg.sender] */\n      0x00\n        /* \"day10-ActivityTracker/day10_activitytracker.sol\":740:750  msg.sender */\n      caller\n        /* \"day10-ActivityTracker/day10_activitytracker.sol\":727:751  userProfiles[msg.sender] */\n      0xffffffffffffffffffffffffffffffffffffffff\n      and\n      0xffffffffffffffffffffffffffffffffffffffff\n      and\n      dup2\n      mstore\n      0x20\n      add\n      swap1\n      dup2\n      mstore\n      0x20\n      add\n      0x00\n      keccak256\n        /* \"day10-ActivityTracker/day10_activitytracker.sol\":727:867  userProfiles[msg.sender] = UserProfile({... */\n      0x00\n      dup3\n      add\n      mload\n      dup2\n      0x00\n      add\n      swap1\n      dup2\n      tag_87\n      swap2\n      swap1\n      tag_64\n      jump\t// in\n    tag_87:\n      pop\n      0x20\n      dup3\n      add\n      mload\n      dup2\n      0x01\n      add\n      sstore\n      0x40\n      dup3\n      add\n      mload\n      dup2\n      0x02\n      add\n      exp(0x0100, 0x00)\n      dup2\n      sload\n      dup2\n      0xff\n      mul\n      not\n      and\n      swap1\n      dup4\n      iszero\n      iszero\n      mul\n      or\n      swap1\n      sstore\n      pop\n      swap1\n      pop\n      pop\n        /* \"day10-ActivityTracker/day10_activitytracker.sol\":912:917  _name */\n      dup2\n        /* \"day10-ActivityTracker/day10_activitytracker.sol\":885:935  UserRegistered(msg.sender, _name, block.timestamp) */\n      mload(0x40)\n      tag_88\n      swap2\n      swap1\n      tag_89\n      jump\t// in\n    tag_88:\n      mload(0x40)\n      dup1\n      swap2\n      sub\n      swap1\n      keccak256\n        /* \"day10-ActivityTracker/day10_activitytracker.sol\":900:910  msg.sender */\n      caller\n        /* \"day10-ActivityTracker/day10_activitytracker.sol\":885:935  UserRegistered(msg.sender, _name, block.timestamp) */\n      0xffffffffffffffffffffffffffffffffffffffff\n      and\n      0x89105a1c6a3c2fbd471255c66a31ccab604af5697f67d7e2e9a0028c5e4dbd91\n        /* \"day10-ActivityTracker/day10_activitytracker.sol\":919:934  block.timestamp */\n      timestamp\n        /* \"day10-ActivityTracker/day10_activitytracker.sol\":885:935  UserRegistered(msg.sender, _name, block.timestamp) */\n      mload(0x40)\n      tag_90\n      swap2\n      swap1\n      tag_16\n      jump\t// in\n    tag_90:\n      mload(0x40)\n      dup1\n      swap2\n      sub\n      swap1\n      log3\n        /* \"day10-ActivityTracker/day10_activitytracker.sol\":390:943  function registerUser(string memory _name, uint256 _weight) public {... */\n      pop\n      pop\n      jump\t// out\n        /* \"day10-ActivityTracker/day10_activitytracker.sol\":1258:1774  function updateWeight(uint256 _newWeight) public onlyRegistered {... */\n    tag_43:\n        /* \"day10-ActivityTracker/day10_activitytracker.sol\":996:1008  userProfiles */\n      0x00\n        /* \"day10-ActivityTracker/day10_activitytracker.sol\":996:1020  userProfiles[msg.sender] */\n      0x00\n        /* \"day10-ActivityTracker/day10_activitytracker.sol\":1009:1019  msg.sender */\n      caller\n        /* \"day10-ActivityTracker/day10_activitytracker.sol\":996:1020  userProfiles[msg.sender] */\n      0xffffffffffffffffffffffffffffffffffffffff\n      and\n      0xffffffffffffffffffffffffffffffffffffffff\n      and\n      dup2\n      mstore\n      0x20\n      add\n      swap1\n      dup2\n      mstore\n      0x20\n      add\n      0x00\n      keccak256\n        /* \"day10-ActivityTracker/day10_activitytracker.sol\":996:1033  userProfiles[msg.sender].isRegistered */\n      0x02\n      add\n      0x00\n      swap1\n      sload\n      swap1\n      0x0100\n      exp\n      swap1\n      div\n      0xff\n      and\n        /* \"day10-ActivityTracker/day10_activitytracker.sol\":988:1057  require(userProfiles[msg.sender].isRegistered, \"User not registered\") */\n      tag_92\n      jumpi\n      mload(0x40)\n      0x08c379a000000000000000000000000000000000000000000000000000000000\n      dup2\n      mstore\n      0x04\n      add\n      tag_93\n      swap1\n      tag_60\n      jump\t// in\n    tag_93:\n      mload(0x40)\n      dup1\n      swap2\n      sub\n      swap1\n      revert\n    tag_92:\n        /* \"day10-ActivityTracker/day10_activitytracker.sol\":1333:1360  UserProfile storage profile */\n      0x00\n        /* \"day10-ActivityTracker/day10_activitytracker.sol\":1363:1375  userProfiles */\n      0x00\n        /* \"day10-ActivityTracker/day10_activitytracker.sol\":1363:1387  userProfiles[msg.sender] */\n      0x00\n        /* \"day10-ActivityTracker/day10_activitytracker.sol\":1376:1386  msg.sender */\n      caller\n        /* \"day10-ActivityTracker/day10_activitytracker.sol\":1363:1387  userProfiles[msg.sender] */\n      0xffffffffffffffffffffffffffffffffffffffff\n      and\n      0xffffffffffffffffffffffffffffffffffffffff\n      and\n      dup2\n      mstore\n      0x20\n      add\n      swap1\n      dup2\n      mstore\n      0x20\n      add\n      0x00\n      keccak256\n        /* \"day10-ActivityTracker/day10_activitytracker.sol\":1333:1387  UserProfile storage profile = userProfiles[msg.sender] */\n      swap1\n      pop\n        /* \"day10-ActivityTracker/day10_activitytracker.sol\":1417:1424  profile */\n      dup1\n        /* \"day10-ActivityTracker/day10_activitytracker.sol\":1417:1431  profile.weight */\n      0x01\n      add\n      sload\n        /* \"day10-ActivityTracker/day10_activitytracker.sol\":1404:1414  _newWeight */\n      dup3\n        /* \"day10-ActivityTracker/day10_activitytracker.sol\":1404:1431  _newWeight < profile.weight */\n      lt\n        /* \"day10-ActivityTracker/day10_activitytracker.sol\":1404:1494  _newWeight < profile.weight && ((profile.weight - _newWeight) * 100 / profile.weight) >= 5 */\n      dup1\n      iszero\n      tag_95\n      jumpi\n      pop\n        /* \"day10-ActivityTracker/day10_activitytracker.sol\":1493:1494  5 */\n      0x05\n        /* \"day10-ActivityTracker/day10_activitytracker.sol\":1474:1481  profile */\n      dup2\n        /* \"day10-ActivityTracker/day10_activitytracker.sol\":1474:1488  profile.weight */\n      0x01\n      add\n      sload\n        /* \"day10-ActivityTracker/day10_activitytracker.sol\":1468:1471  100 */\n      0x64\n        /* \"day10-ActivityTracker/day10_activitytracker.sol\":1454:1464  _newWeight */\n      dup5\n        /* \"day10-ActivityTracker/day10_activitytracker.sol\":1437:1444  profile */\n      dup5\n        /* \"day10-ActivityTracker/day10_activitytracker.sol\":1437:1451  profile.weight */\n      0x01\n      add\n      sload\n        /* \"day10-ActivityTracker/day10_activitytracker.sol\":1437:1464  profile.weight - _newWeight */\n      tag_96\n      swap2\n      swap1\n      tag_79\n      jump\t// in\n    tag_96:\n        /* \"day10-ActivityTracker/day10_activitytracker.sol\":1436:1471  (profile.weight - _newWeight) * 100 */\n      tag_97\n      swap2\n      swap1\n      tag_98\n      jump\t// in\n    tag_97:\n        /* \"day10-ActivityTracker/day10_activitytracker.sol\":1436:1488  (profile.weight - _newWeight) * 100 / profile.weight */\n      tag_99\n      swap2\n      swap1\n      tag_100\n      jump\t// in\n    tag_99:\n        /* \"day10-ActivityTracker/day10_activitytracker.sol\":1435:1494  ((profile.weight - _newWeight) * 100 / profile.weight) >= 5 */\n      lt\n      iszero\n        /* \"day10-ActivityTracker/day10_activitytracker.sol\":1404:1494  _newWeight < profile.weight && ((profile.weight - _newWeight) * 100 / profile.weight) >= 5 */\n    tag_95:\n        /* \"day10-ActivityTracker/day10_activitytracker.sol\":1400:1597  if (_newWeight < profile.weight && ((profile.weight - _newWeight) * 100 / profile.weight) >= 5) {... */\n      iszero\n      tag_101\n      jumpi\n        /* \"day10-ActivityTracker/day10_activitytracker.sol\":1534:1544  msg.sender */\n      caller\n        /* \"day10-ActivityTracker/day10_activitytracker.sol\":1516:1585  MilestoneAchieved(msg.sender, \"Weight Goal Reached\", block.timestamp) */\n      0xffffffffffffffffffffffffffffffffffffffff\n      and\n      0x8e330a58901ae7dba0b65f495856eab3fc73fc6ceca3dd7fbd2f4f9d14876e37\n        /* \"day10-ActivityTracker/day10_activitytracker.sol\":1569:1584  block.timestamp */\n      timestamp\n        /* \"day10-ActivityTracker/day10_activitytracker.sol\":1516:1585  MilestoneAchieved(msg.sender, \"Weight Goal Reached\", block.timestamp) */\n      mload(0x40)\n      tag_102\n      swap2\n      swap1\n      tag_103\n      jump\t// in\n    tag_102:\n      mload(0x40)\n      dup1\n      swap2\n      sub\n      swap1\n      log2\n        /* \"day10-ActivityTracker/day10_activitytracker.sol\":1400:1597  if (_newWeight < profile.weight && ((profile.weight - _newWeight) * 100 / profile.weight) >= 5) {... */\n    tag_101:\n        /* \"day10-ActivityTracker/day10_activitytracker.sol\":1685:1695  _newWeight */\n      dup2\n        /* \"day10-ActivityTracker/day10_activitytracker.sol\":1668:1675  profile */\n      dup2\n        /* \"day10-ActivityTracker/day10_activitytracker.sol\":1668:1682  profile.weight */\n      0x01\n      add\n        /* \"day10-ActivityTracker/day10_activitytracker.sol\":1668:1695  profile.weight = _newWeight */\n      dup2\n      swap1\n      sstore\n      pop\n        /* \"day10-ActivityTracker/day10_activitytracker.sol\":1726:1736  msg.sender */\n      caller\n        /* \"day10-ActivityTracker/day10_activitytracker.sol\":1711:1766  ProfileUpdated(msg.sender, _newWeight, block.timestamp) */\n      0xffffffffffffffffffffffffffffffffffffffff\n      and\n      0x05826151879c9a557068ba4e389ba7f00512db472cc81778ea86696b2b0f5afd\n        /* \"day10-ActivityTracker/day10_activitytracker.sol\":1738:1748  _newWeight */\n      dup4\n        /* \"day10-ActivityTracker/day10_activitytracker.sol\":1750:1765  block.timestamp */\n      timestamp\n        /* \"day10-ActivityTracker/day10_activitytracker.sol\":1711:1766  ProfileUpdated(msg.sender, _newWeight, block.timestamp) */\n      mload(0x40)\n      tag_104\n      swap3\n      swap2\n      swap1\n      tag_105\n      jump\t// in\n    tag_104:\n      mload(0x40)\n      dup1\n      swap2\n      sub\n      swap1\n      log2\n        /* \"day10-ActivityTracker/day10_activitytracker.sol\":1322:1774  {... */\n      pop\n        /* \"day10-ActivityTracker/day10_activitytracker.sol\":1258:1774  function updateWeight(uint256 _newWeight) public onlyRegistered {... */\n      pop\n      jump\t// out\n        /* \"#utility.yul\":7:82   */\n    tag_106:\n        /* \"#utility.yul\":40:46   */\n      0x00\n        /* \"#utility.yul\":73:75   */\n      0x40\n        /* \"#utility.yul\":67:76   */\n      mload\n        /* \"#utility.yul\":57:76   */\n      swap1\n      pop\n        /* \"#utility.yul\":7:82   */\n      swap1\n      jump\t// out\n        /* \"#utility.yul\":88:205   */\n    tag_107:\n        /* \"#utility.yul\":197:198   */\n      0x00\n        /* \"#utility.yul\":194:195   */\n      0x00\n        /* \"#utility.yul\":187:199   */\n      revert\n        /* \"#utility.yul\":211:328   */\n    tag_108:\n        /* \"#utility.yul\":320:321   */\n      0x00\n        /* \"#utility.yul\":317:318   */\n      0x00\n        /* \"#utility.yul\":310:322   */\n      revert\n        /* \"#utility.yul\":334:460   */\n    tag_109:\n        /* \"#utility.yul\":371:378   */\n      0x00\n        /* \"#utility.yul\":411:453   */\n      0xffffffffffffffffffffffffffffffffffffffff\n        /* \"#utility.yul\":404:409   */\n      dup3\n        /* \"#utility.yul\":400:454   */\n      and\n        /* \"#utility.yul\":389:454   */\n      swap1\n      pop\n        /* \"#utility.yul\":334:460   */\n      swap2\n      swap1\n      pop\n      jump\t// out\n        /* \"#utility.yul\":466:562   */\n    tag_110:\n        /* \"#utility.yul\":503:510   */\n      0x00\n        /* \"#utility.yul\":532:556   */\n      tag_171\n        /* \"#utility.yul\":550:555   */\n      dup3\n        /* \"#utility.yul\":532:556   */\n      tag_109\n      jump\t// in\n    tag_171:\n        /* \"#utility.yul\":521:556   */\n      swap1\n      pop\n        /* \"#utility.yul\":466:562   */\n      swap2\n      swap1\n      pop\n      jump\t// out\n        /* \"#utility.yul\":568:690   */\n    tag_111:\n        /* \"#utility.yul\":641:665   */\n      tag_173\n        /* \"#utility.yul\":659:664   */\n      dup2\n        /* \"#utility.yul\":641:665   */\n      tag_110\n      jump\t// in\n    tag_173:\n        /* \"#utility.yul\":634:639   */\n      dup2\n        /* \"#utility.yul\":631:666   */\n      eq\n        /* \"#utility.yul\":621:684   */\n      tag_174\n      jumpi\n        /* \"#utility.yul\":680:681   */\n      0x00\n        /* \"#utility.yul\":677:678   */\n      0x00\n        /* \"#utility.yul\":670:682   */\n      revert\n        /* \"#utility.yul\":621:684   */\n    tag_174:\n        /* \"#utility.yul\":568:690   */\n      pop\n      jump\t// out\n        /* \"#utility.yul\":696:835   */\n    tag_112:\n        /* \"#utility.yul\":742:747   */\n      0x00\n        /* \"#utility.yul\":780:786   */\n      dup2\n        /* \"#utility.yul\":767:787   */\n      calldataload\n        /* \"#utility.yul\":758:787   */\n      swap1\n      pop\n        /* \"#utility.yul\":796:829   */\n      tag_176\n        /* \"#utility.yul\":823:828   */\n      dup2\n        /* \"#utility.yul\":796:829   */\n      tag_111\n      jump\t// in\n    tag_176:\n        /* \"#utility.yul\":696:835   */\n      swap3\n      swap2\n      pop\n      pop\n      jump\t// out\n        /* \"#utility.yul\":841:1170   */\n    tag_13:\n        /* \"#utility.yul\":900:906   */\n      0x00\n        /* \"#utility.yul\":949:951   */\n      0x20\n        /* \"#utility.yul\":937:946   */\n      dup3\n        /* \"#utility.yul\":928:935   */\n      dup5\n        /* \"#utility.yul\":924:947   */\n      sub\n        /* \"#utility.yul\":920:952   */\n      slt\n        /* \"#utility.yul\":917:1036   */\n      iszero\n      tag_178\n      jumpi\n        /* \"#utility.yul\":955:1034   */\n      tag_179\n      tag_107\n      jump\t// in\n    tag_179:\n        /* \"#utility.yul\":917:1036   */\n    tag_178:\n        /* \"#utility.yul\":1075:1076   */\n      0x00\n        /* \"#utility.yul\":1100:1153   */\n      tag_180\n        /* \"#utility.yul\":1145:1152   */\n      dup5\n        /* \"#utility.yul\":1136:1142   */\n      dup3\n        /* \"#utility.yul\":1125:1134   */\n      dup6\n        /* \"#utility.yul\":1121:1143   */\n      add\n        /* \"#utility.yul\":1100:1153   */\n      tag_112\n      jump\t// in\n    tag_180:\n        /* \"#utility.yul\":1090:1153   */\n      swap2\n      pop\n        /* \"#utility.yul\":1046:1163   */\n      pop\n        /* \"#utility.yul\":841:1170   */\n      swap3\n      swap2\n      pop\n      pop\n      jump\t// out\n        /* \"#utility.yul\":1176:1253   */\n    tag_113:\n        /* \"#utility.yul\":1213:1220   */\n      0x00\n        /* \"#utility.yul\":1242:1247   */\n      dup2\n        /* \"#utility.yul\":1231:1247   */\n      swap1\n      pop\n        /* \"#utility.yul\":1176:1253   */\n      swap2\n      swap1\n      pop\n      jump\t// out\n        /* \"#utility.yul\":1259:1377   */\n    tag_114:\n        /* \"#utility.yul\":1346:1370   */\n      tag_183\n        /* \"#utility.yul\":1364:1369   */\n      dup2\n        /* \"#utility.yul\":1346:1370   */\n      tag_113\n      jump\t// in\n    tag_183:\n        /* \"#utility.yul\":1341:1344   */\n      dup3\n        /* \"#utility.yul\":1334:1371   */\n      mstore\n        /* \"#utility.yul\":1259:1377   */\n      pop\n      pop\n      jump\t// out\n        /* \"#utility.yul\":1383:1605   */\n    tag_16:\n        /* \"#utility.yul\":1476:1480   */\n      0x00\n        /* \"#utility.yul\":1514:1516   */\n      0x20\n        /* \"#utility.yul\":1503:1512   */\n      dup3\n        /* \"#utility.yul\":1499:1517   */\n      add\n        /* \"#utility.yul\":1491:1517   */\n      swap1\n      pop\n        /* \"#utility.yul\":1527:1598   */\n      tag_185\n        /* \"#utility.yul\":1595:1596   */\n      0x00\n        /* \"#utility.yul\":1584:1593   */\n      dup4\n        /* \"#utility.yul\":1580:1597   */\n      add\n        /* \"#utility.yul\":1571:1577   */\n      dup5\n        /* \"#utility.yul\":1527:1598   */\n      tag_114\n      jump\t// in\n    tag_185:\n        /* \"#utility.yul\":1383:1605   */\n      swap3\n      swap2\n      pop\n      pop\n      jump\t// out\n        /* \"#utility.yul\":1611:1710   */\n    tag_115:\n        /* \"#utility.yul\":1663:1669   */\n      0x00\n        /* \"#utility.yul\":1697:1702   */\n      dup2\n        /* \"#utility.yul\":1691:1703   */\n      mload\n        /* \"#utility.yul\":1681:1703   */\n      swap1\n      pop\n        /* \"#utility.yul\":1611:1710   */\n      swap2\n      swap1\n      pop\n      jump\t// out\n        /* \"#utility.yul\":1716:1885   */\n    tag_116:\n        /* \"#utility.yul\":1800:1811   */\n      0x00\n        /* \"#utility.yul\":1834:1840   */\n      dup3\n        /* \"#utility.yul\":1829:1832   */\n      dup3\n        /* \"#utility.yul\":1822:1841   */\n      mstore\n        /* \"#utility.yul\":1874:1878   */\n      0x20\n        /* \"#utility.yul\":1869:1872   */\n      dup3\n        /* \"#utility.yul\":1865:1879   */\n      add\n        /* \"#utility.yul\":1850:1879   */\n      swap1\n      pop\n        /* \"#utility.yul\":1716:1885   */\n      swap3\n      swap2\n      pop\n      pop\n      jump\t// out\n        /* \"#utility.yul\":1891:2030   */\n    tag_117:\n        /* \"#utility.yul\":1980:1986   */\n      dup3\n        /* \"#utility.yul\":1975:1978   */\n      dup2\n        /* \"#utility.yul\":1970:1973   */\n      dup4\n        /* \"#utility.yul\":1964:1987   */\n      mcopy\n        /* \"#utility.yul\":2021:2022   */\n      0x00\n        /* \"#utility.yul\":2012:2018   */\n      dup4\n        /* \"#utility.yul\":2007:2010   */\n      dup4\n        /* \"#utility.yul\":2003:2019   */\n      add\n        /* \"#utility.yul\":1996:2023   */\n      mstore\n        /* \"#utility.yul\":1891:2030   */\n      pop\n      pop\n      pop\n      jump\t// out\n        /* \"#utility.yul\":2036:2138   */\n    tag_118:\n        /* \"#utility.yul\":2077:2083   */\n      0x00\n        /* \"#utility.yul\":2128:2130   */\n      0x1f\n        /* \"#utility.yul\":2124:2131   */\n      not\n        /* \"#utility.yul\":2119:2121   */\n      0x1f\n        /* \"#utility.yul\":2112:2117   */\n      dup4\n        /* \"#utility.yul\":2108:2122   */\n      add\n        /* \"#utility.yul\":2104:2132   */\n      and\n        /* \"#utility.yul\":2094:2132   */\n      swap1\n      pop\n        /* \"#utility.yul\":2036:2138   */\n      swap2\n      swap1\n      pop\n      jump\t// out\n        /* \"#utility.yul\":2144:2521   */\n    tag_119:\n        /* \"#utility.yul\":2232:2235   */\n      0x00\n        /* \"#utility.yul\":2260:2299   */\n      tag_191\n        /* \"#utility.yul\":2293:2298   */\n      dup3\n        /* \"#utility.yul\":2260:2299   */\n      tag_115\n      jump\t// in\n    tag_191:\n        /* \"#utility.yul\":2315:2386   */\n      tag_192\n        /* \"#utility.yul\":2379:2385   */\n      dup2\n        /* \"#utility.yul\":2374:2377   */\n      dup6\n        /* \"#utility.yul\":2315:2386   */\n      tag_116\n      jump\t// in\n    tag_192:\n        /* \"#utility.yul\":2308:2386   */\n      swap4\n      pop\n        /* \"#utility.yul\":2395:2460   */\n      tag_193\n        /* \"#utility.yul\":2453:2459   */\n      dup2\n        /* \"#utility.yul\":2448:2451   */\n      dup6\n        /* \"#utility.yul\":2441:2445   */\n      0x20\n        /* \"#utility.yul\":2434:2439   */\n      dup7\n        /* \"#utility.yul\":2430:2446   */\n      add\n        /* \"#utility.yul\":2395:2460   */\n      tag_117\n      jump\t// in\n    tag_193:\n        /* \"#utility.yul\":2485:2514   */\n      tag_194\n        /* \"#utility.yul\":2507:2513   */\n      dup2\n        /* \"#utility.yul\":2485:2514   */\n      tag_118\n      jump\t// in\n    tag_194:\n        /* \"#utility.yul\":2480:2483   */\n      dup5\n        /* \"#utility.yul\":2476:2515   */\n      add\n        /* \"#utility.yul\":2469:2515   */\n      swap2\n      pop\n        /* \"#utility.yul\":2236:2521   */\n      pop\n        /* \"#utility.yul\":2144:2521   */\n      swap3\n      swap2\n      pop\n      pop\n      jump\t// out\n        /* \"#utility.yul\":2527:2617   */\n    tag_120:\n        /* \"#utility.yul\":2561:2568   */\n      0x00\n        /* \"#utility.yul\":2604:2609   */\n      dup2\n        /* \"#utility.yul\":2597:2610   */\n      iszero\n        /* \"#utility.yul\":2590:2611   */\n      iszero\n        /* \"#utility.yul\":2579:2611   */\n      swap1\n      pop\n        /* \"#utility.yul\":2527:2617   */\n      swap2\n      swap1\n      pop\n      jump\t// out\n        /* \"#utility.yul\":2623:2732   */\n    tag_121:\n        /* \"#utility.yul\":2704:2725   */\n      tag_197\n        /* \"#utility.yul\":2719:2724   */\n      dup2\n        /* \"#utility.yul\":2704:2725   */\n      tag_120\n      jump\t// in\n    tag_197:\n        /* \"#utility.yul\":2699:2702   */\n      dup3\n        /* \"#utility.yul\":2692:2726   */\n      mstore\n        /* \"#utility.yul\":2623:2732   */\n      pop\n      pop\n      jump\t// out\n        /* \"#utility.yul\":2738:3259   */\n    tag_21:\n        /* \"#utility.yul\":2901:2905   */\n      0x00\n        /* \"#utility.yul\":2939:2941   */\n      0x60\n        /* \"#utility.yul\":2928:2937   */\n      dup3\n        /* \"#utility.yul\":2924:2942   */\n      add\n        /* \"#utility.yul\":2916:2942   */\n      swap1\n      pop\n        /* \"#utility.yul\":2988:2997   */\n      dup2\n        /* \"#utility.yul\":2982:2986   */\n      dup2\n        /* \"#utility.yul\":2978:2998   */\n      sub\n        /* \"#utility.yul\":2974:2975   */\n      0x00\n        /* \"#utility.yul\":2963:2972   */\n      dup4\n        /* \"#utility.yul\":2959:2976   */\n      add\n        /* \"#utility.yul\":2952:2999   */\n      mstore\n        /* \"#utility.yul\":3016:3094   */\n      tag_199\n        /* \"#utility.yul\":3089:3093   */\n      dup2\n        /* \"#utility.yul\":3080:3086   */\n      dup7\n        /* \"#utility.yul\":3016:3094   */\n      tag_119\n      jump\t// in\n    tag_199:\n        /* \"#utility.yul\":3008:3094   */\n      swap1\n      pop\n        /* \"#utility.yul\":3104:3176   */\n      tag_200\n        /* \"#utility.yul\":3172:3174   */\n      0x20\n        /* \"#utility.yul\":3161:3170   */\n      dup4\n        /* \"#utility.yul\":3157:3175   */\n      add\n        /* \"#utility.yul\":3148:3154   */\n      dup6\n        /* \"#utility.yul\":3104:3176   */\n      tag_114\n      jump\t// in\n    tag_200:\n        /* \"#utility.yul\":3186:3252   */\n      tag_201\n        /* \"#utility.yul\":3248:3250   */\n      0x40\n        /* \"#utility.yul\":3237:3246   */\n      dup4\n        /* \"#utility.yul\":3233:3251   */\n      add\n        /* \"#utility.yul\":3224:3230   */\n      dup5\n        /* \"#utility.yul\":3186:3252   */\n      tag_121\n      jump\t// in\n    tag_201:\n        /* \"#utility.yul\":2738:3259   */\n      swap5\n      swap4\n      pop\n      pop\n      pop\n      pop\n      jump\t// out\n        /* \"#utility.yul\":3265:3387   */\n    tag_122:\n        /* \"#utility.yul\":3338:3362   */\n      tag_203\n        /* \"#utility.yul\":3356:3361   */\n      dup2\n        /* \"#utility.yul\":3338:3362   */\n      tag_113\n      jump\t// in\n    tag_203:\n        /* \"#utility.yul\":3331:3336   */\n      dup2\n        /* \"#utility.yul\":3328:3363   */\n      eq\n        /* \"#utility.yul\":3318:3381   */\n      tag_204\n      jumpi\n        /* \"#utility.yul\":3377:3378   */\n      0x00\n        /* \"#utility.yul\":3374:3375   */\n      0x00\n        /* \"#utility.yul\":3367:3379   */\n      revert\n        /* \"#utility.yul\":3318:3381   */\n    tag_204:\n        /* \"#utility.yul\":3265:3387   */\n      pop\n      jump\t// out\n        /* \"#utility.yul\":3393:3532   */\n    tag_123:\n        /* \"#utility.yul\":3439:3444   */\n      0x00\n        /* \"#utility.yul\":3477:3483   */\n      dup2\n        /* \"#utility.yul\":3464:3484   */\n      calldataload\n        /* \"#utility.yul\":3455:3484   */\n      swap1\n      pop\n        /* \"#utility.yul\":3493:3526   */\n      tag_206\n        /* \"#utility.yul\":3520:3525   */\n      dup2\n        /* \"#utility.yul\":3493:3526   */\n      tag_122\n      jump\t// in\n    tag_206:\n        /* \"#utility.yul\":3393:3532   */\n      swap3\n      swap2\n      pop\n      pop\n      jump\t// out\n        /* \"#utility.yul\":3538:4012   */\n    tag_24:\n        /* \"#utility.yul\":3606:3612   */\n      0x00\n        /* \"#utility.yul\":3614:3620   */\n      0x00\n        /* \"#utility.yul\":3663:3665   */\n      0x40\n        /* \"#utility.yul\":3651:3660   */\n      dup4\n        /* \"#utility.yul\":3642:3649   */\n      dup6\n        /* \"#utility.yul\":3638:3661   */\n      sub\n        /* \"#utility.yul\":3634:3666   */\n      slt\n        /* \"#utility.yul\":3631:3750   */\n      iszero\n      tag_208\n      jumpi\n        /* \"#utility.yul\":3669:3748   */\n      tag_209\n      tag_107\n      jump\t// in\n    tag_209:\n        /* \"#utility.yul\":3631:3750   */\n    tag_208:\n        /* \"#utility.yul\":3789:3790   */\n      0x00\n        /* \"#utility.yul\":3814:3867   */\n      tag_210\n        /* \"#utility.yul\":3859:3866   */\n      dup6\n        /* \"#utility.yul\":3850:3856   */\n      dup3\n        /* \"#utility.yul\":3839:3848   */\n      dup7\n        /* \"#utility.yul\":3835:3857   */\n      add\n        /* \"#utility.yul\":3814:3867   */\n      tag_112\n      jump\t// in\n    tag_210:\n        /* \"#utility.yul\":3804:3867   */\n      swap3\n      pop\n        /* \"#utility.yul\":3760:3877   */\n      pop\n        /* \"#utility.yul\":3916:3918   */\n      0x20\n        /* \"#utility.yul\":3942:3995   */\n      tag_211\n        /* \"#utility.yul\":3987:3994   */\n      dup6\n        /* \"#utility.yul\":3978:3984   */\n      dup3\n        /* \"#utility.yul\":3967:3976   */\n      dup7\n        /* \"#utility.yul\":3963:3985   */\n      add\n        /* \"#utility.yul\":3942:3995   */\n      tag_123\n      jump\t// in\n    tag_211:\n        /* \"#utility.yul\":3932:3995   */\n      swap2\n      pop\n        /* \"#utility.yul\":3887:4005   */\n      pop\n        /* \"#utility.yul\":3538:4012   */\n      swap3\n      pop\n      swap3\n      swap1\n      pop\n      jump\t// out\n        /* \"#utility.yul\":4018:4662   */\n    tag_27:\n        /* \"#utility.yul\":4215:4219   */\n      0x00\n        /* \"#utility.yul\":4253:4256   */\n      0x80\n        /* \"#utility.yul\":4242:4251   */\n      dup3\n        /* \"#utility.yul\":4238:4257   */\n      add\n        /* \"#utility.yul\":4230:4257   */\n      swap1\n      pop\n        /* \"#utility.yul\":4303:4312   */\n      dup2\n        /* \"#utility.yul\":4297:4301   */\n      dup2\n        /* \"#utility.yul\":4293:4313   */\n      sub\n        /* \"#utility.yul\":4289:4290   */\n      0x00\n        /* \"#utility.yul\":4278:4287   */\n      dup4\n        /* \"#utility.yul\":4274:4291   */\n      add\n        /* \"#utility.yul\":4267:4314   */\n      mstore\n        /* \"#utility.yul\":4331:4409   */\n      tag_213\n        /* \"#utility.yul\":4404:4408   */\n      dup2\n        /* \"#utility.yul\":4395:4401   */\n      dup8\n        /* \"#utility.yul\":4331:4409   */\n      tag_119\n      jump\t// in\n    tag_213:\n        /* \"#utility.yul\":4323:4409   */\n      swap1\n      pop\n        /* \"#utility.yul\":4419:4491   */\n      tag_214\n        /* \"#utility.yul\":4487:4489   */\n      0x20\n        /* \"#utility.yul\":4476:4485   */\n      dup4\n        /* \"#utility.yul\":4472:4490   */\n      add\n        /* \"#utility.yul\":4463:4469   */\n      dup7\n        /* \"#utility.yul\":4419:4491   */\n      tag_114\n      jump\t// in\n    tag_214:\n        /* \"#utility.yul\":4501:4573   */\n      tag_215\n        /* \"#utility.yul\":4569:4571   */\n      0x40\n        /* \"#utility.yul\":4558:4567   */\n      dup4\n        /* \"#utility.yul\":4554:4572   */\n      add\n        /* \"#utility.yul\":4545:4551   */\n      dup6\n        /* \"#utility.yul\":4501:4573   */\n      tag_114\n      jump\t// in\n    tag_215:\n        /* \"#utility.yul\":4583:4655   */\n      tag_216\n        /* \"#utility.yul\":4651:4653   */\n      0x60\n        /* \"#utility.yul\":4640:4649   */\n      dup4\n        /* \"#utility.yul\":4636:4654   */\n      add\n        /* \"#utility.yul\":4627:4633   */\n      dup5\n        /* \"#utility.yul\":4583:4655   */\n      tag_114\n      jump\t// in\n    tag_216:\n        /* \"#utility.yul\":4018:4662   */\n      swap6\n      swap5\n      pop\n      pop\n      pop\n      pop\n      pop\n      jump\t// out\n        /* \"#utility.yul\":4668:4785   */\n    tag_124:\n        /* \"#utility.yul\":4777:4778   */\n      0x00\n        /* \"#utility.yul\":4774:4775   */\n      0x00\n        /* \"#utility.yul\":4767:4779   */\n      revert\n        /* \"#utility.yul\":4791:4908   */\n    tag_125:\n        /* \"#utility.yul\":4900:4901   */\n      0x00\n        /* \"#utility.yul\":4897:4898   */\n      0x00\n        /* \"#utility.yul\":4890:4902   */\n      revert\n        /* \"#utility.yul\":4914:5094   */\n    tag_126:\n        /* \"#utility.yul\":4962:5039   */\n      0x4e487b7100000000000000000000000000000000000000000000000000000000\n        /* \"#utility.yul\":4959:4960   */\n      0x00\n        /* \"#utility.yul\":4952:5040   */\n      mstore\n        /* \"#utility.yul\":5059:5063   */\n      0x41\n        /* \"#utility.yul\":5056:5057   */\n      0x04\n        /* \"#utility.yul\":5049:5064   */\n      mstore\n        /* \"#utility.yul\":5083:5087   */\n      0x24\n        /* \"#utility.yul\":5080:5081   */\n      0x00\n        /* \"#utility.yul\":5073:5088   */\n      revert\n        /* \"#utility.yul\":5100:5381   */\n    tag_127:\n        /* \"#utility.yul\":5183:5210   */\n      tag_221\n        /* \"#utility.yul\":5205:5209   */\n      dup3\n        /* \"#utility.yul\":5183:5210   */\n      tag_118\n      jump\t// in\n    tag_221:\n        /* \"#utility.yul\":5175:5181   */\n      dup2\n        /* \"#utility.yul\":5171:5211   */\n      add\n        /* \"#utility.yul\":5313:5319   */\n      dup2\n        /* \"#utility.yul\":5301:5311   */\n      dup2\n        /* \"#utility.yul\":5298:5320   */\n      lt\n        /* \"#utility.yul\":5277:5295   */\n      0xffffffffffffffff\n        /* \"#utility.yul\":5265:5275   */\n      dup3\n        /* \"#utility.yul\":5262:5296   */\n      gt\n        /* \"#utility.yul\":5259:5321   */\n      or\n        /* \"#utility.yul\":5256:5344   */\n      iszero\n      tag_222\n      jumpi\n        /* \"#utility.yul\":5324:5342   */\n      tag_223\n      tag_126\n      jump\t// in\n    tag_223:\n        /* \"#utility.yul\":5256:5344   */\n    tag_222:\n        /* \"#utility.yul\":5364:5374   */\n      dup1\n        /* \"#utility.yul\":5360:5362   */\n      0x40\n        /* \"#utility.yul\":5353:5375   */\n      mstore\n        /* \"#utility.yul\":5143:5381   */\n      pop\n        /* \"#utility.yul\":5100:5381   */\n      pop\n      pop\n      jump\t// out\n        /* \"#utility.yul\":5387:5516   */\n    tag_128:\n        /* \"#utility.yul\":5421:5427   */\n      0x00\n        /* \"#utility.yul\":5448:5468   */\n      tag_225\n      tag_106\n      jump\t// in\n    tag_225:\n        /* \"#utility.yul\":5438:5468   */\n      swap1\n      pop\n        /* \"#utility.yul\":5477:5510   */\n      tag_226\n        /* \"#utility.yul\":5505:5509   */\n      dup3\n        /* \"#utility.yul\":5497:5503   */\n      dup3\n        /* \"#utility.yul\":5477:5510   */\n      tag_127\n      jump\t// in\n    tag_226:\n        /* \"#utility.yul\":5387:5516   */\n      swap2\n      swap1\n      pop\n      jump\t// out\n        /* \"#utility.yul\":5522:5830   */\n    tag_129:\n        /* \"#utility.yul\":5584:5588   */\n      0x00\n        /* \"#utility.yul\":5674:5692   */\n      0xffffffffffffffff\n        /* \"#utility.yul\":5666:5672   */\n      dup3\n        /* \"#utility.yul\":5663:5693   */\n      gt\n        /* \"#utility.yul\":5660:5716   */\n      iszero\n      tag_228\n      jumpi\n        /* \"#utility.yul\":5696:5714   */\n      tag_229\n      tag_126\n      jump\t// in\n    tag_229:\n        /* \"#utility.yul\":5660:5716   */\n    tag_228:\n        /* \"#utility.yul\":5734:5763   */\n      tag_230\n        /* \"#utility.yul\":5756:5762   */\n      dup3\n        /* \"#utility.yul\":5734:5763   */\n      tag_118\n      jump\t// in\n    tag_230:\n        /* \"#utility.yul\":5726:5763   */\n      swap1\n      pop\n        /* \"#utility.yul\":5818:5822   */\n      0x20\n        /* \"#utility.yul\":5812:5816   */\n      dup2\n        /* \"#utility.yul\":5808:5823   */\n      add\n        /* \"#utility.yul\":5800:5823   */\n      swap1\n      pop\n        /* \"#utility.yul\":5522:5830   */\n      swap2\n      swap1\n      pop\n      jump\t// out\n        /* \"#utility.yul\":5836:5984   */\n    tag_130:\n        /* \"#utility.yul\":5934:5940   */\n      dup3\n        /* \"#utility.yul\":5929:5932   */\n      dup2\n        /* \"#utility.yul\":5924:5927   */\n      dup4\n        /* \"#utility.yul\":5911:5941   */\n      calldatacopy\n        /* \"#utility.yul\":5975:5976   */\n      0x00\n        /* \"#utility.yul\":5966:5972   */\n      dup4\n        /* \"#utility.yul\":5961:5964   */\n      dup4\n        /* \"#utility.yul\":5957:5973   */\n      add\n        /* \"#utility.yul\":5950:5977   */\n      mstore\n        /* \"#utility.yul\":5836:5984   */\n      pop\n      pop\n      pop\n      jump\t// out\n        /* \"#utility.yul\":5990:6415   */\n    tag_131:\n        /* \"#utility.yul\":6068:6073   */\n      0x00\n        /* \"#utility.yul\":6093:6159   */\n      tag_233\n        /* \"#utility.yul\":6109:6158   */\n      tag_234\n        /* \"#utility.yul\":6151:6157   */\n      dup5\n        /* \"#utility.yul\":6109:6158   */\n      tag_129\n      jump\t// in\n    tag_234:\n        /* \"#utility.yul\":6093:6159   */\n      tag_128\n      jump\t// in\n    tag_233:\n        /* \"#utility.yul\":6084:6159   */\n      swap1\n      pop\n        /* \"#utility.yul\":6182:6188   */\n      dup3\n        /* \"#utility.yul\":6175:6180   */\n      dup2\n        /* \"#utility.yul\":6168:6189   */\n      mstore\n        /* \"#utility.yul\":6220:6224   */\n      0x20\n        /* \"#utility.yul\":6213:6218   */\n      dup2\n        /* \"#utility.yul\":6209:6225   */\n      add\n        /* \"#utility.yul\":6258:6261   */\n      dup5\n        /* \"#utility.yul\":6249:6255   */\n      dup5\n        /* \"#utility.yul\":6244:6247   */\n      dup5\n        /* \"#utility.yul\":6240:6256   */\n      add\n        /* \"#utility.yul\":6237:6262   */\n      gt\n        /* \"#utility.yul\":6234:6346   */\n      iszero\n      tag_235\n      jumpi\n        /* \"#utility.yul\":6265:6344   */\n      tag_236\n      tag_125\n      jump\t// in\n    tag_236:\n        /* \"#utility.yul\":6234:6346   */\n    tag_235:\n        /* \"#utility.yul\":6355:6409   */\n      tag_237\n        /* \"#utility.yul\":6402:6408   */\n      dup5\n        /* \"#utility.yul\":6397:6400   */\n      dup3\n        /* \"#utility.yul\":6392:6395   */\n      dup6\n        /* \"#utility.yul\":6355:6409   */\n      tag_130\n      jump\t// in\n    tag_237:\n        /* \"#utility.yul\":6074:6415   */\n      pop\n        /* \"#utility.yul\":5990:6415   */\n      swap4\n      swap3\n      pop\n      pop\n      pop\n      jump\t// out\n        /* \"#utility.yul\":6435:6775   */\n    tag_132:\n        /* \"#utility.yul\":6491:6496   */\n      0x00\n        /* \"#utility.yul\":6540:6543   */\n      dup3\n        /* \"#utility.yul\":6533:6537   */\n      0x1f\n        /* \"#utility.yul\":6525:6531   */\n      dup4\n        /* \"#utility.yul\":6521:6538   */\n      add\n        /* \"#utility.yul\":6517:6544   */\n      slt\n        /* \"#utility.yul\":6507:6629   */\n      tag_239\n      jumpi\n        /* \"#utility.yul\":6548:6627   */\n      tag_240\n      tag_124\n      jump\t// in\n    tag_240:\n        /* \"#utility.yul\":6507:6629   */\n    tag_239:\n        /* \"#utility.yul\":6665:6671   */\n      dup2\n        /* \"#utility.yul\":6652:6672   */\n      calldataload\n        /* \"#utility.yul\":6690:6769   */\n      tag_241\n        /* \"#utility.yul\":6765:6768   */\n      dup5\n        /* \"#utility.yul\":6757:6763   */\n      dup3\n        /* \"#utility.yul\":6750:6754   */\n      0x20\n        /* \"#utility.yul\":6742:6748   */\n      dup7\n        /* \"#utility.yul\":6738:6755   */\n      add\n        /* \"#utility.yul\":6690:6769   */\n      tag_131\n      jump\t// in\n    tag_241:\n        /* \"#utility.yul\":6681:6769   */\n      swap2\n      pop\n        /* \"#utility.yul\":6497:6775   */\n      pop\n        /* \"#utility.yul\":6435:6775   */\n      swap3\n      swap2\n      pop\n      pop\n      jump\t// out\n        /* \"#utility.yul\":6781:7580   */\n    tag_34:\n        /* \"#utility.yul\":6868:6874   */\n      0x00\n        /* \"#utility.yul\":6876:6882   */\n      0x00\n        /* \"#utility.yul\":6884:6890   */\n      0x00\n        /* \"#utility.yul\":6933:6935   */\n      0x60\n        /* \"#utility.yul\":6921:6930   */\n      dup5\n        /* \"#utility.yul\":6912:6919   */\n      dup7\n        /* \"#utility.yul\":6908:6931   */\n      sub\n        /* \"#utility.yul\":6904:6936   */\n      slt\n        /* \"#utility.yul\":6901:7020   */\n      iszero\n      tag_243\n      jumpi\n        /* \"#utility.yul\":6939:7018   */\n      tag_244\n      tag_107\n      jump\t// in\n    tag_244:\n        /* \"#utility.yul\":6901:7020   */\n    tag_243:\n        /* \"#utility.yul\":7087:7088   */\n      0x00\n        /* \"#utility.yul\":7076:7085   */\n      dup5\n        /* \"#utility.yul\":7072:7089   */\n      add\n        /* \"#utility.yul\":7059:7090   */\n      calldataload\n        /* \"#utility.yul\":7117:7135   */\n      0xffffffffffffffff\n        /* \"#utility.yul\":7109:7115   */\n      dup2\n        /* \"#utility.yul\":7106:7136   */\n      gt\n        /* \"#utility.yul\":7103:7220   */\n      iszero\n      tag_245\n      jumpi\n        /* \"#utility.yul\":7139:7218   */\n      tag_246\n      tag_108\n      jump\t// in\n    tag_246:\n        /* \"#utility.yul\":7103:7220   */\n    tag_245:\n        /* \"#utility.yul\":7244:7307   */\n      tag_247\n        /* \"#utility.yul\":7299:7306   */\n      dup7\n        /* \"#utility.yul\":7290:7296   */\n      dup3\n        /* \"#utility.yul\":7279:7288   */\n      dup8\n        /* \"#utility.yul\":7275:7297   */\n      add\n        /* \"#utility.yul\":7244:7307   */\n      tag_132\n      jump\t// in\n    tag_247:\n        /* \"#utility.yul\":7234:7307   */\n      swap4\n      pop\n        /* \"#utility.yul\":7030:7317   */\n      pop\n        /* \"#utility.yul\":7356:7358   */\n      0x20\n        /* \"#utility.yul\":7382:7435   */\n      tag_248\n        /* \"#utility.yul\":7427:7434   */\n      dup7\n        /* \"#utility.yul\":7418:7424   */\n      dup3\n        /* \"#utility.yul\":7407:7416   */\n      dup8\n        /* \"#utility.yul\":7403:7425   */\n      add\n        /* \"#utility.yul\":7382:7435   */\n      tag_123\n      jump\t// in\n    tag_248:\n        /* \"#utility.yul\":7372:7435   */\n      swap3\n      pop\n        /* \"#utility.yul\":7327:7445   */\n      pop\n        /* \"#utility.yul\":7484:7486   */\n      0x40\n        /* \"#utility.yul\":7510:7563   */\n      tag_249\n        /* \"#utility.yul\":7555:7562   */\n      dup7\n        /* \"#utility.yul\":7546:7552   */\n      dup3\n        /* \"#utility.yul\":7535:7544   */\n      dup8\n        /* \"#utility.yul\":7531:7553   */\n      add\n        /* \"#utility.yul\":7510:7563   */\n      tag_123\n      jump\t// in\n    tag_249:\n        /* \"#utility.yul\":7500:7563   */\n      swap2\n      pop\n        /* \"#utility.yul\":7455:7573   */\n      pop\n        /* \"#utility.yul\":6781:7580   */\n      swap3\n      pop\n      swap3\n      pop\n      swap3\n      jump\t// out\n        /* \"#utility.yul\":7586:8240   */\n    tag_38:\n        /* \"#utility.yul\":7664:7670   */\n      0x00\n        /* \"#utility.yul\":7672:7678   */\n      0x00\n        /* \"#utility.yul\":7721:7723   */\n      0x40\n        /* \"#utility.yul\":7709:7718   */\n      dup4\n        /* \"#utility.yul\":7700:7707   */\n      dup6\n        /* \"#utility.yul\":7696:7719   */\n      sub\n        /* \"#utility.yul\":7692:7724   */\n      slt\n        /* \"#utility.yul\":7689:7808   */\n      iszero\n      tag_251\n      jumpi\n        /* \"#utility.yul\":7727:7806   */\n      tag_252\n      tag_107\n      jump\t// in\n    tag_252:\n        /* \"#utility.yul\":7689:7808   */\n    tag_251:\n        /* \"#utility.yul\":7875:7876   */\n      0x00\n        /* \"#utility.yul\":7864:7873   */\n      dup4\n        /* \"#utility.yul\":7860:7877   */\n      add\n        /* \"#utility.yul\":7847:7878   */\n      calldataload\n        /* \"#utility.yul\":7905:7923   */\n      0xffffffffffffffff\n        /* \"#utility.yul\":7897:7903   */\n      dup2\n        /* \"#utility.yul\":7894:7924   */\n      gt\n        /* \"#utility.yul\":7891:8008   */\n      iszero\n      tag_253\n      jumpi\n        /* \"#utility.yul\":7927:8006   */\n      tag_254\n      tag_108\n      jump\t// in\n    tag_254:\n        /* \"#utility.yul\":7891:8008   */\n    tag_253:\n        /* \"#utility.yul\":8032:8095   */\n      tag_255\n        /* \"#utility.yul\":8087:8094   */\n      dup6\n        /* \"#utility.yul\":8078:8084   */\n      dup3\n        /* \"#utility.yul\":8067:8076   */\n      dup7\n        /* \"#utility.yul\":8063:8085   */\n      add\n        /* \"#utility.yul\":8032:8095   */\n      tag_132\n      jump\t// in\n    tag_255:\n        /* \"#utility.yul\":8022:8095   */\n      swap3\n      pop\n        /* \"#utility.yul\":7818:8105   */\n      pop\n        /* \"#utility.yul\":8144:8146   */\n      0x20\n        /* \"#utility.yul\":8170:8223   */\n      tag_256\n        /* \"#utility.yul\":8215:8222   */\n      dup6\n        /* \"#utility.yul\":8206:8212   */\n      dup3\n        /* \"#utility.yul\":8195:8204   */\n      dup7\n        /* \"#utility.yul\":8191:8213   */\n      add\n        /* \"#utility.yul\":8170:8223   */\n      tag_123\n      jump\t// in\n    tag_256:\n        /* \"#utility.yul\":8160:8223   */\n      swap2\n      pop\n        /* \"#utility.yul\":8115:8233   */\n      pop\n        /* \"#utility.yul\":7586:8240   */\n      swap3\n      pop\n      swap3\n      swap1\n      pop\n      jump\t// out\n        /* \"#utility.yul\":8246:8575   */\n    tag_42:\n        /* \"#utility.yul\":8305:8311   */\n      0x00\n        /* \"#utility.yul\":8354:8356   */\n      0x20\n        /* \"#utility.yul\":8342:8351   */\n      dup3\n        /* \"#utility.yul\":8333:8340   */\n      dup5\n        /* \"#utility.yul\":8329:8352   */\n      sub\n        /* \"#utility.yul\":8325:8357   */\n      slt\n        /* \"#utility.yul\":8322:8441   */\n      iszero\n      tag_258\n      jumpi\n        /* \"#utility.yul\":8360:8439   */\n      tag_259\n      tag_107\n      jump\t// in\n    tag_259:\n        /* \"#utility.yul\":8322:8441   */\n    tag_258:\n        /* \"#utility.yul\":8480:8481   */\n      0x00\n        /* \"#utility.yul\":8505:8558   */\n      tag_260\n        /* \"#utility.yul\":8550:8557   */\n      dup5\n        /* \"#utility.yul\":8541:8547   */\n      dup3\n        /* \"#utility.yul\":8530:8539   */\n      dup6\n        /* \"#utility.yul\":8526:8548   */\n      add\n        /* \"#utility.yul\":8505:8558   */\n      tag_123\n      jump\t// in\n    tag_260:\n        /* \"#utility.yul\":8495:8558   */\n      swap2\n      pop\n        /* \"#utility.yul\":8451:8568   */\n      pop\n        /* \"#utility.yul\":8246:8575   */\n      swap3\n      swap2\n      pop\n      pop\n      jump\t// out\n        /* \"#utility.yul\":8581:8761   */\n    tag_133:\n        /* \"#utility.yul\":8629:8706   */\n      0x4e487b7100000000000000000000000000000000000000000000000000000000\n        /* \"#utility.yul\":8626:8627   */\n      0x00\n        /* \"#utility.yul\":8619:8707   */\n      mstore\n        /* \"#utility.yul\":8726:8730   */\n      0x22\n        /* \"#utility.yul\":8723:8724   */\n      0x04\n        /* \"#utility.yul\":8716:8731   */\n      mstore\n        /* \"#utility.yul\":8750:8754   */\n      0x24\n        /* \"#utility.yul\":8747:8748   */\n      0x00\n        /* \"#utility.yul\":8740:8755   */\n      revert\n        /* \"#utility.yul\":8767:9087   */\n    tag_45:\n        /* \"#utility.yul\":8811:8817   */\n      0x00\n        /* \"#utility.yul\":8848:8849   */\n      0x02\n        /* \"#utility.yul\":8842:8846   */\n      dup3\n        /* \"#utility.yul\":8838:8850   */\n      div\n        /* \"#utility.yul\":8828:8850   */\n      swap1\n      pop\n        /* \"#utility.yul\":8895:8896   */\n      0x01\n        /* \"#utility.yul\":8889:8893   */\n      dup3\n        /* \"#utility.yul\":8885:8897   */\n      and\n        /* \"#utility.yul\":8916:8934   */\n      dup1\n        /* \"#utility.yul\":8906:8987   */\n      tag_263\n      jumpi\n        /* \"#utility.yul\":8972:8976   */\n      0x7f\n        /* \"#utility.yul\":8964:8970   */\n      dup3\n        /* \"#utility.yul\":8960:8977   */\n      and\n        /* \"#utility.yul\":8950:8977   */\n      swap2\n      pop\n        /* \"#utility.yul\":8906:8987   */\n    tag_263:\n        /* \"#utility.yul\":9034:9036   */\n      0x20\n        /* \"#utility.yul\":9026:9032   */\n      dup3\n        /* \"#utility.yul\":9023:9037   */\n      lt\n        /* \"#utility.yul\":9003:9021   */\n      dup2\n        /* \"#utility.yul\":9000:9038   */\n      sub\n        /* \"#utility.yul\":8997:9081   */\n      tag_264\n      jumpi\n        /* \"#utility.yul\":9053:9071   */\n      tag_265\n      tag_133\n      jump\t// in\n    tag_265:\n        /* \"#utility.yul\":8997:9081   */\n    tag_264:\n        /* \"#utility.yul\":8818:9087   */\n      pop\n        /* \"#utility.yul\":8767:9087   */\n      swap2\n      swap1\n      pop\n      jump\t// out\n        /* \"#utility.yul\":9093:9262   */\n    tag_134:\n        /* \"#utility.yul\":9233:9254   */\n      0x55736572206e6f74207265676973746572656400000000000000000000000000\n        /* \"#utility.yul\":9229:9230   */\n      0x00\n        /* \"#utility.yul\":9221:9227   */\n      dup3\n        /* \"#utility.yul\":9217:9231   */\n      add\n        /* \"#utility.yul\":9210:9255   */\n      mstore\n        /* \"#utility.yul\":9093:9262   */\n      pop\n      jump\t// out\n        /* \"#utility.yul\":9268:9634   */\n    tag_135:\n        /* \"#utility.yul\":9410:9413   */\n      0x00\n        /* \"#utility.yul\":9431:9498   */\n      tag_268\n        /* \"#utility.yul\":9495:9497   */\n      0x13\n        /* \"#utility.yul\":9490:9493   */\n      dup4\n        /* \"#utility.yul\":9431:9498   */\n      tag_116\n      jump\t// in\n    tag_268:\n        /* \"#utility.yul\":9424:9498   */\n      swap2\n      pop\n        /* \"#utility.yul\":9507:9600   */\n      tag_269\n        /* \"#utility.yul\":9596:9599   */\n      dup3\n        /* \"#utility.yul\":9507:9600   */\n      tag_134\n      jump\t// in\n    tag_269:\n        /* \"#utility.yul\":9625:9627   */\n      0x20\n        /* \"#utility.yul\":9620:9623   */\n      dup3\n        /* \"#utility.yul\":9616:9628   */\n      add\n        /* \"#utility.yul\":9609:9628   */\n      swap1\n      pop\n        /* \"#utility.yul\":9268:9634   */\n      swap2\n      swap1\n      pop\n      jump\t// out\n        /* \"#utility.yul\":9640:10059   */\n    tag_60:\n        /* \"#utility.yul\":9806:9810   */\n      0x00\n        /* \"#utility.yul\":9844:9846   */\n      0x20\n        /* \"#utility.yul\":9833:9842   */\n      dup3\n        /* \"#utility.yul\":9829:9847   */\n      add\n        /* \"#utility.yul\":9821:9847   */\n      swap1\n      pop\n        /* \"#utility.yul\":9893:9902   */\n      dup2\n        /* \"#utility.yul\":9887:9891   */\n      dup2\n        /* \"#utility.yul\":9883:9903   */\n      sub\n        /* \"#utility.yul\":9879:9880   */\n      0x00\n        /* \"#utility.yul\":9868:9877   */\n      dup4\n        /* \"#utility.yul\":9864:9881   */\n      add\n        /* \"#utility.yul\":9857:9904   */\n      mstore\n        /* \"#utility.yul\":9921:10052   */\n      tag_271\n        /* \"#utility.yul\":10047:10051   */\n      dup2\n        /* \"#utility.yul\":9921:10052   */\n      tag_135\n      jump\t// in\n    tag_271:\n        /* \"#utility.yul\":9913:10052   */\n      swap1\n      pop\n        /* \"#utility.yul\":9640:10059   */\n      swap2\n      swap1\n      pop\n      jump\t// out\n        /* \"#utility.yul\":10065:10206   */\n    tag_136:\n        /* \"#utility.yul\":10114:10118   */\n      0x00\n        /* \"#utility.yul\":10137:10140   */\n      dup2\n        /* \"#utility.yul\":10129:10140   */\n      swap1\n      pop\n        /* \"#utility.yul\":10160:10163   */\n      dup2\n        /* \"#utility.yul\":10157:10158   */\n      0x00\n        /* \"#utility.yul\":10150:10164   */\n      mstore\n        /* \"#utility.yul\":10194:10198   */\n      0x20\n        /* \"#utility.yul\":10191:10192   */\n      0x00\n        /* \"#utility.yul\":10181:10199   */\n      keccak256\n        /* \"#utility.yul\":10173:10199   */\n      swap1\n      pop\n        /* \"#utility.yul\":10065:10206   */\n      swap2\n      swap1\n      pop\n      jump\t// out\n        /* \"#utility.yul\":10212:10305   */\n    tag_137:\n        /* \"#utility.yul\":10249:10255   */\n      0x00\n        /* \"#utility.yul\":10296:10298   */\n      0x20\n        /* \"#utility.yul\":10291:10293   */\n      0x1f\n        /* \"#utility.yul\":10284:10289   */\n      dup4\n        /* \"#utility.yul\":10280:10294   */\n      add\n        /* \"#utility.yul\":10276:10299   */\n      div\n        /* \"#utility.yul\":10266:10299   */\n      swap1\n      pop\n        /* \"#utility.yul\":10212:10305   */\n      swap2\n      swap1\n      pop\n      jump\t// out\n        /* \"#utility.yul\":10311:10418   */\n    tag_138:\n        /* \"#utility.yul\":10355:10363   */\n      0x00\n        /* \"#utility.yul\":10405:10410   */\n      dup3\n        /* \"#utility.yul\":10399:10403   */\n      dup3\n        /* \"#utility.yul\":10395:10411   */\n      shl\n        /* \"#utility.yul\":10374:10411   */\n      swap1\n      pop\n        /* \"#utility.yul\":10311:10418   */\n      swap3\n      swap2\n      pop\n      pop\n      jump\t// out\n        /* \"#utility.yul\":10424:10817   */\n    tag_139:\n        /* \"#utility.yul\":10493:10499   */\n      0x00\n        /* \"#utility.yul\":10543:10544   */\n      0x08\n        /* \"#utility.yul\":10531:10541   */\n      dup4\n        /* \"#utility.yul\":10527:10545   */\n      mul\n        /* \"#utility.yul\":10566:10663   */\n      tag_276\n        /* \"#utility.yul\":10596:10662   */\n      0xffffffffffffffffffffffffffffffffffffffffffffffffffffffffffffffff\n        /* \"#utility.yul\":10585:10594   */\n      dup3\n        /* \"#utility.yul\":10566:10663   */\n      tag_138\n      jump\t// in\n    tag_276:\n        /* \"#utility.yul\":10684:10723   */\n      tag_277\n        /* \"#utility.yul\":10714:10722   */\n      dup7\n        /* \"#utility.yul\":10703:10712   */\n      dup4\n        /* \"#utility.yul\":10684:10723   */\n      tag_138\n      jump\t// in\n    tag_277:\n        /* \"#utility.yul\":10672:10723   */\n      swap6\n      pop\n        /* \"#utility.yul\":10756:10760   */\n      dup1\n        /* \"#utility.yul\":10752:10761   */\n      not\n        /* \"#utility.yul\":10745:10750   */\n      dup5\n        /* \"#utility.yul\":10741:10762   */\n      and\n        /* \"#utility.yul\":10732:10762   */\n      swap4\n      pop\n        /* \"#utility.yul\":10805:10809   */\n      dup1\n        /* \"#utility.yul\":10795:10803   */\n      dup7\n        /* \"#utility.yul\":10791:10810   */\n      and\n        /* \"#utility.yul\":10784:10789   */\n      dup5\n        /* \"#utility.yul\":10781:10811   */\n      or\n        /* \"#utility.yul\":10771:10811   */\n      swap3\n      pop\n        /* \"#utility.yul\":10500:10817   */\n      pop\n      pop\n        /* \"#utility.yul\":10424:10817   */\n      swap4\n      swap3\n      pop\n      pop\n      pop\n      jump\t// out\n        /* \"#utility.yul\":10823:10883   */\n    tag_140:\n        /* \"#utility.yul\":10851:10854   */\n      0x00\n        /* \"#utility.yul\":10872:10877   */\n      dup2\n        /* \"#utility.yul\":10865:10877   */\n      swap1\n      pop\n        /* \"#utility.yul\":10823:10883   */\n      swap2\n      swap1\n      pop\n      jump\t// out\n        /* \"#utility.yul\":10889:11031   */\n    tag_141:\n        /* \"#utility.yul\":10939:10948   */\n      0x00\n        /* \"#utility.yul\":10972:11025   */\n      tag_280\n        /* \"#utility.yul\":10990:11024   */\n      tag_281\n        /* \"#utility.yul\":10999:11023   */\n      tag_282\n        /* \"#utility.yul\":11017:11022   */\n      dup5\n        /* \"#utility.yul\":10999:11023   */\n      tag_113\n      jump\t// in\n    tag_282:\n        /* \"#utility.yul\":10990:11024   */\n      tag_140\n      jump\t// in\n    tag_281:\n        /* \"#utility.yul\":10972:11025   */\n      tag_113\n      jump\t// in\n    tag_280:\n        /* \"#utility.yul\":10959:11025   */\n      swap1\n      pop\n        /* \"#utility.yul\":10889:11031   */\n      swap2\n      swap1\n      pop\n      jump\t// out\n        /* \"#utility.yul\":11037:11112   */\n    tag_142:\n        /* \"#utility.yul\":11080:11083   */\n      0x00\n        /* \"#utility.yul\":11101:11106   */\n      dup2\n        /* \"#utility.yul\":11094:11106   */\n      swap1\n      pop\n        /* \"#utility.yul\":11037:11112   */\n      swap2\n      swap1\n      pop\n      jump\t// out\n        /* \"#utility.yul\":11118:11387   */\n    tag_143:\n        /* \"#utility.yul\":11228:11267   */\n      tag_285\n        /* \"#utility.yul\":11259:11266   */\n      dup4\n        /* \"#utility.yul\":11228:11267   */\n      tag_141\n      jump\t// in\n    tag_285:\n        /* \"#utility.yul\":11289:11380   */\n      tag_286\n        /* \"#utility.yul\":11338:11379   */\n      tag_287\n        /* \"#utility.yul\":11362:11378   */\n      dup3\n        /* \"#utility.yul\":11338:11379   */\n      tag_142\n      jump\t// in\n    tag_287:\n        /* \"#utility.yul\":11330:11336   */\n      dup5\n        /* \"#utility.yul\":11323:11327   */\n      dup5\n        /* \"#utility.yul\":11317:11328   */\n      sload\n        /* \"#utility.yul\":11289:11380   */\n      tag_139\n      jump\t// in\n    tag_286:\n        /* \"#utility.yul\":11283:11287   */\n      dup3\n        /* \"#utility.yul\":11276:11381   */\n      sstore\n        /* \"#utility.yul\":11194:11387   */\n      pop\n        /* \"#utility.yul\":11118:11387   */\n      pop\n      pop\n      pop\n      jump\t// out\n        /* \"#utility.yul\":11393:11466   */\n    tag_144:\n        /* \"#utility.yul\":11438:11441   */\n      0x00\n        /* \"#utility.yul\":11459:11460   */\n      0x00\n        /* \"#utility.yul\":11452:11460   */\n      swap1\n      pop\n        /* \"#utility.yul\":11393:11466   */\n      swap1\n      jump\t// out\n        /* \"#utility.yul\":11472:11661   */\n    tag_145:\n        /* \"#utility.yul\":11549:11581   */\n      tag_290\n      tag_144\n      jump\t// in\n    tag_290:\n        /* \"#utility.yul\":11590:11655   */\n      tag_291\n        /* \"#utility.yul\":11648:11654   */\n      dup2\n        /* \"#utility.yul\":11640:11646   */\n      dup5\n        /* \"#utility.yul\":11634:11638   */\n      dup5\n        /* \"#utility.yul\":11590:11655   */\n      tag_143\n      jump\t// in\n    tag_291:\n        /* \"#utility.yul\":11525:11661   */\n      pop\n        /* \"#utility.yul\":11472:11661   */\n      pop\n      pop\n      jump\t// out\n        /* \"#utility.yul\":11667:11853   */\n    tag_146:\n        /* \"#utility.yul\":11727:11847   */\n    tag_293:\n        /* \"#utility.yul\":11744:11747   */\n      dup2\n        /* \"#utility.yul\":11737:11742   */\n      dup2\n        /* \"#utility.yul\":11734:11748   */\n      lt\n        /* \"#utility.yul\":11727:11847   */\n      iszero\n      tag_295\n      jumpi\n        /* \"#utility.yul\":11798:11837   */\n      tag_296\n        /* \"#utility.yul\":11835:11836   */\n      0x00\n        /* \"#utility.yul\":11828:11833   */\n      dup3\n        /* \"#utility.yul\":11798:11837   */\n      tag_145\n      jump\t// in\n    tag_296:\n        /* \"#utility.yul\":11771:11772   */\n      0x01\n        /* \"#utility.yul\":11764:11769   */\n      dup2\n        /* \"#utility.yul\":11760:11773   */\n      add\n        /* \"#utility.yul\":11751:11773   */\n      swap1\n      pop\n        /* \"#utility.yul\":11727:11847   */\n      jump(tag_293)\n    tag_295:\n        /* \"#utility.yul\":11667:11853   */\n      pop\n      pop\n      jump\t// out\n        /* \"#utility.yul\":11859:12402   */\n    tag_147:\n        /* \"#utility.yul\":11960:11962   */\n      0x1f\n        /* \"#utility.yul\":11955:11958   */\n      dup3\n        /* \"#utility.yul\":11952:11963   */\n      gt\n        /* \"#utility.yul\":11949:12395   */\n      iszero\n      tag_298\n      jumpi\n        /* \"#utility.yul\":11994:12032   */\n      tag_299\n        /* \"#utility.yul\":12026:12031   */\n      dup2\n        /* \"#utility.yul\":11994:12032   */\n      tag_136\n      jump\t// in\n    tag_299:\n        /* \"#utility.yul\":12078:12107   */\n      tag_300\n        /* \"#utility.yul\":12096:12106   */\n      dup5\n        /* \"#utility.yul\":12078:12107   */\n      tag_137\n      jump\t// in\n    tag_300:\n        /* \"#utility.yul\":12068:12076   */\n      dup2\n        /* \"#utility.yul\":12064:12108   */\n      add\n        /* \"#utility.yul\":12261:12263   */\n      0x20\n        /* \"#utility.yul\":12249:12259   */\n      dup6\n        /* \"#utility.yul\":12246:12264   */\n      lt\n        /* \"#utility.yul\":12243:12292   */\n      iszero\n      tag_301\n      jumpi\n        /* \"#utility.yul\":12282:12290   */\n      dup2\n        /* \"#utility.yul\":12267:12290   */\n      swap1\n      pop\n        /* \"#utility.yul\":12243:12292   */\n    tag_301:\n        /* \"#utility.yul\":12305:12385   */\n      tag_302\n        /* \"#utility.yul\":12361:12383   */\n      tag_303\n        /* \"#utility.yul\":12379:12382   */\n      dup6\n        /* \"#utility.yul\":12361:12383   */\n      tag_137\n      jump\t// in\n    tag_303:\n        /* \"#utility.yul\":12351:12359   */\n      dup4\n        /* \"#utility.yul\":12347:12384   */\n      add\n        /* \"#utility.yul\":12334:12345   */\n      dup3\n        /* \"#utility.yul\":12305:12385   */\n      tag_146\n      jump\t// in\n    tag_302:\n        /* \"#utility.yul\":11964:12395   */\n      pop\n      pop\n        /* \"#utility.yul\":11949:12395   */\n    tag_298:\n        /* \"#utility.yul\":11859:12402   */\n      pop\n      pop\n      pop\n      jump\t// out\n        /* \"#utility.yul\":12408:12525   */\n    tag_148:\n        /* \"#utility.yul\":12462:12470   */\n      0x00\n        /* \"#utility.yul\":12512:12517   */\n      dup3\n        /* \"#utility.yul\":12506:12510   */\n      dup3\n        /* \"#utility.yul\":12502:12518   */\n      shr\n        /* \"#utility.yul\":12481:12518   */\n      swap1\n      pop\n        /* \"#utility.yul\":12408:12525   */\n      swap3\n      swap2\n      pop\n      pop\n      jump\t// out\n        /* \"#utility.yul\":12531:12700   */\n    tag_149:\n        /* \"#utility.yul\":12575:12581   */\n      0x00\n        /* \"#utility.yul\":12608:12659   */\n      tag_306\n        /* \"#utility.yul\":12656:12657   */\n      0x00\n        /* \"#utility.yul\":12652:12658   */\n      not\n        /* \"#utility.yul\":12644:12649   */\n      dup5\n        /* \"#utility.yul\":12641:12642   */\n      0x08\n        /* \"#utility.yul\":12637:12650   */\n      mul\n        /* \"#utility.yul\":12608:12659   */\n      tag_148\n      jump\t// in\n    tag_306:\n        /* \"#utility.yul\":12604:12660   */\n      not\n        /* \"#utility.yul\":12689:12693   */\n      dup1\n        /* \"#utility.yul\":12683:12687   */\n      dup4\n        /* \"#utility.yul\":12679:12694   */\n      and\n        /* \"#utility.yul\":12669:12694   */\n      swap2\n      pop\n        /* \"#utility.yul\":12582:12700   */\n      pop\n        /* \"#utility.yul\":12531:12700   */\n      swap3\n      swap2\n      pop\n      pop\n      jump\t// out\n        /* \"#utility.yul\":12705:13000   */\n    tag_150:\n        /* \"#utility.yul\":12781:12785   */\n      0x00\n        /* \"#utility.yul\":12927:12956   */\n      tag_308\n        /* \"#utility.yul\":12952:12955   */\n      dup4\n        /* \"#utility.yul\":12946:12950   */\n      dup4\n        /* \"#utility.yul\":12927:12956   */\n      tag_149\n      jump\t// in\n    tag_308:\n        /* \"#utility.yul\":12919:12956   */\n      swap2\n      pop\n        /* \"#utility.yul\":12989:12992   */\n      dup3\n        /* \"#utility.yul\":12986:12987   */\n      0x02\n        /* \"#utility.yul\":12982:12993   */\n      mul\n        /* \"#utility.yul\":12976:12980   */\n      dup3\n        /* \"#utility.yul\":12973:12994   */\n      or\n        /* \"#utility.yul\":12965:12994   */\n      swap1\n      pop\n        /* \"#utility.yul\":12705:13000   */\n      swap3\n      swap2\n      pop\n      pop\n      jump\t// out\n        /* \"#utility.yul\":13005:14400   */\n    tag_64:\n        /* \"#utility.yul\":13122:13159   */\n      tag_310\n        /* \"#utility.yul\":13155:13158   */\n      dup3\n        /* \"#utility.yul\":13122:13159   */\n      tag_115\n      jump\t// in\n    tag_310:\n        /* \"#utility.yul\":13224:13242   */\n      0xffffffffffffffff\n        /* \"#utility.yul\":13216:13222   */\n      dup2\n        /* \"#utility.yul\":13213:13243   */\n      gt\n        /* \"#utility.yul\":13210:13266   */\n      iszero\n      tag_311\n      jumpi\n        /* \"#utility.yul\":13246:13264   */\n      tag_312\n      tag_126\n      jump\t// in\n    tag_312:\n        /* \"#utility.yul\":13210:13266   */\n    tag_311:\n        /* \"#utility.yul\":13290:13328   */\n      tag_313\n        /* \"#utility.yul\":13322:13326   */\n      dup3\n        /* \"#utility.yul\":13316:13327   */\n      sload\n        /* \"#utility.yul\":13290:13328   */\n      tag_45\n      jump\t// in\n    tag_313:\n        /* \"#utility.yul\":13375:13442   */\n      tag_314\n        /* \"#utility.yul\":13435:13441   */\n      dup3\n        /* \"#utility.yul\":13427:13433   */\n      dup3\n        /* \"#utility.yul\":13421:13425   */\n      dup6\n        /* \"#utility.yul\":13375:13442   */\n      tag_147\n      jump\t// in\n    tag_314:\n        /* \"#utility.yul\":13469:13470   */\n      0x00\n        /* \"#utility.yul\":13493:13497   */\n      0x20\n        /* \"#utility.yul\":13480:13497   */\n      swap1\n      pop\n        /* \"#utility.yul\":13525:13527   */\n      0x1f\n        /* \"#utility.yul\":13517:13523   */\n      dup4\n        /* \"#utility.yul\":13514:13528   */\n      gt\n        /* \"#utility.yul\":13542:13543   */\n      0x01\n        /* \"#utility.yul\":13537:14155   */\n      dup2\n      eq\n      tag_316\n      jumpi\n        /* \"#utility.yul\":14199:14200   */\n      0x00\n        /* \"#utility.yul\":14216:14222   */\n      dup5\n        /* \"#utility.yul\":14213:14290   */\n      iszero\n      tag_317\n      jumpi\n        /* \"#utility.yul\":14265:14274   */\n      dup3\n        /* \"#utility.yul\":14260:14263   */\n      dup8\n        /* \"#utility.yul\":14256:14275   */\n      add\n        /* \"#utility.yul\":14250:14276   */\n      mload\n        /* \"#utility.yul\":14241:14276   */\n      swap1\n      pop\n        /* \"#utility.yul\":14213:14290   */\n    tag_317:\n        /* \"#utility.yul\":14316:14383   */\n      tag_318\n        /* \"#utility.yul\":14376:14382   */\n      dup6\n        /* \"#utility.yul\":14369:14374   */\n      dup3\n        /* \"#utility.yul\":14316:14383   */\n      tag_150\n      jump\t// in\n    tag_318:\n        /* \"#utility.yul\":14310:14314   */\n      dup7\n        /* \"#utility.yul\":14303:14384   */\n      sstore\n        /* \"#utility.yul\":14172:14394   */\n      pop\n        /* \"#utility.yul\":13507:14394   */\n      jump(tag_315)\n        /* \"#utility.yul\":13537:14155   */\n    tag_316:\n        /* \"#utility.yul\":13589:13593   */\n      0x1f\n        /* \"#utility.yul\":13585:13594   */\n      not\n        /* \"#utility.yul\":13577:13583   */\n      dup5\n        /* \"#utility.yul\":13573:13595   */\n      and\n        /* \"#utility.yul\":13623:13660   */\n      tag_319\n        /* \"#utility.yul\":13655:13659   */\n      dup7\n        /* \"#utility.yul\":13623:13660   */\n      tag_136\n      jump\t// in\n    tag_319:\n        /* \"#utility.yul\":13682:13683   */\n      0x00\n        /* \"#utility.yul\":13696:13904   */\n    tag_320:\n        /* \"#utility.yul\":13710:13717   */\n      dup3\n        /* \"#utility.yul\":13707:13708   */\n      dup2\n        /* \"#utility.yul\":13704:13718   */\n      lt\n        /* \"#utility.yul\":13696:13904   */\n      iszero\n      tag_322\n      jumpi\n        /* \"#utility.yul\":13789:13798   */\n      dup5\n        /* \"#utility.yul\":13784:13787   */\n      dup10\n        /* \"#utility.yul\":13780:13799   */\n      add\n        /* \"#utility.yul\":13774:13800   */\n      mload\n        /* \"#utility.yul\":13766:13772   */\n      dup3\n        /* \"#utility.yul\":13759:13801   */\n      sstore\n        /* \"#utility.yul\":13840:13841   */\n      0x01\n        /* \"#utility.yul\":13832:13838   */\n      dup3\n        /* \"#utility.yul\":13828:13842   */\n      add\n        /* \"#utility.yul\":13818:13842   */\n      swap2\n      pop\n        /* \"#utility.yul\":13887:13889   */\n      0x20\n        /* \"#utility.yul\":13876:13885   */\n      dup6\n        /* \"#utility.yul\":13872:13890   */\n      add\n        /* \"#utility.yul\":13859:13890   */\n      swap5\n      pop\n        /* \"#utility.yul\":13733:13737   */\n      0x20\n        /* \"#utility.yul\":13730:13731   */\n      dup2\n        /* \"#utility.yul\":13726:13738   */\n      add\n        /* \"#utility.yul\":13721:13738   */\n      swap1\n      pop\n        /* \"#utility.yul\":13696:13904   */\n      jump(tag_320)\n    tag_322:\n        /* \"#utility.yul\":13932:13938   */\n      dup7\n        /* \"#utility.yul\":13923:13930   */\n      dup4\n        /* \"#utility.yul\":13920:13939   */\n      lt\n        /* \"#utility.yul\":13917:14096   */\n      iszero\n      tag_323\n      jumpi\n        /* \"#utility.yul\":13990:13999   */\n      dup5\n        /* \"#utility.yul\":13985:13988   */\n      dup10\n        /* \"#utility.yul\":13981:14000   */\n      add\n        /* \"#utility.yul\":13975:14001   */\n      mload\n        /* \"#utility.yul\":14033:14081   */\n      tag_324\n        /* \"#utility.yul\":14075:14079   */\n      0x1f\n        /* \"#utility.yul\":14067:14073   */\n      dup10\n        /* \"#utility.yul\":14063:14080   */\n      and\n        /* \"#utility.yul\":14052:14061   */\n      dup3\n        /* \"#utility.yul\":14033:14081   */\n      tag_149\n      jump\t// in\n    tag_324:\n        /* \"#utility.yul\":14025:14031   */\n      dup4\n        /* \"#utility.yul\":14018:14082   */\n      sstore\n        /* \"#utility.yul\":13940:14096   */\n      pop\n        /* \"#utility.yul\":13917:14096   */\n    tag_323:\n        /* \"#utility.yul\":14142:14143   */\n      0x01\n        /* \"#utility.yul\":14138:14139   */\n      0x02\n        /* \"#utility.yul\":14130:14136   */\n      dup9\n        /* \"#utility.yul\":14126:14140   */\n      mul\n        /* \"#utility.yul\":14122:14144   */\n      add\n        /* \"#utility.yul\":14116:14120   */\n      dup9\n        /* \"#utility.yul\":14109:14145   */\n      sstore\n        /* \"#utility.yul\":13544:14155   */\n      pop\n      pop\n      pop\n        /* \"#utility.yul\":13507:14394   */\n    tag_315:\n      pop\n        /* \"#utility.yul\":13097:14400   */\n      pop\n      pop\n      pop\n        /* \"#utility.yul\":13005:14400   */\n      pop\n      pop\n      jump\t// out\n        /* \"#utility.yul\":14406:14586   */\n    tag_151:\n        /* \"#utility.yul\":14454:14531   */\n      0x4e487b7100000000000000000000000000000000000000000000000000000000\n        /* \"#utility.yul\":14451:14452   */\n      0x00\n        /* \"#utility.yul\":14444:14532   */\n      mstore\n        /* \"#utility.yul\":14551:14555   */\n      0x11\n        /* \"#utility.yul\":14548:14549   */\n      0x04\n        /* \"#utility.yul\":14541:14556   */\n      mstore\n        /* \"#utility.yul\":14575:14579   */\n      0x24\n        /* \"#utility.yul\":14572:14573   */\n      0x00\n        /* \"#utility.yul\":14565:14580   */\n      revert\n        /* \"#utility.yul\":14592:14825   */\n    tag_66:\n        /* \"#utility.yul\":14631:14634   */\n      0x00\n        /* \"#utility.yul\":14654:14678   */\n      tag_327\n        /* \"#utility.yul\":14672:14677   */\n      dup3\n        /* \"#utility.yul\":14654:14678   */\n      tag_113\n      jump\t// in\n    tag_327:\n        /* \"#utility.yul\":14645:14678   */\n      swap2\n      pop\n        /* \"#utility.yul\":14700:14766   */\n      0xffffffffffffffffffffffffffffffffffffffffffffffffffffffffffffffff\n        /* \"#utility.yul\":14693:14698   */\n      dup3\n        /* \"#utility.yul\":14690:14767   */\n      sub\n        /* \"#utility.yul\":14687:14790   */\n      tag_328\n      jumpi\n        /* \"#utility.yul\":14770:14788   */\n      tag_329\n      tag_151\n      jump\t// in\n    tag_329:\n        /* \"#utility.yul\":14687:14790   */\n    tag_328:\n        /* \"#utility.yul\":14817:14818   */\n      0x01\n        /* \"#utility.yul\":14810:14815   */\n      dup3\n        /* \"#utility.yul\":14806:14819   */\n      add\n        /* \"#utility.yul\":14799:14819   */\n      swap1\n      pop\n        /* \"#utility.yul\":14592:14825   */\n      swap2\n      swap1\n      pop\n      jump\t// out\n        /* \"#utility.yul\":14831:15022   */\n    tag_68:\n        /* \"#utility.yul\":14871:14874   */\n      0x00\n        /* \"#utility.yul\":14890:14910   */\n      tag_331\n        /* \"#utility.yul\":14908:14909   */\n      dup3\n        /* \"#utility.yul\":14890:14910   */\n      tag_113\n      jump\t// in\n    tag_331:\n        /* \"#utility.yul\":14885:14910   */\n      swap2\n      pop\n        /* \"#utility.yul\":14924:14944   */\n      tag_332\n        /* \"#utility.yul\":14942:14943   */\n      dup4\n        /* \"#utility.yul\":14924:14944   */\n      tag_113\n      jump\t// in\n    tag_332:\n        /* \"#utility.yul\":14919:14944   */\n      swap3\n      pop\n        /* \"#utility.yul\":14967:14968   */\n      dup3\n        /* \"#utility.yul\":14964:14965   */\n      dup3\n        /* \"#utility.yul\":14960:14969   */\n      add\n        /* \"#utility.yul\":14953:14969   */\n      swap1\n      pop\n        /* \"#utility.yul\":14988:14991   */\n      dup1\n        /* \"#utility.yul\":14985:14986   */\n      dup3\n        /* \"#utility.yul\":14982:14992   */\n      gt\n        /* \"#utility.yul\":14979:15015   */\n      iszero\n      tag_333\n      jumpi\n        /* \"#utility.yul\":14995:15013   */\n      tag_334\n      tag_151\n      jump\t// in\n    tag_334:\n        /* \"#utility.yul\":14979:15015   */\n    tag_333:\n        /* \"#utility.yul\":14831:15022   */\n      swap3\n      swap2\n      pop\n      pop\n      jump\t// out\n        /* \"#utility.yul\":15028:15199   */\n    tag_152:\n        /* \"#utility.yul\":15168:15191   */\n      0x313020576f726b6f75747320436f6d706c657465640000000000000000000000\n        /* \"#utility.yul\":15164:15165   */\n      0x00\n        /* \"#utility.yul\":15156:15162   */\n      dup3\n        /* \"#utility.yul\":15152:15166   */\n      add\n        /* \"#utility.yul\":15145:15192   */\n      mstore\n        /* \"#utility.yul\":15028:15199   */\n      pop\n      jump\t// out\n        /* \"#utility.yul\":15205:15571   */\n    tag_153:\n        /* \"#utility.yul\":15347:15350   */\n      0x00\n        /* \"#utility.yul\":15368:15435   */\n      tag_337\n        /* \"#utility.yul\":15432:15434   */\n      0x15\n        /* \"#utility.yul\":15427:15430   */\n      dup4\n        /* \"#utility.yul\":15368:15435   */\n      tag_116\n      jump\t// in\n    tag_337:\n        /* \"#utility.yul\":15361:15435   */\n      swap2\n      pop\n        /* \"#utility.yul\":15444:15537   */\n      tag_338\n        /* \"#utility.yul\":15533:15536   */\n      dup3\n        /* \"#utility.yul\":15444:15537   */\n      tag_152\n      jump\t// in\n    tag_338:\n        /* \"#utility.yul\":15562:15564   */\n      0x20\n        /* \"#utility.yul\":15557:15560   */\n      dup3\n        /* \"#utility.yul\":15553:15565   */\n      add\n        /* \"#utility.yul\":15546:15565   */\n      swap1\n      pop\n        /* \"#utility.yul\":15205:15571   */\n      swap2\n      swap1\n      pop\n      jump\t// out\n        /* \"#utility.yul\":15577:16106   */\n    tag_72:\n        /* \"#utility.yul\":15771:15775   */\n      0x00\n        /* \"#utility.yul\":15809:15811   */\n      0x40\n        /* \"#utility.yul\":15798:15807   */\n      dup3\n        /* \"#utility.yul\":15794:15812   */\n      add\n        /* \"#utility.yul\":15786:15812   */\n      swap1\n      pop\n        /* \"#utility.yul\":15858:15867   */\n      dup2\n        /* \"#utility.yul\":15852:15856   */\n      dup2\n        /* \"#utility.yul\":15848:15868   */\n      sub\n        /* \"#utility.yul\":15844:15845   */\n      0x00\n        /* \"#utility.yul\":15833:15842   */\n      dup4\n        /* \"#utility.yul\":15829:15846   */\n      add\n        /* \"#utility.yul\":15822:15869   */\n      mstore\n        /* \"#utility.yul\":15886:16017   */\n      tag_340\n        /* \"#utility.yul\":16012:16016   */\n      dup2\n        /* \"#utility.yul\":15886:16017   */\n      tag_153\n      jump\t// in\n    tag_340:\n        /* \"#utility.yul\":15878:16017   */\n      swap1\n      pop\n        /* \"#utility.yul\":16027:16099   */\n      tag_341\n        /* \"#utility.yul\":16095:16097   */\n      0x20\n        /* \"#utility.yul\":16084:16093   */\n      dup4\n        /* \"#utility.yul\":16080:16098   */\n      add\n        /* \"#utility.yul\":16071:16077   */\n      dup5\n        /* \"#utility.yul\":16027:16099   */\n      tag_114\n      jump\t// in\n    tag_341:\n        /* \"#utility.yul\":15577:16106   */\n      swap3\n      swap2\n      pop\n      pop\n      jump\t// out\n        /* \"#utility.yul\":16112:16283   */\n    tag_154:\n        /* \"#utility.yul\":16252:16275   */\n      0x353020576f726b6f75747320436f6d706c657465640000000000000000000000\n        /* \"#utility.yul\":16248:16249   */\n      0x00\n        /* \"#utility.yul\":16240:16246   */\n      dup3\n        /* \"#utility.yul\":16236:16250   */\n      add\n        /* \"#utility.yul\":16229:16276   */\n      mstore\n        /* \"#utility.yul\":16112:16283   */\n      pop\n      jump\t// out\n        /* \"#utility.yul\":16289:16655   */\n    tag_155:\n        /* \"#utility.yul\":16431:16434   */\n      0x00\n        /* \"#utility.yul\":16452:16519   */\n      tag_344\n        /* \"#utility.yul\":16516:16518   */\n      0x15\n        /* \"#utility.yul\":16511:16514   */\n      dup4\n        /* \"#utility.yul\":16452:16519   */\n      tag_116\n      jump\t// in\n    tag_344:\n        /* \"#utility.yul\":16445:16519   */\n      swap2\n      pop\n        /* \"#utility.yul\":16528:16621   */\n      tag_345\n        /* \"#utility.yul\":16617:16620   */\n      dup3\n        /* \"#utility.yul\":16528:16621   */\n      tag_154\n      jump\t// in\n    tag_345:\n        /* \"#utility.yul\":16646:16648   */\n      0x20\n        /* \"#utility.yul\":16641:16644   */\n      dup3\n        /* \"#utility.yul\":16637:16649   */\n      add\n        /* \"#utility.yul\":16630:16649   */\n      swap1\n      pop\n        /* \"#utility.yul\":16289:16655   */\n      swap2\n      swap1\n      pop\n      jump\t// out\n        /* \"#utility.yul\":16661:17190   */\n    tag_76:\n        /* \"#utility.yul\":16855:16859   */\n      0x00\n        /* \"#utility.yul\":16893:16895   */\n      0x40\n        /* \"#utility.yul\":16882:16891   */\n      dup3\n        /* \"#utility.yul\":16878:16896   */\n      add\n        /* \"#utility.yul\":16870:16896   */\n      swap1\n      pop\n        /* \"#utility.yul\":16942:16951   */\n      dup2\n        /* \"#utility.yul\":16936:16940   */\n      dup2\n        /* \"#utility.yul\":16932:16952   */\n      sub\n        /* \"#utility.yul\":16928:16929   */\n      0x00\n        /* \"#utility.yul\":16917:16926   */\n      dup4\n        /* \"#utility.yul\":16913:16930   */\n      add\n        /* \"#utility.yul\":16906:16953   */\n      mstore\n        /* \"#utility.yul\":16970:17101   */\n      tag_347\n        /* \"#utility.yul\":17096:17100   */\n      dup2\n        /* \"#utility.yul\":16970:17101   */\n      tag_155\n      jump\t// in\n    tag_347:\n        /* \"#utility.yul\":16962:17101   */\n      swap1\n      pop\n        /* \"#utility.yul\":17111:17183   */\n      tag_348\n        /* \"#utility.yul\":17179:17181   */\n      0x20\n        /* \"#utility.yul\":17168:17177   */\n      dup4\n        /* \"#utility.yul\":17164:17182   */\n      add\n        /* \"#utility.yul\":17155:17161   */\n      dup5\n        /* \"#utility.yul\":17111:17183   */\n      tag_114\n      jump\t// in\n    tag_348:\n        /* \"#utility.yul\":16661:17190   */\n      swap3\n      swap2\n      pop\n      pop\n      jump\t// out\n        /* \"#utility.yul\":17196:17390   */\n    tag_79:\n        /* \"#utility.yul\":17236:17240   */\n      0x00\n        /* \"#utility.yul\":17256:17276   */\n      tag_350\n        /* \"#utility.yul\":17274:17275   */\n      dup3\n        /* \"#utility.yul\":17256:17276   */\n      tag_113\n      jump\t// in\n    tag_350:\n        /* \"#utility.yul\":17251:17276   */\n      swap2\n      pop\n        /* \"#utility.yul\":17290:17310   */\n      tag_351\n        /* \"#utility.yul\":17308:17309   */\n      dup4\n        /* \"#utility.yul\":17290:17310   */\n      tag_113\n      jump\t// in\n    tag_351:\n        /* \"#utility.yul\":17285:17310   */\n      swap3\n      pop\n        /* \"#utility.yul\":17334:17335   */\n      dup3\n        /* \"#utility.yul\":17331:17332   */\n      dup3\n        /* \"#utility.yul\":17327:17336   */\n      sub\n        /* \"#utility.yul\":17319:17336   */\n      swap1\n      pop\n        /* \"#utility.yul\":17358:17359   */\n      dup2\n        /* \"#utility.yul\":17352:17356   */\n      dup2\n        /* \"#utility.yul\":17349:17360   */\n      gt\n        /* \"#utility.yul\":17346:17383   */\n      iszero\n      tag_352\n      jumpi\n        /* \"#utility.yul\":17363:17381   */\n      tag_353\n      tag_151\n      jump\t// in\n    tag_353:\n        /* \"#utility.yul\":17346:17383   */\n    tag_352:\n        /* \"#utility.yul\":17196:17390   */\n      swap3\n      swap2\n      pop\n      pop\n      jump\t// out\n        /* \"#utility.yul\":17396:17565   */\n    tag_156:\n        /* \"#utility.yul\":17536:17557   */\n      0x3130304b20546f74616c2044697374616e636500000000000000000000000000\n        /* \"#utility.yul\":17532:17533   */\n      0x00\n        /* \"#utility.yul\":17524:17530   */\n      dup3\n        /* \"#utility.yul\":17520:17534   */\n      add\n        /* \"#utility.yul\":17513:17558   */\n      mstore\n        /* \"#utility.yul\":17396:17565   */\n      pop\n      jump\t// out\n        /* \"#utility.yul\":17571:17937   */\n    tag_157:\n        /* \"#utility.yul\":17713:17716   */\n      0x00\n        /* \"#utility.yul\":17734:17801   */\n      tag_356\n        /* \"#utility.yul\":17798:17800   */\n      0x13\n        /* \"#utility.yul\":17793:17796   */\n      dup4\n        /* \"#utility.yul\":17734:17801   */\n      tag_116\n      jump\t// in\n    tag_356:\n        /* \"#utility.yul\":17727:17801   */\n      swap2\n      pop\n        /* \"#utility.yul\":17810:17903   */\n      tag_357\n        /* \"#utility.yul\":17899:17902   */\n      dup3\n        /* \"#utility.yul\":17810:17903   */\n      tag_156\n      jump\t// in\n    tag_357:\n        /* \"#utility.yul\":17928:17930   */\n      0x20\n        /* \"#utility.yul\":17923:17926   */\n      dup3\n        /* \"#utility.yul\":17919:17931   */\n      add\n        /* \"#utility.yul\":17912:17931   */\n      swap1\n      pop\n        /* \"#utility.yul\":17571:17937   */\n      swap2\n      swap1\n      pop\n      jump\t// out\n        /* \"#utility.yul\":17943:18472   */\n    tag_82:\n        /* \"#utility.yul\":18137:18141   */\n      0x00\n        /* \"#utility.yul\":18175:18177   */\n      0x40\n        /* \"#utility.yul\":18164:18173   */\n      dup3\n        /* \"#utility.yul\":18160:18178   */\n      add\n        /* \"#utility.yul\":18152:18178   */\n      swap1\n      pop\n        /* \"#utility.yul\":18224:18233   */\n      dup2\n        /* \"#utility.yul\":18218:18222   */\n      dup2\n        /* \"#utility.yul\":18214:18234   */\n      sub\n        /* \"#utility.yul\":18210:18211   */\n      0x00\n        /* \"#utility.yul\":18199:18208   */\n      dup4\n        /* \"#utility.yul\":18195:18212   */\n      add\n        /* \"#utility.yul\":18188:18235   */\n      mstore\n        /* \"#utility.yul\":18252:18383   */\n      tag_359\n        /* \"#utility.yul\":18378:18382   */\n      dup2\n        /* \"#utility.yul\":18252:18383   */\n      tag_157\n      jump\t// in\n    tag_359:\n        /* \"#utility.yul\":18244:18383   */\n      swap1\n      pop\n        /* \"#utility.yul\":18393:18465   */\n      tag_360\n        /* \"#utility.yul\":18461:18463   */\n      0x20\n        /* \"#utility.yul\":18450:18459   */\n      dup4\n        /* \"#utility.yul\":18446:18464   */\n      add\n        /* \"#utility.yul\":18437:18443   */\n      dup5\n        /* \"#utility.yul\":18393:18465   */\n      tag_114\n      jump\t// in\n    tag_360:\n        /* \"#utility.yul\":17943:18472   */\n      swap3\n      swap2\n      pop\n      pop\n      jump\t// out\n        /* \"#utility.yul\":18478:18651   */\n    tag_158:\n        /* \"#utility.yul\":18618:18643   */\n      0x5573657220616c72656164792072656769737465726564000000000000000000\n        /* \"#utility.yul\":18614:18615   */\n      0x00\n        /* \"#utility.yul\":18606:18612   */\n      dup3\n        /* \"#utility.yul\":18602:18616   */\n      add\n        /* \"#utility.yul\":18595:18644   */\n      mstore\n        /* \"#utility.yul\":18478:18651   */\n      pop\n      jump\t// out\n        /* \"#utility.yul\":18657:19023   */\n    tag_159:\n        /* \"#utility.yul\":18799:18802   */\n      0x00\n        /* \"#utility.yul\":18820:18887   */\n      tag_363\n        /* \"#utility.yul\":18884:18886   */\n      0x17\n        /* \"#utility.yul\":18879:18882   */\n      dup4\n        /* \"#utility.yul\":18820:18887   */\n      tag_116\n      jump\t// in\n    tag_363:\n        /* \"#utility.yul\":18813:18887   */\n      swap2\n      pop\n        /* \"#utility.yul\":18896:18989   */\n      tag_364\n        /* \"#utility.yul\":18985:18988   */\n      dup3\n        /* \"#utility.yul\":18896:18989   */\n      tag_158\n      jump\t// in\n    tag_364:\n        /* \"#utility.yul\":19014:19016   */\n      0x20\n        /* \"#utility.yul\":19009:19012   */\n      dup3\n        /* \"#utility.yul\":19005:19017   */\n      add\n        /* \"#utility.yul\":18998:19017   */\n      swap1\n      pop\n        /* \"#utility.yul\":18657:19023   */\n      swap2\n      swap1\n      pop\n      jump\t// out\n        /* \"#utility.yul\":19029:19448   */\n    tag_86:\n        /* \"#utility.yul\":19195:19199   */\n      0x00\n        /* \"#utility.yul\":19233:19235   */\n      0x20\n        /* \"#utility.yul\":19222:19231   */\n      dup3\n        /* \"#utility.yul\":19218:19236   */\n      add\n        /* \"#utility.yul\":19210:19236   */\n      swap1\n      pop\n        /* \"#utility.yul\":19282:19291   */\n      dup2\n        /* \"#utility.yul\":19276:19280   */\n      dup2\n        /* \"#utility.yul\":19272:19292   */\n      sub\n        /* \"#utility.yul\":19268:19269   */\n      0x00\n        /* \"#utility.yul\":19257:19266   */\n      dup4\n        /* \"#utility.yul\":19253:19270   */\n      add\n        /* \"#utility.yul\":19246:19293   */\n      mstore\n        /* \"#utility.yul\":19310:19441   */\n      tag_366\n        /* \"#utility.yul\":19436:19440   */\n      dup2\n        /* \"#utility.yul\":19310:19441   */\n      tag_159\n      jump\t// in\n    tag_366:\n        /* \"#utility.yul\":19302:19441   */\n      swap1\n      pop\n        /* \"#utility.yul\":19029:19448   */\n      swap2\n      swap1\n      pop\n      jump\t// out\n        /* \"#utility.yul\":19454:19602   */\n    tag_160:\n        /* \"#utility.yul\":19556:19567   */\n      0x00\n        /* \"#utility.yul\":19593:19596   */\n      dup2\n        /* \"#utility.yul\":19578:19596   */\n      swap1\n      pop\n        /* \"#utility.yul\":19454:19602   */\n      swap3\n      swap2\n      pop\n      pop\n      jump\t// out\n        /* \"#utility.yul\":19608:19998   */\n    tag_161:\n        /* \"#utility.yul\":19714:19717   */\n      0x00\n        /* \"#utility.yul\":19742:19781   */\n      tag_369\n        /* \"#utility.yul\":19775:19780   */\n      dup3\n        /* \"#utility.yul\":19742:19781   */\n      tag_115\n      jump\t// in\n    tag_369:\n        /* \"#utility.yul\":19797:19886   */\n      tag_370\n        /* \"#utility.yul\":19879:19885   */\n      dup2\n        /* \"#utility.yul\":19874:19877   */\n      dup6\n        /* \"#utility.yul\":19797:19886   */\n      tag_160\n      jump\t// in\n    tag_370:\n        /* \"#utility.yul\":19790:19886   */\n      swap4\n      pop\n        /* \"#utility.yul\":19895:19960   */\n      tag_371\n        /* \"#utility.yul\":19953:19959   */\n      dup2\n        /* \"#utility.yul\":19948:19951   */\n      dup6\n        /* \"#utility.yul\":19941:19945   */\n      0x20\n        /* \"#utility.yul\":19934:19939   */\n      dup7\n        /* \"#utility.yul\":19930:19946   */\n      add\n        /* \"#utility.yul\":19895:19960   */\n      tag_117\n      jump\t// in\n    tag_371:\n        /* \"#utility.yul\":19985:19991   */\n      dup1\n        /* \"#utility.yul\":19980:19983   */\n      dup5\n        /* \"#utility.yul\":19976:19992   */\n      add\n        /* \"#utility.yul\":19969:19992   */\n      swap2\n      pop\n        /* \"#utility.yul\":19718:19998   */\n      pop\n        /* \"#utility.yul\":19608:19998   */\n      swap3\n      swap2\n      pop\n      pop\n      jump\t// out\n        /* \"#utility.yul\":20004:20279   */\n    tag_89:\n        /* \"#utility.yul\":20136:20139   */\n      0x00\n        /* \"#utility.yul\":20158:20253   */\n      tag_373\n        /* \"#utility.yul\":20249:20252   */\n      dup3\n        /* \"#utility.yul\":20240:20246   */\n      dup5\n        /* \"#utility.yul\":20158:20253   */\n      tag_161\n      jump\t// in\n    tag_373:\n        /* \"#utility.yul\":20151:20253   */\n      swap2\n      pop\n        /* \"#utility.yul\":20270:20273   */\n      dup2\n        /* \"#utility.yul\":20263:20273   */\n      swap1\n      pop\n        /* \"#utility.yul\":20004:20279   */\n      swap3\n      swap2\n      pop\n      pop\n      jump\t// out\n        /* \"#utility.yul\":20285:20695   */\n    tag_98:\n        /* \"#utility.yul\":20325:20332   */\n      0x00\n        /* \"#utility.yul\":20348:20368   */\n      tag_375\n        /* \"#utility.yul\":20366:20367   */\n      dup3\n        /* \"#utility.yul\":20348:20368   */\n      tag_113\n      jump\t// in\n    tag_375:\n        /* \"#utility.yul\":20343:20368   */\n      swap2\n      pop\n        /* \"#utility.yul\":20382:20402   */\n      tag_376\n        /* \"#utility.yul\":20400:20401   */\n      dup4\n        /* \"#utility.yul\":20382:20402   */\n      tag_113\n      jump\t// in\n    tag_376:\n        /* \"#utility.yul\":20377:20402   */\n      swap3\n      pop\n        /* \"#utility.yul\":20437:20438   */\n      dup3\n        /* \"#utility.yul\":20434:20435   */\n      dup3\n        /* \"#utility.yul\":20430:20439   */\n      mul\n        /* \"#utility.yul\":20459:20489   */\n      tag_377\n        /* \"#utility.yul\":20477:20488   */\n      dup2\n        /* \"#utility.yul\":20459:20489   */\n      tag_113\n      jump\t// in\n    tag_377:\n        /* \"#utility.yul\":20448:20489   */\n      swap2\n      pop\n        /* \"#utility.yul\":20638:20639   */\n      dup3\n        /* \"#utility.yul\":20629:20636   */\n      dup3\n        /* \"#utility.yul\":20625:20640   */\n      div\n        /* \"#utility.yul\":20622:20623   */\n      dup5\n        /* \"#utility.yul\":20619:20641   */\n      eq\n        /* \"#utility.yul\":20599:20600   */\n      dup4\n        /* \"#utility.yul\":20592:20601   */\n      iszero\n        /* \"#utility.yul\":20572:20655   */\n      or\n        /* \"#utility.yul\":20549:20688   */\n      tag_378\n      jumpi\n        /* \"#utility.yul\":20668:20686   */\n      tag_379\n      tag_151\n      jump\t// in\n    tag_379:\n        /* \"#utility.yul\":20549:20688   */\n    tag_378:\n        /* \"#utility.yul\":20333:20695   */\n      pop\n        /* \"#utility.yul\":20285:20695   */\n      swap3\n      swap2\n      pop\n      pop\n      jump\t// out\n        /* \"#utility.yul\":20701:20881   */\n    tag_162:\n        /* \"#utility.yul\":20749:20826   */\n      0x4e487b7100000000000000000000000000000000000000000000000000000000\n        /* \"#utility.yul\":20746:20747   */\n      0x00\n        /* \"#utility.yul\":20739:20827   */\n      mstore\n        /* \"#utility.yul\":20846:20850   */\n      0x12\n        /* \"#utility.yul\":20843:20844   */\n      0x04\n        /* \"#utility.yul\":20836:20851   */\n      mstore\n        /* \"#utility.yul\":20870:20874   */\n      0x24\n        /* \"#utility.yul\":20867:20868   */\n      0x00\n        /* \"#utility.yul\":20860:20875   */\n      revert\n        /* \"#utility.yul\":20887:21072   */\n    tag_100:\n        /* \"#utility.yul\":20927:20928   */\n      0x00\n        /* \"#utility.yul\":20944:20964   */\n      tag_382\n        /* \"#utility.yul\":20962:20963   */\n      dup3\n        /* \"#utility.yul\":20944:20964   */\n      tag_113\n      jump\t// in\n    tag_382:\n        /* \"#utility.yul\":20939:20964   */\n      swap2\n      pop\n        /* \"#utility.yul\":20978:20998   */\n      tag_383\n        /* \"#utility.yul\":20996:20997   */\n      dup4\n        /* \"#utility.yul\":20978:20998   */\n      tag_113\n      jump\t// in\n    tag_383:\n        /* \"#utility.yul\":20973:20998   */\n      swap3\n      pop\n        /* \"#utility.yul\":21017:21018   */\n      dup3\n        /* \"#utility.yul\":21007:21042   */\n      tag_384\n      jumpi\n        /* \"#utility.yul\":21022:21040   */\n      tag_385\n      tag_162\n      jump\t// in\n    tag_385:\n        /* \"#utility.yul\":21007:21042   */\n    tag_384:\n        /* \"#utility.yul\":21064:21065   */\n      dup3\n        /* \"#utility.yul\":21061:21062   */\n      dup3\n        /* \"#utility.yul\":21057:21066   */\n      div\n        /* \"#utility.yul\":21052:21066   */\n      swap1\n      pop\n        /* \"#utility.yul\":20887:21072   */\n      swap3\n      swap2\n      pop\n      pop\n      jump\t// out\n        /* \"#utility.yul\":21078:21247   */\n    tag_163:\n        /* \"#utility.yul\":21218:21239   */\n      0x57656967687420476f616c205265616368656400000000000000000000000000\n        /* \"#utility.yul\":21214:21215   */\n      0x00\n        /* \"#utility.yul\":21206:21212   */\n      dup3\n        /* \"#utility.yul\":21202:21216   */\n      add\n        /* \"#utility.yul\":21195:21240   */\n      mstore\n        /* \"#utility.yul\":21078:21247   */\n      pop\n      jump\t// out\n        /* \"#utility.yul\":21253:21619   */\n    tag_164:\n        /* \"#utility.yul\":21395:21398   */\n      0x00\n        /* \"#utility.yul\":21416:21483   */\n      tag_388\n        /* \"#utility.yul\":21480:21482   */\n      0x13\n        /* \"#utility.yul\":21475:21478   */\n      dup4\n        /* \"#utility.yul\":21416:21483   */\n      tag_116\n      jump\t// in\n    tag_388:\n        /* \"#utility.yul\":21409:21483   */\n      swap2\n      pop\n        /* \"#utility.yul\":21492:21585   */\n      tag_389\n        /* \"#utility.yul\":21581:21584   */\n      dup3\n        /* \"#utility.yul\":21492:21585   */\n      tag_163\n      jump\t// in\n    tag_389:\n        /* \"#utility.yul\":21610:21612   */\n      0x20\n        /* \"#utility.yul\":21605:21608   */\n      dup3\n        /* \"#utility.yul\":21601:21613   */\n      add\n        /* \"#utility.yul\":21594:21613   */\n      swap1\n      pop\n        /* \"#utility.yul\":21253:21619   */\n      swap2\n      swap1\n      pop\n      jump\t// out\n        /* \"#utility.yul\":21625:22154   */\n    tag_103:\n        /* \"#utility.yul\":21819:21823   */\n      0x00\n        /* \"#utility.yul\":21857:21859   */\n      0x40\n        /* \"#utility.yul\":21846:21855   */\n      dup3\n        /* \"#utility.yul\":21842:21860   */\n      add\n        /* \"#utility.yul\":21834:21860   */\n      swap1\n      pop\n        /* \"#utility.yul\":21906:21915   */\n      dup2\n        /* \"#utility.yul\":21900:21904   */\n      dup2\n        /* \"#utility.yul\":21896:21916   */\n      sub\n        /* \"#utility.yul\":21892:21893   */\n      0x00\n        /* \"#utility.yul\":21881:21890   */\n      dup4\n        /* \"#utility.yul\":21877:21894   */\n      add\n        /* \"#utility.yul\":21870:21917   */\n      mstore\n        /* \"#utility.yul\":21934:22065   */\n      tag_391\n        /* \"#utility.yul\":22060:22064   */\n      dup2\n        /* \"#utility.yul\":21934:22065   */\n      tag_164\n      jump\t// in\n    tag_391:\n        /* \"#utility.yul\":21926:22065   */\n      swap1\n      pop\n        /* \"#utility.yul\":22075:22147   */\n      tag_392\n        /* \"#utility.yul\":22143:22145   */\n      0x20\n        /* \"#utility.yul\":22132:22141   */\n      dup4\n        /* \"#utility.yul\":22128:22146   */\n      add\n        /* \"#utility.yul\":22119:22125   */\n      dup5\n        /* \"#utility.yul\":22075:22147   */\n      tag_114\n      jump\t// in\n    tag_392:\n        /* \"#utility.yul\":21625:22154   */\n      swap3\n      swap2\n      pop\n      pop\n      jump\t// out\n        /* \"#utility.yul\":22160:22492   */\n    tag_105:\n        /* \"#utility.yul\":22281:22285   */\n      0x00\n        /* \"#utility.yul\":22319:22321   */\n      0x40\n        /* \"#utility.yul\":22308:22317   */\n      dup3\n        /* \"#utility.yul\":22304:22322   */\n      add\n        /* \"#utility.yul\":22296:22322   */\n      swap1\n      pop\n        /* \"#utility.yul\":22332:22403   */\n      tag_394\n        /* \"#utility.yul\":22400:22401   */\n      0x00\n        /* \"#utility.yul\":22389:22398   */\n      dup4\n        /* \"#utility.yul\":22385:22402   */\n      add\n        /* \"#utility.yul\":22376:22382   */\n      dup6\n        /* \"#utility.yul\":22332:22403   */\n      tag_114\n      jump\t// in\n    tag_394:\n        /* \"#utility.yul\":22413:22485   */\n      tag_395\n        /* \"#utility.yul\":22481:22483   */\n      0x20\n        /* \"#utility.yul\":22470:22479   */\n      dup4\n        /* \"#utility.yul\":22466:22484   */\n      add\n        /* \"#utility.yul\":22457:22463   */\n      dup5\n        /* \"#utility.yul\":22413:22485   */\n      tag_114\n      jump\t// in\n    tag_395:\n        /* \"#utility.yul\":22160:22492   */\n      swap4\n      swap3\n      pop\n      pop\n      pop\n      jump\t// out\n\n    auxdata: 0xa2646970667358221220436002cd6294c0518df1845770dddfc0fd038aba8ca0c7137fafc180967be34464736f6c634300081f0033\n}\n",
				"bytecode": {
					"linkReferences": {},
					"object": "6080604052348015600e575f5ffd5b506116e78061001c5f395ff3fe608060405234801561000f575f5ffd5b506004361061007b575f3560e01c8063ae5bde4e11610059578063ae5bde4e14610114578063c5af3f8c14610144578063d395100214610160578063ec3df6ad1461017c5761007b565b806303cdaddd1461007f578063332d56d7146100af5780633f9a3256146100e1575b5f5ffd5b61009960048036038101906100949190610b5d565b610198565b6040516100a69190610ba0565b60405180910390f35b6100c960048036038101906100c49190610b5d565b6101ad565b6040516100d893929190610c43565b60405180910390f35b6100fb60048036038101906100f69190610ca9565b610264565b60405161010b9493929190610ce7565b60405180910390f35b61012e60048036038101906101299190610b5d565b610330565b60405161013b9190610ba0565b60405180910390f35b61015e60048036038101906101599190610e5d565b610345565b005b61017a60048036038101906101759190610ec9565b6107a6565b005b61019660048036038101906101919190610f23565b610939565b005b6002602052805f5260405f205f915090505481565b5f602052805f5260405f205f91509050805f0180546101cb90610f7b565b80601f01602080910402602001604051908101604052809291908181526020018280546101f790610f7b565b80156102425780601f1061021957610100808354040283529160200191610242565b820191905f5260205f20905b81548152906001019060200180831161022557829003601f168201915b505050505090806001015490806002015f9054906101000a900460ff16905083565b6001602052815f5260405f20818154811061027d575f80fd5b905f5260205f2090600402015f9150915050805f01805461029d90610f7b565b80601f01602080910402602001604051908101604052809291908181526020018280546102c990610f7b565b80156103145780601f106102eb57610100808354040283529160200191610314565b820191905f5260205f20905b8154815290600101906020018083116102f757829003601f168201915b5050505050908060010154908060020154908060030154905084565b6003602052805f5260405f205f915090505481565b5f5f3373ffffffffffffffffffffffffffffffffffffffff1673ffffffffffffffffffffffffffffffffffffffff1681526020019081526020015f206002015f9054906101000a900460ff166103d0576040517f08c379a00000000000000000000000000000000000000000000000000000000081526004016103c790610ff5565b60405180910390fd5b5f604051806080016040528085815260200184815260200183815260200142815250905060015f3373ffffffffffffffffffffffffffffffffffffffff1673ffffffffffffffffffffffffffffffffffffffff1681526020019081526020015f2081908060018154018082558091505060019003905f5260205f2090600402015f909190919091505f820151815f01908161046b91906111b3565b50602082015181600101556040820151816002015560608201518160030155505060025f3373ffffffffffffffffffffffffffffffffffffffff1673ffffffffffffffffffffffffffffffffffffffff1681526020019081526020015f205f8154809291906104d9906112af565b91905055508160035f3373ffffffffffffffffffffffffffffffffffffffff1673ffffffffffffffffffffffffffffffffffffffff1681526020019081526020015f205f82825461052a91906112f6565b925050819055503373ffffffffffffffffffffffffffffffffffffffff167f587a8c232da0d7b15371c5660ff1fdc5fbaf667e6a6b9b6587a378509038fd738585854260405161057d9493929190610ce7565b60405180910390a2600a60025f3373ffffffffffffffffffffffffffffffffffffffff1673ffffffffffffffffffffffffffffffffffffffff1681526020019081526020015f20540361061d573373ffffffffffffffffffffffffffffffffffffffff167f8e330a58901ae7dba0b65f495856eab3fc73fc6ceca3dd7fbd2f4f9d14876e37426040516106109190611373565b60405180910390a26106b2565b603260025f3373ffffffffffffffffffffffffffffffffffffffff1673ffffffffffffffffffffffffffffffffffffffff1681526020019081526020015f2054036106b1573373ffffffffffffffffffffffffffffffffffffffff167f8e330a58901ae7dba0b65f495856eab3fc73fc6ceca3dd7fbd2f4f9d14876e37426040516106a891906113e9565b60405180910390a25b5b620186a060035f3373ffffffffffffffffffffffffffffffffffffffff1673ffffffffffffffffffffffffffffffffffffffff1681526020019081526020015f20541015801561074c5750620186a08260035f3373ffffffffffffffffffffffffffffffffffffffff1673ffffffffffffffffffffffffffffffffffffffff1681526020019081526020015f205461074a9190611415565b105b156107a0573373ffffffffffffffffffffffffffffffffffffffff167f8e330a58901ae7dba0b65f495856eab3fc73fc6ceca3dd7fbd2f4f9d14876e37426040516107979190611492565b60405180910390a25b50505050565b5f15155f5f3373ffffffffffffffffffffffffffffffffffffffff1673ffffffffffffffffffffffffffffffffffffffff1681526020019081526020015f206002015f9054906101000a900460ff16151514610837576040517f08c379a000000000000000000000000000000000000000000000000000000000815260040161082e90611508565b60405180910390fd5b6040518060600160405280838152602001828152602001600115158152505f5f3373ffffffffffffffffffffffffffffffffffffffff1673ffffffffffffffffffffffffffffffffffffffff1681526020019081526020015f205f820151815f0190816108a491906111b3565b50602082015181600101556040820151816002015f6101000a81548160ff021916908315150217905550905050816040516108df9190611560565b60405180910390203373ffffffffffffffffffffffffffffffffffffffff167f89105a1c6a3c2fbd471255c66a31ccab604af5697f67d7e2e9a0028c5e4dbd914260405161092d9190610ba0565b60405180910390a35050565b5f5f3373ffffffffffffffffffffffffffffffffffffffff1673ffffffffffffffffffffffffffffffffffffffff1681526020019081526020015f206002015f9054906101000a900460ff166109c4576040517f08c379a00000000000000000000000000000000000000000000000000000000081526004016109bb90610ff5565b60405180910390fd5b5f5f5f3373ffffffffffffffffffffffffffffffffffffffff1673ffffffffffffffffffffffffffffffffffffffff1681526020019081526020015f209050806001015482108015610a415750600581600101546064848460010154610a2a9190611415565b610a349190611576565b610a3e91906115e4565b10155b15610a95573373ffffffffffffffffffffffffffffffffffffffff167f8e330a58901ae7dba0b65f495856eab3fc73fc6ceca3dd7fbd2f4f9d14876e3742604051610a8c919061165e565b60405180910390a25b8181600101819055503373ffffffffffffffffffffffffffffffffffffffff167f05826151879c9a557068ba4e389ba7f00512db472cc81778ea86696b2b0f5afd8342604051610ae692919061168a565b60405180910390a25050565b5f604051905090565b5f5ffd5b5f5ffd5b5f73ffffffffffffffffffffffffffffffffffffffff82169050919050565b5f610b2c82610b03565b9050919050565b610b3c81610b22565b8114610b46575f5ffd5b50565b5f81359050610b5781610b33565b92915050565b5f60208284031215610b7257610b71610afb565b5b5f610b7f84828501610b49565b91505092915050565b5f819050919050565b610b9a81610b88565b82525050565b5f602082019050610bb35f830184610b91565b92915050565b5f81519050919050565b5f82825260208201905092915050565b8281835e5f83830152505050565b5f601f19601f8301169050919050565b5f610bfb82610bb9565b610c058185610bc3565b9350610c15818560208601610bd3565b610c1e81610be1565b840191505092915050565b5f8115159050919050565b610c3d81610c29565b82525050565b5f6060820190508181035f830152610c5b8186610bf1565b9050610c6a6020830185610b91565b610c776040830184610c34565b949350505050565b610c8881610b88565b8114610c92575f5ffd5b50565b5f81359050610ca381610c7f565b92915050565b5f5f60408385031215610cbf57610cbe610afb565b5b5f610ccc85828601610b49565b9250506020610cdd85828601610c95565b9150509250929050565b5f6080820190508181035f830152610cff8187610bf1565b9050610d0e6020830186610b91565b610d1b6040830185610b91565b610d286060830184610b91565b95945050505050565b5f5ffd5b5f5ffd5b7f4e487b71000000000000000000000000000000000000000000000000000000005f52604160045260245ffd5b610d6f82610be1565b810181811067ffffffffffffffff82111715610d8e57610d8d610d39565b5b80604052505050565b5f610da0610af2565b9050610dac8282610d66565b919050565b5f67ffffffffffffffff821115610dcb57610dca610d39565b5b610dd482610be1565b9050602081019050919050565b828183375f83830152505050565b5f610e01610dfc84610db1565b610d97565b905082815260208101848484011115610e1d57610e1c610d35565b5b610e28848285610de1565b509392505050565b5f82601f830112610e4457610e43610d31565b5b8135610e54848260208601610def565b91505092915050565b5f5f5f60608486031215610e7457610e73610afb565b5b5f84013567ffffffffffffffff811115610e9157610e90610aff565b5b610e9d86828701610e30565b9350506020610eae86828701610c95565b9250506040610ebf86828701610c95565b9150509250925092565b5f5f60408385031215610edf57610ede610afb565b5b5f83013567ffffffffffffffff811115610efc57610efb610aff565b5b610f0885828601610e30565b9250506020610f1985828601610c95565b9150509250929050565b5f60208284031215610f3857610f37610afb565b5b5f610f4584828501610c95565b91505092915050565b7f4e487b71000000000000000000000000000000000000000000000000000000005f52602260045260245ffd5b5f6002820490506001821680610f9257607f821691505b602082108103610fa557610fa4610f4e565b5b50919050565b7f55736572206e6f742072656769737465726564000000000000000000000000005f82015250565b5f610fdf601383610bc3565b9150610fea82610fab565b602082019050919050565b5f6020820190508181035f83015261100c81610fd3565b9050919050565b5f819050815f5260205f209050919050565b5f6020601f8301049050919050565b5f82821b905092915050565b5f6008830261106f7fffffffffffffffffffffffffffffffffffffffffffffffffffffffffffffffff82611034565b6110798683611034565b95508019841693508086168417925050509392505050565b5f819050919050565b5f6110b46110af6110aa84610b88565b611091565b610b88565b9050919050565b5f819050919050565b6110cd8361109a565b6110e16110d9826110bb565b848454611040565b825550505050565b5f5f905090565b6110f86110e9565b6111038184846110c4565b505050565b5b818110156111265761111b5f826110f0565b600181019050611109565b5050565b601f82111561116b5761113c81611013565b61114584611025565b81016020851015611154578190505b61116861116085611025565b830182611108565b50505b505050565b5f82821c905092915050565b5f61118b5f1984600802611170565b1980831691505092915050565b5f6111a3838361117c565b9150826002028217905092915050565b6111bc82610bb9565b67ffffffffffffffff8111156111d5576111d4610d39565b5b6111df8254610f7b565b6111ea82828561112a565b5f60209050601f83116001811461121b575f8415611209578287015190505b6112138582611198565b86555061127a565b601f19841661122986611013565b5f5b828110156112505784890151825560018201915060208501945060208101905061122b565b8683101561126d5784890151611269601f89168261117c565b8355505b6001600288020188555050505b505050505050565b7f4e487b71000000000000000000000000000000000000000000000000000000005f52601160045260245ffd5b5f6112b982610b88565b91507fffffffffffffffffffffffffffffffffffffffffffffffffffffffffffffffff82036112eb576112ea611282565b5b600182019050919050565b5f61130082610b88565b915061130b83610b88565b925082820190508082111561132357611322611282565b5b92915050565b7f313020576f726b6f75747320436f6d706c6574656400000000000000000000005f82015250565b5f61135d601583610bc3565b915061136882611329565b602082019050919050565b5f6040820190508181035f83015261138a81611351565b90506113996020830184610b91565b92915050565b7f353020576f726b6f75747320436f6d706c6574656400000000000000000000005f82015250565b5f6113d3601583610bc3565b91506113de8261139f565b602082019050919050565b5f6040820190508181035f830152611400816113c7565b905061140f6020830184610b91565b92915050565b5f61141f82610b88565b915061142a83610b88565b925082820390508181111561144257611441611282565b5b92915050565b7f3130304b20546f74616c2044697374616e6365000000000000000000000000005f82015250565b5f61147c601383610bc3565b915061148782611448565b602082019050919050565b5f6040820190508181035f8301526114a981611470565b90506114b86020830184610b91565b92915050565b7f5573657220616c726561647920726567697374657265640000000000000000005f82015250565b5f6114f2601783610bc3565b91506114fd826114be565b602082019050919050565b5f6020820190508181035f83015261151f816114e6565b9050919050565b5f81905092915050565b5f61153a82610bb9565b6115448185611526565b9350611554818560208601610bd3565b80840191505092915050565b5f61156b8284611530565b915081905092915050565b5f61158082610b88565b915061158b83610b88565b925082820261159981610b88565b915082820484148315176115b0576115af611282565b5b5092915050565b7f4e487b71000000000000000000000000000000000000000000000000000000005f52601260045260245ffd5b5f6115ee82610b88565b91506115f983610b88565b925082611609576116086115b7565b5b828204905092915050565b7f57656967687420476f616c2052656163686564000000000000000000000000005f82015250565b5f611648601383610bc3565b915061165382611614565b602082019050919050565b5f6040820190508181035f8301526116758161163c565b90506116846020830184610b91565b92915050565b5f60408201905061169d5f830185610b91565b6116aa6020830184610b91565b939250505056fea2646970667358221220436002cd6294c0518df1845770dddfc0fd038aba8ca0c7137fafc180967be34464736f6c634300081f0033",
					"opcodes": "PUSH1 0x80 PUSH1 0x40 MSTORE CALLVALUE DUP1 ISZERO PUSH1 0xE JUMPI PUSH0 PUSH0 REVERT JUMPDEST POP PUSH2 0x16E7 DUP1 PUSH2 0x1C PUSH0 CODECOPY PUSH0 RETURN INVALID PUSH1 0x80 PUSH1 0x40 MSTORE CALLVALUE DUP1 ISZERO PUSH2 0xF JUMPI PUSH0 PUSH0 REVERT JUMPDEST POP PUSH1 0x4 CALLDATASIZE LT PUSH2 0x7B JUMPI PUSH0 CALLDATALOAD PUSH1 0xE0 SHR DUP1 PUSH4 0xAE5BDE4E GT PUSH2 0x59 JUMPI DUP1 PUSH4 0xAE5BDE4E EQ PUSH2 0x114 JUMPI DUP1 PUSH4 0xC5AF3F8C EQ PUSH2 0x144 JUMPI DUP1 PUSH4 0xD3951002 EQ PUSH2 0x160 JUMPI DUP1 PUSH4 0xEC3DF6AD EQ PUSH2 0x17C JUMPI PUSH2 0x7B JUMP JUMPDEST DUP1 PUSH4 0x3CDADDD EQ PUSH2 0x7F JUMPI DUP1 PUSH4 0x332D56D7 EQ PUSH2 0xAF JUMPI DUP1 PUSH4 0x3F9A3256 EQ PUSH2 0xE1 JUMPI JUMPDEST PUSH0 PUSH0 REVERT JUMPDEST PUSH2 0x99 PUSH1 0x4 DUP1 CALLDATASIZE SUB DUP2 ADD SWAP1 PUSH2 0x94 SWAP2 SWAP1 PUSH2 0xB5D JUMP JUMPDEST PUSH2 0x198 JUMP JUMPDEST PUSH1 0x40 MLOAD PUSH2 0xA6 SWAP2 SWAP1 PUSH2 0xBA0 JUMP JUMPDEST PUSH1 0x40 MLOAD DUP1 SWAP2 SUB SWAP1 RETURN JUMPDEST PUSH2 0xC9 PUSH1 0x4 DUP1 CALLDATASIZE SUB DUP2 ADD SWAP1 PUSH2 0xC4 SWAP2 SWAP1 PUSH2 0xB5D JUMP JUMPDEST PUSH2 0x1AD JUMP JUMPDEST PUSH1 0x40 MLOAD PUSH2 0xD8 SWAP4 SWAP3 SWAP2 SWAP1 PUSH2 0xC43 JUMP JUMPDEST PUSH1 0x40 MLOAD DUP1 SWAP2 SUB SWAP1 RETURN JUMPDEST PUSH2 0xFB PUSH1 0x4 DUP1 CALLDATASIZE SUB DUP2 ADD SWAP1 PUSH2 0xF6 SWAP2 SWAP1 PUSH2 0xCA9 JUMP JUMPDEST PUSH2 0x264 JUMP JUMPDEST PUSH1 0x40 MLOAD PUSH2 0x10B SWAP5 SWAP4 SWAP3 SWAP2 SWAP1 PUSH2 0xCE7 JUMP JUMPDEST PUSH1 0x40 MLOAD DUP1 SWAP2 SUB SWAP1 RETURN JUMPDEST PUSH2 0x12E PUSH1 0x4 DUP1 CALLDATASIZE SUB DUP2 ADD SWAP1 PUSH2 0x129 SWAP2 SWAP1 PUSH2 0xB5D JUMP JUMPDEST PUSH2 0x330 JUMP JUMPDEST PUSH1 0x40 MLOAD PUSH2 0x13B SWAP2 SWAP1 PUSH2 0xBA0 JUMP JUMPDEST PUSH1 0x40 MLOAD DUP1 SWAP2 SUB SWAP1 RETURN JUMPDEST PUSH2 0x15E PUSH1 0x4 DUP1 CALLDATASIZE SUB DUP2 ADD SWAP1 PUSH2 0x159 SWAP2 SWAP1 PUSH2 0xE5D JUMP JUMPDEST PUSH2 0x345 JUMP JUMPDEST STOP JUMPDEST PUSH2 0x17A PUSH1 0x4 DUP1 CALLDATASIZE SUB DUP2 ADD SWAP1 PUSH2 0x175 SWAP2 SWAP1 PUSH2 0xEC9 JUMP JUMPDEST PUSH2 0x7A6 JUMP JUMPDEST STOP JUMPDEST PUSH2 0x196 PUSH1 0x4 DUP1 CALLDATASIZE SUB DUP2 ADD SWAP1 PUSH2 0x191 SWAP2 SWAP1 PUSH2 0xF23 JUMP JUMPDEST PUSH2 0x939 JUMP JUMPDEST STOP JUMPDEST PUSH1 0x2 PUSH1 0x20 MSTORE DUP1 PUSH0 MSTORE PUSH1 0x40 PUSH0 KECCAK256 PUSH0 SWAP2 POP SWAP1 POP SLOAD DUP2 JUMP JUMPDEST PUSH0 PUSH1 0x20 MSTORE DUP1 PUSH0 MSTORE PUSH1 0x40 PUSH0 KECCAK256 PUSH0 SWAP2 POP SWAP1 POP DUP1 PUSH0 ADD DUP1 SLOAD PUSH2 0x1CB SWAP1 PUSH2 0xF7B JUMP JUMPDEST DUP1 PUSH1 0x1F ADD PUSH1 0x20 DUP1 SWAP2 DIV MUL PUSH1 0x20 ADD PUSH1 0x40 MLOAD SWAP1 DUP2 ADD PUSH1 0x40 MSTORE DUP1 SWAP3 SWAP2 SWAP1 DUP2 DUP2 MSTORE PUSH1 0x20 ADD DUP3 DUP1 SLOAD PUSH2 0x1F7 SWAP1 PUSH2 0xF7B JUMP JUMPDEST DUP1 ISZERO PUSH2 0x242 JUMPI DUP1 PUSH1 0x1F LT PUSH2 0x219 JUMPI PUSH2 0x100 DUP1 DUP4 SLOAD DIV MUL DUP4 MSTORE SWAP2 PUSH1 0x20 ADD SWAP2 PUSH2 0x242 JUMP JUMPDEST DUP3 ADD SWAP2 SWAP1 PUSH0 MSTORE PUSH1 0x20 PUSH0 KECCAK256 SWAP1 JUMPDEST DUP2 SLOAD DUP2 MSTORE SWAP1 PUSH1 0x1 ADD SWAP1 PUSH1 0x20 ADD DUP1 DUP4 GT PUSH2 0x225 JUMPI DUP3 SWAP1 SUB PUSH1 0x1F AND DUP3 ADD SWAP2 JUMPDEST POP POP POP POP POP SWAP1 DUP1 PUSH1 0x1 ADD SLOAD SWAP1 DUP1 PUSH1 0x2 ADD PUSH0 SWAP1 SLOAD SWAP1 PUSH2 0x100 EXP SWAP1 DIV PUSH1 0xFF AND SWAP1 POP DUP4 JUMP JUMPDEST PUSH1 0x1 PUSH1 0x20 MSTORE DUP2 PUSH0 MSTORE PUSH1 0x40 PUSH0 KECCAK256 DUP2 DUP2 SLOAD DUP2 LT PUSH2 0x27D JUMPI PUSH0 DUP1 REVERT JUMPDEST SWAP1 PUSH0 MSTORE PUSH1 0x20 PUSH0 KECCAK256 SWAP1 PUSH1 0x4 MUL ADD PUSH0 SWAP2 POP SWAP2 POP POP DUP1 PUSH0 ADD DUP1 SLOAD PUSH2 0x29D SWAP1 PUSH2 0xF7B JUMP JUMPDEST DUP1 PUSH1 0x1F ADD PUSH1 0x20 DUP1 SWAP2 DIV MUL PUSH1 0x20 ADD PUSH1 0x40 MLOAD SWAP1 DUP2 ADD PUSH1 0x40 MSTORE DUP1 SWAP3 SWAP2 SWAP1 DUP2 DUP2 MSTORE PUSH1 0x20 ADD DUP3 DUP1 SLOAD PUSH2 0x2C9 SWAP1 PUSH2 0xF7B JUMP JUMPDEST DUP1 ISZERO PUSH2 0x314 JUMPI DUP1 PUSH1 0x1F LT PUSH2 0x2EB JUMPI PUSH2 0x100 DUP1 DUP4 SLOAD DIV MUL DUP4 MSTORE SWAP2 PUSH1 0x20 ADD SWAP2 PUSH2 0x314 JUMP JUMPDEST DUP3 ADD SWAP2 SWAP1 PUSH0 MSTORE PUSH1 0x20 PUSH0 KECCAK256 SWAP1 JUMPDEST DUP2 SLOAD DUP2 MSTORE SWAP1 PUSH1 0x1 ADD SWAP1 PUSH1 0x20 ADD DUP1 DUP4 GT PUSH2 0x2F7 JUMPI DUP3 SWAP1 SUB PUSH1 0x1F AND DUP3 ADD SWAP2 JUMPDEST POP POP POP POP POP SWAP1 DUP1 PUSH1 0x1 ADD SLOAD SWAP1 DUP1 PUSH1 0x2 ADD SLOAD SWAP1 DUP1 PUSH1 0x3 ADD SLOAD SWAP1 POP DUP5 JUMP JUMPDEST PUSH1 0x3 PUSH1 0x20 MSTORE DUP1 PUSH0 MSTORE PUSH1 0x40 PUSH0 KECCAK256 PUSH0 SWAP2 POP SWAP1 POP SLOAD DUP2 JUMP JUMPDEST PUSH0 PUSH0 CALLER PUSH20 0xFFFFFFFFFFFFFFFFFFFFFFFFFFFFFFFFFFFFFFFF AND PUSH20 0xFFFFFFFFFFFFFFFFFFFFFFFFFFFFFFFFFFFFFFFF AND DUP2 MSTORE PUSH1 0x20 ADD SWAP1 DUP2 MSTORE PUSH1 0x20 ADD PUSH0 KECCAK256 PUSH1 0x2 ADD PUSH0 SWAP1 SLOAD SWAP1 PUSH2 0x100 EXP SWAP1 DIV PUSH1 0xFF AND PUSH2 0x3D0 JUMPI PUSH1 0x40 MLOAD PUSH32 0x8C379A000000000000000000000000000000000000000000000000000000000 DUP2 MSTORE PUSH1 0x4 ADD PUSH2 0x3C7 SWAP1 PUSH2 0xFF5 JUMP JUMPDEST PUSH1 0x40 MLOAD DUP1 SWAP2 SUB SWAP1 REVERT JUMPDEST PUSH0 PUSH1 0x40 MLOAD DUP1 PUSH1 0x80 ADD PUSH1 0x40 MSTORE DUP1 DUP6 DUP2 MSTORE PUSH1 0x20 ADD DUP5 DUP2 MSTORE PUSH1 0x20 ADD DUP4 DUP2 MSTORE PUSH1 0x20 ADD TIMESTAMP DUP2 MSTORE POP SWAP1 POP PUSH1 0x1 PUSH0 CALLER PUSH20 0xFFFFFFFFFFFFFFFFFFFFFFFFFFFFFFFFFFFFFFFF AND PUSH20 0xFFFFFFFFFFFFFFFFFFFFFFFFFFFFFFFFFFFFFFFF AND DUP2 MSTORE PUSH1 0x20 ADD SWAP1 DUP2 MSTORE PUSH1 0x20 ADD PUSH0 KECCAK256 DUP2 SWAP1 DUP1 PUSH1 0x1 DUP2 SLOAD ADD DUP1 DUP3 SSTORE DUP1 SWAP2 POP POP PUSH1 0x1 SWAP1 SUB SWAP1 PUSH0 MSTORE PUSH1 0x20 PUSH0 KECCAK256 SWAP1 PUSH1 0x4 MUL ADD PUSH0 SWAP1 SWAP2 SWAP1 SWAP2 SWAP1 SWAP2 POP PUSH0 DUP3 ADD MLOAD DUP2 PUSH0 ADD SWAP1 DUP2 PUSH2 0x46B SWAP2 SWAP1 PUSH2 0x11B3 JUMP JUMPDEST POP PUSH1 0x20 DUP3 ADD MLOAD DUP2 PUSH1 0x1 ADD SSTORE PUSH1 0x40 DUP3 ADD MLOAD DUP2 PUSH1 0x2 ADD SSTORE PUSH1 0x60 DUP3 ADD MLOAD DUP2 PUSH1 0x3 ADD SSTORE POP POP PUSH1 0x2 PUSH0 CALLER PUSH20 0xFFFFFFFFFFFFFFFFFFFFFFFFFFFFFFFFFFFFFFFF AND PUSH20 0xFFFFFFFFFFFFFFFFFFFFFFFFFFFFFFFFFFFFFFFF AND DUP2 MSTORE PUSH1 0x20 ADD SWAP1 DUP2 MSTORE PUSH1 0x20 ADD PUSH0 KECCAK256 PUSH0 DUP2 SLOAD DUP1 SWAP3 SWAP2 SWAP1 PUSH2 0x4D9 SWAP1 PUSH2 0x12AF JUMP JUMPDEST SWAP2 SWAP1 POP SSTORE POP DUP2 PUSH1 0x3 PUSH0 CALLER PUSH20 0xFFFFFFFFFFFFFFFFFFFFFFFFFFFFFFFFFFFFFFFF AND PUSH20 0xFFFFFFFFFFFFFFFFFFFFFFFFFFFFFFFFFFFFFFFF AND DUP2 MSTORE PUSH1 0x20 ADD SWAP1 DUP2 MSTORE PUSH1 0x20 ADD PUSH0 KECCAK256 PUSH0 DUP3 DUP3 SLOAD PUSH2 0x52A SWAP2 SWAP1 PUSH2 0x12F6 JUMP JUMPDEST SWAP3 POP POP DUP2 SWAP1 SSTORE POP CALLER PUSH20 0xFFFFFFFFFFFFFFFFFFFFFFFFFFFFFFFFFFFFFFFF AND PUSH32 0x587A8C232DA0D7B15371C5660FF1FDC5FBAF667E6A6B9B6587A378509038FD73 DUP6 DUP6 DUP6 TIMESTAMP PUSH1 0x40 MLOAD PUSH2 0x57D SWAP5 SWAP4 SWAP3 SWAP2 SWAP1 PUSH2 0xCE7 JUMP JUMPDEST PUSH1 0x40 MLOAD DUP1 SWAP2 SUB SWAP1 LOG2 PUSH1 0xA PUSH1 0x2 PUSH0 CALLER PUSH20 0xFFFFFFFFFFFFFFFFFFFFFFFFFFFFFFFFFFFFFFFF AND PUSH20 0xFFFFFFFFFFFFFFFFFFFFFFFFFFFFFFFFFFFFFFFF AND DUP2 MSTORE PUSH1 0x20 ADD SWAP1 DUP2 MSTORE PUSH1 0x20 ADD PUSH0 KECCAK256 SLOAD SUB PUSH2 0x61D JUMPI CALLER PUSH20 0xFFFFFFFFFFFFFFFFFFFFFFFFFFFFFFFFFFFFFFFF AND PUSH32 0x8E330A58901AE7DBA0B65F495856EAB3FC73FC6CECA3DD7FBD2F4F9D14876E37 TIMESTAMP PUSH1 0x40 MLOAD PUSH2 0x610 SWAP2 SWAP1 PUSH2 0x1373 JUMP JUMPDEST PUSH1 0x40 MLOAD DUP1 SWAP2 SUB SWAP1 LOG2 PUSH2 0x6B2 JUMP JUMPDEST PUSH1 0x32 PUSH1 0x2 PUSH0 CALLER PUSH20 0xFFFFFFFFFFFFFFFFFFFFFFFFFFFFFFFFFFFFFFFF AND PUSH20 0xFFFFFFFFFFFFFFFFFFFFFFFFFFFFFFFFFFFFFFFF AND DUP2 MSTORE PUSH1 0x20 ADD SWAP1 DUP2 MSTORE PUSH1 0x20 ADD PUSH0 KECCAK256 SLOAD SUB PUSH2 0x6B1 JUMPI CALLER PUSH20 0xFFFFFFFFFFFFFFFFFFFFFFFFFFFFFFFFFFFFFFFF AND PUSH32 0x8E330A58901AE7DBA0B65F495856EAB3FC73FC6CECA3DD7FBD2F4F9D14876E37 TIMESTAMP PUSH1 0x40 MLOAD PUSH2 0x6A8 SWAP2 SWAP1 PUSH2 0x13E9 JUMP JUMPDEST PUSH1 0x40 MLOAD DUP1 SWAP2 SUB SWAP1 LOG2 JUMPDEST JUMPDEST PUSH3 0x186A0 PUSH1 0x3 PUSH0 CALLER PUSH20 0xFFFFFFFFFFFFFFFFFFFFFFFFFFFFFFFFFFFFFFFF AND PUSH20 0xFFFFFFFFFFFFFFFFFFFFFFFFFFFFFFFFFFFFFFFF AND DUP2 MSTORE PUSH1 0x20 ADD SWAP1 DUP2 MSTORE PUSH1 0x20 ADD PUSH0 KECCAK256 SLOAD LT ISZERO DUP1 ISZERO PUSH2 0x74C JUMPI POP PUSH3 0x186A0 DUP3 PUSH1 0x3 PUSH0 CALLER PUSH20 0xFFFFFFFFFFFFFFFFFFFFFFFFFFFFFFFFFFFFFFFF AND PUSH20 0xFFFFFFFFFFFFFFFFFFFFFFFFFFFFFFFFFFFFFFFF AND DUP2 MSTORE PUSH1 0x20 ADD SWAP1 DUP2 MSTORE PUSH1 0x20 ADD PUSH0 KECCAK256 SLOAD PUSH2 0x74A SWAP2 SWAP1 PUSH2 0x1415 JUMP JUMPDEST LT JUMPDEST ISZERO PUSH2 0x7A0 JUMPI CALLER PUSH20 0xFFFFFFFFFFFFFFFFFFFFFFFFFFFFFFFFFFFFFFFF AND PUSH32 0x8E330A58901AE7DBA0B65F495856EAB3FC73FC6CECA3DD7FBD2F4F9D14876E37 TIMESTAMP PUSH1 0x40 MLOAD PUSH2 0x797 SWAP2 SWAP1 PUSH2 0x1492 JUMP JUMPDEST PUSH1 0x40 MLOAD DUP1 SWAP2 SUB SWAP1 LOG2 JUMPDEST POP POP POP POP JUMP JUMPDEST PUSH0 ISZERO ISZERO PUSH0 PUSH0 CALLER PUSH20 0xFFFFFFFFFFFFFFFFFFFFFFFFFFFFFFFFFFFFFFFF AND PUSH20 0xFFFFFFFFFFFFFFFFFFFFFFFFFFFFFFFFFFFFFFFF AND DUP2 MSTORE PUSH1 0x20 ADD SWAP1 DUP2 MSTORE PUSH1 0x20 ADD PUSH0 KECCAK256 PUSH1 0x2 ADD PUSH0 SWAP1 SLOAD SWAP1 PUSH2 0x100 EXP SWAP1 DIV PUSH1 0xFF AND ISZERO ISZERO EQ PUSH2 0x837 JUMPI PUSH1 0x40 MLOAD PUSH32 0x8C379A000000000000000000000000000000000000000000000000000000000 DUP2 MSTORE PUSH1 0x4 ADD PUSH2 0x82E SWAP1 PUSH2 0x1508 JUMP JUMPDEST PUSH1 0x40 MLOAD DUP1 SWAP2 SUB SWAP1 REVERT JUMPDEST PUSH1 0x40 MLOAD DUP1 PUSH1 0x60 ADD PUSH1 0x40 MSTORE DUP1 DUP4 DUP2 MSTORE PUSH1 0x20 ADD DUP3 DUP2 MSTORE PUSH1 0x20 ADD PUSH1 0x1 ISZERO ISZERO DUP2 MSTORE POP PUSH0 PUSH0 CALLER PUSH20 0xFFFFFFFFFFFFFFFFFFFFFFFFFFFFFFFFFFFFFFFF AND PUSH20 0xFFFFFFFFFFFFFFFFFFFFFFFFFFFFFFFFFFFFFFFF AND DUP2 MSTORE PUSH1 0x20 ADD SWAP1 DUP2 MSTORE PUSH1 0x20 ADD PUSH0 KECCAK256 PUSH0 DUP3 ADD MLOAD DUP2 PUSH0 ADD SWAP1 DUP2 PUSH2 0x8A4 SWAP2 SWAP1 PUSH2 0x11B3 JUMP JUMPDEST POP PUSH1 0x20 DUP3 ADD MLOAD DUP2 PUSH1 0x1 ADD SSTORE PUSH1 0x40 DUP3 ADD MLOAD DUP2 PUSH1 0x2 ADD PUSH0 PUSH2 0x100 EXP DUP2 SLOAD DUP2 PUSH1 0xFF MUL NOT AND SWAP1 DUP4 ISZERO ISZERO MUL OR SWAP1 SSTORE POP SWAP1 POP POP DUP2 PUSH1 0x40 MLOAD PUSH2 0x8DF SWAP2 SWAP1 PUSH2 0x1560 JUMP JUMPDEST PUSH1 0x40 MLOAD DUP1 SWAP2 SUB SWAP1 KECCAK256 CALLER PUSH20 0xFFFFFFFFFFFFFFFFFFFFFFFFFFFFFFFFFFFFFFFF AND PUSH32 0x89105A1C6A3C2FBD471255C66A31CCAB604AF5697F67D7E2E9A0028C5E4DBD91 TIMESTAMP PUSH1 0x40 MLOAD PUSH2 0x92D SWAP2 SWAP1 PUSH2 0xBA0 JUMP JUMPDEST PUSH1 0x40 MLOAD DUP1 SWAP2 SUB SWAP1 LOG3 POP POP JUMP JUMPDEST PUSH0 PUSH0 CALLER PUSH20 0xFFFFFFFFFFFFFFFFFFFFFFFFFFFFFFFFFFFFFFFF AND PUSH20 0xFFFFFFFFFFFFFFFFFFFFFFFFFFFFFFFFFFFFFFFF AND DUP2 MSTORE PUSH1 0x20 ADD SWAP1 DUP2 MSTORE PUSH1 0x20 ADD PUSH0 KECCAK256 PUSH1 0x2 ADD PUSH0 SWAP1 SLOAD SWAP1 PUSH2 0x100 EXP SWAP1 DIV PUSH1 0xFF AND PUSH2 0x9C4 JUMPI PUSH1 0x40 MLOAD PUSH32 0x8C379A000000000000000000000000000000000000000000000000000000000 DUP2 MSTORE PUSH1 0x4 ADD PUSH2 0x9BB SWAP1 PUSH2 0xFF5 JUMP JUMPDEST PUSH1 0x40 MLOAD DUP1 SWAP2 SUB SWAP1 REVERT JUMPDEST PUSH0 PUSH0 PUSH0 CALLER PUSH20 0xFFFFFFFFFFFFFFFFFFFFFFFFFFFFFFFFFFFFFFFF AND PUSH20 0xFFFFFFFFFFFFFFFFFFFFFFFFFFFFFFFFFFFFFFFF AND DUP2 MSTORE PUSH1 0x20 ADD SWAP1 DUP2 MSTORE PUSH1 0x20 ADD PUSH0 KECCAK256 SWAP1 POP DUP1 PUSH1 0x1 ADD SLOAD DUP3 LT DUP1 ISZERO PUSH2 0xA41 JUMPI POP PUSH1 0x5 DUP2 PUSH1 0x1 ADD SLOAD PUSH1 0x64 DUP5 DUP5 PUSH1 0x1 ADD SLOAD PUSH2 0xA2A SWAP2 SWAP1 PUSH2 0x1415 JUMP JUMPDEST PUSH2 0xA34 SWAP2 SWAP1 PUSH2 0x1576 JUMP JUMPDEST PUSH2 0xA3E SWAP2 SWAP1 PUSH2 0x15E4 JUMP JUMPDEST LT ISZERO JUMPDEST ISZERO PUSH2 0xA95 JUMPI CALLER PUSH20 0xFFFFFFFFFFFFFFFFFFFFFFFFFFFFFFFFFFFFFFFF AND PUSH32 0x8E330A58901AE7DBA0B65F495856EAB3FC73FC6CECA3DD7FBD2F4F9D14876E37 TIMESTAMP PUSH1 0x40 MLOAD PUSH2 0xA8C SWAP2 SWAP1 PUSH2 0x165E JUMP JUMPDEST PUSH1 0x40 MLOAD DUP1 SWAP2 SUB SWAP1 LOG2 JUMPDEST DUP2 DUP2 PUSH1 0x1 ADD DUP2 SWAP1 SSTORE POP CALLER PUSH20 0xFFFFFFFFFFFFFFFFFFFFFFFFFFFFFFFFFFFFFFFF AND PUSH32 0x5826151879C9A557068BA4E389BA7F00512DB472CC81778EA86696B2B0F5AFD DUP4 TIMESTAMP PUSH1 0x40 MLOAD PUSH2 0xAE6 SWAP3 SWAP2 SWAP1 PUSH2 0x168A JUMP JUMPDEST PUSH1 0x40 MLOAD DUP1 SWAP2 SUB SWAP1 LOG2 POP POP JUMP JUMPDEST PUSH0 PUSH1 0x40 MLOAD SWAP1 POP SWAP1 JUMP JUMPDEST PUSH0 PUSH0 REVERT JUMPDEST PUSH0 PUSH0 REVERT JUMPDEST PUSH0 PUSH20 0xFFFFFFFFFFFFFFFFFFFFFFFFFFFFFFFFFFFFFFFF DUP3 AND SWAP1 POP SWAP2 SWAP1 POP JUMP JUMPDEST PUSH0 PUSH2 0xB2C DUP3 PUSH2 0xB03 JUMP JUMPDEST SWAP1 POP SWAP2 SWAP1 POP JUMP JUMPDEST PUSH2 0xB3C DUP2 PUSH2 0xB22 JUMP JUMPDEST DUP2 EQ PUSH2 0xB46 JUMPI PUSH0 PUSH0 REVERT JUMPDEST POP JUMP JUMPDEST PUSH0 DUP2 CALLDATALOAD SWAP1 POP PUSH2 0xB57 DUP2 PUSH2 0xB33 JUMP JUMPDEST SWAP3 SWAP2 POP POP JUMP JUMPDEST PUSH0 PUSH1 0x20 DUP3 DUP5 SUB SLT ISZERO PUSH2 0xB72 JUMPI PUSH2 0xB71 PUSH2 0xAFB JUMP JUMPDEST JUMPDEST PUSH0 PUSH2 0xB7F DUP5 DUP3 DUP6 ADD PUSH2 0xB49 JUMP JUMPDEST SWAP2 POP POP SWAP3 SWAP2 POP POP JUMP JUMPDEST PUSH0 DUP2 SWAP1 POP SWAP2 SWAP1 POP JUMP JUMPDEST PUSH2 0xB9A DUP2 PUSH2 0xB88 JUMP JUMPDEST DUP3 MSTORE POP POP JUMP JUMPDEST PUSH0 PUSH1 0x20 DUP3 ADD SWAP1 POP PUSH2 0xBB3 PUSH0 DUP4 ADD DUP5 PUSH2 0xB91 JUMP JUMPDEST SWAP3 SWAP2 POP POP JUMP JUMPDEST PUSH0 DUP2 MLOAD SWAP1 POP SWAP2 SWAP1 POP JUMP JUMPDEST PUSH0 DUP3 DUP3 MSTORE PUSH1 0x20 DUP3 ADD SWAP1 POP SWAP3 SWAP2 POP POP JUMP JUMPDEST DUP3 DUP2 DUP4 MCOPY PUSH0 DUP4 DUP4 ADD MSTORE POP POP POP JUMP JUMPDEST PUSH0 PUSH1 0x1F NOT PUSH1 0x1F DUP4 ADD AND SWAP1 POP SWAP2 SWAP1 POP JUMP JUMPDEST PUSH0 PUSH2 0xBFB DUP3 PUSH2 0xBB9 JUMP JUMPDEST PUSH2 0xC05 DUP2 DUP6 PUSH2 0xBC3 JUMP JUMPDEST SWAP4 POP PUSH2 0xC15 DUP2 DUP6 PUSH1 0x20 DUP7 ADD PUSH2 0xBD3 JUMP JUMPDEST PUSH2 0xC1E DUP2 PUSH2 0xBE1 JUMP JUMPDEST DUP5 ADD SWAP2 POP POP SWAP3 SWAP2 POP POP JUMP JUMPDEST PUSH0 DUP2 ISZERO ISZERO SWAP1 POP SWAP2 SWAP1 POP JUMP JUMPDEST PUSH2 0xC3D DUP2 PUSH2 0xC29 JUMP JUMPDEST DUP3 MSTORE POP POP JUMP JUMPDEST PUSH0 PUSH1 0x60 DUP3 ADD SWAP1 POP DUP2 DUP2 SUB PUSH0 DUP4 ADD MSTORE PUSH2 0xC5B DUP2 DUP7 PUSH2 0xBF1 JUMP JUMPDEST SWAP1 POP PUSH2 0xC6A PUSH1 0x20 DUP4 ADD DUP6 PUSH2 0xB91 JUMP JUMPDEST PUSH2 0xC77 PUSH1 0x40 DUP4 ADD DUP5 PUSH2 0xC34 JUMP JUMPDEST SWAP5 SWAP4 POP POP POP POP JUMP JUMPDEST PUSH2 0xC88 DUP2 PUSH2 0xB88 JUMP JUMPDEST DUP2 EQ PUSH2 0xC92 JUMPI PUSH0 PUSH0 REVERT JUMPDEST POP JUMP JUMPDEST PUSH0 DUP2 CALLDATALOAD SWAP1 POP PUSH2 0xCA3 DUP2 PUSH2 0xC7F JUMP JUMPDEST SWAP3 SWAP2 POP POP JUMP JUMPDEST PUSH0 PUSH0 PUSH1 0x40 DUP4 DUP6 SUB SLT ISZERO PUSH2 0xCBF JUMPI PUSH2 0xCBE PUSH2 0xAFB JUMP JUMPDEST JUMPDEST PUSH0 PUSH2 0xCCC DUP6 DUP3 DUP7 ADD PUSH2 0xB49 JUMP JUMPDEST SWAP3 POP POP PUSH1 0x20 PUSH2 0xCDD DUP6 DUP3 DUP7 ADD PUSH2 0xC95 JUMP JUMPDEST SWAP2 POP POP SWAP3 POP SWAP3 SWAP1 POP JUMP JUMPDEST PUSH0 PUSH1 0x80 DUP3 ADD SWAP1 POP DUP2 DUP2 SUB PUSH0 DUP4 ADD MSTORE PUSH2 0xCFF DUP2 DUP8 PUSH2 0xBF1 JUMP JUMPDEST SWAP1 POP PUSH2 0xD0E PUSH1 0x20 DUP4 ADD DUP7 PUSH2 0xB91 JUMP JUMPDEST PUSH2 0xD1B PUSH1 0x40 DUP4 ADD DUP6 PUSH2 0xB91 JUMP JUMPDEST PUSH2 0xD28 PUSH1 0x60 DUP4 ADD DUP5 PUSH2 0xB91 JUMP JUMPDEST SWAP6 SWAP5 POP POP POP POP POP JUMP JUMPDEST PUSH0 PUSH0 REVERT JUMPDEST PUSH0 PUSH0 REVERT JUMPDEST PUSH32 0x4E487B7100000000000000000000000000000000000000000000000000000000 PUSH0 MSTORE PUSH1 0x41 PUSH1 0x4 MSTORE PUSH1 0x24 PUSH0 REVERT JUMPDEST PUSH2 0xD6F DUP3 PUSH2 0xBE1 JUMP JUMPDEST DUP2 ADD DUP2 DUP2 LT PUSH8 0xFFFFFFFFFFFFFFFF DUP3 GT OR ISZERO PUSH2 0xD8E JUMPI PUSH2 0xD8D PUSH2 0xD39 JUMP JUMPDEST JUMPDEST DUP1 PUSH1 0x40 MSTORE POP POP POP JUMP JUMPDEST PUSH0 PUSH2 0xDA0 PUSH2 0xAF2 JUMP JUMPDEST SWAP1 POP PUSH2 0xDAC DUP3 DUP3 PUSH2 0xD66 JUMP JUMPDEST SWAP2 SWAP1 POP JUMP JUMPDEST PUSH0 PUSH8 0xFFFFFFFFFFFFFFFF DUP3 GT ISZERO PUSH2 0xDCB JUMPI PUSH2 0xDCA PUSH2 0xD39 JUMP JUMPDEST JUMPDEST PUSH2 0xDD4 DUP3 PUSH2 0xBE1 JUMP JUMPDEST SWAP1 POP PUSH1 0x20 DUP2 ADD SWAP1 POP SWAP2 SWAP1 POP JUMP JUMPDEST DUP3 DUP2 DUP4 CALLDATACOPY PUSH0 DUP4 DUP4 ADD MSTORE POP POP POP JUMP JUMPDEST PUSH0 PUSH2 0xE01 PUSH2 0xDFC DUP5 PUSH2 0xDB1 JUMP JUMPDEST PUSH2 0xD97 JUMP JUMPDEST SWAP1 POP DUP3 DUP2 MSTORE PUSH1 0x20 DUP2 ADD DUP5 DUP5 DUP5 ADD GT ISZERO PUSH2 0xE1D JUMPI PUSH2 0xE1C PUSH2 0xD35 JUMP JUMPDEST JUMPDEST PUSH2 0xE28 DUP5 DUP3 DUP6 PUSH2 0xDE1 JUMP JUMPDEST POP SWAP4 SWAP3 POP POP POP JUMP JUMPDEST PUSH0 DUP3 PUSH1 0x1F DUP4 ADD SLT PUSH2 0xE44 JUMPI PUSH2 0xE43 PUSH2 0xD31 JUMP JUMPDEST JUMPDEST DUP2 CALLDATALOAD PUSH2 0xE54 DUP5 DUP3 PUSH1 0x20 DUP7 ADD PUSH2 0xDEF JUMP JUMPDEST SWAP2 POP POP SWAP3 SWAP2 POP POP JUMP JUMPDEST PUSH0 PUSH0 PUSH0 PUSH1 0x60 DUP5 DUP7 SUB SLT ISZERO PUSH2 0xE74 JUMPI PUSH2 0xE73 PUSH2 0xAFB JUMP JUMPDEST JUMPDEST PUSH0 DUP5 ADD CALLDATALOAD PUSH8 0xFFFFFFFFFFFFFFFF DUP2 GT ISZERO PUSH2 0xE91 JUMPI PUSH2 0xE90 PUSH2 0xAFF JUMP JUMPDEST JUMPDEST PUSH2 0xE9D DUP7 DUP3 DUP8 ADD PUSH2 0xE30 JUMP JUMPDEST SWAP4 POP POP PUSH1 0x20 PUSH2 0xEAE DUP7 DUP3 DUP8 ADD PUSH2 0xC95 JUMP JUMPDEST SWAP3 POP POP PUSH1 0x40 PUSH2 0xEBF DUP7 DUP3 DUP8 ADD PUSH2 0xC95 JUMP JUMPDEST SWAP2 POP POP SWAP3 POP SWAP3 POP SWAP3 JUMP JUMPDEST PUSH0 PUSH0 PUSH1 0x40 DUP4 DUP6 SUB SLT ISZERO PUSH2 0xEDF JUMPI PUSH2 0xEDE PUSH2 0xAFB JUMP JUMPDEST JUMPDEST PUSH0 DUP4 ADD CALLDATALOAD PUSH8 0xFFFFFFFFFFFFFFFF DUP2 GT ISZERO PUSH2 0xEFC JUMPI PUSH2 0xEFB PUSH2 0xAFF JUMP JUMPDEST JUMPDEST PUSH2 0xF08 DUP6 DUP3 DUP7 ADD PUSH2 0xE30 JUMP JUMPDEST SWAP3 POP POP PUSH1 0x20 PUSH2 0xF19 DUP6 DUP3 DUP7 ADD PUSH2 0xC95 JUMP JUMPDEST SWAP2 POP POP SWAP3 POP SWAP3 SWAP1 POP JUMP JUMPDEST PUSH0 PUSH1 0x20 DUP3 DUP5 SUB SLT ISZERO PUSH2 0xF38 JUMPI PUSH2 0xF37 PUSH2 0xAFB JUMP JUMPDEST JUMPDEST PUSH0 PUSH2 0xF45 DUP5 DUP3 DUP6 ADD PUSH2 0xC95 JUMP JUMPDEST SWAP2 POP POP SWAP3 SWAP2 POP POP JUMP JUMPDEST PUSH32 0x4E487B7100000000000000000000000000000000000000000000000000000000 PUSH0 MSTORE PUSH1 0x22 PUSH1 0x4 MSTORE PUSH1 0x24 PUSH0 REVERT JUMPDEST PUSH0 PUSH1 0x2 DUP3 DIV SWAP1 POP PUSH1 0x1 DUP3 AND DUP1 PUSH2 0xF92 JUMPI PUSH1 0x7F DUP3 AND SWAP2 POP JUMPDEST PUSH1 0x20 DUP3 LT DUP2 SUB PUSH2 0xFA5 JUMPI PUSH2 0xFA4 PUSH2 0xF4E JUMP JUMPDEST JUMPDEST POP SWAP2 SWAP1 POP JUMP JUMPDEST PUSH32 0x55736572206E6F74207265676973746572656400000000000000000000000000 PUSH0 DUP3 ADD MSTORE POP JUMP JUMPDEST PUSH0 PUSH2 0xFDF PUSH1 0x13 DUP4 PUSH2 0xBC3 JUMP JUMPDEST SWAP2 POP PUSH2 0xFEA DUP3 PUSH2 0xFAB JUMP JUMPDEST PUSH1 0x20 DUP3 ADD SWAP1 POP SWAP2 SWAP1 POP JUMP JUMPDEST PUSH0 PUSH1 0x20 DUP3 ADD SWAP1 POP DUP2 DUP2 SUB PUSH0 DUP4 ADD MSTORE PUSH2 0x100C DUP2 PUSH2 0xFD3 JUMP JUMPDEST SWAP1 POP SWAP2 SWAP1 POP JUMP JUMPDEST PUSH0 DUP2 SWAP1 POP DUP2 PUSH0 MSTORE PUSH1 0x20 PUSH0 KECCAK256 SWAP1 POP SWAP2 SWAP1 POP JUMP JUMPDEST PUSH0 PUSH1 0x20 PUSH1 0x1F DUP4 ADD DIV SWAP1 POP SWAP2 SWAP1 POP JUMP JUMPDEST PUSH0 DUP3 DUP3 SHL SWAP1 POP SWAP3 SWAP2 POP POP JUMP JUMPDEST PUSH0 PUSH1 0x8 DUP4 MUL PUSH2 0x106F PUSH32 0xFFFFFFFFFFFFFFFFFFFFFFFFFFFFFFFFFFFFFFFFFFFFFFFFFFFFFFFFFFFFFFFF DUP3 PUSH2 0x1034 JUMP JUMPDEST PUSH2 0x1079 DUP7 DUP4 PUSH2 0x1034 JUMP JUMPDEST SWAP6 POP DUP1 NOT DUP5 AND SWAP4 POP DUP1 DUP7 AND DUP5 OR SWAP3 POP POP POP SWAP4 SWAP3 POP POP POP JUMP JUMPDEST PUSH0 DUP2 SWAP1 POP SWAP2 SWAP1 POP JUMP JUMPDEST PUSH0 PUSH2 0x10B4 PUSH2 0x10AF PUSH2 0x10AA DUP5 PUSH2 0xB88 JUMP JUMPDEST PUSH2 0x1091 JUMP JUMPDEST PUSH2 0xB88 JUMP JUMPDEST SWAP1 POP SWAP2 SWAP1 POP JUMP JUMPDEST PUSH0 DUP2 SWAP1 POP SWAP2 SWAP1 POP JUMP JUMPDEST PUSH2 0x10CD DUP4 PUSH2 0x109A JUMP JUMPDEST PUSH2 0x10E1 PUSH2 0x10D9 DUP3 PUSH2 0x10BB JUMP JUMPDEST DUP5 DUP5 SLOAD PUSH2 0x1040 JUMP JUMPDEST DUP3 SSTORE POP POP POP POP JUMP JUMPDEST PUSH0 PUSH0 SWAP1 POP SWAP1 JUMP JUMPDEST PUSH2 0x10F8 PUSH2 0x10E9 JUMP JUMPDEST PUSH2 0x1103 DUP2 DUP5 DUP5 PUSH2 0x10C4 JUMP JUMPDEST POP POP POP JUMP JUMPDEST JUMPDEST DUP2 DUP2 LT ISZERO PUSH2 0x1126 JUMPI PUSH2 0x111B PUSH0 DUP3 PUSH2 0x10F0 JUMP JUMPDEST PUSH1 0x1 DUP2 ADD SWAP1 POP PUSH2 0x1109 JUMP JUMPDEST POP POP JUMP JUMPDEST PUSH1 0x1F DUP3 GT ISZERO PUSH2 0x116B JUMPI PUSH2 0x113C DUP2 PUSH2 0x1013 JUMP JUMPDEST PUSH2 0x1145 DUP5 PUSH2 0x1025 JUMP JUMPDEST DUP2 ADD PUSH1 0x20 DUP6 LT ISZERO PUSH2 0x1154 JUMPI DUP2 SWAP1 POP JUMPDEST PUSH2 0x1168 PUSH2 0x1160 DUP6 PUSH2 0x1025 JUMP JUMPDEST DUP4 ADD DUP3 PUSH2 0x1108 JUMP JUMPDEST POP POP JUMPDEST POP POP POP JUMP JUMPDEST PUSH0 DUP3 DUP3 SHR SWAP1 POP SWAP3 SWAP2 POP POP JUMP JUMPDEST PUSH0 PUSH2 0x118B PUSH0 NOT DUP5 PUSH1 0x8 MUL PUSH2 0x1170 JUMP JUMPDEST NOT DUP1 DUP4 AND SWAP2 POP POP SWAP3 SWAP2 POP POP JUMP JUMPDEST PUSH0 PUSH2 0x11A3 DUP4 DUP4 PUSH2 0x117C JUMP JUMPDEST SWAP2 POP DUP3 PUSH1 0x2 MUL DUP3 OR SWAP1 POP SWAP3 SWAP2 POP POP JUMP JUMPDEST PUSH2 0x11BC DUP3 PUSH2 0xBB9 JUMP JUMPDEST PUSH8 0xFFFFFFFFFFFFFFFF DUP2 GT ISZERO PUSH2 0x11D5 JUMPI PUSH2 0x11D4 PUSH2 0xD39 JUMP JUMPDEST JUMPDEST PUSH2 0x11DF DUP3 SLOAD PUSH2 0xF7B JUMP JUMPDEST PUSH2 0x11EA DUP3 DUP3 DUP6 PUSH2 0x112A JUMP JUMPDEST PUSH0 PUSH1 0x20 SWAP1 POP PUSH1 0x1F DUP4 GT PUSH1 0x1 DUP2 EQ PUSH2 0x121B JUMPI PUSH0 DUP5 ISZERO PUSH2 0x1209 JUMPI DUP3 DUP8 ADD MLOAD SWAP1 POP JUMPDEST PUSH2 0x1213 DUP6 DUP3 PUSH2 0x1198 JUMP JUMPDEST DUP7 SSTORE POP PUSH2 0x127A JUMP JUMPDEST PUSH1 0x1F NOT DUP5 AND PUSH2 0x1229 DUP7 PUSH2 0x1013 JUMP JUMPDEST PUSH0 JUMPDEST DUP3 DUP2 LT ISZERO PUSH2 0x1250 JUMPI DUP5 DUP10 ADD MLOAD DUP3 SSTORE PUSH1 0x1 DUP3 ADD SWAP2 POP PUSH1 0x20 DUP6 ADD SWAP5 POP PUSH1 0x20 DUP2 ADD SWAP1 POP PUSH2 0x122B JUMP JUMPDEST DUP7 DUP4 LT ISZERO PUSH2 0x126D JUMPI DUP5 DUP10 ADD MLOAD PUSH2 0x1269 PUSH1 0x1F DUP10 AND DUP3 PUSH2 0x117C JUMP JUMPDEST DUP4 SSTORE POP JUMPDEST PUSH1 0x1 PUSH1 0x2 DUP9 MUL ADD DUP9 SSTORE POP POP POP JUMPDEST POP POP POP POP POP POP JUMP JUMPDEST PUSH32 0x4E487B7100000000000000000000000000000000000000000000000000000000 PUSH0 MSTORE PUSH1 0x11 PUSH1 0x4 MSTORE PUSH1 0x24 PUSH0 REVERT JUMPDEST PUSH0 PUSH2 0x12B9 DUP3 PUSH2 0xB88 JUMP JUMPDEST SWAP2 POP PUSH32 0xFFFFFFFFFFFFFFFFFFFFFFFFFFFFFFFFFFFFFFFFFFFFFFFFFFFFFFFFFFFFFFFF DUP3 SUB PUSH2 0x12EB JUMPI PUSH2 0x12EA PUSH2 0x1282 JUMP JUMPDEST JUMPDEST PUSH1 0x1 DUP3 ADD SWAP1 POP SWAP2 SWAP1 POP JUMP JUMPDEST PUSH0 PUSH2 0x1300 DUP3 PUSH2 0xB88 JUMP JUMPDEST SWAP2 POP PUSH2 0x130B DUP4 PUSH2 0xB88 JUMP JUMPDEST SWAP3 POP DUP3 DUP3 ADD SWAP1 POP DUP1 DUP3 GT ISZERO PUSH2 0x1323 JUMPI PUSH2 0x1322 PUSH2 0x1282 JUMP JUMPDEST JUMPDEST SWAP3 SWAP2 POP POP JUMP JUMPDEST PUSH32 0x313020576F726B6F75747320436F6D706C657465640000000000000000000000 PUSH0 DUP3 ADD MSTORE POP JUMP JUMPDEST PUSH0 PUSH2 0x135D PUSH1 0x15 DUP4 PUSH2 0xBC3 JUMP JUMPDEST SWAP2 POP PUSH2 0x1368 DUP3 PUSH2 0x1329 JUMP JUMPDEST PUSH1 0x20 DUP3 ADD SWAP1 POP SWAP2 SWAP1 POP JUMP JUMPDEST PUSH0 PUSH1 0x40 DUP3 ADD SWAP1 POP DUP2 DUP2 SUB PUSH0 DUP4 ADD MSTORE PUSH2 0x138A DUP2 PUSH2 0x1351 JUMP JUMPDEST SWAP1 POP PUSH2 0x1399 PUSH1 0x20 DUP4 ADD DUP5 PUSH2 0xB91 JUMP JUMPDEST SWAP3 SWAP2 POP POP JUMP JUMPDEST PUSH32 0x353020576F726B6F75747320436F6D706C657465640000000000000000000000 PUSH0 DUP3 ADD MSTORE POP JUMP JUMPDEST PUSH0 PUSH2 0x13D3 PUSH1 0x15 DUP4 PUSH2 0xBC3 JUMP JUMPDEST SWAP2 POP PUSH2 0x13DE DUP3 PUSH2 0x139F JUMP JUMPDEST PUSH1 0x20 DUP3 ADD SWAP1 POP SWAP2 SWAP1 POP JUMP JUMPDEST PUSH0 PUSH1 0x40 DUP3 ADD SWAP1 POP DUP2 DUP2 SUB PUSH0 DUP4 ADD MSTORE PUSH2 0x1400 DUP2 PUSH2 0x13C7 JUMP JUMPDEST SWAP1 POP PUSH2 0x140F PUSH1 0x20 DUP4 ADD DUP5 PUSH2 0xB91 JUMP JUMPDEST SWAP3 SWAP2 POP POP JUMP JUMPDEST PUSH0 PUSH2 0x141F DUP3 PUSH2 0xB88 JUMP JUMPDEST SWAP2 POP PUSH2 0x142A DUP4 PUSH2 0xB88 JUMP JUMPDEST SWAP3 POP DUP3 DUP3 SUB SWAP1 POP DUP2 DUP2 GT ISZERO PUSH2 0x1442 JUMPI PUSH2 0x1441 PUSH2 0x1282 JUMP JUMPDEST JUMPDEST SWAP3 SWAP2 POP POP JUMP JUMPDEST PUSH32 0x3130304B20546F74616C2044697374616E636500000000000000000000000000 PUSH0 DUP3 ADD MSTORE POP JUMP JUMPDEST PUSH0 PUSH2 0x147C PUSH1 0x13 DUP4 PUSH2 0xBC3 JUMP JUMPDEST SWAP2 POP PUSH2 0x1487 DUP3 PUSH2 0x1448 JUMP JUMPDEST PUSH1 0x20 DUP3 ADD SWAP1 POP SWAP2 SWAP1 POP JUMP JUMPDEST PUSH0 PUSH1 0x40 DUP3 ADD SWAP1 POP DUP2 DUP2 SUB PUSH0 DUP4 ADD MSTORE PUSH2 0x14A9 DUP2 PUSH2 0x1470 JUMP JUMPDEST SWAP1 POP PUSH2 0x14B8 PUSH1 0x20 DUP4 ADD DUP5 PUSH2 0xB91 JUMP JUMPDEST SWAP3 SWAP2 POP POP JUMP JUMPDEST PUSH32 0x5573657220616C72656164792072656769737465726564000000000000000000 PUSH0 DUP3 ADD MSTORE POP JUMP JUMPDEST PUSH0 PUSH2 0x14F2 PUSH1 0x17 DUP4 PUSH2 0xBC3 JUMP JUMPDEST SWAP2 POP PUSH2 0x14FD DUP3 PUSH2 0x14BE JUMP JUMPDEST PUSH1 0x20 DUP3 ADD SWAP1 POP SWAP2 SWAP1 POP JUMP JUMPDEST PUSH0 PUSH1 0x20 DUP3 ADD SWAP1 POP DUP2 DUP2 SUB PUSH0 DUP4 ADD MSTORE PUSH2 0x151F DUP2 PUSH2 0x14E6 JUMP JUMPDEST SWAP1 POP SWAP2 SWAP1 POP JUMP JUMPDEST PUSH0 DUP2 SWAP1 POP SWAP3 SWAP2 POP POP JUMP JUMPDEST PUSH0 PUSH2 0x153A DUP3 PUSH2 0xBB9 JUMP JUMPDEST PUSH2 0x1544 DUP2 DUP6 PUSH2 0x1526 JUMP JUMPDEST SWAP4 POP PUSH2 0x1554 DUP2 DUP6 PUSH1 0x20 DUP7 ADD PUSH2 0xBD3 JUMP JUMPDEST DUP1 DUP5 ADD SWAP2 POP POP SWAP3 SWAP2 POP POP JUMP JUMPDEST PUSH0 PUSH2 0x156B DUP3 DUP5 PUSH2 0x1530 JUMP JUMPDEST SWAP2 POP DUP2 SWAP1 POP SWAP3 SWAP2 POP POP JUMP JUMPDEST PUSH0 PUSH2 0x1580 DUP3 PUSH2 0xB88 JUMP JUMPDEST SWAP2 POP PUSH2 0x158B DUP4 PUSH2 0xB88 JUMP JUMPDEST SWAP3 POP DUP3 DUP3 MUL PUSH2 0x1599 DUP2 PUSH2 0xB88 JUMP JUMPDEST SWAP2 POP DUP3 DUP3 DIV DUP5 EQ DUP4 ISZERO OR PUSH2 0x15B0 JUMPI PUSH2 0x15AF PUSH2 0x1282 JUMP JUMPDEST JUMPDEST POP SWAP3 SWAP2 POP POP JUMP JUMPDEST PUSH32 0x4E487B7100000000000000000000000000000000000000000000000000000000 PUSH0 MSTORE PUSH1 0x12 PUSH1 0x4 MSTORE PUSH1 0x24 PUSH0 REVERT JUMPDEST PUSH0 PUSH2 0x15EE DUP3 PUSH2 0xB88 JUMP JUMPDEST SWAP2 POP PUSH2 0x15F9 DUP4 PUSH2 0xB88 JUMP JUMPDEST SWAP3 POP DUP3 PUSH2 0x1609 JUMPI PUSH2 0x1608 PUSH2 0x15B7 JUMP JUMPDEST JUMPDEST DUP3 DUP3 DIV SWAP1 POP SWAP3 SWAP2 POP POP JUMP JUMPDEST PUSH32 0x57656967687420476F616C205265616368656400000000000000000000000000 PUSH0 DUP3 ADD MSTORE POP JUMP JUMPDEST PUSH0 PUSH2 0x1648 PUSH1 0x13 DUP4 PUSH2 0xBC3 JUMP JUMPDEST SWAP2 POP PUSH2 0x1653 DUP3 PUSH2 0x1614 JUMP JUMPDEST PUSH1 0x20 DUP3 ADD SWAP1 POP SWAP2 SWAP1 POP JUMP JUMPDEST PUSH0 PUSH1 0x40 DUP3 ADD SWAP1 POP DUP2 DUP2 SUB PUSH0 DUP4 ADD MSTORE PUSH2 0x1675 DUP2 PUSH2 0x163C JUMP JUMPDEST SWAP1 POP PUSH2 0x1684 PUSH1 0x20 DUP4 ADD DUP5 PUSH2 0xB91 JUMP JUMPDEST SWAP3 SWAP2 POP POP JUMP JUMPDEST PUSH0 PUSH1 0x40 DUP3 ADD SWAP1 POP PUSH2 0x169D PUSH0 DUP4 ADD DUP6 PUSH2 0xB91 JUMP JUMPDEST PUSH2 0x16AA PUSH1 0x20 DUP4 ADD DUP5 PUSH2 0xB91 JUMP JUMPDEST SWAP4 SWAP3 POP POP POP JUMP INVALID LOG2 PUSH5 0x6970667358 0x22 SLT KECCAK256 NUMBER PUSH1 0x2 0xCD PUSH3 0x94C051 DUP14 CALL DUP5 JUMPI PUSH17 0xDDDFC0FD038ABA8CA0C7137FAFC180967B CALLF 0x4464 PUSH20 0x6F6C634300081F00330000000000000000000000 "
				},
				"gasEstimates": {
					"creation": {
						"codeDepositCost": "1172600",
						"executionCost": "1219",
						"totalCost": "1173819"
					},
					"external": {
						"logWorkout(string,uint256,uint256)": "infinite",
						"registerUser(string,uint256)": "infinite",
						"totalDistance(address)": "2802",
						"totalWorkouts(address)": "2803",
						"updateWeight(uint256)": "infinite",
						"userProfiles(address)": "infinite",
						"workoutHistory(address,uint256)": "infinite"
					}
				},
				"methodIdentifiers": {
					"logWorkout(string,uint256,uint256)": "c5af3f8c",
					"registerUser(string,uint256)": "d3951002",
					"totalDistance(address)": "ae5bde4e",
					"totalWorkouts(address)": "03cdaddd",
					"updateWeight(uint256)": "ec3df6ad",
					"userProfiles(address)": "332d56d7",
					"workoutHistory(address,uint256)": "3f9a3256"
				}
			},
			"storageLayout": {
				"storage": [
					{
						"astId": 13,
						"contract": "day10-ActivityTracker/day10_activitytracker.sol:SimpleFitnessTracker",
						"label": "userProfiles",
						"offset": 0,
						"slot": "0",
						"type": "t_mapping(t_address,t_struct(UserProfile)8_storage)"
					},
					{
						"astId": 161,
						"contract": "day10-ActivityTracker/day10_activitytracker.sol:SimpleFitnessTracker",
						"label": "workoutHistory",
						"offset": 0,
						"slot": "1",
						"type": "t_mapping(t_address,t_array(t_struct(WorkoutActivity)155_storage)dyn_storage)"
					},
					{
						"astId": 165,
						"contract": "day10-ActivityTracker/day10_activitytracker.sol:SimpleFitnessTracker",
						"label": "totalWorkouts",
						"offset": 0,
						"slot": "2",
						"type": "t_mapping(t_address,t_uint256)"
					},
					{
						"astId": 169,
						"contract": "day10-ActivityTracker/day10_activitytracker.sol:SimpleFitnessTracker",
						"label": "totalDistance",
						"offset": 0,
						"slot": "3",
						"type": "t_mapping(t_address,t_uint256)"
					}
				],
				"types": {
					"t_address": {
						"encoding": "inplace",
						"label": "address",
						"numberOfBytes": "20"
					},
					"t_array(t_struct(WorkoutActivity)155_storage)dyn_storage": {
						"base": "t_struct(WorkoutActivity)155_storage",
						"encoding": "dynamic_array",
						"label": "struct SimpleFitnessTracker.WorkoutActivity[]",
						"numberOfBytes": "32"
					},
					"t_bool": {
						"encoding": "inplace",
						"label": "bool",
						"numberOfBytes": "1"
					},
					"t_mapping(t_address,t_array(t_struct(WorkoutActivity)155_storage)dyn_storage)": {
						"encoding": "mapping",
						"key": "t_address",
						"label": "mapping(address => struct SimpleFitnessTracker.WorkoutActivity[])",
						"numberOfBytes": "32",
						"value": "t_array(t_struct(WorkoutActivity)155_storage)dyn_storage"
					},
					"t_mapping(t_address,t_struct(UserProfile)8_storage)": {
						"encoding": "mapping",
						"key": "t_address",
						"label": "mapping(address => struct SimpleFitnessTracker.UserProfile)",
						"numberOfBytes": "32",
						"value": "t_struct(UserProfile)8_storage"
					},
					"t_mapping(t_address,t_uint256)": {
						"encoding": "mapping",
						"key": "t_address",
						"label": "mapping(address => uint256)",
						"numberOfBytes": "32",
						"value": "t_uint256"
					},
					"t_string_storage": {
						"encoding": "bytes",
						"label": "string",
						"numberOfBytes": "32"
					},
					"t_struct(UserProfile)8_storage": {
						"encoding": "inplace",
						"label": "struct SimpleFitnessTracker.UserProfile",
						"members": [
							{
								"astId": 3,
								"contract": "day10-ActivityTracker/day10_activitytracker.sol:SimpleFitnessTracker",
								"label": "name",
								"offset": 0,
								"slot": "0",
								"type": "t_string_storage"
							},
							{
								"astId": 5,
								"contract": "day10-ActivityTracker/day10_activitytracker.sol:SimpleFitnessTracker",
								"label": "weight",
								"offset": 0,
								"slot": "1",
								"type": "t_uint256"
							},
							{
								"astId": 7,
								"contract": "day10-ActivityTracker/day10_activitytracker.sol:SimpleFitnessTracker",
								"label": "isRegistered",
								"offset": 0,
								"slot": "2",
								"type": "t_bool"
							}
						],
						"numberOfBytes": "96"
					},
					"t_struct(WorkoutActivity)155_storage": {
						"encoding": "inplace",
						"label": "struct SimpleFitnessTracker.WorkoutActivity",
						"members": [
							{
								"astId": 148,
								"contract": "day10-ActivityTracker/day10_activitytracker.sol:SimpleFitnessTracker",
								"label": "activityType",
								"offset": 0,
								"slot": "0",
								"type": "t_string_storage"
							},
							{
								"astId": 150,
								"contract": "day10-ActivityTracker/day10_activitytracker.sol:SimpleFitnessTracker",
								"label": "duration",
								"offset": 0,
								"slot": "1",
								"type": "t_uint256"
							},
							{
								"astId": 152,
								"contract": "day10-ActivityTracker/day10_activitytracker.sol:SimpleFitnessTracker",
								"label": "distance",
								"offset": 0,
								"slot": "2",
								"type": "t_uint256"
							},
							{
								"astId": 154,
								"contract": "day10-ActivityTracker/day10_activitytracker.sol:SimpleFitnessTracker",
								"label": "timestamp",
								"offset": 0,
								"slot": "3",
								"type": "t_uint256"
							}
						],
						"numberOfBytes": "128"
					},
					"t_uint256": {
						"encoding": "inplace",
						"label": "uint256",
						"numberOfBytes": "32"
					}
				}
			},
			"userdoc": {
				"kind": "user",
				"methods": {},
				"version": 1
			}
		}
	}
}