{
	"day2-SaveMyName/day_SaveMyName.sol": {
		"SaveMyName": {
			"abi": [
				{
					"inputs": [
						{
							"internalType": "string",
							"name": "_name",
							"type": "string"
						},
						{
							"internalType": "string",
							"name": "_bio",
							"type": "string"
						},
						{
							"internalType": "uint16",
							"name": "_age",
							"type": "uint16"
						},
						{
							"internalType": "string",
							"name": "_job",
							"type": "string"
						}
					],
					"name": "saveAndRetrieve",
					"outputs": [
						{
							"internalType": "string",
							"name": "",
							"type": "string"
						},
						{
							"internalType": "string",
							"name": "",
							"type": "string"
						},
						{
							"internalType": "uint16",
							"name": "",
							"type": "uint16"
						},
						{
							"internalType": "string",
							"name": "",
							"type": "string"
						}
					],
					"stateMutability": "nonpayable",
					"type": "function"
				}
			],
			"devdoc": {
				"kind": "dev",
				"methods": {},
				"version": 1
			},
			"evm": {
				"assembly": "    /* \"day2-SaveMyName/day_SaveMyName.sol\":60:724  contract SaveMyName {... */\n  mstore(0x40, 0x80)\n  callvalue\n  dup1\n  iszero\n  tag_1\n  jumpi\n  revert(0x00, 0x00)\ntag_1:\n  pop\n  dataSize(sub_0)\n  dup1\n  dataOffset(sub_0)\n  0x00\n  codecopy\n  0x00\n  return\nstop\n\nsub_0: assembly {\n        /* \"day2-SaveMyName/day_SaveMyName.sol\":60:724  contract SaveMyName {... */\n      mstore(0x40, 0x80)\n      callvalue\n      dup1\n      iszero\n      tag_1\n      jumpi\n      revert(0x00, 0x00)\n    tag_1:\n      pop\n      jumpi(tag_2, lt(calldatasize, 0x04))\n      shr(0xe0, calldataload(0x00))\n      dup1\n      0x4c59d171\n      eq\n      tag_3\n      jumpi\n    tag_2:\n      revert(0x00, 0x00)\n        /* \"day2-SaveMyName/day_SaveMyName.sol\":418:721  function saveAndRetrieve (string memory _name, string memory _bio, uint16 _age, string memory _job ) public returns (string memory, string memory, uint16, string memory) {... */\n    tag_3:\n      tag_4\n      0x04\n      dup1\n      calldatasize\n      sub\n      dup2\n      add\n      swap1\n      tag_5\n      swap2\n      swap1\n      tag_6\n      jump\t// in\n    tag_5:\n      tag_7\n      jump\t// in\n    tag_4:\n      mload(0x40)\n      tag_8\n      swap5\n      swap4\n      swap3\n      swap2\n      swap1\n      tag_9\n      jump\t// in\n    tag_8:\n      mload(0x40)\n      dup1\n      swap2\n      sub\n      swap1\n      return\n    tag_7:\n        /* \"day2-SaveMyName/day_SaveMyName.sol\":535:548  string memory */\n      0x60\n        /* \"day2-SaveMyName/day_SaveMyName.sol\":550:563  string memory */\n      dup1\n        /* \"day2-SaveMyName/day_SaveMyName.sol\":565:571  uint16 */\n      0x00\n        /* \"day2-SaveMyName/day_SaveMyName.sol\":573:586  string memory */\n      0x60\n        /* \"day2-SaveMyName/day_SaveMyName.sol\":606:611  _name */\n      dup8\n        /* \"day2-SaveMyName/day_SaveMyName.sol\":599:603  name */\n      0x00\n        /* \"day2-SaveMyName/day_SaveMyName.sol\":599:611  name = _name */\n      swap1\n      dup2\n      tag_11\n      swap2\n      swap1\n      tag_12\n      jump\t// in\n    tag_11:\n      pop\n        /* \"day2-SaveMyName/day_SaveMyName.sol\":628:632  _bio */\n      dup7\n        /* \"day2-SaveMyName/day_SaveMyName.sol\":622:625  bio */\n      0x01\n        /* \"day2-SaveMyName/day_SaveMyName.sol\":622:632  bio = _bio */\n      swap1\n      dup2\n      tag_13\n      swap2\n      swap1\n      tag_12\n      jump\t// in\n    tag_13:\n      pop\n        /* \"day2-SaveMyName/day_SaveMyName.sol\":649:653  _age */\n      dup6\n        /* \"day2-SaveMyName/day_SaveMyName.sol\":643:646  age */\n      0x02\n      0x00\n        /* \"day2-SaveMyName/day_SaveMyName.sol\":643:653  age = _age */\n      0x0100\n      exp\n      dup2\n      sload\n      dup2\n      0xffff\n      mul\n      not\n      and\n      swap1\n      dup4\n      0xffff\n      and\n      mul\n      or\n      swap1\n      sstore\n      pop\n        /* \"day2-SaveMyName/day_SaveMyName.sol\":670:674  _job */\n      dup5\n        /* \"day2-SaveMyName/day_SaveMyName.sol\":664:667  job */\n      0x03\n        /* \"day2-SaveMyName/day_SaveMyName.sol\":664:674  job = _job */\n      swap1\n      dup2\n      tag_14\n      swap2\n      swap1\n      tag_12\n      jump\t// in\n    tag_14:\n      pop\n        /* \"day2-SaveMyName/day_SaveMyName.sol\":693:697  name */\n      0x00\n        /* \"day2-SaveMyName/day_SaveMyName.sol\":699:702  bio */\n      0x01\n        /* \"day2-SaveMyName/day_SaveMyName.sol\":704:707  age */\n      0x02\n      0x00\n      swap1\n      sload\n      swap1\n      0x0100\n      exp\n      swap1\n      div\n      0xffff\n      and\n        /* \"day2-SaveMyName/day_SaveMyName.sol\":709:712  job */\n      0x03\n        /* \"day2-SaveMyName/day_SaveMyName.sol\":685:713  return (name, bio, age, job) */\n      dup4\n      dup1\n      sload\n      tag_15\n      swap1\n      tag_16\n      jump\t// in\n    tag_15:\n      dup1\n      0x1f\n      add\n      0x20\n      dup1\n      swap2\n      div\n      mul\n      0x20\n      add\n      mload(0x40)\n      swap1\n      dup2\n      add\n      0x40\n      mstore\n      dup1\n      swap3\n      swap2\n      swap1\n      dup2\n      dup2\n      mstore\n      0x20\n      add\n      dup3\n      dup1\n      sload\n      tag_17\n      swap1\n      tag_16\n      jump\t// in\n    tag_17:\n      dup1\n      iszero\n      tag_18\n      jumpi\n      dup1\n      0x1f\n      lt\n      tag_19\n      jumpi\n      0x0100\n      dup1\n      dup4\n      sload\n      div\n      mul\n      dup4\n      mstore\n      swap2\n      0x20\n      add\n      swap2\n      jump(tag_18)\n    tag_19:\n      dup3\n      add\n      swap2\n      swap1\n      0x00\n      mstore\n      keccak256(0x00, 0x20)\n      swap1\n    tag_20:\n      dup2\n      sload\n      dup2\n      mstore\n      swap1\n      0x01\n      add\n      swap1\n      0x20\n      add\n      dup1\n      dup4\n      gt\n      tag_20\n      jumpi\n      dup3\n      swap1\n      sub\n      0x1f\n      and\n      dup3\n      add\n      swap2\n    tag_18:\n      pop\n      pop\n      pop\n      pop\n      pop\n      swap4\n      pop\n      dup3\n      dup1\n      sload\n      tag_21\n      swap1\n      tag_16\n      jump\t// in\n    tag_21:\n      dup1\n      0x1f\n      add\n      0x20\n      dup1\n      swap2\n      div\n      mul\n      0x20\n      add\n      mload(0x40)\n      swap1\n      dup2\n      add\n      0x40\n      mstore\n      dup1\n      swap3\n      swap2\n      swap1\n      dup2\n      dup2\n      mstore\n      0x20\n      add\n      dup3\n      dup1\n      sload\n      tag_22\n      swap1\n      tag_16\n      jump\t// in\n    tag_22:\n      dup1\n      iszero\n      tag_23\n      jumpi\n      dup1\n      0x1f\n      lt\n      tag_24\n      jumpi\n      0x0100\n      dup1\n      dup4\n      sload\n      div\n      mul\n      dup4\n      mstore\n      swap2\n      0x20\n      add\n      swap2\n      jump(tag_23)\n    tag_24:\n      dup3\n      add\n      swap2\n      swap1\n      0x00\n      mstore\n      keccak256(0x00, 0x20)\n      swap1\n    tag_25:\n      dup2\n      sload\n      dup2\n      mstore\n      swap1\n      0x01\n      add\n      swap1\n      0x20\n      add\n      dup1\n      dup4\n      gt\n      tag_25\n      jumpi\n      dup3\n      swap1\n      sub\n      0x1f\n      and\n      dup3\n      add\n      swap2\n    tag_23:\n      pop\n      pop\n      pop\n      pop\n      pop\n      swap3\n      pop\n      dup1\n      dup1\n      sload\n      tag_26\n      swap1\n      tag_16\n      jump\t// in\n    tag_26:\n      dup1\n      0x1f\n      add\n      0x20\n      dup1\n      swap2\n      div\n      mul\n      0x20\n      add\n      mload(0x40)\n      swap1\n      dup2\n      add\n      0x40\n      mstore\n      dup1\n      swap3\n      swap2\n      swap1\n      dup2\n      dup2\n      mstore\n      0x20\n      add\n      dup3\n      dup1\n      sload\n      tag_27\n      swap1\n      tag_16\n      jump\t// in\n    tag_27:\n      dup1\n      iszero\n      tag_28\n      jumpi\n      dup1\n      0x1f\n      lt\n      tag_29\n      jumpi\n      0x0100\n      dup1\n      dup4\n      sload\n      div\n      mul\n      dup4\n      mstore\n      swap2\n      0x20\n      add\n      swap2\n      jump(tag_28)\n    tag_29:\n      dup3\n      add\n      swap2\n      swap1\n      0x00\n      mstore\n      keccak256(0x00, 0x20)\n      swap1\n    tag_30:\n      dup2\n      sload\n      dup2\n      mstore\n      swap1\n      0x01\n      add\n      swap1\n      0x20\n      add\n      dup1\n      dup4\n      gt\n      tag_30\n      jumpi\n      dup3\n      swap1\n      sub\n      0x1f\n      and\n      dup3\n      add\n      swap2\n    tag_28:\n      pop\n      pop\n      pop\n      pop\n      pop\n      swap1\n      pop\n      swap4\n      pop\n      swap4\n      pop\n      swap4\n      pop\n      swap4\n      pop\n        /* \"day2-SaveMyName/day_SaveMyName.sol\":418:721  function saveAndRetrieve (string memory _name, string memory _bio, uint16 _age, string memory _job ) public returns (string memory, string memory, uint16, string memory) {... */\n      swap5\n      pop\n      swap5\n      pop\n      swap5\n      pop\n      swap5\n      swap1\n      pop\n      jump\t// out\n        /* \"#utility.yul\":7:82   */\n    tag_31:\n        /* \"#utility.yul\":40:46   */\n      0x00\n        /* \"#utility.yul\":73:75   */\n      0x40\n        /* \"#utility.yul\":67:76   */\n      mload\n        /* \"#utility.yul\":57:76   */\n      swap1\n      pop\n        /* \"#utility.yul\":7:82   */\n      swap1\n      jump\t// out\n        /* \"#utility.yul\":88:205   */\n    tag_32:\n        /* \"#utility.yul\":197:198   */\n      0x00\n        /* \"#utility.yul\":194:195   */\n      0x00\n        /* \"#utility.yul\":187:199   */\n      revert\n        /* \"#utility.yul\":211:328   */\n    tag_33:\n        /* \"#utility.yul\":320:321   */\n      0x00\n        /* \"#utility.yul\":317:318   */\n      0x00\n        /* \"#utility.yul\":310:322   */\n      revert\n        /* \"#utility.yul\":334:451   */\n    tag_34:\n        /* \"#utility.yul\":443:444   */\n      0x00\n        /* \"#utility.yul\":440:441   */\n      0x00\n        /* \"#utility.yul\":433:445   */\n      revert\n        /* \"#utility.yul\":457:574   */\n    tag_35:\n        /* \"#utility.yul\":566:567   */\n      0x00\n        /* \"#utility.yul\":563:564   */\n      0x00\n        /* \"#utility.yul\":556:568   */\n      revert\n        /* \"#utility.yul\":580:682   */\n    tag_36:\n        /* \"#utility.yul\":621:627   */\n      0x00\n        /* \"#utility.yul\":672:674   */\n      0x1f\n        /* \"#utility.yul\":668:675   */\n      not\n        /* \"#utility.yul\":663:665   */\n      0x1f\n        /* \"#utility.yul\":656:661   */\n      dup4\n        /* \"#utility.yul\":652:666   */\n      add\n        /* \"#utility.yul\":648:676   */\n      and\n        /* \"#utility.yul\":638:676   */\n      swap1\n      pop\n        /* \"#utility.yul\":580:682   */\n      swap2\n      swap1\n      pop\n      jump\t// out\n        /* \"#utility.yul\":688:868   */\n    tag_37:\n        /* \"#utility.yul\":736:813   */\n      0x4e487b7100000000000000000000000000000000000000000000000000000000\n        /* \"#utility.yul\":733:734   */\n      0x00\n        /* \"#utility.yul\":726:814   */\n      mstore\n        /* \"#utility.yul\":833:837   */\n      0x41\n        /* \"#utility.yul\":830:831   */\n      0x04\n        /* \"#utility.yul\":823:838   */\n      mstore\n        /* \"#utility.yul\":857:861   */\n      0x24\n        /* \"#utility.yul\":854:855   */\n      0x00\n        /* \"#utility.yul\":847:862   */\n      revert\n        /* \"#utility.yul\":874:1155   */\n    tag_38:\n        /* \"#utility.yul\":957:984   */\n      tag_78\n        /* \"#utility.yul\":979:983   */\n      dup3\n        /* \"#utility.yul\":957:984   */\n      tag_36\n      jump\t// in\n    tag_78:\n        /* \"#utility.yul\":949:955   */\n      dup2\n        /* \"#utility.yul\":945:985   */\n      add\n        /* \"#utility.yul\":1087:1093   */\n      dup2\n        /* \"#utility.yul\":1075:1085   */\n      dup2\n        /* \"#utility.yul\":1072:1094   */\n      lt\n        /* \"#utility.yul\":1051:1069   */\n      0xffffffffffffffff\n        /* \"#utility.yul\":1039:1049   */\n      dup3\n        /* \"#utility.yul\":1036:1070   */\n      gt\n        /* \"#utility.yul\":1033:1095   */\n      or\n        /* \"#utility.yul\":1030:1118   */\n      iszero\n      tag_79\n      jumpi\n        /* \"#utility.yul\":1098:1116   */\n      tag_80\n      tag_37\n      jump\t// in\n    tag_80:\n        /* \"#utility.yul\":1030:1118   */\n    tag_79:\n        /* \"#utility.yul\":1138:1148   */\n      dup1\n        /* \"#utility.yul\":1134:1136   */\n      0x40\n        /* \"#utility.yul\":1127:1149   */\n      mstore\n        /* \"#utility.yul\":917:1155   */\n      pop\n        /* \"#utility.yul\":874:1155   */\n      pop\n      pop\n      jump\t// out\n        /* \"#utility.yul\":1161:1290   */\n    tag_39:\n        /* \"#utility.yul\":1195:1201   */\n      0x00\n        /* \"#utility.yul\":1222:1242   */\n      tag_82\n      tag_31\n      jump\t// in\n    tag_82:\n        /* \"#utility.yul\":1212:1242   */\n      swap1\n      pop\n        /* \"#utility.yul\":1251:1284   */\n      tag_83\n        /* \"#utility.yul\":1279:1283   */\n      dup3\n        /* \"#utility.yul\":1271:1277   */\n      dup3\n        /* \"#utility.yul\":1251:1284   */\n      tag_38\n      jump\t// in\n    tag_83:\n        /* \"#utility.yul\":1161:1290   */\n      swap2\n      swap1\n      pop\n      jump\t// out\n        /* \"#utility.yul\":1296:1604   */\n    tag_40:\n        /* \"#utility.yul\":1358:1362   */\n      0x00\n        /* \"#utility.yul\":1448:1466   */\n      0xffffffffffffffff\n        /* \"#utility.yul\":1440:1446   */\n      dup3\n        /* \"#utility.yul\":1437:1467   */\n      gt\n        /* \"#utility.yul\":1434:1490   */\n      iszero\n      tag_85\n      jumpi\n        /* \"#utility.yul\":1470:1488   */\n      tag_86\n      tag_37\n      jump\t// in\n    tag_86:\n        /* \"#utility.yul\":1434:1490   */\n    tag_85:\n        /* \"#utility.yul\":1508:1537   */\n      tag_87\n        /* \"#utility.yul\":1530:1536   */\n      dup3\n        /* \"#utility.yul\":1508:1537   */\n      tag_36\n      jump\t// in\n    tag_87:\n        /* \"#utility.yul\":1500:1537   */\n      swap1\n      pop\n        /* \"#utility.yul\":1592:1596   */\n      0x20\n        /* \"#utility.yul\":1586:1590   */\n      dup2\n        /* \"#utility.yul\":1582:1597   */\n      add\n        /* \"#utility.yul\":1574:1597   */\n      swap1\n      pop\n        /* \"#utility.yul\":1296:1604   */\n      swap2\n      swap1\n      pop\n      jump\t// out\n        /* \"#utility.yul\":1610:1758   */\n    tag_41:\n        /* \"#utility.yul\":1708:1714   */\n      dup3\n        /* \"#utility.yul\":1703:1706   */\n      dup2\n        /* \"#utility.yul\":1698:1701   */\n      dup4\n        /* \"#utility.yul\":1685:1715   */\n      calldatacopy\n        /* \"#utility.yul\":1749:1750   */\n      0x00\n        /* \"#utility.yul\":1740:1746   */\n      dup4\n        /* \"#utility.yul\":1735:1738   */\n      dup4\n        /* \"#utility.yul\":1731:1747   */\n      add\n        /* \"#utility.yul\":1724:1751   */\n      mstore\n        /* \"#utility.yul\":1610:1758   */\n      pop\n      pop\n      pop\n      jump\t// out\n        /* \"#utility.yul\":1764:2189   */\n    tag_42:\n        /* \"#utility.yul\":1842:1847   */\n      0x00\n        /* \"#utility.yul\":1867:1933   */\n      tag_90\n        /* \"#utility.yul\":1883:1932   */\n      tag_91\n        /* \"#utility.yul\":1925:1931   */\n      dup5\n        /* \"#utility.yul\":1883:1932   */\n      tag_40\n      jump\t// in\n    tag_91:\n        /* \"#utility.yul\":1867:1933   */\n      tag_39\n      jump\t// in\n    tag_90:\n        /* \"#utility.yul\":1858:1933   */\n      swap1\n      pop\n        /* \"#utility.yul\":1956:1962   */\n      dup3\n        /* \"#utility.yul\":1949:1954   */\n      dup2\n        /* \"#utility.yul\":1942:1963   */\n      mstore\n        /* \"#utility.yul\":1994:1998   */\n      0x20\n        /* \"#utility.yul\":1987:1992   */\n      dup2\n        /* \"#utility.yul\":1983:1999   */\n      add\n        /* \"#utility.yul\":2032:2035   */\n      dup5\n        /* \"#utility.yul\":2023:2029   */\n      dup5\n        /* \"#utility.yul\":2018:2021   */\n      dup5\n        /* \"#utility.yul\":2014:2030   */\n      add\n        /* \"#utility.yul\":2011:2036   */\n      gt\n        /* \"#utility.yul\":2008:2120   */\n      iszero\n      tag_92\n      jumpi\n        /* \"#utility.yul\":2039:2118   */\n      tag_93\n      tag_35\n      jump\t// in\n    tag_93:\n        /* \"#utility.yul\":2008:2120   */\n    tag_92:\n        /* \"#utility.yul\":2129:2183   */\n      tag_94\n        /* \"#utility.yul\":2176:2182   */\n      dup5\n        /* \"#utility.yul\":2171:2174   */\n      dup3\n        /* \"#utility.yul\":2166:2169   */\n      dup6\n        /* \"#utility.yul\":2129:2183   */\n      tag_41\n      jump\t// in\n    tag_94:\n        /* \"#utility.yul\":1848:2189   */\n      pop\n        /* \"#utility.yul\":1764:2189   */\n      swap4\n      swap3\n      pop\n      pop\n      pop\n      jump\t// out\n        /* \"#utility.yul\":2209:2549   */\n    tag_43:\n        /* \"#utility.yul\":2265:2270   */\n      0x00\n        /* \"#utility.yul\":2314:2317   */\n      dup3\n        /* \"#utility.yul\":2307:2311   */\n      0x1f\n        /* \"#utility.yul\":2299:2305   */\n      dup4\n        /* \"#utility.yul\":2295:2312   */\n      add\n        /* \"#utility.yul\":2291:2318   */\n      slt\n        /* \"#utility.yul\":2281:2403   */\n      tag_96\n      jumpi\n        /* \"#utility.yul\":2322:2401   */\n      tag_97\n      tag_34\n      jump\t// in\n    tag_97:\n        /* \"#utility.yul\":2281:2403   */\n    tag_96:\n        /* \"#utility.yul\":2439:2445   */\n      dup2\n        /* \"#utility.yul\":2426:2446   */\n      calldataload\n        /* \"#utility.yul\":2464:2543   */\n      tag_98\n        /* \"#utility.yul\":2539:2542   */\n      dup5\n        /* \"#utility.yul\":2531:2537   */\n      dup3\n        /* \"#utility.yul\":2524:2528   */\n      0x20\n        /* \"#utility.yul\":2516:2522   */\n      dup7\n        /* \"#utility.yul\":2512:2529   */\n      add\n        /* \"#utility.yul\":2464:2543   */\n      tag_42\n      jump\t// in\n    tag_98:\n        /* \"#utility.yul\":2455:2543   */\n      swap2\n      pop\n        /* \"#utility.yul\":2271:2549   */\n      pop\n        /* \"#utility.yul\":2209:2549   */\n      swap3\n      swap2\n      pop\n      pop\n      jump\t// out\n        /* \"#utility.yul\":2555:2644   */\n    tag_44:\n        /* \"#utility.yul\":2591:2598   */\n      0x00\n        /* \"#utility.yul\":2631:2637   */\n      0xffff\n        /* \"#utility.yul\":2624:2629   */\n      dup3\n        /* \"#utility.yul\":2620:2638   */\n      and\n        /* \"#utility.yul\":2609:2638   */\n      swap1\n      pop\n        /* \"#utility.yul\":2555:2644   */\n      swap2\n      swap1\n      pop\n      jump\t// out\n        /* \"#utility.yul\":2650:2770   */\n    tag_45:\n        /* \"#utility.yul\":2722:2745   */\n      tag_101\n        /* \"#utility.yul\":2739:2744   */\n      dup2\n        /* \"#utility.yul\":2722:2745   */\n      tag_44\n      jump\t// in\n    tag_101:\n        /* \"#utility.yul\":2715:2720   */\n      dup2\n        /* \"#utility.yul\":2712:2746   */\n      eq\n        /* \"#utility.yul\":2702:2764   */\n      tag_102\n      jumpi\n        /* \"#utility.yul\":2760:2761   */\n      0x00\n        /* \"#utility.yul\":2757:2758   */\n      0x00\n        /* \"#utility.yul\":2750:2762   */\n      revert\n        /* \"#utility.yul\":2702:2764   */\n    tag_102:\n        /* \"#utility.yul\":2650:2770   */\n      pop\n      jump\t// out\n        /* \"#utility.yul\":2776:2913   */\n    tag_46:\n        /* \"#utility.yul\":2821:2826   */\n      0x00\n        /* \"#utility.yul\":2859:2865   */\n      dup2\n        /* \"#utility.yul\":2846:2866   */\n      calldataload\n        /* \"#utility.yul\":2837:2866   */\n      swap1\n      pop\n        /* \"#utility.yul\":2875:2907   */\n      tag_104\n        /* \"#utility.yul\":2901:2906   */\n      dup2\n        /* \"#utility.yul\":2875:2907   */\n      tag_45\n      jump\t// in\n    tag_104:\n        /* \"#utility.yul\":2776:2913   */\n      swap3\n      swap2\n      pop\n      pop\n      jump\t// out\n        /* \"#utility.yul\":2919:4222   */\n    tag_6:\n        /* \"#utility.yul\":3034:3040   */\n      0x00\n        /* \"#utility.yul\":3042:3048   */\n      0x00\n        /* \"#utility.yul\":3050:3056   */\n      0x00\n        /* \"#utility.yul\":3058:3064   */\n      0x00\n        /* \"#utility.yul\":3107:3110   */\n      0x80\n        /* \"#utility.yul\":3095:3104   */\n      dup6\n        /* \"#utility.yul\":3086:3093   */\n      dup8\n        /* \"#utility.yul\":3082:3105   */\n      sub\n        /* \"#utility.yul\":3078:3111   */\n      slt\n        /* \"#utility.yul\":3075:3195   */\n      iszero\n      tag_106\n      jumpi\n        /* \"#utility.yul\":3114:3193   */\n      tag_107\n      tag_32\n      jump\t// in\n    tag_107:\n        /* \"#utility.yul\":3075:3195   */\n    tag_106:\n        /* \"#utility.yul\":3262:3263   */\n      0x00\n        /* \"#utility.yul\":3251:3260   */\n      dup6\n        /* \"#utility.yul\":3247:3264   */\n      add\n        /* \"#utility.yul\":3234:3265   */\n      calldataload\n        /* \"#utility.yul\":3292:3310   */\n      0xffffffffffffffff\n        /* \"#utility.yul\":3284:3290   */\n      dup2\n        /* \"#utility.yul\":3281:3311   */\n      gt\n        /* \"#utility.yul\":3278:3395   */\n      iszero\n      tag_108\n      jumpi\n        /* \"#utility.yul\":3314:3393   */\n      tag_109\n      tag_33\n      jump\t// in\n    tag_109:\n        /* \"#utility.yul\":3278:3395   */\n    tag_108:\n        /* \"#utility.yul\":3419:3482   */\n      tag_110\n        /* \"#utility.yul\":3474:3481   */\n      dup8\n        /* \"#utility.yul\":3465:3471   */\n      dup3\n        /* \"#utility.yul\":3454:3463   */\n      dup9\n        /* \"#utility.yul\":3450:3472   */\n      add\n        /* \"#utility.yul\":3419:3482   */\n      tag_43\n      jump\t// in\n    tag_110:\n        /* \"#utility.yul\":3409:3482   */\n      swap5\n      pop\n        /* \"#utility.yul\":3205:3492   */\n      pop\n        /* \"#utility.yul\":3559:3561   */\n      0x20\n        /* \"#utility.yul\":3548:3557   */\n      dup6\n        /* \"#utility.yul\":3544:3562   */\n      add\n        /* \"#utility.yul\":3531:3563   */\n      calldataload\n        /* \"#utility.yul\":3590:3608   */\n      0xffffffffffffffff\n        /* \"#utility.yul\":3582:3588   */\n      dup2\n        /* \"#utility.yul\":3579:3609   */\n      gt\n        /* \"#utility.yul\":3576:3693   */\n      iszero\n      tag_111\n      jumpi\n        /* \"#utility.yul\":3612:3691   */\n      tag_112\n      tag_33\n      jump\t// in\n    tag_112:\n        /* \"#utility.yul\":3576:3693   */\n    tag_111:\n        /* \"#utility.yul\":3717:3780   */\n      tag_113\n        /* \"#utility.yul\":3772:3779   */\n      dup8\n        /* \"#utility.yul\":3763:3769   */\n      dup3\n        /* \"#utility.yul\":3752:3761   */\n      dup9\n        /* \"#utility.yul\":3748:3770   */\n      add\n        /* \"#utility.yul\":3717:3780   */\n      tag_43\n      jump\t// in\n    tag_113:\n        /* \"#utility.yul\":3707:3780   */\n      swap4\n      pop\n        /* \"#utility.yul\":3502:3790   */\n      pop\n        /* \"#utility.yul\":3829:3831   */\n      0x40\n        /* \"#utility.yul\":3855:3907   */\n      tag_114\n        /* \"#utility.yul\":3899:3906   */\n      dup8\n        /* \"#utility.yul\":3890:3896   */\n      dup3\n        /* \"#utility.yul\":3879:3888   */\n      dup9\n        /* \"#utility.yul\":3875:3897   */\n      add\n        /* \"#utility.yul\":3855:3907   */\n      tag_46\n      jump\t// in\n    tag_114:\n        /* \"#utility.yul\":3845:3907   */\n      swap3\n      pop\n        /* \"#utility.yul\":3800:3917   */\n      pop\n        /* \"#utility.yul\":3984:3986   */\n      0x60\n        /* \"#utility.yul\":3973:3982   */\n      dup6\n        /* \"#utility.yul\":3969:3987   */\n      add\n        /* \"#utility.yul\":3956:3988   */\n      calldataload\n        /* \"#utility.yul\":4015:4033   */\n      0xffffffffffffffff\n        /* \"#utility.yul\":4007:4013   */\n      dup2\n        /* \"#utility.yul\":4004:4034   */\n      gt\n        /* \"#utility.yul\":4001:4118   */\n      iszero\n      tag_115\n      jumpi\n        /* \"#utility.yul\":4037:4116   */\n      tag_116\n      tag_33\n      jump\t// in\n    tag_116:\n        /* \"#utility.yul\":4001:4118   */\n    tag_115:\n        /* \"#utility.yul\":4142:4205   */\n      tag_117\n        /* \"#utility.yul\":4197:4204   */\n      dup8\n        /* \"#utility.yul\":4188:4194   */\n      dup3\n        /* \"#utility.yul\":4177:4186   */\n      dup9\n        /* \"#utility.yul\":4173:4195   */\n      add\n        /* \"#utility.yul\":4142:4205   */\n      tag_43\n      jump\t// in\n    tag_117:\n        /* \"#utility.yul\":4132:4205   */\n      swap2\n      pop\n        /* \"#utility.yul\":3927:4215   */\n      pop\n        /* \"#utility.yul\":2919:4222   */\n      swap3\n      swap6\n      swap2\n      swap5\n      pop\n      swap3\n      pop\n      jump\t// out\n        /* \"#utility.yul\":4228:4327   */\n    tag_47:\n        /* \"#utility.yul\":4280:4286   */\n      0x00\n        /* \"#utility.yul\":4314:4319   */\n      dup2\n        /* \"#utility.yul\":4308:4320   */\n      mload\n        /* \"#utility.yul\":4298:4320   */\n      swap1\n      pop\n        /* \"#utility.yul\":4228:4327   */\n      swap2\n      swap1\n      pop\n      jump\t// out\n        /* \"#utility.yul\":4333:4502   */\n    tag_48:\n        /* \"#utility.yul\":4417:4428   */\n      0x00\n        /* \"#utility.yul\":4451:4457   */\n      dup3\n        /* \"#utility.yul\":4446:4449   */\n      dup3\n        /* \"#utility.yul\":4439:4458   */\n      mstore\n        /* \"#utility.yul\":4491:4495   */\n      0x20\n        /* \"#utility.yul\":4486:4489   */\n      dup3\n        /* \"#utility.yul\":4482:4496   */\n      add\n        /* \"#utility.yul\":4467:4496   */\n      swap1\n      pop\n        /* \"#utility.yul\":4333:4502   */\n      swap3\n      swap2\n      pop\n      pop\n      jump\t// out\n        /* \"#utility.yul\":4508:4647   */\n    tag_49:\n        /* \"#utility.yul\":4597:4603   */\n      dup3\n        /* \"#utility.yul\":4592:4595   */\n      dup2\n        /* \"#utility.yul\":4587:4590   */\n      dup4\n        /* \"#utility.yul\":4581:4604   */\n      mcopy\n        /* \"#utility.yul\":4638:4639   */\n      0x00\n        /* \"#utility.yul\":4629:4635   */\n      dup4\n        /* \"#utility.yul\":4624:4627   */\n      dup4\n        /* \"#utility.yul\":4620:4636   */\n      add\n        /* \"#utility.yul\":4613:4640   */\n      mstore\n        /* \"#utility.yul\":4508:4647   */\n      pop\n      pop\n      pop\n      jump\t// out\n        /* \"#utility.yul\":4653:5030   */\n    tag_50:\n        /* \"#utility.yul\":4741:4744   */\n      0x00\n        /* \"#utility.yul\":4769:4808   */\n      tag_122\n        /* \"#utility.yul\":4802:4807   */\n      dup3\n        /* \"#utility.yul\":4769:4808   */\n      tag_47\n      jump\t// in\n    tag_122:\n        /* \"#utility.yul\":4824:4895   */\n      tag_123\n        /* \"#utility.yul\":4888:4894   */\n      dup2\n        /* \"#utility.yul\":4883:4886   */\n      dup6\n        /* \"#utility.yul\":4824:4895   */\n      tag_48\n      jump\t// in\n    tag_123:\n        /* \"#utility.yul\":4817:4895   */\n      swap4\n      pop\n        /* \"#utility.yul\":4904:4969   */\n      tag_124\n        /* \"#utility.yul\":4962:4968   */\n      dup2\n        /* \"#utility.yul\":4957:4960   */\n      dup6\n        /* \"#utility.yul\":4950:4954   */\n      0x20\n        /* \"#utility.yul\":4943:4948   */\n      dup7\n        /* \"#utility.yul\":4939:4955   */\n      add\n        /* \"#utility.yul\":4904:4969   */\n      tag_49\n      jump\t// in\n    tag_124:\n        /* \"#utility.yul\":4994:5023   */\n      tag_125\n        /* \"#utility.yul\":5016:5022   */\n      dup2\n        /* \"#utility.yul\":4994:5023   */\n      tag_36\n      jump\t// in\n    tag_125:\n        /* \"#utility.yul\":4989:4992   */\n      dup5\n        /* \"#utility.yul\":4985:5024   */\n      add\n        /* \"#utility.yul\":4978:5024   */\n      swap2\n      pop\n        /* \"#utility.yul\":4745:5030   */\n      pop\n        /* \"#utility.yul\":4653:5030   */\n      swap3\n      swap2\n      pop\n      pop\n      jump\t// out\n        /* \"#utility.yul\":5036:5151   */\n    tag_51:\n        /* \"#utility.yul\":5121:5144   */\n      tag_127\n        /* \"#utility.yul\":5138:5143   */\n      dup2\n        /* \"#utility.yul\":5121:5144   */\n      tag_44\n      jump\t// in\n    tag_127:\n        /* \"#utility.yul\":5116:5119   */\n      dup3\n        /* \"#utility.yul\":5109:5145   */\n      mstore\n        /* \"#utility.yul\":5036:5151   */\n      pop\n      pop\n      jump\t// out\n        /* \"#utility.yul\":5157:5979   */\n    tag_9:\n        /* \"#utility.yul\":5392:5396   */\n      0x00\n        /* \"#utility.yul\":5430:5433   */\n      0x80\n        /* \"#utility.yul\":5419:5428   */\n      dup3\n        /* \"#utility.yul\":5415:5434   */\n      add\n        /* \"#utility.yul\":5407:5434   */\n      swap1\n      pop\n        /* \"#utility.yul\":5480:5489   */\n      dup2\n        /* \"#utility.yul\":5474:5478   */\n      dup2\n        /* \"#utility.yul\":5470:5490   */\n      sub\n        /* \"#utility.yul\":5466:5467   */\n      0x00\n        /* \"#utility.yul\":5455:5464   */\n      dup4\n        /* \"#utility.yul\":5451:5468   */\n      add\n        /* \"#utility.yul\":5444:5491   */\n      mstore\n        /* \"#utility.yul\":5508:5586   */\n      tag_129\n        /* \"#utility.yul\":5581:5585   */\n      dup2\n        /* \"#utility.yul\":5572:5578   */\n      dup8\n        /* \"#utility.yul\":5508:5586   */\n      tag_50\n      jump\t// in\n    tag_129:\n        /* \"#utility.yul\":5500:5586   */\n      swap1\n      pop\n        /* \"#utility.yul\":5633:5642   */\n      dup2\n        /* \"#utility.yul\":5627:5631   */\n      dup2\n        /* \"#utility.yul\":5623:5643   */\n      sub\n        /* \"#utility.yul\":5618:5620   */\n      0x20\n        /* \"#utility.yul\":5607:5616   */\n      dup4\n        /* \"#utility.yul\":5603:5621   */\n      add\n        /* \"#utility.yul\":5596:5644   */\n      mstore\n        /* \"#utility.yul\":5661:5739   */\n      tag_130\n        /* \"#utility.yul\":5734:5738   */\n      dup2\n        /* \"#utility.yul\":5725:5731   */\n      dup7\n        /* \"#utility.yul\":5661:5739   */\n      tag_50\n      jump\t// in\n    tag_130:\n        /* \"#utility.yul\":5653:5739   */\n      swap1\n      pop\n        /* \"#utility.yul\":5749:5819   */\n      tag_131\n        /* \"#utility.yul\":5815:5817   */\n      0x40\n        /* \"#utility.yul\":5804:5813   */\n      dup4\n        /* \"#utility.yul\":5800:5818   */\n      add\n        /* \"#utility.yul\":5791:5797   */\n      dup6\n        /* \"#utility.yul\":5749:5819   */\n      tag_51\n      jump\t// in\n    tag_131:\n        /* \"#utility.yul\":5866:5875   */\n      dup2\n        /* \"#utility.yul\":5860:5864   */\n      dup2\n        /* \"#utility.yul\":5856:5876   */\n      sub\n        /* \"#utility.yul\":5851:5853   */\n      0x60\n        /* \"#utility.yul\":5840:5849   */\n      dup4\n        /* \"#utility.yul\":5836:5854   */\n      add\n        /* \"#utility.yul\":5829:5877   */\n      mstore\n        /* \"#utility.yul\":5894:5972   */\n      tag_132\n        /* \"#utility.yul\":5967:5971   */\n      dup2\n        /* \"#utility.yul\":5958:5964   */\n      dup5\n        /* \"#utility.yul\":5894:5972   */\n      tag_50\n      jump\t// in\n    tag_132:\n        /* \"#utility.yul\":5886:5972   */\n      swap1\n      pop\n        /* \"#utility.yul\":5157:5979   */\n      swap6\n      swap5\n      pop\n      pop\n      pop\n      pop\n      pop\n      jump\t// out\n        /* \"#utility.yul\":5985:6165   */\n    tag_52:\n        /* \"#utility.yul\":6033:6110   */\n      0x4e487b7100000000000000000000000000000000000000000000000000000000\n        /* \"#utility.yul\":6030:6031   */\n      0x00\n        /* \"#utility.yul\":6023:6111   */\n      mstore\n        /* \"#utility.yul\":6130:6134   */\n      0x22\n        /* \"#utility.yul\":6127:6128   */\n      0x04\n        /* \"#utility.yul\":6120:6135   */\n      mstore\n        /* \"#utility.yul\":6154:6158   */\n      0x24\n        /* \"#utility.yul\":6151:6152   */\n      0x00\n        /* \"#utility.yul\":6144:6159   */\n      revert\n        /* \"#utility.yul\":6171:6491   */\n    tag_16:\n        /* \"#utility.yul\":6215:6221   */\n      0x00\n        /* \"#utility.yul\":6252:6253   */\n      0x02\n        /* \"#utility.yul\":6246:6250   */\n      dup3\n        /* \"#utility.yul\":6242:6254   */\n      div\n        /* \"#utility.yul\":6232:6254   */\n      swap1\n      pop\n        /* \"#utility.yul\":6299:6300   */\n      0x01\n        /* \"#utility.yul\":6293:6297   */\n      dup3\n        /* \"#utility.yul\":6289:6301   */\n      and\n        /* \"#utility.yul\":6320:6338   */\n      dup1\n        /* \"#utility.yul\":6310:6391   */\n      tag_135\n      jumpi\n        /* \"#utility.yul\":6376:6380   */\n      0x7f\n        /* \"#utility.yul\":6368:6374   */\n      dup3\n        /* \"#utility.yul\":6364:6381   */\n      and\n        /* \"#utility.yul\":6354:6381   */\n      swap2\n      pop\n        /* \"#utility.yul\":6310:6391   */\n    tag_135:\n        /* \"#utility.yul\":6438:6440   */\n      0x20\n        /* \"#utility.yul\":6430:6436   */\n      dup3\n        /* \"#utility.yul\":6427:6441   */\n      lt\n        /* \"#utility.yul\":6407:6425   */\n      dup2\n        /* \"#utility.yul\":6404:6442   */\n      sub\n        /* \"#utility.yul\":6401:6485   */\n      tag_136\n      jumpi\n        /* \"#utility.yul\":6457:6475   */\n      tag_137\n      tag_52\n      jump\t// in\n    tag_137:\n        /* \"#utility.yul\":6401:6485   */\n    tag_136:\n        /* \"#utility.yul\":6222:6491   */\n      pop\n        /* \"#utility.yul\":6171:6491   */\n      swap2\n      swap1\n      pop\n      jump\t// out\n        /* \"#utility.yul\":6497:6638   */\n    tag_53:\n        /* \"#utility.yul\":6546:6550   */\n      0x00\n        /* \"#utility.yul\":6569:6572   */\n      dup2\n        /* \"#utility.yul\":6561:6572   */\n      swap1\n      pop\n        /* \"#utility.yul\":6592:6595   */\n      dup2\n        /* \"#utility.yul\":6589:6590   */\n      0x00\n        /* \"#utility.yul\":6582:6596   */\n      mstore\n        /* \"#utility.yul\":6626:6630   */\n      0x20\n        /* \"#utility.yul\":6623:6624   */\n      0x00\n        /* \"#utility.yul\":6613:6631   */\n      keccak256\n        /* \"#utility.yul\":6605:6631   */\n      swap1\n      pop\n        /* \"#utility.yul\":6497:6638   */\n      swap2\n      swap1\n      pop\n      jump\t// out\n        /* \"#utility.yul\":6644:6737   */\n    tag_54:\n        /* \"#utility.yul\":6681:6687   */\n      0x00\n        /* \"#utility.yul\":6728:6730   */\n      0x20\n        /* \"#utility.yul\":6723:6725   */\n      0x1f\n        /* \"#utility.yul\":6716:6721   */\n      dup4\n        /* \"#utility.yul\":6712:6726   */\n      add\n        /* \"#utility.yul\":6708:6731   */\n      div\n        /* \"#utility.yul\":6698:6731   */\n      swap1\n      pop\n        /* \"#utility.yul\":6644:6737   */\n      swap2\n      swap1\n      pop\n      jump\t// out\n        /* \"#utility.yul\":6743:6850   */\n    tag_55:\n        /* \"#utility.yul\":6787:6795   */\n      0x00\n        /* \"#utility.yul\":6837:6842   */\n      dup3\n        /* \"#utility.yul\":6831:6835   */\n      dup3\n        /* \"#utility.yul\":6827:6843   */\n      shl\n        /* \"#utility.yul\":6806:6843   */\n      swap1\n      pop\n        /* \"#utility.yul\":6743:6850   */\n      swap3\n      swap2\n      pop\n      pop\n      jump\t// out\n        /* \"#utility.yul\":6856:7249   */\n    tag_56:\n        /* \"#utility.yul\":6925:6931   */\n      0x00\n        /* \"#utility.yul\":6975:6976   */\n      0x08\n        /* \"#utility.yul\":6963:6973   */\n      dup4\n        /* \"#utility.yul\":6959:6977   */\n      mul\n        /* \"#utility.yul\":6998:7095   */\n      tag_142\n        /* \"#utility.yul\":7028:7094   */\n      0xffffffffffffffffffffffffffffffffffffffffffffffffffffffffffffffff\n        /* \"#utility.yul\":7017:7026   */\n      dup3\n        /* \"#utility.yul\":6998:7095   */\n      tag_55\n      jump\t// in\n    tag_142:\n        /* \"#utility.yul\":7116:7155   */\n      tag_143\n        /* \"#utility.yul\":7146:7154   */\n      dup7\n        /* \"#utility.yul\":7135:7144   */\n      dup4\n        /* \"#utility.yul\":7116:7155   */\n      tag_55\n      jump\t// in\n    tag_143:\n        /* \"#utility.yul\":7104:7155   */\n      swap6\n      pop\n        /* \"#utility.yul\":7188:7192   */\n      dup1\n        /* \"#utility.yul\":7184:7193   */\n      not\n        /* \"#utility.yul\":7177:7182   */\n      dup5\n        /* \"#utility.yul\":7173:7194   */\n      and\n        /* \"#utility.yul\":7164:7194   */\n      swap4\n      pop\n        /* \"#utility.yul\":7237:7241   */\n      dup1\n        /* \"#utility.yul\":7227:7235   */\n      dup7\n        /* \"#utility.yul\":7223:7242   */\n      and\n        /* \"#utility.yul\":7216:7221   */\n      dup5\n        /* \"#utility.yul\":7213:7243   */\n      or\n        /* \"#utility.yul\":7203:7243   */\n      swap3\n      pop\n        /* \"#utility.yul\":6932:7249   */\n      pop\n      pop\n        /* \"#utility.yul\":6856:7249   */\n      swap4\n      swap3\n      pop\n      pop\n      pop\n      jump\t// out\n        /* \"#utility.yul\":7255:7332   */\n    tag_57:\n        /* \"#utility.yul\":7292:7299   */\n      0x00\n        /* \"#utility.yul\":7321:7326   */\n      dup2\n        /* \"#utility.yul\":7310:7326   */\n      swap1\n      pop\n        /* \"#utility.yul\":7255:7332   */\n      swap2\n      swap1\n      pop\n      jump\t// out\n        /* \"#utility.yul\":7338:7398   */\n    tag_58:\n        /* \"#utility.yul\":7366:7369   */\n      0x00\n        /* \"#utility.yul\":7387:7392   */\n      dup2\n        /* \"#utility.yul\":7380:7392   */\n      swap1\n      pop\n        /* \"#utility.yul\":7338:7398   */\n      swap2\n      swap1\n      pop\n      jump\t// out\n        /* \"#utility.yul\":7404:7546   */\n    tag_59:\n        /* \"#utility.yul\":7454:7463   */\n      0x00\n        /* \"#utility.yul\":7487:7540   */\n      tag_147\n        /* \"#utility.yul\":7505:7539   */\n      tag_148\n        /* \"#utility.yul\":7514:7538   */\n      tag_149\n        /* \"#utility.yul\":7532:7537   */\n      dup5\n        /* \"#utility.yul\":7514:7538   */\n      tag_57\n      jump\t// in\n    tag_149:\n        /* \"#utility.yul\":7505:7539   */\n      tag_58\n      jump\t// in\n    tag_148:\n        /* \"#utility.yul\":7487:7540   */\n      tag_57\n      jump\t// in\n    tag_147:\n        /* \"#utility.yul\":7474:7540   */\n      swap1\n      pop\n        /* \"#utility.yul\":7404:7546   */\n      swap2\n      swap1\n      pop\n      jump\t// out\n        /* \"#utility.yul\":7552:7627   */\n    tag_60:\n        /* \"#utility.yul\":7595:7598   */\n      0x00\n        /* \"#utility.yul\":7616:7621   */\n      dup2\n        /* \"#utility.yul\":7609:7621   */\n      swap1\n      pop\n        /* \"#utility.yul\":7552:7627   */\n      swap2\n      swap1\n      pop\n      jump\t// out\n        /* \"#utility.yul\":7633:7902   */\n    tag_61:\n        /* \"#utility.yul\":7743:7782   */\n      tag_152\n        /* \"#utility.yul\":7774:7781   */\n      dup4\n        /* \"#utility.yul\":7743:7782   */\n      tag_59\n      jump\t// in\n    tag_152:\n        /* \"#utility.yul\":7804:7895   */\n      tag_153\n        /* \"#utility.yul\":7853:7894   */\n      tag_154\n        /* \"#utility.yul\":7877:7893   */\n      dup3\n        /* \"#utility.yul\":7853:7894   */\n      tag_60\n      jump\t// in\n    tag_154:\n        /* \"#utility.yul\":7845:7851   */\n      dup5\n        /* \"#utility.yul\":7838:7842   */\n      dup5\n        /* \"#utility.yul\":7832:7843   */\n      sload\n        /* \"#utility.yul\":7804:7895   */\n      tag_56\n      jump\t// in\n    tag_153:\n        /* \"#utility.yul\":7798:7802   */\n      dup3\n        /* \"#utility.yul\":7791:7896   */\n      sstore\n        /* \"#utility.yul\":7709:7902   */\n      pop\n        /* \"#utility.yul\":7633:7902   */\n      pop\n      pop\n      pop\n      jump\t// out\n        /* \"#utility.yul\":7908:7981   */\n    tag_62:\n        /* \"#utility.yul\":7953:7956   */\n      0x00\n        /* \"#utility.yul\":7974:7975   */\n      0x00\n        /* \"#utility.yul\":7967:7975   */\n      swap1\n      pop\n        /* \"#utility.yul\":7908:7981   */\n      swap1\n      jump\t// out\n        /* \"#utility.yul\":7987:8176   */\n    tag_63:\n        /* \"#utility.yul\":8064:8096   */\n      tag_157\n      tag_62\n      jump\t// in\n    tag_157:\n        /* \"#utility.yul\":8105:8170   */\n      tag_158\n        /* \"#utility.yul\":8163:8169   */\n      dup2\n        /* \"#utility.yul\":8155:8161   */\n      dup5\n        /* \"#utility.yul\":8149:8153   */\n      dup5\n        /* \"#utility.yul\":8105:8170   */\n      tag_61\n      jump\t// in\n    tag_158:\n        /* \"#utility.yul\":8040:8176   */\n      pop\n        /* \"#utility.yul\":7987:8176   */\n      pop\n      pop\n      jump\t// out\n        /* \"#utility.yul\":8182:8368   */\n    tag_64:\n        /* \"#utility.yul\":8242:8362   */\n    tag_160:\n        /* \"#utility.yul\":8259:8262   */\n      dup2\n        /* \"#utility.yul\":8252:8257   */\n      dup2\n        /* \"#utility.yul\":8249:8263   */\n      lt\n        /* \"#utility.yul\":8242:8362   */\n      iszero\n      tag_162\n      jumpi\n        /* \"#utility.yul\":8313:8352   */\n      tag_163\n        /* \"#utility.yul\":8350:8351   */\n      0x00\n        /* \"#utility.yul\":8343:8348   */\n      dup3\n        /* \"#utility.yul\":8313:8352   */\n      tag_63\n      jump\t// in\n    tag_163:\n        /* \"#utility.yul\":8286:8287   */\n      0x01\n        /* \"#utility.yul\":8279:8284   */\n      dup2\n        /* \"#utility.yul\":8275:8288   */\n      add\n        /* \"#utility.yul\":8266:8288   */\n      swap1\n      pop\n        /* \"#utility.yul\":8242:8362   */\n      jump(tag_160)\n    tag_162:\n        /* \"#utility.yul\":8182:8368   */\n      pop\n      pop\n      jump\t// out\n        /* \"#utility.yul\":8374:8917   */\n    tag_65:\n        /* \"#utility.yul\":8475:8477   */\n      0x1f\n        /* \"#utility.yul\":8470:8473   */\n      dup3\n        /* \"#utility.yul\":8467:8478   */\n      gt\n        /* \"#utility.yul\":8464:8910   */\n      iszero\n      tag_165\n      jumpi\n        /* \"#utility.yul\":8509:8547   */\n      tag_166\n        /* \"#utility.yul\":8541:8546   */\n      dup2\n        /* \"#utility.yul\":8509:8547   */\n      tag_53\n      jump\t// in\n    tag_166:\n        /* \"#utility.yul\":8593:8622   */\n      tag_167\n        /* \"#utility.yul\":8611:8621   */\n      dup5\n        /* \"#utility.yul\":8593:8622   */\n      tag_54\n      jump\t// in\n    tag_167:\n        /* \"#utility.yul\":8583:8591   */\n      dup2\n        /* \"#utility.yul\":8579:8623   */\n      add\n        /* \"#utility.yul\":8776:8778   */\n      0x20\n        /* \"#utility.yul\":8764:8774   */\n      dup6\n        /* \"#utility.yul\":8761:8779   */\n      lt\n        /* \"#utility.yul\":8758:8807   */\n      iszero\n      tag_168\n      jumpi\n        /* \"#utility.yul\":8797:8805   */\n      dup2\n        /* \"#utility.yul\":8782:8805   */\n      swap1\n      pop\n        /* \"#utility.yul\":8758:8807   */\n    tag_168:\n        /* \"#utility.yul\":8820:8900   */\n      tag_169\n        /* \"#utility.yul\":8876:8898   */\n      tag_170\n        /* \"#utility.yul\":8894:8897   */\n      dup6\n        /* \"#utility.yul\":8876:8898   */\n      tag_54\n      jump\t// in\n    tag_170:\n        /* \"#utility.yul\":8866:8874   */\n      dup4\n        /* \"#utility.yul\":8862:8899   */\n      add\n        /* \"#utility.yul\":8849:8860   */\n      dup3\n        /* \"#utility.yul\":8820:8900   */\n      tag_64\n      jump\t// in\n    tag_169:\n        /* \"#utility.yul\":8479:8910   */\n      pop\n      pop\n        /* \"#utility.yul\":8464:8910   */\n    tag_165:\n        /* \"#utility.yul\":8374:8917   */\n      pop\n      pop\n      pop\n      jump\t// out\n        /* \"#utility.yul\":8923:9040   */\n    tag_66:\n        /* \"#utility.yul\":8977:8985   */\n      0x00\n        /* \"#utility.yul\":9027:9032   */\n      dup3\n        /* \"#utility.yul\":9021:9025   */\n      dup3\n        /* \"#utility.yul\":9017:9033   */\n      shr\n        /* \"#utility.yul\":8996:9033   */\n      swap1\n      pop\n        /* \"#utility.yul\":8923:9040   */\n      swap3\n      swap2\n      pop\n      pop\n      jump\t// out\n        /* \"#utility.yul\":9046:9215   */\n    tag_67:\n        /* \"#utility.yul\":9090:9096   */\n      0x00\n        /* \"#utility.yul\":9123:9174   */\n      tag_173\n        /* \"#utility.yul\":9171:9172   */\n      0x00\n        /* \"#utility.yul\":9167:9173   */\n      not\n        /* \"#utility.yul\":9159:9164   */\n      dup5\n        /* \"#utility.yul\":9156:9157   */\n      0x08\n        /* \"#utility.yul\":9152:9165   */\n      mul\n        /* \"#utility.yul\":9123:9174   */\n      tag_66\n      jump\t// in\n    tag_173:\n        /* \"#utility.yul\":9119:9175   */\n      not\n        /* \"#utility.yul\":9204:9208   */\n      dup1\n        /* \"#utility.yul\":9198:9202   */\n      dup4\n        /* \"#utility.yul\":9194:9209   */\n      and\n        /* \"#utility.yul\":9184:9209   */\n      swap2\n      pop\n        /* \"#utility.yul\":9097:9215   */\n      pop\n        /* \"#utility.yul\":9046:9215   */\n      swap3\n      swap2\n      pop\n      pop\n      jump\t// out\n        /* \"#utility.yul\":9220:9515   */\n    tag_68:\n        /* \"#utility.yul\":9296:9300   */\n      0x00\n        /* \"#utility.yul\":9442:9471   */\n      tag_175\n        /* \"#utility.yul\":9467:9470   */\n      dup4\n        /* \"#utility.yul\":9461:9465   */\n      dup4\n        /* \"#utility.yul\":9442:9471   */\n      tag_67\n      jump\t// in\n    tag_175:\n        /* \"#utility.yul\":9434:9471   */\n      swap2\n      pop\n        /* \"#utility.yul\":9504:9507   */\n      dup3\n        /* \"#utility.yul\":9501:9502   */\n      0x02\n        /* \"#utility.yul\":9497:9508   */\n      mul\n        /* \"#utility.yul\":9491:9495   */\n      dup3\n        /* \"#utility.yul\":9488:9509   */\n      or\n        /* \"#utility.yul\":9480:9509   */\n      swap1\n      pop\n        /* \"#utility.yul\":9220:9515   */\n      swap3\n      swap2\n      pop\n      pop\n      jump\t// out\n        /* \"#utility.yul\":9520:10915   */\n    tag_12:\n        /* \"#utility.yul\":9637:9674   */\n      tag_177\n        /* \"#utility.yul\":9670:9673   */\n      dup3\n        /* \"#utility.yul\":9637:9674   */\n      tag_47\n      jump\t// in\n    tag_177:\n        /* \"#utility.yul\":9739:9757   */\n      0xffffffffffffffff\n        /* \"#utility.yul\":9731:9737   */\n      dup2\n        /* \"#utility.yul\":9728:9758   */\n      gt\n        /* \"#utility.yul\":9725:9781   */\n      iszero\n      tag_178\n      jumpi\n        /* \"#utility.yul\":9761:9779   */\n      tag_179\n      tag_37\n      jump\t// in\n    tag_179:\n        /* \"#utility.yul\":9725:9781   */\n    tag_178:\n        /* \"#utility.yul\":9805:9843   */\n      tag_180\n        /* \"#utility.yul\":9837:9841   */\n      dup3\n        /* \"#utility.yul\":9831:9842   */\n      sload\n        /* \"#utility.yul\":9805:9843   */\n      tag_16\n      jump\t// in\n    tag_180:\n        /* \"#utility.yul\":9890:9957   */\n      tag_181\n        /* \"#utility.yul\":9950:9956   */\n      dup3\n        /* \"#utility.yul\":9942:9948   */\n      dup3\n        /* \"#utility.yul\":9936:9940   */\n      dup6\n        /* \"#utility.yul\":9890:9957   */\n      tag_65\n      jump\t// in\n    tag_181:\n        /* \"#utility.yul\":9984:9985   */\n      0x00\n        /* \"#utility.yul\":10008:10012   */\n      0x20\n        /* \"#utility.yul\":9995:10012   */\n      swap1\n      pop\n        /* \"#utility.yul\":10040:10042   */\n      0x1f\n        /* \"#utility.yul\":10032:10038   */\n      dup4\n        /* \"#utility.yul\":10029:10043   */\n      gt\n        /* \"#utility.yul\":10057:10058   */\n      0x01\n        /* \"#utility.yul\":10052:10670   */\n      dup2\n      eq\n      tag_183\n      jumpi\n        /* \"#utility.yul\":10714:10715   */\n      0x00\n        /* \"#utility.yul\":10731:10737   */\n      dup5\n        /* \"#utility.yul\":10728:10805   */\n      iszero\n      tag_184\n      jumpi\n        /* \"#utility.yul\":10780:10789   */\n      dup3\n        /* \"#utility.yul\":10775:10778   */\n      dup8\n        /* \"#utility.yul\":10771:10790   */\n      add\n        /* \"#utility.yul\":10765:10791   */\n      mload\n        /* \"#utility.yul\":10756:10791   */\n      swap1\n      pop\n        /* \"#utility.yul\":10728:10805   */\n    tag_184:\n        /* \"#utility.yul\":10831:10898   */\n      tag_185\n        /* \"#utility.yul\":10891:10897   */\n      dup6\n        /* \"#utility.yul\":10884:10889   */\n      dup3\n        /* \"#utility.yul\":10831:10898   */\n      tag_68\n      jump\t// in\n    tag_185:\n        /* \"#utility.yul\":10825:10829   */\n      dup7\n        /* \"#utility.yul\":10818:10899   */\n      sstore\n        /* \"#utility.yul\":10687:10909   */\n      pop\n        /* \"#utility.yul\":10022:10909   */\n      jump(tag_182)\n        /* \"#utility.yul\":10052:10670   */\n    tag_183:\n        /* \"#utility.yul\":10104:10108   */\n      0x1f\n        /* \"#utility.yul\":10100:10109   */\n      not\n        /* \"#utility.yul\":10092:10098   */\n      dup5\n        /* \"#utility.yul\":10088:10110   */\n      and\n        /* \"#utility.yul\":10138:10175   */\n      tag_186\n        /* \"#utility.yul\":10170:10174   */\n      dup7\n        /* \"#utility.yul\":10138:10175   */\n      tag_53\n      jump\t// in\n    tag_186:\n        /* \"#utility.yul\":10197:10198   */\n      0x00\n        /* \"#utility.yul\":10211:10419   */\n    tag_187:\n        /* \"#utility.yul\":10225:10232   */\n      dup3\n        /* \"#utility.yul\":10222:10223   */\n      dup2\n        /* \"#utility.yul\":10219:10233   */\n      lt\n        /* \"#utility.yul\":10211:10419   */\n      iszero\n      tag_189\n      jumpi\n        /* \"#utility.yul\":10304:10313   */\n      dup5\n        /* \"#utility.yul\":10299:10302   */\n      dup10\n        /* \"#utility.yul\":10295:10314   */\n      add\n        /* \"#utility.yul\":10289:10315   */\n      mload\n        /* \"#utility.yul\":10281:10287   */\n      dup3\n        /* \"#utility.yul\":10274:10316   */\n      sstore\n        /* \"#utility.yul\":10355:10356   */\n      0x01\n        /* \"#utility.yul\":10347:10353   */\n      dup3\n        /* \"#utility.yul\":10343:10357   */\n      add\n        /* \"#utility.yul\":10333:10357   */\n      swap2\n      pop\n        /* \"#utility.yul\":10402:10404   */\n      0x20\n        /* \"#utility.yul\":10391:10400   */\n      dup6\n        /* \"#utility.yul\":10387:10405   */\n      add\n        /* \"#utility.yul\":10374:10405   */\n      swap5\n      pop\n        /* \"#utility.yul\":10248:10252   */\n      0x20\n        /* \"#utility.yul\":10245:10246   */\n      dup2\n        /* \"#utility.yul\":10241:10253   */\n      add\n        /* \"#utility.yul\":10236:10253   */\n      swap1\n      pop\n        /* \"#utility.yul\":10211:10419   */\n      jump(tag_187)\n    tag_189:\n        /* \"#utility.yul\":10447:10453   */\n      dup7\n        /* \"#utility.yul\":10438:10445   */\n      dup4\n        /* \"#utility.yul\":10435:10454   */\n      lt\n        /* \"#utility.yul\":10432:10611   */\n      iszero\n      tag_190\n      jumpi\n        /* \"#utility.yul\":10505:10514   */\n      dup5\n        /* \"#utility.yul\":10500:10503   */\n      dup10\n        /* \"#utility.yul\":10496:10515   */\n      add\n        /* \"#utility.yul\":10490:10516   */\n      mload\n        /* \"#utility.yul\":10548:10596   */\n      tag_191\n        /* \"#utility.yul\":10590:10594   */\n      0x1f\n        /* \"#utility.yul\":10582:10588   */\n      dup10\n        /* \"#utility.yul\":10578:10595   */\n      and\n        /* \"#utility.yul\":10567:10576   */\n      dup3\n        /* \"#utility.yul\":10548:10596   */\n      tag_67\n      jump\t// in\n    tag_191:\n        /* \"#utility.yul\":10540:10546   */\n      dup4\n        /* \"#utility.yul\":10533:10597   */\n      sstore\n        /* \"#utility.yul\":10455:10611   */\n      pop\n        /* \"#utility.yul\":10432:10611   */\n    tag_190:\n        /* \"#utility.yul\":10657:10658   */\n      0x01\n        /* \"#utility.yul\":10653:10654   */\n      0x02\n        /* \"#utility.yul\":10645:10651   */\n      dup9\n        /* \"#utility.yul\":10641:10655   */\n      mul\n        /* \"#utility.yul\":10637:10659   */\n      add\n        /* \"#utility.yul\":10631:10635   */\n      dup9\n        /* \"#utility.yul\":10624:10660   */\n      sstore\n        /* \"#utility.yul\":10059:10670   */\n      pop\n      pop\n      pop\n        /* \"#utility.yul\":10022:10909   */\n    tag_182:\n      pop\n        /* \"#utility.yul\":9612:10915   */\n      pop\n      pop\n      pop\n        /* \"#utility.yul\":9520:10915   */\n      pop\n      pop\n      jump\t// out\n\n    auxdata: 0xa26469706673582212203d862c83a8f206925fd57e6bf3109d349ef6e1ce0f77827b2e3b70d60e70055964736f6c634300081f0033\n}\n",
				"bytecode": {
					"linkReferences": {},
					"object": "6080604052348015600e575f5ffd5b506108858061001c5f395ff3fe608060405234801561000f575f5ffd5b5060043610610029575f3560e01c80634c59d1711461002d575b5f5ffd5b610047600480360381019061004291906103fb565b610060565b6040516100579493929190610522565b60405180910390f35b6060805f6060875f90816100749190610780565b5086600190816100849190610780565b508560025f6101000a81548161ffff021916908361ffff16021790555084600390816100b09190610780565b505f600160025f9054906101000a900461ffff1660038380546100d2906105a7565b80601f01602080910402602001604051908101604052809291908181526020018280546100fe906105a7565b80156101495780601f1061012057610100808354040283529160200191610149565b820191905f5260205f20905b81548152906001019060200180831161012c57829003601f168201915b5050505050935082805461015c906105a7565b80601f0160208091040260200160405190810160405280929190818152602001828054610188906105a7565b80156101d35780601f106101aa576101008083540402835291602001916101d3565b820191905f5260205f20905b8154815290600101906020018083116101b657829003601f168201915b505050505092508080546101e6906105a7565b80601f0160208091040260200160405190810160405280929190818152602001828054610212906105a7565b801561025d5780601f106102345761010080835404028352916020019161025d565b820191905f5260205f20905b81548152906001019060200180831161024057829003601f168201915b505050505090509350935093509350945094509450949050565b5f604051905090565b5f5ffd5b5f5ffd5b5f5ffd5b5f5ffd5b5f601f19601f8301169050919050565b7f4e487b71000000000000000000000000000000000000000000000000000000005f52604160045260245ffd5b6102d682610290565b810181811067ffffffffffffffff821117156102f5576102f46102a0565b5b80604052505050565b5f610307610277565b905061031382826102cd565b919050565b5f67ffffffffffffffff821115610332576103316102a0565b5b61033b82610290565b9050602081019050919050565b828183375f83830152505050565b5f61036861036384610318565b6102fe565b9050828152602081018484840111156103845761038361028c565b5b61038f848285610348565b509392505050565b5f82601f8301126103ab576103aa610288565b5b81356103bb848260208601610356565b91505092915050565b5f61ffff82169050919050565b6103da816103c4565b81146103e4575f5ffd5b50565b5f813590506103f5816103d1565b92915050565b5f5f5f5f6080858703121561041357610412610280565b5b5f85013567ffffffffffffffff8111156104305761042f610284565b5b61043c87828801610397565b945050602085013567ffffffffffffffff81111561045d5761045c610284565b5b61046987828801610397565b935050604061047a878288016103e7565b925050606085013567ffffffffffffffff81111561049b5761049a610284565b5b6104a787828801610397565b91505092959194509250565b5f81519050919050565b5f82825260208201905092915050565b8281835e5f83830152505050565b5f6104e5826104b3565b6104ef81856104bd565b93506104ff8185602086016104cd565b61050881610290565b840191505092915050565b61051c816103c4565b82525050565b5f6080820190508181035f83015261053a81876104db565b9050818103602083015261054e81866104db565b905061055d6040830185610513565b818103606083015261056f81846104db565b905095945050505050565b7f4e487b71000000000000000000000000000000000000000000000000000000005f52602260045260245ffd5b5f60028204905060018216806105be57607f821691505b6020821081036105d1576105d061057a565b5b50919050565b5f819050815f5260205f209050919050565b5f6020601f8301049050919050565b5f82821b905092915050565b5f600883026106337fffffffffffffffffffffffffffffffffffffffffffffffffffffffffffffffff826105f8565b61063d86836105f8565b95508019841693508086168417925050509392505050565b5f819050919050565b5f819050919050565b5f61068161067c61067784610655565b61065e565b610655565b9050919050565b5f819050919050565b61069a83610667565b6106ae6106a682610688565b848454610604565b825550505050565b5f5f905090565b6106c56106b6565b6106d0818484610691565b505050565b5b818110156106f3576106e85f826106bd565b6001810190506106d6565b5050565b601f82111561073857610709816105d7565b610712846105e9565b81016020851015610721578190505b61073561072d856105e9565b8301826106d5565b50505b505050565b5f82821c905092915050565b5f6107585f198460080261073d565b1980831691505092915050565b5f6107708383610749565b9150826002028217905092915050565b610789826104b3565b67ffffffffffffffff8111156107a2576107a16102a0565b5b6107ac82546105a7565b6107b78282856106f7565b5f60209050601f8311600181146107e8575f84156107d6578287015190505b6107e08582610765565b865550610847565b601f1984166107f6866105d7565b5f5b8281101561081d578489015182556001820191506020850194506020810190506107f8565b8683101561083a5784890151610836601f891682610749565b8355505b6001600288020188555050505b50505050505056fea26469706673582212203d862c83a8f206925fd57e6bf3109d349ef6e1ce0f77827b2e3b70d60e70055964736f6c634300081f0033",
					"opcodes": "PUSH1 0x80 PUSH1 0x40 MSTORE CALLVALUE DUP1 ISZERO PUSH1 0xE JUMPI PUSH0 PUSH0 REVERT JUMPDEST POP PUSH2 0x885 DUP1 PUSH2 0x1C PUSH0 CODECOPY PUSH0 RETURN INVALID PUSH1 0x80 PUSH1 0x40 MSTORE CALLVALUE DUP1 ISZERO PUSH2 0xF JUMPI PUSH0 PUSH0 REVERT JUMPDEST POP PUSH1 0x4 CALLDATASIZE LT PUSH2 0x29 JUMPI PUSH0 CALLDATALOAD PUSH1 0xE0 SHR DUP1 PUSH4 0x4C59D171 EQ PUSH2 0x2D JUMPI JUMPDEST PUSH0 PUSH0 REVERT JUMPDEST PUSH2 0x47 PUSH1 0x4 DUP1 CALLDATASIZE SUB DUP2 ADD SWAP1 PUSH2 0x42 SWAP2 SWAP1 PUSH2 0x3FB JUMP JUMPDEST PUSH2 0x60 JUMP JUMPDEST PUSH1 0x40 MLOAD PUSH2 0x57 SWAP5 SWAP4 SWAP3 SWAP2 SWAP1 PUSH2 0x522 JUMP JUMPDEST PUSH1 0x40 MLOAD DUP1 SWAP2 SUB SWAP1 RETURN JUMPDEST PUSH1 0x60 DUP1 PUSH0 PUSH1 0x60 DUP8 PUSH0 SWAP1 DUP2 PUSH2 0x74 SWAP2 SWAP1 PUSH2 0x780 JUMP JUMPDEST POP DUP7 PUSH1 0x1 SWAP1 DUP2 PUSH2 0x84 SWAP2 SWAP1 PUSH2 0x780 JUMP JUMPDEST POP DUP6 PUSH1 0x2 PUSH0 PUSH2 0x100 EXP DUP2 SLOAD DUP2 PUSH2 0xFFFF MUL NOT AND SWAP1 DUP4 PUSH2 0xFFFF AND MUL OR SWAP1 SSTORE POP DUP5 PUSH1 0x3 SWAP1 DUP2 PUSH2 0xB0 SWAP2 SWAP1 PUSH2 0x780 JUMP JUMPDEST POP PUSH0 PUSH1 0x1 PUSH1 0x2 PUSH0 SWAP1 SLOAD SWAP1 PUSH2 0x100 EXP SWAP1 DIV PUSH2 0xFFFF AND PUSH1 0x3 DUP4 DUP1 SLOAD PUSH2 0xD2 SWAP1 PUSH2 0x5A7 JUMP JUMPDEST DUP1 PUSH1 0x1F ADD PUSH1 0x20 DUP1 SWAP2 DIV MUL PUSH1 0x20 ADD PUSH1 0x40 MLOAD SWAP1 DUP2 ADD PUSH1 0x40 MSTORE DUP1 SWAP3 SWAP2 SWAP1 DUP2 DUP2 MSTORE PUSH1 0x20 ADD DUP3 DUP1 SLOAD PUSH2 0xFE SWAP1 PUSH2 0x5A7 JUMP JUMPDEST DUP1 ISZERO PUSH2 0x149 JUMPI DUP1 PUSH1 0x1F LT PUSH2 0x120 JUMPI PUSH2 0x100 DUP1 DUP4 SLOAD DIV MUL DUP4 MSTORE SWAP2 PUSH1 0x20 ADD SWAP2 PUSH2 0x149 JUMP JUMPDEST DUP3 ADD SWAP2 SWAP1 PUSH0 MSTORE PUSH1 0x20 PUSH0 KECCAK256 SWAP1 JUMPDEST DUP2 SLOAD DUP2 MSTORE SWAP1 PUSH1 0x1 ADD SWAP1 PUSH1 0x20 ADD DUP1 DUP4 GT PUSH2 0x12C JUMPI DUP3 SWAP1 SUB PUSH1 0x1F AND DUP3 ADD SWAP2 JUMPDEST POP POP POP POP POP SWAP4 POP DUP3 DUP1 SLOAD PUSH2 0x15C SWAP1 PUSH2 0x5A7 JUMP JUMPDEST DUP1 PUSH1 0x1F ADD PUSH1 0x20 DUP1 SWAP2 DIV MUL PUSH1 0x20 ADD PUSH1 0x40 MLOAD SWAP1 DUP2 ADD PUSH1 0x40 MSTORE DUP1 SWAP3 SWAP2 SWAP1 DUP2 DUP2 MSTORE PUSH1 0x20 ADD DUP3 DUP1 SLOAD PUSH2 0x188 SWAP1 PUSH2 0x5A7 JUMP JUMPDEST DUP1 ISZERO PUSH2 0x1D3 JUMPI DUP1 PUSH1 0x1F LT PUSH2 0x1AA JUMPI PUSH2 0x100 DUP1 DUP4 SLOAD DIV MUL DUP4 MSTORE SWAP2 PUSH1 0x20 ADD SWAP2 PUSH2 0x1D3 JUMP JUMPDEST DUP3 ADD SWAP2 SWAP1 PUSH0 MSTORE PUSH1 0x20 PUSH0 KECCAK256 SWAP1 JUMPDEST DUP2 SLOAD DUP2 MSTORE SWAP1 PUSH1 0x1 ADD SWAP1 PUSH1 0x20 ADD DUP1 DUP4 GT PUSH2 0x1B6 JUMPI DUP3 SWAP1 SUB PUSH1 0x1F AND DUP3 ADD SWAP2 JUMPDEST POP POP POP POP POP SWAP3 POP DUP1 DUP1 SLOAD PUSH2 0x1E6 SWAP1 PUSH2 0x5A7 JUMP JUMPDEST DUP1 PUSH1 0x1F ADD PUSH1 0x20 DUP1 SWAP2 DIV MUL PUSH1 0x20 ADD PUSH1 0x40 MLOAD SWAP1 DUP2 ADD PUSH1 0x40 MSTORE DUP1 SWAP3 SWAP2 SWAP1 DUP2 DUP2 MSTORE PUSH1 0x20 ADD DUP3 DUP1 SLOAD PUSH2 0x212 SWAP1 PUSH2 0x5A7 JUMP JUMPDEST DUP1 ISZERO PUSH2 0x25D JUMPI DUP1 PUSH1 0x1F LT PUSH2 0x234 JUMPI PUSH2 0x100 DUP1 DUP4 SLOAD DIV MUL DUP4 MSTORE SWAP2 PUSH1 0x20 ADD SWAP2 PUSH2 0x25D JUMP JUMPDEST DUP3 ADD SWAP2 SWAP1 PUSH0 MSTORE PUSH1 0x20 PUSH0 KECCAK256 SWAP1 JUMPDEST DUP2 SLOAD DUP2 MSTORE SWAP1 PUSH1 0x1 ADD SWAP1 PUSH1 0x20 ADD DUP1 DUP4 GT PUSH2 0x240 JUMPI DUP3 SWAP1 SUB PUSH1 0x1F AND DUP3 ADD SWAP2 JUMPDEST POP POP POP POP POP SWAP1 POP SWAP4 POP SWAP4 POP SWAP4 POP SWAP4 POP SWAP5 POP SWAP5 POP SWAP5 POP SWAP5 SWAP1 POP JUMP JUMPDEST PUSH0 PUSH1 0x40 MLOAD SWAP1 POP SWAP1 JUMP JUMPDEST PUSH0 PUSH0 REVERT JUMPDEST PUSH0 PUSH0 REVERT JUMPDEST PUSH0 PUSH0 REVERT JUMPDEST PUSH0 PUSH0 REVERT JUMPDEST PUSH0 PUSH1 0x1F NOT PUSH1 0x1F DUP4 ADD AND SWAP1 POP SWAP2 SWAP1 POP JUMP JUMPDEST PUSH32 0x4E487B7100000000000000000000000000000000000000000000000000000000 PUSH0 MSTORE PUSH1 0x41 PUSH1 0x4 MSTORE PUSH1 0x24 PUSH0 REVERT JUMPDEST PUSH2 0x2D6 DUP3 PUSH2 0x290 JUMP JUMPDEST DUP2 ADD DUP2 DUP2 LT PUSH8 0xFFFFFFFFFFFFFFFF DUP3 GT OR ISZERO PUSH2 0x2F5 JUMPI PUSH2 0x2F4 PUSH2 0x2A0 JUMP JUMPDEST JUMPDEST DUP1 PUSH1 0x40 MSTORE POP POP POP JUMP JUMPDEST PUSH0 PUSH2 0x307 PUSH2 0x277 JUMP JUMPDEST SWAP1 POP PUSH2 0x313 DUP3 DUP3 PUSH2 0x2CD JUMP JUMPDEST SWAP2 SWAP1 POP JUMP JUMPDEST PUSH0 PUSH8 0xFFFFFFFFFFFFFFFF DUP3 GT ISZERO PUSH2 0x332 JUMPI PUSH2 0x331 PUSH2 0x2A0 JUMP JUMPDEST JUMPDEST PUSH2 0x33B DUP3 PUSH2 0x290 JUMP JUMPDEST SWAP1 POP PUSH1 0x20 DUP2 ADD SWAP1 POP SWAP2 SWAP1 POP JUMP JUMPDEST DUP3 DUP2 DUP4 CALLDATACOPY PUSH0 DUP4 DUP4 ADD MSTORE POP POP POP JUMP JUMPDEST PUSH0 PUSH2 0x368 PUSH2 0x363 DUP5 PUSH2 0x318 JUMP JUMPDEST PUSH2 0x2FE JUMP JUMPDEST SWAP1 POP DUP3 DUP2 MSTORE PUSH1 0x20 DUP2 ADD DUP5 DUP5 DUP5 ADD GT ISZERO PUSH2 0x384 JUMPI PUSH2 0x383 PUSH2 0x28C JUMP JUMPDEST JUMPDEST PUSH2 0x38F DUP5 DUP3 DUP6 PUSH2 0x348 JUMP JUMPDEST POP SWAP4 SWAP3 POP POP POP JUMP JUMPDEST PUSH0 DUP3 PUSH1 0x1F DUP4 ADD SLT PUSH2 0x3AB JUMPI PUSH2 0x3AA PUSH2 0x288 JUMP JUMPDEST JUMPDEST DUP2 CALLDATALOAD PUSH2 0x3BB DUP5 DUP3 PUSH1 0x20 DUP7 ADD PUSH2 0x356 JUMP JUMPDEST SWAP2 POP POP SWAP3 SWAP2 POP POP JUMP JUMPDEST PUSH0 PUSH2 0xFFFF DUP3 AND SWAP1 POP SWAP2 SWAP1 POP JUMP JUMPDEST PUSH2 0x3DA DUP2 PUSH2 0x3C4 JUMP JUMPDEST DUP2 EQ PUSH2 0x3E4 JUMPI PUSH0 PUSH0 REVERT JUMPDEST POP JUMP JUMPDEST PUSH0 DUP2 CALLDATALOAD SWAP1 POP PUSH2 0x3F5 DUP2 PUSH2 0x3D1 JUMP JUMPDEST SWAP3 SWAP2 POP POP JUMP JUMPDEST PUSH0 PUSH0 PUSH0 PUSH0 PUSH1 0x80 DUP6 DUP8 SUB SLT ISZERO PUSH2 0x413 JUMPI PUSH2 0x412 PUSH2 0x280 JUMP JUMPDEST JUMPDEST PUSH0 DUP6 ADD CALLDATALOAD PUSH8 0xFFFFFFFFFFFFFFFF DUP2 GT ISZERO PUSH2 0x430 JUMPI PUSH2 0x42F PUSH2 0x284 JUMP JUMPDEST JUMPDEST PUSH2 0x43C DUP8 DUP3 DUP9 ADD PUSH2 0x397 JUMP JUMPDEST SWAP5 POP POP PUSH1 0x20 DUP6 ADD CALLDATALOAD PUSH8 0xFFFFFFFFFFFFFFFF DUP2 GT ISZERO PUSH2 0x45D JUMPI PUSH2 0x45C PUSH2 0x284 JUMP JUMPDEST JUMPDEST PUSH2 0x469 DUP8 DUP3 DUP9 ADD PUSH2 0x397 JUMP JUMPDEST SWAP4 POP POP PUSH1 0x40 PUSH2 0x47A DUP8 DUP3 DUP9 ADD PUSH2 0x3E7 JUMP JUMPDEST SWAP3 POP POP PUSH1 0x60 DUP6 ADD CALLDATALOAD PUSH8 0xFFFFFFFFFFFFFFFF DUP2 GT ISZERO PUSH2 0x49B JUMPI PUSH2 0x49A PUSH2 0x284 JUMP JUMPDEST JUMPDEST PUSH2 0x4A7 DUP8 DUP3 DUP9 ADD PUSH2 0x397 JUMP JUMPDEST SWAP2 POP POP SWAP3 SWAP6 SWAP2 SWAP5 POP SWAP3 POP JUMP JUMPDEST PUSH0 DUP2 MLOAD SWAP1 POP SWAP2 SWAP1 POP JUMP JUMPDEST PUSH0 DUP3 DUP3 MSTORE PUSH1 0x20 DUP3 ADD SWAP1 POP SWAP3 SWAP2 POP POP JUMP JUMPDEST DUP3 DUP2 DUP4 MCOPY PUSH0 DUP4 DUP4 ADD MSTORE POP POP POP JUMP JUMPDEST PUSH0 PUSH2 0x4E5 DUP3 PUSH2 0x4B3 JUMP JUMPDEST PUSH2 0x4EF DUP2 DUP6 PUSH2 0x4BD JUMP JUMPDEST SWAP4 POP PUSH2 0x4FF DUP2 DUP6 PUSH1 0x20 DUP7 ADD PUSH2 0x4CD JUMP JUMPDEST PUSH2 0x508 DUP2 PUSH2 0x290 JUMP JUMPDEST DUP5 ADD SWAP2 POP POP SWAP3 SWAP2 POP POP JUMP JUMPDEST PUSH2 0x51C DUP2 PUSH2 0x3C4 JUMP JUMPDEST DUP3 MSTORE POP POP JUMP JUMPDEST PUSH0 PUSH1 0x80 DUP3 ADD SWAP1 POP DUP2 DUP2 SUB PUSH0 DUP4 ADD MSTORE PUSH2 0x53A DUP2 DUP8 PUSH2 0x4DB JUMP JUMPDEST SWAP1 POP DUP2 DUP2 SUB PUSH1 0x20 DUP4 ADD MSTORE PUSH2 0x54E DUP2 DUP7 PUSH2 0x4DB JUMP JUMPDEST SWAP1 POP PUSH2 0x55D PUSH1 0x40 DUP4 ADD DUP6 PUSH2 0x513 JUMP JUMPDEST DUP2 DUP2 SUB PUSH1 0x60 DUP4 ADD MSTORE PUSH2 0x56F DUP2 DUP5 PUSH2 0x4DB JUMP JUMPDEST SWAP1 POP SWAP6 SWAP5 POP POP POP POP POP JUMP JUMPDEST PUSH32 0x4E487B7100000000000000000000000000000000000000000000000000000000 PUSH0 MSTORE PUSH1 0x22 PUSH1 0x4 MSTORE PUSH1 0x24 PUSH0 REVERT JUMPDEST PUSH0 PUSH1 0x2 DUP3 DIV SWAP1 POP PUSH1 0x1 DUP3 AND DUP1 PUSH2 0x5BE JUMPI PUSH1 0x7F DUP3 AND SWAP2 POP JUMPDEST PUSH1 0x20 DUP3 LT DUP2 SUB PUSH2 0x5D1 JUMPI PUSH2 0x5D0 PUSH2 0x57A JUMP JUMPDEST JUMPDEST POP SWAP2 SWAP1 POP JUMP JUMPDEST PUSH0 DUP2 SWAP1 POP DUP2 PUSH0 MSTORE PUSH1 0x20 PUSH0 KECCAK256 SWAP1 POP SWAP2 SWAP1 POP JUMP JUMPDEST PUSH0 PUSH1 0x20 PUSH1 0x1F DUP4 ADD DIV SWAP1 POP SWAP2 SWAP1 POP JUMP JUMPDEST PUSH0 DUP3 DUP3 SHL SWAP1 POP SWAP3 SWAP2 POP POP JUMP JUMPDEST PUSH0 PUSH1 0x8 DUP4 MUL PUSH2 0x633 PUSH32 0xFFFFFFFFFFFFFFFFFFFFFFFFFFFFFFFFFFFFFFFFFFFFFFFFFFFFFFFFFFFFFFFF DUP3 PUSH2 0x5F8 JUMP JUMPDEST PUSH2 0x63D DUP7 DUP4 PUSH2 0x5F8 JUMP JUMPDEST SWAP6 POP DUP1 NOT DUP5 AND SWAP4 POP DUP1 DUP7 AND DUP5 OR SWAP3 POP POP POP SWAP4 SWAP3 POP POP POP JUMP JUMPDEST PUSH0 DUP2 SWAP1 POP SWAP2 SWAP1 POP JUMP JUMPDEST PUSH0 DUP2 SWAP1 POP SWAP2 SWAP1 POP JUMP JUMPDEST PUSH0 PUSH2 0x681 PUSH2 0x67C PUSH2 0x677 DUP5 PUSH2 0x655 JUMP JUMPDEST PUSH2 0x65E JUMP JUMPDEST PUSH2 0x655 JUMP JUMPDEST SWAP1 POP SWAP2 SWAP1 POP JUMP JUMPDEST PUSH0 DUP2 SWAP1 POP SWAP2 SWAP1 POP JUMP JUMPDEST PUSH2 0x69A DUP4 PUSH2 0x667 JUMP JUMPDEST PUSH2 0x6AE PUSH2 0x6A6 DUP3 PUSH2 0x688 JUMP JUMPDEST DUP5 DUP5 SLOAD PUSH2 0x604 JUMP JUMPDEST DUP3 SSTORE POP POP POP POP JUMP JUMPDEST PUSH0 PUSH0 SWAP1 POP SWAP1 JUMP JUMPDEST PUSH2 0x6C5 PUSH2 0x6B6 JUMP JUMPDEST PUSH2 0x6D0 DUP2 DUP5 DUP5 PUSH2 0x691 JUMP JUMPDEST POP POP POP JUMP JUMPDEST JUMPDEST DUP2 DUP2 LT ISZERO PUSH2 0x6F3 JUMPI PUSH2 0x6E8 PUSH0 DUP3 PUSH2 0x6BD JUMP JUMPDEST PUSH1 0x1 DUP2 ADD SWAP1 POP PUSH2 0x6D6 JUMP JUMPDEST POP POP JUMP JUMPDEST PUSH1 0x1F DUP3 GT ISZERO PUSH2 0x738 JUMPI PUSH2 0x709 DUP2 PUSH2 0x5D7 JUMP JUMPDEST PUSH2 0x712 DUP5 PUSH2 0x5E9 JUMP JUMPDEST DUP2 ADD PUSH1 0x20 DUP6 LT ISZERO PUSH2 0x721 JUMPI DUP2 SWAP1 POP JUMPDEST PUSH2 0x735 PUSH2 0x72D DUP6 PUSH2 0x5E9 JUMP JUMPDEST DUP4 ADD DUP3 PUSH2 0x6D5 JUMP JUMPDEST POP POP JUMPDEST POP POP POP JUMP JUMPDEST PUSH0 DUP3 DUP3 SHR SWAP1 POP SWAP3 SWAP2 POP POP JUMP JUMPDEST PUSH0 PUSH2 0x758 PUSH0 NOT DUP5 PUSH1 0x8 MUL PUSH2 0x73D JUMP JUMPDEST NOT DUP1 DUP4 AND SWAP2 POP POP SWAP3 SWAP2 POP POP JUMP JUMPDEST PUSH0 PUSH2 0x770 DUP4 DUP4 PUSH2 0x749 JUMP JUMPDEST SWAP2 POP DUP3 PUSH1 0x2 MUL DUP3 OR SWAP1 POP SWAP3 SWAP2 POP POP JUMP JUMPDEST PUSH2 0x789 DUP3 PUSH2 0x4B3 JUMP JUMPDEST PUSH8 0xFFFFFFFFFFFFFFFF DUP2 GT ISZERO PUSH2 0x7A2 JUMPI PUSH2 0x7A1 PUSH2 0x2A0 JUMP JUMPDEST JUMPDEST PUSH2 0x7AC DUP3 SLOAD PUSH2 0x5A7 JUMP JUMPDEST PUSH2 0x7B7 DUP3 DUP3 DUP6 PUSH2 0x6F7 JUMP JUMPDEST PUSH0 PUSH1 0x20 SWAP1 POP PUSH1 0x1F DUP4 GT PUSH1 0x1 DUP2 EQ PUSH2 0x7E8 JUMPI PUSH0 DUP5 ISZERO PUSH2 0x7D6 JUMPI DUP3 DUP8 ADD MLOAD SWAP1 POP JUMPDEST PUSH2 0x7E0 DUP6 DUP3 PUSH2 0x765 JUMP JUMPDEST DUP7 SSTORE POP PUSH2 0x847 JUMP JUMPDEST PUSH1 0x1F NOT DUP5 AND PUSH2 0x7F6 DUP7 PUSH2 0x5D7 JUMP JUMPDEST PUSH0 JUMPDEST DUP3 DUP2 LT ISZERO PUSH2 0x81D JUMPI DUP5 DUP10 ADD MLOAD DUP3 SSTORE PUSH1 0x1 DUP3 ADD SWAP2 POP PUSH1 0x20 DUP6 ADD SWAP5 POP PUSH1 0x20 DUP2 ADD SWAP1 POP PUSH2 0x7F8 JUMP JUMPDEST DUP7 DUP4 LT ISZERO PUSH2 0x83A JUMPI DUP5 DUP10 ADD MLOAD PUSH2 0x836 PUSH1 0x1F DUP10 AND DUP3 PUSH2 0x749 JUMP JUMPDEST DUP4 SSTORE POP JUMPDEST PUSH1 0x1 PUSH1 0x2 DUP9 MUL ADD DUP9 SSTORE POP POP POP JUMPDEST POP POP POP POP POP POP JUMP INVALID LOG2 PUSH5 0x6970667358 0x22 SLT KECCAK256 RETURNDATASIZE DUP7 0x2C DUP4 0xA8 CALLCODE MOD SWAP3 PUSH0 0xD5 PUSH31 0x6BF3109D349EF6E1CE0F77827B2E3B70D60E70055964736F6C634300081F00 CALLER "
				},
				"gasEstimates": {
					"creation": {
						"codeDepositCost": "436200",
						"executionCost": "472",
						"totalCost": "436672"
					},
					"external": {
						"saveAndRetrieve(string,string,uint16,string)": "infinite"
					}
				},
				"methodIdentifiers": {
					"saveAndRetrieve(string,string,uint16,string)": "4c59d171"
				}
			},
			"storageLayout": {
				"storage": [
					{
						"astId": 3,
						"contract": "day2-SaveMyName/day_SaveMyName.sol:SaveMyName",
						"label": "name",
						"offset": 0,
						"slot": "0",
						"type": "t_string_storage"
					},
					{
						"astId": 5,
						"contract": "day2-SaveMyName/day_SaveMyName.sol:SaveMyName",
						"label": "bio",
						"offset": 0,
						"slot": "1",
						"type": "t_string_storage"
					},
					{
						"astId": 7,
						"contract": "day2-SaveMyName/day_SaveMyName.sol:SaveMyName",
						"label": "age",
						"offset": 0,
						"slot": "2",
						"type": "t_uint16"
					},
					{
						"astId": 9,
						"contract": "day2-SaveMyName/day_SaveMyName.sol:SaveMyName",
						"label": "job",
						"offset": 0,
						"slot": "3",
						"type": "t_string_storage"
					}
				],
				"types": {
					"t_string_storage": {
						"encoding": "bytes",
						"label": "string",
						"numberOfBytes": "32"
					},
					"t_uint16": {
						"encoding": "inplace",
						"label": "uint16",
						"numberOfBytes": "2"
					}
				}
			},
			"userdoc": {
				"kind": "user",
				"methods": {},
				"version": 1
			}
		}
	}
}